:02000002D0002C
:1040000000400D0004560D00000006000E000501E2
:084010000401E80500000000B6
:0440180054520D00F1
:10401C0009480A49884208B505D0094A824202D0AB
:10402C00121A01F0CDF80748074A0021121A01F0C4
:10403C00D2F8014808BD00BF6CE3032074550D0095
:10404C00D4E30320D4E30320F0E7032070B500F0A1
:10405C00ABFB074C074BE41AA40800251E46A542EF
:10406C0004D056F8253098470135F8E770BD00BFED
:10407C0070550D003C550D0000F03AB808B500F035
:10408C0053F8BDE8084000F051BB00F01BBA00F03B
:10409C0019BA0078B0FA80F0400970470123037018
:1040AC007047000008B500F07FFC0249BDE80840ED
:1040BC0000F0B9BA68520D0010B500F075FC064955
:1040CC0000F0B1FA00F0DEFE03680449DB68072259
:1040DC00BDE81040184700BF76520D0087520D0006
:1040EC0010B50446006808B100F0ECF9204610BD8C
:1040FC0008B500F059FC4FF4165100F049FC00F0E3
:10410C00C1FE202100F038FD00F0BCFE044900F097
:10411C0036FD00F0B7FE0349BDE8084000F033BDA2
:10412C00B1400D00C5400D0038B500F03DFC054612
:10413C0000F0A8FE03681B699847041E05DA2D21C0
:10414C00284600F061FA614200E021460A22284626
:10415C0000F073FA284600F05AFA6420BDE83840A3
:10416C0000F09EBA10B50A4C00F028F8002323602A
:10417C00A380A371238103204FF6FF73638100F0AA
:10418C001DF92046034A0449BDE8104000F0A0BECA
:10419C00D8E30320D4E30320ED400D0008B5024B17
:1041AC001B689B68019308BD6802030008B5024BAD
:1041BC001B68DB68019308BD6802030008B5024B5D
:1041CC001B681B68019308BD2C02030008B5024B49
:1041DC001B685B68019308BD1802030008B5024B0D
:1041EC001B685B69019308BD1802030008B5024BFC
:1041FC001B689B68019308BD4802030008B5024B7D
:10420C001B681B69019308BD4802030008B5024BEB
:10421C001B685B69019308BD4802030008B5024B9B
:10422C001B685B6C019308BD4802030008B5024B88
:10423C001B689B6C019308BD4802030008B5024B38
:10424C001B685B69019308BD6402030008B5024B4F
:10425C001B681B68019308BD3C02030008B5024BA8
:10426C001B68DB68019308BD3C02030008B5024BD8
:10427C001B681B69019308BD3C02030008B5024B87
:10428C001B685B69019308BD3C02030008B5024B37
:10429C001B689B69019308BD3C02030008B5024BE7
:1042AC001B68DB69019308BD3C02030008B5024B97
:1042BC001B689B6A019308BD3C02030008B5024BC6
:1042CC001B68DB68019308BD2802030008B5024B8C
:1042DC001B681B6A019308BD2802030008B5024B3A
:1042EC001B685B6A019308BD2802030008B5024BEA
:1042FC001B689B6A019308BD2802030008B5024B9A
:10430C001B68DB6A019308BD2802030008B5024B49
:10431C001B681B6B019308BD2802030008B5024BF8
:10432C001B689B6B019308BD2802030008B5024B68
:10433C001B68DB6B019308BD2802030008B5024B18
:10434C001B681B6C019308BD2802030008B5024BC7
:10435C001B681B68019308BD4C02030008B5024B97
:10436C001B685B68019308BD4C02030008B5024B47
:10437C001B681B69019308BD4C02030008B5024B76
:10438C001B685B69019308BD4C02030008B5024B26
:10439C001B689B69019308BD4C02030008B5024BD6
:1043AC001B68DB69019308BD4C02030008B5024B86
:1043BC001B681B6A019308BD4C02030008B5024B35
:1043CC001B685B68019308BD2002030008B5024B13
:1043DC001B685B69019308BD2002030008B5034B01
:1043EC001B68D3F88830019308BD0000200203003D
:1043FC0008B5034B1B68D3F89430019308BD00003B
:10440C002002030008B5024B1B685B68019308BDD2
:10441C004002030008B5024B1B689B68019308BD62
:10442C004002030008B5024B1B68DB68019308BD12
:10443C004002030008B5024B1B681B69019308BDC1
:10444C004002030008B5024B1B685B69019308BD71
:10445C004002030008B5024B1B689B69019308BD21
:10446C004002030008B5024B1B68DB69019308BDD1
:10447C004002030008B5024B1B681B6A019308BD80
:10448C004002030008B5024B1B681B6B019308BD6F
:10449C004002030008B5024B1B685B6B019308BD1F
:1044AC004002030008B5024B1B68DB6B019308BD8F
:1044BC004402030008B5024B1B681B68019308BD3E
:1044CC001C02030008B5024B1B685B68019308BD16
:1044DC001C020300002211464068FFF7CBBF0022EC
:1044EC0011464068FFF7D6BF00224068FFF7CABFED
:1044FC00002281F001014068FFF7B4BF00231A4687
:10450C0019464068FFF7A6BF00231A4619464068B3
:10451C00FFF798BF002211464068FFF78BBF0022BF
:10452C0011464068FFF776BF002202214068FFF772
:10453C0079BF00231A464068FFF764BF024B032281
:10454C005A60024A1A607047E4E3032098520D0047
:10455C0010B5094C00204FF6FF732060A080A071AD
:10456C0020816381FFF72AFF2046044A0449BDE8F5
:10457C00104000F0ADBC00BFECE30320D4E30320FB
:10458C00ED400D0010B50446006808B1FFF74EFE73
:10459C00204610BD10B5064C002320462360FFF7C3
:1045AC003DFE2046034A0449BDE8104000F090BC93
:1045BC00F8E30320D4E3032091450D00F8B506463B
:1045CC000D468F180024BD420CD0336815F8011B22
:1045DC009B6830469847002801DB0444F3E7002C25
:1045EC0008BF04462046F8BD70B505460C46084683
:1045FC0049B100F021FE2B68024621462846DB68B3
:10460C00BDE87040184770BD03689B68184738B503
:10461C000D210546FFF7F8FF0A2104462846FFF74F
:10462C00F3FF204438BD38B50546FFF7DDFF0446DF
:10463C002846FFF7ECFF204438BD30B58BB00B4655
:10464C0000218DF82410012A98BF0A220DF12304B1
:10465C00B3FBF2F505FB123303F0FF03092B94BFF8
:10466C0030333733DBB2214604F801392B46002DA9
:10467C00EED1FFF7B9FF0BB030BD0000014B024A81
:10468C001A607047FCE3032037530D00024B1A6885
:10469C00024B1A60704700BF6CE3032000E4032058
:1046AC000021FFF793BE10B58368044613B10322B3
:1046BC0001469847204610BD10B50446FFF7F3FF9E
:1046CC00204610BD0348044A04490023836000F0CF
:1046DC00FFBB00BF04E40320D4E30320C5460D0058
:1046EC0008B50F4B33B100F05FF903681B699847AD
:1046FC0000280DDC0B4B33B100F0D4F903681B69B7
:10470C009847002807DC084B43B1AFF3008008BD85
:10471C00AFF30080EEE7AFF30080F4E708BD00BF15
:10472C0000000000000000000000000008B5FFF7CA
:10473C00D7FFFFF753FD014B186008BD30E703208E
:10474C000248034A0349121A00F03ABD00F4032050
:10475C0004F4032070550D0007B5002300931A468E
:10476C006FF07701FFF744FE03B05DF804FB000027
:10477C0007B543880A2B08D0502B09D1094B1B686D
:10478C003BB103B05DF804EB1847FFF7E5FF06E01B
:10479C00002300931A466FF07701FFF729FE03B050
:1047AC005DF804FB14E4032038B5104C104D23685D
:1047BC00AB42104B0CBF012200221A7002D0FFF743
:1047CC00BFFF2560FFF702FD044600F00DFD0A4B0C
:1047DC0013B12046AFF3008000210748FFF762FEBB
:1047EC0000210648BDE83840FFF7F8BD00F403206F
:1047FC001E1C279A18E40320000000007D470D00C2
:10480C00704710B51821044600F070FB204610BD0F
:10481C00F0B5037D062B8DB00E4600F104074FF06A
:10482C00000402D000F1080518E00CAD394605F87B
:10483C00304D2F232A460A20FFF700FD284600F0B2
:10484C00FBFC33680246DB682946304698470FE08C
:10485C0024B12E213046FFF7D7FE044415F8011D74
:10486C000A223046FFF7E9FEBD420444F0D120464F
:10487C000DB0F0BD10B5054B0446112240F8043BB9
:10488C00002100F0A8FC204610BD00BFD8530D003D
:10489C000346074A10B543F8042B01F1100251F8F6
:1048AC00044B43F8044B9142F9D10A781A7010BDAD
:1048BC00D8530D0010B59DF8084044EA032343EA91
:1048CC00024242EA016104234160037510BD37B511
:1048DC000D788B784A78C97800912946FFF7EAFF62
:1048EC0003B030BD41747047704708B50021007C9F
:1048FC00FFF74CFD30EA200028BF4FF0FF3008BD19
:10490C0008B50121007CFFF741FD30EA200028BFEB
:10491C004FF0FF3008BD08B5007CFFF72FFD20EAF3
:10492C00E07008BD08B5007CFFF720FD20EAE070C0
:10493C0008BD007CFFF73ABD10B51421044600F009
:10494C00D5FA204610BD38B50446007C0D46FFF75D
:10495C0015FD002801DC607C28B12946207CFFF77E
:10496C001DFD20EAE07038BD10B5044600236360DD
:10497C004FF47A73A360054B23600123084621741E
:10498C0063741146FFF7E2FC204610BDEC530D009A
:10499C000022007CFFF7E2BC10B514220446002173
:1049AC0000F019FC204610BD30B50E4D87B001A8A3
:1049BC00FFF7F2FF296811F0010410D12846FFF728
:1049CC0068FB60B101AA21460748FFF7CDFF2846D6
:1049DC00FFF764FB054A0649034800F079FA0248E0
:1049EC0007B030BD1CE4032020E40320D4E30320F3
:1049FC00F5480D0070474174704708B5007CFFF70F
:104A0C0055FC20EAE07008BD08B5007CFFF72EFCD1
:104A1C0020EAE07008BD08B5007CFFF737FC30EAEF
:104A2C00200028BF4FF0FF3008BD08B5007CFFF711
:104A3C0025FC30EA200028BF4FF0FF3008BD007C79
:104A4C00FFF72CBC10B51421044600F04FFA204699
:104A5C0010BD70B5457C04460E4625B9007CFFF7A9
:104A6C0025FC002805DD3146207CBDE87040FFF7B1
:104A7C00F5BB284670BD000010B50446084611462B
:104A8C00002262604FF47A72A260054A2260012211
:104A9C00207462741A46FFF7D9FB204610BD00BF84
:104AAC001C540D0038B50C4D296811F0010411D1BE
:104ABC002846FFF7EEFA68B1084A094B0948214627
:104ACC00FFF7DAFF2846FFF7E9FA074A07490548D6
:104ADC0000F0FEF9034838BDCCE40320D0E40320F9
:104AEC0048E4032034E40320D4E30320014A0D00FE
:104AFC007047F8B5064615460C468F18BC4206D0D2
:104B0C00336814F8011B9B6830469847F6E7284633
:104B1C00F8BD0022007CFFF7D9BB0021007CFFF719
:104B2C00DDBB0021007CFFF7E1BB0021007CFFF71F
:104B3C00E5BB0021007CFFF7E9BB10B5142104464E
:104B4C0000F0D4F9204610BD10B504460023636074
:104B5C004FF47A73A360044B21740846236011460A
:104B6C00FFF7ECFB204610BD4C540D000A46002309
:104B7C000121007CFFF7A2BBC9B2FFF7F7BF0022EF
:104B8C00007CFFF7CBBB0022007CFFF7CFBB0022E1
:104B9C0011464068FFF76EBC002211464068FFF7D3
:104BAC0079BC00224068FFF76DBC002281F0010146
:104BBC004068FFF757BC00231A4601214068FFF7F5
:104BCC0049BC00231A4619464068FFF73BBC00223B
:104BDC0011464068FFF72EBC002211464068FFF7D3
:104BEC0019BC002202214068FFF71CBC00231A46A6
:104BFC004068FFF707BC38B5054688B104684CB16E
:104C0C00A3681BB103222146204698471021204659
:104C1C0000F06CF928461421BDE8384000F066B964
:104C2C0038BD10B103685B681847704710B503684E
:104C3C000446BBB15868FFF7D9FA78B923685A7C97
:104C4C0012B95868FFF7DAFA23685868FFF7DEFAEA
:104C5C0020680023236028B1FFF7CDFF206808B13E
:104C6C00FFF7C9FF204610BD38B50446D0F8C40183
:104C7C0008B1FFF70CFAD4F8C00108B1FFF7D6FA67
:104C8C00D4F8BC5135B12846FFF7D0FF0421284693
:104C9C0000F02CF9206808B1FFF7C3FF204638BD9F
:104CAC0010B5044B044640F8083BFFF7DDFF2046E7
:104CBC0010BD00BF74540D0038B50E4C0E4B236064
:104CCC000025022304F5E4706360A560C4F8C451A8
:104CDC00C4F8C851FFF7A2FA084BC4F8CC5184F8B9
:104CEC00D05123602046064A0649BDE8384000F002
:104CFC00EFB800BF54E50320A8540D0074540D0008
:104D0C00D4E30320AD4C0D0000231A464068FFF796
:104D1C0079BB002202214068FFF784BB00221146B8
:104D2C004068FFF777BB002211464068FFF782BB53
:104D3C0000231A4619464068FFF784BB00231A4625
:104D4C0019464068FFF786BB002281F001014068DC
:104D5C00FFF788BB00224068FFF794BB0022114686
:104D6C004068FFF797BB002211464068FFF782BBF3
:104D7C002DE9F043002495B016460D460746FFF783
:104D8C0079FD214620220CA8009400F024FA40233F
:104D9C000C9321466B460CAA3046FFF707FA0446E3
:104DAC00002844D1024601216868FFF743FB022129
:104DBC00804622466868FFF73DFB009E81462146EF
:104DCC00002E34D0002932D17368022B02D00A2B6A
:104DDC0009D02AE0B8F1000F27D0716938460431A8
:104DEC00FFF775FD20E0B9F1000F1ED07469112298
:104DFC0001A800F0F0F906238DF8143001AD04F190
:104E0C0008031834186859682A4603C20833A342A9
:104E1C001546F7D101A906A807ADFFF739FD0FCD4F
:104E2C003C1D0FC42B6823700121F669C8E700985C
:104E3C00FFF7B4F9384615B0BDE8F083024B034ACE
:104E4C001A6000225A60704728E70320A8540D000E
:104E5C0070B5044614252A46094E002100F0BBF912
:104E6C00258020253146A5602561284600F040F8B4
:104E7C0031466060284600F03BF8E060204670BD8B
:104E8C00D4540D0030B50E4D296811F0010487B0D3
:104E9C0013D12846FFF7FDF878B101A8FFF7D8FF2A
:104EAC0001AA21460748FFF74FFE2846FFF7F6F800
:104EBC00054A0649034800F00BF8024807B030BD1C
:104ECC0034E7032038E70320D4E30320FD4A0D0028
:104EDC000B460146184600F065B90000024B1868F5
:104EEC00BFF35F8F704700BF4CE70320FFF7CDB8CF
:104EFC0000F000B810B5002814BF04460124204669
:104F0C00FFF7D8FA20B9FFF7E9FF08B18047F6E7B9
:104F1C0010BD0000184B1A68D1075CBF01221A6043
:104F2C00164B1A68D2075CBF01221A60144B1A6820
:104F3C00D0075CBF01221A60124B1A68D1075CBF04
:104F4C0001221A60104B1A68D2075CBF01221A604A
:104F5C000E4B1A68D0075CBF01221A600C4B1A6802
:104F6C00D1075CBF01221A600A4B1A68D2075CBFDA
:104F7C0001221A60704700BF6CE7032068E703202A
:104F8C0064E7032060E703205CE7032058E7032075
:104F9C0054E7032050E70320244B1A68D0075CBF6A
:104FAC0001221A60224B1A68D1075CBF01221A60D9
:104FBC00204B1A68D2075CBF01221A601E4B1A687C
:104FCC00D0075CBF01221A601C4B1A68D1075CBF6A
:104FDC0001221A601A4B1A68D2075CBF01221A60B0
:104FEC00184B1A68D0075CBF01221A60164B1A685E
:104FFC00D1075CBF01221A60144B1A68D2075CBF40
:10500C0001221A60124B1A68D0075CBF01221A6089
:10501C00104B1A68D1075CBF01221A600E4B1A683C
:10502C00D2075CBF01221A60704700BF9CE70320C7
:10503C0098E7032094E7032090E703208CE70320F4
:10504C0088E7032084E7032080E703207CE7032024
:10505C0078E7032074E7032070E70320244B1A68D9
:10506C00D0075CBF01221A60224B1A68D1075CBFC3
:10507C0001221A60204B1A68D2075CBF01221A6009
:10508C001E4B1A68D0075CBF01221A601C4B1A68B1
:10509C00D1075CBF01221A601A4B1A68D2075CBF99
:1050AC0001221A60184B1A68D0075CBF01221A60E3
:1050BC00164B1A68D1075CBF01221A60144B1A6890
:1050CC00D2075CBF01221A60124B1A68D0075CBF72
:1050DC0001221A60104B1A68D1075CBF01221A60BA
:1050EC000E4B1A68D2075CBF01221A60704700BFD2
:1050FC00CCE70320C8E70320C4E70320C0E7032064
:10510C00BCE70320B8E70320B4E70320B0E7032093
:10511C00ACE70320A8E70320A4E70320A0E70320C3
:10512C00184B1A68D1075CBF01221A60164B1A681B
:10513C00D2075CBF01221A60144B1A68D0075CBFFF
:10514C0001221A60124B1A68D1075CBF01221A6047
:10515C00104B1A68D2075CBF01221A600E4B1A68FA
:10516C00D0075CBF01221A600C4B1A68D1075CBFD8
:10517C0001221A600A4B1A68D2075CBF01221A601E
:10518C00704700BFECE70320E8E70320E4E70320C7
:10519C00E0E70320DCE70320D8E70320D4E7032073
:1051AC00D0E7032010B5054C13462CB10A46014636
:1051BC000220AFF3008010BD204610BD000000009F
:1051CC0010B5431E0A44914204D011F8014B03F868
:1051DC00014FF8E710BD02440346934202D003F896
:1051EC00011BFAE77047000038B5124B1C68A36B23
:1051FC000546D3B91820FFF75DF943F20E33A063CF
:10520C0003804AF6CD33438041F2342383804EF23F
:10521C006D63C3804DF6EC630381052343810B233F
:10522C00838101220023C0E90423A36B00221D61AA
:10523C005A6138BDD0E30320034613F8012B002A32
:10524C00FBD1181A013870471D400D0059400D0054
:10525C0085400D0089400D00000000006461746100
:10526C002072656365697665640072657175657336
:10527C007420726563656976656400726571756525
:10528C007374000000000000000000003F450D009A
:10529C0035450D002B450D0021450D0015450D0024
:1052AC0009450D00FD440D00F5440D00EB440D00C7
:1052BC00E1440D007D4D0D00626175640053657213
:1052CC0069616C0053657269616C31007479706549
:1052DC0000706172616D00636D6400696400686EDA
:1052EC0064007374726D0066696C74006C766C008B
:1052FC0061646448616E646C65720072656D6F7692
:10530C006548616E646C657200656E756D48616EA2
:10531C00646C657273004A534F4E53747265616DC1
:10532C004C6F6748616E646C65720061707000252B
:10533C003031307520005D20002564002C200028C1
:10534C00293A2000205B00636F6465203D20002516
:10535C00690064657461696C73203D20000D0A005E
:10536C0066006C6E00666E00636F64650064657445
:10537C0061696C006E6F6E650074726163650069C3
:10538C006E666F007761726E006572726F7200707C
:10539C00616E696300616C6C005A00252B303364BC
:1053AC003A253032750025592D256D2D256454254F
:1053BC00483A254D3A2553257A0061736374696D1B
:1053CC006500000000000000000000001D480D00FA
:1053DC000D480D000F480D000000000000000000FB
:1053EC00F5480D0045490D0053490D00C9450D0008
:1053FC0031490D00F7480D000D490D003F490D00D6
:10540C0023490D00F1480D000000000000000000D1
:10541C00014A0D00514A0D005F4A0D00C9450D00AF
:10542C00154A0D00374A0D00234A0D004B4A0D005A
:10543C00034A0D00074A0D000000000000000000A8
:10544C00FD4A0D00474B0D001F4B0D00FF4A0D0090
:10545C00274B0D002F4B0D00374B0D003F4B0D0014
:10546C000000000000000000F94B0D00EF4B0D0098
:10547C00E54B0D00DB4B0D00CF4B0D00C34B0D006E
:10548C00B74B0D00AF4B0D00A54B0D009B4B0D000A
:10549C007D4D0D000000000000000000154D0D00BA
:1054AC001F4D0D00294D0D00334D0D003D4D0D00D0
:1054BC00494D0D00554D0D00614D0D00694D0D0010
:1054CC00734D0D007D4D0D0000000000000000002C
:1054DC0000000000000000000000000000000000C0
:1054EC0000000000000000000000000000000000B0
:1054FC0000000000000000000000000000000000A0
:10550C00000000000000000000000000000000008F
:10551C00000000000000000000000000000000007F
:10552C00000000000000000000000000430000002C
:10553C0071410D0049450D005D450D00A1450D0063
:10554C0089460D0099460D00D1460D00C54C0D0045
:10555C00494E0D00214F0D00A54F0D0069500D0057
:04556C002D510D00B0
:045570000000000037
:10557400C6530D0000000000D8540D00F8540D006F
:1055840018550D000000000000000000000000009D
:105594000000000038550D0000000000000000006D
:1055A40000000000000000000000000000000000F7
:1055B40000000000000000000000000000000000E7
:1055C40000000000000000000000000000000000D7
:0855D4000000000070E3032059
:1055DC00FFFFFFFF00000102030405060708090A8C
:1055EC000B0C0D0E0F101112131415161718191A87
:0855FC001B1C1D1E1F202800CE
:04560400785634128E
:04000003D000401CCD
:00000001FF
