:02000002B0004C
:1040000000400B0028F30B00000006000C00050226
:084010000401E50C00000000B2
:04401800A8E20B000F
:1040200009480A49884208B505D0094A824202D0A7
:10403000121A08F091F80748074A0021121A08F0EE
:10404000B3F8014808BD00BFA850032008F10B00D9
:10405000A0520320A0520320EDE7032070B5074EC5
:10406000074C06F0F7FFA41BA4080025AC4200D1C2
:1040700070BD56F8043B98470135F7E7B4F00B00E4
:10408000D8F00B0002F0F2BD08B502F05DFFBDE80C
:10409000084006F097BF04F0F9BC04F0F7BC04F048
:1040A000FDBC04F0FBBC0078B0FA80F0400970471A
:1040B000012303707047000010B5034B03600446F2
:1040C00003F0E2FD204610BD44E60B0010B50446A7
:1040D000FFF7F2FF204646F2BC51FFF7E2FF204611
:1040E00010BD000008B5034650B1064A904201D900
:1040F00007F04AF80C205843BDE80840FFF7CBBF53
:1041000008BD00BFAAAAAA0A00F1080373B50446B5
:1041100003600D46D9B1084608F08EF80F2805EB6C
:104120000006019007D9002201A9204607F042F8B5
:10413000019B2060A36032462946206807F075F88D
:10414000019B226863600021D15402B070BD014818
:1041500007F01DF8BCE20B0008B5034650B1064A53
:10416000904201D907F010F86C205843BDE8084090
:10417000FFF791BF08BD00BF4B682F0108B503468C
:1041800050B1064A904201D906F0FEFF182058436C
:10419000BDE80840FFF77FBF08BD00BF5555550576
:1041A00008B548B1B0F1005F01D306F0EDFFBDE8FE
:1041B00008408000FFF76FBF08BD08B548B1B0F1F7
:1041C000805F01D306F0E0FFBDE80840C000FFF7C4
:1041D00062BF08BD73B500F108030360D1E9005365
:1041E0000446EE181DB916B10C4806F0D0FF0F2B8F
:1041F000019307D9002201A9204606F0DBFF019BAD
:104200002060A36032462946206807F009F8019B28
:10421000226863600021D15402B070BDBCE20B0083
:104220000368C9B29B68184713B5044661B10846D4
:10423000019108F001F823680199DB6802462046E5
:1042400002B0BDE81040184702B010BD8142F8B579
:1042500004460D4625D0D1E900710068A368CE1B45
:104260001B1A9E421ED9F010FFF7A7FF0023054638
:104270009E420AD0EA181CBFF918D1E9000103F1E7
:10428000080318BFC2E90001F2E7206818B1A1686D
:10429000091AFFF706FF25603544A56023683344FB
:1042A0006360F8BD6268121A964206D8B942F5D02A
:1042B0003246394607F05EFFF0E712B1394607F0A3
:1042C00059FFD4E90027BB1A2A686D681A44AD1A51
:1042D00000239D42E2D017EB030C1CBFD118D1E99B
:1042E000000103F1080318BFCCE90001F1E7000069
:1042F00081422DE9F84F04468A4636D0D1E9005B69
:10430000D0F800908368394AABEB0507A3EB0903AB
:104310004FEAE708BB4202FB08F828D24046FFF705
:104320002DFF06468046AB450AD0B8F1000F03D0FA
:1043300029464046FFF74EFF08F118081835F2E706
:10434000D4E90058A84504D0284606F055FF183592
:10435000F8E7206818B1A168091AFFF7A2FE2660E5
:104360003E44A66023683B446360BDE8F88F46681E
:10437000A6EB0906B74219D84646CA46002E08DD04
:104380002946504606F056FF18350AF1180A013E34
:10439000F4E728EAE8781825666805FB0895AE4238
:1043A000E0D0284606F028FF1835F8E7F610564307
:1043B000002E08DD2946484606F03CFF183509F175
:1043C0001809013EF4E7D4E90056711BDAF80050F1
:1043D000DAF804800D44A845C4D01EB12946304601
:1043E000FFF7F8FE18351836F5E700BFABAAAAAA02
:1043F0000EB403B503AB002153F8042B019305F071
:10440000ACFF02B05DF804EB03B070470EB403B527
:1044100003AB012153F8042B019305F09EFF02B07A
:104420005DF804EB03B070472DE9F04FDFF8B4827C
:10443000A24D8DB0A24B1A68D8F80030282101FB9C
:1044400002335A6A2B689A4200F0FF800023DFF89B
:104450009892DFF898A29B4F2B60082406F0E0FCAE
:104460004946064608A805F0FAFF0A22214604A894
:1044700006F04FF804A908A806F086F8016830464F
:1044800005F043FF04A805F09FFF08A805F09CFF76
:1044900006F014FE214605F0ABFD06F00FFE3121BB
:1044A000FFF7BEFE5FFA84FB06F008FE05F0A7FDED
:1044B00006F004FE1822594605F093FD06F0FEFDB5
:1044C00003681B699847002840F3BA8006F0A8FCEF
:1044D0005146064608A805F0C2FF0A22214604A854
:1044E00006F017F804A908A806F04EF8016830464F
:1044F00005F00BFF04A805F067FF08A805F064FFAE
:104500002B683946013368462B6005F0A8FF182652
:1045100006F0D4FD03685B699847C1B2684606F0AF
:1045200026F8013EF4D106F0C9FD214605F060FDF4
:1045300006F0C4FD0099FFF777FE06F071FC6249B2
:10454000064608A805F08BFF694608A806F01CF887
:104550000168304605F0D9FE08A805F035FF06F0E1
:10456000ADFD05F04CFD06F05BFC5849064608A879
:1045700005F075FF0A22214604A805F0CAFF04A928
:1045800008A806F001F80168304605F0BEFE04A850
:1045900005F01AFF08A805F017FF06F08FFD214669
:1045A00005F026FD06F08AFD3221FFF739FE06F000
:1045B00085FD05F024FD06F033FC4549064608A8B4
:1045C00005F04DFF0A22214604A805F0A2FF04A928
:1045D00008A805F0D9FF0168304605F096FE04A84A
:1045E00005F0F2FE08A805F0EFFE06F067FD0422D4
:1045F000594605F0F6FC3946684605F078FF042672
:1046000006F05CFD03685B699847C1B2684605F037
:10461000AEFF013EF4D106F003FC2E49064608A881
:1046200005F01DFF694608A805F0AEFF0168304699
:1046300005F06BFE08A805F0C7FE684605F0C4FE4D
:104640000134782C7FF40AAFF4E606F0E9FB224946
:10465000224E234F05F059FE0824002506F02EFDBA
:10466000214605F0C5FC06F029FD3121FFF7D8FDF4
:1046700006F024FD05F0C3FC06F020FD1822E1B28F
:1046800005F0AFFC06F01AFD03681B699847002887
:104690000EDD06F0C5FB0A22214605F040FE06F0BD
:1046A000BFFB314605F01EFE3B6843F8254001354F
:1046B0000134782CD2D10DB0BDE8F08FA8E60320EC
:1046C000A8500320EEE70B001EE30B002AE30B00CB
:1046D00041E30B005BE30B0073E30B00AFE50B0062
:1046E000F852032050540320E6E20B0001E30B00D4
:1046F00038B54FF4007514230446036085600561E6
:104700000549284606F03EFD03496060284606F04C
:1047100039FDE060204638BDF4EB0B0010B50446CF
:10472000006818B1A168091AFFF7BBFC204610BD4C
:1047300010B50446006818B1A168091AFFF7B1FC6A
:10474000204610BD10B50446006818B1A168091ACA
:10475000FFF7A7FC204610BD30B50D688368D0E98F
:104760000042056085B04D6845608D680393002365
:104770008560C1E900338B6001A8CDE90142FFF7F4
:10478000E1FF05B030BD70B5D0E900560446AE4239
:1047900004D0284606F030FD1835F8E7206818B137
:1047A000A168091AFFF77DFC204670BDB1F1005FDA
:1047B00070B504460D46164602D30C4806F0EAFCD6
:1047C0000023C0E9003383600846FFF7E9FC00EBF3
:1047D0008503C4E90000A3602DB13268834202D092
:1047E00040F8042BFAE76060204670BD83E30B00BD
:1047F0002DE9F341002402AB03E90600C0E90044BF
:10480000134605468460D70042F31C00104AB2EB01
:10481000C30F884602D20F4806F0BCFCFFF7CDFC60
:10482000C61902462860AE6023469F420BD0D418BA
:104830001CBF08EB0301D1E9000103F1080318BF15
:10484000C4E90001F1E728466E6002B0BDE8F081DE
:10485000F8FFFF7F83E30B002DE9F34102AB03E98F
:1048600006000023C0E900338360164618235E4328
:10487000104B0446F01058430F4B9E420F4601EB7D
:10488000060802D90D4806F085FCFFF777FC0644C0
:1048900005462060A660B84507D01DB139462846B8
:1048A000FFF798FC18371835F5E72046656002B029
:1048B000BDE8F081ABAAAAAAF8FFFF7F83E30B0053
:1048C000F8B5D1E900370025FF1A0446C0E90055C4
:1048D0008560F8100E46FFF770FCC4E9000007443D
:1048E000A760D6E900760246F61B2B46B34202EBE0
:1048F000030506D01DB1F91803C985E80300083384
:10490000F4E765602046F8BD08B542684B689A42F6
:1049100008D14AB10968006807F00EFCB0FA80F0CF
:10492000400908BD0020FCE70120FAE72DE9F04F1F
:104930000022A3B004460D469548964904F0A0FB1A
:10494000954903A805F08BFD934907A805F087FD5D
:104950002544A54205D014F8011B03A805F007FE65
:10496000F7E706F05DFA039905F0CFFC8B490FA835
:1049700005F075FD0FA903A805F06AFE04460FA80F
:1049800005F022FD002C5BD18549864D0FA805F06E
:1049900066FD0FA903A805F05BFE04460FA805F00D
:1049A00013FD2346052203A90FA805F055FE0FA904
:1049B000284605F094FD0FA805F006FD621C7A4C10
:1049C00003A90FA805F068FE0FA9204605F087FD92
:1049D0000FA805F0F9FC06F023FA2A68236873494A
:1049E000FFF714FD2F68256837B3384607F024FC1D
:1049F00006461DB3284607F01FFC04463822002156
:104A000014A807F0D1FB4C23CDE90F376848139465
:104A100003238DF85030002340680FAA1946CDE9D2
:104A2000116504F00BF807A805F0CEFC03A805F00B
:104A3000CBFC23B0BDE8F08F3E46DAE72C46DDE73D
:104A40005C490FA805F00BFD0FA903A805F000FEB7
:104A500004460FA805F0B8FC002C40F08380052226
:104A600003A90FA805F018FE0FA903A805F037FD4C
:104A70000FA805F0A9FC504D504FDFF84481D5E94F
:104A800000239B1ADB107B43A34213D9282303FB8B
:104A900004220FA8D16805F0E2FC0FA903A805F0D5
:104AA000A9FD06460FA805F08FFC0EB1C8F800401E
:104AB0000134E4E7424E3368591C05D141490022D4
:104AC000334804F0DDFAAEE728246343D118D35805
:104AD0004968DFF80C81C91A3B4B891059430BAA6E
:104AE00002AB002749000FA80B97FFF75FFE0FA945
:104AF0003648FFF731FE0FA8FFF724FE32682B6817
:104B000004FB02330FA80BAA596A0B9702ABFFF7FD
:104B10004DFE0FA94046FFF71FFE0FA8FFF712FE3C
:104B2000FFF782FC3A462A49194804F0A9FA06F030
:104B3000C5FAD8F80030196805F05AFA06F0BEFA3E
:104B40003321FFF76DFB06F0B9FA05F058FA06F0CD
:104B500067F932682B681F4904FB0234E268FFF7EB
:104B600055FC60E71C490FA805F079FC0FA903A8C4
:104B700005F06EFD04460FA805F026FC002C40F061
:104B8000A9810F4F3B6801332CD11449224697E786
:104B9000ACE60320B4E30B00EEE70B00B7E30B0039
:104BA000BDE30B00A052032074E40320BFE30B001D
:104BB00018E70320D6E30B0050540320CDCCCCCC17
:104BC000A8500320DCE30B0013DA4B689CE60320BB
:104BD000F0E30B0007E40B0010E40B0017E40B00FC
:104BE000F8520320062203A90FA805F055FD0FA9CE
:104BF00003A805F074FC0FA805F0E6FBDFF8C882F7
:104C0000A14EDFF8C8A203A907A805F059FC39682E
:104C1000D8F8000028224A43831882585B689B1A00
:104C20009B1032680AFB03F39A4280F0BB80012993
:104C300008D8964903A805F0EAFC28B3944907A8C8
:104C400005F055FC4FF0000B4FF028093D68D8F8EF
:104C5000000009FB05F1421841585268521A92109F
:104C60000AFB02F25A453BD9ADB98A4B0BA8196B26
:104C700005F0F5FB0BA907A805F0BCFC00282DD01A
:104C80000BA805F0A1FB22E0834903A805F0BFFCB7
:104C90000028D3D1D6E700223968D8F80000019265
:104CA00009FB01F141586C2000FB0B110FA8096BA7
:104CB00005F0D5FB07A90FA805F09CFC051E0FA861
:104CC00018BF012505F080FB019A002AD8D115B143
:104CD000724BC3F800B00BF1010BB7E70122DBE721
:104CE000012D6E4D07D1694903A805F090FC10B164
:104CF0002B68013B2B6006F093F82A686849FFF7A0
:104D000085FB2B68013376D0DFF8C4913968D8F879
:104D100000202B68282048434FEA430B10586C2290
:104D200002FB03000C22D0F824C062430CEB020EFD
:104D30005CF80220DEF804E0964507D000295FD138
:104D400058493030FFF7E0FD002859D0D9F800204D
:104D5000A344002142F82B10012C4FD1524C06F0F5
:104D6000ADF93268236853F8221005F041F906F0D6
:104D7000A5F93421FFF754FA06F0A0F905F03FF940
:104D800006F09CF933682268013352F8231005F0CD
:104D90002FF906F093F93321FFF742FA06F08EF966
:104DA00005F02DF93A68D8F8001028235A438B18DB
:104DB0008A585B689B1A9B1032680AFB03F3013B1D
:104DC000934214D106F02CF83849394C05F09DFA7D
:104DD000384B606801221A7000231A46194603F006
:104DE00005FE002360681A46194603F0DFFD3368AC
:104DF0000133336017E63049002261E6012485E77C
:104E0000294B31681A68A34452F82110D9F80020C0
:104E100042F82B103A68002A9ED1284B0FA8196B34
:104E200005F01DFB0FA903A805F0E4FB83460FA8BE
:104E300005F0CAFABBF1000F09D02A68D9F80010B2
:104E400004EB420251F822101D4A116084E70F4919
:104E500003A805F0DCFB30B1D9F80020296852F82E
:104E60003110184AF1E70C4903A805F0D0FB0028DF
:104E70003FF472AF2A68D9F800105200013251F89D
:104E80002210104A516067E70453032024E40B000A
:104E90002BE40B00F0E4032031E40B00BC500320B2
:104EA00038E40B0020E50320F852032062E40B00F5
:104EB00018E70320B4E603204AE40B00E053032084
:104EC0004C540320B05503205054032013DA4B6890
:104ED0009CE603201F490FA805F0C1FA0FA903A8FB
:104EE00005F0B6FB04460FA805F06EFA002C7FF41F
:104EF0009AAD194D194ED5E900239B1AB4EBA30FB7
:104F000017D205F08DFF22463146FFF77FFA06F0F3
:104F1000D5F82B6853F8241005F06AF806F0CEF89F
:104F20003421FFF77DF906F0C9F805F068F801347F
:104F3000E1E70B4A0B49002313604FF0FF320A6090
:104F400009490A60094A137005F06AFF084905F02B
:104F5000DCF968E56FE40B00F852032075E40B0000
:104F600004530320A8500320BC500320B4E60320C0
:104F700085E40B00002938B504464FEA81050CD0C2
:104F8000B1F1005F01D306F0FFF82846FFF783F880
:104F9000C4E900002844A06038BD0846F8E738B5E9
:104FA00004460D46AC4204D02046FFF7CBFB0C3440
:104FB000F8E738BD10B504464830FFF7E4FB04F1CC
:104FC000300006F019F9D4E90901FFF7E8FF606A3B
:104FD00018B1E16A091AFFF764F804F11800FFF745
:104FE000B1FB04F10C00FFF7A3FB2046FFF796FB93
:104FF000204610BD38B504460D46AC4204D02046CC
:10500000FFF7D8FF6C34F8E738BD10B50446D0E997
:105010000001FFF7EFFF206818B1A168091AFFF738
:1050200040F8204610BD38B504460D46AC4208D0C5
:1050300004F10C0006F0E0F82046FFF7E6FF283404
:10504000F4E738BD814210B51346A1EB000405D04A
:1050500001462246184607F08DF80346181910BD80
:1050600070B5D1E90036F61A00230446C0E90033D2
:105070008360B0100D46FFF793F8C4E900000644C2
:10508000A6600246D5E90001FFF7DCFF606020461C
:1050900070BD00007FB504AB03E906000023C0E942
:1050A00000338360044613460E46950001EB8201EF
:1050B00042F31D000A4AB2EB830F02D2094806F000
:1050C00069F80191FFF76CF80544024620600199E8
:1050D000A5603046FFF7B6FF606004B070BD00BF4A
:1050E000FCFFFF7F83E30B008142F7B504460D46CA
:1050F0001DD0D1E9007102688368CE1B9B1A9E42C5
:1051000017D9B0100191FFF74BF8019902460546F7
:105110003846FFF797FF206818B1A168091AFEF713
:10512000C0FF25603544A56023683344636003B045
:10513000F0BD43689B1A9E4203D83846FFF782FFB2
:10514000F2E7F9183846FFF77DFFD4E90002D5E908
:105150000031101A1844F1E72DE9F0410C1A054608
:105160000B48A4104443164627469046002F08DDFE
:1051700029464046FFF7B8FF0C3508F10C08013FFF
:10518000F4E724EAE4740C2000FB0460BDE8F0813D
:10519000ABAAAAAA2DE9F04F0025994600F13803E1
:1051A000C0E90C354FF0FF33C0E915330446C0E9C0
:1051B0000055C0E90255C0E90455C0E90655C0E9EB
:1051C0000855C0E90A55C0E9125599B080F8385021
:1051D0000565924600F1180B00F1300800F1480710
:1051E000FFF734F8D4E900239B1AAB424FEAE301FE
:1051F00002DA5F4805F0CEFF09A80191CDE9095513
:105200000B95FFF7B7FE0199099831B100EB8106C4
:105210008A00294606F0C8FF3046D4E903520999AE
:1052200063690E93C4E903100CAE0B996161CDE97B
:105230000C5230460025CDE909550B95FFF778FA59
:1052400009A8FFF775FA51465846FFF74DFFD9F800
:1052500000100695096802AB06AA3046FFF7A6FAC9
:10526000D9F800100795496803AB07AA0FA8FFF704
:105270009DFAD9F800100895896804AB08AA12A80D
:10528000FFF794FAD9F80010099505AB09AAC96887
:1052900015A8FFF78BFA626AE36A9B1A2F2B3FD897
:1052A0000420FEF71FFFB346054600F1300A814691
:1052B000B9F1000F03D059464846FFF7D1FE09F176
:1052C0000C09D1450BF10C0BF2D1D4E90901FFF720
:1052D00066FE606A18B1E16A091AFEF7E2FEC4E9E7
:1052E000095AC4F82CA018AD0C3D2846FFF72AFA3D
:1052F000B542F9D12299404605F09CFF38462399E2
:10530000FEF7F6FF249B1B681A68E2655A6822665E
:105310009A68DB6862662046A36619B0BDE8F08F24
:10532000A56AAD1A2F2D0BD918A93046FFF714FF27
:10533000A16A88420546D6D0FFF731FEA562D2E7C2
:10534000354429463046FFF707FFD4F8289018ABBC
:105350009D420AD0B9F1000F03D029464846FFF715
:105360007FFE0C3509F10C09F1E7C4F82890BAE783
:1053700083E30B002DE9F04F2DED0E8B0128B44D8A
:10538000ADF5417D41F00F810024B24BAB60C5E922
:105390000044032003F0DEFAAF4BA493AF4BA59378
:1053A000AF4BA693AF4BA793AF4BA893AF4BA9932B
:1053B000AF4BAA93AF4BAB93AF4BAC93AF4BAD930B
:1053C000A4AB7E9305237F930DF5E87A7EAA53461E
:1053D00006CA8CA8FFF70CFAA94BDFEDAA8A9FED4D
:1053E000AA8ADFEDAA9A9FEDAA9ADFEDAAAA9FEDFD
:1053F000AAAADFEDAABA9FEDAABADFEDAADA9FED5D
:10540000AADADFEDAACA9FEDAACA9FEDAAEA1F4653
:105410000FCB0DF5177B8BE80F00042289AD7CAB19
:10542000CDF8F0B17D9293E806002846FFF732FEF2
:105430002822CDE9942493AA7A9204220DF50678C5
:105440007AAB7B9293E80600404693949694FFF7DC
:1054500021FE9DA89849FEF757FEB0A89749FEF790
:1054600053FEB6A89649FEF74FFEB0A978910221E7
:105470000DF5E479799178AA4B4606CA83A8FFF71F
:10548000EBF9214610228FA806F08EFE8FAA7692A5
:10549000042280AE76AB779293E806003046FFF7A1
:1054A000F9FD83AA01929DAA43468CA90296009217
:1054B00084482A46FFF76EFE3046FFF743F983A87B
:1054C000FFF761F9B6A805F097FEB0A805F094FEC5
:1054D0009DA805F091FE4046FFF734F92846FFF7F6
:1054E00031F98CA8FFF71AF9774BB093774BB1934A
:1054F000774BB293774BB393774BB493774BB5938A
:10550000774BB693774BB793774BB893774BB99369
:10551000774BBA93B0AA774B7492BB930722764B22
:105520007592BC936AAA754BBD938CA813469AE8F2
:105530000600FFF75DF99DAA07F1100C0492BCE884
:105540000F00049F0FC79CE803009DAA72920622D9
:105550007392C7E9000199E8060028460497FFF70F
:1055600099FD93AA70923C230422CDE99434719260
:1055700070AB93E80600404693949694FFF78AFD3B
:1055800058465F49FEF7C0FDA4A85E49FEF7BCFD82
:10559000AAA85D49FEF7B8FDA4AB02216E930DF5F4
:1055A000D0796F916EAA4B4606CA83A8FFF754F9CB
:1055B000214610228FA806F0F7FD8FAA6C920422D4
:1055C0006CAB6D9293E806003046FFF763FD83AA4B
:1055D00043468CA9CDE900B202962A464B48FFF714
:1055E000D9FD3046FFF7AEF883A8FFF7CCF8AAA89C
:1055F00005F002FEA4A805F0FFFD584605F0FCFDED
:105600004046FFF79FF82846FFF79CF88CA8FFF765
:1056100085F8B0AA6A9207226B920DF5C07A6AAA41
:1056200006CA53468CA8CDEDB48A8DEDB58ACDED72
:10563000BC8A8DEDBD8ACDEDB0DA8DEDB1DACDED60
:10564000B2CA8DEDB3CACDEDB6BA8DEDB7BA5FE093
:10565000B05203200000FFFF806927421E43AFC203
:10566000CC9D27420242AFC2959D27426D47AFC2F3
:10567000A9A72742054EAFC282B32742444EAFC20C
:1056800058E60B001A8B27429A44AFC22F8B274251
:105690009540AFC2D88127424440AFC2168227420C
:1056A000C144AFC29EA42742D04BAFC237A4274209
:1056B0005946AFC28940AFC290E40B0094E40B009E
:1056C0009BE40B005CE503209D7E2742B374AFC2D0
:1056D000AF8027428E58AFC24D8027422E48AFC2BE
:1056E000AD8027425741AFC2FF8A27425342AFC223
:1056F000F48A27429847AFC278A927425D5FAFC2BC
:10570000A2E40B00A7E40B00AEE40B000853032057
:10571000CDEDB8AA8DEDB9AACDEDBA9A8DEDBB9AB3
:10572000FFF766F8B64B03F1280217460FCF0DF5C9
:105730001D7CACE80F00D7E90001049A059782E8C8
:1057400003009DAA68920622699299E806002846FD
:10575000FFF7A0FC07F108020FCA93AF87E80F001C
:10576000042166AB6697679193E806004046FFF711
:1057700091FC5846A349FEF7C7FCA4A8A249FEF72E
:10578000C3FCAAA8A149FEF7BFFCA4AB0221649305
:105790000DF5BC79659164AA06CA4B4683A8FFF74C
:1057A0005BF89B490FC98FAF87E80F00042062ABFD
:1057B0006297639093E806003046FFF76BFC83A87E
:1057C000CDE900B08CA843462A460146029691488E
:1057D000FFF7E0FC3046FEF7B5FF83A8FEF7D3FFE6
:1057E000AAA805F009FDA4A805F006FD584605F095
:1057F00003FD4046FEF7A6FF2846FEF7A3FF8CA850
:10580000FEF78CFF844BA493844BA593844BA69303
:10581000844BAA93844BAB93844BAC93844BAD9352
:105820000520A4AB6093619056A89AE80600034651
:105830008CA88DEDA7EACDEDA89A8DEDA99AFEF77B
:10584000D7FF6F4BCDF878B11F4660330FCB8BE895
:105850000F0004205F9099E806002846FFF71AFC25
:105860003B4670330FCB93AF87E80F0004205CAB4F
:105870005C975D9093E806004046FFF70BFC9DA8FF
:105880006C49FEF741FCB0A86B49FEF73DFCB6A899
:105890006A49FEF739FCB0A85A9002205B900DF5DA
:1058A000A8795AAA4B4606CA83A8FEF7D5FF544BDF
:1058B00080330FCB8FAF87E80F00042058AB589789
:1058C000599093E806003046FFF7E4FB83A8019067
:1058D0009DA800908CA843462A4601460296584847
:1058E000FFF758FC3046FEF72DFF83A8FEF74BFF6D
:1058F000B6A805F081FCB0A805F07EFC9DA805F0D7
:105900007BFC4046FEF71EFF2846FEF71BFF8CA8D7
:10591000FEF704FF4B4BB0934B4BB1934B4BB29301
:105920004B4BB3934B4BB4934B4BB593B0A84B4BF2
:105930005690B69308204A4B57900DF5987ABC9331
:1059400056A8484BBD9390E8060053468CA8CDED71
:10595000BA8A8DEDBB8A8DEDB7EACDEDB89A8DEDA3
:10596000B99ACDEDBEAA8DEDBFAAFEF741FF244B3B
:10597000049F03F1900CBCE80F000DF51D7EAEE80E
:105980000F009CE8070087E807009DA854900720B7
:10599000559099E806002846FFF77CFB184BAC337E
:1059A0000FCB93AF87E80F00042052AB5297539070
:1059B00093E806004046FFF76DFB58462A49FEF77C
:1059C000A3FBA4A82949FEF79FFBAAA82849FEF734
:1059D0009BFBA4AB0220509351900DF5947950AAF3
:1059E0004B4606CA83A8FEF737FF054BBC330FCBE7
:1059F0008FAF87E80F0004204EAB4E973AE000BF10
:105A000058E60B00B5E40B00BBE40B00C2E40B004E
:105A1000A8E60B00E053032097692742B840AFC2C5
:105A2000FE812742FB8A27429444AFC271892742F4
:105A30007964AFC22BE40B00C9E40B00D0E40B0087
:105A4000445503201A632742D24BAFC2C46E27428B
:105A50001541AFC2B58027428640AFC200822742BF
:105A6000E18127427644AFC2D7E40B00DEE40B00AD
:105A7000E5E40B004F9093E806003046FFF70AFB81
:105A800083A8CDE900B08CA843462A460146029679
:105A9000BA48FFF77FFB3046FEF754FE83A8FEF7B7
:105AA00072FEAAA805F0A8FBA4A805F0A5FB58461D
:105AB00005F0A2FB4046FEF745FE2846FEF742FEF3
:105AC0008CA8FEF72BFEB0A84C9007204D9042A862
:105AD0009AE8060003468CA8CDEDB48A8DEDB58A10
:105AE000CDEDBC8A8DEDBD8ACDEDB0DA8DEDB1DAAC
:105AF000CDEDB2CA8DEDB3CACDEDB6BA8DEDB7BA64
:105B0000CDEDB8AA8DEDB9AACDEDBA9A8DEDBB9ABF
:105B1000FEF76EFE9A4A049FA2F1180EBEE80F002F
:105B20000DF51D7CACE80F00059803C887E803005D
:105B30009DA84A9006204B9099E806002846FFF75A
:105B4000A9FA8F4A0FCA93AF87E80F00042248AB27
:105B50004897499293E806004046FFF79BFA58465B
:105B60008849FEF7D1FAA4A88749FEF7CDFAAAA87A
:105B70008649FEF7C9FAA4AB0220469347900DF57B
:105B8000807946AA06CA4B4683A8FEF765FE80497F
:105B90000FC98FAF87E80F00042244AB44974592AA
:105BA00093E806003046FFF775FA83AA43468CA9AE
:105BB000CDE900B202962A467648FFF7EBFA304666
:105BC000FEF7C0FD83A8FEF7DEFDAAA805F014FBD2
:105BD000A4A805F011FB584605F00EFB4046FEF761
:105BE000B1FD2846FEF7AEFD8CA8FEF797FD6A4B87
:105BF000B0936A4BB1936A4BB293B0AA694B42928D
:105C0000B3930822684B43920DF1E00AB49342AA81
:105C1000664BB59306CA53468CA8CDEDB68A8DED7A
:105C2000B78ACDEDBE8A8DEDBF8ACDEDB89A8DEDE8
:105C3000B99ACDEDBAAA8DEDBBAACDEDBCBA8DED6A
:105C4000BDBAFEF7D5FD5A4B049FDFED5A8A9FED92
:105C50005A8A03F1CC0CBCE80F000DF51D7EAEE8AE
:105C60000F009CE8070087E807009DAA40920722E2
:105C7000419299E806002846FFF70CFA4C4BE833AE
:105C80000FCB93AF87E80F0004223EAB3E973F92C5
:105C900093E806004046FFF7FDF958464749FEF7EE
:105CA00033FAA4A84649FEF72FFAAAA84549FEF7F9
:105CB0002BFAA4AB02213C930DF1D8093D913CAAEB
:105CC0004B4606CA83A8FEF7C7FD394BF8330FCB06
:105CD0008FAF87E80F0004223AAB3A973B9293E8E4
:105CE00006003046FFF7D6F983AA43468CA9CDE9D2
:105CF00000B202962A463448FFF74CFA3046FEF7C7
:105D000021FD83A8FEF73FFDAAA805F075FAA4A817
:105D100005F072FA584605F06FFA4046FEF712FD9C
:105D20002846FEF70FFD8CA8FEF7F8FC274BB09332
:105D3000274BB193274BB293274BB393274BB49385
:105D4000274BB593274BB693274BB793274BB89365
:105D5000274BB993274BBA93B0AA274B3892BB93E2
:105D60000722264B3992BC932EAA254BBD938CA8B3
:105D700013469AE80600FEF73BFD43E0E07D032072
:105D800098E60B00ECE40B00F3E40B00FAE40B00E4
:105D9000A8E60B00F0E40320766A27422B69AFC225
:105DA0005F6B2742CD56AFC22D8A2742D856AFC26D
:105DB00058E60B000266294281288EC201E50B00DD
:105DC00006E50B000DE50B0084E403201B48294287
:105DD000B21A8EC2834F2942931D8EC2E6602942B9
:105DE0002D1D8EC2F9662942F01A8EC2A571294274
:105DF000E6238EC23774294273338EC27A7D2942DC
:105E00005D3B8EC2B14B03F5847C1F46BCE80F009E
:105E10000DF51D7EAEE80F009CE80300049A82E8B1
:105E200003009DAA36920622379299E8060028467A
:105E3000FFF730F993AA349232230422CDE9943447
:105E4000359234AB93E80600404693949694FFF75E
:105E500021F958469E49FEF757F9A4A89D49FEF737
:105E600053F9AAA89C49FEF74FF9A4AB022132933B
:105E70000DF1B009339132AA4B4606CA83A8FEF74A
:105E8000EBFC214610228FA806F08EF98FAA3092E3
:105E9000042230AB319293E806003046FFF7FAF85F
:105EA00083AA43468CA9CDE900B202962A468B48C4
:105EB000FFF770F93046FEF745FC83A8FEF763FC58
:105EC000AAA805F099F9A4A805F096F9584605F096
:105ED00093F94046FEF736FC2846FEF733FC8CA8C3
:105EE000FEF71CFC7E4BA4937E4BA5937E4BA693A2
:105EF0007E4BA7937E4BA8937E4BA9937E4BAA9390
:105F00007E4BAB930422A4AB2E932F920DF1900AFB
:105F10002EAA534606CA8FA8FEF76AFC07F59073AF
:105F200093E8070003232C952D9385E8070099E853
:105F300006008CA8FFF7AEF82822CDE998240422A9
:105F40002AABCDF8A8B02B9293E806004046979470
:105F50009A94FFF79FF89DA86949FEF7D5F8B0A875
:105F60006849FEF7D1F8B6A86749FEF7CDF8B0A9A1
:105F7000289102210DF18809299128AA4B4606CAC9
:105F800083A8FEF769FC2146102293A806F00CF9BD
:105F900093AA2692042226AB279293E80600304665
:105FA000FFF778F883AA01929DAA43468FA902962B
:105FB000009256488CAAFFF7EDF83046FEF7C2FB78
:105FC00083A8FEF7E0FBB6A805F016F9B0A805F027
:105FD00013F99DA805F010F94046FEF7B3FB8CA815
:105FE000FEF7B0FB8FA8FEF799FB494BB093494BE6
:105FF000B193494BB293494BB393494BB493494B3B
:10600000B593494BB693494BB793494BB893B0AA54
:10601000484B2492B9930622474B2592BA931AAA69
:10602000464BBB938CA813469AE80600FEF7E0FBAC
:10603000264BCDF888B003F5967CBCE80F005F4690
:106040000FC7DCF800303B600523239399E8060076
:106050002846FFF71FF893AA20922D230422CDE9AA
:106060009434219220AB93E8060040469394969492
:10607000FFF710F89DA83249FEF746F8A4A8314969
:10608000FEF742F8AAA83049FEF73EF8A4AB1E93EB
:1060900002231F930DF1600A1EAA534606CA83A865
:1060A000FEF7DAFB214610228FA806F07DF88FAAB2
:1060B0001C9204221CAB1D9293E806003046FEF7AA
:1060C000E9FF83AB01939DAB40E000BF58E60B00B6
:1060D00090E40B0094E40B009BE40B00C8E5032064
:1060E000A9842942E60B8EC2A670294262188EC28C
:1060F000E16F2942861E8EC2D1712942CF1F8EC206
:10610000A2E40B00A7E40B00AEE40B0074530320E1
:106110007A532942C9308EC2D0632942F1268EC2F9
:106120004B6329420D218EC2306E29425A1D8EC208
:1061300078822942E2268EC2CD9C294270278EC2E7
:10614000D7E40B00DEE40B00E5E40B002A468CA943
:1061500002960093B5484346FFF71CF83046FEF719
:10616000F1FA83A8FEF70FFBAAA805F045F8A4A84A
:1061700005F042F89DA805F03FF84046FEF7E2FA28
:106180002846FEF7DFFA8CA8FEF7C8FAA84BB093B2
:10619000A84BB193A84BB493A84BB593A84BB69317
:1061A000A84BB793A84BB893A84BB993A84BBA93F5
:1061B000A84BBB93A84BBC93A84BBD93A84BBE93D5
:1061C000A84BBF93B0AB1A9308231B930DF1400962
:1061D0001AAA4B4606CA8CA8CDEDB28A8DEDB38AB9
:1061E000FEF706FBDFF8C8C2BCE80F000DF51D7E08
:1061F000AEE80F009CE80700049B83E807009DAB16
:106200001893072319939AE806002846FEF742FFE1
:1062100093AA169246230422CDE99434179216AB22
:1062200093E80600404693949694FEF733FF584651
:106230008D49FDF769FFA4A88C49FDF765FFAAA861
:106240008B49FDF761FFA4AB1493022315930DF165
:10625000380A14AA534606CA83A8FEF7FDFA214657
:1062600010228FA805F0A0FF8FAA1292042212AB71
:10627000139293E806003046FEF70CFF83AB2A46E4
:106280008CA9CDE900B3029643467A48FEF782FF17
:106290003046FEF757FA83A8FEF775FAAAA804F06D
:1062A000ABFFA4A804F0A8FF584604F0A5FF4046A1
:1062B000FEF748FA2846FEF745FA8CA8FEF72EFAB4
:1062C0006D4B9D936D4B9E939DAB3360022373602A
:1062D00096E8060008AB8FA8CDED9F8A8DEDA08AC9
:1062E000FEF786FA09AB10930123119399E8060093
:1062F0000F268CA80996FEF7CDFE04230F93CDF848
:1063000038B09AE806002846CDE99746CDE9994489
:10631000FEF7C0FEA4A85449FDF7F6FEB0A8534905
:10632000FDF7F2FEB6A85249FDF7EEFEB0AB0C93B6
:1063300002230D930CAA07AB06CA4046FEF78CFA5F
:106340002146102293A805F02FFF93AA0A92042257
:106350000AAB0B9293E8060083A8FEF79BFE83AB83
:10636000CDE90183A4AB8CAA8FA9009344482B46A6
:10637000FEF710FF83A8FEF7E5F94046FEF703FAA3
:10638000B6A804F039FFB0A804F036FFA4A804F0C2
:1063900033FF2846FEF7D6F98CA8FEF7D3F98FA86D
:1063A000FEF7BCF9374B38499C60C3E90044374BD2
:1063B00037489C60C3E90044364B374D9C60C3E9C5
:1063C0000044364BDFF8C8809C60C3E90044344B7E
:1063D000C3E900449C6002F0B5FD3249324802F046
:1063E000B1FD32492C4802F0ADFD0FCD5E460FC61F
:1063F000B8E80F00D5F800C0C7F800C09DAD0FC5C4
:10640000C146049B59F810A9C3F800A05D460FCD02
:10641000A4AE0FC6DFF89CE0C6F800C00DF51D7CE9
:10642000CEE90044BCE80F00B0AD45E04C7E03204F
:1064300055652942AE308EC24768294245248EC236
:10644000CC68294206218EC2CD722942B01D8EC26F
:10645000777729425E1F8EC268762942D5208EC288
:1064600091822942BA308EC22BE40B00C9E40B00A2
:10647000D0E40B006C540320F057294251338EC2F4
:10648000D85403205054032014E50B00605403201B
:10649000BC520320D47D0320E4520320F852032091
:1064A0009CE6032039E50B00D05203205EE50B008B
:1064B00098E70B00ACE603200FC5B0ABC5F800A011
:1064C0007046CDE9014400937449A4AB4FF010022B
:1064D00003F0A2FADFF850C2BCE80F00DE46AEE8D7
:1064E0000F00B9E80F00DCF800E0C7F800E00DF598
:1064F0001D7CACE80F00049BD8F80090C3F8009016
:10650000DA46BAE80F00DFF8D8810DF5247CACE854
:106510000F00C6F800E09DAEC8E900440FCE0DF5AF
:10652000307CACE80F005E4BC5F800900193B0AB37
:106530004FF00402029400934046A4AB59495A4CD0
:1065400003F06AFA59495A4803F089FF594803F0A1
:1065500093FD5649584803F082FF5449574803F0C9
:106560007EFF5249564803F07AFF564801F00CFA74
:106570004FF47A73009342F2107204F12C01524BE3
:10658000204601F0D9FB514B48492360504803F0A5
:1065900066FF46494F480DF5417DBDEC0E8BBDE8C9
:1065A000F04F03F05CBF4B4803F00EFF484803F088
:1065B0000BFF3D48FDF780FD424B474A9C691A603E
:1065C0007CB16368013B63605BB9236820469B68CC
:1065D0009847A368013BA3601BB923682046DB688A
:1065E000984737483D4C03F0EFFE344803F0ECFE8B
:1065F000314803F0E9FE2E4803F0E6FE384802F089
:10660000F2FE384802F0EFFE3748FEF79BF83748B5
:10661000FEF798F83648FEF7F8FC3648FEF7F5FC2A
:10662000D4E90001FEF7FFFC206818B1A168091A3F
:10663000FDF737FD3048FEF7BDFC3048FEF7BAFCE9
:106640002F48FEF7B7FC2F48FEF7B4FC2E48FEF7A4
:10665000B1FC2E48FEF7AEFC2D48FEF7ABFC2D48F2
:10666000FEF7A8FC2C48FEF7A5FC2C48FEF7A2FC80
:106670002B48FEF79FFC2B48FEF79CFC286838B19E
:106680000DF5417DBDEC0E8BBDE8F04F02F006BA72
:106690000DF5417DBDEC0E8BBDE8F08F83E50B0061
:1066A0002D490B0086E50B00B87E0320EEE70B00BA
:1066B00034E6032044E603205CE6032070E6032072
:1066C00084E60320B8550320F4A5032044E60B001C
:1066D000A052032074E40320F8EA0B005054032076
:1066E00094E60320ACE603209CE60320F852032046
:1066F000D47D032060540320D85403206C5403201D
:106700004C7E032074530320C8E5032084E4032057
:10671000F0E40320E07D032044550320E0530320F0
:10672000085303205CE50320D0520320814210B5BA
:106730001346A1EB000405D001462246184605F099
:1067400019FD0346181910BD2DE9F0410D46044608
:10675000FEF7B6F8D5E903310026C91AC4E9036685
:106760006661891004F10C00FEF704FCE268D5E9CB
:106770000301FFF7DBFF05F11801206104F11800A8
:10678000FEF76EFCD5E909372648E662FF1ABB1012
:10679000C4E909665843FDF7A5FCC4E909000744AC
:1067A000E762D5E909780646B84507D01EB13946F3
:1067B0003046FEF755FC0C360C37F5E7A66205F1BE
:1067C000300104F13000FDF705FDD5E91237154819
:1067D000FF1A0023C4E912332365FB105843FDF769
:1067E000CDFCC4E9120007442765D5E912780646B6
:1067F000B84507D01EB139463046FDF7EBFC1836D8
:106800001837F5E7E6646B6D6365AB6DA365EB6DFB
:10681000E3652B6E23666B6E6366AB6EA3662046E4
:10682000BDE8F081ABAAAAAAF8B5D1E90037FF1AF2
:106830000023C0E90033044683600D48BB10584371
:106840000E46FDF789FCC4E900000744A760D6E9BD
:1068500000670546B74207D01DB131462846FFF70D
:1068600073FF6C356C36F5E765602046F8BD00BFF8
:1068700013DA4B6870B505460E461446B5420FD084
:106880005CB129462046FFF7CFFF05F10C0104F16A
:106890000C00FDF79FFC6B6A636228352834EDE736
:1068A000204670BD2DE9F34704460D46FDF7CEFCAA
:1068B00005F10C0204F10C039A4225D0D5E90381BD
:1068C000E2686369A1EB08069B1A9E424AD9002E32
:1068D00046D05D4B9E4201D904F056FC30460191F2
:1068E000FDF7D9FB019907463A464046FFF71EFFE0
:1068F000E06818B16169091AFDF7D3FBE760374416
:106900006761E3683344236105F1180104F118005D
:10691000FEF7EAFB05F1240304F12402934245D07B
:10692000D5E9096AD4F82490E36AAAEB0608A3EB38
:106930000903434555D245484FEAA8035843FDF79C
:10694000D1FB07468146B24520D0B9F1000F03D0F4
:1069500031464846FEF784FB09F10C090C36F2E794
:106960003746C1E723699B1A9E4203D84046FFF78A
:10697000DDFEC6E708EB03014046FFF7D7FED4E98A
:106980000302D5E90331101A1844F0E7D4E90901EC
:10699000FEF705FB606A18B1E16A091AFDF781FB91
:1069A00067624744E762636A4344A36205F13001CA
:1069B00004F1300004F03EFC05F1480104F1480008
:1069C000FDF796FC6B6D6365AB6DA365EB6DE365E1
:1069D0002B6E23666B6E6366AB6EA36602B0BDE87A
:1069E000F087A76AA7EB0907B8450DD830464A4695
:1069F0005146FEF7B1FBA76A0646B742D3D03046F0
:106A0000FDF7A0FE0C36F8E7104BBF105F43002FD8
:106A100008DD31464846FEF767FB0C3609F10C09E4
:106A2000013FF4E7D4E90967B91B6E6AD5F82890ED
:106A30000E44B145B7D01FB131463846FEF710FBC2
:106A40000C360C37F5E700BFFCFFFF7FABAAAAAA04
:106A50002DE9F0410C1A05460B48A4104443164694
:106A600027469046002F08DD29464046FFF71AFFCB
:106A70006C3508F16C08013FF4E724EAE4746C20FB
:106A800000FB0460BDE8F08113DA4B6881422DE918
:106A9000F04704460F462CD0D1E9005AD0F80090B8
:106AA0008368AAEB0508A3EB0903434523D22A48D0
:106AB0004FEAA8035843FDF74FFB06460746AA4591
:106AC00007D01FB129463846FFF73EFE6C376C35BC
:106AD000F5E7D4E90001FEF78DFA206818B1A16846
:106AE000091AFDF7DEFA26604644A660236843448F
:106AF0006360BDE8F0874668A6EB0906B0450DD88F
:106B000028464A465146FFF7A3FF66680546AE424F
:106B1000ECD02846FEF74EFA6C35F8E70E4BB6106F
:106B20005E43002E08DD29464846FFF7BBFE6C3564
:106B300009F16C09013EF4E7D4E90056711B3D6888
:106B40007F680D44AF42D1D01EB129463046FFF7D1
:106B5000FBFD6C356C36F5E713DA4B682DE9F04137
:106B60000C1A05461048E41044431746A046164642
:106B7000B8F1000F10DD29463046FFF787FF05F119
:106B80000C0106F10C0004F055FB6B6A73622835AA
:106B9000283608F1FF38EBE724EAE474282000FBEC
:106BA0000470BDE8F08100BFCDCCCCCC2DE9F8431A
:106BB000A2EB01088368174602689B1A98450446B1
:106BC0000E462AD9264B984502D9264804F0E2FA07
:106BD00025484FEAA8035843FDF7BEFA054681460B
:106BE000B7420AD0B9F1000F03D031464846FFF74B
:106BF000ABFD6C3609F16C09F2E7D4E90001FEF750
:106C0000F9F9206818B1A168091AFDF74AFA256058
:106C10004544C4E90155BDE8F8834568AD1AA84567
:106C20000BD839463046FFF713FF616888420546A6
:106C3000F1D0FEF7DFF96560EDE70D4430462946F7
:106C4000FFF706FF6668AF4207D01EB129463046FF
:106C5000FFF77AFD6C356C36F5E76660DBE700BF61
:106C6000A4FFFF7F83E30B0013DA4B6870B5ADF52B
:106C70001E7D04F0D5F84FF4165104F0C5F84FF41A
:106C8000FA7001F053FF02F0BDFA02F005FB02F0CA
:106C9000B9FA974A974D014617A802F0E7FF17A8DF
:106CA00002F0A1FB02F0AEFA934A014617A802F0E7
:106CB000DDFF17A802F097FB02A802F0CAFC0FCD77
:106CC00011AC0FC42E68266011AD0FCD17AC0FC4E8
:106CD00017A8266002F098F8044617A8002C40F088
:106CE000E28002F0ADF80094ADF82C0002230BAA6C
:106CF000032102A802F0A2FC02F084FA002202A9F9
:106D000002F014FB7D4C7E4E17A8FDF7F1FC04F059
:106D1000D5F903F037F97B49204603F0E8FB50230F
:106D20007949A363794C02250620C1E91550C4E9CD
:106D30001550774D0322072317A8C5E91523C6E987
:106D40001523FFF701FD314632A8FFF7FDFC294668
:106D50004DA8FFF7F9FC214668A8FFF7F5FC6D493F
:106D600083A8FFF7F1FC6C489EAA17A9FFF71EFF46
:106D700004246C2517AB05FB0430FEF71BF9013C1E
:106D8000F8D2664917A8FFF7DFFC654932A8FFF77C
:106D9000DBFC64494DA8FFF7D7FC634968A8FFF7FF
:106DA000D3FC624983A8FFF7CFFC61489EAA17A9CC
:106DB000FFF7FCFE04246C2517AB05FB0430FEF73F
:106DC000F9F8013CF8D2544905A8FFF72DFD5949BF
:106DD0000BA8FDF799F900241CAB05A917A8CDE96C
:106DE0001A34CDE9174419948DF87040FFF74EFE20
:106DF0000BA91AA804F01EFA05254D49209508A8EC
:106E0000FFF712FD4C4911A8FDF77EF926ABCDE93D
:106E10002434CDE9214423948DF8984008A9474CA7
:106E200021A8FFF733FE11A924A804F003FA226871
:106E3000A3682A959B1A4F2B3DD85020FDF72BF9BC
:106E40002BA90246054617A8FFF714FDD4E9000157
:106E5000FEF7E9F8206818B1A168091AFDF721F9D1
:106E6000364B1D605035C3E9015524A804F0C4F920
:106E700021A8FEF7CAF81AA804F0BEF917A8FEF771
:106E8000C4F811A804F0B8F908A8FEF7BEF80BA8DA
:106E900004F0B2F905A8FEF7B8F8029801F0FEFD7B
:106EA0000DF51E7D70BD01F0CDFF0023009302465D
:106EB000102307211DE76568AD1A4F2D0BD92BA9AB
:106EC00017A8FFF74BFE616888420546CDD0FEF754
:106ED000AAF86560C9E717AB1D4429461846FFF7B5
:106EE0003DFE62682BA92846FFF7C4FC6060BCE742
:106EF000ACE60320BC52032094E6032034E60320D2
:106F0000E07D032089E50B00E0530320F0E403203B
:106F100084E403204455032060540320C8E5032083
:106F20006C540320D8540320745303204C7E032058
:106F3000D47D032099E50B009DE50B005054032000
:106F40000120FEF717BA00002DE9F04F2DED068B5A
:106F5000534B0022B7B05868114601F067FD002876
:106F600000F005854F4B1B78002B00F00085DFF803
:106F70007C814D4D03F054FF4C4903F0C6F9D8E92C
:106F80000046A64209D054F8042B029203F048FFB1
:106F9000029A2946FDF72CFAF3E703F041FF03F0CC
:106FA000A8F9434BDFF840A11B68CAF80030002362
:106FB000404EDAF800203168029328256A438B1886
:106FC0008A585B689B1A3C4A9B105343029A93422F
:106FD00040F25784364B1B68013300F0C8844FF4ED
:106FE0007A7001F0A3FD354917A803F038FADAF8F2
:106FF0000020336805FB023313A8D96803F02FFA89
:1070000013A917A803F0C0FA2D4903F0C9FA029B8F
:1070100032686C245C43DAF800306B430746D3587F
:1070200023441BA8196B03F01AFA1BA9384603F076
:10703000ABFA01462348244F03F042FA1BA803F0A1
:10704000C3F913A803F0C0F917A803F0BDF91F4B4B
:107050001F49204800933A461F4B00F0CBFC03F039
:10706000DFFE1E4903F051F91D4800F05BFE796810
:107070000391084605F0E0F803990246184800F02D
:1070800034FE174801F03EFA039098BB03F0C8FEA7
:10709000144937B0BDEC068BBDE8F04F03F035B9AD
:1070A00018E70320B4E60320ADE50B00A2E50B00D2
:1070B000A85003205054032013DA4B68B2E50B00AC
:1070C000C0E50B005CE6032080E60320C8E50B006A
:1070D00034E60320B8550320AC500320CCE50B0068
:1070E000B87E0320D4E50B005C5403209CE603200B
:1070F00000000000DAF8003032681FED039A6B439D
:107100001BA8D1582144FFF71FFB1BA907A8FDF7B7
:10711000D7FB4FF00009A2490DA800F01DFEA14ABF
:107120000DA910A800F0E8FF002210A913A800F094
:10713000B7FE9D4A13A917A800F0DEFF4A4617A91B
:107140000AA800F0ADFE17A800F07EFD13A800F01D
:107150007BFD10A800F078FD0DA800F075FD934AA6
:107160000AA917A800F0C8FF17A913A800F0DEFFAE
:1071700017A800F069FD8E4A0AA910A800F0BCFF0C
:1071800010A917A800F0D2FF10A800F05DFD894AF1
:107190000AA910A800F0B0FF002110A800F09AFE84
:1071A000044610A800F050FD834A0AA910A800F078
:1071B000A3FF10A8B0EE490A00F098FE10A8F0EE68
:1071C000408A00F041FD7D4A0AA910A800F094FF12
:1071D00010A8B0EE490A00F089FE10A8B0EE408A6F
:1071E00000F032FD159B012B7FD803F019FE744986
:1071F000744F03F08AF817A803F0E6F813A803F019
:10720000E3F80AA800F020FD029B0025DE003B68A1
:10721000002B40F07E82022D06D06B4927A8FDF797
:1072200073FB002800F0658203F048FF674B196884
:1072300002F0DEFE03F042FF2D9B0446196817A8FA
:1072400003F00DF917992046FCF7EEFF17A803F09D
:10725000BBF803F033FF2D9B0446996917A803F090
:10726000FEF817992046FCF7DFFF17A803F0ACF8EB
:1072700003F024FF02F0C3FE3B68002B40F05F8266
:10728000022D06D0504927A8FDF73EFB002800F04C
:10729000468203F013FF4D4B196802F0A9FE3C68CB
:1072A000002C40F01183022D40F07E824849DFF827
:1072B000249127A8FDF728FB002800F04682D9F882
:1072C0002410D1E906239B1A9A10D1E900135B1A06
:1072D0009B1003EB5203A34240F2F68203F0EEFE52
:1072E0003021FCF79DFF0134E9E7DDE90735ED1AB0
:1072F000ED104FF0000BAB4507993BDA01EBCB06E5
:10730000D6ED007A78EEE77A17EE900A04F074FB77
:10731000D6ED017A78EE677A02460B4617EE900AB0
:10732000CDE9042304F068FBDDE9042341EC1A0BEA
:107330001046194604F0B8FB53EC1A2B06460F46CC
:107340001AEE100A194604F0AFFB02460B4630460F
:10735000394604F0F3F941EC100B04F0E3F81E9EFB
:1073600051EC100B04F070FE06EB8B060BF1010BD9
:107370003060C0E7DDE91E67BE422FD0321D3346C4
:10738000974210462BD0D3ED007A90ED007AB4EE00
:10739000677AF1EE10FA02F1040248BF0346EFE704
:1073A000B87E0320E3E50B00E9E50B00F0E50B00F8
:1073B000FAE50B0006E60B0010E60B0019E60B00E1
:1073C00023E60B005C54032020E503204C540320EB
:1073D00074550320E0530320CCCCCC7D3346309A47
:1073E0009B1BB2EBA30F4FEAA30008BF319801EB40
:1073F000C003D3ED007AD3ED016AF4EEE78AF1EE33
:1074000010FA77EEE85A55BF38EE666A76EEC87A1B
:1074100078EEE77A87EEA57A4FEAC00C58BF86EE81
:10742000277A5FED137AB5EE407AF1EE10FA0AD0C2
:10743000B4EEE77AF1EE10FABABFBFEE006AC6EE1C
:10744000077AF0EE497AB0EE487AA7EEA57AF4EE24
:10745000C76AF1EE10FA4CBF01270027002871D14E
:1074600091ED027ADDF8C4C037EE687AF0EE486A32
:10747000E7EE276A91ED037AF4EEC76AF1EE10FAAF
:10748000CCBF01250025BCF1000F1DD1531E01EB1F
:10749000C301BD4291ED000A91ED017A40F09B805D
:1074A00070EE688AA8EEA78AB4EEC78AF1EE10FAE9
:1074B000CCBF01210021A94200D1531C9A42C0F245
:1074C0008C8011469C4605E0BD4274D0024684463D
:1074D0000123194606EB8C0006EB810190ED007A42
:1074E000D1ED007A2198359D50F82C1077EE277A4F
:1074F0009542C7EE276A07EE901AB8EEE78A28EEA3
:10750000268A06DB3499914203DC9D4201DB9942D5
:1075100066DD329D954266DC9D4264DC3399914282
:1075200065DB994263DB039B294602258C4561DDBF
:1075300050F8212007EE902AF8EEE77A013138EE74
:10754000278AF3E7ACF1080C8C449CED007A37EE07
:10755000687AF0EE486AE7EE276A05F1FF3E431EBF
:107560009CED017AF4EEC76AF1EE10FACCBF4FF051
:10757000010C4FF0000C864529D1319B834218D174
:10758000531E01EBC301BC4591ED000A91ED017A58
:1075900002D0AB1E024691E770EE688AA8EEA78A79
:1075A000B4EEC78AF1EE10FACCBF0121002161458B
:1075B00082E7BC45EDD117A802F006FF13A802F040
:1075C00003FF0AA809F1010900F03EFBA3E5BC4551
:1075D000E0D1431CDEE702467AE71946944679E794
:1075E00000230325A2E700210B460D469EE700235A
:1075F00001259BE7A74A249E1268002A69D1002B27
:1076000043D0A54927A8FDF77FF9F0B1D6E90623B5
:107610009B1A9B1007EE903AF8EE677A37EEC88A0D
:10762000012D40D19D4927A8FDF76EF9002842D0D1
:10763000D6E903239B1A9B1007EE903AF8EE677A7F
:1076400037EEC88AC4F1060435E0954927A8FDF74E
:107650005BF90028E4D0934B5B6AD3E90632D21A77
:107660009210530807EE903AF8EEE77A37EE888AE0
:10767000FDEEC87A17EE903AB3FBF2F102FB11333C
:1076800008EE103AB8EE488ACAE7874927A8FDF7FE
:107690003BF928B9854927A8FDF736F90028BFD05E
:1076A000C4F10604BCE7032D05D17B4927A8FDF7EB
:1076B0002BF90028C6D1B0EE480A03F0EDFE0C23EA
:1076C000BDEEC00A5D4310EE102A735943F8224004
:1076D00071E7012AEFD1764927A8FDF715F90028AF
:1076E000B0D1744927A8FDF70FF90028AAD1724933
:1076F000DCE7032D0DD16A49704C27A8FDF704F98A
:1077000018B103F0DBFC216892E503F0D7FC616857
:107710008EE503F0D3FCD8F80030995988E5032DA5
:107720000DD15F49654C27A8FDF7EEF818B103F0BD
:10773000C5FC2168B1E503F0C1FC6168ADE503F06B
:10774000BDFCD8F800309959A7E509F1300127A808
:10775000FDF7DAF820B9554927A8FDF7D5F898B113
:10776000D9F82420D2E900239B1AB4EBA30F80F0B0
:10777000AB8003F0A3FC249B1B6813F8241030316A
:10778000FCF74EFD0134EBE7D9F82420D2E90023C1
:107790009B1AB4EBA30F80F0978003F08FFC30218D
:1077A000FCF73EFD0134EFE7012D40F0BF803E497C
:1077B00027A8FDF7A9F830B93C4927A8FDF7A4F898
:1077C000002800F08180249AD2E906239B1AB4EBAA
:1077D000A30F79D203F072FC3021FCF721FD0134B4
:1077E000F1E72D4927A8FDF78FF800286CD0DFF8C6
:1077F000D090DFF8D0B0D9F82400DBF82410D0E91D
:107800000032D21AD1E909135B1A9B10C3EBA20311
:10781000A34259D903F052FC3021FCF701FD013499
:10782000E9E719467BE003F0FBFA02F062FD01355F
:1078300003F044FC02F0E3FB042D06F104067FF4A0
:10784000E6AC00231C4600222499CD18C85869686C
:10785000091AB2EBA10F03D240F822400132F3E73C
:107860000C33302BEFD103F0DBFA02F042FD07A816
:10787000FCF754FF1BA8FDF79DFB029B0133FFF7AC
:1078800097BB03F0CDFA37B0BDEC068BBDE8F04FE7
:1078900002F02FBD5C540320B4E403207455032090
:1078A000107E0320E07D03201054032020E50320F8
:1078B0007C7E03209C540320F8E50320B055032070
:1078C0004455032084E4032003F0AAFA279A2A49A6
:1078D0002B46FCF78DFD0C246C434FF00009249AD5
:1078E000131912595B689B1AB9EBA30F9BD203F0D3
:1078F000E5FB249B1B5913F829103031FCF790FC51
:1079000003F08EFA249B1B5953F82930002B834631
:1079100087DA2D21039302F0E9FC039B59420A22E6
:10792000584602F0FCFC09F10109D8E7032DCBD140
:10793000124927A8FCF7E8FF00283FF452AFDFF810
:1079400044900F4BD9F82400596AD0E90032D21A7A
:10795000D1E909135B1A9B10C3EBA203A342B3D96D
:1079600003F0ACFB3021FCF75BFC0134E9E737B0F6
:10797000BDEC068BBDE8F08F29E60B00107E0320DE
:10798000E07D03204455032010B5044603F07AF946
:10799000204610BD38B50446154602F0A3FC054943
:1079A000204602F09FFC29462046BDE8384002F000
:1079B000ACBC00BF27E30B0038B50546144602F007
:1079C00091FC0B49284602F08DFC002C0DDA2D218C
:1079D000284602F08BFC614228460A2202F09FFCF6
:1079E0002846BDE8384002F084BC2146F4E700BFD9
:1079F00027E30B002DE9F04F0E4691B098464FF06B
:107A0000FF331360044600213046DDF868901746C6
:107A100002F0FDFDD6F838E0034698B9BEF1000F3C
:107A200014BF72465022316892B2204602F02AFFFB
:107A3000051E18BF0125C5B9204611B0BDE8F04F9D
:107A400003F0D6B8764B0A9306F1140CBCE80F008D
:107A50000BAD0FC5DCF800302B701FFA8EF200233F
:107A60000AA9204602F0EEFFE2E74946204602F06E
:107A700039FC6C49204602F035FCB16A204602F020
:107A800031FC6949204602F02DFC6849684A2046CD
:107A9000FFF780FF0021304602F0B9FD20B93268BF
:107AA00064492046FFF776FF06F13C0A0021504664
:107AB00002F0ADFD28B9726C5F492046FFF77CFFEC
:107AC00006E05E49484604F0A5FB02460028F3D0D4
:107AD000B8F1000F0ED0D8F8001059B1D8F8042032
:107AE000204622B1FFF756FF08F10808F3E702F03D
:107AF0000CFCF9E7204602F0FCFB204602F022FED7
:107B00000021504602F083FD18B9F16B204602F0C7
:107B1000FCFB04F11C0A4FF420520021504604F0F3
:107B200043FB00F0DFFD019000F0DCFD4FF00008AA
:107B3000464641F2883B204603F000F8E8B1204673
:107B400002F0E6FD814600F0CDFD42F2FE739E425A
:107B5000019004D8A31983F81C900136EBE742F298
:107B6000FF739E42F9D104F50053002283F81B28CD
:107B7000204603F03DF8A846EFE7A319187700F078
:107B8000B1FD019BA0EB0309B8F1000F04D1D94569
:107B900002D8C82000F0CAFF204602F0F1FE20B152
:107BA000D94502D8B8F1000FC5D0204603F020F81F
:107BB000514602A802F053FC0C23092202A906A890
:107BC00002F04AFD1E490AA802F049FC0AA902A8CF
:107BD00002F03EFD04460AA802F0F6FB631C08D141
:107BE00006A802F0F1FB02A802F0EEFB11B0BDE81E
:107BF000F08F3D1D1349284602F079FC221D02A991
:107C00000AA802F049FD0AA9284602F0ACFC0AA81D
:107C100002F0DAFB069804F08BFA3860E0E700BF68
:107C200070EA0B00B0E50B00B4E70B00C6E70B00F1
:107C3000C0E70B00D1E70B00D6E70B00E5E70B0030
:107C4000EAE70B00EEE70B00704710B50C21044685
:107C5000FCF727FA204610BD10B5054B0360037CE6
:107C600004461BB9406808B100F018FF204610BD5B
:107C7000FCE70B0010B50446FFF7EEFF2046142189
:107C8000FCF70FFA204610BD10B5074B0360037CCC
:107C900004461BB9406908B100F000FF2046FFF719
:107CA000DBFF204610BD00BF0CE80B0010B50446FA
:107CB000FFF7EAFF20462C21FCF7F3F9204610BD20
:107CC00038B5037C04460D460BB1002038BD406832
:107CD00038B100F0EBFE0028F7D0C4E9010501201F
:107CE000F4E7084600F0D2FEF5E770B5C3680E462B
:107CF0001546D1184268044672B182688A420BD395
:107D00006068E3682A463146184404F025FAE268C0
:107D10002A44E260012070BD2046FFF7D1FF002811
:107D2000EED1F8E743680021C16023B1826812B147
:107D3000184604F039BA704710B5C0E901120022A4
:107D4000C260012202744361024A029B0260C36165
:107D500010BD00BF0CE80B00D1E905239A42044B8B
:107D600038BF8260C0E9003124BF002383607047C0
:107D70001CE80B0070B513689D68136803F11004CC
:107D800014608669B4420AD29B698C68A34201DA06
:107D9000AB42F2DDA342CCBF0020012000E0002076
:107DA00070BD2DE9F341089D984601F1100304468A
:107DB0001746019300260198A36983421AD9826865
:107DC0008B689A4216DAAE420BD1386001AA20467F
:107DD000FFF7D0FF28B1019BC8F8003002B0BDE822
:107DE000F08101AA2046FFF7C5FF20460136FFF7C4
:107DF000C1FFE0E70020F1E7F7B51F4601F11003EE
:107E00000446164601930025019BA2699A420FD9A8
:107E100098688A6890420BDAB54203D13B60012032
:107E200003B0F0BD01AA20460135FFF7A3FFEBE741
:107E30000020F5E7F0B5013B0024D1E90176F61BFF
:107E4000A64208DDA34206DD45683D442D5D02F8EB
:107E5000015B0134F1E700231370F0BD1FB5144638
:107E600010236A46FFF7E6FF04492246684600F001
:107E700025FE431E5842584104B010BDD0EA0B0005
:107E80001FB5144610236A46FFF7D4FF6846002149
:107E900005F034F8012084ED000A04B010BD0000A4
:107EA00073B50D4689680A4E044661B1686801AB36
:107EB000FFF7A2FF38B16B68C4E90063019BA360C0
:107EC000204602B070BD6B68C4E900630023F6E78A
:107ED0001CE80B0007B50191816819B1406801AA3F
:107EE000FFF7BCFF019803B05DF804FB07B581689C
:107EF0008DED010A19B1406801AAFFF7C1FF9DEDA0
:107F0000010A03B05DF804FB10B5044600680B4697
:107F100028B102F02CFBE3680133E36010BD606818
:107F20000028F8D0D4E90221013A8A4288BF43549C
:107F3000F1E703467F2B37B50846D9B204D803B022
:107F4000BDE83040FFF7E0BF01F03F01B3F5006F3F
:107F5000C3F3871541F0800407D245F0C0010190BA
:107F6000FFF7D2FF01982146E9E71B0B43F0E00140
:107F70000190FFF7C9FF05F03F01019841F0800132
:107F8000EEE700002DE9FF4700244E68DFF8CCA0A3
:107F900080460F461546A146B868B0425ADDD8F86B
:107FA0000430995D9A19002C4BD0752905D86D299C
:107FB00007D862291ED066291ED02846FFF7A4FFE5
:107FC0003DE0A1F16E04072CF7D80FF2080C5CF825
:107FD00024F000BFFD7F0B00BB7F0B00BB7F0B00BD
:107FE000BB7F0B0001800B00BB7F0B0005800B00EB
:107FF00009800B000821E0E70C21DEE70A21DCE71D
:108000000D21DAE70921D8E7311D884217DD02A9E1
:1080100004333344084612F8014F01F8014B9A42E9
:10802000F9D101AA51468DF80C9000F047FD0128C6
:1080300005D1BDF804002946FFF77BFF0536002473
:1080400004E05C2904D02846FFF75EFF0136A3E771
:108050000124FBE7012004B0BDE8F087EFE70B0047
:108060007FB50C4606460C491046154602F03FFA0D
:10807000D4E90131C91A0131284602F0C3F90023BD
:108080006A4621463046CDE9013300950393FFF758
:1080900079FF04B070BD00BFEEE70B002DE9F0439F
:1080A00089B00546884604A812491646994602F04A
:1080B000D6F9002700974B4603AA41462846FFF70A
:1080C00070FE044670B1039904AA2846FFF7C8FF62
:1080D000044608B90137EDE7314604A802F097FAE3
:1080E0000028F7D004A802F06FF9204609B0BDE8D7
:1080F000F08300BFEEE70B0073B50D4689680A4EAA
:10810000044661B1686801ABFFF7C8FF38B16B681E
:10811000C4E90063019BA360204602B070BD6B6898
:10812000C4E900630023F6E71CE80B0038B50D46F0
:108130000549044602F093F9A96819B16868224616
:10814000FFF78EFF204638BDEEE70B002DE9F04F1C
:1081500044684FF0010C4FF0FF36D0F800E0964530
:1081600080F0B98111F80E80B8F1000F00F0B381F2
:10817000B8F13A0F00F0988033D8B8F1220F00F030
:10818000A68010D8A8F109085FFA88F8B8F1170F8F
:108190000DD89F4D0CFA08F818EA050F07D00568AE
:1081A00001350560D9E7B8F12C0F00F03381D0F824
:1081B000008042450ED911F808505DB13A2D00F209
:1081C00069811F2D00F251810A2D00F26081082D76
:1081D00040F25681002B40F0628108F1FF350560C6
:1081E000A5E0B8F17B0F37D02ED8B8F15B0F33D0B4
:1081F000B8F15D0FDBD1002BD1D04FF002094568FB
:10820000013D03EB0518002D55DBD8F8047001374C
:108210004DD0D8F808A0BAF1FF3F48D198F800B087
:10822000CB454BD10EF1010EC0F808A0C8F808E00C
:1082300003EB051EDEF80470013742D0DEF808704B
:1082400001373ED18560AAE7B8F17D0FAFD1002B91
:10825000A5D04FF00109D2E70134002B9FD045682B
:10826000099FAF424AD905F1010EC0F804E003EBC3
:10827000051ECEE901664FEA051A0025CEF80C501E
:1082800085686F1C1FBF03EB0519D9F80C50013529
:10829000C9F80C50B8F17B0F0CBF0125022503F87B
:1082A0000A500568CEF804504568013DCAE7013D13
:1082B000A8F11008A7E701357FF471AF6FF0010452
:1082C0001EE0013D6F1CAEF1100EB3D167E70EF159
:1082D0000109C0F80090D0F80080424540F2938038
:1082E00011F80850002D00F08E80222D30D1F3B10E
:1082F0004568099FAF4206D8C0F800E04FF0FF3450
:108300002046BDE8F08F05F1010E4FEA051803EB9A
:108310000515C0F804E0C5E901660027EF60D0F854
:1083200000E04FF0030A03F808A0C5E9019E856844
:108330006F1C04F101043FF432AF002B3FF42FAF68
:1083400003EB051EDEF80C500135CEF80C5026E785
:108350005C2D11D108F10105AA420DD905604D5DD2
:10836000752D2BD86D2D0BD8662D27D85B2D1DD8DC
:10837000222D01D02F2D21D1056801350560AAE7F6
:108380006E3D072D1AD801A757F825F079830B0009
:10839000BD830B00BD830B00BD830B0079830B00F5
:1083A000BD830B0079830B00C3830B005C3DEDB2F2
:1083B0000CFA05F540F241473D42DDD1C0F800E03E
:1083C0007CE708F1020505604FF0040AD0F8008050
:1083D000424503D80568013D0560CDE711F8085016
:1083E000002DF7D0A5F1300BBBF1090F04D925F012
:1083F0002005413D052DE1D808F10105BAF1010A3A
:108400000560E3D1E6E7C0F800E06FF0020477E72B
:1084100013008000002B3FF4C2AE85686F1C3FF450
:10842000BEAE2D015D5D013D012D7FF6B8AE456804
:1084300005F1FF3803EB051EB8F1000FFFF6AFAEF4
:108440001EF8105C013D012D0AD85EF80C5C013568
:1084500006D05EF8085C013502D1C0F808809EE6BF
:1084600008F1FF38AEF1100EE6E7A5F12009244F20
:108470005FFA89F90CFA09F919EA070F7FF4AAAE35
:10848000203D5E2D9AD808F1010505608FE60D2D7F
:10849000F6D19FE605F0DF09B9F15D0FF8E7456811
:1084A000099FAF427FF628AF05F101084FEA051991
:1084B00003EB0515C0F80480C5E901660027EF60ED
:1084C000D0F800804FF0040A03F809A0C5E901E8DC
:1084D0000568013D83E6002B3FF412AF4268511E50
:1084E00003EB02130029FFF60BAF53F80C2C0132FB
:1084F00003D053F8082C013287D00139103BF1E743
:1085000001100004F7B5C268044612B9002003B098
:10851000F0BD436900F12006ABB10021C0E90811AC
:108520004FF0FF318162C169009141683046FFF729
:108530000DFE431C28D1257C002DE7D1606900F099
:10854000ADFA6561E56100254FF0FF37C4E90855D4
:10855000E2686168A76200952B463046FFF7F6FD9A
:108560000028D3DBE06117D0000100F08FFAE26948
:10857000606103460092C4E90855E2686168A76239
:108580003046FFF7E3FD01E00028BFDB636903EB42
:108590000010A0610120BAE76369A361FAE7000057
:1085A00008B5024B1B689B68019308BD7802030065
:1085B00008B5024B1B681B6D019308BD78020300D0
:1085C00008B5024B1B689B6D019308BD7802030040
:1085D00008B5024B1B681B6E019308BD78020300AF
:1085E00008B5034B1B68D3F89830019308BD000011
:1085F0007802030008B5034B1B68D3F8A830019339
:1086000008BD00007802030008B5034B1B68D3F8CF
:10861000B430019308BD00007802030008B5034B95
:108620001B68D3F8D830019308BD0000780203001E
:1086300008B5034B1B68D3F8DC30019308BD00007C
:108640007802030008B5034B1B68D3F8EC300193A4
:1086500008BD00007802030008B5034B1B68D3F87F
:10866000F030019308BD00007802030008B5034B09
:108670001B68D3F80031019308BD000078020300A5
:1086800008B5034B1B68D3F80431019308BD000003
:108690007802030008B5024B1B685B6C019308BDB0
:1086A0004802030008B5024B1B68DB6C019308BD50
:1086B0004802030008B5024B1B685B6D019308BDBF
:1086C0004802030008B5024B1B685B68019308BDB4
:1086D0001802030008B5024B1B68DB68019308BD54
:1086E0001802030008B5024B1B685B69019308BDC3
:1086F0001802030008B5024B1B68DB68019308BD34
:108700002802030008B5024B1B689B69019308BD52
:108710002802030008B5024B1B68DB69019308BD02
:108720002802030008B5024B1B681B6A019308BDB1
:108730002802030008B5024B1B685B6A019308BD61
:108740002802030008B5024B1B689B6A019308BD11
:108750002802030008B5024B1B68DB6A019308BDC1
:108760002802030008B5024B1B681B6B019308BD70
:108770002802030008B5024B1B681B6C019308BD5F
:108780002802030008B5024B1B681B6D019308BD4E
:108790002802030008B5024B1B685B69019308BD02
:1087A0006C02030008B5024B1B685B69019308BDAE
:1087B0006402030008B5024B1B681B6A019308BDE5
:1087C0006402030008B5024B1B689B6A019308BD55
:1087D0006402030008B5024B1B689B68019308BD47
:1087E0006802030008B5024B1B68DB68019308BDF3
:1087F0006802030008B5024B1B689B69019308BD22
:108800003802030008B5024B1B68DB69019308BD01
:108810003802030008B5024B1B681B6A019308BDB0
:108820003802030008B5024B1B689B6A019308BD20
:108830003802030008B5024B1B681B6B019308BD8F
:108840003802030008B5024B1B689B6B019308BDFF
:108850003802030008B5024B1B68DB68019308BDB2
:108860003C02030008B5024B1B681B69019308BD5D
:108870003C02030008B5024B1B685B69019308BD0D
:108880003C02030008B5024B1B689B69019308BDBD
:108890003C02030008B5024B1B68DB69019308BD6D
:1088A0003C02030008B5024B1B689B6A019308BD9C
:1088B0003C02030008B5024B1B681B6C019308BD0A
:1088C0003C02030008B5024B1B681B68019308BDFE
:1088D0004C02030008B5024B1B685B68019308BD9E
:1088E0004C02030008B5024B1B681B69019308BDCD
:1088F0004C02030008B5024B1B685B69019308BD7D
:108900004C02030008B5024B1B689B69019308BD2C
:108910004C02030008B5024B1B68DB69019308BDDC
:108920004C02030008B5024B1B681B6A019308BD8B
:108930004C02030008B5024B1B685B6B019308BD3A
:108940006002030008B5024B1B681B6D019308BD54
:108950006002030008B5024B1B685B68019308BD09
:108960002002030008B5024B1B685B69019308BD38
:108970002002030008B5034B1B68D3F8883001932D
:1089800008BD00002002030008B5034B1B68D3F8A4
:108990009430019308BD00002002030008B5024B8B
:1089A0001B68DB6B019308BD4402030008B5024B52
:1089B0001B685B68019308BD4002030008B5024BC9
:1089C0001B689B68019308BD4002030008B5024B79
:1089D0001B68DB68019308BD4002030008B5024B29
:1089E0001B681B69019308BD4002030008B5024BD8
:1089F0001B685B69019308BD4002030008B5024B88
:108A00001B689B69019308BD4002030008B5024B37
:108A10001B68DB69019308BD4002030008B5024BE7
:108A20001B681B6A019308BD4002030008B5024B96
:108A30001B685B6A019308BD4002030008B5024B46
:108A40001B689B6A019308BD4002030008B5024BF6
:108A50001B681B6B019308BD4002030008B5024B65
:108A60001B685B6B019308BD4002030008B5024B15
:108A70001B681B6C019308BD4002030008B5024B44
:108A80001B685B6C019308BD4002030008B5024BF4
:108A90001B681B68019308BD1C02030008B5024B4C
:108AA0001B685B68019308BD1C02030008B5024BFC
:108AB0001B689B68019308BD1C02030008B5024BAC
:108AC0001B685B69019308BD1C02030008B5024BDB
:108AD0001B685B6A019308BD1C02030008B5024BCA
:108AE0001B68DB6A019308BD1C02030008B5024B3A
:108AF0001B681B6B019308BD1C02030008B5024BE9
:108B00001B68DB6B019308BD1C02030008B5024B18
:108B10001B681B6C019308BD1C02030008B5024BC7
:108B20001B685B6C019308BD1C0203000021FFF76A
:108B300019BF70477047704770470000064B994255
:108B400010B500F10C0405D0084602F029FB0028FE
:108B500008BF0024204610BDC4E90B00064B994213
:108B600010B500F10C0405D0084602F019FB0028EE
:108B700008BF0024204610BDC4E90B00064B9942F3
:108B800010B500F10C0405D0084602F009FB0028DE
:108B900008BF0024204610BDC4E90B0010B56821B1
:108BA0000446FBF77EFA204610BD10B52821044686
:108BB000FBF777FA204610BD10B530210446FBF7CD
:108BC00070FA204610BD6821FBF76BBA2821FBF72D
:108BD00068BA3021FBF765BAF0B50025EC1C8C4271
:108BE0000DD86E1C445D875D974205D12644B14285
:108BF00005D31D60601CF0BD01342544EEE7002064
:108C0000F9E70000024A03490A20FFF793BE00BFBC
:108C1000D5860B0024E80B0030B40D4611461A46E9
:108C2000036809682868D3E90043A44630BC60475C
:108C3000012A38B5044602D10B68236003E0022AFA
:108C400003D0032A0DD0002038BD08200D68FBF7A3
:108C500022FA03460028F0D095E8030083E80300D9
:108C6000EBE700680028EED00821FBF71AFAEAE7E4
:108C700010B58368044613B1032201469847204685
:108C800010BD10B504465830FFF7F2FF04F148005C
:108C9000BDE8104001F098BB10B54368013B0446A5
:108CA000436063B903689B689847A368013BA3606E
:108CB0002BB923682046DB68BDE81040184710BD7B
:108CC000A0F13003DAB2092A01D818467047A0F1A2
:108CD0006103052B01D857387047A0F14103052BDC
:108CE00094BF37384FF0FF307047000010B50023B5
:108CF0000370044B04461868FFF7D4FC012323706B
:108D0000204610BDC0E6032010B5037804461BB111
:108D1000024B1868FFF7CEFC204610BDC0E60320CA
:108D200082B00346086849686A4603C26A4603CAB5
:108D300018601846596002B0704708B582798B797F
:108D40009A4206D1062203F0F7F9B0FA80F0400902
:108D500008BD0020FCE74FF0FF3303608380002054
:108D6000704708B50246002101604160FFF7F3FF3C
:108D70009171104608BD000010B501230361054B39
:108D8000024603F1100153F8044B42F8044B8B42A6
:108D9000F9D110BDD2E90B0010B50B460446B1B1B4
:108DA000012A01F110020AD1014653F8040B41F8DF
:108DB000040B9342F9D101232361204610BD411ECB
:108DC00012F8010D01F8010F9A42F9D1F3E71022D0
:108DD00003F0EAF9F1E738B5044615461A46FFF7FD
:108DE000DBFFA581204638BD08B5026922B980891C
:108DF000003818BF012008BD0249102203F09CF979
:108E0000F6E700BFF2E90B000069704738B50C4681
:108E100014220021054603F0C7F923691BB9A38971
:108E20002B80284638BD01232B7421462B4604F1A4
:108E3000100251F8040B43F8040B9142F9D1F0E70A
:108E400080897047704708B502690B699A4206D15C
:108E5000102203F071F9B0FA80F0400908BD00203B
:108E6000FCE7000001232DE9F3410361344B0C467C
:108E70000646024603F1100153F8040B42F8040BB6
:108E80008B42F9D144B32421204603F0F1F90428A0
:108E90004FF0000523D1ADF8045001AFA51C0634F6
:108EA00015F8020CFFF70CFFB0F1000812DB15F803
:108EB000010CFFF705FF00280CDB023540EA081023
:108EC000A54207F8010BEBD19DF8053033739DF8EF
:108ED000043073730023336102B0BDE8F0814FF0BA
:108EE00010082421204603F0C3F9A84207D84246BF
:108EF0000021304602B0BDE8F04103F055B9B8F1A9
:108F0000000FE9D0605DFFF7DBFE030615D400011A
:108F100008F1FF38C7B206F808702421204603F094
:108F2000A7F90135A84208D9605DFFF7C9FE40B234
:108F30000028A4BF384306F808000135D1E700BF78
:108F4000D2E90B0013B504460191FFF715FF204647
:108F50000199FFF787FF204602B010BD38B54FF6E4
:108F6000FF730025044643800E22294605700571D3
:108F7000063003F019F904F11400FFF7FDFE04F1C7
:108F80002800FFF7F9FE044904F13C0001F067FAFC
:108F90006565204638BD00BFEEE70B0010B5D0E98F
:108FA000063203EBC2029342184606D004682488B6
:108FB0008C4203F10803F6D110BD0020FCE700004D
:108FC000F0B5064685B01F460D46002950D0002A50
:108FD0004ED004682378F42A28BFF42243B32379BF
:108FE000980709D5A08903920023FFF70DFB0028FD
:108FF000039A03DA05B0F0BD6FF077003468237987
:10900000D90609D5012F07D0A0890023294605B02C
:10901000BDE8F040FFF72ABB9B06EBD5022FE9D055
:10902000A0890023294605B0BDE8F040FFF728BB22
:1090300060884FF6FF7188421CD021794E0701D518
:10904000012F04D10B0709D46FF07700D2E7A18973
:10905000009313462A46FFF7EBFACBE7022FF3D033
:109060000023A189009313462A46FFF7D7FAC1E7E8
:109070000248BFE76FF0D100BCE700BFF2FEFFFF80
:1090800037B50C460546F4212046019203F0F0F86E
:10909000019B02462146284603B0BDE83040FFF759
:1090A0008FBF00002DE9F04100260660074628200A
:1090B0000C46FAF7F0FF051E05F10C080FD001234E
:1090C000C5E90133084B2B604046FFF755FE0FCC36
:1090D0002E6285F8246046460FC623683360C7E9D0
:1090E00000853846BDE8F08194E90B0070B5002595
:1090F000056006463020FAF7CEFF044688B101230A
:10910000C0E90133094B03604FF6FF7383810E30D2
:10911000FFF727FEC4E90655C4E90855C4E90A5516
:10912000A57574600C343460304670BDB0E90B0036
:1091300037B50D46044601A8FFF7D8FD2A68D2F8D6
:1091400002302360D2F80630636001A8FFF7DCFD2F
:10915000204603B030BD30B5054687B00C4601A8A7
:10916000FFF7C4FD2A68236812881B889A420DD134
:10917000294602A8FFF7DCFF214604A8FFF7D8FF25
:1091800004A902A8FFF7D9FD044600B9002401A8EC
:10919000FFF7BAFD204607B030BD000010B5044609
:1091A0006420FAF778FF68B10023C0E90033C0E912
:1091B0000233C0E90433C0E906330362C362C36308
:1091C000C364C365206020B90A4A0B490A20FFF72F
:1091D000B1FB0020FFF7E4F920B1064A07490A2055
:1091E000FFF7A8FB216806480022FFF735FA204662
:1091F00010BD00BFD5860B0024E80B0062E80B0011
:1092000085970B0010B50A4C2378BFF35B8FDB0703
:109210000CD42046FAF747FF40B10648FFF7BEFFDF
:109220002046FAF745FF044802F07CFF014810BDD4
:10923000B8E60320C4E6032051940B0030B5036860
:10924000093B012B8DB004460D4611D8FFF7DAFF1C
:10925000A1880068FFF7A2FE034658B92022CDE995
:1092600004200B4A00920B4904AA3220FFF76AFB44
:109270000DB030BD6A6D002AFAD0D4E9032105F1A2
:109280004C00CDE90312AC6D04AA03A9A047EFE797
:10929000A4E80B003BE80B0008B50020FFF780F9BD
:1092A00000EAE07008BD19B90A460846FFF780B920
:1092B000D1E900010022F9E738B5141E43680546DC
:1092C00002DB62189A4200DD5C1A2A685018011904
:1092D0001A44521A02F04EFF6A68121B6A6038BDC7
:1092E00037B50A4604460D4601ABD0E90001FFF749
:1092F00073FC024638B101992046FFF7DDFF29468D
:109300002046FFF7EDFF03B030BD10B50C4629B97C
:109310000A460846BDE81040FFF752B90121204631
:10932000FFF7DEFFD4E900010022F3E738B5044679
:109330001546FFF7B8FF00280ADB29462046FFF74D
:10934000E4FF002804DBBDE838400020FFF740B907
:1093500038BD000038B500230446836008200D4660
:10936000FAF799FE18B12B6803606B684360034BF2
:10937000E360034B2060A360204638BD198C0B00CE
:10938000318C0B000B68036013B15A6801325A60CC
:10939000704710B551F8043B044640F8043BFFF712
:1093A000F1FF23680BB9FFF72DFC204610BD10B567
:1093B00051F8043B044640F8043BFFF7E3FF204626
:1093C00010BD10B551F8043B044640F8043BFFF7CC
:1093D000D9FF204610BD10B50446006808B1FFF75C
:1093E0005BFC204610BD10B504460430FFF7F3FFC8
:1093F000204610BD70B5D0E90053044605EBC30606
:10940000AE4204D0281DFFF7E6FF0835F8E72068D4
:10941000FFF744FB204670BD70B5D0E90053044609
:1094200005EBC306AE4204D0281DFFF7D4FF083574
:10943000F8E72068FFF732FB204670BD10B5044600
:109440002430FFF7E9FF04F11800FFF7D3FF10BD48
:1094500070B5174B1C6854B304F15400FFF708FCB7
:1094600004F14400FFF704FC04F13400FFF700FCB2
:1094700004F12400FFF7FCFBD4E9065305EBC30617
:10948000AE4204D0281DFFF7A6FF0835F8E7A06913
:10949000FFF704FB04F10C00FFF7BEFF2046FFF7C7
:1094A000A9FF20466421BDE87040FAF7FABD70BDFF
:1094B000C4E6032013B50023D1E90042C1E900331B
:1094C0000368009304604368426001A80193FFF7BA
:1094D00082FF02B010BD826810B50AB901F05DFECE
:1094E000BDE81040C368184738B50D1E0446006833
:1094F00003DDFFF7DBFA18B938BDFFF7CFFA00201C
:109500002060A5600120F7E708B583688B4202DA86
:10951000FFF7EAFF08BD0120FCE72DE9F0410F4607
:1095200041681D461944836899420446904612DCFE
:10953000266862683E44D21B3146701902F01AFE5A
:109540002A464146304602F007FE63682B446360BA
:109550000120BDE8F081FFF7C7FF0028E8D1F8E758
:10956000F8B50D46D0E901139942044616460BDAC8
:10957000276862687919521B481C02F0FBFD7E5572
:10958000636801336360F8BD0131FFF7ADFF002868
:10959000EED1F8E70A464168FFF7E2BF2DE9F7434D
:1095A00004461D460F4601AB90460A46D0E900012D
:1095B0009DF82890FFF710FBAE1C63680246B9F1D6
:1095C000000F26D128B333441B1AFF2B09D8019969
:1095D0002046FFF771FE616820463144FFF794FF93
:1095E00018B9606803B0BDE8F0836A1C0199D2B273
:1095F0002046FFF7B5FF01993A4601312046FFF7B3
:10960000AFFF01992B46424602312046FFF785FF06
:10961000E7E7F118FF29E4D82046FFF775FF002897
:10962000DFD0691CC9B22046FFF7B4FF3946204697
:10963000FFF7B0FF61682B464246E6E730B49DF87D
:1096400008501AB1029530BCFFF7A8BF406830BC83
:1096500070471FB50023C0E90033836006220093E2
:1096600001238DF80F2019460DF10F020446FFF774
:10967000E5FF204604B010BD8842F8B504460D460B
:10968000164614D9904213D2A2F10806751AA1F118
:1096900008072C44B74218D01CB131462046FFF7CA
:1096A00090FE301DFFF797FE083E083CF2E70CD015
:1096B000B5420AD01CB129462046FFF782FE281D7C
:1096C000FFF789FE08350834F2E7F8BDF7B5044620
:1096D00046686846FFF775FED4E901739F4212DBC6
:1096E0000137002F29DDF800FFF7D0F90546F0B16A
:1096F000D4E9001201EBC202FFF7BEFF2068FFF7BA
:10970000CDF92560A7602368626803EBC60603EB0A
:10971000C202314606F10800FFF7AEFF1EB16946EE
:109720003046FFF74EFE636801336360012501A8F0
:10973000FFF751FE284603B0F0BD0025DEE7F8B57F
:10974000D0E9004305460F4604EBC306A64205D008
:1097500039462046FFF7FFFC08B114B9F8BD0834BC
:10976000F4E7201DFFF737FED5E9003204F10801C8
:1097700003EBC2022046FFF77FFF6B68013B6B6083
:10978000ECE700002DE9F04105468EB003A80C4639
:10979000FFF7ACFA2E68F31E0D2B3CD8DFE813F070
:1097A0000E0053003B00D1003B003B003B003B0060
:1097B0003B009B009B009B009B009B0004A8FFF7C5
:1097C00095FC049BAA891A806968049808310230C4
:1097D000FFF7A6FA04A906A8FFF7F3FD06A904F10E
:1097E0001800FFF773FF054607A8FFF7F4FD2023D5
:1097F0000693B5B95D4B5E49009332202B4606AA0D
:109800000795FFF79FF8049B29461888FEF7E8FEA6
:1098100005A8FFF7E0FD03A8FFF776FA0EB0BDE854
:10982000F081544A009200235149079306AA01206F
:10983000FFF788F8E36A002BEAD004A904F12400BA
:10984000FFF749FEE4E7A9892046FFF7A7FB064694
:109850000028E0D00568D5E906324FF6FF7129806F
:1098600003EBC2029A4203D053F8080B4180F9E798
:10987000D5E9037307EBC308B84504D0381DFFF7DB
:10988000AAFD0837F8E700232B61D5E9067307EB3B
:10989000C308B84504D0381DFFF79DFD0837F8E729
:1098A0000023EB61AB72E36B23B1314604F134006A
:1098B000FFF711FE00232022CDE906232E4A009255
:1098C0002B4906AA0120FFF73DF8314604F11800A4
:1098D000FFF735FF9FE7A9892046FFF75FFB0028C8
:1098E00099D0E36C002B96D000230D2EADF81630E6
:1098F00001D0102E17D1002369681A4606258DF86D
:10990000153004918DF814200690DDE9040109ABAF
:109910008DF81C60089583E80300236D06A904F107
:109920004400984777E70F2E01BF2B7A696803F050
:10993000010208250FBFC3F340031A4619461D460E
:10994000DDE7A9892046FFF729FB014600283FF4FF
:1099500062AFE36D002B3FF45EAF6B68069306AA1F
:10996000236E04F15400984755E700BFBCE80B0094
:109970003BE80B00E2E80B00FFE80B0013B50B46D9
:109980000246D0E900016C4684E8030093E8030036
:1099900082E8030094E8030083E8030002B010BDEE
:1099A00038B505460C46FFF7E9FFAB68A268AA6028
:1099B000A360EB68E268EA60E36038BD70B5044616
:1099C0008CB00E4601921D46FFF7C8FA2671019928
:1099D00004F13C0000F08BFD04F14C06CDB1109B6E
:1099E000029502A904A80393FFF7B4FC002308A979
:1099F00004A80A93FFF7D4FF314608A8FFF7D0FF69
:109A000008A8FFF735F904A8FFF732F920460CB093
:109A100070BD0695EAE700002DE9F04F87B01D46BE
:109A2000DDE9104380468B4692461299039300224B
:109A3000682002910492FAF72EFB061E06F10C092B
:109A400018D001223746C6E901220299154A47F883
:109A5000202B039B00915A4651464846FFF7AEFF24
:109A60000FCD0FC72B683B600FCC06F134050FC537
:109A700023682B6004A94046CDE90496FFF71AFD40
:109A800005A8FFF7A8FCD8F800303BB9064A0749FB
:109A90000A2007B0BDE8F04FFEF74CBF07B0BDE8A5
:109AA000F08F00BF78E90B00D5860B0024E80B008F
:109AB0008842F8B504460D46164614D9904213D292
:109AC000A2F10806751AA1F108072C44B74218D074
:109AD0001CB131462046FFF76AFC301DFFF77BFCC6
