:02000002B0004C
:1040000000400B0078F70B00000006000C000502D2
:084010000401E50C00000000B2
:04401800C8E60B00EB
:1040200009480A49884208B505D0094A824202D0A7
:10403000121A08F0A1FA0748074A0021121A08F0DC
:10404000C3FA014808BD00BFA050032058F50B007B
:104050009852032098520320EDE7032070B5074ED5
:10406000074C07F007FAA41BA4080025AC4200D1B6
:1040700070BD56F8043B98470135F7E704F50B008F
:1040800028F50B0002F04CBE08B502F0BDFFBDE8FC
:10409000084007F0A7B904F009BF04F007BF04F017
:1040A0000DBF04F00BBF0078B0FA80F040097047F4
:1040B000012303707047000010B5034B03600446F2
:1040C00003F09CFE204610BD90EA0B0010B504469C
:1040D000FFF7F2FF204646F2BC51FFF7E2FF204611
:1040E00010BD000008B5034650B1064A904201D900
:1040F00007F05AFA0C205843BDE80840FFF7CBBF41
:1041000008BD00BFAAAAAA0A00F1080373B50446B5
:1041100003600D46D9B1084608F09EFA0F2805EB5A
:104120000006019007D9002201A9204607F052FAA3
:10413000019B2060A36032462946206807F085FA7B
:10414000019B226863600021D15402B070BD014818
:1041500007F02DFADCE60B0008B5034650B1064A1D
:10416000904201D907F020FA6C205843BDE808407E
:10417000FFF791BF08BD00BF4B682F0108B503468C
:1041800050B1064A904201D907F00EFA1820584360
:10419000BDE80840FFF77FBF08BD00BF5555550576
:1041A00008B548B1B0F1005F01D307F0FDF9BDE8F3
:1041B00008408000FFF76FBF08BD08B548B1B0F1F7
:1041C000805F01D307F0F0F9BDE80840C000FFF7B9
:1041D00062BF08BD73B500F108030360D1E9005365
:1041E0000446EE181DB916B10C4807F0E0F90F2B84
:1041F000019307D9002201A9204607F0EBF9019BA2
:104200002060A36032462946206807F019FA019B16
:10421000226863600021D15402B070BDDCE60B005F
:104220000368C9B29B68184713B5044661B10846D4
:10423000019108F011FA23680199DB6802462046D3
:1042400002B0BDE81040184702B010BD8142F8B579
:1042500004460D4625D0D1E900710068A368CE1B45
:104260001B1A9E421ED9F010FFF7A7FF0023054638
:104270009E420AD0EA181CBFF918D1E9000103F1E7
:10428000080318BFC2E90001F2E7206818B1A1686D
:10429000091AFFF706FF25603544A56023683344FB
:1042A0006360F8BD6268121A964206D8B942F5D02A
:1042B0003246394608F06EF9F0E712B1394608F097
:1042C00069F9D4E90027BB1A2A686D681A44AD1A47
:1042D00000239D42E2D017EB030C1CBFD118D1E99B
:1042E000000103F1080318BFCCE90001F1E7000069
:1042F00081422DE9F84F04468A4636D0D1E9005B69
:10430000D0F800908368394AABEB0507A3EB0903AB
:104310004FEAE708BB4202FB08F828D24046FFF705
:104320002DFF06468046AB450AD0B8F1000F03D0FA
:1043300029464046FFF74EFF08F118081835F2E706
:10434000D4E90058A84504D0284607F065F9183587
:10435000F8E7206818B1A168091AFFF7A2FE2660E5
:104360003E44A66023683B446360BDE8F88F46681E
:10437000A6EB0906B74219D84646CA46002E08DD04
:104380002946504607F066F918350AF1180A013E29
:10439000F4E728EAE8781825666805FB0895AE4238
:1043A000E0D0284607F038F91835F8E7F6105643FC
:1043B000002E08DD2946484607F04CF9183509F16A
:1043C0001809013EF4E7D4E90056711BDAF80050F1
:1043D000DAF804800D44A845C4D01EB12946304601
:1043E000FFF7F8FE18351836F5E700BFABAAAAAA02
:1043F0000EB403B503AB002153F8042B019306F070
:10440000BCF902B05DF804EB03B070470EB403B51D
:1044100003AB012153F8042B019306F0AEF902B06F
:104420005DF804EB03B070472DE9F04FAD4FAE4D92
:104430008DB0AE4B1A683B68282101FB02335A6AE3
:104440002B689A4240F3158106F0FAFE2A68A849C3
:10445000DFF8C482DFF8C492A64EFFF7D7FF00232F
:104460002B600824292C00F0FB8006F0E9FE414671
:10447000824608A806F003FA0A22214604A806F09C
:1044800058FA04A908A806F08FFA0168504606F009
:104490004CF904A806F0A8F908A806F0A5F907F059
:1044A0001DF8214605F0B4FF07F018F83121FFF799
:1044B000B7FE5FFA84FB07F011F805F0B0FF07F0D4
:1044C0000DF81822594605F09CFF07F007F803681D
:1044D0001B699847002840F3C38006F0B1FE4946A7
:1044E000824608A806F0CBF90A22214604A806F065
:1044F00020FA04A908A806F057FA0168504606F009
:1045000014F904A806F070F908A806F06DF9314610
:10451000684606F0B4F94FF0180A06F0DFFF0368AA
:104520005B699847C1B2684606F031FABAF1010AF0
:10453000F3D106F0D3FF214605F06AFF06F0CEFF67
:104540000099FFF771FE06F07BFE6B49824608A8D2
:1045500006F095F9694608A806F026FA0168504663
:1045600006F0E3F808A806F03FF906F0B7FF05F0FB
:1045700056FF06F065FE6149824608A806F07FF9FD
:104580000A22214604A806F0D4F904A908A806F0D6
:104590000BFA0168504606F0C8F804A806F024F9A2
:1045A00008A806F021F906F099FF214605F030FF32
:1045B00006F094FF3221FFF733FE06F08FFF05F07F
:1045C0002EFF06F03DFE4E49824608A806F057F938
:1045D0000A22214604A806F0ACF904A908A806F0AE
:1045E000E3F90168504606F0A0F804A806F0FCF8CC
:1045F00008A806F0F9F806F071FF0422594605F004
:1046000000FF3146684606F082F94FF0040A06F0D2
:1046100065FF03685B699847C1B2684606F0B7F961
:10462000BAF1010AF3D106F00BFE3649824608A81A
:1046300006F025F9694608A806F0B6F90168504663
:1046400006F073F808A806F0CFF82F49684606F080
:10465000EEF950B12B68684601332B6006F0C4F8C0
:104660000134782C7FF4FEAEE3E6684606F0BCF831
:10467000DFE606F0E5FD2549254E264F06F055F804
:104680000824002506F02AFF214605F0C1FE06F0A9
:1046900025FF3121FFF7C4FD06F020FF05F0BFFE26
:1046A00006F01CFF1822E1B205F0ABFE06F016FF83
:1046B00003681B69984700280EDD06F0C1FD0A2239
:1046C000214606F03CF806F0BBFD314606F01AF82C
:1046D0003B6843F8254001350134782CD2D10DB028
:1046E000BDE8F08F48540320A0E60320A05003202B
:1046F00006E70B003AEC0B004DE70B0059E70B0007
:1047000070E70B008AE70B00A2E70B00A7E70B009E
:10471000EFE90B00F052032015E70B0030E70B0028
:1047200038B54FF4007514230446036085600561B5
:104730000549284606F036FF03496060284606F022
:1047400031FFE060204638BD40F00B0010B5044654
:10475000006818B1A168091AFFF7A3FC204610BD34
:1047600010B50446006818B1A168091AFFF799FC52
:10477000204610BD10B50446006818B1A168091A9A
:10478000FFF78FFC204610BD30B50D688368D0E977
:104790000042056085B04D6845608D680393002335
:1047A0008560C1E900338B6001A8CDE90142FFF7C4
:1047B000E1FF05B030BD70B5D0E900560446AE4209
:1047C00004D0284606F028FF1835F8E7206818B10D
:1047D000A168091AFFF765FC204670BDB1F1005FC2
:1047E00070B504460D46164602D30C4806F0E2FEAC
:1047F0000023C0E9003383600846FFF7D1FC00EBDB
:104800008503C4E90000A3602DB13268834202D061
:1048100040F8042BFAE76060204670BDB7E70B0054
:104820002DE9F341002402AB03E90600C0E900448E
:10483000134605468460D70042F31C00104AB2EBD1
:10484000C30F884602D20F4806F0B4FEFFF7B5FC4E
:10485000C61902462860AE6023469F420BD0D4188A
:104860001CBF08EB0301D1E9000103F1080318BFE5
:10487000C4E90001F1E728466E6002B0BDE8F081AE
:10488000F8FFFF7FB7E70B002DE9F34102AB03E927
:1048900006000023C0E900338360164618235E43F8
:1048A000104B0446F01058430F4B9E420F4601EB4D
:1048B000060802D90D4806F07DFEFFF75FFC0644AE
:1048C00005462060A660B84507D01DB13946284688
:1048D000FFF780FC18371835F5E72046656002B011
:1048E000BDE8F081ABAAAAAAF8FFFF7FB7E70B00EB
:1048F000F8B5D1E900370025FF1A0446C0E9005594
:104900008560F8100E46FFF758FCC4E90000074424
:10491000A760D6E900760246F61B2B46B34202EBAF
:10492000030506D01DB1F91803C985E80300083353
:10493000F4E765602046F8BD08B542684B689A42C6
:1049400008D14AB10968006807F006FEB0FA80F0A5
:10495000400908BD0020FCE70120FAE72DE9F04FEF
:104960000022A3B004460D469548964904F098FDF0
:10497000954903A805F083FF934907A805F07FFF39
:104980002544A54205D014F8011B03A805F0FFFF3C
:10499000F7E706F055FC039905F0C7FE8B490FA811
:1049A00005F06DFF0FA903A806F062F804460FA8F2
:1049B00005F01AFF002C5BD18549864D0FA805F044
:1049C0005EFF0FA903A806F053F804460FA805F0F0
:1049D0000BFF2346052203A90FA806F04DF80FA9E7
:1049E000284605F08CFF0FA805F0FEFE621C7A4CED
:1049F00003A90FA806F060F80FA9204605F07FFF75
:104A00000FA805F0F1FE06F01BFC2A682368734925
:104A1000FFF7FCFC2F68256837B3384607F01CFE0B
:104A200006461DB3284607F017FE0446382200212B
:104A300014A807F0C9FD4C23CDE90F37684813943B
:104A400003238DF85030002340680FAA1946CDE9A2
:104A5000116504F003FA07A805F0C6FE03A805F0E7
:104A6000C3FE23B0BDE8F08F3E46DAE72C46DDE713
:104A70005C490FA805F003FF0FA903A805F0F8FF94
:104A800004460FA805F0B0FE002C40F083800522FC
:104A900003A90FA806F010F80FA903A805F02FFF2F
:104AA0000FA805F0A1FE504D504FDFF84481D5E925
:104AB00000239B1ADB107B43A34213D9282303FB5B
:104AC00004220FA8D16805F0DAFE0FA903A805F0AB
:104AD000A1FF06460FA805F087FE0EB1C8F80040FA
:104AE0000134E4E7424E3368591C05D141490022A4
:104AF000334804F0D5FCAEE728246343D118D358DB
:104B00004968DFF80C81C91A3B4B891059430BAA3D
:104B100002AB002749000FA80B97FFF75FFE0FA914
:104B20003648FFF731FE0FA8FFF724FE32682B68E6
:104B300004FB02330FA80BAA596A0B9702ABFFF7CD
:104B40004DFE0FA94046FFF71FFE0FA8FFF712FE0C
:104B5000FFF76AFC3A462A49194804F0A1FC06F01E
:104B6000BDFCD8F80030196805F052FC06F0B6FC20
:104B70003321FFF755FB06F0B1FC05F050FC06F0C1
:104B80005FFB32682B681F4904FB0234E268FFF7C1
:104B90003DFC60E71C490FA805F071FE0FA903A8B2
:104BA00005F066FF04460FA805F01EFE002C40F03D
:104BB000DC810F4E336801332CD11449224697E72C
:104BC000A4E60320E8E70B003AEC0B00EBE70B0050
:104BD000F1E70B00985203206CE40320F3E70B008D
:104BE00018E703200AE80B0048540320CDCCCCCCB6
:104BF000A050032010E80B0013DA4B6894E6032062
:104C000024E80B003BE80B0044E80B004BE80B00EA
:104C1000F0520320062203A90FA805F04DFF0FA9AB
:104C200003A805F06CFE0FA805F0DEFDAC4FDFF821
:104C3000F88203A907A805F053FE316838682822D6
:104C40004A43831882585B689B1AA64A9B101268D5
:104C500008FB03F39A4280F0D680012908D8A249C4
:104C600003A805F0E4FE28B3A04907A805F04FFE0D
:104C7000DFF884B24FF0000A4FF028093568386831
:104C800009FB05F1431841585B685B1A9B1008FB50
:104C900003F3534538D9A5B9954B0BA8196B05F00B
:104CA000EEFD0BA907A805F0B5FE58B30BA805F05B
:104CB0009BFD21E08F4903A805F0B9FE0028D3D160
:104CC000D6E7002331683868019309FB01F14158A8
:104CD0006C2000FB0A110FA8096B05F0D0FD07A995
:104CE0000FA805F097FE051E0FA818BF012505F0B7
:104CF0007BFD019B002BD9D10DB1CBF800A00AF1AF
:104D0000010ABBE70123DDE7012D7B4D07D1764981
:104D100003A805F08CFE10B12B68013B2B6006F058
:104D20008FFA2A687549FFF771FB2B68013331D080
:104D3000734DDFF8B091DFF8C0A106F081FA2B685F
:104D4000D9F800206F4953F82220FFF75FFB326843
:104D50003968DAF800B028235343C8586C2303FBA2
:104D60000B000C23416A634301EB030CCB58DCF8C6
:104D700004C09C4519D092B12B68D9F8002053F893
:104D80002210DAF8003004EB43035F4A126842F85D
:104D9000231077E05D490022AAE60124CBE75C49B5
:104DA0003030FFF7C9FD002856D0574B04EB4B0BB2
:104DB0001B68002243F82B20012CEED106F08EFB5D
:104DC000D9F800202B6853F8221005F021FB06F0DB
:104DD00085FB3421FFF724FA06F080FB05F01FFB6A
:104DE00006F07CFBD9F800302A68013352F8231012
:104DF00005F00EFB06F072FB3321FFF711FA06F007
:104E00006DFB05F00CFB32683968364C28235A4399
:104E10008B188A585B689B1A9B10226808FB03F367
:104E2000013B934214D106F00BFA3A493A4D05F092
:104E30007CFC3A4B686801221A7000231A46194616
:104E400003F0E4FF002368681A46194603F0BEFF2A
:104E5000236801332360FEE5244907A805F0E7FD38
:104E6000002889D0204903A805F0E1FD40B3D9F816
:104E700000202B6853F82210234BDAF800201B681F
:104E800043F832103368002B96D1254B0FA8196BCD
:104E900005F0F5FC0FA903A805F0BCFD82460FA89C
:104EA00005F0A2FCBAF1000F40D0134B164A1B6864
:104EB000126804EB430352F823201A4B1A607BE775
:104EC0000C4903A805F0B3FD0028DBD02B68D9F806
:104ED000002053F82210DAF800305B00013354E769
:104EE00048540320FC52032058E80B005FE80B00F5
:104EF000E8E4032065E80B00B45003206CE80B00E5
:104F0000F052032096E80B0094E603207EE80B00A5
:104F100018E50320A2E80B0018E70320ACE6032005
:104F2000D85303204454032013DA4B682F4903A8B5
:104F300005F07DFD38B12E4B1A682E4B1B6853F8D7
:104F400032202D4BBAE72D4903A805F070FD00284B
:104F50003FF432AF264B274A1B6812685B000133CF
:104F600052F82320244B5A6026E725490FA805F064
:104F700086FC0FA903A805F07BFD04460FA805F0E9
:104F800033FC002C7FF467AD1E4D1F4ED5E9002386
:104F90009B1AB4EBA30F17D206F052F92246314602
:104FA000FFF734FA06F09AFA2B6853F8241005F04C
:104FB0002FFA06F093FA3421FFF732F906F08EFA51
:104FC00005F02DFA0134E1E7104A1149002313607E
:104FD0004FF0FF320A6006490A600E4A137006F06D
:104FE0002FF90D4905F0A1FB35E500BF58E80B008E
:104FF000B450032094E60320A855032065E80B0075
:10500000AFE80B00F0520320B5E80B00FC52032080
:10501000A0500320ACE60320C5E80B00002938B5FA
:1050200004464FEA81050CD0B1F1005F01D306F0D0
:10503000BBFA2846FFF72FF8C4E900002844A06017
:1050400038BD0846F8E738B504460D46AC4204D0F2
:105050002046FFF78FFB0C34F8E738BD10B5044647
:105060004830FFF7A8FB04F1300006F0D5FAD4E988
:105070000901FFF7E8FF606A18B1E16A091AFFF752
:1050800010F804F11800FFF775FB04F10C00FFF7AE
:1050900067FB2046FFF75AFB204610BD38B5044693
:1050A0000D46AC4204D02046FFF7D8FF6C34F8E739
:1050B00038BD10B50446D0E90001FFF7EFFF2068C6
:1050C00018B1A168091AFEF7ECFF204610BD38B5EB
:1050D00004460D46AC4208D004F10C0006F09CFAE0
:1050E0002046FFF7E6FF2834F4E738BD814210B5CB
:1050F0001346A1EB000405D001462246184607F0EE
:1051000049FA0346181910BD70B5D1E90036F61AF0
:1051100000230446C0E900338360B0100D46FFF75A
:105120003FF8C4E900000644A6600246D5E9000144
:10513000FFF7DCFF6060204670BD00007FB504AB68
:1051400003E906000023C0E90033836004461346E8
:105150000E46950001EB820142F31D000A4AB2EBB4
:10516000830F02D2094806F025FA0191FFF718F8DB
:105170000544024620600199A5603046FFF7B6FF5E
:10518000606004B070BD00BFFCFFFF7FB7E70B009D
:105190008142F7B504460D461DD0D1E90071026881
:1051A0008368CE1B9B1A9E4217D9B0100191FEF75F
:1051B000F7FF0199024605463846FFF797FF20683A
:1051C00018B1A168091AFEF76CFF25603544A56087
:1051D00023683344636003B0F0BD43689B1A9E426A
:1051E00003D83846FFF782FFF2E7F9183846FFF791
:1051F0007DFFD4E90002D5E90031101A1844F1E727
:105200002DE9F0410C1A05460B48A41044431646FC
:1052100027469046002F08DD29464046FFF7B8FF95
:105220000C3508F10C08013FF4E724EAE4740C2083
:1052300000FB0460BDE8F081ABAAAAAA2DE9F04FFB
:105240000025994600F13803C0E90C354FF0FF33D3
:10525000C0E915330446C0E90055C0E90255C0E96C
:105260000455C0E90655C0E90855C0E90A55C0E92A
:10527000125599B080F838500565924600F1180B28
:1052800000F1300800F14807FEF7E0FFD4E9002301
:105290009B1AAB424FEAE30102DA5F4806F08AF953
:1052A00009A80191CDE909550B95FFF7B7FE0199C2
:1052B000099831B100EB81068A00294607F084F98C
:1052C0003046D4E90352099963690E93C4E9031087
:1052D0000CAE0B996161CDE90C5230460025CDE949
:1052E00009550B95FFF73CFA09A8FFF739FA514623
:1052F0005846FFF74DFFD9F800100695096802AB34
:1053000006AA3046FFF76AFAD9F8001007954968EF
:1053100003AB07AA0FA8FFF761FAD9F800100895A8
:10532000896804AB08AA12A8FFF758FAD9F8001048
:10533000099505AB09AAC96815A8FFF74FFA626A73
:10534000E36A9B1A2F2B3FD80420FEF7CBFEB3460F
:10535000054600F1300A8146B9F1000F03D05946E5
:105360004846FFF7D1FE09F10C09D1450BF10C0BB2
:10537000F2D1D4E90901FFF766FE606A18B1E16A6B
:10538000091AFEF78EFEC4E9095AC4F82CA018AD1C
:105390000C3D2846FFF7EEF9B542F9D12299404677
:1053A00006F058F938462399FEF7A2FF249B1B68A4
:1053B0001A68E2655A6822669A68DB686266204667
:1053C000A36619B0BDE8F08FA56AAD1A2F2D0BD9D1
:1053D00018A93046FFF714FFA16A88420546D6D0C7
:1053E000FFF731FEA562D2E7354429463046FFF784
:1053F00007FFD4F8289018AB9D420AD0B9F1000FEE
:1054000003D029464846FFF77FFE0C3509F10C0909
:10541000F1E7C4F82890BAE7B7E70B002DE9F04FA1
:105420002DED0E8B0128B44DADF5417D41F012817B
:105430000024B24BAB60C5E90044032003F09AFCA2
:10544000AF4BA493AF4BA593AF4BA693AF4BA79392
:10545000AF4BA893AF4BA993AF4BAA93AF4BAB9372
:10546000AF4BAC93AF4BAD93A4AB7E9305237F932F
:105470000DF5E87A7EAA534606CA8CA8FFF7D0F944
:10548000A94BDFEDAA8A9FEDAA8ADFEDAA9A9FEDCC
:10549000AA9ADFEDAAAA9FEDAAAADFEDAABA9FED0C
:1054A000AABADFEDAADA9FEDAADADFEDAACA9FED6C
:1054B000AACA9FEDAAEA1F460FCB0DF5177B8BE812
:1054C0000F00042289AD7CABCDF8F0B17D9293E85A
:1054D00006002846FFF732FE2822CDE9942493AA3D
:1054E0007A9204220DF506787AAB7B9293E8060057
:1054F000404693949694FFF721FE9DA89849FEF7A5
:1055000003FEB0A89749FEF7FFFDB6A89649FEF73F
:10551000FBFDB0A9789102210DF5E479799178AA83
:105520004B4606CA83A8FFF7AFF9214610228FA881
:1055300007F04AF88FAA7692042280AE76AB779273
:1055400093E806003046FFF7F9FD83AA01929DAA71
:1055500043468CA90296009284482A46FFF76EFEC5
:105560003046FFF707F983A8FFF725F9B6A806F03C
:1055700053F8B0A806F050F89DA806F04DF8404644
:10558000FFF7F8F82846FFF7F5F88CA8FFF7DEF8E4
:10559000774BB093774BB193774BB293774BB393F1
:1055A000774BB493774BB593774BB693774BB793D1
:1055B000774BB893774BB993774BBA93B0AA774BA5
:1055C0007492BB930722764B7592BC936AAA754B73
:1055D000BD938CA813469AE80600FFF721F99DAA0F
:1055E00007F1100C0492BCE80F00049F0FC79CE861
:1055F00003009DAA729206227392C7E9000199E8FE
:10560000060028460497FFF799FD93AA70923C2361
:105610000422CDE99434719270AB93E806004046C1
:1056200093949694FFF78AFD58465F49FEF76CFD08
:10563000A4A85E49FEF768FDAAA85D49FEF764FDCF
:10564000A4AB02216E930DF5D0796F916EAA4B46F3
:1056500006CA83A8FFF718F9214610228FA806F082
:10566000B3FF8FAA6C9204226CAB6D9293E8060094
:105670003046FFF763FD83AA43468CA9CDE900B20B
:1056800002962A464B48FFF7D9FD3046FFF772F8DD
:1056900083A8FFF790F8AAA805F0BEFFA4A805F01C
:1056A000BBFF584605F0B8FF4046FFF763F82846B1
:1056B000FFF760F88CA8FFF749F8B0AA6A920722B2
:1056C0006B920DF5C07A6AAA06CA53468CA8CDED36
:1056D000B48A8DEDB58ACDEDBC8A8DEDBD8ACDED58
:1056E000B0DA8DEDB1DACDEDB2CA8DEDB3CACDED44
:1056F000B6BA8DEDB7BA5FE0A85203200000FFFFF5
:10570000806927421E43AFC2CC9D27420242AFC2EE
:10571000959D27426D47AFC2A9A72742054EAFC24C
:1057200082B32742444EAFC2A4EA0B001A8B274231
:105730009A44AFC22F8B27429540AFC2D8812742EF
:105740004440AFC216822742C144AFC29EA4274242
:10575000D04BAFC237A427425946AFC28940AFC22F
:10576000D0E80B00D4E80B00DBE80B0054E5032085
:105770009D7E2742B374AFC2AF8027428E58AFC21E
:105780004D8027422E48AFC2AD8027425741AFC25D
:10579000FF8A27425342AFC2F48A27429847AFC2DA
:1057A00078A927425D5FAFC2E2E80B00E7E80B0093
:1057B000EEE80B0000530320CDEDB8AA8DEDB9AA99
:1057C000CDEDBA9A8DEDBB9AFFF72AF8B64B03F1EF
:1057D000280217460FCF0DF51D7CACE80F00D7E966
:1057E0000001049A059782E803009DAA68920622A8
:1057F000699299E806002846FFF7A0FC07F1080225
:105800000FCA93AF87E80F00042166AB66976791D4
:1058100093E806004046FFF791FC5846A349FEF77F
:1058200073FCA4A8A249FEF76FFCAAA8A149FEF741
:105830006BFCA4AB022164930DF5BC79659164AA5D
:1058400006CA4B4683A8FFF71FF89B490FC98FAFC5
:1058500087E80F00042062AB6297639093E806002C
:105860003046FFF76BFC83A8CDE900B08CA8434617
:105870002A46014602969148FFF7E0FC3046FEF7C3
:1058800079FF83A8FEF797FFAAA805F0C5FEA4A894
:1058900005F0C2FE584605F0BFFE4046FEF76AFF1F
:1058A0002846FEF767FF8CA8FEF750FF844BA493B1
:1058B000844BA593844BA693844BAA93844BAB93C0
:1058C000844BAC93844BAD930520A4AB6093619063
:1058D00056A89AE8060003468CA88DEDA7EACDED00
:1058E000A89A8DEDA99AFEF79BFF6F4BCDF878B182
:1058F0001F4660330FCB8BE80F0004205F9099E8C0
:1059000006002846FFF71AFC3B4670330FCB93AFD7
:1059100087E80F0004205CAB5C975D9093E806007D
:105920004046FFF70BFC9DA86C49FEF7EDFBB0A8C5
:105930006B49FEF7E9FBB6A86A49FEF7E5FBB0A89C
:105940005A9002205B900DF5A8795AAA4B4606CAD8
:1059500083A8FEF799FF544B80330FCB8FAF87E8B6
:105960000F00042058AB5897599093E80600304632
:10597000FFF7E4FB83A801909DA800908CA8434604
:105980002A46014602965848FFF758FC3046FEF773
:10599000F1FE83A8FEF70FFFB6A805F03DFEB0A804
:1059A00005F03AFE9DA805F037FE4046FEF7E2FE00
:1059B0002846FEF7DFFE8CA8FEF7C8FE4B4BB093DF
:1059C0004B4BB1934B4BB2934B4BB3934B4BB49369
:1059D0004B4BB593B0A84B4B5690B69308204A4B0F
:1059E00057900DF5987ABC9356A8484BBD9390E814
:1059F000060053468CA8CDEDBA8A8DEDBB8A8DED9D
:105A0000B7EACDEDB89A8DEDB99ACDEDBEAA8DED80
:105A1000BFAAFEF705FF244B049F03F1900CBCE8DE
:105A20000F000DF51D7EAEE80F009CE8070087E82B
:105A300007009DA854900720559099E80600284635
:105A4000FFF77CFB184BAC330FCB93AF87E80F000D
:105A5000042052AB5297539093E806004046FFF75C
:105A60006DFB58462A49FEF74FFBA4A82949FEF7CB
:105A70004BFBAAA82849FEF747FBA4AB0220509392
:105A800051900DF5947950AA4B4606CA83A8FEF7AB
:105A9000FBFE054BBC330FCB8FAF87E80F00042014
:105AA0004EAB4E973AE000BFA4EA0B00F5E80B00BE
:105AB000FBE80B0002E90B00F4EA0B00D8530320CB
:105AC00097692742B840AFC2FE812742FB8A27422E
:105AD0009444AFC2718927427964AFC25FE80B007A
:105AE00009E90B0010E90B003C5503201A6327421B
:105AF000D24BAFC2C46E27421541AFC2B580274218
:105B00008640AFC200822742E18127427644AFC27D
:105B100017E90B001EE90B0025E90B004F9093E8F5
:105B200006003046FFF70AFB83A8CDE900B08CA839
:105B300043462A4601460296BA48FFF77FFB3046A5
:105B4000FEF718FE83A8FEF736FEAAA805F064FD4E
:105B5000A4A805F061FD584605F05EFD4046FEF73D
:105B600009FE2846FEF706FE8CA8FEF7EFFDB0A85A
:105B70004C9007204D9042A89AE8060003468CA856
:105B8000CDEDB48A8DEDB58ACDEDBC8A8DEDBD8AA3
:105B9000CDEDB0DA8DEDB1DACDEDB2CA8DEDB3CA8F
:105BA000CDEDB6BA8DEDB7BACDEDB8AA8DEDB9AAE7
:105BB000CDEDBA9A8DEDBB9AFEF732FE9A4A049F5C
:105BC000A2F1180EBEE80F000DF51D7CACE80F0029
:105BD000059803C887E803009DA84A9006204B90CB
:105BE00099E806002846FFF7A9FA8F4A0FCA93AF33
:105BF00087E80F00042248AB4897499293E80600D3
:105C00004046FFF79BFA58468849FEF77DFAA4A85C
:105C10008749FEF779FAAAA88649FEF775FAA4AB78
:105C20000220469347900DF5807946AA06CA4B4656
:105C300083A8FEF729FE80490FC98FAF87E80F00C0
:105C4000042244AB4497459293E806003046FFF7A0
:105C500075FA83AA43468CA9CDE900B202962A467A
:105C60007648FFF7EBFA3046FEF784FD83A8FEF78F
:105C7000A2FDAAA805F0D0FCA4A805F0CDFC5846CA
:105C800005F0CAFC4046FEF775FD2846FEF772FD9A
:105C90008CA8FEF75BFD6A4BB0936A4BB1936A4BDD
:105CA000B293B0AA694B4292B3930822684B4392D5
:105CB0000DF1E00AB49342AA664BB59306CA534667
:105CC0008CA8CDEDB68A8DEDB78ACDEDBE8A8DED6F
:105CD000BF8ACDEDB89A8DEDB99ACDEDBAAA8DED0A
:105CE000BBAACDEDBCBA8DEDBDBAFEF799FD5A4BFE
:105CF000049FDFED5A8A9FED5A8A03F1CC0CBCE871
:105D00000F000DF51D7EAEE80F009CE8070087E848
:105D100007009DAA40920722419299E80600284672
:105D2000FFF70CFA4C4BE8330FCB93AF87E80F002B
:105D300004223EAB3E973F9293E806004046FFF7B1
:105D4000FDF958464749FEF7DFF9A4A84649FEF792
:105D5000DBF9AAA84549FEF7D7F9A4AB02213C9389
:105D60000DF1D8093D913CAA4B4606CA83A8FEF71F
:105D70008BFD394BF8330FCB8FAF87E80F00042230
:105D80003AAB3A973B9293E806003046FFF7D6F9D4
:105D900083AA43468CA9CDE900B202962A4634482C
:105DA000FFF74CFA3046FEF7E5FC83A8FEF703FD4B
:105DB000AAA805F031FCA4A805F02EFC584605F071
:105DC0002BFC4046FEF7D6FC2846FEF7D3FC8CA8F9
:105DD000FEF7BCFC274BB093274BB193274BB293F4
:105DE000274BB393274BB493274BB593274BB693CD
:105DF000274BB793274BB893274BB993274BBA93AD
:105E0000B0AA274B3892BB930722264B3992BC93FA
:105E10002EAA254BBD938CA813469AE80600FEF7E0
:105E2000FFFC43E0D87D0320E4EA0B002CE90B00E3
:105E300033E90B003AE90B00F4EA0B00E8E4032035
:105E4000766A27422B69AFC25F6B2742CD56AFC23D
:105E50002D8A2742D856AFC2A4EA0B000266294217
:105E600081288EC241E90B0046E90B004DE90B0089
:105E70007CE403201B482942B21A8EC2834F294278
:105E8000931D8EC2E66029422D1D8EC2F9662942FD
:105E9000F01A8EC2A5712942E6238EC237742942B8
:105EA00073338EC27A7D29425D3B8EC2B14B03F5BE
:105EB000847C1F46BCE80F000DF51D7EAEE80F0088
:105EC0009CE80300049A82E803009DAA3692062209
:105ED000379299E806002846FFF730F993AA3492E2
:105EE00032230422CDE99434359234AB93E8060092
:105EF000404693949694FFF721F958469E49FEF741
:105F000003F9A4A89D49FEF7FFF8AAA89C49FEF74B
:105F1000FBF8A4AB022132930DF1B009339132AA00
:105F20004B4606CA83A8FEF7AFFC214610228FA875
:105F300006F04AFB8FAA3092042230AB319293E8EC
:105F400006003046FFF7FAF883AA43468CA9CDE94C
:105F500000B202962A468B48FFF770F93046FEF7EA
:105F600009FC83A8FEF727FCAAA805F055FBA4A806
:105F700005F052FB584605F04FFB4046FEF7FAFB92
:105F80002846FEF7F7FB8CA8FEF7E0FB7E4BA493B8
:105F90007E4BA5937E4BA6937E4BA7937E4BA893F7
:105FA0007E4BA9937E4BAA937E4BAB930422A4AB6A
:105FB0002E932F920DF1900A2EAA534606CA8FA84F
:105FC000FEF72EFC07F5907393E8070003232C954A
:105FD0002D9385E8070099E806008CA8FFF7AEF836
:105FE0002822CDE9982404222AABCDF8A8B02B9220
:105FF00093E80600404697949A94FFF79FF89DA86F
:106000006949FEF781F8B0A86849FEF77DF8B6A89F
:106010006749FEF779F8B0A9289102210DF18809A6
:10602000299128AA4B4606CA83A8FEF72DFC2146D3
:10603000102293A806F0C8FA93AA2692042226AB4F
:10604000279293E806003046FFF778F883AA01927A
:106050009DAA43468FA90296009256488CAAFFF744
:10606000EDF83046FEF786FB83A8FEF7A4FBB6A842
:1060700005F0D2FAB0A805F0CFFA9DA805F0CCFA49
:106080004046FEF777FB8CA8FEF774FB8FA8FEF75F
:106090005DFB494BB093494BB193494BB293494B8C
:1060A000B393494BB493494BB593494BB693494B82
:1060B000B793494BB893B0AA484B2492B9930622A0
:1060C000474B2592BA931AAA464BBB938CA813460A
:1060D0009AE80600FEF7A4FB264BCDF888B003F53E
:1060E000967CBCE80F005F460FC7DCF800303B60D1
:1060F0000523239399E806002846FFF71FF893AA83
:1061000020922D230422CDE99434219220AB93E8F0
:106110000600404693949694FFF710F89DA83249E4
:10612000FDF7F2FFA4A83149FDF7EEFFAAA8304918
:10613000FDF7EAFFA4AB1E9302231F930DF1600A43
:106140001EAA534606CA83A8FEF79EFB21461022CC
:106150008FA806F039FA8FAA1C9204221CAB1D925C
:1061600093E806003046FEF7E9FF83AB01939DAB51
:1061700040E000BFA4EA0B00D0E80B00D4E80B001D
:10618000DBE80B00C0E50320A9842942E60B8EC2A0
:10619000A670294262188EC2E16F2942861E8EC205
:1061A000D1712942CF1F8EC2E2E80B00E7E80B0055
:1061B000EEE80B006C5303207A532942C9308EC29B
:1061C000D0632942F1268EC24B6329420D218EC233
:1061D000306E29425A1D8EC278822942E2268EC232
:1061E000CD9C294270278EC217E90B001EE90B00D7
:1061F00025E90B002A468CA902960093B548434630
:10620000FFF71CF83046FEF7B5FA83A8FEF7D3FA7D
:10621000AAA805F001FAA4A805F0FEF99DA805F0CA
:10622000FBF94046FEF7A6FA2846FEF7A3FA8CA82B
:10623000FEF78CFAA84BB093A84BB193A84BB4933C
:10624000A84BB593A84BB693A84BB793A84BB8935C
:10625000A84BB993A84BBA93A84BBB93A84BBC933C
:10626000A84BBD93A84BBE93A84BBF93B0AB1A935A
:1062700008231B930DF140091AAA4B4606CA8CA8A5
:10628000CDEDB28A8DEDB38AFEF7CAFADFF8C8C247
:10629000BCE80F000DF51D7EAEE80F009CE807007E
:1062A000049B83E807009DAB1893072319939AE892
:1062B00006002846FEF742FF93AA169246230422C0
:1062C000CDE99434179216AB93E8060040469394B8
:1062D0009694FEF733FF58468D49FDF715FFA4A8A5
:1062E0008C49FDF711FFAAA88B49FDF70DFFA4AB60
:1062F0001493022315930DF1380A14AA534606CAC3
:1063000083A8FEF7C1FA214610228FA806F05CF997
:106310008FAA1292042212AB139293E80600304621
:10632000FEF70CFF83AB2A468CA9CDE900B3029699
:1063300043467A48FEF782FF3046FEF71BFA83A8F1
:10634000FEF739FAAAA805F067F9A4A805F064F9E0
:10635000584605F061F94046FEF70CFA2846FEF76C
:1063600009FA8CA8FEF7F2F96D4B9D936D4B9E9345
:106370009DAB33600223736096E8060008AB8FA8DC
:10638000CDED9F8A8DEDA08AFEF74AFA09AB1093F6
:106390000123119399E806000F268CA80996FEF7B1
:1063A000CDFE04230F93CDF838B09AE806002846B6
:1063B000CDE99746CDE99944FEF7C0FEA4A854491B
:1063C000FDF7A2FEB0A85349FDF79EFEB6A85249BC
:1063D000FDF79AFEB0AB0C9302230D930CAA07AB0A
:1063E00006CA4046FEF750FA2146102293A806F04E
:1063F000EBF893AA0A9204220AAB0B9293E80600E8
:1064000083A8FEF79BFE83ABCDE90183A4AB8CAAE6
:106410008FA9009344482B46FEF710FF83A8FEF790
:10642000A9F94046FEF7C7F9B6A805F0F5F8B0A8F7
:1064300005F0F2F8A4A805F0EFF82846FEF79AF95F
:106440008CA8FEF797F98FA8FEF780F9374B3849EB
:106450009C60C3E90044374B37489C60C3E9004463
:10646000364B374D9C60C3E90044364BDFF8C8809B
:106470009C60C3E90044344BC3E900449C6002F0D3
:1064800071FF3249324802F06DFF32492C4802F068
:1064900069FF0FCD5E460FC6B8E80F00D5F800C003
:1064A000C7F800C09DAD0FC5C146049B59F810A99F
:1064B000C3F800A05D460FCDA4AE0FC6DFF89CE088
:1064C000C6F800C00DF51D7CCEE90044BCE80F0005
:1064D000B0AD45E0447E032055652942AE308EC202
:1064E0004768294245248EC2CC68294206218EC2C3
:1064F000CD722942B01D8EC2777729425E1F8EC2AF
:1065000068762942D5208EC291822942BA308EC245
:106510005FE80B0009E90B0010E90B00645403204D
:10652000F057294251338EC2D054032048540320DF
:1065300054E90B0058540320B4520320CC7D0320AF
:10654000DC520320F052032094E6032079E90B008B
:10655000C85203209EE90B00E4EB0B00A4E60320E5
:106560000FC5B0ABC5F800A07046CDE9014400935B
:106570007649A4AB4FF0100203F05EFCDFF85CC27A
:10658000BCE80F00DE46AEE80F00B9E80F00DCF80B
:1065900000E0C7F800E00DF51D7CACE80F00049B9F
:1065A000D8F80090C3F80090DA46BAE80F00DFF898
:1065B000E4810DF5247CACE80F00C6F800E09DAE48
:1065C000C8E900440FCE0DF5307CACE80F00604BFD
:1065D000C5F800900193B0AB4FF004025D490294FE
:1065E00000934046A4AB03F027FC5B485B4C02F0F1
:1065F00094F85B495B4804F042F95B4803F04CFFB8
:1066000057495A4804F03BF95549594804F037F9BD
:106610005349584804F033F9574801F06FFA4FF4E2
:106620007A73009342F2107204F12C01534B20460E
:1066300001F03CFC524B4A492360524804F01FF9D8
:10664000474951480DF5417DBDEC0E8BBDE8F04F3B
:1066500004F015B94C4804F0C7F84A4804F0C4F8EF
:106660003E48FDF729FD444B484A9C691A607CB1BD
:106670006368013B63605BB9236820469B68984769
:10668000A368013BA3601BB923682046DB689847D9
:1066900038483F4C04F0A8F8354804F0A5F83348D2
:1066A00004F0A2F82F4804F09FF83A4803F0ABF842
:1066B000394803F0A8F83948FEF75CF83848FEF787
:1066C00059F83848FEF7F5FC3748FEF7F2FCD4E9F4
:1066D0000001FEF7FCFC206818B1A168091AFDF75B
:1066E000E0FC3248FEF7BAFC3148FEF7B7FC31480F
:1066F000FEF7B4FC3048FEF7B1FC3048FEF7AEFCC4
:106700002F48FEF7ABFC2F48FEF7A8FC2E48FEF7FB
:10671000A5FC2E48FEF7A2FC2D48FEF79FFC2D4855
:10672000FEF79CFC2C48FEF799FC286838B10DF563
:10673000417DBDEC0E8BBDE8F04F02F0BFBB0DF507
:10674000417DBDEC0E8BBDE8F08F00BFC3E90B00AF
:106750005D490B00C6E90B00B0E60320B07E0320C4
:106760003AEC0B002CE603203CE6032054E6032021
:1067700068E603207CE60320B0550320ECA5032047
:1067800090EA0B00985203206CE4032044EF0B00C6
:10679000485403208CE60320A4E6032094E603205B
:1067A000F0520320CC7D032058540320D054032002
:1067B00064540320447E03206C530320C0E503206F
:1067C0007CE40320E8E40320D87D03203C5503202B
:1067D000D85303200053032054E50320C85203205C
:1067E000814210B51346A1EB000405D001462246B4
:1067F000184605F0CFFE0346181910BD2DE9F041EB
:106800000D460446FEF774F8D5E903310026C91A8F
:10681000C4E903666661891004F10C00FEF7FEFB13
:10682000E268D5E90301FFF7DBFF05F118012061FC
:1068300004F11800FEF768FCD5E909372648E6623E
:10684000FF1ABB10C4E909665843FDF74BFCC4E9C5
:1068500009000744E762D5E909780646B84507D03C
:106860001EB139463046FEF74FFC0C360C37F5E7C3
:10687000A66205F1300104F13000FDF7ABFCD5E96B
:1068800012371548FF1A0023C4E912332365FB10A1
:106890005843FDF773FCC4E9120007442765D5E9A6
:1068A00012780646B84507D01EB139463046FDF786
:1068B00091FC18361837F5E7E6646B6D6365AB6DD0
:1068C000A365EB6DE3652B6E23666B6E6366AB6E43
:1068D000A3662046BDE8F081ABAAAAAAF8B5D1E923
:1068E0000037FF1A0023C0E90033044683600D48D7
:1068F000BB1058430E46FDF72FFCC4E900000744C7
:10690000A760D6E900670546B74207D01DB13146FA
:106910002846FFF773FF6C356C36F5E76560204657
:10692000F8BD00BF13DA4B6870B505460E46144635
:10693000B5420FD05CB129462046FFF7CFFF05F1E5
:106940000C0104F10C00FDF745FC6B6A636228350D
:106950002834EDE7204670BD2DE9F34704460D4687
:10696000FDF774FC05F10C0204F10C039A4225D0EA
:10697000D5E90381E2686369A1EB08069B1A9E4290
:106980004AD9002E46D05D4B9E4201D904F00CFE40
:1069900030460191FDF77FFB019907463A46404694
:1069A000FFF71EFFE06818B16169091AFDF779FB6E
:1069B000E76037446761E3683344236105F11801F8
:1069C00004F11800FEF7E4FB05F1240304F12402AE
:1069D000934245D0D5E9096AD4F82490E36AAAEB3A
:1069E0000608A3EB0903434555D245484FEAA803DF
:1069F0005843FDF777FB07468146B24520D0B9F1F1
:106A0000000F03D031464846FEF77EFB09F10C0922
:106A10000C36F2E73746C1E723699B1A9E4203D83A
:106A20004046FFF7DDFEC6E708EB03014046FFF7EF
:106A3000D7FED4E90302D5E90331101A1844F0E770
:106A4000D4E90901FEF7FFFA606A18B1E16A091A90
:106A5000FDF727FB67624744E762636A4344A3622A
:106A600005F1300104F1300004F0F4FD05F14801B6
:106A700004F14800FDF73CFC6B6D6365AB6DA365ED
:106A8000EB6DE3652B6E23666B6E6366AB6EA36680
:106A900002B0BDE8F087A76AA7EB0907B8450DD893
:106AA00030464A465146FEF7ABFBA76A0646B74258
:106AB000D3D03046FDF75EFE0C36F8E7104BBF1022
:106AC0005F43002F08DD31464846FEF761FB0C3678
:106AD00009F10C09013FF4E7D4E90967B91B6E6AB3
:106AE000D5F828900E44B145B7D01FB1314638468D
:106AF000FEF70AFB0C360C37F5E700BFFCFFFF7F03
:106B0000ABAAAAAA2DE9F0410C1A05460B48A4101D
:106B10004443164627469046002F08DD2946404646
:106B2000FFF71AFF6C3508F16C08013FF4E724EA1F
:106B3000E4746C2000FB0460BDE8F08113DA4B685C
:106B400081422DE9F04704460F462CD0D1E9005A86
:106B5000D0F800908368AAEB0508A3EB090343452E
:106B600023D22A484FEAA8035843FDF7F5FA064610
:106B70000746AA4507D01FB129463846FFF73EFE13
:106B80006C376C35F5E7D4E90001FEF787FA206829
:106B900018B1A168091AFDF784FA26604644A66078
:106BA000236843446360BDE8F0874668A6EB0906A6
:106BB000B0450DD828464A465146FFF7A3FF666800
:106BC0000546AE42ECD02846FEF748FA6C35F8E7A9
:106BD0000E4BB6105E43002E08DD29464846FFF7EF
:106BE000BBFE6C3509F16C09013EF4E7D4E90056AF
:106BF000711B3D687F680D44AF42D1D01EB129465C
:106C00003046FFF7FBFD6C356C36F5E713DA4B6861
:106C10002DE9F0410C1A05461048E410444317468C
:106C2000A0461646B8F1000F10DD29463046FFF7A2
:106C300087FF05F10C0106F10C0004F00BFD6B6AF7
:106C400073622835283608F1FF38EBE724EAE4744C
:106C5000282000FB0470BDE8F08100BFCDCCCCCC77
:106C60002DE9F843A2EB01088368174602689B1AD6
:106C7000984504460E462AD9264B984502D92648FF
:106C800004F098FC25484FEAA8035843FDF764FA3E
:106C900005468146B7420AD0B9F1000F03D031460C
:106CA0004846FFF7ABFD6C3609F16C09F2E7D4E911
:106CB0000001FEF7F3F9206818B1A168091AFDF781
:106CC000F0F925604544C4E90155BDE8F8834568FD
:106CD000AD1AA8450BD839463046FFF713FF616857
:106CE00088420546F1D0FEF7D9F96560EDE70D441D
:106CF00030462946FFF706FF6668AF4207D01EB14F
:106D000029463046FFF77AFD6C356C36F5E766604C
:106D1000DBE700BFA4FFFF7FB7E70B0013DA4B6888
:106D200070B5ADF51E7D04F08BFA4FF4165104F0EA
:106D30007BFA4FF4FA7002F009F902F073FC02F0EA
:106D4000BBFC02F06FFC994A994D014617A803F06D
:106D50009DF917A802F057FD02F064FC954A014620
:106D600017A803F093F917A802F04DFD02A802F04E
:106D700080FE0FCD11AC0FC42E68266011AD0FCD73
:106D800017AC0FC417A8266002F04EFA044617A8E5
:106D9000002C40F0E68002F063FA0094ADF82C007D
:106DA00002230BAA032102A802F058FE02F03AFCCB
:106DB000002202A902F0CAFC17A8FDF7B1FC7E4C24
:106DC0007E4E04F08BFB03F0EDFA00217C4801F0CD
:106DD000B8FD7C49204603F09AFD50237A49A3630D
:106DE0007A4C02250620C1E91550C4E91550784DAA
:106DF0000322072317A8C5E91523C6E91523FFF7C2
:106E0000FDFC314632A8FFF7F9FC29464DA8FFF7F3
:106E1000F5FC214668A8FFF7F1FC6E4983A8FFF74F
:106E2000EDFC6D489EAA17A9FFF71AFF04246C25F4
:106E300017AB05FB0430FEF711F9013CF8D26749A6
:106E400017A8FFF7DBFC664932A8FFF7D7FC6549B6
:106E50004DA8FFF7D3FC644968A8FFF7CFFC63494E
:106E600083A8FFF7CBFC62489EAA17A9FFF7F8FE9C
:106E700004246C2517AB05FB0430FEF7EFF8013C4A
:106E8000F8D2554905A8FFF729FD5A490BA8FDF787
:106E90003BF900241CAB05A917A8CDE91A34CDE9AC
:106EA000174419948DF87040FFF74AFE0BA91AA8F1
:106EB00004F0D0FB05254E49209508A8FFF70EFDEC
:106EC0004D4911A8FDF720F926ABCDE92434CDE9D1
:106ED000214423948DF8984008A9484C21A8FFF735
:106EE0002FFE11A924A804F0B5FB2268A3682A95F7
:106EF0009B1A4F2B3DD85020FDF7CDF82BA9024609
:106F0000054617A8FFF710FDD4E90001FEF7DFF8EA
:106F1000206818B1A168091AFDF7C3F8374B1D6046
:106F20005035C3E9015524A804F076FB21A8FEF7EB
:106F3000C0F81AA804F070FB17A8FEF7BAF811A859
:106F400004F06AFB08A8FEF7B4F80BA804F064FB91
:106F500005A8FEF7AEF8029801F0B0FF0DF51E7D12
:106F600070BD02F07FF90023009302461023072131
:106F700019E76568AD1A4F2D0BD92BA917A8FFF794
:106F800047FE616888420546CDD0FEF7A0F86560EF
:106F9000C9E717AB1D4429461846FFF739FE62685A
:106FA0002BA92846FFF7C0FC6060BCE7A4E60320DD
:106FB000B45203208CE603202CE60320D87D032066
:106FC000B0E60320C9E90B00D8530320E8E403200E
:106FD0007CE403203C55032058540320C0E50320E3
:106FE00064540320D05403206C530320447E0320B8
:106FF000CC7D0320D9E90B00DDE90B0048540320C8
:107000000120FEF70BBA00002DE9F04F2DED068BA5
:10701000764B0022B7B05868114601F017FF0028E0
:1070200000F05F85724B1B78002B00F05A8504F04E
:1070300007F97049704D03F078FB704BD3E90046B7
:10704000B44209D054F8042B029204F0F9F8029AE1
:107050002946FDF7CDF9F3E704F0F2F803F059FB08
:10706000674BDFF8DCA11B68CAF80030DFF8D48179
:1070700000230293DAF80020D8F8001028235A439E
:107080008B188A585B689B1A5E4A9B105343029A7E
:10709000934240F2AC845C4801F072FC64283BD817
:1070A00004F0CEF859495A4C03F03FFB0025D4E9CF
:1070B00000239B1AB5EBA30F11D204F00FFA23683B
:1070C00053F8251003F0A4F904F008FA3321FDF772
:1070D000A7F804F003FA03F0A2F90135E7E740F658
:1070E000B83001F033FF0025D4E900239B1AB5EB3B
:1070F000A30F11D204F0F2F9236853F8251003F01E
:1071000087F904F0EBF93421FDF78AF804F0E6F989
:1071100003F085F90135E7E74FF47A7001F016FFC7
:10712000374B1B68013300F0DC843A4917A803F0A1
:10713000A6FBDAF80020D8F80030282505FB02333A
:1071400013A8D96803F09BFB13A917A803F02CFC24
:10715000314903F035FC029BD8F800206C245C43D5
:10716000DAF800306B430646D35823441BA8196B4A
:1071700003F085FB1BA9304603F016FC01462748A7
:10718000274E03F0ADFB1BA803F02EFB13A803F062
:107190002BFB17A803F028FB224B2349234800931D
:1071A0003246234B00F0E0FC04F04AF8214903F09A
:1071B000BCFA214800F070FE71680391084605F0A2
:1071C0004BFA039902461C4800F049FE1A4801F0A8
:1071D00053FA0390D0BB04F033F8184937B0BDEC34
:1071E000068BBDE8F04F03F0A0BA00BF18E70320FC
:1071F000ACE60320E2E90B00EDE90B0094E6032086
:10720000A050032013DA4B68B0E60320F2E90B002C
:10721000F0520320FDE90B000BEA0B0054E60320BB
:1072200078E6032013EA0B002CE60320B055032078
:10723000A450032017EA0B00B07E03201FEA0B00C6
:10724000545403204854032000000000DAF80030B2
:10725000D8F800201FED049A6B431BA8D158214495
:10726000FFF7CCFA1BA907A8FDF742FB4FF0000976
:10727000A2490DA800F02AFEA14A0DA910A800F00D
:10728000F5FF002210A913A800F0C4FE9D4A13A91F
:1072900017A800F0EBFF4A4617A90AA800F0BAFEAB
:1072A00017A800F08BFD13A800F088FD10A800F0CF
:1072B00085FD0DA800F082FD934A0AA917A800F0E9
:1072C000D5FF17A913A800F0EBFF17A800F076FD73
:1072D0008E4A0AA910A800F0C9FF10A917A800F04B
:1072E000DFFF10A800F06AFD894A0AA910A800F083
:1072F000BDFF002110A800F0A7FE044610A800F072
:107300005DFD844A0AA910A800F0B0FF10A8B0EEF5
:10731000490A00F0A5FE10A8F0EE408A00F04EFDEC
:107320007D4A0AA910A800F0A1FF10A8B0EE490AF2
:1073300000F096FE10A8B0EE408A00F03FFD159BCD
:10734000012B7FD803F07CFF7449754F03F0EDF9F2
:1073500017A803F049FA13A803F046FA0AA800F0A8
:107360002DFD029B0025DE003B68002B40F086824D
:10737000022D06D06B4927A8FDF7DEFA002800F0A1
:107380006D8204F0ABF8684B196803F041F804F023
:10739000A5F82D9B0446196817A803F070FA1799F1
:1073A0002046FCF741FF17A803F01EFA04F096F8F8
:1073B0002D9B0446996917A803F061FA1799204696
:1073C000FCF732FF17A803F00FFA04F087F803F078
:1073D00026F83B68002B40F06782022D06D0514909
:1073E00027A8FDF7A9FA002800F04E8204F076F8ED
:1073F0004D4B196803F00CF83C68002C40F01C83DE
:10740000022D40F086824949DFF8249127A8FDF734
:1074100093FA002800F04E82D9F82410D1E906230F
:107420009B1A9A10D1E900135B1A9B1003EB5203CD
:10743000A34240F2018304F051F83021FCF7F0FE42
:107440000134E9E7DDE90735ED1AED104FF0000BE7
:10745000AB4507993BDA01EBCB06D6ED007A78EE27
:10746000E77A17EE900A04F0D7FCD6ED017A78EEB1
:10747000677A02460B4617EE900ACDE9042304F022
:10748000CBFCDDE9042341EC1A0B1046194604F04D
:107490001BFD53EC1A2B06460F461AEE100A19462E
:1074A00004F012FD02460B463046394604F056FB06
:1074B00041EC100B04F046FA1E9E51EC100B04F048
:1074C000D3FF06EB8B060BF1010B3060C0E7DDE963
:1074D0001E67BE4230D0321D3346974210462CD034
:1074E000D3ED007A90ED007AB4EE677AF1EE10FAFF
:1074F00002F1040248BF0346EFE700BFB07E03205D
:107500002EEA0B0034EA0B003BEA0B0045EA0B00C5
:1075100051EA0B005BEA0B0064EA0B006EEA0B0019
:107520005454032018E50320445403206C550320D1
:10753000D8530320CCCCCC7D3346309A9B1BB2EB86
:10754000A30F4FEAA30008BF319801EBC003D3EDAE
:10755000007AD3ED016AF4EEE78AF1EE10FA77EEE5
:10756000E85A55BF38EE666A76EEC87A78EEE77A62
:1075700087EEA57A4FEAC00C58BF86EE277A5FEDFA
:10758000137AB5EE407AF1EE10FA0AD0B4EEE77A4B
:10759000F1EE10FABABFBFEE006AC6EE077AF0EE5F
:1075A000497AB0EE487AA7EEA57AF4EEC76AF1EE12
:1075B00010FA4CBF01270027002871D191ED027A03
:1075C000DDF8C4C037EE687AF0EE486AE7EE276A65
:1075D00091ED037AF4EEC76AF1EE10FACCBF012503
:1075E0000025BCF1000F1DD1531E01EBC301BD42AC
:1075F00091ED000A91ED017A40F09B8070EE688A6F
:10760000A8EEA78AB4EEC78AF1EE10FACCBF01212A
:107610000021A94200D1531C9A42C0F28C8011462D
:107620009C4605E0BD4274D00246844601231946BB
:1076300006EB8C0006EB810190ED007AD1ED007A2B
:107640002198359D50F82C1077EE277A9542C7EE99
:10765000276A07EE901AB8EEE78A28EE268A06DB3C
:107660003499914203DC9D4201DB994266DD329DF3
:10767000954266DC9D4264DC3399914265DB994218
:1076800063DB039B294602258C4561DD50F82120F0
:1076900007EE902AF8EEE77A013138EE278AF3E711
:1076A000ACF1080C8C449CED007A37EE687AF0EE71
:1076B000486AE7EE276A05F1FF3E431E9CED017A1A
:1076C000F4EEC76AF1EE10FACCBF4FF0010C4FF0A8
:1076D000000C864529D1319B834218D1531E01EB02
:1076E000C301BC4591ED000A91ED017A02D0AB1EB9
:1076F000024691E770EE688AA8EEA78AB4EEC78AC0
:10770000F1EE10FACCBF01210021614582E7BC45B2
:10771000EDD117A803F068F813A803F065F80AA8DC
:1077200009F1010900F04AFBA2E5BC45E0D1431C88
:10773000DEE702467AE71946944679E700230325F7
:10774000A2E700210B460D469EE7002301259BE79B
:10775000AB4A249E1268002A70D1002B4AD0A94956
:1077600027A8FDF7E9F8F0B1D6E906239B1A9B108C
:1077700007EE903AF8EE677A37EEC88A012D47D1C6
:10778000A14927A8FDF7D8F8002849D0D6E9032356
:107790009B1A9B1007EE903AF8EE677A37EEC88A8C
:1077A000C4F106043CE0994927A8FDF7C5F8C8B123
:1077B000974B5B6AD3E90632D21A9210530807EE50
:1077C000903AF8EEE77A37EE888AFDEEC87A17EE3F
:1077D000903AB3FBF2F102FB113308EE103AB8EE27
:1077E000488ACBE78B4927A8FDF7A6F8002818BFE1
:1077F0000124C3E7884927A8FDF79EF828B98549E1
:1078000027A8FDF799F80028B8D0C4F10604B5E719
:10781000032D05D17B4927A8FDF78EF80028BFD19D
:10782000B0EE480A04F048F80C23BDEEC00A5D43F0
:1078300010EE102A735943F822406AE7012AEFD16B
:10784000764927A8FDF778F80028A9D1744927A818
:10785000FDF772F80028A3D17249DCE7032D0DD1A2
:107860006A49714C27A8FDF767F818B103F036FE96
:1078700021688AE503F032FE616886E503F02EFE9A
:107880006A4B1B68995980E5032D0DD15F49664C01
:1078900027A8FDF751F818B103F020FE2168A9E5EB
:1078A00003F01CFE6168A5E503F018FE5F4B1B6842
:1078B00099599FE509F1300127A8FDF73DF820B956
:1078C000544927A8FDF738F898B1D9F82420D2E90F
:1078D00000239B1AB4EBA30F80F0AE8003F0FEFDF3
:1078E000249B1B6813F824103031FCF799FC0134F9
:1078F000EBE7D9F82420D2E900239B1AB4EBA30FBD
:1079000080F09A8003F0EAFD3021FCF789FC013415
:10791000EFE7012D40F0C2803F4927A8FDF70CF8A2
:1079200030B93C4927A8FDF707F8002800F084800B
:10793000249AD2E906239B1AB4EBA30F7CD203F05E
:10794000CDFD3021FCF76CFC0134F1E72D4927A86F
:10795000FCF7F2FF00286FD0DFF8D490DFF8D4B046
:10796000D9F82400DBF82410D0E90032D21AD1E98A
:1079700009135B1A9B10C3EBA203A3425CD903F06B
:10798000ADFD3021FCF74CFC0134E9E719467EE0FF
:1079900003F056FC02F0BDFE013503F09FFD02F03E
:1079A0003EFD042D06F104067FF4DEAC00231C46E8
:1079B00000222499CD18C8586968091AB2EBA10FA2
:1079C00003D240F822400132F3E70C33302BEFD1E1
:1079D00003F036FC02F09DFE07A8FCF7B7FE1BA8DB
:1079E000FDF73CFB029B01330293FFF743BB03F01F
:1079F00027FC37B0BDEC068BBDE8F04F02F089BE26
:107A000054540320ACE403206C550320087E03206B
:107A1000D87D032018E5032008540320747E03203A
:107A200094540320F0E50320A855032094E6032096
:107A30003C5503207CE4032003F002FC279A2B49E9
:107A40002B46FCF7D5FC0C246C434FF00009249A1C
:107A5000131912595B689B1AB9EBA30F98D203F064
:107A60003DFD249B1B5913F829103031FCF7D8FB3E
:107A700003F0E6FB249B1B5953F82930002B834667
:107A800084DA2D21039302F041FE039B59420A221E
:107A9000584602F054FE09F10109D8E7032DCBD175
:107AA000134927A8FCF748FF00283FF44FAFDFF841
:107AB0004490DFF844B0D9F82400DBF82410D0E972
:107AC0000032D21AD1E909135B1A9B10C3EBA2034F
:107AD000A342B1D903F002FD3021FCF7A1FB013430
:107AE000E9E737B0BDEC068BBDE8F08F74EA0B0018
:107AF000087E03203C550320D87D032010B50446A2
:107B000003F0D0FA204610BD38B50446154602F001
:107B1000F9FD0549204602F0F5FD29462046BDE85D
:107B2000384002F002BE00BF56E70B0038B50546EC
:107B3000144602F0E7FD0B49284602F0E3FD002C55
:107B40000DDA2D21284602F0E1FD614228460A2285
:107B500002F0F5FD2846BDE8384002F0DABD2146C6
:107B6000F4E700BF56E70B002DE9F04F0E4691B049
:107B700098464FF0FF331360044600213046DDF88D
:107B80006890174602F053FFD6F838E0034698B9DC
:107B9000BEF1000F14BF72465022316892B22046E7
:107BA00003F080F8051E18BF0125C5B9204611B0A5
:107BB000BDE8F04F03F02CBA764B0A9306F1140C93
:107BC000BCE80F000BAD0FC5DCF800302B701FFABE
:107BD0008EF200230AA9204603F044F9E2E7494661
:107BE000204602F08FFD6C49204602F08BFDB16A01
:107BF000204602F087FD6949204602F083FD68496E
:107C0000684A2046FFF780FF0021304602F00FFF50
:107C100020B9326864492046FFF776FF06F13C0A36
:107C20000021504602F003FF28B9726C5F492046DC
:107C3000FFF77CFF06E05E49484604F0FBFC024685
:107C40000028F3D0B8F1000F0ED0D8F8001059B1C9
:107C5000D8F80420204622B1FFF756FF08F10808A3
:107C6000F3E702F062FDF9E7204602F052FD2046FC
:107C700002F078FF0021504602F0D9FE18B9F16BEE
:107C8000204602F052FD04F11C0A4FF4205200215C
:107C9000504604F099FC00F035FF019000F032FFEF
:107CA0004FF00008464641F2883B204603F056F963
:107CB000E8B1204602F03CFF814600F023FF42F28B
:107CC000FE739E42019004D8A31983F81C900136DC
:107CD000EBE742F2FF739E42F9D104F50053002214
:107CE00083F81B28204603F093F9A846EFE7A31971
:107CF000187700F007FF019BA0EB0309B8F1000F14
:107D000004D1D94502D8C82001F020F9204603F05B
:107D100047F820B1D94502D8B8F1000FC5D02046A8
:107D200003F076F9514602A802F0A9FD0C230922BE
:107D300002A906A802F0A0FE1E490AA802F09FFDB3
:107D40000AA902A802F094FE04460AA802F04CFD1B
:107D5000631C08D106A802F047FD02A802F044FD0A
:107D600011B0BDE8F08F3D1D1349284602F0CFFD4C
:107D7000221D02A90AA802F09FFE0AA9284602F0C5
:107D800002FE0AA802F030FD069804F0E1FB38601C
:107D9000E0E700BFBCEE0B00F0E90B0000EC0B00CD
:107DA00012EC0B000CEC0B001DEC0B0022EC0B009A
:107DB00031EC0B0036EC0B003AEC0B00704710B5C1
:107DC0000C210446FCF76DF9204610BD10B5054B9B
:107DD0000360037C04461BB9406808B101F06EF8EB
:107DE000204610BD48EC0B0010B50446FFF7EEFF2F
:107DF00020461421FCF755F9204610BD10B5074B5D
:107E00000360037C04461BB9406908B101F056F8D1
:107E10002046FFF7DBFF204610BD00BF58EC0B00EB
:107E200010B50446FFF7EAFF20462C21FCF739F98C
:107E3000204610BD38B5037C04460D460BB100202A
:107E400038BD406838B101F041F80028F7D0C4E9E6
:107E500001050120F4E7084601F028F8F5E770B5C0
:107E6000C3680E461546D1184268044672B182684E
:107E70008A420BD36068E3682A463146184404F00E
:107E80007BFBE2682A44E260012070BD2046FFF7D8
:107E9000D1FF0028EED1F8E743680021C16023B18B
:107EA000826812B1184604F08FBB704710B5C0E964
:107EB00001120022C260012202744361024A029B45
:107EC0000260C36110BD00BF58EC0B00D1E905236F
:107ED0009A42044B38BF8260C0E9003124BF0023BE
:107EE0008360704768EC0B0070B513689D68136879
:107EF00003F1100414608669B4420AD29B698C684D
:107F0000A34201DAAB42F2DDA342CCBF0020012044
:107F100000E0002070BD2DE9F341089D984601F175
:107F2000100304461746019300260198A369834273
:107F30001AD982688B689A4216DAAE420BD1386041
:107F400001AA2046FFF7D0FF28B1019BC8F80030F6
:107F500002B0BDE8F08101AA2046FFF7C5FF204628
:107F60000136FFF7C1FFE0E70020F1E7F7B51F4654
:107F700001F110030446164601930025019BA269F6
:107F80009A420FD998688A6890420BDAB54203D1B9
:107F90003B60012003B0F0BD01AA20460135FFF788
:107FA000A3FFEBE70020F5E7F0B5013B0024D1E9A2
:107FB0000176F61BA64208DDA34206DD45683D4476
:107FC0002D5D02F8015B0134F1E700231370F0BD71
:107FD0001FB5144610236A46FFF7E6FF0449224600
:107FE000684600F07BFF431E5842584104B010BD64
:107FF0001CEF0B001FB5144610236A46FFF7D4FF91
:108000006846002105F08AF9012084ED000A04B0D9
:1080100010BD000073B50D4689680A4E044661B173
:10802000686801ABFFF7A2FF38B16B68C4E9006371
:10803000019BA360204602B070BD6B68C4E9006379
:108040000023F6E768EC0B0007B50191816819B1D0
:10805000406801AAFFF7BCFF019803B05DF804FB7C
:1080600007B581688DED010A19B1406801AAFFF7D3
:10807000C1FF9DED010A03B05DF804FB10B5044695
:1080800000680B4628B102F082FCE3680133E3602C
:1080900010BD60680028F8D0D4E90221013A8A4274
:1080A00088BF4354F1E703467F2B37B50846D9B262
:1080B00004D803B0BDE83040FFF7E0BF01F03F0156
:1080C000B3F5006FC3F3871541F0800407D245F084
:1080D000C0010190FFF7D2FF01982146E9E71B0B91
:1080E00043F0E0010190FFF7C9FF05F03F0101985F
:1080F00041F08001EEE700002DE9FF4700244E68C3
:10810000DFF8CCA080460F461546A146B868B042BD
:108110005ADDD8F80430995D9A19002C4BD0752996
:1081200005D86D2907D862291ED066291ED0284699
:10813000FFF7A4FF3DE0A1F16E04072CF7D80FF282
:10814000080C5CF824F000BF71810B002F810B003C
:108150002F810B002F810B0075810B002F810B00ED
:1081600079810B007D810B000821E0E70C21DEE71F
:108170000A21DCE70D21DAE70921D8E7311D884221
:1081800017DD02A904333344084612F8014F01F801
:10819000014B9A42F9D101AA51468DF80C9000F09A
:1081A0009DFE012805D1BDF804002946FFF77BFF9D
:1081B0000536002404E05C2904D02846FFF75EFF62
:1081C0000136A3E70124FBE7012004B0BDE8F087F6
:1081D0003BEC0B007FB50C4606460C491046154695
:1081E00002F095FBD4E90131C91A0131284602F0A9
:1081F00019FB00236A4621463046CDE9013300953C
:108200000393FFF779FF04B070BD00BF3AEC0B0099
:108210002DE9F04389B00546884604A81249164660
:10822000994602F02CFB002700974B4603AA4146D3
:108230002846FFF770FE044670B1039904AA284649
:10824000FFF7C8FF044608B90137EDE7314604A837
:1082500002F0EDFB0028F7D004A802F0C5FA204692
:1082600009B0BDE8F08300BF3AEC0B0073B50D46D2
:1082700089680A4E044661B1686801ABFFF7C8FF20
:1082800038B16B68C4E90063019BA360204602B06B
:1082900070BD6B68C4E900630023F6E768EC0B006F
:1082A00038B50D460549044602F0E9FAA96819B146
:1082B00068682246FFF78EFF204638BD3AEC0B0077
:1082C0002DE9F04F44684FF0010C4FF0FF36D0F825
:1082D00000E0964580F0B98111F80E80B8F1000FEA
:1082E00000F0B381B8F13A0F00F0988033D8B8F1BC
:1082F000220F00F0A68010D8A8F109085FFA88F8CC
:10830000B8F1170F0DD89F4D0CFA08F818EA050FB1
:1083100007D0056801350560D9E7B8F12C0F00F0EA
:108320003381D0F8008042450ED911F808505DB174
:108330003A2D00F269811F2D00F251810A2D00F2C1
:108340006081082D40F25681002B40F0628108F1D7
:10835000FF350560A5E0B8F17B0F37D02ED8B8F116
:108360005B0F33D0B8F15D0FDBD1002BD1D04FF0D4
:1083700002094568013D03EB0518002D55DBD8F8CF
:10838000047001374DD0D8F808A0BAF1FF3F48D1AA
:1083900098F800B0CB454BD10EF1010EC0F808A003
:1083A000C8F808E003EB051EDEF80470013742D080
:1083B000DEF8087001373ED18560AAE7B8F17D0F7D
:1083C000AFD1002BA5D04FF00109D2E70134002B2B
:1083D0009FD04568099FAF424AD905F1010EC0F808
:1083E00004E003EB051ECEE901664FEA051A0025FD
:1083F000CEF80C5085686F1C1FBF03EB0519D9F828
:108400000C500135C9F80C50B8F17B0F0CBF012599
:10841000022503F80A500568CEF804504568013D6E
:10842000CAE7013DA8F11008A7E701357FF471AF55
:108430006FF001041EE0013D6F1CAEF1100EB3D1D0
:1084400067E70EF10109C0F80090D0F800804245BE
:1084500040F2938011F80850002D00F08E80222DFC
:1084600030D1F3B14568099FAF4206D8C0F800E0AB
:108470004FF0FF342046BDE8F08F05F1010E4FEAC2
:10848000051803EB0515C0F804E0C5E901660027EF
:10849000EF60D0F800E04FF0030A03F808A0C5E948
:1084A000019E85686F1C04F101043FF432AF002B7C
:1084B0003FF42FAF03EB051EDEF80C500135CEF86C
:1084C0000C5026E75C2D11D108F10105AA420DD907
:1084D00005604D5D752D2BD86D2D0BD8662D27D8D9
:1084E0005B2D1DD8222D01D02F2D21D105680135FE
:1084F0000560AAE76E3D072D1AD801A757F825F0A9
:10850000ED840B0031850B0031850B0031850B00AC
:10851000ED840B0031850B00ED840B0037850B00DB
:108520005C3DEDB20CFA05F540F241473D42DDD12C
:10853000C0F800E07CE708F1020505604FF0040A8E
:10854000D0F80080424503D80568013D0560CDE7BD
:1085500011F80850002DF7D0A5F1300BBBF1090F31
:1085600004D925F02005413D052DE1D808F101058C
:10857000BAF1010A0560E3D1E6E7C0F800E06FF068
:10858000020477E713008000002B3FF4C2AE856839
:108590006F1C3FF4BEAE2D015D5D013D012D7FF6E8
:1085A000B8AE456805F1FF3803EB051EB8F1000FC2
:1085B000FFF6AFAE1EF8105C013D012D0AD85EF843
:1085C0000C5C013506D05EF8085C013502D1C0F8BC
:1085D00008809EE608F1FF38AEF1100EE6E7A5F13F
:1085E0002009244F5FFA89F90CFA09F919EA070FF3
:1085F0007FF4AAAE203D5E2D9AD808F101050560F2
:108600008FE60D2DF6D19FE605F0DF09B9F15D0F7C
:10861000F8E74568099FAF427FF628AF05F10108EA
:108620004FEA051903EB0515C0F80480C5E901669A
:108630000027EF60D0F800804FF0040A03F809A08B
:10864000C5E901E80568013D83E6002B3FF412AF60
:108650004268511E03EB02130029FFF60BAF53F8DB
:108660000C2C013203D053F8082C013287D0013989
:10867000103BF1E701100004F7B5C268044612B9D7
:10868000002003B0F0BD436900F12006ABB100212A
:10869000C0E908114FF0FF318162C1690091416862
:1086A0003046FFF70DFE431C28D1257C002DE7D175
:1086B000606900F003FC6561E56100254FF0FF375C
:1086C000C4E90855E2686168A76200952B46304608
:1086D000FFF7F6FD0028D3DBE06117D0000100F0C2
:1086E000E5FBE269606103460092C4E90855E2686F
:1086F0006168A7623046FFF7E3FD01E00028BFDBB9
:10870000636903EB0010A0610120BAE76369A3610C
:10871000FAE70368C9B29B681847704738B5044642
:108720000D4602F0DBFE217901F06EFE02F0D6FE6E
:10873000290AFFF7EEFF02F0D1FE2946FFF7E9FF15
:1087400002F0CCFE01F06BFE02F0C8FE217901229E
:1087500001F057FE02F0C2FE03685B699847C0B2A1
:1087600038BD70B5064615460C4602F0B7FE3179A5
:1087700001F04AFE02F0B2FE210AFFF7CAFF02F042
:10878000ADFE2146FFF7C5FF02F0A8FE03682946AB
:108790009B68984702F0A2FEBDE8704001F03FBE22
:1087A00010B50122044640F20721FFF7DAFF204608
:1087B00001224FF40271FFF7D4FF204600229621D8
:1087C000FFF7CFFF2046FD229721FFF7CAFF204683
:1087D0000022E321FFF7C5FF20460422E421FFF732
:1087E000C0FF20460222E521FFF7BBFF2046012201
:1087F000E621FFF7B6FF20460322E721FFF7B1FF8E
:1088000020460222F521FFF7ACFF20460522D921A0
:10881000FFF7A7FF2046CE22DB21FFF7A2FF20466D
:108820000322DC21FFF79DFF2046F822DD21FFF720
:1088300098FF204600229F21FFF793FF20463C220D
:10884000A321FFF78EFF20460022B721FFF789FF03
:1088500020463C22BB21FFF784FF20460922B2219B
:10886000FFF77FFF20460922CA21FFF77AFF204643
:1088700001224FF4CC71FFF774FF204617224FF40A
:10888000D871FFF76EFF2046002240F2AD11FFF7CE
:1088900068FF20460522FF21FFF763FF20460522DF
:1088A0004FF48071FFF75DFF2046052240F29911D9
:1088B000FFF757FF20461B224FF4D371FFF751FFFC
:1088C00020463E224FF4D671FFF74BFF20461F2271
:1088D00040F2A711FFF745FF204600223021FFF7A5
:1088E00040FF204610221121FFF73BFF2046302297
:1088F0004FF48571FFF735FF204646223F21FFF7F1
:1089000030FF2046FF223121FFF72BFF2046632254
:108910004021FFF726FF204601222E21FFF721FFED
:10892000204609221B21FFF71CFF204631223E2151
:10893000FFF717FF20462422BDE810401421FFF75F
:1089400010BF292310B504460371A9B902F0C6FD72
:108950002060206801F026FD00212046FFF7DEFEA2
:10896000B4280BD12046FFF71BFF2046002216211A
:10897000FFF7F7FE012010BD0160EAE70020FAE7EB
:1089800038B504464D212046FFF7C8FEC207F9D589
:10899000012218212046FFF7E4FE4F212046FFF771
:1089A000BDFE4307F9D562212046FFF7B7FE072237
:1089B000054615212046FFF7D4FE284638BD0000A5
:1089C00008B5024B1B689B68019308BD7802030041
:1089D00008B5024B1B681B6D019308BD78020300AC
:1089E00008B5024B1B689B6D019308BD780203001C
:1089F00008B5024B1B681B6E019308BD780203008B
:108A000008B5034B1B68D3F89830019308BD0000EC
:108A10007802030008B5034B1B68D3F8A830019314
:108A200008BD00007802030008B5034B1B68D3F8AB
:108A3000B430019308BD00007802030008B5034B71
:108A40001B68D3F8D830019308BD000078020300FA
:108A500008B5034B1B68D3F8DC30019308BD000058
:108A60007802030008B5034B1B68D3F8EC30019380
:108A700008BD00007802030008B5034B1B68D3F85B
:108A8000F030019308BD00007802030008B5034BE5
:108A90001B68D3F80031019308BD00007802030081
:108AA00008B5034B1B68D3F80431019308BD0000DF
:108AB0007802030008B5024B1B685B6C019308BD8C
:108AC0004802030008B5024B1B68DB6C019308BD2C
:108AD0004802030008B5024B1B685B6D019308BD9B
:108AE0004802030008B5024B1B685B68019308BD90
:108AF0001802030008B5024B1B68DB68019308BD30
:108B00001802030008B5024B1B685B69019308BD9E
:108B10001802030008B5024B1B68DB68019308BD0F
:108B20002802030008B5024B1B689B69019308BD2E
:108B30002802030008B5024B1B68DB69019308BDDE
:108B40002802030008B5024B1B681B6A019308BD8D
:108B50002802030008B5024B1B685B6A019308BD3D
:108B60002802030008B5024B1B689B6A019308BDED
:108B70002802030008B5024B1B68DB6A019308BD9D
:108B80002802030008B5024B1B681B6B019308BD4C
:108B90002802030008B5024B1B681B6C019308BD3B
:108BA0002802030008B5024B1B681B6D019308BD2A
:108BB0002802030008B5024B1B685B69019308BDDE
:108BC0006C02030008B5024B1B685B69019308BD8A
:108BD0006402030008B5024B1B681B6A019308BDC1
:108BE0006402030008B5024B1B689B6A019308BD31
:108BF0006402030008B5024B1B689B68019308BD23
:108C00006802030008B5024B1B68DB68019308BDCE
:108C10006802030008B5024B1B689B69019308BDFD
:108C20003802030008B5024B1B68DB69019308BDDD
:108C30003802030008B5024B1B681B6A019308BD8C
:108C40003802030008B5024B1B689B6A019308BDFC
:108C50003802030008B5024B1B681B6B019308BD6B
:108C60003802030008B5024B1B689B6B019308BDDB
:108C70003802030008B5024B1B68DB68019308BD8E
:108C80003C02030008B5024B1B681B69019308BD39
:108C90003C02030008B5024B1B685B69019308BDE9
:108CA0003C02030008B5024B1B689B69019308BD99
:108CB0003C02030008B5024B1B68DB69019308BD49
:108CC0003C02030008B5024B1B689B6A019308BD78
:108CD0003C02030008B5024B1B681B6C019308BDE6
:108CE0003C02030008B5024B1B681B68019308BDDA
:108CF0004C02030008B5024B1B685B68019308BD7A
:108D00004C02030008B5024B1B681B69019308BDA8
:108D10004C02030008B5024B1B685B69019308BD58
:108D20004C02030008B5024B1B689B69019308BD08
:108D30004C02030008B5024B1B68DB69019308BDB8
:108D40004C02030008B5024B1B681B6A019308BD67
:108D50004C02030008B5024B1B685B6B019308BD16
:108D60006002030008B5024B1B681B6D019308BD30
:108D70006002030008B5024B1B685B68019308BDE5
:108D80002002030008B5024B1B685B69019308BD14
:108D90002002030008B5034B1B68D3F88830019309
:108DA00008BD00002002030008B5034B1B68D3F880
:108DB0009430019308BD00002002030008B5024B67
:108DC0001B68DB6B019308BD4402030008B5024B2E
:108DD0001B685B68019308BD4002030008B5024BA5
:108DE0001B689B68019308BD4002030008B5024B55
:108DF0001B68DB68019308BD4002030008B5024B05
:108E00001B681B69019308BD4002030008B5024BB3
:108E10001B685B69019308BD4002030008B5024B63
:108E20001B689B69019308BD4002030008B5024B13
:108E30001B68DB69019308BD4002030008B5024BC3
:108E40001B681B6A019308BD4002030008B5024B72
:108E50001B685B6A019308BD4002030008B5024B22
:108E60001B689B6A019308BD4002030008B5024BD2
:108E70001B681B6B019308BD4002030008B5024B41
:108E80001B685B6B019308BD4002030008B5024BF1
:108E90001B681B6C019308BD4002030008B5024B20
:108EA0001B685B6C019308BD4002030008B5024BD0
:108EB0001B681B68019308BD1C02030008B5024B28
:108EC0001B685B68019308BD1C02030008B5024BD8
:108ED0001B689B68019308BD1C02030008B5024B88
:108EE0001B685B69019308BD1C02030008B5024BB7
:108EF0001B685B6A019308BD1C02030008B5024BA6
:108F00001B68DB6A019308BD1C02030008B5024B15
:108F10001B681B6B019308BD1C02030008B5024BC4
:108F20001B68DB6B019308BD1C02030008B5024BF4
:108F30001B681B6C019308BD1C02030008B5024BA3
:108F40001B685B6C019308BD1C0203000021FFF746
:108F500019BF70477047704770470000064B994231
:108F600010B500F10C0405D0084602F029FB0028DA
:108F700008BF0024204610BD10EE0B00064B99429E
:108F800010B500F10C0405D0084602F019FB0028CA
:108F900008BF0024204610BD10EE0B00064B99427E
:108FA00010B500F10C0405D0084602F009FB0028BA
:108FB00008BF0024204610BD10EE0B0010B568213C
:108FC0000446FBF76EF8204610BD10B52821044674
:108FD000FBF767F8204610BD10B530210446FBF7BB
:108FE00060F8204610BD6821FBF75BB82821FBF72D
:108FF00058B83021FBF755B8F0B50025EC1C8C4271
:109000000DD86E1C445D875D974205D12644B14260
:1090100005D31D60601CF0BD01342544EEE700203F
:10902000F9E70000024A03490A20FFF793BE00BF98
:10903000F58A0B0070EC0B0030B40D4611461A4651
:10904000036809682868D3E90043A44630BC604738
:10905000012A38B5044602D10B68236003E0022AD6
:1090600003D0032A0DD0002038BD08200D68FBF77F
:1090700012F803460028F0D095E8030083E80300C7
:10908000EBE700680028EED00821FBF70AF8EAE7D2
:1090900010B58368044613B1032201469847204661
:1090A00010BD10B504465830FFF7F2FF04F1480038
:1090B000BDE8104001F098BB10B54368013B044681
:1090C000436063B903689B689847A368013BA3604A
:1090D0002BB923682046DB68BDE81040184710BD57
:1090E000A0F13003DAB2092A01D818467047A0F17E
:1090F0006103052B01D857387047A0F14103052BB8
:1091000094BF37384FF0FF307047000010B5002390
:109110000370044B04461868FFF7D4FC0123237046
:10912000204610BDC0E6032010B5037804461BB1ED
:10913000024B1868FFF7CEFC204610BDC0E60320A6
:1091400082B00346086849686A4603C26A4603CA91
:1091500018601846596002B0704708B582798B795B
:109160009A4206D1062203F0F7F9B0FA80F04009DE
:1091700008BD0020FCE74FF0FF3303608380002030
:10918000704708B50246002101604160FFF7F3FF18
:109190009171104608BD000010B501230361054B15
:1091A000024603F1100153F8044B42F8044B8B4282
:1091B000F9D110BD1EEE0B0010B50B460446B1B13F
:1091C000012A01F110020AD1014653F8040B41F8BB
:1091D000040B9342F9D101232361204610BD411EA7
:1091E00012F8010D01F8010F9A42F9D1F3E71022AC
:1091F00003F0EAF9F1E738B5044615461A46FFF7D9
:10920000DBFFA581204638BD08B5026922B98089F7
:10921000003818BF012008BD0249102203F09CF954
:10922000F6E700BF3EEE0B000069704738B50C460C
:1092300014220021054603F0C7F923691BB9A3894D
:109240002B80284638BD01232B7421462B4604F180
:10925000100251F8040B43F8040B9142F9D1F0E7E6
:1092600080897047704708B502690B699A4206D138
:10927000102203F071F9B0FA80F0400908BD002017
:10928000FCE7000001232DE9F3410361344B0C4658
:109290000646024603F1100153F8040B42F8040B92
:1092A0008B42F9D144B32421204603F0F1F904287C
:1092B0004FF0000523D1ADF8045001AFA51C0634D2
:1092C00015F8020CFFF70CFFB0F1000812DB15F8DF
:1092D000010CFFF705FF00280CDB023540EA0810FF
:1092E000A54207F8010BEBD19DF8053033739DF8CB
:1092F000043073730023336102B0BDE8F0814FF096
:1093000010082421204603F0C3F9A84207D842469A
:109310000021304602B0BDE8F04103F055B9B8F184
:10932000000FE9D0605DFFF7DBFE030615D40001F6
:1093300008F1FF38C7B206F808702421204603F070
:10934000A7F90135A84208D9605DFFF7C9FE40B210
:109350000028A4BF384306F808000135D1E700BF54
:109360001EEE0B0013B504460191FFF715FF2046D2
:109370000199FFF787FF204602B010BD38B54FF6C0
:10938000FF730025044643800E22294605700571AF
:10939000063003F019F904F11400FFF7FDFE04F1A3
:1093A0002800FFF7F9FE044904F13C0001F067FAD8
:1093B0006565204638BD00BF3AEC0B0010B5D0E91A
:1093C000063203EBC2029342184606D00468248892
:1093D0008C4203F10803F6D110BD0020FCE7000029
:1093E000F0B5064685B01F460D46002950D0002A2C
:1093F0004ED004682378F42A28BFF42243B323799B
:10940000980709D5A08903920023FFF70DFB0028D8
:10941000039A03DA05B0F0BD6FF077003468237962
:10942000D90609D5012F07D0A0890023294605B008
:10943000BDE8F040FFF72ABB9B06EBD5022FE9D031
:10944000A0890023294605B0BDE8F040FFF728BBFE
:1094500060884FF6FF7188421CD021794E0701D5F4
:10946000012F04D10B0709D46FF07700D2E7A1894F
:10947000009313462A46FFF7EBFACBE7022FF3D00F
:109480000023A189009313462A46FFF7D7FAC1E7C4
:109490000248BFE76FF0D100BCE700BFF2FEFFFF5C
:1094A00037B50C460546F4212046019203F0F0F84A
:1094B000019B02462146284603B0BDE83040FFF735
:1094C0008FBF00002DE9F0410026066007462820E6
:1094D0000C46FAF7E0FD051E05F10C080FD001233C
:1094E000C5E90133084B2B604046FFF755FE0FCC12
:1094F0002E6285F8246046460FC623683360C7E9AC
:1095000000853846BDE8F081E0ED0B0070B5002520
:10951000056006463020FAF7BEFD044688B10123F7
:10952000C0E90133094B03604FF6FF7383810E30AE
:10953000FFF727FEC4E90655C4E90855C4E90A55F2
:10954000A57574600C343460304670BDFCED0B00C2
:1095500037B50D46044601A8FFF7D8FD2A68D2F8B2
:1095600002302360D2F80630636001A8FFF7DCFD0B
:10957000204603B030BD30B5054687B00C4601A883
:10958000FFF7C4FD2A68236812881B889A420DD110
:10959000294602A8FFF7DCFF214604A8FFF7D8FF01
:1095A00004A902A8FFF7D9FD044600B9002401A8C8
:1095B000FFF7BAFD204607B030BD000010B50446E5
:1095C0006420FAF768FD68B10023C0E90033C0E900
:1095D0000233C0E90433C0E906330362C362C363E4
:1095E000C364C365206020B90A4A0B490A20FFF70B
:1095F000B1FB0020FFF7E4F920B1064A07490A2031
:10960000FFF7A8FB216806480022FFF735FA20463D
:1096100010BD00BFF58A0B0070EC0B00AEEC0B0028
:10962000A59B0B0010B50A4C2378BFF35B8FDB07BB
:109630000CD42046FAF737FD40B10648FFF7BEFFCD
:109640002046FAF735FD044802F07CFF014810BDC2
:10965000B8E60320C4E6032071980B0030B5036818
:10966000093B012B8DB004460D4611D8FFF7DAFFF8
:10967000A1880068FFF7A2FE034658B92022CDE971
:1096800004200B4A00920B4904AA3220FFF76AFB20
:109690000DB030BD6A6D002AFAD0D4E9032105F17E
:1096A0004C00CDE90312AC6D04AA03A9A047EFE773
:1096B000F0EC0B0087EC0B0008B50020FFF780F9F9
:1096C00000EAE07008BD19B90A460846FFF780B9FC
:1096D000D1E900010022F9E738B5141E43680546B8
:1096E00002DB62189A4200DD5C1A2A6850180119E0
:1096F0001A44521A02F04EFF6A68121B6A6038BDA3
:1097000037B50A4604460D4601ABD0E90001FFF724
:1097100073FC024638B101992046FFF7DDFF294668
:109720002046FFF7EDFF03B030BD10B50C4629B958
:109730000A460846BDE81040FFF752B9012120460D
:10974000FFF7DEFFD4E900010022F3E738B5044655
:109750001546FFF7B8FF00280ADB29462046FFF729
:10976000E4FF002804DBBDE838400020FFF740B9E3
:1097700038BD000038B500230446836008200D463C
:10978000FAF789FC18B12B6803606B684360034BE0
:10979000E360034B2060A360204638BD39900B0086
:1097A00051900B000B68036013B15A6801325A6084
:1097B000704710B551F8043B044640F8043BFFF7EE
:1097C000F1FF23680BB9FFF72DFC204610BD10B543
:1097D00051F8043B044640F8043BFFF7E3FF204602
:1097E00010BD10B551F8043B044640F8043BFFF7A8
:1097F000D9FF204610BD10B50446006808B1FFF738
:109800005BFC204610BD10B504460430FFF7F3FFA3
:10981000204610BD70B5D0E90053044605EBC306E1
:10982000AE4204D0281DFFF7E6FF0835F8E72068B0
:10983000FFF744FB204670BD70B5D0E900530446E5
:1098400005EBC306AE4204D0281DFFF7D4FF083550
:10985000F8E72068FFF732FB204670BD10B50446DC
:109860002430FFF7E9FF04F11800FFF7D3FF10BD24
:1098700070B5174B1C6854B304F15400FFF708FC93
:1098800004F14400FFF704FC04F13400FFF700FC8E
:1098900004F12400FFF7FCFBD4E9065305EBC306F3
:1098A000AE4204D0281DFFF7A6FF0835F8E7A069EF
:1098B000FFF704FB04F10C00FFF7BEFF2046FFF7A3
:1098C000A9FF20466421BDE87040FAF7EABB70BDED
:1098D000C4E6032013B50023D1E90042C1E90033F7
:1098E0000368009304604368426001A80193FFF796
:1098F00082FF02B010BD826810B50AB901F05DFEAA
:10990000BDE81040C368184738B50D1E044600680E
:1099100003DDFFF7DBFA18B938BDFFF7CFFA0020F7
:109920002060A5600120F7E708B583688B4202DA62
:10993000FFF7EAFF08BD0120FCE72DE9F0410F46E3
:1099400041681D461944836899420446904612DCDA
:10995000266862683E44D21B3146701902F01AFE36
:109960002A464146304602F007FE63682B44636096
:109970000120BDE8F081FFF7C7FF0028E8D1F8E734
:10998000F8B50D46D0E901139942044616460BDAA4
:10999000276862687919521B481C02F0FBFD7E554E
:1099A000636801336360F8BD0131FFF7ADFF002844
:1099B000EED1F8E70A464168FFF7E2BF2DE9F74329
:1099C00004461D460F4601AB90460A46D0E9000109
:1099D0009DF82890FFF710FBAE1C63680246B9F1B2
:1099E000000F26D128B333441B1AFF2B09D8019945
:1099F0002046FFF771FE616820463144FFF794FF6F
:109A000018B9606803B0BDE8F0836A1C0199D2B24E
:109A10002046FFF7B5FF01993A4601312046FFF78E
:109A2000AFFF01992B46424602312046FFF785FFE2
:109A3000E7E7F118FF29E4D82046FFF775FF002873
:109A4000DFD0691CC9B22046FFF7B4FF3946204673
:109A5000FFF7B0FF61682B464246E6E730B49DF859
:109A600008501AB1029530BCFFF7A8BF406830BC5F
:109A700070471FB50023C0E90033836006220093BE
:109A800001238DF80F2019460DF10F020446FFF750
:109A9000E5FF204604B010BD8842F8B504460D46E7
:109AA000164614D9904213D2A2F10806751AA1F1F4
:109AB00008072C44B74218D01CB131462046FFF7A6
:109AC00090FE301DFFF797FE083E083CF2E70CD0F1
:109AD000B5420AD01CB129462046FFF782FE281D58
