:02000002B0004C
:1040000000400B0080C90B00000006000C000502F8
:084010000401E50C00000000B2
:04401800ACBA0B0033
:1040200009480A49884208B505D0094A824202D0A7
:10403000121A05F0E8FC0748074A0021121A05F099
:104040000AFD014808BD00BFBC55032068C70B002E
:10405000AC570320AC570320EDE7032070B5074EA3
:10406000074C04F003FCA41BA4080025AC4200D1BB
:1040700070BD56F8043B98470135F7E714C70B00AD
:104080003CC70B0000F076BA08B500F0FFFEBDE8B3
:10409000084004F0A3BB02F093B902F091B902F01A
:1040A00097B90078B0FA80F0400970470123037097
:1040B0007047000010B5034B0360044601F0CEFAD0
:1040C000204610BD94BD0B0010B50446FFF7F2FF6B
:1040D000204646F2BC51FFF7E2FF204610BD08B56E
:1040E00048B1B0F1005F01D304F05AFCBDE80840CC
:1040F0008000FFF7D0BF08BD08B548B1B0F1805FC0
:1041000001D304F04DFCBDE80840C000FFF7C3BF79
:1041100008BD0368C9B29B68184700002DE9F04349
:10412000514C85B080460E466846504903F0F9FD73
:104130002368022B00F38A800027013EBE420AD981
:1041400018F80710684603F040FE009805F043FC9D
:1041500001370546F2E72368012B04DC4449454852
:10416000002202F01FFC04F0B5FB434E236856F812
:10417000231003F0CFFB04F0ADFB3321FFF7C9FFA1
:1041800004F0A8FB03F0CDFB2368002B17DD013BF7
:10419000013D56F82320394B43F8252004F09AFBC3
:1041A0002368013B56F8231003F0B4FB04F092FBA4
:1041B0003421FFF7AEFF04F08DFB03F0B2FB26685D
:1041C000022E43D14FF47A7002F042F904F034FA2F
:1041D0002B492A4FDFF8AC9003F029FD04F02CFAAC
:1041E00057F8045B002D80463BDA2D2103F010FDCB
:1041F00069420A22404603F024FD04F01DFA4946B4
:1042000003F002FD04F066FB57F8041C03F082FB88
:1042100004F060FB3321FFF77CFF04F05BFB03F04D
:1042200080FB4FF4FA6002F013F904F053FB57F8E7
:10423000041C03F06FFB04F04DFB3421FFF769FF12
:1042400004F048FB03F06DFB012E08D1236868469B
:104250000133236003F01AFD05B0BDE8F0830126A9
:10426000BCE72946C5E700BFF0570320F2BD0B00AD
:10427000C0BA0B00ACE60320E8570320A0E60320F9
:1042800030BB0B003CBB0B002DE9F047A34DDFF822
:10429000B0828EB02B68022B00F007810023DFF87C
:1042A000A4929F4F2B60082404F0C6F941460646AD
:1042B0000AA803F036FD0A22214606A803F057FD9E
:1042C00006A90AA803F08EFD0168304603F0AFFC92
:1042D00006A803F0DBFC0AA803F0D8FC04F0FAFA05
:1042E000214603F017FB04F0F5FA3121FFF711FF27
:1042F0005FFA84FA04F0EEFA03F013FB04F0EAFA32
:104300001822514603F0FFFA04F0E4FA03681B692F
:104310009847002840F3C48004F08EF949460646C9
:104320000AA803F0FEFC0A22214606A803F01FFD9E
:1043300006A90AA803F056FD0168304603F077FC91
:1043400006A803F0A3FC0AA803F0A0FC2B683946DA
:10435000013302A82B6003F0E4FC182604F0BAFA3B
:1043600003685B699847C1B202A803F02EFD013EC5
:10437000F4D104F0AFFA214603F0CCFA04F0AAFA23
:104380000299064649B10846019105F0ADFB336834
:104390000199DB6802463046984704F04DF96149BF
:1043A00006460AA803F0BDFC02A90AA803F01AFDFC
:1043B0000168304603F03BFC0AA803F067FC04F0F8
:1043C00089FA03F0AEFA04F037F9574906460AA80D
:1043D00003F0A7FC0A22214606A803F0C8FC06A9A0
:1043E0000AA803F0FFFC0168304603F020FC06A891
:1043F00003F04CFC0AA803F049FC04F06BFA2146D8
:1044000003F088FA04F066FA3221FFF782FE04F026
:1044100061FA03F086FA04F00FF9444906460AA847
:1044200003F07FFC0A22214606A803F0A0FC06A99F
:104430000AA803F0D7FC0168304603F0F8FB06A891
:1044400003F024FC0AA803F021FC04F043FA042240
:10445000514603F058FA394602A803F076FC0426C8
:1044600004F038FA03685B699847C1B202A803F008
:10447000ACFC013EF4D104F0DFF82D4906460AA851
:1044800003F04FFC02A90AA803F0ACFC0168304617
:1044900003F0CDFB0AA803F0F9FB02A803F0F6FB3A
:1044A0000134782C7FF400AFF4E604F0C5F821491C
:1044B000214E224F03F0BBFB0824002504F00AFA2A
:1044C000214603F027FA04F005FA3121FFF721FE17
:1044D00004F000FA03F025FA04F0FCF91822E1B226
:1044E00003F011FA04F0F6F903681B6998470028F5
:1044F0000DDD04F0A1F80A22214603F0A2FB04F02E
:104500009BF8314603F080FB47F825400135013424
:10451000782CD3D10EB0BDE8F08700BFA8E6032009
:10452000F2BD0B0077BB0B0083BB0B009ABB0B00EB
:10453000B4BB0B00CCBB0B003CBB0B00E85703200B
:104540003FBB0B005ABB0B0038B54FF4007514236A
:1045500004460360856005610549284604F01EFA9B
:1045600003496060284604F019FAE060204638BD2F
:10457000F8C10B0070B590B004F05EF84FF416511E
:1045800004F04EF84FF4FA6001F062FF02F0CCFA4A
:1045900002F014FB02F0C8FA2C4A2D4C01460BA87D
:1045A00002F0F6FF0BA802F0B0FB02F0BDFA294AB8
:1045B00001460BA802F0ECFF0BA802F0A6FB03A833
:1045C00002F0D9FC0FCC06AD0FC506AD0FCD2668A5
:1045D0000BAC0FC40BA8266002F0A8F804460BA889
:1045E0005CBB02F0BFF80094ADF80A0002230DF1A5
:1045F0000A02032103A802F0B3FC02F095FA00229C
:1046000003A902F025FB144C0BA8FFF79DFF04F053
:1046100061F903F049F9FFF737FE1049204603F02E
:1046200094FB50230E49A36304F1280003F08DFB93
:10463000039801F0CDFE10B070BD02F095F8002394
:104640000093024610230721D4E700BFACE6032005
:10465000AC57032098E6032038E60320DCBB0B00B0
:10466000F4BB0B0010B50446006818B1A168091A24
:10467000FFF715FD204610BD10B50446006818B1BF
:10468000A168091AFFF70BFD204610BD10B50446BE
:10469000006818B1A168091AFFF701FD204610BD96
:1046A00010B504462430FFF7F1FF04F11800FFF7BE
:1046B000EDFF04F10C00FFF7DFFF2046FFF7D2FF0C
:1046C000204610BD2DE9F341002402AB03E90600AA
:1046D000C0E90044134605468460D70042F31C003D
:1046E000104AB2EBC30F884602D20F4804F05EF9BD
:1046F000FFF702FDC61902462860AE6023469F42BE
:104700000BD0D4181CBF08EB0301D1E9000103F161
:10471000080318BFC4E90001F1E728466E6002B043
:10472000BDE8F081F8FFFF7F4ABC0B00F8B5D1E986
:1047300000370025FF1A0446C0E900558560F810CF
:104740000E46FFF7D9FCC4E900000744A760D6E98C
:1047500000760246F61B2B46B34202EB030506D059
:104760001DB1F91803C985E803000833F4E7656053
:104770002046F8BD38B5D0E90054641BB1EBA40F56
:104780004FEAA40202D3034804F013F905EB8100B9
:1047900038BD00BF7BBC0B0038B5D0E90054641BAA
:1047A000B1EBE40F4FEAE40202D3034804F001F94D
:1047B00005EBC10038BD00BF7BBC0B0038B5D0E9AC
:1047C0000054641BB1EBA40F4FEAA40202D30348C8
:1047D00004F0EFF805EB810038BD00BF7BBC0B0097
:1047E000002938B504464FEA81050CD0B1F1005FCD
:1047F00001D304F0D5F82846FFF74DFCC4E90000CA
:104800002844A06038BD0846F8E7814210B5134639
:10481000A1EB000405D001462246184605F001F937
:104820000346181910BD70B5D1E90036F61A0023F9
:104830000446C0E900338360B0100D46FFF74FFC1B
:10484000C4E900000644A6600246D5E90001FFF76E
:10485000DCFF6060204670BD70B50D460446FFF772
:1048600065FFD5E90331C91A0023C4E90333636145
:10487000891004F10C00FFF7B3FFD5E90312914250
:10488000E368A2EB010604D01846324605F0C9F8E9
:1048900003463344236105F1180104F11800FFF7C2
:1048A000C2FF05F1240104F12400FFF7BCFF2046FC
:1048B00070BD00007FB504AB03E906000023C0E92A
:1048C00000338360044613460E46950001EB8201D7
:1048D00042F31D000A4AB2EB830F02D2094804F0EA
:1048E00065F80191FFF7FBFB054402462060019942
:1048F000A5603046FFF789FF6060204604B070BDB8
:10490000FCFFFF7F4ABC0B002DE9F04F88424FF0BF
:104910000005C0E90055C0E90255C0E90455C0E9E9
:104920000655C0E90855C0E90A5589B004469046C5
:104930001F4600F1180923D0D1E900B3B3EB0B0AED
:104940001BD04FEAEA00FFF7D7FB0646AA450BD07B
:1049500073191CBF0BEB0502D2E9000105F1080534
:1049600018BFC3E90001F1E7206818B1A168091A6E
:10497000FFF795FB26605644A660236853446360A6
:10498000D4E900239B1A002B4FEAE30602DA4548DC
:1049900004F00CF8002502A83146CDE90255049533
:1049A000FFF71EFF029836B100EB860AB2002946D7
:1049B00005F051F85046029963690793D4E9035210
:1049C000C4E9031004996161002305A8CDE90552EB
:1049D000CDE902330493FFF74FFE02A8FFF74CFE28
:1049E000C1451ED0D8E90091A269236AA1EB09064E
:1049F0009B1A9E4240D9B0100191FFF770FB0199BC
:104A0000024605464846FFF700FFA06918B1216A33
:104A1000091AFFF744FBA56135442562A3693344B5
:104A2000E361B7F1005FB2D200263846CDE90266F5
:104A30000496FFF754FBBA00054600EB87087FB3E6
:104A4000314605F008F84346D4E90901E26AC4F8A2
:104A50002C80CDE90501C4E9095305A80023CDE95F
:104A6000023307920493FFF711FE02A8FFF70EFE30
:104A7000204609B0BDE8F08FE3699B1A9E4203D837
:104A80004846FFF7C2FEC9E709EB03014846FFF7B6
:104A9000BCFED4E90602D8E90031101A1844F0E748
:104AA0000346D1E74ABC0B002DE9F04F2DED0A8BF0
:104AB0000128B9B040F09C8120ACAA4E9FEDAACA53
:104AC000DFEDAABA9FEDAABADFEDAAAA9FEDAAAAC6
:104AD000DFEDAA9A9FEDAA9ADFEDAA8A9FEDAA8A36
:104AE000DFF808B38DED20CA4FF0050A0DF12C0850
:104AF00043465246214616A8CDED21BA8DED22BA85
:104B0000CDED23AA8DED24AACDED259A8DED269A23
:104B1000CDED278A8DED288ACDF8A4B00F94CDF87D
:104B200040A0FFF7CFFD96E80F001BAD4FF0040942
:104B300009AF85E80F003B4629464A4611A80D9566
:104B4000CDF83890FFF7B6FE282311AA16A98F4892
:104B5000FFF7DAFE11A8FFF799FD16A8FFF782FD0F
:104B6000CDE90B4A08AB98E8060016A88DED20CADF
:104B7000CDED21BA8DED22BACDED23AA8DED24AA7B
:104B8000CDED259A8DED269ACDED278A8DED288ADB
:104B9000CDF8A4B0FFF796FD96E80F00CDE90959CE
:104BA00085E80F0097E8060007AB11A8FFF782FE23
:104BB000282311AA16A97648764DFFF7A5FE11A85D
:104BC000FFF764FD16A8FFF74DFD70492046FFF77B
:104BD00043FE6F492CA8FFF73FFE0023C5E90033D1
:104BE000AB606020FFF757FA00F1600706462860C7
:104BF000AF6010B12146FFF72FFE2CA906F130005F
:104C0000FFF72AFE2CA86F60FFF74AFD2046FFF74A
:104C100047FD61496148624DDFF8808101F024FE63
:104C20006049614801F020FE60495D4801F01CFECA
:104C30000FCD0DF1440AAAE80F00B8E80F0016AF37
:104C40000FC7C146D5F800C059F81039CAF800C0DE
:104C500011AD3B6005930FCD1BAE0FC6DFF888E1A9
:104C6000C6F800C04FF0000B0DF1580CCEE900BBA8
:104C7000BCE80F0025460FC5059B2B6070464C49CC
:104C800000941BAB4FF01002CDE901BB02F056FBC4
:104C9000DFF814C1BCE80F000DF1440EAEE80F00C0
:104CA000B9E80F00DCF800C0CAF800C00DF1580EDA
:104CB0000DF14409AEE80F00B9E80F00D8F800E0A4
:104CC000C7F800E01BAF0FC7DFF81881C6F800C0B7
:104CD00016AFC8E900BB0FCF26460FC6354BC5F847
:104CE00000E04FF00402CDE900433349CDF808B0AD
:104CF0001BAB404602F022FB30493148314C03F0F7
:104D000010F8314802F04AFE2C49304803F009F807
:104D10002A492F4803F005F828492E4803F001F8E6
:104D20002D4800F01BFB4FF47A73009342F210728F
:104D30002A4B04F12C01204600F0E8FC284B2360AC
:104D400039B0BDEC0A8BBDE8F08F206818B1A168BE
:104D5000091AFFF7A4F90E48FFF7A2FC0B48FFF76A
:104D60009FFCEDE7A8BD0B00806927421E43AFC240
:104D7000CC9D27420242AFC2959D27426D47AFC2EC
:104D8000A9A72742054EAFC282B3274208E60320F7
:104D9000F4570320FCE50320C5BC0B00AC570320EF
:104DA000D4570320EABC0B00C05703200FBD0B00F3
:104DB00034BD0B001D410B0037BD0B00F2BD0B00D5
:104DC00038E603204080032048E6032060E6032005
:104DD00074E6032088E60320245803207CA70320E0
:104DE00094BD0B0098E60320ACE60320444EAFC20E
:104DF0001A48FFF75FF91A4B1A4A9C691A607CB18E
:104E00006368013B63605BB9236820469B689847F1
:104E1000A368013BA3601BB923682046DB68984761
:104E20001148124C02F032FF114802F02FFF1148D6
:104E300002F02CFF104802F029FF104801F065FF36
:104E40000F4801F062FFD4E90056AE423FF47DAF57
:104E50002846FFF725FC3035F7E700BF40800320E8
:104E600024580320FCC00B0088E60320FCE5032047
:104E700074E6032060E6032038E6032098E603206A
:104E8000ACE603200120FFF70FBE00002DE9F04F34
:104E90002DED068BABB003F0CFFB914C914902F0A6
:104EA000C6FE914B9149924800932246914B00F0E7
:104EB0008BFA03F0C1FB904902F0B9FE8F4800F075
:104EC0001BFC61680291084604F00EFE029902463E
:104ED0008A4800F0F4FB894800F0AEFF002800F09B
:104EE000DD80874BDFF8409202930025D9E900234B
:104EF00084499B1A1B114B439D4280F02182302133
:104F000001FB05211EA8FFF7A7FC1EA907A8FFF7B4
:104F10000DFC4FF0000B79490DA800F007FC7A4A10
:104F20000DA910A800F082FD784A10A913A800F07E
:104F30007DFD2A4613A916A800F066FC744A16A93E
:104F40001AA800F073FD5A461AA90AA800F05CFCE2
:104F50001AA800F063FB16A800F060FB13A800F08D
:104F60005DFB10A800F05AFB0DA800F057FB694A42
:104F70000AA91AA800F05AFD1AA916A800F070FD97
:104F80001AA800F04BFB644A0AA913A800F04EFDD2
:104F900013A91AA800F064FD1AA802F07AFF039082
:104FA0001AA802F073FE13A800F038FB5B4A0AA9A6
:104FB00013A800F03BFD13A91AA800F051FD1AA890
:104FC00002F06CFF1AA8F0EE408A02F05FFE13A810
:104FD00000F024FB524A0AA913A800F027FD13A9E8
:104FE0001AA800F03DFD1AA802F058FF1AA8B0EE6A
:104FF000408A02F04BFE13A800F010FB189B012B17
:1050000040F26E81DDE90734E41AE4104FF0000A43
:10501000A2454DDA514607A8FFF7BEFBD0ED007A56
:1050200078EEE77A064617EE900A04F035F9D6EDE9
:10503000017A78EE677A02460B4617EE900ACDE9C0
:10504000042304F029F9DDE9042341EC190B10468F
:10505000194604F079F953EC192B06460F4619EE60
:10506000100A194604F070F902460B4630463946DC
:1050700003F0B4FF41EC100B03F0A4FE514621A84D
:1050800057EC106BFFF776FB39468046304604F04C
:105090002BFC0AF1010AC8F80000B9E703F0CCFACA
:1050A00020492BB0BDEC068BBDE8F04F02F0BFBD30
:1050B000DDE92181414539D008F104034746994291
:1050C0001A4634D0D7ED007A92ED007AB4EE677AC2
:1050D000F1EE10FA03F1040348BF1746EFE700BFF3
:1050E00084E603203ABD0B0045BD0B0038E60320E3
:1050F00024580320BC55032049BD0B0040800320E9
:10510000E8570320ABAAAAAA60BD0B0066BD0B003E
:105110006CBD0B0072BD0B007CBD0B0081BD0B0094
:1051200085BD0B0051BD0B00FCE503204746A7EBF6
:105130000806B610314607A8FFF72EFBD0ED007A1F
:1051400090ED019AF4EEE78AF1EE10FA37EEE8AA54
:1051500055BF38EE497A79EE487A78EEE77AC7EEAD
:105160008A6A58BFC7EE276AB845FFEE007AC7EED5
:10517000A69A4CD1711C07A8FFF70EFB90ED000A10
:10518000D0ED017A70EE688AB0EE487AA9EEA87A7E
:10519000A9EE8A8AB4EEE77AF1EE10FAB4EEC98A83
:1051A000CCBF01230023F1EE10FACCBF0122002274
:1051B0009A4200F08C800127B74252DD314621A887
:1051C000FFF7D8FA3946D0ED008A21A8FFF7D2FAC6
:1051D000D0ED007A78EEA77A314688EEA79A24A817
:1051E000FFF7ECFA002490ED008AB8EEC88A28EEAA
:1051F000098AB4425EDA214624A8FFF7DFFAD0ED2F
:10520000007AF8EEE77A013438EE278AF1E7771E64
:10521000394607A8FFF7C0FA90ED000AD0ED017AF1
:1052200070EE688AB0EE487AA9EEA87A611EA9EEFF
:105230008A8AB4EEE77AF1EE10FAB4EEC98ACCBFEE
:1052400001220022F1EE10FACCBF01230023B1426B
:1052500003D19A423BD0A71EAEE79A4208BF771C03
:10526000AAE7394621A8FFF785FA3146D0ED008A32
:1052700021A8FFF77FFAD0ED007A78EEA77A3946B9
:1052800088EEA79A24A8FFF799FA002490ED008AE7
:10529000B8EEC88A28EE098ABC420BDA214624A857
:1052A000FFF78CFAD0ED007AF8EEE77A013438EEA9
:1052B000278AF1E7B0EE480A03F03EFDFDEEC07A22
:1052C00027A817EE901AFFF779FA039B036016A838
:1052D00002F0DCFC0AA80BF1010B00F09FF91AE6C2
:1052E00016A802F0D3FC0AA800F098F903F0F2FA2D
:1052F000029B53F8041B029302F00CFB0024274688
:1053000003F0E8FA2146064627A8FFF757FA017886
:1053100030463031FEF7FDFE214627A8FFF74EFA52
:105320000134282C0760EBD103F0D4FA02F0F9FA2B
:1053300007A8FFF797F91EA8FFF7B2F90135D5E5E1
:1053400041F2883001F084F803F076F92BB0BDEC1F
:10535000068BBDE8F04F02F05EBC00BF10B50446FE
:1053600003F09CF8204610BD38B50446154602F0FF
:105370004BFC0549204602F047FC29462046BDE883
:10538000384002F054BC00BF2DBB0B0038B50546B9
:10539000144602F039FC0B49284602F035FC002C7B
:1053A0000DDA2D21284602F033FC614228460A22FC
:1053B00002F047FC2846BDE8384002F02CBC2146EC
:1053C000F4E700BF2DBB0B002DE9F04F0E4691B066
:1053D00098464FF0FF331360044600213046DDF855
:1053E0006890174602F00AFDD6F838E0034698B9EF
:1053F000BEF1000F14BF72465022316892B22046AF
:1054000002F04CFE051E18BF0125C5B9204611B09B
:10541000BDE8F04F02F0F8BF764B0A9306F1140C8A
:10542000BCE80F000BAD0FC5DCF800302B701FFA85
:105430008EF200230AA9204602F010FFE2E7494657
:10544000204602F0E1FB6C49204602F0DDFBB16A28
:10545000204602F0D9FB6949204602F0D5FB684995
:10546000684A2046FFF780FF0021304602F0C6FC64
:1054700020B9326864492046FFF776FF06F13C0AFE
:105480000021504602F0BAFC28B9726C5F492046F0
:10549000FFF77CFF06E05E49484604F013FB024636
:1054A0000028F3D0B8F1000F0ED0D8F8001059B191
:1054B000D8F80420204622B1FFF756FF08F108086B
:1054C000F3E702F0B4FBF9E7204602F0A4FB204624
:1054D00002F044FD0021504602F090FC18B9F16B37
:1054E000204602F0A4FB04F11C0A4FF420520021D4
:1054F000504604F0B0FA00F097FD019000F094FDE2
:105500004FF00008464641F2883B204602F022FF59
:10551000E8B1204602F008FD814600F085FD42F228
:10552000FE739E42019004D8A31983F81C900136A3
:10553000EBE742F2FF739E42F9D104F500530022DB
:1055400083F81B28204602F05FFFA846EFE7A31967
:10555000187700F069FD019BA0EB0309B8F1000F7B
:1055600004D1D94502D8C82000F072FF204602F0CD
:1055700013FE20B1D94502D8B8F1000FC5D020469E
:1055800002F042FF514602A802F0CBFB0C23092295
:1055900002A906A802F056FC1E490AA802F0C1FBA7
:1055A0000AA902A802F04BFC04460AA802F06EFB0E
:1055B000631C08D106A802F069FB02A802F066FB92
:1055C00011B0BDE8F08F3D1D1349284602F0BDFB28
:1055D000221D02A90AA802F055FC0AA9284602F0D9
:1055E000F0FB0AA802F052FB069804F0F4F93860C8
:1055F000E0E700BF74C00B0083C20B00B8BD0B0016
:10560000CABD0B00C4BD0B00D5BD0B00DABD0B003D
:10561000E9BD0B00EEBD0B00F2BD0B00704710B5ED
:105620000C210446FEF73BFD204610BD10B5054B8E
:105630000360037C04461BB9406808B100F0C8FE53
:10564000204610BD00BE0B0010B50446FFF7EEFF6C
:1056500020461421FEF723FD204610BD10B5074B50
:105660000360037C04461BB9406908B100F0B0FE3A
:105670002046FFF7DBFF204610BD00BF10BE0B0029
:1056800010B50446FFF7EAFF20462C21FEF707FD80
:10569000204610BD38B5037C04460D460BB10020F2
:1056A00038BD406838B100F09BFE0028F7D0C4E94F
:1056B00001050120F4E7084600F082FEF5E770B529
:1056C000C3680E461546D1184268044672B1826816
:1056D0008A420BD36068E3682A463146184404F0D6
:1056E00092F9E2682A44E260012070BD2046FFF78B
:1056F000D1FF0028EED1F8E743680021C16023B153
:10570000826812B1184604F0A6B9704710B5C0E916
:1057100001120022C260012202744361024A029B0C
:105720000260C36110BD00BF10BE0B00D1E90523AC
:105730009A42044B38BF8260C0E9003124BF002385
:105740008360704720BE0B0070B513689D681368B6
:1057500003F1100414608669B4420AD29B698C6814
:10576000A34201DAAB42F2DDA342CCBF002001200C
:1057700000E0002070BD2DE9F341089D984601F13D
:10578000100304461746019300260198A36983423B
:105790001AD982688B689A4216DAAE420BD1386009
:1057A00001AA2046FFF7D0FF28B1019BC8F80030BE
:1057B00002B0BDE8F08101AA2046FFF7C5FF2046F0
:1057C0000136FFF7C1FFE0E70020F1E7F7B51F461C
:1057D00001F110030446164601930025019BA269BE
:1057E0009A420FD998688A6890420BDAB54203D181
:1057F0003B60012003B0F0BD01AA20460135FFF750
:10580000A3FFEBE70020F5E773B50D4689680A4E64
:10581000044661B1686801ABFFF7D8FF38B16B6827
:10582000C4E90063019BA360204602B070BD6B68B1
:10583000C4E900630023F6E720BE0B0010B5044660
:1058400000680B4628B102F0C0FAE3680133E36058
:1058500010BD60680028F8D0D4E90221013A8A42DC
:1058600088BF4354F1E703467F2B37B50846D9B2CA
:1058700004D803B0BDE83040FFF7E0BF01F03F01BE
:10588000B3F5006FC3F3871541F0800407D245F0EC
:10589000C0010190FFF7D2FF01982146E9E71B0BF9
:1058A00043F0E0010190FFF7C9FF05F03F010198C7
:1058B00041F08001EEE700002DE9FF4700244E682B
:1058C000DFF8CCA080460F461546A146B868B04226
:1058D0005ADDD8F80430995D9A19002C4BD07529FF
:1058E00005D86D2907D862291ED066291ED0284602
:1058F000FFF7A4FF3DE0A1F16E04072CF7D80FF2EB
:10590000080C5CF824F000BF31590B00EF580B0075
:10591000EF580B00EF580B0035590B00EF580B00F8
:1059200039590B003D590B000821E0E70C21DEE757
:105930000A21DCE70D21DAE70921D8E7311D884289
:1059400017DD02A904333344084612F8014F01F869
:10595000014B9A42F9D101AA51468DF80C9000F002
:1059600047FD012805D1BDF804002946FFF77BFF5C
:105970000536002404E05C2904D02846FFF75EFFCA
:105980000136A3E70124FBE7012004B0BDE8F0875E
:10599000F3BD0B007FB50C4606460C491046154674
:1059A00002F0D3F9D4E90131C91A0131284602F0D5
:1059B0008BF900236A4621463046CDE90133009534
:1059C0000393FFF779FF04B070BD00BFF2BD0B0079
:1059D0002DE9F04389B00546884604A812491646C9
:1059E000994602F09EF9002700974B4603AA4146CC
:1059F0002846FFF7C0FE044670B1039904AA284662
:105A0000FFF7C8FF044608B90137EDE7314604A89F
:105A100002F0F4F90028F7D004A802F037F9204684
:105A200009B0BDE8F08300BFF2BD0B0073B50D46B1
:105A300089680A4E044661B1686801ABFFF7C8FF88
:105A400038B16B68C4E90063019BA360204602B0D3
:105A500070BD6B68C4E900630023F6E720BE0B004D
:105A600038B50D460549044602F05BF9A96819B13D
:105A700068682246FFF78EFF204638BDF2BD0B0056
:105A80002DE9F04F44684FF0010C4FF0FF36D0F88D
:105A900000E0964580F0B98111F80E80B8F1000F52
:105AA00000F0B381B8F13A0F00F0988033D8B8F124
:105AB000220F00F0A68010D8A8F109085FFA88F834
:105AC000B8F1170F0DD89F4D0CFA08F818EA050F1A
:105AD00007D0056801350560D9E7B8F12C0F00F053
:105AE0003381D0F8008042450ED911F808505DB1DD
:105AF0003A2D00F269811F2D00F251810A2D00F22A
:105B00006081082D40F25681002B40F0628108F13F
:105B1000FF350560A5E0B8F17B0F37D02ED8B8F17E
:105B20005B0F33D0B8F15D0FDBD1002BD1D04FF03C
:105B300002094568013D03EB0518002D55DBD8F837
:105B4000047001374DD0D8F808A0BAF1FF3F48D112
:105B500098F800B0CB454BD10EF1010EC0F808A06B
:105B6000C8F808E003EB051EDEF80470013742D0E8
:105B7000DEF8087001373ED18560AAE7B8F17D0FE5
:105B8000AFD1002BA5D04FF00109D2E70134002B93
:105B90009FD04568099FAF424AD905F1010EC0F870
:105BA00004E003EB051ECEE901664FEA051A002565
:105BB000CEF80C5085686F1C1FBF03EB0519D9F890
:105BC0000C500135C9F80C50B8F17B0F0CBF012502
:105BD000022503F80A500568CEF804504568013DD7
:105BE000CAE7013DA8F11008A7E701357FF471AFBE
:105BF0006FF001041EE0013D6F1CAEF1100EB3D139
:105C000067E70EF10109C0F80090D0F80080424526
:105C100040F2938011F80850002D00F08E80222D64
:105C200030D1F3B14568099FAF4206D8C0F800E013
:105C30004FF0FF342046BDE8F08F05F1010E4FEA2A
:105C4000051803EB0515C0F804E0C5E90166002757
:105C5000EF60D0F800E04FF0030A03F808A0C5E9B0
:105C6000019E85686F1C04F101043FF432AF002BE4
:105C70003FF42FAF03EB051EDEF80C500135CEF8D4
:105C80000C5026E75C2D11D108F10105AA420DD96F
:105C900005604D5D752D2BD86D2D0BD8662D27D841
:105CA0005B2D1DD8222D01D02F2D21D10568013566
:105CB0000560AAE76E3D072D1AD801A757F825F011
:105CC000AD5C0B00F15C0B00F15C0B00F15C0B00B8
:105CD000AD5C0B00F15C0B00AD5C0B00F75C0B00E6
:105CE0005C3DEDB20CFA05F540F241473D42DDD195
:105CF000C0F800E07CE708F1020505604FF0040AF7
:105D0000D0F80080424503D80568013D0560CDE725
:105D100011F80850002DF7D0A5F1300BBBF1090F99
:105D200004D925F02005413D052DE1D808F10105F4
:105D3000BAF1010A0560E3D1E6E7C0F800E06FF0D0
:105D4000020477E713008000002B3FF4C2AE8568A1
:105D50006F1C3FF4BEAE2D015D5D013D012D7FF650
:105D6000B8AE456805F1FF3803EB051EB8F1000F2A
:105D7000FFF6AFAE1EF8105C013D012D0AD85EF8AB
:105D80000C5C013506D05EF8085C013502D1C0F824
:105D900008809EE608F1FF38AEF1100EE6E7A5F1A7
:105DA0002009244F5FFA89F90CFA09F919EA070F5B
:105DB0007FF4AAAE203D5E2D9AD808F1010505605A
:105DC0008FE60D2DF6D19FE605F0DF09B9F15D0FE5
:105DD000F8E74568099FAF427FF628AF05F1010853
:105DE0004FEA051903EB0515C0F80480C5E9016603
:105DF0000027EF60D0F800804FF0040A03F809A0F4
:105E0000C5E901E80568013D83E6002B3FF412AFC8
:105E10004268511E03EB02130029FFF60BAF53F843
:105E20000C2C013203D053F8082C013287D00139F1
:105E3000103BF1E701100004F7B5C268044612B93F
:105E4000002003B0F0BD436900F12006ABB1002192
:105E5000C0E908114FF0FF318162C16900914168CA
:105E60003046FFF70DFE431C28D1257C002DE7D1DD
:105E7000606900F0ADFA6561E56100254FF0FF371C
:105E8000C4E90855E2686168A76200952B46304670
:105E9000FFF7F6FD0028D3DBE06117D0000100F02A
:105EA0008FFAE269606103460092C4E90855E2682E
:105EB0006168A7623046FFF7E3FD01E00028BFDB21
:105EC000636903EB0010A0610120BAE76369A36175
:105ED000FAE7000008B500F0AFF8014B186008BD04
:105EE000B4E6032008B5024B1B689B68019308BD0C
:105EF0007802030008B5024B1B681B6D019308BDB7
:105F00007802030008B5024B1B689B6D019308BD26
:105F10007802030008B5024B1B681B6E019308BD95
:105F20007802030008B5034B1B68D3F8983001933F
:105F300008BD00007802030008B5034B1B68D3F8C6
:105F4000A830019308BD00007802030008B5034B98
:105F50001B68D3F8B430019308BD00007802030039
:105F600008B5034B1B68D3F8D830019308BD000077
:105F70007802030008B5034B1B68D3F8DC300193AB
:105F800008BD00007802030008B5034B1B68D3F876
:105F9000EC30019308BD00007802030008B5034B04
:105FA0001B68D3F8F030019308BD000078020300AD
:105FB00008B5034B1B68D3F80031019308BD0000FE
:105FC0007802030008B5034B1B68D3F80431019332
:105FD00008BD00007802030008B5024B1B685B6C2B
:105FE000019308BD4802030008B5024B1B68DB6C37
:105FF000019308BD4802030008B5024B1B685B6DA6
:10600000019308BD4802030008B5024B1B685B689A
:10601000019308BD1802030008B5024B1B68DB683A
:10602000019308BD1802030008B5024B1B685B69A9
:10603000019308BD1802030008B5024B1B681B68DA
:10604000019308BD2C02030008B5024B1B68DB68F6
:10605000019308BD2802030008B5024B1B689B6929
:10606000019308BD2802030008B5024B1B68DB69D9
:10607000019308BD2802030008B5024B1B681B6A88
:10608000019308BD2802030008B5024B1B685B6A38
:10609000019308BD2802030008B5024B1B689B6AE8
:1060A000019308BD2802030008B5024B1B68DB6A98
:1060B000019308BD2802030008B5024B1B681B6B47
:1060C000019308BD2802030008B5024B1B681B6C36
:1060D000019308BD2802030008B5024B1B681B6D25
:1060E000019308BD2802030008B5024B1B685B69D9
:1060F000019308BD6C02030008B5024B1B685B6985
:10610000019308BD6402030008B5024B1B681B6ABB
:10611000019308BD6402030008B5024B1B689B6A2B
:10612000019308BD6402030008B5024B1B689B681D
:10613000019308BD6802030008B5024B1B68DB68C9
:10614000019308BD6802030008B5024B1B689B69F8
:10615000019308BD3802030008B5024B1B68DB69D8
:10616000019308BD3802030008B5024B1B681B6A87
:10617000019308BD3802030008B5024B1B689B6AF7
:10618000019308BD3802030008B5024B1B681B6B66
:10619000019308BD3802030008B5024B1B689B6BD6
:1061A000019308BD3802030008B5024B1B68DB6889
:1061B000019308BD3C02030008B5024B1B681B6934
:1061C000019308BD3C02030008B5024B1B685B69E4
:1061D000019308BD3C02030008B5024B1B689B6994
:1061E000019308BD3C02030008B5024B1B68DB6944
:1061F000019308BD3C02030008B5024B1B689B6A73
:10620000019308BD3C02030008B5024B1B681B6CE0
:10621000019308BD3C02030008B5024B1B681B68D4
:10622000019308BD4C02030008B5024B1B685B6874
:10623000019308BD4C02030008B5024B1B681B69A3
:10624000019308BD4C02030008B5024B1B685B6953
:10625000019308BD4C02030008B5024B1B689B6903
:10626000019308BD4C02030008B5024B1B68DB69B3
:10627000019308BD4C02030008B5024B1B681B6A62
:10628000019308BD4C02030008B5024B1B685B6B11
:10629000019308BD6002030008B5024B1B681B6D2B
:1062A000019308BD6002030008B5024B1B685B68E0
:1062B000019308BD2002030008B5024B1B685B690F
:1062C000019308BD2002030008B5034B1B68D3F8F7
:1062D0008830019308BD00002002030008B5034B7D
:1062E0001B68D3F89430019308BD0000200203001E
:1062F00008B5024B1B68DB6B019308BD4402030029
:1063000008B5024B1B685B68019308BD400203009F
:1063100008B5024B1B689B68019308BD400203004F
:1063200008B5024B1B68DB68019308BD40020300FF
:1063300008B5024B1B681B69019308BD40020300AE
:1063400008B5024B1B685B69019308BD400203005E
:1063500008B5024B1B689B69019308BD400203000E
:1063600008B5024B1B68DB69019308BD40020300BE
:1063700008B5024B1B681B6A019308BD400203006D
:1063800008B5024B1B681B6B019308BD400203005C
:1063900008B5024B1B685B6B019308BD400203000C
:1063A00008B5024B1B681B6C019308BD400203003B
:1063B00008B5024B1B685B6C019308BD40020300EB
:1063C00008B5024B1B681B68019308BD1C02030043
:1063D00008B5024B1B685B68019308BD1C020300F3
:1063E00008B5024B1B689B68019308BD1C020300A3
:1063F00008B5024B1B685B69019308BD1C020300D2
:1064000008B5024B1B68DB6A019308BD1C02030040
:1064100008B5024B1B681B6B019308BD1C020300EF
:1064200008B5024B1B68DB6B019308BD1C0203001F
:1064300008B5024B1B681B6C019308BD1C020300CE
:1064400008B5024B1B685B6C019308BD1C0203007E
:106450000021FFF731BF7047704770477047000059
:10646000064B994210B500F10C0405D0084602F025
:10647000BFFA002808BF0024204610BDC8BF0B008B
:10648000064B994210B500F10C0405D0084602F005
:10649000AFFA002808BF0024204610BDC8BF0B007B
:1064A000064B994210B500F10C0405D0084602F0E5
:1064B0009FFA002808BF0024204610BDC8BF0B006B
:1064C00010B568210446FDF7EAFD204610BD10B561
:1064D00028210446FDF7E3FD204610BD10B530210C
:1064E0000446FDF7DCFD204610BD6821FDF7D7BD51
:1064F0002821FDF7D4BD3021FDF7D1BDF0B5002531
:10650000EC1C8C420DD86E1C445D875D974205D112
:106510002644B14205D31D60601CF0BD0134254402
:10652000EEE70020F9E70000024A03490A20FFF7DE
:10653000ABBE00BF19600B0028BE0B0030B40D4687
:1065400011461A46036809682868D3E90043A4463F
:1065500030BC6047012A38B5044602D10B6823607D
:1065600003E0022A03D0032A0DD0002038BD082002
:106570000D68FDF790FD03460028F0D095E8030074
:1065800083E80300EBE700680028EED00821FDF760
:1065900086FDEAE710B58368044613B1032201467D
:1065A0009847204610BD10B504465830FFF7F2FF5B
:1065B00004F14800BDE8104001F068BB10B5436825
:1065C000013B0446436063B903689B689847A3682E
:1065D000013BA3602BB923682046DB68BDE810406F
:1065E000184710BDA0F13003DAB2092A01D81846C5
:1065F0007047A0F16103052B01D857387047A0F10F
:106600004103052B94BF37384FF0FF30704700002F
:1066100010B500230370044B04461868FFF7E4FC30
:1066200001232370204610BDC0E6032010B5037877
:1066300004461BB1024B1868FFF7DEFC204610BD74
:10664000C0E6032082B00346086849686A4603C270
:106650006A4603CA18601846596002B0704708B508
:1066600082798B799A4206D1062203F0BCF9B0FAFE
:1066700080F0400908BD0020FCE74FF0FF330360C5
:1066800083800020704708B5024600210160416008
:10669000FFF7F3FF9171104608BD000010B501230C
:1066A0000361054B024603F1100153F8044B42F815
:1066B000044B8B42F9D110BDD6BF0B0010B50B4671
:1066C0000446B1B1012A01F110020AD1014653F882
:1066D000040B41F8040B9342F9D1012323612046B6
:1066E00010BD411E12F8010D01F8010F9A42F9D1B7
:1066F000F3E7102203F0AFF9F1E738B50446154689
:106700001A46FFF7DBFFA581204638BD08B50269B0
:1067100022B98089003818BF012008BD0249102223
:1067200003F061F9F6E700BFF6BF0B0000697047A0
:1067300038B50C4614220021054603F08CF9236974
:106740001BB9A3892B80284638BD01232B74214611
:106750002B4604F1100251F8040B43F8040B91424C
:10676000F9D1F0E780897047704708B502690B6975
:106770009A4206D1102203F036F9B0FA80F04009AF
:1067800008BD0020FCE7000001232DE9F34103616F
:10679000344B0C460646024603F1100153F8040B35
:1067A00042F8040B8B42F9D144B32421204603F074
:1067B000B7F904284FF0000523D1ADF8045001AF1C
:1067C000A51C063415F8020CFFF70CFFB0F1000809
:1067D00012DB15F8010CFFF705FF00280CDB023572
:1067E00040EA0810A54207F8010BEBD19DF80530EF
:1067F00033739DF8043073730023336102B0BDE836
:10680000F0814FF010082421204603F089F9A842B6
:1068100007D842460021304602B0BDE8F04103F0FF
:106820001AB9B8F1000FE9D0605DFFF7DBFE03068F
:1068300015D4000108F1FF38C7B206F8087024210A
:10684000204603F06DF90135A84208D9605DFFF7D5
:10685000C9FE40B20028A4BF384306F8080001353D
:10686000D1E700BFD6BF0B0013B504460191FFF777
:1068700015FF20460199FFF787FF204602B010BDA3
:1068800038B54FF6FF730025044643800E22294693
:1068900005700571063003F0DEF804F11400FFF70F
:1068A000FDFE04F12800FFF7F9FE044904F13C0065
:1068B00001F037FA6565204638BD00BFF2BD0B0018
:1068C00010B5D0E9063203EBC2029342184606D057
:1068D000046824888C4203F10803F6D110BD00201F
:1068E000FCE70000F0B5064685B01F460D460029BE
:1068F00050D0002A4ED004682378F42A28BFF4220E
:1069000043B32379980709D5A08903920023FFF7A1
:106910001DFB0028039A03DA05B0F0BD6FF0770085
:1069200034682379D90609D5012F07D0A08900231F
:10693000294605B0BDE8F040FFF73ABB9B06EBD512
:10694000022FE9D0A0890023294605B0BDE8F04018
:10695000FFF738BB60884FF6FF7188421CD0217961
:106960004E0701D5012F04D10B0709D46FF0770032
:10697000D2E7A189009313462A46FFF7FBFACBE73B
:10698000022FF3D00023A189009313462A46FFF774
:10699000E7FAC1E70248BFE76FF0D100BCE700BFEC
:1069A000F2FEFFFF37B50C460546F4212046019262
:1069B00003F0B6F8019B02462146284603B0BDE825
:1069C0003040FFF78FBF00002DE9F0410026066040
:1069D000074628200C46FDF75EFB051E05F10C0856
:1069E0000FD00123C5E90133084B2B604046FFF768
:1069F00055FE0FCC2E6285F8246046460FC62368EC
:106A00003360C7E900853846BDE8F08198BF0B00C8
:106A100070B50025056006463020FDF73CFB0446B6
:106A200088B10123C0E90133094B03604FF6FF73BE
:106A300083810E30FFF727FEC4E90655C4E90855E7
:106A4000C4E90A55A57574600C343460304670BDD5
:106A5000B4BF0B0037B50D46044601A8FFF7D8FDBB
:106A60002A68D2F802302360D2F80630636001A8A9
:106A7000FFF7DCFD204603B030BD30B5054687B0DA
:106A80000C4601A8FFF7C4FD2A68236812881B88FA
:106A90009A420DD1294602A8FFF7DCFF214604A83F
:106AA000FFF7D8FF04A902A8FFF7D9FD044600B9F3
:106AB000002401A8FFF7BAFD204607B030BD000052
:106AC00010B504466420FDF7E6FA68B10023C0E97A
:106AD0000033C0E90233C0E90433C0E9063303627E
:106AE000C362C363C364C365206020B90A4A0B490B
:106AF0000A20FFF7C9FB0020FFF7F4F920B1064A8E
:106B000007490A20FFF7C0FB216806480022FFF76B
:106B100045FA204610BD00BF19600B0028BE0B00CF
:106B200066BE0B00A9700B0010B50A4C2378BFF3AA
:106B30005B8FDB070CD42046FDF7B3FA40B1064863
:106B4000FFF7BEFF2046FDF7B1FA044802F03AFF16
:106B5000014810BDB8E60320C4E60320756D0B00A4
:106B600030B50368093B012B8DB004460D4611D8A2
:106B7000FFF7DAFFA1880068FFF7A2FE034658B9C5
:106B80002022CDE904200B4A00920B4904AA3220AE
:106B9000FFF782FB0DB030BD6A6D002AFAD0D4E950
:106BA000032105F14C00CDE90312AC6D04AA03A941
:106BB000A047EFE7A8BE0B003FBE0B0008B50020C2
:106BC000FFF790F900EAE07008BD19B90A460846D7
:106BD000FFF790B9D1E900010022F9E738B5141E9A
:106BE0004368054602DB62189A4200DD5C1A2A6897
:106BF000501801191A44521A02F013FF6A68121B46
:106C00006A6038BD37B50A4604460D4601ABD0E987
:106C10000001FFF773FC024638B101992046FFF7E7
:106C2000DDFF29462046FFF7EDFF03B030BD10B56C
:106C30000C4629B90A460846BDE81040FFF762B97C
:106C400001212046FFF7DEFFD4E900010022F3E72F
:106C500038B504461546FFF7B8FF00280ADB294679
:106C60002046FFF7E4FF002804DBBDE838400020A1
:106C7000FFF750B938BD000038B5002304468360E3
:106C800008200D46FDF707FA18B12B6803606B6802
:106C90004360034BE360034B2060A360204638BD94
:106CA0003D650B0055650B000B68036013B15A6816
:106CB00001325A60704710B551F8043B044640F861
:106CC000043BFFF7F1FF23680BB9FFF72DFC2046CB
:106CD00010BD10B551F8043B044640F8043BFFF7E3
:106CE000E3FF204610BD10B551F8043B044640F8C0
:106CF000043BFFF7D9FF204610BD10B504460068DD
:106D000008B1FFF75BFC204610BD10B50446043007
:106D1000FFF7F3FF204610BD70B5D0E900530446DD
:106D200005EBC306AE4204D0281DFFF7E6FF083589
:106D3000F8E72068FFF74CFB204670BD70B5D0E93E
:106D40000053044605EBC306AE4204D0281DFFF7EE
:106D5000D4FF0835F8E72068FFF73AFB204670BDFE
:106D600010B504462430FFF7E9FF04F11800FFF7DF
:106D7000D3FF10BD70B5174B1C6854B304F1540019
:106D8000FFF708FC04F14400FFF704FC04F13400B1
:106D9000FFF700FC04F12400FFF7FCFBD4E90653E5
:106DA00005EBC306AE4204D0281DFFF7A6FF083549
:106DB000F8E7A069FFF70CFB04F10C00FFF7BEFF3A
:106DC0002046FFF7A9FF20466421BDE87040FDF78B
:106DD00066B970BDC4E6032013B50023D1E90042B3
:106DE000C1E900330368009304604368426001A86E
:106DF0000193FFF782FF02B010BD826810B50AB997
:106E000001F0F3FDBDE81040C368184738B50D1E0A
:106E10000446006803DDFFF7E3FA18B938BDFFF751
:106E2000D7FA00202060A5600120F7E708B5836845
:106E30008B4202DAFFF7EAFF08BD0120FCE72DE9EB
:106E4000F0410F4641681D46194483689942044643
:106E5000904612DC266862683E44D21B31467019A7
:106E600002F0DFFD2A464146304602F0CCFD636861
:106E70002B4463600120BDE8F081FFF7C7FF0028C5
:106E8000E8D1F8E7F8B50D46D0E901139942044678
:106E900016460BDA276862687919521B481C02F003
:106EA000C0FD7E55636801336360F8BD0131FFF7B3
:106EB000ADFF0028EED1F8E70A464168FFF7E2BFD0
:106EC0002DE9F74304461D460F4601AB90460A469E
:106ED000D0E900019DF82890FFF710FBAE1C636815
:106EE0000246B9F1000F26D128B333441B1AFF2BF9
:106EF00009D801992046FFF771FE616820463144A8
:106F0000FFF794FF18B9606803B0BDE8F0836A1C0E
:106F10000199D2B22046FFF7B5FF01993A460131F7
:106F20002046FFF7AFFF01992B464246023120462B
:106F3000FFF785FFE7E7F118FF29E4D82046FFF7C0
:106F400075FF0028DFD0691CC9B22046FFF7B4FFE7
:106F500039462046FFF7B0FF61682B464246E6E718
:106F600030B49DF808501AB1029530BCFFF7A8BFA5
:106F7000406830BC70471FB50023C0E90033836010
:106F80000622009301238DF80F2019460DF10F0200
:106F90000446FFF7E5FF204604B010BD8842F8B56F
:106FA00004460D46164614D9904213D2A2F10806A3
:106FB000751AA1F108072C44B74218D01CB131460C
:106FC0002046FFF790FE301DFFF797FE083E083C75
:106FD000F2E70CD0B5420AD01CB129462046FFF793
:106FE00082FE281DFFF789FE08350834F2E7F8BD58
:106FF000F7B5044646686846FFF775FED4E90173A5
:107000009F4212DB0137002F29DDF800FFF7D8F986
:107010000546F0B1D4E9001201EBC202FFF7BEFF52
:107020002068FFF7D5F92560A7602368626803EB45
:10703000C60603EBC202314606F10800FFF7AEFFB9
:107040001EB169463046FFF74EFE63680133636048
:10705000012501A8FFF751FE284603B0F0BD002529
:10706000DEE7F8B5D0E9004305460F4604EBC3065A
:10707000A64205D039462046FFF7FFFC08B114B9F7
:10708000F8BD0834F4E7201DFFF737FED5E90032DC
:1070900004F1080103EBC2022046FFF77FFF6B6893
:1070A000013B6B60ECE700002DE9F04105468EB036
:1070B00003A80C46FFF7ACFA2E68F31E0D2B3CD844
:1070C000DFE813F00E0053003B00D1003B003B0013
:1070D0003B003B003B009B009B009B009B009B00F8
:1070E00004A8FFF795FC049BAA891A806968049894
:1070F00008310230FFF7A6FA04A906A8FFF7F3FD4E
:1071000006A904F11800FFF773FF054607A8FFF76B
:10711000F4FD20230693B5B95D4B5E490093322000
:107120002B4606AA0795FFF7B7F8049B294618884F
:10713000FEF7F8FE05A8FFF7E0FD03A8FFF776FAD3
:107140000EB0BDE8F081544A0092002351490793E4
:1071500006AA0120FFF7A0F8E36A002BEAD004A9F1
:1071600004F12400FFF749FEE4E7A9892046FFF770
:10717000A7FB06460028E0D00568D5E906324FF6A1
:10718000FF71298003EBC2029A4203D053F8080B27
:107190004180F9E7D5E9037307EBC308B84504D08C
:1071A000381DFFF7AAFD0837F8E700232B61D5E962
:1071B000067307EBC308B84504D0381DFFF79DFDE3
:1071C0000837F8E70023EB61AB72E36B23B131467C
:1071D00004F13400FFF711FE00232022CDE906233D
:1071E0002E4A00922B4906AA0120FFF755F8314696
:1071F00004F11800FFF735FF9FE7A9892046FFF744
:107200005FFB002899D0E36C002B96D000230D2E55
:10721000ADF8163001D0102E17D1002369681A4638
:1072200006258DF8153004918DF814200690DDE9BF
:10723000040109AB8DF81C60089583E80300236DF9
:1072400006A904F14400984777E70F2E01BF2B7A77
:10725000696803F0010208250FBFC3F340031A4613
:1072600019461D46DDE7A9892046FFF729FB01469F
:1072700000283FF462AFE36D002B3FF45EAF6B6814
:10728000069306AA236E04F15400984755E700BF01
:10729000C0BE0B003FBE0B00E6BE0B0003BF0B00E1
:1072A00013B50B460246D0E900016C4684E80300A2
:1072B00093E8030082E8030094E8030083E80300F6
:1072C00002B010BD38B505460C46FFF7E9FFAB68C4
:1072D000A268AA60A360EB68E268EA60E36038BD78
:1072E00070B504468CB00E4601921D46FFF7C8FAF1
:1072F0002671019904F13C0000F027FD04F14C06D1
:10730000CDB1109B029502A904A80393FFF7B4FC2A
:10731000002308A904A80A93FFF7D4FF314608A860
:10732000FFF7D0FF08A8FFF735F904A8FFF732F9F7
:1073300020460CB070BD0695EAE700002DE9F04F3D
:1073400087B01D46DDE9104380468B469246129970
:1073500003930022682002910492FCF79CFE061E13
:1073600006F10C0918D001223746C6E9012202991C
:10737000154A47F8202B039B00915A465146484630
:10738000FFF7AEFF0FCD0FC72B683B600FCC06F1A8
:1073900034050FC523682B6004A94046CDE9049647
:1073A000FFF71AFD05A8FFF7A8FCD8F800303BB995
:1073B000064A07490A2007B0BDE8F04FFEF764BF50
:1073C00007B0BDE8F08F00BF7CBF0B0019600B0059
:1073D00028BE0B008842F8B504460D46164614D95F
:1073E000904213D2A2F10806751AA1F108072C44A5
:1073F000B74218D01CB131462046FFF76AFC301D59
:10740000FFF77BFC083E083CF2E70CD0B5420AD0FF
:107410001CB129462046FFF75CFC281DFFF76DFCD8
:1074200008350834F2E7F8BD70B50E1E054611DDCB
:10743000F000FEF7C5FF044658B1D5E9001201EB94
:10744000C202FFF7C7FF2868FEF7C2FF2C60AE60DC
:10745000012070BD0024F6E773B504464568684610
:10746000FFF737FCD4E90113994210DA2368626808
:1074700003EBC50503EBC202294605F10800FFF73F
:10748000A9FF8DB9636801336360012606E001310D
:107490002046FFF7C9FF06460028E7D101A8FFF7FD
:1074A0002CFC304602B070BD69462846FFF711FC3F
:1074B000E8E78842F8B504460D46164614D99042CE
:1074C00013D2A2F10806751AA1F108072C44B7429D
:1074D00018D01CB131462046FFF7EDFB301DFFF7F9
:1074E0000CFC083E083CF2E70CD0B5420AD01CB1B7
:1074F00029462046FFF7DFFB281DFFF7FEFB083576
:107500000834F2E7F8BD70B50E1E054611DDF00037
:10751000FEF756FF044658B1D5E9001201EBC2024E
:10752000FFF7C7FF2868FEF753FF2C60AE6001200D
:1075300070BD0024F6E773B5044645686846FFF75A
:10754000BAFBD4E90113994210DA2368626803EBAD
:10755000C50503EBC202294605F10800FFF7A9FFA4
:107560008DB9636801336360012606E0013120466E
:10757000FFF7C9FF06460028E7D101A8FFF7BDFBCA
:10758000304602B070BD69462846FFF794FBE8E735
:107590002DE9F04F1746A1B080460AA80E46FFF726
:1075A00037F83C68237953B939464046FFF783FBE7
:1075B0000AA8FFF73BF8404621B0BDE8F08F3368DA
:1075C000D3E9035305EBC303039304F1280A04F141
:1075D000140B039B9D4221D0D5F80090584609F129
:1075E0001401FFF7C2F8B8B109F128015046FFF7BE
:1075F000BCF888B12368D9F80020534033F47F43A6
:107600000AD12022CDE915235E4A009215AA5E49CF
:107610003220FEF741FEC7E70835DAE75046FFF7AC
:1076200075F860B95949012215A815ADFFF746F85C
:107630000FCDD446ACE80F002B68CCF8003033688F
:10764000D3E9005305EBC30B5D45A94651466ED007
:1076500055F8080BFFF789F80028F5D004F1140A53
:107660005046FFF753F888B9494B48491A88013208
:1076700092B21A8015A8012315ADFFF73EF80FCD81
:10768000D446ACE80F002B68CCF80030414B159382
:107690002822002116A802F0DEF9514604A8FFF7BF
:1076A00047F804AB18AA0DF1200C18685968154664
:1076B00003C5083363452A46F7D118682860237943
:1076C0008DF85830D9F800309B8AADF87430E36BF0
:1076D0001793314B0022A11D15A8CDE91E34FEF7EA
:1076E00053FC00287FF460AF0123237034683946CF
:1076F0000C340DA8FFF7DFFA20460DA9FFF71BFF9A
:1077000004460EA8FFF7F9FA002C7FF44DAF2023B2
:10771000CDE90D34214B00930DAA234677E7394676
:107720004046FFF7C8FA0CA8FFF7E7FA40E70BA8B6
:10773000FFF74AF9514615A8FEF7FAFF0B9A002306
:10774000143215A90120FEF7F7FB0028E7D13568B0
:107750000BA90DA8FFF7BDFA28460DA9FFF77CFE7F
:1077600005460EA8FFF7C9FA002DD8D03268536835
:10777000126803F10053013B0CA802EBC309FFF7A9
:10778000BCFA6BE722BF0B003FBE0B00E6BF0B004D
:10779000BCE6032003002C00616B0B004DBF0B0007
:1077A000024800230360FEF717BC00BFC0E60320B9
:1077B000002240681146FEF7DBBD002240681146FA
:1077C000FEF7E6BD40680022FEF7DABD4068002201
:1077D00081F00101FEF7C4BD002340681A46194636
:1077E000FEF7B6BD002340681A461946FEF7A8BD4D
:1077F000002240681146FEF79BBD002240681146FA
:10780000FEF786BD406800220221FEF789BD0023F5
:1078100040681A46FEF774BD024B03225A60024AC2
:107820001A607047C8E6032010C00B007047F8B517
:10783000064615460C468F18BC4206D0336814F82D
:10784000011B9B6830469847F6E72846F8BD007C48
:107850000022FEF711BC007C0021FEF715BC007C65
:107860000021FEF719BC007C0021FEF71DBC007C46
:107870000021FEF721BC10B514210446FCF70FFCD3
:10788000204610BD10B54FF47A7304460846002117
:10789000C4E90113034B236020741146FEF714FC66
:1078A000204610BD4CC00B000023007C1A46194630
:1078B000FEF7CABB7FB500221423CDE90122ADF843
:1078C00004300B788DF808304B680393CB68049331
:1078D000007C0B7A059301A9FEF7FEFB07B05DF86B
:1078E00004FB1FB5003B8DF800104FF064010391BD
:1078F00018BF0123694601928DF80830FFF7DAFFBF
:1079000005B05DF804FB0123FFF7EBBF007C00220C
:10791000FEF7A2BBC9B2FFF7F9BF007C0022FEF759
:10792000A3BB0121FFF7F9BF704710B5182104462A
:10793000FCF7B5FB204610BDF0B5037D062B8DB0DE
:107940000E4600F104074FF0000412D000F10805C4
:1079500015F8011D0A22304600F073F9AF420444C5
:1079600019D0002CF4D02E21304600F051F90444F7
:10797000EEE72F236A4639460A208DF80040FEF7CD
:10798000BBFB684602F0B0F833680246DB68694624
:1079900030469847044620460DB0F0BD10B5054B63
:1079A0000446112240F8043B002102F054F820461E
:1079B00010BD00BF74C00B000346074A10B543F862
:1079C000042B01F1100251F8044B43F8044B91428F
:1079D000F9D10A781A7010BD74C00B00037D042B16
:1079E00004D14068003818BF01207047062B07D12A
:1079F00043683BB983682BB9C3681BB90069F1E7D9
:107A0000002070470120704710B59DF8084044EAF7
:107A1000032343EA024242EA016104234160037501
:107A200010BD000007B5064B0360CB7800938B7840
:107A30004A780978FFF7E8FF03B05DF804FB00BF60
:107A400074C00B00014B024A1A607047D0E6032055
:107A500080C00B00002340681A46FEF751BC406806
:107A600000220221FEF75CBC002240681146FEF7AE
:107A70004FBC002240681146FEF75ABC0023406804
:107A80001A461946FEF75CBC002340681A461946A0
:107A9000FEF75EBC40680021FEF782BC4068002112
:107AA000FEF786BC4068002281F00101FEF758BC59
:107AB00040680022FEF764BC002240681146FEF7D1
:107AC00067BC002240681146FEF752BC2DE9F04326
:107AD00095B014460D460746FFF760FF00211C22B3
:107AE0000DA8009101F0B7FF40230C9320466B4690
:107AF0000CAA0021FEF720FB044600284BD10246C9
:107B000001216868FEF714FC02218046224668685D
:107B1000FEF70EFC009E81462146002E3BD0002938
:107B200039D17368022B03D00A2B11D0F669F4E720
:107B3000B8F1000FFAD0716906A8043107ADFFF75C
:107B400071FF0FCD3C1D0FC42B6823704146EDE73C
:107B5000B9F1000FEAD07469102201A801F07BFF8F
:107B600006238DF8143001AD04F1080318341868A9
:107B700059682A4603C20833A3421546F7D101A922
:107B800006A807ADFFF718FF0FCD3C1D0FC42B68EB
:107B900023704946CAE70098FEF7C6FA384615B082
:107BA000BDE8F083024B034A1A6000225A60704716
:107BB000D4E603208CC00B00F8B506460D468F189E
:107BC0000024BD420CD0336815F8011B9B68304679
:107BD0009847031E01DB1C44F3E7002C08BF1C463A
:107BE0002046F8BD13B50446084659B1019101F08D
:107BF0007BFF23680199DB680246204602B0BDE89E
:107C00001040184702B010BD08B5FFF7EBFF08BDE4
:107C100003689B68184738B50D210546FFF7F8FF44
:107C20000A2104462846FFF7F3FF204438BD38B543
:107C30000546FFF7D7FF04462846FFF7ECFF204430
:107C400038BD30B58BB00023012A8DF8243098BFA1
:107C50000A2209AC0D46B1FBF2F101FB125303F00D
:107C6000FF03092B94BF30333733DBB2AA4204F849
:107C7000013DEFD92146FFF7B5FF0BB030BD000045
:107C8000014B00229A607047DCE6032010B50446E1
:107C90000068FEF79DFB204610BD10B50446006845
:107CA00008B1FEF795FB0023C4E90133236010BD42
:107CB00038B504460D4600680131FEF791FB10B15E
:107CC000C4E90005012038BD10B50368044623B19E
:107CD00043688B4201D3012010BD2046FFF7E8FF27
:107CE0000028F9D0A368002BF5D122681370F2E7C1
:107CF00037B50D46114601920446FFF7E5FF019A9C
:107D000028B92046FFF7C9FF204603B030BDA26066
:107D10002946206801F077FE2268A3680021D1542B
:107D2000F2E7002313B5C0E9003304468360037310
:107D300041B10846019101F0D7FE01990246204663
:107D4000FFF7D6FF204602B010BD13B5044659B167
:107D50000846019101F0C8FE019902462046FFF74E
:107D6000C7FF204602B010BDFFF797FFF9E710B537
:107D700004468AB00023C4E90033A3602373084695
:107D800001A900F0F3FC01A92046FFF7DEFF204621
:107D90000AB010BD70B505460E4609B9002070BD89
:107DA0006AB1846814442146FFF78EFF0028F5D09D
:107DB0002868AB683146184401F08EFEAC600120A3
:107DC000EDE78A680968FFF7E5BF07B500238DF87E
:107DD0000410012201A98DF80530FFF7DBFF03B085
:107DE0005DF804FB10B58A6809680446FFF7D2FF06
:107DF00010B92046FFF751FF204610BD08B5826834
:107E00003AB921B10878B0FA80F0400900E00120C9
:107E100008BD006809B90078F5E701F053FEF2E704
:107E200010B58368934207D904680968A01801F067
:107E300083FE08B1001B10BD4FF0FF30FBE70022AE
:107E4000FFF7EEBFF8B59A420F461D460C4988BFB2
:107E500013461446064684BF2C461D46FFF761FFB5
:107E6000BB68A3420AD33968AB4294BFC4EB030298
:107E7000C4EB050221443046FFF73AFF3046F8BD17
:107E8000F2BD0B0010B504468B68FFF7DBFF204600
:107E900010BD006808B101F0A2BD704708B50068C8
:107EA00040B101F095FD51EC100B01F01DFD00EE0D
:107EB000100A08BD9FED010AFBE700BF00000000AB
:107EC000054B02221A60054B054A9A600020C3E95F
:107ED0000000FEF7E9B900BFF8E60320ECE6032056
:107EE0000000FFFF13B503688DF80710DC6B01225B
:107EF0004FF0FF330DF10701A04702B010BD10B4E1
:107F00000368DC6B4FF0FF33A4465DF8044B604719
:107F100013B5134602688DF80710D46B0DF10701F5
:107F20000122A04702B010BD10B54369B3F8862006
:107F3000B3F884309A42044608D06369B3F88420C9
:107F4000511CA3F884101344187910BD03681B69F1
:107F500098470028F1D14FF0FF30F6E770474369AA
:107F60001868C043C00F704770470000064B994225
:107F700010B500F10C0405D0084600F039FD0028CA
:107F800008BF0024204610BDC8BF0B0010B5AC21AF
:107F90000446FCF784F8204610BDAC21FCF77FB8FE
:107FA0002DE9F0414FF0000886B01C46C0F804806F
:107FB00005460E4617464146102202A801F04BFD29
:107FC000631C09D04FF47A73B4FBF3F203FB124441
:107FD000CDE902285C43049468691023009300688B
:107FE00002AB41F2050240F6FF71FEF7ADF8002842
:107FF00007DAFEF715FA03686B60002006B0BDE8EB
:10800000F0816869002300683A463146FEF7BCF803
:10801000031EEEDB1846F1E738B584690A4B0360AE
:1080200005467CB16368013B63605BB92368204609
:108030009B689847A368013BA3601BB9236820464F
:10804000DB689847284638BDFCC00B0010B50446D5
:10805000FFF7E2FF20461C21FCF721F8204610BD67
:1080600030B587B0044601AD6846FFF7DBFC0FCDA5
:1080700004340FC42B68237007B030BD70B54D6950
:10808000054B04468C3544F8043B06460FCD0FC41F
:108090002B682370304670BD74C00B002DE9F0438F
:1080A0009846036893B00D460024DB6A06461746DF
:1080B000984728466B46224621460094FEF73CF836
:1080C0000546002863D1009B002B4BD05B69002B39
:1080D00048D006A8FFF762FC009B5C696378022B1E
:1080E00004D1211D06A8FFF7BBFF26E00A2B24D1EF
:1080F0001122294601A801F0AEFCA368002B38D05C
:1081000004F108030DF1040C18341868596862462C
:1081100003C20833A3429446F7D1062301A90CA851
:108120008DF81430FFF748FC0DF1340CBCE80F005B
:1081300007AC0FC4DCF80030237006A8FFF74EFC34
:1081400080B1336807ADD3F82090124B0C930FCD5C
:108150000DAC0FC42B6823703A4643460CA9304639
:10816000C84705460098FDF7DFFF284613B0BDE875
:10817000F083E368002BC3D14FF6FF70D4F8109062
:10818000FDF7C2FF8145BBD104F11401AAE72546E2
:10819000E8E700BF74C00B0038B543691A68002ACD
:1081A000054610DAB3F88620B3F884309A420AD133
:1081B00003681B699847044628B92B682846DB6A80
:1081C0009847204638BD0120FCE710B54369B3F855
:1081D0008620B3F884309A42044605D06369B3F828
:1081E00084201344187910BD03681B699847002840
:1081F000F4D14FF0FF30F6E7F8B543691746B3F80E
:108200008620B3F884309A4205460E4616D0696936
:10821000B1F88430B1F88640E41ABC4228BF3C462D
:10822000043322461944304601F0EDFB6A69B2F886
:1082300084302344A2F884302046F8BD03681B69CB
:1082400098470028E3D14FF0FF34F5E74269002357
:10825000A2F884304269A2F8863070472DE9F041D7
:108260001F4603680C46DB6A8AB0054616469847E7
:10827000237DD5F81480042B0CBF02200A2006228F
:108280000121FDF789FFC8F800006B691B68002B0E
:1082900008DA2B682846DB6A0024984720460AB093
:1082A000BDE8F0812846FFF7D1FFB7B1002303A94D
:1082B000F8B20393ADF81030FDF716FF0028E8D1AF
:1082C000686906230093006803AB41F20B0240F695
:1082D000FF71FDF739FF0028DBD11C22002103A824
:1082E00001F0B9FB237D042B1DD14FF407733046F9
:1082F000ADF80C30FDF710FFADF80E006068FDF72B
:1083000003FF04906B691C22186803A9FDF72CFF7A
:108310000028BED104340FCC6D698C350FC523689D
:108320002B700124BAE740F61C233046ADF80C3020
:10833000FDF7F2FE05AEADF80E00231D04F11407A3
:1083400018685968324603C20833BB421646F7D153
:10835000D8E7000030B54269B2F886308BB00446E9
:108360002BB1B2F884209A4201D1FFF76FFF616907
:108370000868002818DBB1F886507F2D14D8043126
:108380000823C5F180022944FDF7F6FE002813DD1D
:108390006369B3F886200AB9A3F884206369B3F847
:1083A00086201044A3F886006369B3F88600B3F80A
:1083B0008430C01A0BB030BDFEF732F803680B2BC7
:1083C000F2D0FEF72DF803680B2BEDD0202300250B
:1083D000CDE90235FEF724F803680193084B0949FB
:1083E000009302AA2B463220FDF756FF63691868F6
:1083F000FDF7B2FE63694FF0FF321A60D4E700BFA9
:10840000C7C00B00C0C00B0010B543690446186814
:10841000002801DBFDF7A0FE63694FF0FF321A6010
:108420006069112200218C3001F015FB2046BDE867
:108430001040FFF70BBF10B5002304460160C0F8E1
:1084400084308830FFF7AAFA204610BD73B50023A8
:108450004FF47A72C0E901320E4A0361026043614F
:108460000446AC200191FBF716FE051E05F10C0633
:1084700008D00123C5E90133074B01992B60304631
:10848000FFF7D9FF2046C4E90565FFF7DFFE02B01C
:1084900070BD00BFFCC00B00E0C00B0010B54FF07A
:1084A000FF310446FFF7D2FF204610BD10B5044649
:1084B0000068002801DBFDF74FFE204610BD0C30A0
:1084C000FFF7F4BF024B1A68024B1A60704700BFF7
:1084D000CC550320FCE6032070474174704708B573
:1084E000007CFDF789FE20EAE07008BD08B5007C3D
:1084F000FDF762FE20EAE07008BD08B5007CFDF7DC
:108500006BFE40EAE07008BD08B5007CFDF75CFE3C
:1085100040EAE07008BD007CFDF766BE37B5457CDB
:1085200004462DB1207C03B0BDE83040FDF73CBED1
:10853000007C0191FDF760FE00280199F2DC2846DD
:1085400003B030BD10B514210446FBF7A8FD20464A
:1085500010BD000010B54FF47A730446084611466A
:108560000022C4E90123044B2360012320746374B7
:10857000FDF74AFE204610BD64C10B0041747047F0
:108580007047704708B50021007CFDF765FE40EAA2
:10859000E07008BD08B50121007CFDF75DFE40EAF2
:1085A000E07008BD08B5007CFDF74EFE20EAE070E3
:1085B00008BD08B5007CFDF73FFE20EAE07008BD6D
:1085C00013B50446007C0191FDF73EFE0028019999
:1085D00001DC607C20B1207CFDF746FE20EAE070E3
:1085E00002B010BD007CFDF747BE10B51421044653
:1085F000FBF755FD204610BD10B54FF47A730446C5
:1086000008460021C4E90113044B236001232074B0
:1086100063741146FDF700FE204610BD94C10B00A7
:10862000007C0022FDF700BE10B514220446002194
:1086300001F011FA204610BD10B50F4C88B003A808
:10864000FFF7F2FF2178BFF35B8F11F001010FD12B
:1086500020460191FBF725FD019948B103AA07487F
:10866000FFF7CAFF2046FBF721FD054801F0AAF9F4
:10867000024808B010BD00BF00E7032004E7032054
:1086800081850B00002240681146FDF751BE002293
:1086900040681146FDF76CBE002240681146FDF7A8
:1086A00077BE40680022FDF76BBE4068002281F073
:1086B0000101FDF755BE002340681A461946FDF733
:1086C00047BE002340681A461946FDF739BE00220E
:1086D00040681146FDF71CBE406800220221FDF7EC
:1086E0001FBE002340681A46FDF70ABE024B042253
:1086F0005A60024A1A60704718E70320C4C10B0091
:1087000010B5044601F0F0F90138231820468342E1
:1087100006D90278197800F8011B03F80129F6E759
:1087200010BD70B50C46911E22291DD8254630B9C2
:10873000234430229D4210D205F8012BFAE7B0FB0A
:10874000F2F602FB1600C1B2092894BF303157314E
:10875000C9B205F8011B3046E9E7002320462B701B
:10876000FFF7CEFF204670BD0020FCE738B5031EA2
:108770000C4615460EDAB3F1004F4FF02D0214BF30
:108780005842184601230A702A461944FFF7C9FFC8
:10879000204638BD0123F9E7014B1860704700BF40
:1087A000D455032008B50B4B43B1FFF745FF0368D1
:1087B0001B699847002801DDAFF30080064B43B1E9
:1087C00000F0C8F803681B699847002801DDAFF383
:1087D000008008BD000000000000000008B5FFF7A1
:1087E000E1FFFDF721FC014B186008BD28E70320DD
:1087F0000548064A064908B5121A01F004F9054B66
:10880000054A1A6008BD00BF00F4032004F40320E9
:1088100064C70B0000F403201E1C279A07B5002331
:1088200000931A466FF07701FDF758FD03B05DF82D
:1088300004FB000007B543880A2B08D0502B0BD14E
:10884000094B1B684BB103B05DF804EB1847FFF709
:10885000E5FF03B05DF804FB002300931A466FF0B8
:108860007701FDF73BFDF4E724E7032010B512483C
:108870000021FDF7E5FD114B1A68114B9A42114B8F
:108880000CBF012200221A7001D0FFF7B1FFFDF7E3
:10889000BBFB044601F0E8F80B4B13B12046AFF3E5
:1088A000008000210848FDF723FDBDE8104007487F
:1088B0000021FDF709BD00BF99870B0000F40320DC
:1088C0001E1C279A20E703200000000035880B00BB
:1088D0007047000030B50E4D2978BFF35B8F11F063
:1088E000010487B011D12846FBF7DBFB68B101A872
:1088F000FBF72AFE01AA21460648FEF7C3FF2846D9
:10890000FBF7D4FB044801F05DF8024807B030BD26
:108910002CE7032030E70320D1880B0070470000CC
:1089200038B5044614252A46002101F094F8258024
:108930004025074925812846258200F02FF8044963
:108940006060284600F02AF8E060204638BD00BF8D
:10895000F8C10B0030B50E4D2978BFF35B8F11F0D5
:10896000010487B011D12846FBF79BFB68B101A831
:10897000FFF7D6FF01AA21460648FFF7EBFD284680
:10898000FBF794FB044801F01DF8024807B030BD26
:1089900044E7032048E703201D890B00FBF77DBB5C
:1089A00008B5FDF72DFD08B5FDF72AFD08B5FDF763
:1089B00027FD0FB480B584B000AF07F1180454F858
:1089C000042B7A60104601F08FF800F2072323F0A1
:1089D0000703ADEB030D00F500717A68FC602346D8
:1089E000684600F05DF8FDF70BFD08B5FDF708FDE2
:1089F000014900F08BB900BF14C20B0080B59CB0D8
:108A0000064600AF0C46A41B0E496922381D00F033
:108A1000FAFF04F1700323F00703ADEB030D6D467D
:108A20006822391D284600F0EEFF2246314605F146
:108A300068002C4400F0E7FF002384F868302846E3
:108A4000FFF7B1FF1CC20B002DE9F04100AF84B06D
:108A50006D4605F10C04DFF8448023464FF00A0C04
:108A6000B2FBFCF60CFB162E18F80EE003F801ED35
:108A70009646BEF1090F3246F2D8E41A8C4209D864
:108A8000C4F10C032246E91800F0BDFF2046BD46A4
:108A9000BDE8F0814FF0FF34F8E700BF85C20B005E
:108AA00001392DE9F0410746154600EB010804465F
:108AB0002A7892B344452AD2252A07D16A78732AA4
:108AC00009D07A2A12D0252A00D1013515F8012BB8
:108AD00004F8012BECE753F8042B013A12F8011FBC
:108AE000C9B1444513D004F8011BF7E7AA78752AE9
:108AF000ECD11E46A8EB040156F8042B2046FFF7E4
:108B0000A3FF002803DD044403353346D0E72146A4
:108B10003846FFF773FF0235CAE72270E01BBDE855
:108B2000F0817FB500241023CDE902340368154697
:108B30009E6912686B46CDE90044B0479DF8043049
:108B400003F00603062B03BF009B2B600120204689
:108B500004B070BD0098904214BF012006207047F9
:108B600010B5034B0360044600F0CDF8204610BD5D
:108B7000C8C20B0010B50446FFF7F2FF20460821DB
:108B8000FBF78DFA204610BD2DE9F0411F46DDE9C7
:108B90000834DDF8188098450646154607D1079930
:108BA00000F0B4F818B165710020BDE8F0813946D5
:108BB000304600F0ABF80028F6D00123C4F800805E
:108BC0002571A371F0E738B515461C4600F09EF8F4
:108BD00020B10823E36006232560237138BD73B5F7
:108BE00005460C4601921E4600F090F850B9032E3F
:108BF00008D82368019A5B692946204602B0BDE87F
:108C00007040184702B070BD10B5034B03600446B6
:108C1000FFF7A6FF204610BD28C30B0010B5044681
:108C2000FFF7F2FF20460C21FBF739FA204610BD72
:108C3000F7B5089F974205460E4614460AD0A86825
:108C400002680897156A31462246AC4603B0BDE873
:108C5000F04060471946019300F058F8019B002846
:108C6000EDD0062003B0F0BD2DE9F14F0D461946B9
:108C7000DDE90A4BDDE90CA681461746984600F06F
:108C800045F890B1002D3460377109DB61198A45D0
:108C90000CBF06210121B171002001B0BDE8F08FA9
:108CA0000235F9D10123B371F6E7544506D159468F
:108CB000484600F02BF808B17771EDE7D9F80800C5
:108CC0000368CDE90CA6CDE90A4BDC693A46434678
:108CD0002946A44601B0BDE8F04F60472DE9F041B8
:108CE00007460C4615461E46FFF76DFF48B9B868A3
:108CF00003689F692A4633462146BC46BDE8F041D9
:108D00006047BDE8F081704700207047814208B598
:108D10000ED0406803782A2B0CD049680B782A2B98
:108D200008BF013100F0CEFEB0FA80F0400908BD66
:108D30000120FCE70020FAE710EE102AC2F3C75327
:108D40007F3B162B22F0004128DC002B18DB1A4950
:108D500019410A4221D0DFED197A70EE277AF5EE3B
:108D6000C07AF1EE10FA18DD002A04DA4FF40000A0
:108D700040FA03F31A4422EA010300EE103A704766
:108D8000DFED0E7A70EE277AF5EEC07AF1EE10FA8A
:108D900003DD002A08DB9FED0A0A7047B1F1FF4F9F
:108DA000FBD330EE000A7047FFEE007A002918BFAF
:108DB000B0EE670A704700BFFFFF7F00CAF249713B
:108DC0000000000038B52DED028B55EC104B00F083
:108DD00033F8184BB0EE408AF0EE608A93F9003019
:108DE00001330DD022462B462046294600F046FD91
:108DF00030B9002200232046294600F017FD30B983
:108E0000B0EE480AF0EE680ABDEC028B38BDFDF703
:108E100007FB00220023212101601046194600F0C3
:108E2000BDFB41EC180BB0EE480AF0EE680ABDEC51
:108E3000028B38BDD05503202DE9F041634A55EC33
:108E4000104BAA4300F09F80002D10EE10CA2B4655
:108E500054DD291563D0C3F31303A1F2FF37C9070B
:108E600043F4801304D45B0003EBDC734FEA4C0C37
:108E70004FEADC72002602EB43037F104FEA4C0CF2
:108E80004FF0160E34464FF40012A118994202DC3E
:108E90005B1A8C1816445B00BEF1010E03EBDC7309
:108EA0004FEA52024FEA4C0CEFD1754620204FF0AA
:108EB00000420AE044D04FEADC71013801EB430381
:108EC0004FEA4C0C4FEA520243D0A34202EB0E0190
:108ED000F0DD002901EB020E0ADBA0461B1B6145F9
:108EE00088BF03F1FF33ACEB010C15444446E2E7C5
:108EF000BEF1000FF1DB04F10108EFE725F00042BD
:108F0000224338D0002D4ED129464FEADC221539B4
:108F100013464FEA4C5C002AF7D0D60250D400200A
:108F20005B00DD02044600F10100F9D51A466346F4
:108F30000CFA00FCC0F12000C340091B13438AE770
:108F40006145B8D8002901EB020ED1DB9846002319
:108F5000C9E753EA0C0310D168087110F30701F157
:108F60007F5101F5001148BF40F0004001EB07536D
:108F7000024643EC102BBDE8F0816A1C16BF681C4A
:108F800001364008E9E710EE102A10EE100A2B46D1
:108F9000294600F0D9F922462B4600F01FF841EC93
:108FA000100BBDE8F08110EE102A2046294600F093
:108FB00013F802460B4600F0F1FA41EC100BDAE729
:108FC000634620204FF0FF34B6E700BF0000F07F7B
:108FD00081F0004102E000BF83F0004330B54FEA6A
:108FE00041044FEA430594EA050F08BF90EA020FD7
:108FF0001FBF54EA000C55EA020C7FEA645C7FEA6A
:10900000655C00F0E2804FEA5454D4EB5555B8BF8C
:109010006D420CDD2C4480EA020281EA030382EAFD
:10902000000083EA010180EA020281EA0303362D8F
:1090300088BF30BD11F0004F4FEA01314FF4801C62
:109040004CEA113102D0404261EB410113F0004F74
:109050004FEA03334CEA133302D0524263EB43032B
:1090600094EA050F00F0A780A4F10104D5F1200EC9
:109070000DDB02FA0EFC22FA05F2801841F1000124
:1090800003FA0EF2801843FA05F359410EE0A5F1F8
:1090900020050EF1200E012A03FA0EFC28BF4CF029
:1090A000020C43FA05F3C01851EBE37101F00045DF
:1090B00007D54FF0000EDCF1000C7EEB00006EEBEC
:1090C0000101B1F5801F1BD3B1F5001F0CD3490876
:1090D0005FEA30004FEA3C0C04F101044FEA4452CD
:1090E00012F5800F80F09A80BCF1004F08BF5FEA54
:1090F000500C50F1000041EB045141EA050130BD34
:109100005FEA4C0C404141EB0101013C28BFB1F545
:10911000801FE9D291F0000F04BF01460020B1FA90
:1091200081F308BF2033A3F10B03B3F120020CDA63
:109130000C3208DD02F1140CC2F10C0201FA0CF041
:1091400021FA02F10CE002F11402D8BFC2F1200CA6
:1091500001FA02F120FA0CFCDCBF41EA0C0190405C
:10916000E41AA2BF01EB0451294330BD6FEA0404A5
:109170001F3C1CDA0C340EDC04F11404C4F1200290
:1091800020FA04F001FA02F340EA030021FA04F3A2
:1091900045EA030130BDC4F10C04C4F1200220FAF9
:1091A00002F001FA04F340EA0300294630BD21FA37
:1091B00004F0294630BD94F0000F83F4801306BFFD
:1091C00081F480110134013D4EE77FEA645C18BFF1
:1091D0007FEA655C29D094EA050F08BF90EA020F88
:1091E00005D054EA000C04BF1946104630BD91EA80
:1091F000030F1EBF0021002030BD5FEA545C05D183
:109200004000494128BF41F0004130BD14F58004C1
:109210003CBF01F5801130BD01F0004545F0FE4135
:1092200041F470014FF0000030BD7FEA645C1ABF6A
:10923000194610467FEA655C1CBF0B46024650EAA1
:10924000013406BF52EA033591EA030F41F40021CD
:1092500030BD00BF90F0000F04BF0021704730B553
:109260004FF4806404F132044FF000054FF0000128
:1092700050E700BF90F0000F04BF0021704730B5E9
:109280004FF4806404F1320410F0004548BF4042BE
:109290004FF000013EE700BF42004FEAE2014FEA13
:1092A00031014FEA02701FBF12F07F4393F07F4FEE
:1092B00081F06051704732F07F4208BF704793F0F1
:1092C0007F4F04BF41F40021704730B54FF4607404
:1092D00001F0004521F000411CE700BF50EA010207
:1092E00008BF704730B54FF000050AE050EA0102B0
:1092F00008BF704730B511F0004502D5404261EB20
:1093000041014FF4806404F132045FEA915C3FF460
:10931000D8AE4FF003025FEADC0C18BF03325FEAFD
:10932000DC0C18BF033202EBDC02C2F1200300FAAE
:1093300003FC20FA02F001FA03FE40EA0E0021FAD3
:1093400002F11444BDE600BF70B54FF0FF0C4CF4C1
:10935000E06C1CEA11541DBF1CEA135594EA0C0F73
:1093600095EA0C0F00F0DEF82C4481EA030621EAAE
:109370004C5123EA4C5350EA013518BF52EA0335E9
:1093800041F4801143F4801338D0A0FB02CE4FF09B
:109390000005E1FB02E506F00042E0FB03E54FF0CB
:1093A0000006E1FB03569CF0000F18BF4EF0010EC3
:1093B000A4F1FF04B6F5007F64F5407404D25FEABF
:1093C0004E0E6D4146EB060642EAC62141EA555172
:1093D0004FEAC52040EA5E504FEACE2EB4F1FD0CB4
:1093E00088BFBCF5E06F1ED8BEF1004F08BF5FEA32
:1093F000500E50F1000041EB045170BD06F00046E4
:1094000046EA010140EA020081EA0301B4EB5C0490
:10941000C2BFD4EB0C0541EA045170BD41F4801188
:109420004FF0000E013C00F3AB8014F1360FDEBFAD
:10943000002001F0004170BDC4F10004203C35DA89
:109440000C341BDC04F11404C4F1200500FA05F30C
:1094500020FA04F001FA05F240EA020001F00042AD
:1094600021F0004110EBD37021FA04F642EB060123
:109470005EEA430E08BF20EAD37070BDC4F10C044D
:10948000C4F1200500FA04F320FA05F001FA04F211
:1094900040EA020001F0004110EBD37041F10001FD
:1094A0005EEA430E08BF20EAD37070BDC4F1200508
:1094B00000FA05F24EEA020E20FA04F301FA05F270
:1094C00043EA020321FA04F001F0004121FA04F218
:1094D00020EA020000EBD3705EEA430E08BF20EAE8
:1094E000D37070BD94F0000F0FD101F00046400022
:1094F00041EB010111F4801F08BF013CF7D041EAA4
:10950000060195F0000F18BF704703F000465200A7
:1095100043EB030313F4801F08BF013DF7D043EA78
:109520000603704794EA0C0F0CEA135518BF95EA2E
:109530000C0F0CD050EA410618BF52EA4306D1D1B5
:1095400081EA030101F000414FF0000070BD50EAD4
:10955000410606BF1046194652EA430619D094EA5E
:109560000C0F02D150EA013613D195EA0C0F05D148
:1095700052EA03361CBF104619460AD181EA03019C
:1095800001F0004141F0FE4141F470014FF0000054
:1095900070BD41F0FE4141F4780170BD70B54FF0EF
:1095A000FF0C4CF4E06C1CEA11541DBF1CEA13556F
:1095B00094EA0C0F95EA0C0F00F0A7F8A4EB050451
:1095C00081EA030E52EA03354FEA013100F0888048
:1095D0004FEA03334FF0805545EA131343EA126311
:1095E0004FEA022245EA111545EA10654FEA0026C6
:1095F0000EF000419D4208BF964244F1FD0404F57F
:10960000407402D25B084FEA3202B61A65EB0305DA
:109610005B084FEA32024FF480104FF4002CB6EB97
:10962000020E75EB030E22BFB61A754640EA0C0017
:109630005B084FEA3202B6EB020E75EB030E22BF57
:10964000B61A754640EA5C005B084FEA3202B6EB98
:10965000020E75EB030E22BFB61A754640EA9C0057
:109660005B084FEA3202B6EB020E75EB030E22BF27
:10967000B61A754640EADC0055EA060E18D04FEAE5
:10968000051545EA16754FEA06164FEAC30343EA85
:1096900052734FEAC2025FEA1C1CC0D111F4801F52
:1096A0000BD141EA00014FF000004FF0004CB6E74B
:1096B00011F4801F04BF01430020B4F1FD0C88BFEA
:1096C000BCF5E06F3FF6AFAEB5EB030C04BFB6EBF5
:1096D000020C5FEA500C50F1000041EB045170BDE8
:1096E0000EF0004E4EEA113114EB5C04C2BFD4EB15
:1096F0000C0541EA045170BD41F480114FF0000E99
:10970000013C90E645EA060E8DE60CEA135594EA14
:109710000C0F08BF95EA0C0F3FF43BAF94EA0C0F17
:109720000AD150EA01347FF434AF95EA0C0F7FF48C
:1097300025AF104619462CE795EA0C0F06D152EAE0
:1097400003353FF4FDAE1046194622E750EA4106C4
:1097500018BF52EA43067FF4C5AE50EA41047FF4D5
:109760000DAF52EA43057FF4EBAE12E74FF0FF3C3A
:1097700006E000BF4FF0010C02E000BF4FF0010C0B
:109780004DF804CD4FEA410C7FEA6C5C4FEA430C84
:1097900018BF7FEA6C5C1BD001B050EA410C0CBFD3
:1097A00052EA430C91EA030F02BF90EA020F002035
:1097B000704710F1000F91EA030F58BF994208BF9C
:1097C00090422CBFD8176FEAE37040F00100704759
:1097D0004FEA410C7FEA6C5C02D150EA013C07D1B0
:1097E0004FEA430C7FEA6C5CD6D152EA033CD3D0FB
:1097F0005DF8040B704700BF8446104662468C46F5
:109800001946634600E000BF01B5FFF7B7FF002827
:1098100048BF10F1000F01BD4DF808EDFFF7F4FF50
:109820000CBF012000205DF808FB00BF4DF808EDDB
:10983000FFF7EAFF34BF012000205DF808FB00BFFE
:109840004DF808EDFFF7E0FF94BF012000205DF820
:1098500008FB00BF4DF808EDFFF7CEFF94BF0120D5
:1098600000205DF808FB00BF4DF808EDFFF7C4FFCE
:1098700034BF012000205DF808FB00BF4FEA410C17
:109880007FEA6C5C02D150EA013C0AD14FEA430CFA
:109890007FEA6C5C02D152EA033C02D14FF0000037
:1098A00070474FF0010070474A0011D212F50012C4
:1098B00011D20DD56FF47873B3EB62520ED44FEA28
:1098C000C12343F0004343EA505323FA02F07047A8
:1098D0004FF00000704750EA013002D14FF0FF30E6
:1098E00070474FF0000070474FEA4102B2F1E04389
:1098F00024BFB3F5001CDCF1FE5C0DD901F0004C77
:109900004FEAC0024CEA5070B2F1004F40EB8300C6
:1099100008BF20F00100704711F0804F21D113F1F2
:109920003872BCBF01F00040704741F480114FEA2B
:109930005252C2F11802C2F1200C10FA0CF320FAB4
:1099400002F018BF40F001004FEAC1234FEAD323D1
:1099500003FA0CFC40EA0C0023FA02F34FEA43033B
:10996000CCE77FEA625307D150EA01331EBF4FF0C4
:10997000FE4040F44000704701F0004040F0FE40DF
:1099800040F40000704700BFD0B50C4B00220646E3
:109990000F46FFF7D9FCFFF787FF0446FFF75AFC95
:1099A000074B0022FFF7D0FC02460B4630463946F3
:1099B000FFF712FBFFF778FF2146D0BD0000F03D16
:1099C0000000F041002301461A46184600F086BF09
:1099D000002100F0EBBE0A22002100F075BF0A2230
:1099E000002100F071BF10B501390244904201D14D
:1099F000002005E0037811F8014FA34201D0181BA5
:109A000010BD0130F2E70A44914200F1FF3300D16A
:109A1000704710B511F8014B03F8014F9142F9D18D
:109A200010BD884210B501EB020402D984422346DE
:109A300007D8431EA14208D011F8012B03F8012FCB
:109A4000F8E7024401468A4200D110BD13F8014DE7
:109A500002F8014DF7E702440346934200D17047F4
:109A600003F8011BF9E7000038B5104B1D68AB6B1C
:109A70000446B3B91820FCF7A3FC0246A86320B93A
:109A80000B4B0C484221FCF7D3FC0B490B4BC0E9B4
:109A900000130B4B83600B23838100210120C2E95B
:109AA0000401AB6B00221C615A6138BDD455032000
:109AB00061C30B0078C30B000E33CDAB34126DE6DF
:109AC000ECDE050010F8012B11F8013B012A28BF3C
:109AD0009A42F7D0D01A7047034611F8012B03F8C9
