:02000002B0004C
:1040000000400B0018010C00000006000C00050227
:084010000401E50C00000000B2
:0440180028F00B0081
:1040200009480A49884208B505D0094A824202D0A7
:10403000121A08F051FF0748074A0021121A08F027
:1040400073FF014808BD00BF40500320F8FE0B007D
:104050003852032038520320EDE7032070B5074E95
:10406000074C07F0B7FEA41BA4080025AC4200D102
:1040700070BD56F8043B98470135F7E7ACFE0B00DE
:10408000D0FE0B0002F0CABE08B503F03BF8BDE855
:10409000084007F057BE05F0A7BB05F0A5BB05F02B
:1040A000ABBB05F0A9BB05F0A7BB0078B0FA80F068
:1040B00040097047012303707047000010B5034B9F
:1040C0000360044603F016FF204610BD28F40B00E1
:1040D00010B50446FFF7F2FF204646F2BC51FFF749
:1040E000E2FF204610BD000008B5034650B1064A65
:1040F000904201D907F008FF0C205843BDE8084062
:10410000FFF7C9BF08BD00BFAAAAAA0A00F10803A9
:1041100073B5044603600D46D9B1084608F04CFF5C
:104120000F2805EB0006019007D9002201A92046BF
:1041300007F000FF019B2060A360324629462068FB
:1041400007F033FF019B226863600021D15402B065
:1041500070BD014807F0DBFE3CF00B0008B50346DC
:1041600050B1064A904201D907F0CEFE6C20584368
:10417000BDE80840FFF78FBF08BD00BF4B682F01A7
:1041800008B5034650B1064A904201D907F0BCFE7B
:1041900018205843BDE80840FFF77DBF08BD00BFA9
:1041A0005555550508B548B1B0F1005F01D307F08A
:1041B000ABFEBDE808408000FFF76DBF08BD08B545
:1041C00048B1B0F1805F01D307F09EFEBDE8084022
:1041D000C000FFF760BF08BD73B500F108030360BE
:1041E000D1E900530446EE181DB916B10C4807F08A
:1041F0008EFE0F2B019307D9002201A9204607F05C
:1042000099FE019B2060A36032462946206807F092
:10421000C7FE019B226863600021D15402B070BDCB
:104220003CF00B000368C9B29B68184713B50446FD
:1042300061B10846019108F0BFFE23680199DB686F
:104240000246204602B0BDE81040184702B010BD3B
:104250008142F8B504460D4625D0D1E900710068C9
:10426000A368CE1B1B1A9E421ED9F010FFF7A7FFB2
:10427000002305469E420AD0EA181CBFF918D1E96E
:10428000000103F1080318BFC2E90001F2E720684A
:1042900018B1A168091AFFF706FF25603544A5602B
:1042A000236833446360F8BD6268121A964206D8E8
:1042B000B942F5D03246394608F01CFEF0E712B19B
:1042C000394608F017FED4E90027BB1A2A686D6842
:1042D0001A44AD1A00239D42E2D017EB030C1CBF19
:1042E000D118D1E9000103F1080318BFCCE900019E
:1042F000F1E7000081422DE9F84F04468A4636D0A6
:10430000D1E9005BD0F800908368394AABEB050730
:10431000A3EB09034FEAE708BB4202FB08F828D2E7
:104320004046FFF72DFF06468046AB450AD0B8F160
:10433000000F03D029464046FFF74EFF08F118084A
:104340001835F2E7D4E90058A84504D0284607F00C
:1043500013FE1835F8E7206818B1A168091AFFF7AD
:10436000A2FE26603E44A66023683B446360BDE82D
:10437000F88F4668A6EB0906B74219D84646CA46E2
:10438000002E08DD2946504607F014FE18350AF1C4
:10439000180A013EF4E728EAE8781825666805FB64
:1043A0000895AE42E0D0284607F0E6FD1835F8E75C
:1043B000F6105643002E08DD2946484607F0FAFD60
:1043C000183509F11809013EF4E7D4E90056711BCC
:1043D000DAF80050DAF804800D44A845C4D01EB1C4
:1043E00029463046FFF7F8FE18351836F5E700BFC6
:1043F000ABAAAAAA0EB403B503AB002153F8042B51
:10440000019306F06AFE02B05DF804EB03B070475A
:104410000EB403B503AB012153F8042B019306F04E
:104420005CFE02B05DF804EB03B070472DE9F04F7D
:104430008DB007F003FD06F093FCAF4FAF4DB04BCE
:104440001A683B68282101FB02335A6A2B689A429A
:1044500040F3158107F0A4FB2A68AA49DFF8CC8253
:10446000DFF8CC92A84EFFF7D3FF00232B6008247F
:10447000292C00F0FB8007F093FB4146824608A8F8
:1044800006F0ADFE0A22214604A806F002FF04A9A8
:1044900008A806F039FF0168504606F0F6FD04A8AA
:1044A00006F052FE08A806F04FFE07F0C7FC2146B2
:1044B00006F04CFC07F0C2FC3121FFF7B3FE5FFAB7
:1044C00084FB07F0BBFC06F048FC07F0B7FC1822A1
:1044D000594606F034FC07F0B1FC03681B699847A5
:1044E000002840F3C38007F05BFB4946824608A8DA
:1044F00006F075FE0A22214604A806F0CAFE04A9A9
:1045000008A806F001FF0168504606F0BEFD04A8A9
:1045100006F01AFE08A806F017FE3146684606F0B7
:104520005EFE4FF0180A07F089FC03685B69984744
:10453000C1B2684606F0DBFEBAF1010AF3D107F01A
:104540007DFC214606F002FC07F078FC0099FFF79D
:104550006DFE07F025FB6D49824608A806F03FFE78
:10456000694608A806F0D0FE0168504606F08DFDA9
:1045700008A806F0E9FD07F061FC06F0EEFB07F085
:104580000FFB6349824608A806F029FE0A2221464D
:1045900004A806F07EFE04A908A806F0B5FE01688E
:1045A000504606F072FD04A806F0CEFD08A806F0FD
:1045B000CBFD07F043FC214606F0C8FB07F03EFCAC
:1045C0003221FFF72FFE07F039FC06F0C6FB07F09B
:1045D000E7FA5049824608A806F001FE0A22214661
:1045E00004A806F056FE04A908A806F08DFE01688E
:1045F000504606F04AFD04A806F0A6FD08A806F0FD
:10460000A3FD07F01BFC0422594606F098FB314637
:10461000684606F02CFE4FF0040A07F00FFC036812
:104620005B699847C1B2684606F061FEBAF1010ABB
:10463000F3D107F0B5FA3849824608A806F0CFFD55
:10464000694608A806F060FE0168504606F01DFDA8
:1046500008A806F079FD3149684606F098FE50B189
:104660002B68684601332B6006F06EFD0134782C10
:104670007FF4FEAEE3E6684606F066FDDFE607F08F
:104680008FFA2749274E284F06F0FFFC0824002503
:1046900007F0D4FB214606F059FB07F0CFFB312190
:1046A000FFF7C0FD07F0CAFB06F057FB07F0C6FB9B
:1046B0001822E1B206F043FB07F0C0FB03681B6958
:1046C000984700280EDD07F06BFA0A22214606F013
:1046D000E6FC07F065FA314606F0C4FC3B6843F897
:1046E000254001350134782CD2D107F0A7FB0DB05D
:1046F000BDE8F04F06F03DBBE8530320A0E60320E1
:104700004050032066F00B00D2F50B00ADF00B001B
:10471000B9F00B00D0F00B00EAF00B0002F10B0037
:1047200007F10B0088F30B009052032075F00B008B
:1047300090F00B0038B54FF4007514230446036065
:10474000856005610549284607F0DCFB0349606088
:10475000284607F0D7FBE060204638BDE8F90B009B
:1047600070B5064607F06AFB06F0FAFA1D4C002504
:10477000D4E900239B1AB5EBA30F11D207F05EFB1F
:10478000236853F8251006F0E1FA07F057FB3321B0
:10479000FFF748FD07F052FB06F0DFFA0135E7E7C7
:1047A000304605F071F80025D4E900239B1AB5EBDB
:1047B000A30F11D207F042FB236853F8251006F02F
:1047C000C5FA07F03BFB3421FFF72CFD07F036FB61
:1047D00006F0C3FA0135E7E707F030FBBDE87040AB
:1047E00006F0C7BA9052032008B507F0D9F904497A
:1047F00006F04BFCBDE8084040F6B830FFF7B0BF0C
:1048000074F30B0010B50446006818B1A168091ACA
:10481000FFF749FC204610BD10B50446006818B1EA
:10482000A168091AFFF73FFC204610BD10B50446E9
:10483000006818B1A168091AFFF735FC204610BDC1
:1048400030B50D688368D0E90042056085B04D68D9
:1048500045608D68039300238560C1E900338B6058
:1048600001A8CDE90142FFF7E1FF05B030BD70B509
:10487000D0E900560446AE4204D0284607F07CFB3F
:104880001835F8E7206818B1A168091AFFF70BFC82
:10489000204670BDB1F1005F70B504460D46164666
:1048A00002D30C4807F036FB0023C0E900338360D5
:1048B0000846FFF777FC00EB8503C4E90000A3601E
:1048C0002DB13268834202D040F8042BFAE76060D1
:1048D000204670BD17F10B002DE9F341002402AB17
:1048E00003E90600C0E90044134605468460D7008A
:1048F00042F31C00104AB2EBC30F884602D20F48A5
:1049000007F008FBFFF75BFCC61902462860AE60A3
:1049100023469F420BD0D4181CBF08EB0301D1E9FA
:10492000000103F1080318BFC4E90001F1E72846BC
:104930006E6002B0BDE8F081F8FFFF7F17F10B0059
:104940002DE9F34102AB03E906000023C0E900337F
:104950008360164618235E43104B0446F0105843FC
:104960000F4B9E420F4601EB060802D90D4807F097
:10497000D1FAFFF705FC064405462060A660B8455D
:1049800007D01DB139462846FFF726FC18371835E1
:10499000F5E72046656002B0BDE8F081ABAAAAAA9F
:1049A000F8FFFF7F17F10B00F8B5D1E900370025BC
:1049B000FF1A0446C0E900558560F8100E46FFF75F
:1049C000FEFBC4E900000744A760D6E90076024672
:1049D000F61B2B46B34202EB030506D01DB1F918B6
:1049E00003C985E803000833F4E765602046F8BD95
:1049F00008B542684B689A4208D14AB10968006814
:104A000008F05AFAB0FA80F0400908BD0020FCE72F
:104A10000120FAE72DE9F04FA3B00D46044607F058
:104A20000DFA06F09DF900229749984805F0D6F94D
:104A3000974903A806F0D3FB954907A806F0CFFBDA
:104A40002544A54205D014F8011B03A806F04FFC2D
:104A5000F7E707F0A5F8039906F017FB8D490FA8B3
:104A600006F0BDFB0FA903A806F0B2FC04460FA890
:104A700006F06AFB002C57D18749884D0FA806F035
:104A8000AEFB0FA903A806F0A3FC04460FA806F08E
:104A90005BFB2346052203A90FA806F09DFC0FA986
:104AA000284606F0DCFB0FA806F04EFB621C7C4C8F
:104AB00003A90FA806F0B0FC0FA9204606F0CFFB13
:104AC0000FA806F041FB07F06BF82A6823687549C8
:104AD000FFF79EFC2F68256817B3384608F06CFA7C
:104AE0000646FDB1284608F067FA04463822002140
:104AF00014A808F019FA4C23CDE90F376A4813942B
:104B000003238DF85030002340680FAA1946CDE9E1
:104B1000116504F041FE07F091F906F02AF946E02C
:104B20003E46DEE72C46E1E760490FA806F057FB5A
:104B30000FA903A806F04CFC04460FA806F004FBDE
:104B4000002C40F08B80052203A90FA806F064FC1E
:104B50000FA903A806F083FB0FA806F0F5FA544D41
:104B6000544FDFF85481D5E900239B1ADB107B43B7
:104B7000A34213D9282303FB04220FA8D16806F00F
:104B80002EFB0FA903A806F0F5FB06460FA806F0BA
:104B9000DBFA0EB1C8F800400134E4E7464E336852
:104BA000591C0DD145490022384805F017F907A8CE
:104BB00006F0CAFA03A806F0C7FA23B0BDE8F08FE2
:104BC00028246343D118D3584968DFF80C81C91AE7
:104BD0003B4B891059430BAA02AB002749000FA891
:104BE0000B97FFF757FE0FA93648FFF729FE0FA8CE
:104BF000FFF71CFE32682B6804FB02330FA80BAAD8
:104C0000596A0B9702ABFFF745FE0FA94046FFF725
:104C100017FE0FA8FFF70AFEFFF708FC3A462A49DD
:104C20001A4805F0DBF807F009F9D8F800301968E0
:104C300006F08CF807F002F93321FFF7F3FA07F0DA
:104C4000FDF806F08AF806F0ABFF32682B681F49C2
:104C500004FB0234E268FFF7DBFB5CE71C490FA8AA
:104C600006F0BDFA0FA903A806F0B2FB04460FA890
:104C700006F06AFA002C40F0E6810F4E33680133EB
:104C80002CD1144922468FE748F10B00A4E60320FB
:104C9000D2F50B004BF10B0051F10B003852032001
:104CA0006CE4032053F10B0018E703206AF10B00BA
:104CB000E8530320CDCCCCCC4050032070F10B0046
:104CC00013DA4B6894E6032084F10B009BF10B0090
:104CD000A4F10B00ABF10B0090520320062203A9B4
:104CE0000FA806F099FB0FA903A806F0B8FA0FA8C1
:104CF00006F02AFAA74FDFF8EC8203A907A806F00E
:104D00009FFA3168386828224A43831882585B68C2
:104D10009B1AA14A9B10126808FB03F39A4280F089
:104D2000D680012908D89D4903A806F030FB28B396
:104D30009B4907A806F09BFADFF870B24FF0000A13
:104D40004FF028093568386809FB05F143184158C8
:104D50005B685B1A9B1008FB03F3534538D9A5B970
:104D6000904B0BA8196B06F03AFA0BA907A806F0AE
:104D700001FB58B30BA806F0E7F921E08A4903A824
:104D800006F005FB0028D3D1D6E700233168386848
:104D9000019309FB01F141586C2000FB0A110FA897
:104DA000096B06F01CFA07A90FA806F0E3FA051E26
:104DB0000FA818BF012506F0C7F9019B002BD9D118
:104DC0000DB1CBF800A00AF1010ABBE70123DDE732
:104DD000012D764D07D1714903A806F0D8FA10B11C
:104DE0002B68013B2B6006F0DBFE2A687049FFF759
:104DF0000FFB2B68013331D06E4DDFF89C91DFF84B
:104E0000ACA106F0CDFE2B68D9F800206A4953F812
:104E10002220FFF7FDFA32683968DAF800B028235B
:104E20005343C8586C2303FB0B000C23416A6343B4
:104E300001EB030CCB58DCF804C09C4519D092B1AF
:104E40002B68D9F8002053F82210DAF8003004EB70
:104E500043035A4A126842F823107CE05849002262
:104E6000A2E60124CBE757493030FFF7C1FD002807
:104E70005AD0524B04EB4B0B1B68002243F82B20FB
:104E8000012CEED106F0DAFFD9F800202B6853F898
:104E9000221005F05BFF06F0D1FF3421FFF7C2F9C5
:104EA00006F0CCFF05F059FF06F0C8FFD9F8003036
:104EB0002A68013352F8231005F048FF06F0BEFFC0
:104EC0003321FFF7AFF906F0B9FF05F046FF32686E
:104ED0003968314C28235A438B188A585B689B1ACF
:104EE0009B10226808FB03F3013B934218D106F0A4
:104EF00057FE3549354D06F0C8F8354B6868012234
:104F00001A7000231A46194604F01EFC0023686834
:104F100019461A4604F0F8FB2E492F4803F0FAFF11
:104F2000236801332360F6E51D4907A806F02FFA30
:104F3000002885D0194903A806F029FA002853D083
:104F4000D9F800202B6853F822101C4BDAF8002007
:104F50001B6843F832103368002B91D11F4B0FA808
:104F6000196B06F03CF90FA903A806F003FA824674
:104F70000FA806F0E9F8BAF1000F45D00B4B0F4A25
:104F80001B68126804EB430352F82320144B1A6089
:104F900076E700BFE85303209C520320B8F10B00D2
:104FA000BFF10B00E8E40320C5F10B0054500320CF
:104FB000CCF10B0090520320F6F10B0094E6032095
:104FC000DEF10B0018E5032002F20B0018E70320C6
:104FD000ACE603200FF20B00F853032078530320B4
:104FE000E453032013DA4B68374903A806F0CFF9DE
:104FF0000028B0D02B68D9F8002053F82210DAF836
:1050000000305B00013324E7304903A806F0BFF904
:1050100038B12F4B1A682F4B1B6853F832202E4B98
:10502000B5E7294903A806F0B2F900283FF428AFF4
:10503000274B284A1B6812685B00013352F8232073
:10504000254B5A601CE725490FA806F0C8F80FA9A0
:1050500003A806F0BDF904460FA806F075F8002C69
:105060007FF459AD1E4D1F4ED5E900239B1AB4EBBA
:10507000A30F17D206F094FD22463146FFF7C8F978
:1050800006F0DCFE2B6853F8241005F05FFE06F0F6
:10509000D5FE3421FFF7C6F806F0D0FE05F05DFE20
:1050A0000134E1E7104A1149002313604FF0FF3249
:1050B0000A6007490A600E4A137006F071FD0D4937
:1050C00005F0E3FF27E500BFC5F10B00B8F10B00C9
:1050D0005450032094E60320A85503201BF20B0034
:1050E0009052032021F20B009C52032040500320D9
:1050F000ACE6032031F20B00002938B504464FEA34
:1051000081050CD0B1F1005F01D306F0FDFE284609
:10511000FEF7C1FFC4E900002844A06038BD08467E
:10512000F8E738B504460D46AC4204D02046FFF7F8
:105130007DFB0C34F8E738BD10B504464830FFF766
:1051400096FB04F1300006F017FFD4E90901FFF7E0
:10515000E8FF606A18B1E16A091AFEF7A4FF04F1DA
:105160001800FFF763FB04F10C00FFF755FB204626
:10517000FFF748FB204610BD38B504460D46AC424B
:1051800004D02046FFF7D8FF6C34F8E738BD10B5DF
:105190000446D0E90001FFF7EFFF206818B1A168CD
:1051A000091AFEF780FF204610BD38B504460D46AB
:1051B000AC4208D004F10C0006F0DEFE2046FFF7FA
:1051C000E6FF2834F4E738BD814210B51346A1EB61
:1051D000000405D001462246184607F08BFE034620
:1051E000181910BD70B5D1E90036F61A002304462F
:1051F000C0E900338360B0100D46FEF7D3FFC4E969
:1052000000000644A6600246D5E90001FFF7DCFF76
:105210006060204670BD00007FB504AB03E9060066
:105220000023C0E900338360044613460E46950010
:1052300001EB820142F31D000A4AB2EB830F02D256
:10524000094806F067FE0191FEF7ACFF05440246EF
:1052500020600199A5603046FFF7B6FF606004B09A
:1052600070BD00BFFCFFFF7F17F10B008142F7B557
:1052700004460D461DD0D1E9007102688368CE1B3B
:105280009B1A9E4217D9B0100191FEF78BFF01992E
:10529000024605463846FFF797FF206818B1A16817
:1052A000091AFEF700FF25603544A56023683344E2
:1052B000636003B0F0BD43689B1A9E4203D8384632
:1052C000FFF782FFF2E7F9183846FFF77DFFD4E9D0
:1052D0000002D5E90031101A1844F1E72DE9F04138
:1052E0000C1A05460B48A410444316462746904620
:1052F000002F08DD29464046FFF7B8FF0C3508F1BE
:105300000C08013FF4E724EAE4740C2000FB04607D
:10531000BDE8F081ABAAAAAA2DE9F04F0025994675
:1053200000F13803C0E90C354FF0FF33C0E9153305
:105330000446C0E90055C0E90255C0E90455C0E97A
:105340000655C0E90855C0E90A55C0E9125599B09B
:1053500080F838500565924600F1180B00F13008CE
:1053600000F14807FEF774FFD4E900239B1AAB4213
:105370004FEAE30102DA5F4806F0CCFD09A801918B
:10538000CDE909550B95FFF7B7FE0199099831B1A1
:1053900000EB81068A00294607F0C6FD3046D4E9B5
:1053A0000352099963690E93C4E903100CAE0B997B
:1053B0006161CDE90C5230460025CDE909550B95C8
:1053C000FFF72AFA09A8FFF727FA51465846FFF7D0
:1053D0004DFFD9F800100695096802AB06AA3046C1
:1053E000FFF758FAD9F800100795496803AB07AAE8
:1053F0000FA8FFF74FFAD9F800100895896804AB99
:1054000008AA12A8FFF746FAD9F80010099505ABCB
:1054100009AAC96815A8FFF73DFA626AE36A9B1AF0
:105420002F2B3FD80420FEF75FFEB346054600F160
:10543000300A8146B9F1000F03D059464846FFF7BC
:10544000D1FE09F10C09D1450BF10C0BF2D1D4E9D5
:105450000901FFF766FE606A18B1E16A091AFEF7F2
:1054600022FEC4E9095AC4F82CA018AD0C3D284608
:10547000FFF7DCF9B542F9D12299404606F09AFDD2
:1054800038462399FEF736FF249B1B681A68E265AD
:105490005A6822669A68DB6862662046A36619B07D
:1054A000BDE8F08FA56AAD1A2F2D0BD918A930468B
:1054B000FFF714FFA16A88420546D6D0FFF731FEF8
:1054C000A562D2E7354429463046FFF707FFD4F8F6
:1054D000289018AB9D420AD0B9F1000F03D029469D
:1054E0004846FFF77FFE0C3509F10C09F1E7C4F8D7
:1054F0002890BAE717F10B002DE9F04F2DED0E8B38
:105500000128B44DADF5417D41F01A810024B24B24
:10551000AB60C5E90044032004F0CAF8AF4BA49384
:10552000AF4BA593AF4BA693AF4BA793AF4BA893AD
:10553000AF4BA993AF4BAA93AF4BAB93AF4BAC938D
:10554000AF4BAD93A4AB7E9305237F930DF5E87A23
:105550007EAA534606CA8CA8FFF7BEF9A94BDFED19
:10556000AA8A9FEDAA8ADFEDAA9A9FEDAA9ADFED9B
:10557000AAAA9FEDAAAADFEDAABA9FEDAABADFED0B
:10558000AADA9FEDAADADFEDAACA9FEDAACA9FEDBB
:10559000AAEA1F460FCB0DF5177B8BE80F000422FC
:1055A00089AD7CABCDF8F0B17D9293E8060028463A
:1055B000FFF732FE2822CDE9942493AA7A9204229E
:1055C0000DF506787AAB7B9293E8060040469394FB
:1055D0009694FFF721FE9DA89849FEF797FDB0A885
:1055E0009749FEF793FDB6A89649FEF78FFDB0A93F
:1055F000789102210DF5E479799178AA4B4606CA93
:1056000083A8FFF79DF9214610228FA807F08CFC94
:105610008FAA7692042280AE76AB779293E806004A
:105620003046FFF7F9FD83AA01929DAA43468CA953
:105630000296009284482A46FFF76EFE3046FFF736
:10564000F5F883A8FFF713F9B6A806F095FCB0A803
:1056500006F092FC9DA806F08FFC4046FFF7E6F8A6
:105660002846FFF7E3F88CA8FFF7CCF8774BB09308
:10567000774BB193774BB293774BB393774BB4930C
:10568000774BB593774BB693774BB793774BB893EC
:10569000774BB993774BBA93B0AA774B7492BB937D
:1056A0000722764B7592BC936AAA754BBD938CA862
:1056B00013469AE80600FFF70FF99DAA07F1100CB0
:1056C0000492BCE80F00049F0FC79CE803009DAA4A
:1056D000729206227392C7E9000199E806002846F3
:1056E0000497FFF799FD93AA70923C230422CDE919
:1056F0009434719270AB93E806004046939496946C
:10570000FFF78AFD58465F49FEF700FDA4A85E49F1
:10571000FEF7FCFCAAA85D49FEF7F8FCA4AB022149
:105720006E930DF5D0796F916EAA4B4606CA83A889
:10573000FFF706F9214610228FA807F0F5FB8FAA84
:105740006C9204226CAB6D9293E806003046FFF732
:1057500063FD83AA43468CA9CDE900B202962A468E
:105760004B48FFF7D9FD3046FFF760F883A8FFF7F5
:105770007EF8AAA806F000FCA4A806F0FDFB584697
:1057800006F0FAFB4046FFF751F82846FFF74EF8BF
:105790008CA8FFF737F8B0AA6A9207226B920DF532
:1057A000C07A6AAA06CA53468CA8CDEDB48A8DED9C
:1057B000B58ACDEDBC8A8DEDBD8ACDEDB0DA8DED2B
:1057C000B1DACDEDB2CA8DEDB3CACDEDB6BA8DED7D
:1057D000B7BA5FE0485203200000FFFF806927420C
:1057E0001E43AFC2CC9D27420242AFC2959D2742C5
:1057F0006D47AFC2A9A72742054EAFC282B3274269
:10580000444EAFC23CF40B001A8B27429A44AFC2FD
:105810002F8B27429540AFC2D88127424440AFC268
:1058200016822742C144AFC29EA42742D04BAFC2CA
:1058300037A427425946AFC28940AFC23CF20B00A1
:1058400040F20B0047F20B0054E503209D7E2742F7
:10585000B374AFC2AF8027428E58AFC24D8027428B
:105860002E48AFC2AD8027425741AFC2FF8A2742C0
:105870005342AFC2F48A27429847AFC278A9274261
:105880005D5FAFC24EF20B0053F20B005AF20B00F9
:10589000A0520320CDEDB8AA8DEDB9AACDEDBA9AEC
:1058A0008DEDBB9AFFF718F8B64B03F128021746A7
:1058B0000FCF0DF51D7CACE80F00D7E90001049A6D
:1058C000059782E803009DAA68920622699299E8EA
:1058D00006002846FFF7A0FC07F108020FCA93AFA5
:1058E00087E80F00042166AB6697679193E806008E
:1058F0004046FFF791FC5846A349FEF707FCA4A8D1
:10590000A249FEF703FCAAA8A149FEF7FFFBA4AB3E
:10591000022164930DF5BC79659164AA06CA4B46D1
:1059200083A8FFF70DF89B490FC98FAF87E80F00D9
:10593000042062AB6297639093E806003046FFF75D
:105940006BFC83A8CDE900B08CA843462A460146EB
:1059500002969148FFF7E0FC3046FEF767FF83A808
:10596000FEF785FFAAA806F007FBA4A806F004FB33
:10597000584606F001FB4046FEF758FF2846FEF762
:1059800055FF8CA8FEF73EFF844BA493844BA59350
:10599000844BA693844BAA93844BAB93844BAC93D8
:1059A000844BAD930520A4AB6093619056A89AE810
:1059B000060003468CA88DEDA7EACDEDA89A8DEDE3
:1059C000A99AFEF789FF6F4BCDF878B11F46603377
:1059D0000FCB8BE80F0004205F9099E80600284663
:1059E000FFF71AFC3B4670330FCB93AF87E80F00ED
:1059F00004205CAB5C975D9093E806004046FFF79F
:105A00000BFC9DA86C49FEF781FBB0A86B49FEF723
:105A10007DFBB6A86A49FEF779FBB0A85A90022030
:105A20005B900DF5A8795AAA4B4606CA83A8FEF7E3
:105A300087FF544B80330FCB8FAF87E80F000420D4
:105A400058AB5897599093E806003046FFF7E4FBAF
:105A500083A801909DA800908CA843462A46014641
:105A600002965848FFF758FC3046FEF7DFFE83A841
:105A7000FEF7FDFEB6A806F07FFAB0A806F07CFAA5
:105A80009DA806F079FA4046FEF7D0FE2846FEF7BC
:105A9000CDFE8CA8FEF7B6FE4B4BB0934B4BB193AB
:105AA0004B4BB2934B4BB3934B4BB4934B4BB59384
:105AB000B0A84B4B5690B69308204A4B57900DF523
:105AC000987ABC9356A8484BBD9390E8060053467D
:105AD0008CA8CDEDBA8A8DEDBB8A8DEDB7EACDED00
:105AE000B89A8DEDB99ACDEDBEAA8DEDBFAAFEF79D
:105AF000F3FE244B049F03F1900CBCE80F000DF55E
:105B00001D7EAEE80F009CE8070087E807009DA80F
:105B100054900720559099E806002846FFF77CFB33
:105B2000184BAC330FCB93AF87E80F00042052AB78
:105B30005297539093E806004046FFF76DFB584696
:105B40002A49FEF7E3FAA4A82949FEF7DFFAAAA832
:105B50002849FEF7DBFAA4AB0220509351900DF5D3
:105B6000947950AA4B4606CA83A8FEF7E9FE054B76
:105B7000BC330FCB8FAF87E80F0004204EAB4E979E
:105B80003AE000BF3CF40B0061F20B0067F20B003F
:105B90006EF20B008CF40B007853032097692742B8
:105BA000B840AFC2FE812742FB8A27429444AFC26D
:105BB000718927427964AFC2BFF10B0075F20B0007
:105BC0007CF20B003C5503201A632742D24BAFC234
:105BD000C46E27421541AFC2B58027428640AFC28E
:105BE00000822742E18127427644AFC283F20B0054
:105BF0008AF20B0091F20B004F9093E806003046BA
:105C0000FFF70AFB83A8CDE900B08CA843462A46DB
:105C100001460296BA48FFF77FFB3046FEF706FEC4
:105C200083A8FEF724FEAAA806F0A6F9A4A806F009
:105C3000A3F9584606F0A0F94046FEF7F7FD2846BE
:105C4000FEF7F4FD8CA8FEF7DDFDB0A84C90072010
:105C50004D9042A89AE8060003468CA8CDEDB48A80
:105C60008DEDB58ACDEDBC8A8DEDBD8ACDEDB0DA76
:105C70008DEDB1DACDEDB2CA8DEDB3CACDEDB6BAC8
:105C80008DEDB7BACDEDB8AA8DEDB9AACDEDBA9A22
:105C90008DEDBB9AFEF720FE9A4A049FA2F1180EE2
:105CA000BEE80F000DF51D7CACE80F00059803C899
:105CB00087E803009DA84A9006204B9099E80600CB
:105CC0002846FFF7A9FA8F4A0FCA93AF87E80F005B
:105CD000042248AB4897499293E806004046FFF7F4
:105CE0009BFA58468849FEF711FAA4A88749FEF79F
:105CF0000DFAAAA88649FEF709FAA4AB022046933A
:105D000047900DF5807946AA06CA4B4683A8FEF750
:105D100017FE80490FC98FAF87E80F00042244ABFC
:105D20004497459293E806003046FFF775FA83AA38
:105D300043468CA9CDE900B202962A467648FFF781
:105D4000EBFA3046FEF772FD83A8FEF790FDAAA895
:105D500006F012F9A4A806F00FF9584606F00CF95F
:105D60004046FEF763FD2846FEF760FD8CA8FEF76F
:105D700049FD6A4BB0936A4BB1936A4BB293B0AA98
:105D8000694B4292B3930822684B43920DF1E00AAB
:105D9000B49342AA664BB59306CA53468CA8CDED80
:105DA000B68A8DEDB78ACDEDBE8A8DEDBF8ACDED79
:105DB000B89A8DEDB99ACDEDBAAA8DEDBBAACDED0D
:105DC000BCBA8DEDBDBAFEF787FD5A4B049FDFEDDF
:105DD0005A8A9FED5A8A03F1CC0CBCE80F000DF5EE
:105DE0001D7EAEE80F009CE8070087E807009DAA2B
:105DF00040920722419299E806002846FFF70CFAE4
:105E00004C4BE8330FCB93AF87E80F0004223EAB37
:105E10003E973F9293E806004046FFF7FDF958464B
:105E20004749FEF773F9A4A84649FEF76FF9AAA8F7
:105E30004549FEF76BF9A4AB02213C930DF1D8095B
:105E40003D913CAA4B4606CA83A8FEF779FD394B23
:105E5000F8330FCB8FAF87E80F0004223AAB3A97A5
:105E60003B9293E806003046FFF7D6F983AA4346F3
:105E70008CA9CDE900B202962A463448FFF74CFAC5
:105E80003046FEF7D3FC83A8FEF7F1FCAAA806F083
:105E900073F8A4A806F070F8584606F06DF840466E
:105EA000FEF7C4FC2846FEF7C1FC8CA8FEF7AAFC4E
:105EB000274BB093274BB193274BB293274BB39308
:105EC000274BB493274BB593274BB693274BB793E8
:105ED000274BB893274BB993274BBA93B0AA274BBC
:105EE0003892BB930722264B3992BC932EAA254B9E
:105EF000BD938CA813469AE80600FEF7EDFC43E03C
:105F0000D87D03207CF40B0098F20B009FF20B006D
:105F1000A6F20B008CF40B00E8E40320766A27421B
:105F20002B69AFC25F6B2742CD56AFC22D8A274285
:105F3000D856AFC23CF40B000266294281288EC2BB
:105F4000ADF20B00B2F20B00B9F20B007CE40320BF
:105F50001B482942B21A8EC2834F2942931D8EC21A
:105F6000E66029422D1D8EC2F9662942F01A8EC2C2
:105F7000A5712942E6238EC23774294273338EC23B
:105F80007A7D29425D3B8EC2B14B03F5847C1F466E
:105F9000BCE80F000DF51D7EAEE80F009CE8030085
:105FA000049A82E803009DAA36920622379299E865
:105FB00006002846FFF730F993AA349232230422D0
:105FC000CDE99434359234AB93E80600404693947F
:105FD0009694FFF721F958469E49FEF797F8A4A832
:105FE0009D49FEF793F8AAA89C49FEF78FF8A4AB49
:105FF000022132930DF1B009339132AA4B4606CA01
:1060000083A8FEF79DFC214610228FA806F08CFF86
:106010008FAA3092042230AB319293E806003046CA
:10602000FFF7FAF883AA43468CA9CDE900B202969D
:106030002A468B48FFF770F93046FEF7F7FB83A836
:10604000FEF715FCAAA805F097FFA4A805F094FF99
:10605000584605F091FF4046FEF7E8FB2846FEF75C
:10606000E5FB8CA8FEF7CEFB7E4BA4937E4BA5935D
:106070007E4BA6937E4BA7937E4BA8937E4BA99312
:106080007E4BAA937E4BAB930422A4AB2E932F920C
:106090000DF1900A2EAA534606CA8FA8FEF71CFCE3
:1060A00007F5907393E8070003232C952D9385E85B
:1060B000070099E806008CA8FFF7AEF82822CDE982
:1060C000982404222AABCDF8A8B02B9293E80600BE
:1060D000404697949A94FFF79FF89DA86949FEF768
:1060E00015F8B0A86849FEF711F8B6A86749FEF799
:1060F0000DF8B0A9289102210DF18809299128AA4B
:106100004B4606CA83A8FEF71BFC2146102293A823
:1061100006F00AFF93AA2692042226AB279293E860
:1061200006003046FFF778F883AA01929DAA4346FD
:106130008FA90296009256488CAAFFF7EDF83046D8
:10614000FEF774FB83A8FEF792FBB6A805F014FFD8
:10615000B0A805F011FF9DA805F00EFF4046FEF720
:1061600065FB8CA8FEF762FB8FA8FEF74BFB494B43
:10617000B093494BB193494BB293494BB393494BBD
:10618000B493494BB593494BB693494BB793494B9D
:10619000B893B0AA484B2492B9930622474B259254
:1061A000BA931AAA464BBB938CA813469AE80600EA
:1061B000FEF792FB264BCDF888B003F5967CBCE841
:1061C0000F005F460FC7DCF800303B6005232393C8
:1061D00099E806002846FFF71FF893AA20922D237E
:1061E0000422CDE99434219220AB93E80600404686
:1061F00093949694FFF710F89DA83249FDF786FF17
:10620000A4A83149FDF782FFAAA83049FDF77EFF17
:10621000A4AB1E9302231F930DF1600A1EAA5346DE
:1062200006CA83A8FEF78CFB214610228FA806F031
:106230007BFE8FAA1C9204221CAB1D9293E80600E1
:106240003046FEF7E9FF83AB01939DAB40E000BF12
:106250003CF40B003CF20B0040F20B0047F20B0049
:10626000C0E50320A9842942E60B8EC2A67029420C
:1062700062188EC2E16F2942861E8EC2D1712942F8
:10628000CF1F8EC24EF20B0053F20B005AF20B00DE
:106290000C5303207A532942C9308EC2D06329425D
:1062A000F1268EC24B6329420D218EC2306E2942E7
:1062B0005A1D8EC278822942E2268EC2CD9C294286
:1062C00070278EC283F20B008AF20B0091F20B0052
:1062D0002A468CA902960093B5484346FFF71CF85E
:1062E0003046FEF7A3FA83A8FEF7C1FAAAA805F084
:1062F00043FEA4A805F040FE9DA805F03DFE4046E3
:10630000FEF794FA2846FEF791FA8CA8FEF77AFA7F
:10631000A84BB093A84BB193A84BB493A84BB5939B
:10632000A84BB693A84BB793A84BB893A84BB99377
:10633000A84BBA93A84BBB93A84BBC93A84BBD9357
:10634000A84BBE93A84BBF93B0AB1A9308231B93E3
:106350000DF140091AAA4B4606CA8CA8CDEDB28AA7
:106360008DEDB38AFEF7B8FADFF8C8C2BCE80F00BB
:106370000DF51D7EAEE80F009CE80700049B83E846
:1063800007009DAB1893072319939AE80600284647
:10639000FEF742FF93AA169246230422CDE99434D5
:1063A000179216AB93E80600404693949694FEF736
:1063B00033FF58468D49FDF7A9FEA4A88C49FDF787
:1063C000A5FEAAA88B49FDF7A1FEA4AB1493022356
:1063D00015930DF1380A14AA534606CA83A8FEF78E
:1063E000AFFA214610228FA806F09EFD8FAA1292C6
:1063F000042212AB139293E806003046FEF70CFF1E
:1064000083AB2A468CA9CDE900B3029643467A486D
:10641000FEF782FF3046FEF709FA83A8FEF727FA57
:10642000AAA805F0A9FDA4A805F0A6FD584605F008
:10643000A3FD4046FEF7FAF92846FEF7F7F98CA8C7
:10644000FEF7E0F96D4B9D936D4B9E939DAB3360D2
:106450000223736096E8060008AB8FA8CDED9F8AF3
:106460008DEDA08AFEF738FA09AB10930123119342
:1064700099E806000F268CA80996FEF7CDFE0423A6
:106480000F93CDF838B09AE806002846CDE9974634
:10649000CDE99944FEF7C0FEA4A85449FDF736FEA5
:1064A000B0A85349FDF732FEB6A85249FDF72EFEBB
:1064B000B0AB0C9302230D930CAA07AB06CA40465F
:1064C000FEF73EFA2146102293A806F02DFD93AA6E
:1064D0000A9204220AAB0B9293E8060083A8FEF707
:1064E0009BFE83ABCDE90183A4AB8CAA8FA900935B
:1064F00044482B46FEF710FF83A8FEF797F9404665
:10650000FEF7B5F9B6A805F037FDB0A805F034FDE3
:10651000A4A805F031FD2846FEF788F98CA8FEF7FF
:1065200085F98FA8FEF76EF9374B38499C60C3E9AF
:106530000044374B37489C60C3E90044364B374D25
:106540009C60C3E90044364BDFF8C8809C60C3E917
:106550000044344BC3E900449C6003F0A1FB324982
:10656000324803F09DFB32492C4803F099FB0FCDD4
:106570005E460FC6B8E80F00D5F800C0C7F800C0E7
:106580009DAD0FC5C146049B59F810A9C3F800A0E2
:106590005D460FCDA4AE0FC6DFF89CE0C6F800C084
:1065A0000DF51D7CCEE90044BCE80F00B0AD45E020
:1065B000447E032055652942AE308EC24768294289
:1065C00045248EC2CC68294206218EC2CD72294252
:1065D000B01D8EC2777729425E1F8EC2687629422F
:1065E000D5208EC291822942BA308EC2BFF10B00F3
:1065F00075F20B007CF20B0064540320F057294223
:1066000051338EC2D0540320E8530320C0F20B0054
:106610005854032054520320CC7D03207C52032085
:106620009052032094E60320E5F20B006852032009
:106630000AF30B007CF50B00A4E603200FC5B0ABFA
:10664000C5F800A07046CDE9014400937B49A4AB96
:106650004FF0100204F08EF8DFF87CC2BCE80F00A7
:10666000DE46AEE80F00B9E80F00DCF800E0C7F83E
:1066700000E00DF51D7CACE80F00049BD8F80090FD
:10668000C3F80090DA46BAE80F00DFF804820DF58F
:10669000247CACE80F00C6F800E09DAEC8E90044D9
:1066A0000FCE0DF5307CACE80F00654BC5F80090BF
:1066B0000193B0AB6349029400934FF00402A4AB82
:1066C000404604F057F8604802F0A3F85F4B00948E
:1066D00040F25B725E495F485F4C02F031FA5F49FD
:1066E0005F4804F07CFD5F4804F086FB5B495E4830
:1066F00004F075FD59495D4804F071FD57495C4847
:1067000004F06DFD5B4801F075FA4FF47A73009365
:1067100042F2107204F12C01574B204601F042FC6A
:10672000564B4E492360564804F059FD4B49554895
:106730000DF5417DBDEC0E8BBDE8F04F04F04FBD73
:10674000504804F001FD4E4804F0FEFC4248FDF7BD
:10675000B5FC484B4C4A9C691A607CB16368013BAC
:1067600063605BB9236820469B689847A368013B38
:10677000A3601BB923682046DB6898473C48434C1C
:1067800004F0E2FC394804F0DFFC374804F0DCFC9C
:10679000334804F0D9FC2F4802F060FD3C4803F078
:1067A000D0FC3C4803F0CDFC3B48FEF73FF83B48AB
:1067B000FEF73CF83A48FEF7EAFC3A48FEF7E7FCF9
:1067C000D4E90001FEF7F1FC206818B1A168091AAC
:1067D000FDF769FC3448FEF7AFFC3448FEF7ACFC2B
:1067E0003348FEF7A9FC3348FEF7A6FC3248FEF713
:1067F000A3FC3248FEF7A0FC3148FEF79DFC31486F
:10680000FEF79AFC3048FEF797FC3048FEF794FC00
:106810002F48FEF791FC2F48FEF78EFC286838B110
:106820000DF5417DBDEC0E8BBDE8F04F02F0E4BFED
:106830000DF5417DBDEC0E8BBDE8F08F2FF30B0005
:10684000154A0B0032F30B00B0E60320E9470B00BA
:1068500035F30B00F8530320B07E0320D2F50B0074
:106860002CE603203CE6032054E6032068E60320E0
:106870007CE60320B0550320ECA5032028F40B0090
:10688000385203206CE40320ECF80B00E85303209B
:106890008CE60320A4E6032094E603209052032014
:1068A000CC7D032058540320D0540320645403208B
:1068B000447E03200C530320C0E503207CE4032026
:1068C000E8E40320D87D03203C55032078530320BF
:1068D000A052032054E5032068520320814210B5E2
:1068E0001346A1EB000405D001462246184606F0E7
:1068F00001FB0346181910BD2DE9F0410D46044671
:10690000FEF752F8D5E903310026C91AC4E9036637
:106910006661891004F10C00FEF7EEFBE268D5E930
:106920000301FFF7DBFF05F11801206104F11800F6
:10693000FEF758FCD5E909372648E662FF1ABB1076
:10694000C4E909665843FDF7CFFBC4E909000744D1
:10695000E762D5E909780646B84507D01EB1394641
:106960003046FEF73FFC0C360C37F5E7A66205F122
:10697000300104F13000FDF72FFCD5E9123715483E
:10698000FF1A0023C4E912332365FB105843FDF7B7
:10699000F7FBC4E9120007442765D5E912780646DB
:1069A000B84507D01EB139463046FDF715FC1836FC
:1069B0001837F5E7E6646B6D6365AB6DA365EB6D4A
:1069C000E3652B6E23666B6E6366AB6EA366204633
:1069D000BDE8F081ABAAAAAAF8B5D1E90037FF1A41
:1069E0000023C0E90033044683600D48BB105843C0
:1069F0000E46FDF7B3FBC4E900000744A760D6E9E3
:106A000000670546B74207D01DB131462846FFF75B
:106A100073FF6C356C36F5E765602046F8BD00BF46
:106A200013DA4B6870B505460E461446B5420FD0D2
:106A30005CB129462046FFF7CFFF05F10C0104F1B8
:106A40000C00FDF7C9FB6B6A636228352834EDE75B
:106A5000204670BD2DE9F34704460D46FDF7F8FBCF
:106A600005F10C0204F10C039A4225D0D5E903810B
:106A7000E2686369A1EB08069B1A9E424AD9002E80
:106A800046D05D4B9E4201D905F03EFA3046019159
:106A9000FDF701FB019907463A464046FFF71EFF06
:106AA000E06818B16169091AFDF7FDFAE76037443B
:106AB0006761E3683344236105F1180104F11800AC
:106AC000FEF7D4FB05F1240304F12402934245D0E0
:106AD000D5E9096AD4F82490E36AAAEB0608A3EB87
:106AE0000903434555D245484FEAA8035843FDF7EB
:106AF000FBFA07468146B24520D0B9F1000F03D01A
:106B000031464846FEF76EFB09F10C090C36F2E7F8
:106B10003746C1E723699B1A9E4203D84046FFF7D8
:106B2000DDFEC6E708EB03014046FFF7D7FED4E9D8
:106B30000302D5E90331101A1844F0E7D4E909013A
:106B4000FEF7EFFA606A18B1E16A091AFDF7ABFACD
:106B500067624744E762636A4344A36205F1300118
:106B600004F1300005F026FA05F1480104F148006F
:106B7000FDF7C0FB6B6D6365AB6DA365EB6DE36506
:106B80002B6E23666B6E6366AB6EA36602B0BDE8C8
:106B9000F087A76AA7EB0907B8450DD830464A46E3
:106BA0005146FEF79BFBA76A0646B742D3D0304654
:106BB000FDF73CFE0C36F8E7104BBF105F43002F8B
:106BC00008DD31464846FEF751FB0C3609F10C0949
:106BD000013FF4E7D4E90967B91B6E6AD5F828903C
:106BE0000E44B145B7D01FB131463846FEF7FAFA28
:106BF0000C360C37F5E700BFFCFFFF7FABAAAAAA53
:106C00002DE9F0410C1A05460B48A41044431646E2
:106C100027469046002F08DD29464046FFF71AFF19
:106C20006C3508F16C08013FF4E724EAE4746C2049
:106C300000FB0460BDE8F08113DA4B6881422DE966
:106C4000F04704460F462CD0D1E9005AD0F8009006
:106C50008368AAEB0508A3EB0903434523D22A481E
:106C60004FEAA8035843FDF779FA06460746AA45B6
:106C700007D01FB129463846FFF73EFE6C376C350A
:106C8000F5E7D4E90001FEF777FA206818B1A168AA
:106C9000091AFDF708FA26604644A66023684344B3
:106CA0006360BDE8F0874668A6EB0906B0450DD8DD
:106CB00028464A465146FFF7A3FF66680546AE429E
:106CC000ECD02846FEF738FA6C35F8E70E4BB610D4
:106CD0005E43002E08DD29464846FFF7BBFE6C35B3
:106CE00009F16C09013EF4E7D4E90056711B3D68D7
:106CF0007F680D44AF42D1D01EB129463046FFF720
:106D0000FBFD6C356C36F5E713DA4B682DE9F04185
:106D10000C1A05461048E41044431746A046164690
:106D2000B8F1000F10DD29463046FFF787FF05F167
:106D30000C0106F10C0005F03DF96B6A7362283511
:106D4000283608F1FF38EBE724EAE474282000FB3A
:106D50000470BDE8F08100BFCDCCCCCC2DE9F84368
:106D6000A2EB01088368174602689B1A98450446FF
:106D70000E462AD9264B984502D9264805F0CAF86E
:106D800025484FEAA8035843FDF7E8F90546814630
:106D9000B7420AD0B9F1000F03D031464846FFF799
:106DA000ABFD6C3609F16C09F2E7D4E90001FEF79E
:106DB000E3F9206818B1A168091AFDF774F9256094
:106DC0004544C4E90155BDE8F8834568AD1AA845B6
:106DD0000BD839463046FFF713FF616888420546F5
:106DE000F1D0FEF7C9F96560EDE70D44304629465C
:106DF000FFF706FF6668AF4207D01EB1294630464E
:106E0000FFF77AFD6C356C36F5E76660DBE700BFAF
:106E1000A4FFFF7F17F10B0013DA4B6870B5ADF5D7
:106E20001E7D04F0BDFE4FF4165104F0ADFE4FF48C
:106E3000FA7002F029FD03F093F803F0DBF803F099
:106E40008FF8994A994D014617A803F0BDFD17A880
:106E500003F077F903F084F8954A014617A803F088
:106E6000B3FD17A803F06DF902A803F0A0FA0FCD47
:106E700011AC0FC42E68266011AD0FCD17AC0FC436
:106E800017A8266002F06EFE044617A8002C40F0FA
:106E9000E68002F083FE0094ADF82C0002230BAADA
:106EA000032102A803F078FA03F05AF8002202A99D
:106EB00003F0EAF817A8FDF73DFC7E4C7E4E04F087
:106EC000BDFF03F00DFF00217C4801F0B6FD7C49B9
:106ED000204604F0CCF950237A49A3637A4C02256A
:106EE0000620C1E91550C4E91550784D0322072347
:106EF00017A8C5E91523C6E91523FFF7FDFC3146A0
:106F000032A8FFF7F9FC29464DA8FFF7F5FC21460A
:106F100068A8FFF7F1FC6E4983A8FFF7EDFC6D4808
:106F20009EAA17A9FFF71AFF04246C2517AB05FBCF
:106F30000430FEF701F9013CF8D2674917A8FFF7C2
:106F4000DBFC664932A8FFF7D7FC65494DA8FFF77F
:106F5000D3FC644968A8FFF7CFFC634983A8FFF717
:106F6000CBFC62489EAA17A9FFF7F8FE04246C2503
:106F700017AB05FB0430FEF7DFF8013CF8D25549AA
:106F800005A8FFF729FD5A490BA8FDF7BFF8002413
:106F90001CAB05A917A8CDE91A34CDE917441994FB
:106FA0008DF87040FFF74AFE0BA91AA805F002F809
:106FB00005254E49209508A8FFF70EFD4D4911A85B
:106FC000FDF7A4F826ABCDE92434CDE92144239480
:106FD0008DF8984008A9484C21A8FFF72FFE11A969
:106FE00024A804F0E7FF2268A3682A959B1A4F2B78
:106FF0003DD85020FDF74FF82BA90246054617A8AB
:10700000FFF710FDD4E90001FEF7CFF8206818B1B2
:10701000A168091AFDF747F8374B1D605035C3E9E1
:10702000015524A804F0A8FF21A8FEF7B0F81AA87B
:1070300004F0A2FF17A8FEF7AAF811A804F09CFF1D
:1070400008A8FEF7A4F80BA804F096FF05A8FEF721
:107050009EF8029802F0D0FB0DF51E7D70BD02F087
:107060009FFD0023009302461023072119E765685E
:10707000AD1A4F2D0BD92BA917A8FFF747FE616852
:1070800088420546CDD0FEF790F86560C9E717AB9A
:107090001D4429461846FFF739FE62682BA9284689
:1070A000FFF7C0FC6060BCE7A4E603205452032055
:1070B0008CE603202CE60320D87D0320B0E60320D5
:1070C00044F30B0078530320E8E403207CE403201E
:1070D0003C55032058540320C0E50320645403208A
:1070E000D05403200C530320447E0320CC7D032086
:1070F00054F30B0058F30B00E85303200120FEF774
:10710000FBB900002DE9F04F2DED068B6C4B0022F2
:10711000B7B05868114602F037FB002800F05C85D4
:10712000684B1B78002B00F0578504F039FD664949
:1071300003F0ABFF654801F0FCFDD8B1644963483A
:1071400002F088F8614801F03DFF04F029FD614933
:1071500003F09BFF604B614DD3E90046A6420ED081
:1071600054F8042B029204F01BFD029A2946FDF705
:1071700041F9F3E75A49554801F0CCFEEAE704F03B
:107180000FFD03F076FF574BDFF894A11B68CAF898
:107190000030DFF8908100230293DAF80020D8F85D
:1071A000001028235A438B188A585B689B1A4E4A52
:1071B0009B105343029A934240F2928404F03EFEA5
:1071C00003F0CEFD494801F057FC044604F036FEBA
:1071D00003F0CFFD642C08D804F0E2FC444903F02E
:1071E00054FF4FF47A70FDF7BBFA4FF47A7002F057
:1071F0004BFB3C4B1B68013300F0EE843D4917A864
:1072000003F0EDFFDAF80020D8F80030282505FB60
:10721000023313A8D96803F0E2FF13A917A804F0FA
:1072200073F8354904F07CF8029BD8F800206C24F0
:107230005C43DAF800306B430646D35823441BA85E
:10724000196B03F0CCFF1BA9304604F05DF8014632
:107250002A482B4E03F0F4FF1BA803F075FF13A878
:1072600003F072FF17A803F06FFF264B264927484B
:1072700000933246264B00F0F3FC04F091FC2549C4
:1072800003F003FF244800F083FE71680391084671
:1072900005F092FE039902461F4800F05CFE1E486E
:1072A00001F066FA0390002840D104F079FC1B49F4
:1072B00037B0BDEC068BBDE8F04F03F0E6BE00BF73
:1072C00018E70320ACE603205DF30B00F85303201E
:1072D00068F30B007CF30B0094E6032086F30B00AD
:1072E0000FF20B004050032013DA4B68B0E6032086
:1072F0008BF30B0095F30B00A3F30B0054E6032074
:1073000078E60320ABF30B002CE60320B0550320F6
:1073100044500320AFF30B00B07E0320B7F30B0003
:10732000F4530320E853032000000000DAF8003093
:10733000D8F800201FED049A6B431BA8D1582144B4
:10734000FFF7DAFA1BA907A8FDF72EFB4FF000099B
:10735000A4490DA800F036FEA34A0DA910A801F01B
:1073600001F8002210A913A800F0D0FE9F4A13A92B
:1073700017A800F0F7FF4A4617A90AA800F0C6FEB2
:1073800017A800F097FD13A800F094FD10A800F0D6
:1073900091FD0DA800F08EFD954A0AA917A800F0EE
:1073A000E1FF17A913A800F0F7FF17A800F082FD6E
:1073B000904A0AA910A800F0D5FF10A917A800F05C
:1073C000EBFF10A800F076FD8B4A0AA910A800F088
:1073D000C9FF002110A800F0B3FE044610A800F079
:1073E00069FD864A0AA910A800F0BCFF10A8B0EEFB
:1073F000490A00F0B1FE10A8F0EE408A00F05AFDF4
:107400007F4A0AA910A800F0ADFF10A8B0EE490A03
:1074100000F0A2FE10A8B0EE408A00F04BFD159BD4
:10742000012B00F2848004F0BBFB7649764F03F019
:107430002CFE17A803F088FE13A803F085FE0AA807
:1074400000F038FD04F0FAFC03F08AFC029B0025F2
:10745000DE003B68002B40F08582022D06D06B4990
:1074600027A8FDF7C5FA002800F06C8204F0E6FCBE
:10747000674B196803F06AFC04F0E0FC2D9B04469E
:10748000196817A803F0ABFE17992046FCF7CEFE4B
:1074900017A803F059FE04F0D1FC2D9B044699690E
:1074A00017A803F09CFE17992046FCF7BFFE17A80B
:1074B00003F04AFE04F0C2FC03F04FFC3B68002BD3
:1074C00040F06682022D06D0504927A8FDF790FAB9
:1074D000002800F04D8204F0B1FC4D4B196803F018
:1074E00035FC3C68002C40F02183022D40F0858261
:1074F0004849DFF8249127A8FDF77AFA002800F020
:107500004D82D9F82410D1E906239B1A9A10D1E9AB
:1075100000135B1A9B1003EB5203A34240F2068355
:1075200004F08CFC3021FCF77DFE0134E9E7DDE955
:107530000735ED1AED104FF0000BAB4507993BDA1C
:1075400001EBCB06D6ED007A78EEE77A17EE900ADB
:1075500005F012F9D6ED017A78EE677A02460B460D
:1075600017EE900ACDE9042305F006F9DDE90423BE
:1075700041EC1A0B1046194605F056F953EC1A2B3C
:1075800006460F461AEE100A194605F04DF9024656
:107590000B463046394604F091FF41EC100B04F0E5
:1075A00081FE1E9E51EC100B05F00EFC06EB8B06C7
:1075B0000BF1010B3060C0E7DDE91E67BE422FD042
:1075C000321D3346974210462BD0D3ED007A90ED12
:1075D000007AB4EE677AF1EE10FA02F1040248BFC5
:1075E0000346EFE7B07E0320C6F30B00CCF30B009D
:1075F000D3F30B00DDF30B00E9F30B00F3F30B0007
:10760000FCF30B0006F40B00F453032018E50320F1
:10761000E45303206C55032078530320CCCCCC7D5D
:107620003346309A9B1BB2EBA30F4FEAA30008BF6F
:10763000319801EBC003D3ED007AD3ED016AF4EE8B
:10764000E78AF1EE10FA77EEE85A55BF38EE666A2F
:1076500076EEC87A78EEE77A87EEA57A4FEAC00C24
:1076600058BF86EE277A5FED137AB5EE407AF1EED9
:1076700010FA0AD0B4EEE77AF1EE10FABABFBFEE14
:10768000006AC6EE077AF0EE497AB0EE487AA7EEC5
:10769000A57AF4EEC76AF1EE10FA4CBF0127002775
:1076A000002871D191ED027ADDF8C4C037EE687A16
:1076B000F0EE486AE7EE276A91ED037AF4EEC76AC6
:1076C000F1EE10FACCBF01250025BCF1000F1DD151
:1076D000531E01EBC301BD4291ED000A91ED017A09
:1076E00040F09B8070EE688AA8EEA78AB4EEC78A45
:1076F000F1EE10FACCBF01210021A94200D1531CA8
:107700009A42C0F28C8011469C4605E0BD4274D07E
:10771000024684460123194606EB8C0006EB8101E4
:1077200090ED007AD1ED007A2198359D50F82C101B
:1077300077EE277A9542C7EE276A07EE901AB8EEE1
:10774000E78A28EE268A06DB3499914203DC9D42C3
:1077500001DB994266DD329D954266DC9D4264DC28
:107760003399914265DB994263DB039B29460225ED
:107770008C4561DD50F8212007EE902AF8EEE77A7B
:10778000013138EE278AF3E7ACF1080C8C449CED0C
:10779000007A37EE687AF0EE486AE7EE276A05F17C
:1077A000FF3E431E9CED017AF4EEC76AF1EE10FA3B
:1077B000CCBF4FF0010C4FF0000C864529D1319B16
:1077C000834218D1531E01EBC301BC4591ED000A61
:1077D00091ED017A02D0AB1E024691E770EE688A05
:1077E000A8EEA78AB4EEC78AF1EE10FACCBF012149
:1077F0000021614582E7BC45EDD117A803F0A4FC48
:1078000013A803F0A1FC0AA809F1010900F052FB3A
:107810009EE5BC45E0D1431CDEE702467AE7194607
:10782000944679E700230325A2E700210B460D4685
:107830009EE7002301259BE7AE4A249E1268002A9A
:1078400070D1002B4AD0AC4927A8FDF7D1F8F0B190
:10785000D6E906239B1A9B1007EE903AF8EE677A5A
:1078600037EEC88A012D47D1A44927A8FDF7C0F8F3
:10787000002849D0D6E903239B1A9B1007EE903AC3
:10788000F8EE677A37EEC88AC4F106043CE09C49FA
:1078900027A8FDF7ADF8C8B19A4B5B6AD3E9063269
:1078A000D21A9210530807EE903AF8EEE77A37EEC4
:1078B000888AFDEEC87A17EE903AB3FBF2F102FB2C
:1078C000113308EE103AB8EE488ACBE78E4927A864
:1078D000FDF78EF8002818BF0124C3E78B4927A8BD
:1078E000FDF786F828B9884927A8FDF781F8002810
:1078F000B8D0C4F10604B5E7032D05D17E4927A809
:10790000FDF776F80028BFD1B0EE480A04F084FCF9
:107910000C23BDEEC00A5D4310EE102A735943F8E4
:1079200022406AE7012AEFD1794927A8FDF760F8DC
:107930000028A9D1774927A8FDF75AF80028A3D134
:107940007549DCE7032D0DD16D49744C27A8FDF76F
:107950004FF818B104F072FA21688BE504F06EFA62
:10796000616887E504F06AFA6D4B1B68995981E5F7
:10797000032D0DD16249694C27A8FDF739F818B1DC
:1079800004F05CFA2168AAE504F058FA6168A6E5FB
:1079900004F054FA624B1B689959A0E509F13001D3
:1079A00027A8FDF725F820B9574927A8FDF720F8A3
:1079B00098B1D9F82420D2E900239B1AB4EBA30F85
:1079C00080F0B48004F03AFA249B1B6813F824106A
:1079D0003031FCF727FC0134EBE7D9F82420D2E959
:1079E00000239B1AB4EBA30F80F0A08004F026FACA
:1079F0003021FCF717FC0134EFE7012D40F0C9807E
:107A0000424927A8FCF7F4FF30B93F4927A8FCF703
:107A1000EFFF002800F08A80249AD2E906239B1AFF
:107A2000B4EBA30F80F0828004F008FA3021FCF759
:107A3000F9FB0134F0E7304927A8FCF7D9FF00280B
:107A400074D0DFF8E090DFF8E0B0D9F82400DBF87C
:107A50002410D0E90032D21AD1E909135B1A9B1025
:107A6000C3EBA203A34261D904F0E8F93021FCF78B
:107A7000D9FB0134E9E7194684E004F091F803F0FA
:107A8000F8FA013504F0DAF903F067F9042D06F18C
:107A900004067FF4DEAC04F0D1F903F06AF90023A8
:107AA0001C4600222499CD18C8586968091AB2EBFF
:107AB000A10F03D240F822400132F3E70C33302B00
:107AC000EFD104F06DF803F0D4FA07A8FCF79AFEA2
:107AD0001BA8FDF731FB029B01330293FFF75DBB4F
:107AE00004F05EF837B0BDEC068BBDE8F04F03F054
:107AF000C0BA00BFF4530320ACE403206C5503204C
:107B0000087E0320D87D032018E50320A853032016
:107B1000747E032094540320F0E50320A85503202D
:107B200094E603203C5503207CE4032004F038F85D
:107B3000279A2C492B46FCF75DFC0C246C434FF034
:107B40000009249A131912595B689B1AB9EBA30F09
:107B500093D204F073F9249B1B5913F82910303188
:107B6000FCF760FB04F01CF8249B1B5953F82930E8
:107B7000002B8346BFF67FAF2D21039303F076FAE7
:107B8000039B59420A22584603F089FA09F1010978
:107B9000D7E7032DCAD1144927A8FCF729FF0028ED
:107BA0003FF449AFDFF84490DFF844B0D9F824003F
:107BB000DBF82410D0E90032D21AD1E909135B1A9C
:107BC0009B10C3EBA203A342B0D904F037F93021D4
:107BD000FCF728FB0134E9E737B0BDEC068BBDE8C4
:107BE000F08F00BF0CF40B00087E03203C550320EF
:107BF000D87D032010B5044603F004FF204610BDD5
:107C000038B50446154603F02DFA0549204603F021
:107C100029FA29462046BDE8384003F036BA00BFAD
:107C2000B6F00B0038B50546144603F01BFA0B49B5
:107C3000284603F017FA002C0DDA2D21284603F010
:107C400015FA614228460A2203F029FA2846BDE8BF
:107C5000384003F00EBA2146F4E700BFB6F00B003F
:107C60002DE9F04F0E4691B098464FF0FF33136068
:107C7000044600213046DDF86890174603F087FB84
:107C8000D6F838E0034698B9BEF1000F14BF72462B
:107C90005022316892B2204603F0B4FC051E18BF92
:107CA0000125C5B9204611B0BDE8F04F03F060BE14
:107CB000764B0A9306F1140CBCE80F000BAD0FC510
:107CC000DCF800302B701FFA8EF200230AA9204640
:107CD00003F078FDE2E74946204603F0C3F96C491A
:107CE000204603F0BFF9B16A204603F0BBF96949A9
:107CF000204603F0B7F96849684A2046FFF780FF3D
:107D00000021304603F043FB20B932686449204625
:107D1000FFF776FF06F13C0A0021504603F037FBDF
:107D200028B9726C5F492046FFF77CFF06E05E4988
:107D3000484605F02FF902460028F3D0B8F1000FAD
:107D40000ED0D8F8001059B1D8F80420204622B13E
:107D5000FFF756FF08F10808F3E703F096F9F9E793
:107D6000204603F086F9204603F0ACFB0021504684
:107D700003F00DFB18B9F16B204603F086F904F10E
:107D80001C0A4FF420520021504605F0CDF801F0B6
:107D900047FB019001F044FB4FF00008464641F2DA
:107DA000883B204603F08AFDE8B1204603F070FBD3
:107DB000814601F035FB42F2FE739E42019004D8E9
:107DC000A31983F81C900136EBE742F2FF739E4241
:107DD000F9D104F50053002283F81B28204603F054
:107DE000C7FDA846EFE7A319187701F019FB019B1F
:107DF000A0EB0309B8F1000F04D1D94502D8C8207F
:107E000001F042FD204603F07BFC20B1D94502D8A9
:107E1000B8F1000FC5D0204603F0AAFD514602A8D4
:107E200003F0DDF90C23092202A906A803F0D4FA15
:107E30001E490AA803F0D3F90AA902A803F0C8FA58
:107E400004460AA803F080F9631C08D106A803F0D1
:107E50007BF902A803F078F911B0BDE8F08F3D1D61
:107E60001349284603F003FA221D02A90AA803F0C9
:107E7000D3FA0AA9284603F036FA0AA803F064F9EF
:107E8000069805F015F83860E0E700BF64F80B00CD
:107E900089F30B0098F50B00AAF50B00A4F50B0075
:107EA000B5F50B00BAF50B00C9F50B00CEF50B00CC
:107EB000D2F50B00704710B50C210446FCF7F3F81F
:107EC000204610BD10B5054B0360037C04461BB96A
:107ED000406808B101F090FC204610BDE0F50B00B1
:107EE00010B50446FFF7EEFF20461421FCF7DBF83F
:107EF000204610BD10B5074B0360037C04461BB938
:107F0000406908B101F078FC2046FFF7DBFF20460E
:107F100010BD00BFF0F50B0010B50446FFF7EAFFF7
:107F200020462C21FCF7BFF8204610BD38B5037C55
:107F300004460D460BB1002038BD406838B101F051
:107F400063FC0028F7D0C4E901050120F4E70846E6
:107F500001F04AFCF5E770B5C3680E461546D11826
:107F60004268044672B182688A420BD36068E36853
:107F70002A463146184404F0AFFFE2682A44E26022
:107F8000012070BD2046FFF7D1FF0028EED1F8E7B1
:107F900043680021C16023B1826812B1184604F021
:107FA000C3BF704710B5C0E901120022C2600122B0
:107FB00002744361024A029B0260C36110BD00BFAC
:107FC000F0F50B00D1E905239A42044B38BF8260DB
:107FD000C0E9003124BF00238360704700F60B0026
:107FE00070B513689D68136803F110041460866906
:107FF000B4420AD29B698C68A34201DAAB42F2DD3B
:10800000A342CCBF0020012000E0002070BD2DE97C
:10801000F341089D984601F1100304461746019369
:1080200000260198A36983421AD982688B689A4214
:1080300016DAAE420BD1386001AA2046FFF7D0FF16
:1080400028B1019BC8F8003002B0BDE8F08101AA58
:108050002046FFF7C5FF20460136FFF7C1FFE0E7E6
:108060000020F1E7F7B51F4601F11003044616465C
:1080700001930025019BA2699A420FD998688A68EA
:1080800090420BDAB54203D13B60012003B0F0BD52
:1080900001AA20460135FFF7A3FFEBE70020F5E733
:1080A000F0B5013B0024D1E90176F61BA64208DDBC
:1080B000A34206DD45683D442D5D02F8015B0134B5
:1080C000F1E700231370F0BD1FB5144610236A4674
:1080D000FFF7E6FF04492246684601F09DFB431E78
:1080E0005842584104B010BDC4F80B001FB51446E7
:1080F00010236A46FFF7D4FF6846002105F0BEFD55
:10810000012084ED000A04B010BD000073B50D46D7
:1081100089680A4E044661B1686801ABFFF7A2FFA7
:1081200038B16B68C4E90063019BA360204602B0CC
:1081300070BD6B68C4E900630023F6E700F60B002E
:1081400007B50191816819B1406801AAFFF7BCFF2A
:10815000019803B05DF804FB07B581688DED010A55
:1081600019B1406801AAFFF7C1FF9DED010A03B0F4
:108170005DF804FB10B5044600680B4628B103F017
:10818000B6F8E3680133E36010BD60680028F8D0FA
:10819000D4E90221013A8A4288BF4354F1E70346F9
:1081A0007F2B37B50846D9B204D803B0BDE83040BC
:1081B000FFF7E0BF01F03F01B3F5006FC3F3871590
:1081C00041F0800407D245F0C0010190FFF7D2FFD3
:1081D00001982146E9E71B0B43F0E0010190FFF70E
:1081E000C9FF05F03F01019841F08001EEE7000072
:1081F0002DE9FF4700244E68DFF8CCA080460F46EB
:108200001546A146B868B0425ADDD8F80430995DE9
:108210009A19002C4BD0752905D86D2907D86229E9
:108220001ED066291ED02846FFF7A4FF3DE0A1F12D
:108230006E04072CF7D80FF2080C5CF824F000BF8E
:1082400069820B0027820B0027820B0027820B001C
:108250006D820B0027820B0071820B0075820B0070
:108260000821E0E70C21DEE70A21DCE70D21DAE74F
:108270000921D8E7311D884217DD02A904333344B0
:10828000084612F8014F01F8014B9A42F9D101AAB0
:1082900051468DF80C9001F0BFFA012805D1BDF8C8
:1082A00004002946FFF77BFF0536002404E05C2923
:1082B00004D02846FFF75EFF0136A3E70124FBE761
:1082C000012004B0BDE8F087D3F50B007FB50C4664
:1082D00006460C491046154602F0C9FFD4E90131A3
:1082E000C91A0131284602F04DFF00236A46214693
:1082F0003046CDE9013300950393FFF779FF04B0D1
:1083000070BD00BFD2F50B002DE9F04389B00546E2
:10831000884604A812491646994602F060FF0027D5
:1083200000974B4603AA41462846FFF770FE0446D5
:1083300070B1039904AA2846FFF7C8FF044608B99C
:108340000137EDE7314604A803F021F80028F7D003
:1083500004A802F0F9FE204609B0BDE8F08300BF92
:10836000D2F50B0073B50D4689680A4E044661B11B
:10837000686801ABFFF7C8FF38B16B68C4E90063F8
:10838000019BA360204602B070BD6B68C4E9006326
:108390000023F6E700F60B0038B50D460549044604
:1083A00002F01DFFA96819B168682246FFF78EFF29
:1083B000204638BDD2F50B002DE9F04F44684FF050
:1083C000010C4FF0FF36D0F800E0964580F0B981FF
:1083D00011F80E80B8F1000F00F0B381B8F13A0F38
:1083E00000F0988033D8B8F1220F00F0A68010D8A2
:1083F000A8F109085FFA88F8B8F1170F0DD89F4D5A
:108400000CFA08F818EA050F07D005680135056071
:10841000D9E7B8F12C0F00F03381D0F80080424545
:108420000ED911F808505DB13A2D00F269811F2D67
:1084300000F251810A2D00F26081082D40F2568130
:10844000002B40F0628108F1FF350560A5E0B8F12E
:108450007B0F37D02ED8B8F15B0F33D0B8F15D0F5A
:10846000DBD1002BD1D04FF002094568013D03EB71
:108470000518002D55DBD8F8047001374DD0D8F819
:1084800008A0BAF1FF3F48D198F800B0CB454BD1D6
:108490000EF1010EC0F808A0C8F808E003EB051EB5
:1084A000DEF80470013742D0DEF8087001373ED1A3
:1084B0008560AAE7B8F17D0FAFD1002BA5D04FF0B2
:1084C0000109D2E70134002B9FD04568099FAF42D4
:1084D0004AD905F1010EC0F804E003EB051ECEE910
:1084E00001664FEA051A0025CEF80C5085686F1C0E
:1084F0001FBF03EB0519D9F80C500135C9F80C5012
:10850000B8F17B0F0CBF0125022503F80A5005685E
:10851000CEF804504568013DCAE7013DA8F11008B6
:10852000A7E701357FF471AF6FF001041EE0013D54
:108530006F1CAEF1100EB3D167E70EF10109C0F860
:108540000090D0F80080424540F2938011F8085026
:10855000002D00F08E80222D30D1F3B14568099FA7
:10856000AF4206D8C0F800E04FF0FF342046BDE827
:10857000F08F05F1010E4FEA051803EB0515C0F861
:1085800004E0C5E901660027EF60D0F800E04FF095
:10859000030A03F808A0C5E9019E85686F1C04F171
:1085A00001043FF432AF002B3FF42FAF03EB051E65
:1085B000DEF80C500135CEF80C5026E75C2D11D1B9
:1085C00008F10105AA420DD905604D5D752D2BD826
:1085D0006D2D0BD8662D27D85B2D1DD8222D01D0EF
:1085E0002F2D21D1056801350560AAE76E3D072DC5
:1085F0001AD801A757F825F0E5850B0029860B004E
:1086000029860B0029860B00E5850B0029860B00C7
:10861000E5850B002F860B005C3DEDB20CFA05F5ED
:1086200040F241473D42DDD1C0F800E07CE708F16F
:10863000020505604FF0040AD0F80080424503D8D7
:108640000568013D0560CDE711F80850002DF7D011
:10865000A5F1300BBBF1090F04D925F02005413DF0
:10866000052DE1D808F10105BAF1010A0560E3D151
:10867000E6E7C0F800E06FF0020477E7130080003F
:10868000002B3FF4C2AE85686F1C3FF4BEAE2D01D7
:108690005D5D013D012D7FF6B8AE456805F1FF38FF
:1086A00003EB051EB8F1000FFFF6AFAE1EF8105C2D
:1086B000013D012D0AD85EF80C5C013506D05EF84C
:1086C000085C013502D1C0F808809EE608F1FF3849
:1086D000AEF1100EE6E7A5F12009244F5FFA89F903
:1086E0000CFA09F919EA070F7FF4AAAE203D5E2DB6
:1086F0009AD808F1010505608FE60D2DF6D19FE6A9
:1087000005F0DF09B9F15D0FF8E74568099FAF4251
:108710007FF628AF05F101084FEA051903EB0515AF
:10872000C0F80480C5E901660027EF60D0F800803A
:108730004FF0040A03F809A0C5E901E80568013D06
:1087400083E6002B3FF412AF4268511E03EB021385
:108750000029FFF60BAF53F80C2C013203D053F86D
:10876000082C013287D00139103BF1E701100004D9
:10877000F7B5C268044612B9002003B0F0BD4369E2
:1087800000F12006ABB10021C0E908114FF0FF3124
:108790008162C169009141683046FFF70DFE431CBC
:1087A00028D1257C002DE7D1606901F025F86561AD
:1087B000E56100254FF0FF37C4E90855E2686168BC
:1087C000A76200952B463046FFF7F6FD0028D3DB65
:1087D000E06117D0000101F007F8E269606103462B
:1087E0000092C4E90855E2686168A7623046FFF765
:1087F000E3FD01E00028BFDB636903EB0010A0612B
:108800000120BAE76369A361FAE70368C9B29B680C
:108810001847704738B504460D4603F00FFB217921
:1088200002F090FA03F00AFB290AFFF7EEFF03F0CB
:1088300005FB2946FFF7E9FF03F000FB02F08DFA84
:1088400003F0FCFA2179012202F079FA03F0F6FA3A
:1088500003685B699847C0B238BD70B506461546D7
:108860000C4603F0EBFA317902F06CFA03F0E6FA09
:10887000210AFFF7CAFF03F0E1FA2146FFF7C5FF1F
:1088800003F0DCFA036829469B68984703F0D6FAA0
:10889000BDE8704002F061BA10B50122044640F212
:1088A0000721FFF7DAFF204601224FF40271FFF79C
:1088B000D4FF204600229621FFF7CFFF2046FD225D
:1088C0009721FFF7CAFF20460022E321FFF7C5FFEB
:1088D00020460422E421FFF7C0FF20460222E521C2
:1088E000FFF7BBFF20460122E621FFF7B6FF204637
:1088F0000322E721FFF7B1FF20460222F521FFF70F
:10890000ACFF20460522D921FFF7A7FF2046CE2243
:10891000DB21FFF7A2FF20460322DC21FFF79DFFAA
:108920002046F822DD21FFF798FF204600229F21F4
:10893000FFF793FF20463C22A321FFF78EFF20463E
:108940000022B721FFF789FF20463C22BB21FFF719
:1089500084FF20460922B221FFF77FFF204609222B
:10896000CA21FFF77AFF204601224FF4CC71FFF7AE
:1089700074FF204617224FF4D871FFF76EFF204690
:10898000002240F2AD11FFF768FF20460522FF21CB
:10899000FFF763FF204605224FF48071FFF75DFF6C
:1089A0002046052240F29911FFF757FF20461B226F
:1089B0004FF4D371FFF751FF20463E224FF4D6719A
:1089C000FFF74BFF20461F2240F2A711FFF745FF9C
:1089D000204600223021FFF740FF204610221121BF
:1089E000FFF73BFF204630224FF48571FFF735FF3C
:1089F000204646223F21FFF730FF2046FF2231214B
:108A0000FFF72BFF204663224021FFF726FF204679
:108A100001222E21FFF721FF204609221B21FFF70B
:108A20001CFF204631223E21FFF717FF204624225B
:108A3000BDE810401421FFF710BF292310B50446EC
:108A40000371A9B903F0FAF92060206802F048F92F
:108A500000212046FFF7DEFEB4280BD12046FFF7A9
:108A60001BFF204600221621FFF7F7FE012010BD54
:108A70000160EAE70020FAE738B504464D212046B8
:108A8000FFF7C8FEC207F9D5012218212046FFF7DB
:108A9000E4FE4F212046FFF7BDFE4307F9D56221D2
:108AA0002046FFF7B7FE0722054615212046FFF7AF
:108AB000D4FE284638BD91F85C3010B504460160FC
:108AC00013B1886D00F074FC204610BD10B503682A
:108AD00093F85C20044612B1986D00F071FC2046BA
:108AE00010BDF8B51F469DF8243004460D461646C5
:108AF0002BB1012380F85C30583000F051FC089B0A
:108B000023630023636306B1A66425B1294604F1FB
:108B1000380002F0ACFB069B2365079BE069A4F8D4
:108B20004C70FF2BB8BFFF23A4F8543008B1FBF7FB
:108B3000B8FAB4F85400FBF7B0FAE061F8BD0000F1
:108B40002DE9FF4104460025174698460E4602F0DF
:108B500059FF0D49E56104F1380002F040FB9DF832
:108B60002830A564CDE90283FF220F23CDE900322E
:108B7000204684F85C503B462A463146FFF7B1FF59
:108B8000204604B0BDE8F081D2F50B0010B50446D4
:108B9000204602F093FE0028FAD0204602F078FC2E
:108BA000C0B210BD2DE9F04705468846FFF7EEFF3D
:108BB000EB691870EB6993F800A04FF001090AF017
:108BC000F00A00274C462846FFF7E0FF2646EB69EF
:108BD000985500F07F0313FB09F31F44013403068B
:108BE000A4B2BFB24FEAC919EDD4631EBAF1300F77
:108BF00088F800301ED12846FFF7C8FFEB691855EA
:108C00002846FFF7C3FFF41C0236B6B2EB69A4B2E4
:108C100098550226B6B2BE420ED22846FFF7B6FFDE
:108C2000B5F85430A34284BFEB6918550134A4B29F
:108C30000136EFE70026EDE7B5F85430A3422CBF2C
:108C400020460020BDE8F0872DE9F34115461E4679
:108C50001A4607460023964602A802F07F0CBEF192
:108C60007F0F03F10104034488BF4CF0800CBEF178
:108C70007F0F4FEAD212E4B203F804CC1ED8C4F13D
:108C80000403C4F10500E954224601A9284405EB78
:108C9000030804F021F9721C22444146384602F0D0
:108CA000E2FB054600F0BCFB621C78623244A8B2CD
:108CB000131A5842584102B0BDE8F0812346CAE772
:108CC00013B50446014601A8FFF7F5FEE369E0226B
:108CD0001A70E36900225A70E1690222204602F00C
:108CE000C2FB204602F044FE00F09AFBC4E90900F2
:108CF00001A8FFF7EBFE02B010BD0233F0B5054648
:108D000098B20023CE5C9CB256B1B5F854C08445ED
:108D100003F1010704D9441C16543B46A0B2F1E705
:108D200099B2411A0A44210A02F8021C02F8013CD5
:108D3000F0BD38B5044602F0E3FC002814BF01255D
:108D4000002502D1204602F013FE284638BD00005F
:108D50002DE9F04788B00446DDF840809DF850A02A
:108D6000894617461E46FFF7E4FF0546002840F0F7
:108D7000CD80214601A8FFF79EFEA16C002940F09E
:108D80008880B4F84C20A16B2B46204602F03AFCB8
:108D900000287AD0012323849DF85430E269042B03
:108DA0005B4B40F08180186899889B79ADF80C1076
:108DB0008DF80E300290C2F805009DF80E30BDF817
:108DC0000C10A2F80910D3720C23B8F1000F00F0B8
:108DD00081809DF848009DF84420400140EAC2008F
:108DE00040F00600C0B2BAF1000F01D100F0FD0062
:108DF0001FB1002E70D140F08000E269D054226D86
:108E0000E169581C12120A549A1CE169206D8854B9
:108E10000333E26949462046FFF76FFF0346B8F186
:108E2000000F0BD0E26941462046FFF766FFE2697A
:108E3000139903462046FFF760FF034667B1E269D6
:108E400039462046FFF759FF03462EB1E269314605
:108E50002046FFF752FF0346053BE2699BB2102113
:108E60002046FFF7F1FE00F0DBFAC4E909004FF4F9
:108E70007A76204602F022FD88BB00F0D1FAA36A80
:108E8000C01A236D73439842F3D9204602F070FD57
:108E900035E002A801F0F4FFB4F84C202B4602A9FB
:108EA000204602F08FFC73E7D3F80700D3F80B10CD
:108EB000DB7B0DF1080CACE803008CF8003002AB52
:108EC00003CBC2F80500C2F809109CF800305373B8
:108ED0000E237AE7022086E740F0C0008DE702A962
:108EE0002046FFF75FFE0428CFD1E369DE78002E2D
:108EF000CBD100F095FA0125A06284F82C6001A87E
:108F0000FFF7E4FD284608B0BDE8F0870025F9E743
:108F100008F60B007FB501230422CDE904320023BB
:108F2000CDE90233CDE900331A46FFF711FF07B050
:108F30005DF804FB73B504460E46FFF7FAFE0546DE
:108F4000C8B1214601A8FFF7B6FDE36962221A7095
:108F5000E36902225A70E369320A9A70E369DE70AB
:108F6000E1690422204602F07EFA051E01A818BF1E
:108F70000125FFF7ABFD284602B070BD73B504466E
:108F80000E46FFF7D6FE0546C8B1214601A8FFF7F9
:108F900092FDE36972221A70E36902225A70E36952
:108FA000320A9A70E369DE70E1690422204602F019
:108FB0005AFA051E01A818BF0125FFF787FD2846AC
:108FC00002B070BD2DE9F04F2DED028B87B000AFE0
:108FD0000446FFF7AEFE8146F8B1214607F11400C2
:108FE000FFF769FD00F01CFA236D4FF47A725343CA
:108FF000A26A821A9A42064603D8626A821A934289
:1090000021D294F82C307BB1204602F0B1FC4FF015
:10901000000907F11400FFF759FD48461C37BD460B
:10902000BDEC028BBDE8F08FE269C0211170E269EE
:109030005370E1690222204602F015FAC4E909667C
:10904000012384F82C30204602F038FC0028E0D0C0
:1090500007F113012046FFF7A5FD83460028D8D06D
:10906000E369A662197801F0F002302A7FD1D4F8C2
:1090700030A0BAF1000FCCD097F813C06A4608EEC2
:10908000102A03EB0C025178957805EB0125ADB25F
:1090900005F108026946D208A1EBC20295460CF11F
:1090A0000302FA6003EB020E0DEB05026846C7F8F7
:1090B00008D07A60D7E901218A4206D00A461EF814
:1090C000018B02F8018BBA60F4E70022425593F855
:1090D0000080F96808F00608ABEB0C02033AB8F11F
:1090E000020FA2EB0502294425D113F801E019442F
:1090F000023A91F801B00CF10501294419440BEB37
:109100000E2BD047E36940221A70E3691FFA8BFBEC
:1091100083F80180E3694FEA1B229A70E36983F8C0
:1091200003B0E1690422204602F09DF9666218EE60
:10913000103A9D466DE7B8F1040F15D113F801E020
:109140001944023A91F801B00CF10501294419447F
:109150000BEB0E2BD047E36950221A70E369022211
:109160001FFA8BFB5A70D5E71944D047DFE7502A26
:1091700008D19A78D97801EB022189B22046FFF70D
:10918000D9FE46E7402A12D1626B002A3FF441AF74
:10919000BBF1040F7FF43DAF11F0060F7FF439AF40
:1091A0009978D87800EB012080B2904731E7602AA7
:1091B00008D19A78D97801EB022189B22046FFF7CD
:1091C000DDFE26E7702ADFD0902A3FF422AFC02AC6
:1091D0000AD1D0221A70E36900225A70E169022292
:1091E000204602F040F914E7D02A04BF002384F897
:1091F0002C300EE7F7B504460F461646FFF799FDEB
:10920000054610B3214601A8FFF755FC238C013316
:109210009BB2EBB12384238CE2691B0A5371E3698F
:10922000228C9A71E269072339462046FFF765FDD3
:10923000E3691E54043883B2E26982212046FFF7B5
:1092400003FD054601A8FFF741FC284603B0F0BD29
:109250000123DFE70022FFF7CDBF000038B5054648
:10926000FFF767FD10B12846FFF72AFDE86908B14E
:10927000FAF717FF05F1380001F066FFAC690A4BF9
:109280002B607CB16368013B63605BB92368204657
:109290009B689847A368013BA3601BB923682046DD
:1092A000DB689847284638BDECF80B0008B5024B40
:1092B0001B689B68019308BD7802030008B5024B48
:1092C0001B681B6D019308BD7802030008B5024BB3
:1092D0001B689B6D019308BD7802030008B5024B23
:1092E0001B681B6E019308BD7802030008B5034B91
:1092F0001B68D3F89830019308BD00007802030082
:1093000008B5034B1B68D3F8A830019308BD0000D3
:109310007802030008B5034B1B68D3F8B4300193FF
:1093200008BD00007802030008B5034B1B68D3F8A2
:10933000D830019308BD00007802030008B5034B44
:109340001B68D3F8DC30019308BD000078020300ED
:1093500008B5034B1B68D3F8EC30019308BD00003F
:109360007802030008B5034B1B68D3F8F030019373
:1093700008BD00007802030008B5034B1B68D3F852
:109380000031019308BD00007802030008B5034BCB
:109390001B68D3F80431019308BD00007802030074
:1093A00008B5024B1B681B6B019308BD4802030004
:1093B00008B5024B1B689B6B019308BD4802030074
:1093C00008B5024B1B681B6C019308BD48020300E3
:1093D00008B5024B1B685B6C019308BD4802030093
:1093E00008B5024B1B68DB6C019308BD4802030003
:1093F00008B5024B1B685B6D019308BD4802030072
:1094000008B5024B1B685B68019308BD1802030096
:1094100008B5024B1B68DB68019308BD1802030006
:1094200008B5024B1B685B69019308BD1802030075
:1094300008B5024B1B68DB68019308BD28020300D6
:1094400008B5024B1B689B69019308BD2802030005
:1094500008B5024B1B68DB69019308BD28020300B5
:1094600008B5024B1B681B6A019308BD2802030064
:1094700008B5024B1B685B6A019308BD2802030014
:1094800008B5024B1B689B6A019308BD28020300C4
:1094900008B5024B1B68DB6A019308BD2802030074
:1094A00008B5024B1B681B6B019308BD2802030023
:1094B00008B5024B1B681B6C019308BD2802030012
:1094C00008B5024B1B689B6C019308BD2802030082
:1094D00008B5024B1B68DB6C019308BD2802030032
:1094E00008B5024B1B681B6D019308BD28020300E1
:1094F00008B5024B1B685B69019308BD6C02030051
:1095000008B5024B1B685B69019308BD6402030048
:1095100008B5024B1B681B6A019308BD6402030077
:1095200008B5024B1B689B6A019308BD64020300E7
:1095300008B5024B1B689B68019308BD68020300D5
:1095400008B5024B1B68DB68019308BD6802030085
:1095500008B5024B1B689B69019308BD38020300E4
:1095600008B5024B1B68DB69019308BD3802030094
:1095700008B5024B1B681B6A019308BD3802030043
:1095800008B5024B1B689B6A019308BD38020300B3
:1095900008B5024B1B681B6B019308BD3802030022
:1095A00008B5024B1B689B6B019308BD3802030092
:1095B00008B5024B1B68DB68019308BD3C02030041
:1095C00008B5024B1B681B69019308BD3C020300F0
:1095D00008B5024B1B685B69019308BD3C020300A0
:1095E00008B5024B1B689B69019308BD3C02030050
:1095F00008B5024B1B68DB69019308BD3C02030000
:1096000008B5024B1B689B6A019308BD3C0203002E
:1096100008B5024B1B681B6C019308BD3C0203009C
:1096200008B5024B1B681B68019308BD4C02030080
:1096300008B5024B1B685B68019308BD4C02030030
:1096400008B5024B1B681B69019308BD4C0203005F
:1096500008B5024B1B685B69019308BD4C0203000F
:1096600008B5024B1B689B69019308BD4C020300BF
:1096700008B5024B1B68DB69019308BD4C0203006F
:1096800008B5024B1B681B6A019308BD4C0203001E
:1096900008B5024B1B685B6B019308BD60020300B9
:1096A00008B5024B1B681B6D019308BD60020300E7
:1096B00008B5024B1B685B68019308BD20020300DC
:1096C00008B5024B1B685B69019308BD20020300CB
:1096D00008B5034B1B68D3F88830019308BD000020
:1096E0002002030008B5034B1B68D3F894300193A4
:1096F00008BD00002002030008B5024B1B68DB6BAD
:10970000019308BD4402030008B5024B1B685B6867
:10971000019308BD4002030008B5024B1B689B681B
:10972000019308BD4002030008B5024B1B68DB68CB
:10973000019308BD4002030008B5024B1B681B697A
:10974000019308BD4002030008B5024B1B685B692A
:10975000019308BD4002030008B5024B1B689B69DA
:10976000019308BD4002030008B5024B1B68DB698A
:10977000019308BD4002030008B5024B1B681B6A39
:10978000019308BD4002030008B5024B1B685B6AE9
:10979000019308BD4002030008B5024B1B689B6A99
:1097A000019308BD4002030008B5024B1B681B6B08
:1097B000019308BD4002030008B5024B1B685B6BB8
:1097C000019308BD4002030008B5024B1B681B6CE7
:1097D000019308BD4002030008B5024B1B685B6C97
:1097E000019308BD4002030008B5024B1B681B68CB
:1097F000019308BD1C02030008B5024B1B685B689F
:10980000019308BD1C02030008B5024B1B689B684E
:10981000019308BD1C02030008B5024B1B685B697D
:10982000019308BD1C02030008B5024B1B685B6A6C
:10983000019308BD1C02030008B5024B1B68DB6ADC
:10984000019308BD1C02030008B5024B1B681B6B8B
:10985000019308BD1C02030008B5024B1B68DB6BBB
:10986000019308BD1C02030008B5024B1B681B6C6A
:10987000019308BD1C02030008B5024B1B685B6C1A
:10988000019308BD1C0203000021FFF719BF7047B8
:109890007047704770470000064B994210B500F1C1
:1098A0000C0405D0084602F03BFB002808BF00244A
:1098B000204610BDB8F70B00064B994210B500F1D9
:1098C0000C0405D0084602F02BFB002808BF00243A
:1098D000204610BDB8F70B00064B994210B500F1B9
:1098E0000C0405D0084602F01BFB002808BF00242A
:1098F000204610BDB8F70B0010B568210446FAF7F2
:10990000D2FB204610BD10B528210446FAF7CBFB48
:10991000204610BD10B530210446FAF7C4FB20469E
:1099200010BD6821FAF7BFBB2821FAF7BCBB302174
:10993000FAF7B9BBF0B50025EC1C8C420DD86E1CB3
:10994000445D875D974205D12644B14205D31D6031
:10995000601CF0BD01342544EEE70020F9E700006B
:10996000024A03490A20FFF793BE00BF11940B007F
:1099700018F60B0030B40D4611461A460368096804
:109980002868D3E90043A44630BC6047012A38B5B3
:10999000044602D10B68236003E0022A03D0032AA5
:1099A0000DD0002038BD08200D68FAF774FB03467F
:1099B0000028F0D095E8030083E80300EBE7006897
:1099C0000028EED00821FAF76EFBEAE710B58368AD
:1099D000044613B1032201469847204610BD10B536
:1099E00004465830FFF7F2FF04F14800BDE810408C
:1099F00001F0AABB10B54368013B0446436063B95C
:109A000003689B689847A368013BA3602BB9236850
:109A10002046DB68BDE81040184710BDA0F13003B8
:109A2000DAB2092A01D818467047A0F16103052B64
:109A300001D857387047A0F14103052B94BF373840
:109A40004FF0FF307047000010B500230370044B47
:109A500004461868FFF7C4FC01232370204610BD9C
:109A6000C0E6032010B5037804461BB1024B18680A
:109A7000FFF7BEFC204610BDC0E6032082B00346BF
:109A8000086849686A4603C26A4603CA18601846ED
:109A9000596002B0704708B582798B799A4206D135
:109AA000062203F009FAB0FA80F0400908BD002050
:109AB000FCE74FF0FF33036083800020704708B558
:109AC0000246002101604160FFF7F3FF91711046EB
:109AD00008BD000010B501230361054B024603F1E8
