:02000002B0004C
:1040000000400B0064E20B00000006000C000502FB
:084010000401E50C00000000B2
:04401800A8D20B001F
:1040200009480A49884208B505D0094A824202D0A7
:10403000121A07F093F80748074A0021121A07F0EE
:10404000B5F8014808BD00BF0C53032048E00B0041
:104050000055032000550320EDE7032070B5074EFF
:10406000074C05F0F9FFA41BA4080025AC4200D1C1
:1040700070BD56F8043B98470135F7E7ECDF0B00BD
:1040800014E00B0001F0E6BE08B502F013F8BDE83D
:10409000084005F099BF03F057BD03F055BD03F08C
:1040A0005BBD03F059BD0078B0FA80F0400970475D
:1040B000012303707047000010B5034B03600446F2
:1040C00002F040FE204610BDD0D50B0010B50446CE
:1040D000FFF7F2FF204646F2BC51FFF7E2FF204611
:1040E00010BD000008B5034650B1064A904201D900
:1040F00006F04CF80C205843BDE80840FFF7CBBF52
:1041000008BD00BFAAAAAA0A00F1080373B50446B5
:1041100003600D46D9B1084607F090F80F2805EB6B
:104120000006019007D9002201A9204606F044F8B4
:10413000019B2060A36032462946206806F077F88C
:10414000019B226863600021D15402B070BD014818
:1041500006F01FF8BCD20B0008B5034650B1064A62
:10416000904201D906F012F818205843BDE80840E3
:10417000FFF791BF08BD00BF5555550508B548B1BB
:10418000B0F1005F01D306F001F8BDE808408000FF
:10419000FFF781BF08BD08B548B1B0F1805F01D31A
:1041A00005F0F4FFBDE80840C000FFF774BF08BD8C
:1041B00070B506460C4615462AB90368BDE870403E
:1041C0009B68C9B2184700290BDA0A2A09D12D21A8
:1041D00005F0EAF86142EAB23046BDE8704005F009
:1041E000FCB82146F7E710B50446FFF7E1FF20468B
:1041F000BDE8104005F0DBB873B500F108030360BB
:10420000D1E900530446EE181DB916B10C4805F06B
:10421000C0FF0F2B019307D9002201A9204605F00A
:10422000CBFF019B2060A36032462946206805F041
:10423000F9FF019B226863600021D15402B070BD78
:10424000BCD20B000368C9B29B6818472DE9FF4137
:10425000544C554D80460E466846544905F05DF96C
:1042600022682B689A4200F393800027013EBE42E9
:1042700006D918F80710684605F0B2F90137F6E7D5
:1042800022682B689A4204DA49494A48002203F01E
:1042900055FF494E05F014FF3368226853F8221089
:1042A00004F004FF05F00CFF3321FFF7CBFF05F00E
:1042B00007FF04F002FF2368002B66DD3F496846D4
:1042C00005F0A7F9002847D005F0ACFD3C4905F002
:1042D0007AF8002033683B4A53F8201023681268AC
:1042E000013B42F8231005F0EBFE23683268013BE6
:1042F00052F8231004F0DAFE05F0E2FE3421FFF755
:10430000A1FF05F0DDFE04F0D8FE22682B689A427A
:104310003ED12D4B01221A704FF47A7003F064FCE9
:1043200005F080FD2949DFF89C80294F05F04BF806
:1043300000262B68B3422BDD05F074FDD8F8003061
:104340000A2253F82610FFF733FF05F06BFD3946BC
:1043500005F026F80136ECE71E49684605F059F9E4
:1043600030B105F05FFD1C4905F02DF80120B1E7E3
:104370001A49684605F04DF90028ABD005F052FD0A
:10438000174905F020F80220A4E72A689342C3D019
:10439000236868460133236005F074F804B0BDE873
:1043A000F08100BF485503201C53032026D70B0083
:1043B000E6D20B00A8E603203C5503202AD30B00CD
:1043C00022D30B0098E60320B0E6032049D30B006C
:1043D00030D50B0036D30B002ED30B0043D30B008C
:1043E0003BD30B0013B5044661B10846019106F0BA
:1043F00025FF23680199DB680246204602B0BDE82C
:104400001040184702B010BD8142F8B504460D4671
:1044100025D0D1E900710068A368CE1B1B1A9E420B
:104420001ED9F010FFF7B7FE002305469E420AD0C2
:10443000EA181CBFF918D1E9000103F1080318BFFD
:10444000C2E90001F2E7206818B1A168091AFFF774
:1044500028FE25603544A560236833446360F8BDB9
:104460006268121A964206D8B942F5D032463946E9
:1044700006F082FEF0E712B1394606F07DFED4E97F
:104480000027BB1A2A686D681A44AD1A00239D42A2
:10449000E2D017EB030C1CBFD118D1E9000103F1E6
:1044A000080318BFCCE90001F1E7000081422DE9C3
:1044B000F84F04468A4636D0D1E9005BD0F8009028
:1044C0008368394AABEB0507A3EB09034FEAE7081A
:1044D000BB4202FB08F828D24046FFF73DFE0646E5
:1044E0008046AB450AD0B8F1000F03D029464046BC
:1044F000FFF782FE08F118081835F2E7D4E90058F2
:10450000A84504D0284605F079FE1835F8E720685C
:1045100018B1A168091AFFF7C4FD26603E44A660E1
:1045200023683B446360BDE8F88F4668A6EB090644
:10453000B74219D84646CA46002E08DD29465046DD
:1045400005F07AFE18350AF1180A013EF4E728EA68
:10455000E8781825666805FB0895AE42E0D0284645
:1045600005F04CFE1835F8E7F6105643002E08DD2E
:104570002946484605F060FE183509F11809013E44
:10458000F4E7D4E90056711BDAF80050DAF8048039
:104590000D44A845C4D01EB129463046FFF72CFE75
:1045A00018351836F5E700BFABAAAAAA0EB403B5B2
:1045B00003AB002153F8042B019304F02CFF02B04D
:1045C0005DF804EB03B0704738B54FF40075142361
:1045D00004460360856005610549284605F0D4FD61
:1045E00003496060284605F0CFFDE060204638BDF5
:1045F0002CDB0B0010B50446006818B1A168091A3D
:10460000FFF74FFD204610BD10B50446006818B1F5
:10461000A168091AFFF745FD204610BD10B50446F4
:10462000006818B1A168091AFFF73BFD204610BDCC
:1046300070B5D0E900560446AE4204D0284605F0D5
:10464000DDFD1835F8E7206818B1A168091AFFF7F1
:1046500028FD204670BD0000B1F1005F70B5044632
:104660000D46164602D30C4805F096FD0023C0E91E
:10467000003383600846FFF781FD00EB8503C4E942
:104680000000A3602DB13268834202D040F8042BB1
:10469000FAE76060204670BD55D30B002DE9F34169
:1046A000002402AB03E90600C0E9004413460546B6
:1046B0008460D70042F31C00104AB2EBC30F884657
:1046C00002D20F4805F068FDFFF765FDC6190246E6
:1046D0002860AE6023469F420BD0D4181CBF08EB65
:1046E0000301D1E9000103F1080318BFC4E9000187
:1046F000F1E728466E6002B0BDE8F081F8FFFF7F69
:1047000055D30B002DE9F34102AB03E9060000236A
:10471000C0E900338360164618235E43104B0446FD
:10472000F01058430F4B9E420F4601EB060802D98A
:104730000D4805F031FDFFF70FFD064405462060EA
:10474000A660B84507D01DB139462846FFF754FD8D
:1047500018371835F5E72046656002B0BDE8F081EE
:10476000ABAAAAAAF8FFFF7F55D30B00F8B5D1E991
:1047700000370025FF1A0446C0E900558560F8108F
:104780000E46FFF708FDC4E900000744A760D6E91C
:1047900000760246F61B2B46B34202EB030506D019
:1047A0001DB1F91803C985E803000833F4E7656013
:1047B0002046F8BD08B542684B689A4208D14AB114
:1047C0000968006806F0BAFCB0FA80F0400908BD3C
:1047D0000020FCE70120FAE72DE9F04FBD4DDFF89E
:1047E000208391B02A68D8F800309A4200F0FF8008
:1047F0000023DFF81093DFF810A3B74F2B600824D5
:1048000005F010FB494606460CA804F086FE0A2275
:10481000214608A804F0B6FE08A90CA804F0EDFE95
:104820000168304604F0CFFD08A804F02BFE0CA868
:1048300004F028FE05F044FC214604F037FC05F0A6
:104840003FFC3121FFF7FEFC5FFA84FB05F038FCEA
:1048500004F033FC05F034FC1822594604F01FFC28
:1048600005F02EFC03681B699847002840F3BA80C6
:1048700005F0D8FA514606460CA804F04EFE0A226E
:10488000214608A804F07EFE08A90CA804F0B5FE95
:104890000168304604F097FD08A804F0F3FD0CA869
:1048A00004F0F0FD2B683946013304A82B6004F0B6
:1048B00034FE182605F004FC03685B699847C1B212
:1048C00004A804F08DFE013EF4D105F0F9FB214669
:1048D00004F0ECFB05F0F4FB0499FFF783FD05F011
:1048E000A1FA7E4906460CA804F017FE04A90CA8FC
:1048F00004F083FE0168304604F065FD0CA804F066
:10490000C1FD05F0DDFB04F0D8FB05F08BFA74491E
:1049100006460CA804F001FE0A22214608A804F06D
:1049200031FE08A90CA804F068FE0168304604F0C6
:104930004AFD08A804F0A6FD0CA804F0A3FD05F0AC
:10494000BFFB214604F0B2FB05F0BAFB3221FFF7B2
:1049500079FC05F0B5FB04F0B0FB05F063FA6149A2
:1049600006460CA804F0D9FD0A22214608A804F046
:1049700009FE08A90CA804F040FE0168304604F0C6
:1049800022FD08A804F07EFD0CA804F07BFD05F0D4
:1049900097FB0422594604F082FB394604A804F030
:1049A000DFFD042605F08CFB03685B699847C1B204
:1049B00004A804F015FE013EF4D105F033FA4A498B
:1049C00006460CA804F0A9FD04A90CA804F015FEE5
:1049D0000168304604F0F7FC0CA804F053FD04A86D
:1049E00004F050FD0134782C7FF40AAFFAE605F0AC
:1049F00019FA3E493E4E3F4F04F0E5FC08240025DD
:104A000005F05EFB214604F051FB05F059FB312116
:104A1000FFF718FC05F054FB04F04FFB05F050FBCA
:104A20001822E1B204F03BFB05F04AFB03681B6966
:104A3000984700280EDD05F0F5F90A222146FFF718
:104A4000B7FB05F0EFF9314604F0AAFC3B6843F8E8
:104A5000254001350134782CD2D10024DFF8AC8018
:104A6000DFF8ACB026462746D8E90012224B521A8E
:104A700092105A43B24275D96C2202FB06F301939D
:104A8000231D0293A1463A460025019BD8F8000059
:104A900003921844DBF80030416A01EB050E03EB8A
:104AA000090A4959DEF804308B4205D013493030E9
:104AB000FFF780FE039A68B30023CAF800300C3574
:104AC000182D09F1040902D101360834CCE73A4621
:104AD000DBE700BFA4E6032026D70B00BED30B0004
:104AE000CAD30B00E1D30B00FBD30B0013D40B0094
:104AF00030D50B003C55032013DA4B687CE50320CE
:104B00001C53032086D30B00A1D30B00B8E5032070
:104B100098E60320154B1968019B51F82220CAF82A
:104B20000020D8F8002012491A4402F1300A5046F9
:104B30000137FFF73FFE30B1DBF800200D4B52F894
:104B400009201A60BBE70C495046FFF733FE0028E6
:104B5000B5D0DBF80020094B115919600299525861
:104B60005A60ACE711B0BDE8F08F00BF3C550320A0
:104B7000E85503202456032058560320945603205A
:104B8000002938B504464FEA81050CD0B1F1005F29
:104B900001D305F0FBFA2846FFF77DFAC4E90000CF
:104BA0002844A06038BD0846F8E738B504460D46ED
:104BB000AC4204D02046FFF731FD0C34F8E738BD95
:104BC00010B504464830FFF733FD04F1300005F01E
:104BD00015FBD4E90901FFF7E8FF606A18B1E16A43
:104BE000091AFFF75EFA04F11800FFF717FD04F148
:104BF0000C00FFF709FD2046FFF7FCFC204610BD26
:104C0000814210B51346A1EB000405D001462246AF
:104C1000184606F0B1FA0346181910BD70B5D1E96F
:104C20000036F61A00230446C0E900338360B01052
:104C30000D46FFF7A3FAC4E900000644A660024649
:104C4000D5E90001FFF7DCFF6060204670BD000081
:104C50007FB504AB03E906000023C0E9003383609D
:104C6000044613460E46950001EB820142F31D00F7
:104C70000A4AB2EB830F02D2094805F08DFA01917E
:104C8000FFF77CFA0544024620600199A560304692
:104C9000FFF7B6FF606004B070BD00BFFCFFFF7F90
:104CA00055D30B008142F7B504460D461DD0D1E91E
:104CB000007102688368CE1B9B1A9E4217D9B01000
:104CC0000191FFF75BFA0199024605463846FFF766
:104CD00097FF206818B1A168091AFFF7E2F925606B
:104CE0003544A56023683344636003B0F0BD436876
:104CF0009B1A9E4203D83846FFF782FFF2E7F91865
:104D00003846FFF77DFFD4E90002D5E90031101ADB
:104D10001844F1E72DE9F0410C1A05460B48A410A0
:104D20004443164627469046002F08DD2946404654
:104D3000FFF7B8FF0C3508F10C08013FF4E724EA4F
:104D4000E4740C2000FB0460BDE8F081ABAAAAAAC1
:104D50002DE9F04F0025994600F13803C0E90C35E4
:104D60004FF0FF33C0E915330446C0E90055C0E9F0
:104D70000255C0E90455C0E90655C0E90855C0E927
:104D80000A55C0E9125599B080F838500565924629
:104D900000F1180B00F1300800F14807FFF734FB71
:104DA000D4E900239B1AAB424FEAE30102DA5F48E1
:104DB00005F0F2F909A80191CDE909550B95FFF726
:104DC000DFFE0199099831B100EB81068A0029467E
:104DD00006F0ECF93046D4E90352099963690E9361
:104DE000C4E903100CAE0B996161CDE90C52304659
:104DF0000025CDE909550B95FFF706FC09A8FFF73B
:104E000003FC51465846FFF74DFFD9F800100695B0
:104E1000096802AB06AA3046FFF71EFCD9F800105D
:104E20000795496803AB07AA0FA8FFF715FCD9F847
:104E300000100895896804AB08AA12A8FFF70CFCBB
:104E4000D9F80010099505AB09AAC96815A8FFF79C
:104E500003FC626AE36A9B1A2F2B3FD80420FFF7FA
:104E600041F9B346054600F1300A8146B9F1000F19
:104E700003D059464846FFF7D1FE09F10C09D14548
:104E80000BF10C0BF2D1D4E90901FFF78EFE606A39
:104E900018B1E16A091AFFF704F9C4E9095AC4F81C
:104EA0002CA018AD0C3D2846FFF7B8FBB542F9D150
:104EB0002299404605F0C0F938462399FFF7F6FAE3
:104EC000249B1B681A68E2655A6822669A68DB6848
:104ED00062662046A36619B0BDE8F08FA56AAD1AD8
:104EE0002F2D0BD918A93046FFF714FFA16A88426D
:104EF0000546D6D0FFF759FEA562D2E735442946CC
:104F00003046FFF707FFD4F8289018AB9D420AD02F
:104F1000B9F1000F03D029464846FFF77FFE0C3554
:104F200009F10C09F1E7C4F82890BAE755D30B0052
:104F30002DE9F04F2DED0E8B0128ADF50F7D40F0E2
:104F4000C385B64B7293B64B7393B64B7493B64B03
:104F50007593B64B7693B64B7793B64B7893B64B27
:104F60007993B64B7A93B64B7B9372AB4C930523F4
:104F7000DFF85CA34D930DF584784CAA434606CA2E
:104F80005AA8FFF78BFB9AE80F0065AC84E80F0086
:104F900004224AAB4A944B9293E8060057A8FFF7C5
:104FA00057FE61AA0025489228230422CDE96153C7
:104FB000499248AB0DF5D67B93E8060054A8CDE99D
:104FC0006355FFF745FE9F49DFED9F8A9FED9F8A5E
:104FD000DFED9F9A9FED9F9ADFED9FAA9FED9FAA1D
:104FE000DFED9FBA9FED9FBADFED9FDA9FED9FDA6D
:104FF000DFED9FCA9FED9FCA9FED9FEA5846FFF7DE
:1050000083F89E497EA8FFF77FF89D4984A8FFF7A3
:105010007BF87EAB46930223479346AA0DF5BA79F7
:1050200006CA40AB51A8FFF76DFB1022294648463F
:1050300006F0BCF8042244ABCDF81091459293E8F9
:1050400006004EA8FFF704FE4EAB029351AB57AAE1
:105050005AA9CDE900B38B4854ABFFF779FE4EA8AF
:10506000FFF7DCFA51A8FFF7E3FA84A805F0C6F8C9
:105070007EA805F0C3F8584605F0C0F854A8FFF71D
:10508000CDFA57A8FFF7CAFA5AA8FFF7B3FA7E4B32
:105090007E937E4B7F937E4B80937E4B81937E4BA2
:1050A00082937E4B83937E4B84937E4B85937E4B82
:1050B00086937E4B87937E4B88937E4B89937E4B62
:1050C0008A937E4B8B937EAB42930723439338AFF7
:1050D00098E806003B465AA8FFF7E0FA0AF1100CE0
:1050E000BCE80F005E460FC69CE803000623419310
:1050F000CDF800B140ABC6E9000193E8060057A81F
:105100000496FFF7A5FD61AA3E923C230422CDE957
:1051100062353F923EAB93E8060054A861956495D2
:10512000FFF796FD20466649FEF7EEFF654972A837
:10513000FEF7EAFF644978A8FEF7E6FF72AB3C93FE
:1051400002233D9336AE3CAA334606CA51A8FFF768
:10515000D9FA10222946484606F028F804223AAB2C
:10516000CDF8E8903B9293E806004EA8FFF770FD5B
:105170004EAB029351AB57AA5AA9CDE9004353480D
:1051800054ABFFF7E5FD4EA8FFF748FA51A8FFF72B
:105190004FFA78A805F032F872A805F02FF82046EB
:1051A00005F02CF854A8FFF739FA57A8FFF736FA9C
:1051B0005AA8FFF71FFA7EAB3893072339930DF1F6
:1051C000B80897E8060043465AA8CDED7EDA8DED83
:1051D0007FDACDED80CA8DED81CACDED828A8DED6D
:1051E000838ACDED84BA8DED85BACDED86AA8DED9D
:1051F00087AACDED889A8DED899ACDED8A8A8DEDBD
:105200008B8AFFF74BFA0AF128031F460FCFDC46C3
:10521000ACE80F00D7E900015CE000BF80692742DD
:105220001E43AFC2CC9D27420242AFC2959D27428A
:105230006D47AFC2A9A72742054EAFC282B327422E
:10524000444EAFC22AD30B001A8B27429A44AFC2F6
:105250002F8B27429540AFC2D88127424440AFC22E
:1052600016822742C144AFC29EA42742D04BAFC290
:1052700037A427425946AFC28940AFC223D40B009E
:105280002AD40B00C4E503209D7E2742B374AFC22D
:10529000AF8027428E58AFC24D8027422E48AFC202
:1052A000AD8027425741AFC2FF8A27425342AFC267
:1052B000F48A27429847AFC278A927425D5FAFC200
:1052C00036D30B0031D40B0038D40B004C550320DF
:1052D000E4D50B00049BCDF8D8B083E80300062387
:1052E000379396E8060057A80597FFF7B1FC07F13A
:1052F00008030FCB61AE86E80F00042234AB34966E
:10530000359293E8060054A8FFF7A2FC2046B34963
:10531000FEF7FAFEB24972A8FEF7F6FEB14978A888
:10532000FEF7F2FE72A9329102212CAE339132AA1D
:1053300006CA334651A8FFF7E5F907F118020FCA6C
:1053400089E80F00042130ABCDF8C090319193E88B
:1053500006004EA8FFF77CFC4EA9029151A9CDE9A9
:10536000004154A90B4657A90A469F485AA9FFF77E
:10537000EFFC4EA8FFF752F951A8FFF759F978A8AA
:1053800004F03CFF72A804F039FF204604F036FF19
:1053900054A8FFF743F957A8FFF740F95AA8FFF7B9
:1053A00029F9924B7293924B7393924B7493924B55
:1053B000789372A9914B2E9179930521904B7A9312
:1053C00024AF904B2F9198E806007B935AA83B4658
:1053D0008DED75EACDED769A8DED779AFFF75EF952
:1053E0000AF160030FCB84E80F0004212C942D9167
:1053F00096E8060057A8FFF72BFC0AF170030FCBC5
:1054000061AE86E80F0004212AAB2A962B9193E81F
:10541000060054A8FFF71CFC7B495846FEF774FEB3
:105420007A497EA8FEF770FE794984A8FEF76CFEE3
:105430007EA92891022122AE299128AA334606CAC4
:1054400051A8FFF75FF90AF180030FCB89E80F003D
:10545000042126ABCDF89890279193E806004EA83A
:10546000FFF7F6FB4EA9029151A9CDE900B154A96D
:105470000B4657A90A4667485AA9FFF769FC4EA888
:10548000FFF7CCF851A8FFF7D3F884A804F0B6FED4
:105490007EA804F0B3FE584604F0B0FE54A8FFF70F
:1054A000BDF857A8FFF7BAF85AA8FFF7A3F85A4B68
:1054B0007E935A4B7F935A4B80935A4B81935A4B0E
:1054C00082935A4B83937EA9594B2491849308214C
:1054D000584B8A930DF16808574B259197E80600C1
:1054E0008B930AF1900743465AA88DED85EACDEDDE
:1054F000869A8DED879ACDED888A8DED898ACDEDDE
:105500008CAA8DED8DAAFFF7C9F80FCFDC46ACE869
:105510000F0097E80700049FCDF888B087E80700E0
:105520000721239196E8060057A8FFF791FB0AF19F
:10553000AC030FCB61AE86E80F00042120AB2096B0
:10554000219193E8060054A8FFF782FB20463B49CF
:10555000FEF7DAFD3A4972A8FEF7D6FD394978A878
:10556000FEF7D2FD72A91E91022118AF1F911EAA4B
:105570003B4606CA51A8FFF7C5F80AF1BC030FCB9A
:1055800089E80F0004211CABCDF870901D9193E8C1
:1055900006004EA8FFF75CFB4EA9029151A9CDE988
:1055A000004154A90B4657A90A4627485AA9FFF7B4
:1055B000CFFB4EA8FFF732F851A8FFF739F878A8CB
:1055C00004F01CFE72A804F019FE204604F016FE3A
:1055D00054A8FFF723F857A838E000BF3FD40B00CA
:1055E00045D40B004CD40B00B855032097692742D3
:1055F000B840AFC2FE812742FB8A27429444AFC223
:10560000718927427964AFC243D30B0053D40B0096
:105610005AD40B00285603201A632742D24BAFC23C
:10562000C46E27421541AFC2B58027428640AFC243
:1056300000822742E18127427644AFC261D40B0049
:1056400068D40B006FD40B00B87E0320FEF7E6FF92
:105650005AA8FEF7CFFF7EA91A91072110AE1B9121
:1056600098E8060033465AA8CDED7EDA8DED7FDA54
:10567000CDED80CA8DED81CACDED828A8DED838A14
:10568000CDED84BA8DED85BACDED86AA8DED87AAD4
:10569000CDED889A8DED899ACDED8A8A8DED8B8A34
:1056A000FEF7FCFF0AF1280EBEE80F00DC46ACE86E
:1056B0000F000599049ACDF860B003C9C2E9000152
:1056C0000621199197E8060057A8FFF7C1FA0AF1D9
:1056D00040030FCB61AF87E80F00042116AB16978C
:1056E000179193E8060054A8FFF7B2FA2046B8498C
:1056F000DFF82C83FEF708FDB64972A8FEF704FD1B
:10570000B54978A8FEF700FD72AB149302231593F8
:105710000EAF14AA06CA3B4651A8FEF7F3FF0AF1E2
:1057200050020FCA89E80F00042212ABCDF848904E
:10573000139293E806004EA8FFF78AFA4EAB029345
:1057400051AB57AA5AA9CDE90043A44854ABFFF77F
:10575000FFFA4EA8FEF762FF51A8FEF769FF78A88E
:1057600004F04CFD72A804F049FD204604F046FD0B
:1057700054A8FEF753FF57A8FEF750FF5AA8FEF7AC
:1057800039FF974B7E93974B7F93974B8093974B23
:105790008193974B8293974B83937EAB109308230F
:1057A000119396E8060007AB0AF1CC065AA8CDED96
:1057B000848A8DED858ACDED869A8DED879ACDED23
:1057C00088AA8DED89AACDED8ABA8DED8BBACDED83
:1057D0008C8A8DED8D8AFEF761FF0FCEDC46ACE83A
:1057E0000F0096E80700049BCDF838B083E8070067
:1057F00007230F9397E8060057A8FFF729FA0AF145
:10580000E8030FCB61AE86E80F0004220CAB0C96C8
:105810000D9293E8060054A8FFF71AFA204676493D
:10582000764EFEF771FC764972A8FEF76DFC75495D
:1058300078A8FEF769FC72AB0A9302230B930AAABD
:1058400006CA06AB0AF1F80A51A8FEF75BFF9AE810
:105850000F0089E80F00042208ABCDF820900992D0
:1058600093E806004EA8FFF7F3F94EAB029351AB55
:1058700057AA5AA9CDE90043634854ABFFF768FA29
:105880004EA8FEF7CBFE51A8FEF7D2FE78A804F092
:10589000B5FC72A804F0B2FC204604F0AFFC54A89A
:1058A000FEF7BCFE57A8FEF7B9FE5AA8FEF7A2FE07
:1058B000564B57499D607EAAC3E900550968554873
:1058C0007E9572ABFEF7C8FE534B54499D60C3E909
:1058D0000055534802F094FB5249534802F090FBA4
:1058E0005249464802F08CFB0FCEA246AAE80F00B0
:1058F000B8E80F00C146D6F800C0CAF800C05E463E
:105900000FC659F810390593049BDFF848E11A4691
:105910002646059B13600FCE72AFCEE900550FC728
:10592000C7F800C0DC46BCE80F007EAE0FC6059B82
:1059300033607EAB70463E4900934FF0100272AB6D
:10594000CDE9015503F0C6F8DFF8DCC0BCE80F0074
:10595000A646AEE80F00B9E80F00DCF800E0CAF890
:1059600000E0DC46ACE80F00049BD8F80090C3F8D8
:1059700000900FCCDFF8E0800DF5E47C5C46ACE8ED
:105980000F00C8E90055C7F800E00FCC7EAF0FC785
:10599000284BC6F8009001937EAB4FF004022649D5
:1059A0000093404672AB029503F094F823492448D3
:1059B000244C03F0B2FD244803F0BCFB1F492348EC
:1059C00003F0ABFD1D49224803F0A7FD46E000BFF0
:1059D00076D40B007DD40B0084D40B004CE503205F
:1059E000766A27422B69AFC25F6B2742CD56AFC2A2
:1059F0002D8A2742D856AFC28BD40B0028550320DE
:105A000090D40B0097D40B00E0E40320B8E503200A
:105A10001C5303203C55032098E603209ED40B0022
:105A200000550320C3D40B0014550320E8D40B0009
:105A30000DD50B004D420B0010D50B0026D70B00E7
:105A400030E60320247F032040E6032058E60320AD
:105A50006CE60320A8E6032090E603203749384887
:105A600003F05BFD374800F0EDFF4FF47A730093CD
:105A700042F21072344B04F12C01204601F0BAF9C5
:105A8000324B23600DF50F7DBDEC0E8BBDE8F08F22
:105A9000206818B1A168091AFEF703FB2C48FFF72C
:105AA0008FF82C48FFF78CF82B48FFF789F82B4824
:105AB000FFF786F82A48FFF783F82A48FFF780F8AF
:105AC0002948FFF77DF8DDE72848FEF7F5FA1D4B7A
:105AD000274A9C691A607CB16368013B63605BB9CB
:105AE000236820469B689847A368013BA3601BB9C5
:105AF00023682046DB68984711481E4C03F0C2FC1F
:105B00001D4803F0BFFC1D4803F0BCFC1C4803F01B
:105B1000B9FC1C4802F0C5FC1B4802F0C2FC1B4843
:105B2000FEF77CFD1A48FEF779FDD4E90056AE4237
:105B3000AED02846FFF744F86C35F8E726D70B00BF
:105B400080E603209C56032060A60320D0D50B00DE
:105B5000E0E403204CE50320B87E03202856032010
:105B6000B85503204C550320C4E50320247F0320AF
:105B700030DA0B00B8E503206CE6032058E603207A
:105B800030E6032090E60320A8E6032098E60320F1
:105B90003C550320814210B51346A1EB000405D00B
:105BA00001462246184605F0E7FA0346181910BDCB
:105BB0002DE9F0410D460446FEF7D8FDD5E9033145
:105BC0000026C91AC4E903666661891004F10C0055
:105BD000FEF7D6FFE268D5E90301FFF7DBFF05F129
:105BE0001801206104F11800FFF718F8D5E909370A
:105BF0002648E662FF1ABB10C4E909665843FEF75F
:105C000071FAC4E909000744E762D5E90978064654
:105C1000B84507D01EB139463046FEF7FFFF0C36B7
:105C20000C37F5E7A66205F1300104F13000FEF70C
:105C3000E3FAD5E912371548FF1A0023C4E91233F5
:105C40002365FB105843FEF787FAC4E912000744A6
:105C50002765D5E912780646B84507D01EB1394602
:105C60003046FEF7C9FA18361837F5E7E6646B6D6B
:105C70006365AB6DA365EB6DE3652B6E23666B6EA1
:105C80006366AB6EA3662046BDE8F081ABAAAAAA04
:105C90002DE9F74FA1EB00086B49DFF8B4A14FEAFB
:105CA000A808054601FB08F81446B8F1000F40F3B8
:105CB000C68029462046FEF7A7FBA54225D0D5E998
:105CC0000391E2686369A1EB09069B1A9E4243D9DE
:105CD000002E3FD05D4B9E4201D904F057FA30466A
:105CE0000191FEF7D8F9019907463A464846FFF771
:105CF00051FFE06818B16169091AFEF7D2F9E7604F
:105D000037446761E3683344236105F1180104F106
:105D10001800FEF7C7FFA54242D0D5E9096B626AB9
:105D2000E16AABEB0609891A494556D24FEAA90048
:105D30000AFB00F0FEF7D6F907460246B3451FD02E
:105D40002AB1104631460192FEF768FF019A0C32E3
:105D50000C36F3E73746C8E723699B1A9E4203D8FF
:105D60004846FFF717FFCDE709EB03014846FFF769
:105D700011FFD4E90302D5E90331101A1844F0E702
:105D8000D4E90901FEF711FF606A18B1E16A091A46
:105D9000FEF787F967624F44E762636A4B44A36288
:105DA00005F1300104F1300004F046FA05F1480134
:105DB00004F14800FEF77AFB6B6D6365AB6DA3657C
:105DC000EB6DE3652B6E23666B6E6366AB6EA3664D
:105DD0006C356C3408F1FF3867E7A76ABF1AB9451C
:105DE0000CD830465946FEF795FFA76A0646B742DB
:105DF000D3D03046FEF712FC0C36F8E7BF100AFB92
:105E000007F7002F09DD314610460192FEF74AFFE1
:105E1000019A0C360C32013FF3E7D4E90967B91B4C
:105E20006E6AAB6A0E44B342B7D02FB131463846E2
:105E30000193FEF7F3FE019B0C360C37F3E7204687
:105E400003B0BDE8F08F00BF13DA4B68FCFFFF7FA3
:105E5000ABAAAAAA2DE9F041ADF5147D03F0E2FF4B
:105E60004FF4165103F0D2FF4FF4FA7001F0BCFE6C
:105E700002F026FA02F06EFA02F022FA7E4A7F4D14
:105E800001460DA802F050FF0DA802F00AFB02F037
:105E900017FA7B4A01460DA802F046FF0DA802F052
:105EA00000FB05A802F033FC0FCD08AC0FC42E6830
:105EB000266008AD0FCD0DAC0FC40DA8266002F012
:105EC00001F804460DA8002C65D102F017F80094E3
:105ED000ADF81000022304AA032105A802F00CFC6F
:105EE00002F0EEF9002205A902F07EFA654C664E3A
:105EF0000DA8FEF769FB04F0E3F803F0A1F863498D
:105F0000204603F02DFB50236149A363614C022519
:105F10000620C1E91550C4E915505F4D032207233F
:105F20000DA8C6E91523C5E91523FFF741FE314643
:105F300028A8FFF73DFE294643A8FFF739FE214672
:105F40005EA8564CFFF734FE554979A8FFF730FE9E
:105F50002268A3689B1AB3F5077F63D24FF40770DA
:105F6000FEF799F80DF13408054600F50777064667
:105F70001EB141463046FFF71BFE6C36B74208F1B2
:105F80006C08F5D1D4E90068B0450CD03046FEF776
:105F900017FE6C36F8E701F0B3FF002300930246CA
:105FA0001023072199E7206818B1A168091AFEF7A4
:105FB00078F8C4E90057A76004256C260DAB06FBF2
:105FC0000530FEF7FDFD013DF8D2D4E90031C91AD4
:105FD000344B89105943002403AB04AA490008A894
:105FE0000494FEF739FB304B089D9A680F92D3E971
:105FF00000011D60099D5D600A9D9D60CDE90D0158
:106000000DA8CDE908440A94FEF708FB08A8FEF79E
:1060100005FBFEF7E1FB059801F09EFD0DF5147DF3
:10602000BDE8F0816568AD1AB5F5077F10D394A976
:106030000DA8FFF72DFE6768B8420546BCD006469E
:1060400030466C36FEF7BCFDB742F9D16560B3E768
:106050000DAB1D4429461846FFF71AFE666894AB3F
:106060009D4207D01EB129463046FFF7A1FD6C3591
:106070006C36F4E766609FE7A8E60320005503202E
:1060800090E6032030E60320B87E032013D50B00F2
:10609000B85503204CE50320E0E40320B8E50320D5
:1060A0002856032013DA4B6898E603200120FEF7F8
:1060B0003FBF00002DE9F04F2DED068BDFF864B3F4
:1060C000BD4DB5B003F0AEFEBC4903F07CF9DBE991
:1060D0000046B44209D054F8042B029203F0A2FE09
:1060E000029A2946FEF762FAF3E703F09BFE03F0FB
:1060F0005EF903F097FEB24BB24C1968DFF82883C3
:106100000A22FEF770F803F08DFE21680A22FEF7DE
:106110006AF803F087FE61680A22FEF764F84FF020
:106120000009A94CD4E900239B1AA84A9B105343A9
:106130004B4540F241844FF47A7001F055FDA4497B
:10614000A44E19A803F0E9F96C25236805FB09F5AD
:106150002B4415A8196B03F0E0F915A919A803F051
:106160004CFA01469C4803F0ECF915A803F08AF9B3
:1061700019A803F087F9994B99499A480093324638
:10618000994B00F095FC03F04DFE984903F01BF984
:10619000974800F025FE71680291084605F04EF818
:1061A00002990246924800F0FEFD914801F008FA7B
:1061B000039048B903F036FE8E4935B0BDEC068B2E
:1061C000BDE8F04F03F0FFB821689FED8B9A29449A
:1061D00019A8FFF7EDFC19A905A8FEF7C7FA0023D7
:1061E000029383490BA800F015FE844A0BA90EA860
:1061F00000F0E0FF00220EA911A800F0AFFE804AD7
:1062000011A915A800F0D6FF029A15A908A800F058
:10621000A5FE15A800F076FD11A800F073FD0EA8EC
:1062200000F070FD0BA800F06DFD764A08A915A8D6
:1062300000F0C0FF15A911A800F0D6FF15A800F0C6
:1062400061FD714A08A90EA800F0B4FF0EA915A8B7
:1062500000F0CAFF0EA800F055FD6C4A08A90EA870
:1062600000F0A8FF00210EA800F092FE04460EA840
:1062700000F048FD664A08A90EA800F09BFF0EA892
:10628000B0EE490A00F090FE0EA8F0EE408A00F051
:1062900039FD604A08A90EA800F08CFF0EA8B0EEE8
:1062A000490A00F081FE0EA8B0EE408A00F02AFDF7
:1062B000139B012B2AD803F0B5FD5749574F03F024
:1062C00082F815A803F0DEF811A803F0DBF808A89F
:1062D00000F018FD4FEAC9060024022C00F01D82D0
:1062E000394625A8FEF766FA002840F01682032CEE
:1062F00040F077824A49334D25A8FEF75BFA002823
:1063000000F06B8203F0DCFE29680AE2DDE9053566
:10631000ED1AED104FF0000AAA45059935DA01EBA8
:10632000CA06D6ED007A78EEE77A17EE900A04F006
:1063300065FBD6ED017A78EE677A41EC1A0B17EE21
:10634000900A04F05BFB02460B4604F0AFFB53ECF3
:106350001A2B06460F461AEE100A194604F0A6FB41
:1063600002460B463046394604F0EAF941EC100B80
:1063700004F0DAF81C9E51EC100B04F067FE06EBFB
:106380008A060AF1010A3060C6E7DDE91C76B742E9
:106390004ED03A1D3B46964210464AD0D3ED007A85
:1063A00090ED007AB4EE677AF1EE10FA02F1040291
:1063B00048BF0346EFE700BF2ED50B0023D50B00E7
:1063C0002456032094560320B8E5032013DA4B68C3
:1063D00033D50B007CE6032058E603204BD50B0099
:1063E00030E603209C5603200C5303204FD50B00AE
:1063F000247F032057D50B000000000066D50B005A
:106400006CD50B0073D50B007DD50B0089D50B0027
:1064100093D50B009CD50B00A6D50B007CE5032083
:10642000E87E032098E60320B87E0320CCCCCC7D08
:106430003B462E9ADB1BB2EBA30F4FEAA30008BF2B
:106440002F9801EBC003D3ED007AD3ED016AF4EE8F
:10645000E78AF1EE10FA77EEE85A55BF38EE666A31
:1064600076EEC87A78EEE77A87EEA57A4FEAC0062C
:1064700058BF86EE277A5FED137AB5EE407AF1EEDB
:1064800010FA0AD0B4EEE77AF1EE10FABABFBFEE16
:10649000006AC6EE077AF0EE497AB0EE487AA7EEC7
:1064A000A57AF4EEC76AF1EE10FA4CBF4FF0010C7A
:1064B0004FF0000C002869D191ED027A2F9E37EE43
:1064C000687AF0EE486AE7EE276A91ED037AF4EE17
:1064D000C76AF1EE10FACCBF01250025EEB9531EB4
:1064E00001EBC301654591ED000A91ED017A40F0A1
:1064F000948070EE688AA8EEA78AB4EEC78AF1EE9F
:1065000010FACCBF01210021A94200D1531C9A42AC
:10651000C0F2858011461E4605E065456CD00246F6
:1065200006460123194607EB810107EB860090ED33
:10653000007AD1ED007A1F9977EE277A01EB860178
:10654000C7EE276A91ED008A3399B8EEC88A914266
:1065500028EE268A66DB329D954263DC994261DB38
:106560009D425FDC03F05EFCB74902F02CFF03277D
:1065700000231F9AAE426ADD52F8251007EE901AEA
:10658000F8EEE77A013538EE278AF3E7083E0E4445
:1065900096ED007A37EE687AF0EE486AE7EE276A01
:1065A00005F1FF3E431E96ED017AF4EEC76AF1EE67
:1065B00010FACCBF0126002686452AD12F9B8342A4
:1065C00018D1531E01EBC301664591ED000A91ED10
:1065D000017A02D0AB1E024699E770EE688AA8EEF7
:1065E000A78AB4EEC78AF1EE10FACCBF01210021D0
:1065F000B1428AE76645EDD1029B15A801330293AB
:1066000002F040FF11A802F03DFF08A800F07AFB5D
:10661000E7E56645DFD1431CDDE7024681E7194621
:10662000164680E7309991420ADC994208DC319D98
:10663000954209DB9D4207DB039B0D46022798E745
:1066400000252B462F4694E70023012791E7229D42
:10665000002B43D07D4925A8FEF7ACF8F0B1D5E971
:1066600006239B1A9B1007EE903AF8EE677A37EEF6
:10667000C88A012F3BD1764925A8FEF79BF8002850
:106680003DD0D5E903239B1A9B1007EE903AF8EE14
:10669000677A37EEC88AC4F1060430E06D4925A850
:1066A000FEF788F80028E4D0D8F82430D3E9063281
:1066B000D21A9210530807EE903AF8EEE77A37EEC6
:1066C000888AFDEEC87A17EE903AB3FBF2F102FB2E
:1066D000113308EE103AB8EE488ACAE75E4925A899
:1066E000FEF768F80028C4D0C4F10604C1E7032F00
:1066F00005D1564925A8FEF75DF80028CBD1B0EEAC
:10670000480A03F0CBFE0C23BDEEC00A5F4310EE37
:10671000102AEB5943F822406EE703F0D1FC4F4BAF
:10672000196802F0C3FC03F0CBFC2B9B05461968EB
:1067300015A802F0F2FE15992846FDF753FE15A89C
:1067400002F0A0FE03F0BCFC2B9B0546996915A83E
:1067500002F0E3FE15992846FDF744FE15A802F065
:1067600091FE03F0ADFC02F0A8FC022C3FD03946AC
:1067700025A8FEF71FF8002839D1032C76D135491A
:10678000374D25A8FEF716F8002859D003F098FCDD
:10679000296802F08BFC2F4925A8FEF70BF8054667
:1067A000002800F0BD80DFF8C0A00025DAF8240042
:1067B000D8F82410D0E90032D21AD1E909135B1AB3
:1067C0009B10C3EBA203AB4240F2098103F078FCBB
:1067D0003021FDF737FD0135E8E703F071FC69680A
:1067E0009FE703F06DFCDBF80030995999E703F05F
:1067F00067FC1A4B196802F059FC022C40F0E98042
:106800001349184D25A8FDF7D5FF8246002854D01E
:106810004FF0000A6A6AD2E906135B1A9910D2E9AE
:1068200000239B1A9B1003EB5103534540F2D78082
:1068300003F046FC3021FDF705FD0AF1010AE9E706
:1068400003F03EFC6968A4E7ACD50B0010E503201B
:1068500058560320E87E0320E855032024560320E1
:1068600094560320B85503202856032003F028FC33
:10687000DBF80030995902F019FC012C40F0AF8090
:106880006B4925A8FDF796FF0546002846D13946F5
:1068900025A8FDF78FFF002800F0A180229AD2E9F9
:1068A00006239B1AB5EBA30F80F0998003F008FC38
:1068B0003021FDF7C7FC0135F0E705F1300125A8CF
:1068C000FDF778FF029030B9394625A8FDF772FF31
:1068D000A0B1029B9A466A6AD2E900239B1ABAEBDE
:1068E000A30F7CD203F0ECFB229B1B6813F82A1049
:1068F0003031FDF7A7FC0AF1010AECE782466A6A2B
:10690000D2E900239B1ABAEBA30F68D203F0D8FB9D
:106910003021FDF797FC0AF1010AF0E70025BDE7F9
:10692000444925A8FDF746FF002858D0DFF810A1FC
:10693000DAF82410404BD1E90012586A511AD0E914
:106940000902121A9210C2EBA102AA4247D903F01F
:10695000B7FB3021FDF776FC0135E9E703F062FA79
:1069600002F025FD013403F0ABFB02F0A6FB042C82
:1069700006F104067FF4B1AC00231C4600222299E4
:10698000CD18C8586968091AB2EBA10F03D240F8B4
:1069900022400132F3E70C33302BEFD103F042FAFF
:1069A00002F005FD05A8FDF725FE19A8FEF708F978
:1069B00009F10109FFF7B5BB03F034FA02F0F7FC67
:1069C00003F030FA35B0BDEC068BBDE8F04F02F0B5
:1069D000EEBC012C3FF454AF032C3FF4DCAE03F0CB
:1069E00021FA259A15492346FDF7E0FD0C2565435C
:1069F0004FF0000A229A531952595B689B1ABAEB5E
:106A0000A30FABD203F05CFB229B5B5913F82A1057
:106A10003031FDF717FC03F005FA229B5B590A227F
:106A200053F82A10FDF7C4FB0AF1010AE2E700BFA0
:106A3000E855032010E50320E0E40320B5D50B0062
:106A40002856032010B5044603F01EF9204610BD59
:106A500038B50446154602F0A3FC0549204602F06D
:106A60009FFC29462046BDE8384002F0ACBC00BF80
:106A70001FD30B0038B50546144602F091FC0B49B4
:106A8000284602F08DFC002C0DDA2D21284602F05C
:106A90008BFC614228460A2202F09FFC2846BDE892
:106AA000384002F084BC2146F4E700BF1FD30B003E
:106AB0002DE9F04F0E4691B098464FF0FF3313602A
:106AC000044600213046DDF86890174602F0A1FD2B
:106AD000D6F838E0034698B9BEF1000F14BF7246ED
:106AE0005022316892B2204602F0CEFE051E18BF39
:106AF0000125C5B9204611B0BDE8F04F03F07AB8C2
:106B0000764B0A9306F1140CBCE80F000BAD0FC5D1
:106B1000DCF800302B701FFA8EF200230AA9204601
:106B200002F092FFE2E74946204602F039FC6C4948
:106B3000204602F035FCB16A204602F031FC69497A
:106B4000204602F02DFC6849684A2046FFF780FF86
:106B50000021304602F05DFD20B9326864492046CC
:106B6000FFF776FF06F13C0A0021504602F051FD86
:106B700028B9726C5F492046FFF77CFF06E05E494A
:106B8000484604F049FB02460028F3D0B8F1000F54
:106B90000ED0D8F8001059B1D8F80420204622B100
:106BA000FFF756FF08F10808F3E702F00CFCF9E7DD
:106BB000204602F0FCFB204602F0C6FD00215046B4
:106BC00002F027FD18B9F16B204602F0FCFB04F13E
:106BD0001C0A4FF420520021504604F0E7FA00F05E
:106BE000E7FD019000F0E4FD4FF00008464641F259
:106BF000883B204602F0A4FFE8B1204602F08AFD5F
:106C0000814600F0D5FD42F2FE739E42019004D809
:106C1000A31983F81C900136EBE742F2FF739E4202
:106C2000F9D104F50053002283F81B28204602F016
:106C3000E1FFA846EFE7A319187700F0B9FD019B23
:106C4000A0EB0309B8F1000F04D1D94502D8C82040
:106C500000F0CAFF204602F095FE20B1D94502D8C7
:106C6000B8F1000FC5D0204602F0C4FF514602A87B
:106C700002F053FC0C23092202A906A802F0EEFC44
:106C80001E490AA802F049FC0AA902A802F0E2FC87
:106C900004460AA802F0F6FB631C08D106A802F01D
:106CA000F1FB02A802F0EEFB11B0BDE8F08F3D1D34
:106CB0001349284602F054FC221D02A90AA802F03A
:106CC000EDFC0AA9284602F087FC0AA802F0DAFBCC
:106CD000069804F02FFA3860E0E700BFA8D90B004F
:106CE00031D50B00ECD60B00FED60B00F8D60B000E
:106CF00009D70B000ED70B001DD70B0022D70B00B6
:106D000026D70B00704710B50C210446FDF7C9F9D2
:106D1000204610BD10B5054B0360037C04461BB92B
:106D2000406808B100F018FF204610BD34D70B00B2
:106D300010B50446FFF7EEFF20461421FDF7B1F928
:106D4000204610BD10B5074B0360037C04461BB9F9
:106D5000406908B100F000FF2046FFF7DBFF204646
:106D600010BD00BF44D70B0010B50446FFF7EAFF83
:106D700020462C21FDF795F9204610BD38B5037C3F
:106D800004460D460BB1002038BD406838B100F014
:106D9000EBFE0028F7D0C4E901050120F4E708461E
:106DA00000F0D2FEF5E770B5C3680E461546D1185F
:106DB0004268044672B182688A420BD36068E36815
:106DC0002A463146184404F0C9F9E2682A44E260D0
:106DD000012070BD2046FFF7D1FF0028EED1F8E773
:106DE00043680021C16023B1826812B1184604F0E3
:106DF000DDB9704710B5C0E901120022C26001225E
:106E000002744361024A029B0260C36110BD00BF6D
:106E100044D70B00D1E905239A42044B38BF826066
:106E2000C0E9003124BF00238360704754D70B00B2
:106E300070B513689D68136803F1100414608669C7
:106E4000B4420AD29B698C68A34201DAAB42F2DDFC
:106E5000A342CCBF0020012000E0002070BD2DE93E
:106E6000F341089D984601F110030446174601932B
:106E700000260198A36983421AD982688B689A42D6
:106E800016DAAE420BD1386001AA2046FFF7D0FFD8
:106E900028B1019BC8F8003002B0BDE8F08101AA1A
:106EA0002046FFF7C5FF20460136FFF7C1FFE0E7A8
:106EB0000020F1E7F7B51F4601F11003044616461E
:106EC00001930025019BA2699A420FD998688A68AC
:106ED00090420BDAB54203D13B60012003B0F0BD14
:106EE00001AA20460135FFF7A3FFEBE70020F5E7F5
:106EF000F0B5013B0024D1E90176F61BA64208DD7E
:106F0000A34206DD45683D442D5D02F8015B013476
:106F1000F1E700231370F0BD1FB5144610236A4635
:106F2000FFF7E6FF04492246684600F025FE431EAF
:106F30005842584104B010BD08DA0B001FB5144682
:106F400010236A46FFF7D4FF6846002104F0D6FFFD
:106F5000012084ED000A04B010BD000073B50D4699
:106F600089680A4E044661B1686801ABFFF7A2FF69
:106F700038B16B68C4E90063019BA360204602B08E
:106F800070BD6B68C4E900630023F6E754D70B00BB
:106F900007B50191816819B1406801AAFFF7BCFFEC
:106FA000019803B05DF804FB07B581688DED010A17
:106FB00019B1406801AAFFF7C1FF9DED010A03B0B6
:106FC0005DF804FB10B5044600680B4628B102F0DA
:106FD00007FBE3680133E36010BD60680028F8D068
:106FE000D4E90221013A8A4288BF4354F1E70346BB
:106FF0007F2B37B50846D9B204D803B0BDE830407E
:10700000FFF7E0BF01F03F01B3F5006FC3F3871551
:1070100041F0800407D245F0C0010190FFF7D2FF94
:1070200001982146E9E71B0B43F0E0010190FFF7CF
:10703000C9FF05F03F01019841F08001EEE7000033
:107040002DE9FF4700244E68DFF8CCA080460F46AC
:107050001546A146B868B0425ADDD8F80430995DAB
:107060009A19002C4BD0752905D86D2907D86229AB
:107070001ED066291ED02846FFF7A4FF3DE0A1F1EF
:107080006E04072CF7D80FF2080C5CF824F000BF50
:10709000B9700B0077700B0077700B0077700B00E6
:1070A000BD700B0077700B00C1700B00C5700B003A
:1070B0000821E0E70C21DEE70A21DCE70D21DAE711
:1070C0000921D8E7311D884217DD02A90433334472
:1070D000084612F8014F01F8014B9A42F9D101AA72
:1070E00051468DF80C9000F047FD012805D1BDF800
:1070F00004002946FFF77BFF0536002404E05C29E5
:1071000004D02846FFF75EFF0136A3E70124FBE722
:10711000012004B0BDE8F08727D70B007FB50C46EF
:1071200006460C491046154602F01AFAD4E9013118
:10713000C91A0131284602F0C3F900236A462146E4
:107140003046CDE9013300950393FFF779FF04B092
:1071500070BD00BF26D70B002DE9F04389B005466E
:10716000884604A812491646994602F0D6F9002727
:1071700000974B4603AA41462846FFF770FE044697
:1071800070B1039904AA2846FFF7C8FF044608B95E
:107190000137EDE7314604A802F03BFA0028F7D0AA
:1071A00004A802F06FF9204609B0BDE8F08300BFE3
:1071B00026D70B0073B50D4689680A4E044661B1A7
:1071C000686801ABFFF7C8FF38B16B68C4E90063BA
:1071D000019BA360204602B070BD6B68C4E90063E8
:1071E0000023F6E754D70B0038B50D460549044691
:1071F00002F093F9A96819B168682246FFF78EFF7B
:10720000204638BD26D70B002DE9F04F44684FF0DB
:10721000010C4FF0FF36D0F800E0964580F0B981C0
:1072200011F80E80B8F1000F00F0B381B8F13A0FF9
:1072300000F0988033D8B8F1220F00F0A68010D863
:10724000A8F109085FFA88F8B8F1170F0DD89F4D1B
:107250000CFA08F818EA050F07D005680135056033
:10726000D9E7B8F12C0F00F03381D0F80080424507
:107270000ED911F808505DB13A2D00F269811F2D29
:1072800000F251810A2D00F26081082D40F25681F2
:10729000002B40F0628108F1FF350560A5E0B8F1F0
:1072A0007B0F37D02ED8B8F15B0F33D0B8F15D0F1C
:1072B000DBD1002BD1D04FF002094568013D03EB33
:1072C0000518002D55DBD8F8047001374DD0D8F8DB
:1072D00008A0BAF1FF3F48D198F800B0CB454BD198
:1072E0000EF1010EC0F808A0C8F808E003EB051E77
:1072F000DEF80470013742D0DEF8087001373ED165
:107300008560AAE7B8F17D0FAFD1002BA5D04FF073
:107310000109D2E70134002B9FD04568099FAF4295
:107320004AD905F1010EC0F804E003EB051ECEE9D1
:1073300001664FEA051A0025CEF80C5085686F1CCF
:107340001FBF03EB0519D9F80C500135C9F80C50D3
:10735000B8F17B0F0CBF0125022503F80A50056820
:10736000CEF804504568013DCAE7013DA8F1100878
:10737000A7E701357FF471AF6FF001041EE0013D16
:107380006F1CAEF1100EB3D167E70EF10109C0F822
:107390000090D0F80080424540F2938011F80850E8
:1073A000002D00F08E80222D30D1F3B14568099F69
:1073B000AF4206D8C0F800E04FF0FF342046BDE8E9
:1073C000F08F05F1010E4FEA051803EB0515C0F823
:1073D00004E0C5E901660027EF60D0F800E04FF057
:1073E000030A03F808A0C5E9019E85686F1C04F133
:1073F00001043FF432AF002B3FF42FAF03EB051E27
:10740000DEF80C500135CEF80C5026E75C2D11D17A
:1074100008F10105AA420DD905604D5D752D2BD8E7
:107420006D2D0BD8662D27D85B2D1DD8222D01D0B0
:107430002F2D21D1056801350560AAE76E3D072D86
:107440001AD801A757F825F035740B0079740B0092
:1074500079740B0079740B0035740B0079740B0090
:1074600035740B007F740B005C3DEDB20CFA05F532
:1074700040F241473D42DDD1C0F800E07CE708F131
:10748000020505604FF0040AD0F80080424503D899
:107490000568013D0560CDE711F80850002DF7D0D3
:1074A000A5F1300BBBF1090F04D925F02005413DB2
:1074B000052DE1D808F10105BAF1010A0560E3D113
:1074C000E6E7C0F800E06FF0020477E71300800001
:1074D000002B3FF4C2AE85686F1C3FF4BEAE2D0199
:1074E0005D5D013D012D7FF6B8AE456805F1FF38C1
:1074F00003EB051EB8F1000FFFF6AFAE1EF8105CEF
:10750000013D012D0AD85EF80C5C013506D05EF80D
:10751000085C013502D1C0F808809EE608F1FF380A
:10752000AEF1100EE6E7A5F12009244F5FFA89F9C4
:107530000CFA09F919EA070F7FF4AAAE203D5E2D77
:107540009AD808F1010505608FE60D2DF6D19FE66A
:1075500005F0DF09B9F15D0FF8E74568099FAF4213
:107560007FF628AF05F101084FEA051903EB051571
:10757000C0F80480C5E901660027EF60D0F80080FC
:107580004FF0040A03F809A0C5E901E80568013DC8
:1075900083E6002B3FF412AF4268511E03EB021347
:1075A0000029FFF60BAF53F80C2C013203D053F82F
:1075B000082C013287D00139103BF1E7011000049B
:1075C000F7B5C268044612B9002003B0F0BD4369A4
:1075D00000F12006ABB10021C0E908114FF0FF31E6
:1075E0008162C169009141683046FFF70DFE431C7E
:1075F00028D1257C002DE7D1606900F0ADFA6561E6
:10760000E56100254FF0FF37C4E90855E26861687D
:10761000A76200952B463046FFF7F6FD0028D3DB26
:10762000E06117D0000100F08FFAE2696061034663
:107630000092C4E90855E2686168A7623046FFF726
:10764000E3FD01E00028BFDB636903EB0010A061EC
:107650000120BAE76369A361FAE7000008B500F00A
:10766000AFF8014B186008BDB4E6032008B5024B23
:107670001B689B68019308BD7802030008B5024BA4
:107680001B681B6D019308BD7802030008B5024B0F
:107690001B689B6D019308BD7802030008B5024B7F
:1076A0001B681B6E019308BD7802030008B5034BED
:1076B0001B68D3F89830019308BD000078020300DE
:1076C00008B5034B1B68D3F8A830019308BD000030
:1076D0007802030008B5034B1B68D3F8B43001935C
:1076E00008BD00007802030008B5034B1B68D3F8FF
:1076F000D830019308BD00007802030008B5034BA1
:107700001B68D3F8DC30019308BD00007802030049
:1077100008B5034B1B68D3F8EC30019308BD00009B
:107720007802030008B5034B1B68D3F8F0300193CF
:1077300008BD00007802030008B5034B1B68D3F8AE
:107740000031019308BD00007802030008B5034B27
:107750001B68D3F80431019308BD000078020300D0
:1077600008B5024B1B685B6C019308BD480203001F
:1077700008B5024B1B68DB6C019308BD480203008F
:1077800008B5024B1B685B6D019308BD48020300FE
:1077900008B5024B1B685B68019308BD1802030023
:1077A00008B5024B1B68DB68019308BD1802030093
:1077B00008B5024B1B685B69019308BD1802030002
:1077C00008B5024B1B681B68019308BD2C0203001F
:1077D00008B5024B1B68DB68019308BD2802030053
:1077E00008B5024B1B689B69019308BD2802030082
:1077F00008B5024B1B68DB69019308BD2802030032
:1078000008B5024B1B681B6A019308BD28020300E0
:1078100008B5024B1B685B6A019308BD2802030090
:1078200008B5024B1B689B6A019308BD2802030040
:1078300008B5024B1B68DB6A019308BD28020300F0
:1078400008B5024B1B681B6B019308BD280203009F
:1078500008B5024B1B681B6C019308BD280203008E
:1078600008B5024B1B681B6D019308BD280203007D
:1078700008B5024B1B685B69019308BD6C020300ED
:1078800008B5024B1B685B69019308BD64020300E5
:1078900008B5024B1B681B6A019308BD6402030014
:1078A00008B5024B1B689B6A019308BD6402030084
:1078B00008B5024B1B689B68019308BD6802030072
:1078C00008B5024B1B68DB68019308BD6802030022
:1078D00008B5024B1B689B69019308BD3802030081
:1078E00008B5024B1B68DB69019308BD3802030031
:1078F00008B5024B1B681B6A019308BD38020300E0
:1079000008B5024B1B689B6A019308BD380203004F
:1079100008B5024B1B681B6B019308BD38020300BE
:1079200008B5024B1B689B6B019308BD380203002E
:1079300008B5024B1B68DB68019308BD3C020300DD
:1079400008B5024B1B681B69019308BD3C0203008C
:1079500008B5024B1B685B69019308BD3C0203003C
:1079600008B5024B1B689B69019308BD3C020300EC
:1079700008B5024B1B68DB69019308BD3C0203009C
:1079800008B5024B1B689B6A019308BD3C020300CB
:1079900008B5024B1B681B6C019308BD3C02030039
:1079A00008B5024B1B681B68019308BD4C0203001D
:1079B00008B5024B1B685B68019308BD4C020300CD
:1079C00008B5024B1B681B69019308BD4C020300FC
:1079D00008B5024B1B685B69019308BD4C020300AC
:1079E00008B5024B1B689B69019308BD4C0203005C
:1079F00008B5024B1B68DB69019308BD4C0203000C
:107A000008B5024B1B681B6A019308BD4C020300BA
:107A100008B5024B1B685B6B019308BD6002030055
:107A200008B5024B1B681B6D019308BD6002030083
:107A300008B5024B1B685B68019308BD2002030078
:107A400008B5024B1B685B69019308BD2002030067
:107A500008B5034B1B68D3F88830019308BD0000BC
:107A60002002030008B5034B1B68D3F89430019340
:107A700008BD00002002030008B5024B1B68DB6B49
:107A8000019308BD4402030008B5024B1B685B6804
:107A9000019308BD4002030008B5024B1B689B68B8
:107AA000019308BD4002030008B5024B1B68DB6868
:107AB000019308BD4002030008B5024B1B681B6917
:107AC000019308BD4002030008B5024B1B685B69C7
:107AD000019308BD4002030008B5024B1B689B6977
:107AE000019308BD4002030008B5024B1B68DB6927
:107AF000019308BD4002030008B5024B1B681B6AD6
:107B0000019308BD4002030008B5024B1B681B6BC4
:107B1000019308BD4002030008B5024B1B685B6B74
:107B2000019308BD4002030008B5024B1B681B6CA3
:107B3000019308BD4002030008B5024B1B685B6C53
:107B4000019308BD4002030008B5024B1B681B6887
:107B5000019308BD1C02030008B5024B1B685B685B
:107B6000019308BD1C02030008B5024B1B689B680B
:107B7000019308BD1C02030008B5024B1B685B693A
:107B8000019308BD1C02030008B5024B1B685B6A29
:107B9000019308BD1C02030008B5024B1B68DB6A99
:107BA000019308BD1C02030008B5024B1B681B6B48
:107BB000019308BD1C02030008B5024B1B68DB6B78
:107BC000019308BD1C02030008B5024B1B681B6C27
:107BD000019308BD1C02030008B5024B1B685B6CD7
:107BE000019308BD1C0203000021FFF729BF704765
:107BF0007047704770470000064B994210B500F17E
:107C00000C0405D0084602F0CDFA002808BF002475
:107C1000204610BDFCD80B00064B994210B500F170
:107C20000C0405D0084602F0BDFA002808BF002465
:107C3000204610BDFCD80B00064B994210B500F150
:107C40000C0405D0084602F0ADFA002808BF002455
:107C5000204610BDFCD80B0010B568210446FCF787
:107C600020FA204610BD10B528210446FCF719FA69
:107C7000204610BD10B530210446FCF712FA20460C
:107C800010BD6821FCF70DBA2821FCF70ABA302193
:107C9000FCF707BAF0B50025EC1C8C420DD86E1C21
:107CA000445D875D974205D12644B14205D31D60EE
:107CB000601CF0BD01342544EEE70020F9E7000028
:107CC000024A03490A20FFF7A3BE00BFA1770B00B9
:107CD0005CD70B0030B40D4611461A46036809689C
:107CE0002868D3E90043A44630BC6047012A38B570
:107CF000044602D10B68236003E0022A03D0032A62
:107D00000DD0002038BD08200D68FCF7C4F90346EB
:107D10000028F0D095E8030083E80300EBE7006853
:107D20000028EED00821FCF7BCF9EAE710B583681B
:107D3000044613B1032201469847204610BD10B5F2
:107D400004465830FFF7F2FF04F14800BDE8104048
:107D500001F098BB10B54368013B0446436063B92A
:107D600003689B689847A368013BA3602BB923680D
:107D70002046DB68BDE81040184710BDA0F1300375
:107D8000DAB2092A01D818467047A0F16103052B21
:107D900001D857387047A0F14103052B94BF3738FD
:107DA0004FF0FF307047000010B500230370044B04
:107DB00004461868FFF7DCFC01232370204610BD41
:107DC000C0E6032010B5037804461BB1024B1868C7
:107DD000FFF7D6FC204610BDC0E6032082B0034664
:107DE000086849686A4603C26A4603CA18601846AA
:107DF000596002B0704708B582798B799A4206D1F2
:107E0000062203F09BF9B0FA80F0400908BD00207B
:107E1000FCE74FF0FF33036083800020704708B514
:107E20000246002101604160FFF7F3FF91711046A7
:107E300008BD000010B501230361054B024603F1A4
:107E4000100153F8044B42F8044B8B42F9D110BD9A
:107E50000AD90B0010B50B460446B1B1012A01F155
:107E600010020AD1014653F8040B41F8040B934267
:107E7000F9D101232361204610BD411E12F8010DE6
:107E800001F8010F9A42F9D1F3E7102203F08EF9BD
:107E9000F1E738B5044615461A46FFF7DBFFA58122
:107EA000204638BD08B5026922B98089003818BF5C
:107EB000012008BD0249102203F040F9F6E700BF97
:107EC0002AD90B000069704738B50C4614220021EE
:107ED000054603F06BF923691BB9A3892B8028465B
:107EE00038BD01232B7421462B4604F1100251F8B2
:107EF000040B43F8040B9142F9D1F0E780897047F5
:107F0000704708B502690B699A4206D1102203F046
:107F100015F9B0FA80F0400908BD0020FCE7000028
:107F200001232DE9F3410361344B0C46064602461A
:107F300003F1100153F8040B42F8040B8B42F9D102
:107F400044B32421204603F095F904284FF000059E
:107F500023D1ADF8045001AFA51C063415F8020C6E
:107F6000FFF70CFFB0F1000812DB15F8010CFFF76A
:107F700005FF00280CDB023540EA0810A54207F88F
:107F8000010BEBD19DF8053033739DF8043073730A
:107F90000023336102B0BDE8F0814FF010082421C6
:107FA000204603F067F9A84207D842460021304630
:107FB00002B0BDE8F04103F0F9B8B8F1000FE9D024
:107FC000605DFFF7DBFE030615D4000108F1FF3802
:107FD000C7B206F808702421204603F04BF901359A
:107FE000A84208D9605DFFF7C9FE40B20028A4BFCF
:107FF000384306F808000135D1E700BF0AD90B0065
:1080000013B504460191FFF715FF20460199FFF7CC
:1080100087FF204602B010BD38B54FF6FF7300252C
:10802000044643800E22294605700571063003F090
:10803000BDF804F11400FFF7FDFE04F12800FFF77E
:10804000F9FE044904F13C0001F067FA6565204639
:1080500038BD00BF26D70B0010B5D0E9063203EBC0
:10806000C2029342184606D0046824888C4203F169
:108070000803F6D110BD0020FCE70000F0B506466D
:1080800085B01F460D46002950D0002A4ED0046806
:108090002378F42A28BFF42243B32379980709D51B
:1080A000A08903920023FFF715FB0028039A03DA47
:1080B00005B0F0BD6FF0770034682379D90609D593
:1080C000012F07D0A0890023294605B0BDE8F04064
:1080D000FFF732BB9B06EBD5022FE9D0A089002326
:1080E000294605B0BDE8F040FFF730BB60884FF689
:1080F000FF7188421CD021794E0701D5012F04D190
:108100000B0709D46FF07700D2E7A18900931346DB
:108110002A46FFF7F3FACBE7022FF3D00023A18919
:10812000009313462A46FFF7DFFAC1E70248BFE78C
:108130006FF0D100BCE700BFF2FEFFFF37B50C4681
:108140000546F4212046019203F094F8019B024673
:108150002146284603B0BDE83040FFF78FBF00003E
:108160002DE9F04100260660074628200C46FBF763
:1081700092FF051E05F10C080FD00123C5E901335C
:10818000084B2B604046FFF755FE0FCC2E6285F85A
:10819000246046460FC623683360C7E90085384629
:1081A000BDE8F081CCD80B0070B50025056006460F
:1081B0003020FBF770FF044688B10123C0E901338A
:1081C000094B03604FF6FF7383810E30FFF727FEE4
:1081D000C4E90655C4E90855C4E90A55A575746093
:1081E0000C343460304670BDE8D80B0037B50D460E
:1081F000044601A8FFF7D8FD2A68D2F802302360B0
:10820000D2F80630636001A8FFF7DCFD204603B01A
:1082100030BD30B5054687B00C4601A8FFF7C4FD58
:108220002A68236812881B889A420DD1294602A821
:10823000FFF7DCFF214604A8FFF7D8FF04A902A836
:10824000FFF7D9FD044600B9002401A8FFF7BAFDE5
:10825000204607B030BD000010B504466420FBF78F
:108260001AFF68B10023C0E90033C0E90233C0E956
:108270000433C0E906330362C362C363C364C365E6
:10828000206020B90A4A0B490A20FFF7C1FB0020F1
:10829000FFF7ECF920B1064A07490A20FFF7B8FBBF
:1082A000216806480022FFF73DFA204610BD00BFB6
:1082B000A1770B005CD70B009AD70B0041880B000D
:1082C00010B50A4C2378BFF35B8FDB070CD4204634
:1082D000FBF7E9FE40B10648FFF7BEFF2046FBF77B
:1082E000E7FE044802F020FF014810BDB8E6032075
:1082F000C4E603200D850B0030B50368093B012B54
:108300008DB004460D4611D8FFF7DAFFA18800684A
:10831000FFF7A2FE034658B92022CDE904200B4AFC
:1083200000920B4904AA3220FFF77AFB0DB030BD52
:108330006A6D002AFAD0D4E9032105F14C00CDE999
:108340000312AC6D04AA03A9A047EFE7DCD70B002A
:1083500073D70B0008B50020FFF788F900EAE0703A
:1083600008BD19B90A460846FFF788B9D1E90001E6
:108370000022F9E738B5141E4368054602DB62188F
:108380009A4200DD5C1A2A68501801191A44521AE0
:1083900002F0F2FE6A68121B6A6038BD37B50A4601
:1083A00004460D4601ABD0E90001FFF773FC02461D
:1083B00038B101992046FFF7DDFF29462046FFF737
:1083C000EDFF03B030BD10B50C4629B90A4608468A
:1083D000BDE81040FFF75AB901212046FFF7DEFF44
:1083E000D4E900010022F3E738B504461546FFF74B
:1083F000B8FF00280ADB29462046FFF7E4FF0028E3
:1084000004DBBDE838400020FFF748B938BD000064
:1084100038B500230446836008200D46FBF73BFE79
:1084200018B12B6803606B684360034BE360034B38
:108430002060A360204638BDD57C0B00ED7C0B008E
:108440000B68036013B15A6801325A60704710B567
:1084500051F8043B044640F8043BFFF7F1FF236862
:108460000BB9FFF72DFC204610BD10B551F8043BA9
:10847000044640F8043BFFF7E3FF204610BD10B56B
:1084800051F8043B044640F8043BFFF7D9FF20466F
:1084900010BD10B50446006808B1FFF75BFC20462C
:1084A00010BD10B504460430FFF7F3FF204610BDA1
:1084B00070B5D0E90053044605EBC306AE4204D0C4
:1084C000281DFFF7E6FF0835F8E72068FFF744FBB3
:1084D000204670BD70B5D0E90053044605EBC306D5
:1084E000AE4204D0281DFFF7D4FF0835F8E7206816
:1084F000FFF732FB204670BD10B504462430FFF76D
:10850000E9FF04F11800FFF7D3FF10BD70B5174B5A
:108510001C6854B304F15400FFF708FC04F1440054
:10852000FFF704FC04F13400FFF700FC04F1240021
:10853000FFF7FCFBD4E9065305EBC306AE4204D0BB
:10854000281DFFF7A6FF0835F8E7A069FFF704FB31
:1085500004F10C00FFF7BEFF2046FFF7A9FF2046FD
:108560006421BDE87040FBF79CBD70BDC4E60320EC
:1085700013B50023D1E90042C1E900330368009339
:1085800004604368426001A80193FFF782FF02B0D4
:1085900010BD826810B50AB901F001FEBDE81040B7
:1085A000C368184738B50D1E0446006803DDFFF7A1
:1085B000DBFA18B938BDFFF7CFFA00202060A560BC
:1085C0000120F7E708B583688B4202DAFFF7EAFF7C
:1085D00008BD0120FCE72DE9F0410F4641681D462A
:1085E0001944836899420446904612DC2668626802
:1085F0003E44D21B3146701902F0BEFD2A46414668
:10860000304602F0ABFD63682B4463600120BDE897
:10861000F081FFF7C7FF0028E8D1F8E7F8B50D466D
:10862000D0E901139942044616460BDA27686268BE
:108630007919521B481C02F09FFD7E556368013377
:108640006360F8BD0131FFF7ADFF0028EED1F8E718
:108650000A464168FFF7E2BF2DE9F74304461D468D
:108660000F4601AB90460A46D0E900019DF82890DC
:10867000FFF710FBAE1C63680246B9F1000F26D16C
:1086800028B333441B1AFF2B09D801992046FFF762
:1086900071FE616820463144FFF794FF18B96068A5
:1086A00003B0BDE8F0836A1C0199D2B22046FFF7FF
:1086B000B5FF01993A4601312046FFF7AFFF019916
:1086C0002B46424602312046FFF785FFE7E7F118C7
:1086D000FF29E4D82046FFF775FF0028DFD0691C8A
:1086E000C9B22046FFF7B4FF39462046FFF7B0FF76
:1086F00061682B464246E6E730B49DF808501AB14F
:10870000029530BCFFF7A8BF406830BC70471FB56A
:108710000023C0E9003383600622009301238DF813
:108720000F2019460DF10F020446FFF7E5FF204622
:1087300004B010BD8842F8B504460D46164614D95B
:10874000904213D2A2F10806751AA1F108072C4431
:10875000B74218D01CB131462046FFF790FE301DBD
:10876000FFF797FE083E083CF2E70CD0B5420AD06E
:108770001CB129462046FFF782FE281DFFF789FE1F
:1087800008350834F2E7F8BDF7B504464668684690
:10879000FFF775FED4E901739F4212DB0137002F0A
:1087A00029DDF800FFF7D0F90546F0B1D4E9001251
:1087B00001EBC202FFF7BEFF2068FFF7CDF925608D
:1087C000A7602368626803EBC60603EBC20231466A
:1087D00006F10800FFF7AEFF1EB169463046FFF70D
:1087E0004EFE636801336360012501A8FFF751FE67
:1087F000284603B0F0BD0025DEE7F8B5D0E9004318
:1088000005460F4604EBC306A64205D0394620466E
:10881000FFF7FFFC08B114B9F8BD0834F4E7201DD8
:10882000FFF737FED5E9003204F1080103EBC2027D
:108830002046FFF77FFF6B68013B6B60ECE70000B1
:108840002DE9F04105468EB003A80C46FFF7ACFABF
:108850002E68F31E0D2B3CD8DFE813F00E005300FA
:108860003B00D1003B003B003B003B003B009B003A
:108870009B009B009B009B0004A8FFF795FC049BBA
:10888000AA891A806968049808310230FFF7A6FAAD
:1088900004A906A8FFF7F3FD06A904F11800FFF7E5
:1088A00073FF054607A8FFF7F4FD20230693B5B92B
:1088B0005D4B5E49009332202B4606AA0795FFF7D1
:1088C000AFF8049B29461888FEF7F0FE05A8FFF7CD
:1088D000E0FD03A8FFF776FA0EB0BDE8F081544A38
:1088E000009200235149079306AA0120FFF798F848
:1088F000E36A002BEAD004A904F12400FFF749FE43
:10890000E4E7A9892046FFF7A7FB06460028E0D048
:108910000568D5E906324FF6FF71298003EBC202E4
:108920009A4203D053F8080B4180F9E7D5E9037365
:1089300007EBC308B84504D0381DFFF7AAFD083778
:10894000F8E700232B61D5E9067307EBC308B845A8
:1089500004D0381DFFF79DFD0837F8E70023EB61D1
:10896000AB72E36B23B1314604F13400FFF711FE23
:1089700000232022CDE906232E4A00922B4906AA85
:108980000120FFF74DF8314604F11800FFF735FFDD
:108990009FE7A9892046FFF75FFB002899D0E36C89
:1089A000002B96D000230D2EADF8163001D0102EDE
:1089B00017D1002369681A4606258DF815300491F1
:1089C0008DF814200690DDE9040109AB8DF81C60D8
:1089D000089583E80300236D06A904F14400984735
:1089E00077E70F2E01BF2B7A696803F00102082593
:1089F0000FBFC3F340031A4619461D46DDE7A98998
:108A00002046FFF729FB014600283FF462AFE36DE3
:108A1000002B3FF45EAF6B68069306AA236E04F149
:108A20005400984755E700BFF4D70B0073D70B00ED
:108A30001AD80B0037D80B0013B50B460246D0E905
:108A400000016C4684E8030093E8030082E8030019
:108A500094E8030083E8030002B010BD38B5054672
:108A60000C46FFF7E9FFAB68A268AA60A360EB6859
:108A7000E268EA60E36038BD70B504468CB00E462B
:108A800001921D46FFF7C8FA2671019904F13C00D6
:108A900000F066FD04F14C06CDB1109B029502A9D1
:108AA00004A80393FFF7B4FC002308A904A80A93C1
:108AB000FFF7D4FF314608A8FFF7D0FF08A8FFF75B
:108AC00035F904A8FFF732F920460CB070BD0695C1
:108AD000EAE700002DE9F04F87B01D46DDE91043BD
:108AE00080468B4692461299039300226820029199
:108AF0000492FBF7D0FA061E06F10C0918D00122E9
:108B00003746C6E901220299154A47F8202B039BF4
:108B100000915A4651464846FFF7AEFF0FCD0FC7AA
:108B20002B683B600FCC06F134050FC523682B6022
:108B300004A94046CDE90496FFF71AFD05A8FFF702
:108B4000A8FCD8F800303BB9064A07490A2007B00C
:108B5000BDE8F04FFEF75CBF07B0BDE8F08F00BF87
:108B6000B0D80B00A1770B005CD70B008842F8B59A
:108B700004460D46164614D9904213D2A2F10806B7
:108B8000751AA1F108072C44B74218D01CB1314620
:108B90002046FFF76AFC301DFFF77BFC083E083CCF
:108BA000F2E70CD0B5420AD01CB129462046FFF7A7
:108BB0005CFC281DFFF76DFC08350834F2E7F8BDB2
:108BC00070B50E1E054611DDF000FEF7BDFF044630
:108BD00058B1D5E9001201EBC202FFF7C7FF2868C0
:108BE000FEF7BAFF2C60AE60012070BD0024F6E7EE
:108BF00073B5044645686846FFF737FCD4E90113AE
:108C0000994210DA2368626803EBC50503EBC202E0
:108C1000294605F10800FFF7A9FF8DB96368013304
:108C20006360012606E001312046FFF7C9FF0646D2
:108C30000028E7D101A8FFF72CFC304602B070BD38
:108C400069462846FFF711FCE8E78842F8B5044674
:108C50000D46164614D9904213D2A2F10806751A91
:108C6000A1F108072C44B74218D01CB13146204668
:108C7000FFF7EDFB301DFFF70CFC083E083CF2E768
:108C80000CD0B5420AD01CB129462046FFF7DFFBC5
:108C9000281DFFF7FEFB08350834F2E7F8BD70B574
:108CA0000E1E054611DDF000FEF74EFF044658B1DA
:108CB000D5E9001201EBC202FFF7C7FF2868FEF7F3
:108CC0004BFF2C60AE60012070BD0024F6E773B549
:108CD000044645686846FFF7BAFBD4E90113994298
:108CE00010DA2368626803EBC50503EBC20229466C
:108CF00005F10800FFF7A9FF8DB9636801336360D0
:108D0000012606E001312046FFF7C9FF064600288C
:108D1000E7D101A8FFF7BDFB304602B070BD694640
:108D20002846FFF794FBE8E72DE9F04F1746A1B07E
:108D300080460AA80E46FFF737F83C68237953B9F6
:108D400039464046FFF783FB0AA8FFF73BF8404649
:108D500021B0BDE8F08F3368D3E9035305EBC303BB
:108D6000039304F1280A04F1140B039B9D4221D0C4
:108D7000D5F80090584609F11401FFF7C2F8B8B1D0
:108D800009F128015046FFF7BCF888B12368D9F8EB
:108D90000020534033F47F430AD12022CDE915232C
:108DA0005E4A009215AA5E493220FEF739FEC7E7F7
:108DB0000835DAE75046FFF775F860B959490122DE
:108DC00015A815ADFFF746F80FCDD446ACE80F0057
:108DD0002B68CCF800303368D3E9005305EBC30BA4
:108DE0005D45A94651466ED055F8080BFFF789F846
:108DF0000028F5D004F1140A5046FFF753F888B95B
:108E0000494B48491A88013292B21A8015A80123A9
:108E100015ADFFF73EF80FCDD446ACE80F002B6838
:108E2000CCF80030414B15932822002116A802F0FF
:108E3000BDF9514604A8FFF747F804AB18AA0DF195
:108E4000200C18685968154603C5083363452A463F
:108E5000F7D11868286023798DF85830D9F8003098
:108E60009B8AADF87430E36B1793314B0022A11D40
:108E700015A8CDE91E34FEF74BFC00287FF460AF47
:108E800001232370346839460C340DA8FFF7DFFA4C
:108E900020460DA9FFF71BFF04460EA8FFF7F9FABD
:108EA000002C7FF44DAF2023CDE90D34214B0093EE
:108EB0000DAA234677E739464046FFF7C8FA0CA8C3
:108EC000FFF7E7FA40E70BA8FFF74AF9514615A864
:108ED000FEF7FAFF0B9A0023143215A90120FEF7C2
:108EE000EFFB0028E7D135680BA90DA8FFF7BDFA05
:108EF00028460DA9FFF77CFE05460EA8FFF7C9FA24
:108F0000002DD8D032685368126803F10053013B3A
:108F10000CA802EBC309FFF7BCFA6BE756D80B00AD
:108F200073D70B001AD90B00BCE6032003002C00FA
:108F3000F9820B0081D80B00024800230360FEF782
:108F40000FBC00BFC0E60320002240681146FEF7B8
:108F5000D3BD002240681146FEF7DEBD4068002206
:108F6000FEF7D2BD4068002281F00101FEF7BCBDD2
:108F7000002340681A461946FEF7AEBD002340683C
:108F80001A461946FEF7A0BD002240681146FEF7BA
:108F900093BD002240681146FEF77EBD4068002266
:108FA0000221FEF781BD002340681A46FEF76CBD22
:108FB000024B03225A60024A1A607047C8E6032037
:108FC00044D90B007047F8B5064615460C468F1875
:108FD000BC4206D0336814F8011B9B6830469847A2
:108FE000F6E72846F8BD007C0022FEF709BC007CAD
:108FF0000021FEF70DBC007C0021FEF711BC007CB7
:109000000021FEF715BC007C0021FEF719BC10B54D
:1090100014210446FBF745F8204610BD10B54FF467
:109020007A73044608460021C4E90113034B236008
:1090300020741146FEF70CFC204610BD80D90B00B1
:109040000023007C1A461946FEF7C2BB7FB50022FA
:109050001423CDE90122ADF804300B788DF80830E7
:109060004B680393CB680493007C0B7A059301A9AA
:10907000FEF7F6FB07B05DF804FB1FB5003B8DF86B
:1090800000104FF06401039118BF0123694601925B
:109090008DF80830FFF7DAFF05B05DF804FB012317
:1090A000FFF7EBBF007C0022FEF79ABBC9B2FFF7C7
:1090B000F9BF007C0022FEF79BBB0121FFF7F9BF3F
:1090C000704710B518210446FAF7EBFF204610BD93
:1090D000F0B5037D062B8DB00E4600F104074FF06E
:1090E000000412D000F1080515F8011D0A223046CF
:1090F00000F073F9AF42044419D0002CF4D02E21B3
:10910000304600F051F90444EEE72F236A46394611
:109110000A208DF80040FEF7B3FB684602F08EF897
:1091200033680246DB686946304698470446204665
:109130000DB0F0BD10B5054B0446112240F8043BBC
:10914000002102F033F8204610BD00BFA8D90B0063
:109150000346074A10B543F8042B01F1100251F8F9
:10916000044B43F8044B9142F9D10A781A7010BDB0
:10917000A8D90B00037D042B04D14068003818BF28
:1091800001207047062B07D143683BB983682BB990
:10919000C3681BB90069F1E70020704701207047E0
:1091A00010B59DF8084044EA032343EA024242EA2C
:1091B000016104234160037510BD000007B5064B33
:1091C0000360CB7800938B784A780978FFF7E8FF43
:1091D00003B05DF804FB00BFA8D90B00014B024AA5
:1091E0001A607047D0E60320B4D90B000023406812
:1091F0001A46FEF749BC406800220221FEF754BC23
:10920000002240681146FEF747BC00224068114624
:10921000FEF752BC002340681A461946FEF754BCBC
:10922000002340681A461946FEF756BC40680021E4
:10923000FEF77ABC40680021FEF77EBC4068002241
:1092400081F00101FEF750BC40680022FEF75CBCD3
:10925000002240681146FEF75FBC002240681146BC
:10926000FEF74ABC2DE9F04395B014460D4607467B
:10927000FFF760FF00211C220DA8009101F096FF6E
:1092800040230C9320466B460CAA0021FEF718FBE6
:10929000044600284BD1024601216868FEF70CFC09
:1092A0000221804622466868FEF706FC009E814641
:1092B0002146002E3BD0002939D17368022B03D000
:1092C0000A2B11D0F669F4E7B8F1000FFAD07169F2
:1092D00006A8043107ADFFF771FF0FCD3C1D0FC489
:1092E0002B6823704146EDE7B9F1000FEAD07469AD
:1092F000102201A801F05AFF06238DF8143001ADA9
:1093000004F108031834186859682A4603C2083360
:10931000A3421546F7D101A906A807ADFFF718FF2C
:109320000FCD3C1D0FC42B6823704946CAE7009837
:10933000FEF7BEFA384615B0BDE8F083024B034A8B
:109340001A6000225A607047D4E60320C0D90B008F
:10935000F8B506460D468F180024BD420CD0336880
:1093600015F8011B9B6830469847031E01DB1C441F
:10937000F3E7002C08BF1C462046F8BD13B5044691
:10938000084659B1019101F059FF23680199DB6842
:109390000246204602B0BDE81040184702B010BD9A
:1093A00008B5FFF7EBFF08BD03689B68184738B5A1
:1093B0000D210546FFF7F8FF0A2104462846FFF76E
:1093C000F3FF204438BD38B50546FFF7D7FF044604
:1093D0002846FFF7ECFF204438BD30B58BB00023A2
:1093E000012A8DF8243098BF0A2209AC0D46B1FB42
:1093F000F2F101FB125303F0FF03092B94BF30334A
:109400003733DBB2AA4204F8013DEFD92146FFF71A
:10941000B5FF0BB030BD2DE9F04186B000AF054679
:109420000E46381D142114463B60FEF7ADFB132891
:109430000ED8391D2846FFF7A1FF04461EB1284665
:10944000FFF7B5FF044420461837BD46BDE8F0815C
:1094500000F1080323F00703E846ADEB030D2246B5
:10946000411C3B686846FEF78FFB69462846FFF7BC
:1094700085FF0446C546E1E7014B00229A6070472C
:10948000DCE6032010B504460068FEF765FB2046C5
:1094900010BD10B50446006808B1FEF75DFB00235F
:1094A000C4E90133236010BD38B504460D46006899
:1094B0000131FEF759FB10B1C4E90005012038BDA8
:1094C00010B50368044623B143688B4201D30120E1
:1094D00010BD2046FFF7E8FF0028F9D0A368002B55
:1094E000F5D122681370F2E737B50D4611460192A7
:1094F0000446FFF7E5FF019A28B92046FFF7C9FFA8
:10950000204603B030BDA2602946206801F026FE47
:109510002268A3680021D154F2E7002313B5C0E903
:10952000003304468360037341B10846019101F0A2
:1095300085FE019902462046FFF7D6FF204602B07D
:1095400010BD884210B5044605D00B682BB18A685F
:109550001946FFF7C9FF204610BDFFF79AFFFAE74B
:1095600013B5044659B10846019101F067FE01990F
:1095700002462046FFF7B8FF204602B010BDFFF7B5
:1095800088FFF9E710B504468AB00023C4E9003328
:10959000A3602373084601A900F0DEFC01A9204660
:1095A000FFF7DEFF20460AB010BD70B505460E4637
:1095B00009B9002070BD6AB1846814442146FFF7E0
:1095C0007FFF0028F5D02868AB683146184401F0C9
:1095D0002DFEAC600120EDE78A680968FFF7E5BF62
:1095E00007B500238DF80410012201A98DF805307C
:1095F000FFF7DBFF03B05DF804FB10B58A6809686C
:109600000446FFF7D2FF10B92046FFF742FF20467D
:1096100010BD08B582683AB921B10878B0FA80F077
:10962000400900E0012008BD006809B90078F5E7AD
:1096300001F0F2FDF2E710B58368934207D90468A0
:109640000968A01801F022FE08B1001B10BD4FF000
:10965000FF30FBE70022FFF7EEBF0000F8B59A42AB
:109660000F461D460C4988BF13461446064684BF64
:109670002C461D46FFF751FFBB68A3420AD3396849
:10968000AB4294BFC4EB0302C4EB05022144304655
:10969000FFF72AFF3046F8BD26D70B0010B5044669
:1096A0008B68FFF7DBFF204610BD0000054B022250
:1096B0001A60054B054A9A600020C3E90000FEF7D6
:1096C000B7B900BFF8E60320ECE603200000FFFF77
:1096D00013B503688DF80710DC6B01224FF0FF33E0
:1096E0000DF10701A04702B010BD10B40368DC6B98
:1096F0004FF0FF33A4465DF8044B604713B51346A3
:1097000002688DF80710D46B0DF107010122A04704
:1097100002B010BD10B54369B3F88620B3F88430A9
:109720009A42044608D06369B3F88420511CA3F818
:1097300084101344187910BD03681B6998470028EA
:10974000F1D14FF0FF30F6E7704743691868C04326
:10975000C00F704770470000064B994210B500F1EA
:109760000C0405D0084600F01DFD002808BF0024A9
:10977000204610BDFCD80B0010B5AC210446FAF70A
:1097800090FC204610BDAC21FAF78BBC2DE9F041CE
:109790004FF0000886B01C46C0F8048005460E460F
:1097A00017464146102202A801F000FD631C09D0B3
:1097B0004FF47A73B4FBF3F203FB1244CDE90228B1
:1097C0005C430494686910230093006802AB41F283
:1097D000050240F6FF71FEF77BF8002807DAFEF776
:1097E000EBF903686B60002006B0BDE8F0816869A2
:1097F000002300683A463146FEF78AF8031EEEDB86
:109800001846F1E738B584690A4B036005467CB118
:109810006368013B63605BB9236820469B68984797
:10982000A368013BA3601BB923682046DB68984707
:10983000284638BD30DA0B0010B50446FFF7E2FFCA
:1098400020461C21FAF72DFC204610BD30B587B00C
:10985000044601AD6846FFF7B1FC0FCD04340FC4D8
:109860002B68237007B030BD70B54D69054B0446B9
:109870008C3544F8043B06460FCD0FC42B6823708B
:10988000304670BDA8D90B002DE9F0439846036817
:1098900093B00D460024DB6A0646174698472846D3
:1098A0006B46224621460094FEF70AF8054600283A
:1098B00063D1009B002B4BD05B69002B48D006A8DE
:1098C000FFF738FC009B5C696378022B04D1211DF3
:1098D00006A8FFF7BBFF26E00A2B24D11122294658
:1098E00001A801F063FCA368002B38D004F1080341
:1098F0000DF1040C183418685968624603C2083325
:10990000A3429446F7D1062301A90CA88DF8143080
:10991000FFF71EFC0DF1340CBCE80F0007AC0FC4C0
:10992000DCF80030237006A8FFF724FC80B1336810
:1099300007ADD3F82090124B0C930FCD0DAC0FC494
:109940002B6823703A4643460CA93046C847054663
:109950000098FDF7ADFF284613B0BDE8F083E3683B
:10996000002BC3D14FF6FF70D4F81090FDF790FF95
:109970008145BBD104F11401AAE72546E8E700BF01
:10998000A8D90B0038B543691A68002A054610DAD1
:10999000B3F88620B3F884309A420AD103681B6971
:1099A0009847044628B92B682846DB6A9847204622
:1099B00038BD0120FCE710B54369B3F88620B3F841
:1099C00084309A42044605D06369B3F88420134476
:1099D000187910BD03681B6998470028F4D14FF02F
:1099E000FF30F6E7F8B543691746B3F88620B3F8B9
:1099F00084309A4205460E4616D06969B1F8843023
:109A0000B1F88640E41ABC4228BF3C4604332246E3
:109A10001944304601F0A2FB6A69B2F8843023444D
:109A2000A2F884302046F8BD03681B6998470028D7
:109A3000E3D14FF0FF34F5E742690023A2F8843008
:109A40004269A2F8863070472DE9F0411F4603684D
:109A50000C46DB6A8AB0054616469847237DD5F842
:109A60001480042B0CBF02200A2006220121FDF7DE
:109A700057FFC8F800006B691B68002B08DA2B68D9
:109A80002846DB6A0024984720460AB0BDE8F081EA
:109A90002846FFF7D1FFB7B1002303A9F8B203931B
:109AA000ADF81030FDF7E4FE0028E8D16869062320
:109AB0000093006803AB41F20B0240F6FF71FDF723
:109AC00007FF0028DBD11C22002103A801F06EFB58
:109AD000237D042B1DD14FF407733046ADF80C30B5
