:02000002B0004C
:1040000000400B0008E30B00000006000C00050256
:084010000401E50C00000000B2
:04401800A0D30B0026
:1040200009480A49884208B505D0094A824202D0A7
:10403000121A07F00FF90748074A0021121A07F071
:1040400031F9014808BD00BFE0520320E8E00B0051
:10405000D8540320D8540320EDE7032070B5074E51
:10406000074C06F075F8A41BA4080025AC4200D14B
:1040700070BD56F8043B98470135F7E79CE00B000C
:10408000C0E00B0001F094BF08B502F0CBF8BDE82A
:10409000084006F015B803F0FFBD03F0FDBD03F0C6
:1040A00003BE03F001BE0078B0FA80F0400970470B
:1040B000012303707047000010B5034B03600446F2
:1040C00002F012FF204610BD7CD60B0010B504464E
:1040D000FFF7F2FF204646F2BC51FFF7E2FF204611
:1040E00010BD000008B5034650B1064A904201D900
:1040F00006F0C8F80C205843BDE80840FFF7CBBFD6
:1041000008BD00BFAAAAAA0A00F1080373B50446B5
:1041100003600D46D9B1084607F00CF90F2805EBEE
:104120000006019007D9002201A9204606F0C0F838
:10413000019B2060A36032462946206806F0F3F810
:10414000019B226863600021D15402B070BD014818
:1041500006F09BF8B4D30B0008B5034650B1064AED
:10416000904201D906F08EF818205843BDE8084067
:10417000FFF791BF08BD00BF5555550508B548B1BB
:10418000B0F1005F01D306F07DF8BDE80840800083
:10419000FFF781BF08BD08B548B1B0F1805F01D31A
:1041A00006F070F8BDE80840C000FFF774BF08BD16
:1041B00070B506460C4615462AB90368BDE870403E
:1041C0009B68C9B2184700290BDA0A2A09D12D21A8
:1041D00005F020F96142EAB23046BDE8704005F0D2
:1041E00032B92146F7E710B50446FFF7E1FF204654
:1041F000BDE8104005F011B973B500F10803036084
:10420000D1E900530446EE181DB916B10C4806F06A
:104210003CF80F2B019307D9002201A9204606F094
:1042200047F8019B2060A36032462946206806F0CB
:1042300075F8019B226863600021D15402B070BD03
:10424000B4D30B000368C9B29B68184713B5044682
:1042500061B10846019107F06DF823680199DB68A8
:104260000246204602B0BDE81040184702B010BD1B
:104270008142F8B504460D4625D0D1E900710068A9
:10428000A368CE1B1B1A9E421ED9F010FFF783FFB6
:10429000002305469E420AD0EA181CBFF918D1E94E
:1042A000000103F1080318BFC2E90001F2E720682A
:1042B00018B1A168091AFFF7F4FE25603544A5601E
:1042C000236833446360F8BD6268121A964206D8C8
:1042D000B942F5D03246394606F0CAFFF0E712B1CE
:1042E000394606F0C5FFD4E90027BB1A2A686D6875
:1042F0001A44AD1A00239D42E2D017EB030C1CBFF9
:10430000D118D1E9000103F1080318BFCCE900017D
:10431000F1E7000081422DE9F84F04468A4636D085
:10432000D1E9005BD0F800908368394AABEB050710
:10433000A3EB09034FEAE708BB4202FB08F828D2C7
:104340004046FFF709FF06468046AB450AD0B8F164
:10435000000F03D029464046FFF74EFF08F118082A
:104360001835F2E7D4E90058A84504D0284605F0EE
:10437000C1FF1835F8E7206818B1A168091AFFF7DE
:1043800090FE26603E44A66023683B446360BDE81F
:10439000F88F4668A6EB0906B74219D84646CA46C2
:1043A000002E08DD2946504605F0C2FF18350AF1F7
:1043B000180A013EF4E728EAE8781825666805FB44
:1043C0000895AE42E0D0284605F094FF1835F8E78E
:1043D000F6105643002E08DD2946484605F0A8FF92
:1043E000183509F11809013EF4E7D4E90056711BAC
:1043F000DAF80050DAF804800D44A845C4D01EB1A4
:1044000029463046FFF7F8FE18351836F5E700BFA5
:10441000ABAAAAAA0EB403B503AB002153F8042B30
:10442000019305F02EF802B05DF804EB03B070477D
:104430002DE9F04FA04DDFF8A4828DB02A68D8F89E
:1044400000309A4200F0FF800023DFF89492DFF8FA
:1044500094A29A4F2B60082405F060FD4946064659
:1044600008A805F090F80A22214604A805F0E5F80E
:1044700004A908A805F01CF90168304604F0D9FF2A
:1044800004A805F035F808A805F032F805F094FE08
:10449000214604F041FE05F08FFE3121FFF7D2FEE8
:1044A0005FFA84FB05F088FE04F03DFE05F084FE13
:1044B0001822594604F029FE05F07EFE03681B69A8
:1044C0009847002840F3BA8005F028FD514606467B
:1044D00008A805F058F80A22214604A805F0ADF80E
:1044E00004A908A805F0E4F80168304604F0A1FF2B
:1044F00004A804F0FDFF08A804F0FAFF2B68394671
:10450000013368462B6005F03EF8182605F054FE8E
:1045100003685B699847C1B2684605F0BCF8013E84
:10452000F4D105F049FE214604F0F6FD05F044FE05
:104530000099FFF78BFE05F0F1FC6149064608A8DB
:1045400005F021F8694608A805F0B2F80168304680
:1045500004F06FFF08A804F0CBFF05F02DFE04F077
:10456000E2FD05F0DBFC5749064608A805F00BF80C
:104570000A22214604A805F060F804A908A805F05D
:1045800097F80168304604F054FF04A804F0B0FF27
:1045900008A804F0ADFF05F00FFE214604F0BCFDB5
:1045A00005F00AFE3221FFF74DFE05F005FE04F08E
:1045B000BAFD05F0B3FC4449064608A804F0E3FF41
:1045C0000A22214604A805F038F804A908A805F035
:1045D0006FF80168304604F02CFF04A804F088FF4F
:1045E00008A804F085FF05F0E7FD0422594604F011
:1045F0008CFD3946684605F00EF8042605F0DCFD12
:1046000003685B699847C1B2684605F044F8013E0B
:10461000F4D105F083FC2D49064608A804F0B3FF49
:10462000694608A805F044F80168304604F001FF27
:1046300008A804F05DFF684604F05AFF0134782CA6
:104640007FF40AAFFAE605F069FC2149214E224FBA
:1046500004F0EFFE0824002505F0AEFD214604F02D
:104660005BFD05F0A9FD3121FFF7ECFD05F0A4FD90
:1046700004F059FD05F0A0FD1822E1B204F045FD5B
:1046800005F09AFD03681B69984700280EDD05F0C8
:1046900045FC0A222146FFF78BFD05F03FFC314621
:1046A00004F0B4FE3B6843F8254001350134782C12
:1046B000D2D10DB0BDE8F08FA8E60320D2D70B0011
:1046C00016D40B0022D40B0039D40B0053D40B00AA
:1046D0006BD40B00DDD50B0030550320F4520320C2
:1046E000DED30B00F9D30B0038B54FF4007514235B
:1046F00004460360856005610549284605F0C0FD54
:1047000003496060284605F0BBFDE060204638BDE7
:10471000D8DB0B0010B50446006818B1A168091A6F
:10472000FFF7BFFC204610BD10B50446006818B165
:10473000A168091AFFF7B5FC204610BD10B5044664
:10474000006818B1A168091AFFF7ABFC204610BD3C
:1047500070B5D0E900560446AE4204D0284605F0B4
:10476000C9FD1835F8E7206818B1A168091AFFF7E4
:1047700098FC204670BD0000B1F1005F70B50446A2
:104780000D46164602D30C4805F082FD0023C0E911
:10479000003383600846FFF7F1FC00EB8503C4E9B2
:1047A0000000A3602DB13268834202D040F8042B90
:1047B000FAE76060204670BD7BD40B002DE9F34121
:1047C000002402AB03E90600C0E900441346054695
:1047D0008460D70042F31C00104AB2EBC30F884636
:1047E00002D20F4805F054FDFFF7D5FCC61902466A
:1047F0002860AE6023469F420BD0D4181CBF08EB44
:104800000301D1E9000103F1080318BFC4E9000165
:10481000F1E728466E6002B0BDE8F081F8FFFF7F47
:104820007BD40B002DE9F34102AB03E90600002322
:10483000C0E900338360164618235E43104B0446DC
:10484000F01058430F4B9E420F4601EB060802D969
:104850000D4805F01DFDFFF77FFC0644054620606E
:10486000A660B84507D01DB139462846FFF7C4FCFD
:1048700018371835F5E72046656002B0BDE8F081CD
:10488000ABAAAAAAF8FFFF7F7BD40B00F8B5D1E949
:1048900000370025FF1A0446C0E900558560F8106E
:1048A0000E46FFF778FCC4E900000744A760D6E98C
:1048B00000760246F61B2B46B34202EB030506D0F8
:1048C0001DB1F91803C985E803000833F4E76560F2
:1048D0002046F8BD08B542684B689A4208D14AB1F3
:1048E0000968006806F0A6FCB0FA80F0400908BD2F
:1048F0000020FCE70120FAE72DE9F04FA3B00C46B9
:104900000646BA4903A804F03EFEB84907A804F0D9
:104910003AFE0025013CAC4205D9715D03A804F0C4
:10492000BAFE0135F7E7B24C05F0F8FA039904F046
:1049300080FD2368002B5AD0012B68D003A907A85B
:1049400004F052FEAB4D2368AB4E9A1ED5E900131E
:104950005B1A9B1073439A4280F02781A74903A8F2
:1049600004F0D4FE002800F09180A54B0FA8196B2D
:1049700004F009FE0FA907A804F045FE0FA804F0F3
:10498000B7FDA04FDFF8A4824FF00009D5E900235E
:104990009B1A9B1073434B4540F28380396B0BA8E5
:1049A00004F0F1FD0BA907A804F0A3FE002875D1BF
:1049B0002B686C2202FB09330FA8196B04F0E3FD8E
:1049C00007A90FA804F095FEB0F1000A0FA818BFC0
:1049D0004FF0010A04F08CFD0BA804F089FDBAF138
:1049E000000F01D0C8F8009009F10109CEE7864810
:1049F00003A904F0F9FD236807A80133236004F03C
:104A000077FD03A804F074FD23B0BDE8F08F7F4D5F
:104A100003A9284604F0E8FD7B4B2E68D3F80080FC
:104A2000B8F1000F2ED0404606F084FC07465EB376
:104A3000304606F07FFC05463822002114A806F017
:104A400031FC4C23CDE90F387148139503238DF8C1
:104A5000503000230FAA19464068CDE9117603F0C3
:104A6000EBF805F0A9FB6B4B1B68196804F054FBCD
:104A700005F0A2FB3321FFF7E5FB05F09DFB04F0F9
:104A800052FBB8E74746D2E73546D5E7624903A867
:104A900004F03CFE00287FF468AF72E74FF0000A94
:104AA0009AE7DFF88881D8F80030013303D1236812
:104AB000013B23609FE7DFF878B1DFF87891DFF8FA
:104AC00054A10027D8F8003028686C2202FB0300AC
:104AD0000C21D0F824C0DBF8002079430CEB010E48
:104AE0005CF80110DEF804E08E4507EB430332D09A
:104AF00049463030CDE90032FFF7ECFEDDE9003207
:104B000048BB2168DAF80000023950F8211042F859
:104B10002310424B0FA8196B04F035FD0FA903A811
:104B200004F0E7FD00900FA804F0E2FC009B002BCE
:104B300040F08280314903A804F0E8FD002800F02D
:104B40008680DBF80030D8F8002053F83220344B50
:104B50007BE00127B6E7002142F82310002FF8D0B0
:104B600005F02AFB2B4F23683A68023B52F82310CA
:104B700004F0D2FA05F020FB3421FFF763FB05F0C7
:104B80001BFB04F0D0FA05F017FB23683A68013BE1
:104B900052F8231004F0C0FA05F00EFB3321FFF7A2
:104BA00051FB05F009FB04F0BEFA23689A1ED5E913
:104BB00000135B1A9B107343013B9A427FF41BAFB7
:104BC00005F0ACF91749124D04F033FC164B686838
:104BD00001221A7000231A46194603F005F8002333
:104BE00068681A46194602F0DFFF04E7D2D70B00C7
:104BF0003C550320BCE5032013DA4B68ACD40B0012
:104C00001C56032050E50320D8540320D4E403208D
:104C100018E7032030550320B3D40B00AC55032014
:104C200088560320BAD40B00B4E60320F0520320C8
:104C30009CE6032080E50320D8F80030DBF8002054
:104C400007EB430352F82320094B1A6086E7094912
:104C500003A804F05BFD002880D0D8F80030DBF812
:104C600000205B00013352F82320034B5A6075E7A4
:104C700018560320B3D40B0088560320002938B5FA
:104C800004464FEA81050CD0B1F1005F01D305F075
:104C9000F9FA2846FFF7FFF9C4E900002844A060AC
:104CA00038BD0846F8E738B504460D46AC4204D096
:104CB0002046FFF743FD0C34F8E738BD10B5044635
:104CC0004830FFF745FD04F1300005F013FBD4E94F
:104CD0000901FFF7E8FF606A18B1E16A091AFFF7F6
:104CE000E0F904F11800FFF729FD04F10C00FFF7CB
:104CF0001BFD2046FFF70EFD204610BD814210B57A
:104D00001346A1EB000405D001462246184606F0E2
:104D1000AFFA0346181910BD70B5D1E90036F61A7E
:104D200000230446C0E900338360B0100D46FFF74E
:104D300025FAC4E900000644A6600246D5E9000150
:104D4000FFF7DCFF6060204670BD00007FB504AB5C
:104D500003E906000023C0E90033836004461346DC
:104D60000E46950001EB820142F31D000A4AB2EBA8
:104D7000830F02D2094805F08BFA0191FFF7FEF983
:104D80000544024620600199A5603046FFF7B6FF52
:104D9000606004B070BD00BFFCFFFF7F7BD40B00E0
:104DA0008142F7B504460D461DD0D1E90071026875
:104DB0008368CE1B9B1A9E4217D9B0100191FFF752
:104DC000DDF90199024605463846FFF797FF20684E
:104DD00018B1A168091AFFF764F925603544A56088
:104DE00023683344636003B0F0BD43689B1A9E425E
:104DF00003D83846FFF782FFF2E7F9183846FFF785
:104E00007DFFD4E90002D5E90031101A1844F1E71A
:104E10002DE9F0410C1A05460B48A41044431646F0
:104E200027469046002F08DD29464046FFF7B8FF89
:104E30000C3508F10C08013FF4E724EAE4740C2077
:104E400000FB0460BDE8F081ABAAAAAA2DE9F04FEF
:104E50000025994600F13803C0E90C354FF0FF33C7
:104E6000C0E915330446C0E90055C0E90255C0E960
:104E70000455C0E90655C0E90855C0E90A55C0E91E
:104E8000125599B080F838500565924600F1180B1C
:104E900000F1300800F14807FFF7EAF9D4E90023F0
:104EA0009B1AAB424FEAE30102DA5F4805F0F0F9E2
:104EB00009A80191CDE909550B95FFF7DFFE01998E
:104EC000099831B100EB81068A00294606F0EAF91B
:104ED0003046D4E90352099963690E93C4E903107B
:104EE0000CAE0B996161CDE90C5230460025CDE93D
:104EF00009550B95FFF718FC09A8FFF715FC51465B
:104F00005846FFF74DFFD9F800100695096802AB27
:104F100006AA3046FFF730FCD9F80010079549681B
:104F200003AB07AA0FA8FFF727FCD9F800100895D4
:104F3000896804AB08AA12A8FFF71EFCD9F8001074
:104F4000099505AB09AAC96815A8FFF715FC626A9F
:104F5000E36A9B1A2F2B3FD80420FFF7C3F8B34610
:104F6000054600F1300A8146B9F1000F03D05946D9
:104F70004846FFF7D1FE09F10C09D1450BF10C0BA6
:104F8000F2D1D4E90901FFF78EFE606A18B1E16A37
:104F9000091AFFF786F8C4E9095AC4F82CA018AD1D
:104FA0000C3D2846FFF7CAFBB542F9D1229940468D
:104FB00005F0BEF938462399FFF7ACF9249B1B682E
:104FC0001A68E2655A6822669A68DB68626620465B
:104FD000A36619B0BDE8F08FA56AAD1A2F2D0BD9C5
:104FE00018A93046FFF714FFA16A88420546D6D0BB
:104FF000FFF759FEA562D2E7354429463046FFF750
:1050000007FFD4F8289018AB9D420AD0B9F1000FE1
:1050100003D029464846FFF77FFE0C3509F10C09FD
:10502000F1E7C4F82890BAE77BD40B002DE9F04FE4
:105030002DED0E8B0128ADF50F7D40F0E085B44BD2
:10504000B44A9A600025C3E90055032002F080FDB0
:10505000B14B7293B14B7393B14B7493B14B759346
:10506000B14B7693B14B7793B14B7893B14B799326
:10507000B14B7A93B14B7B9372AB4C930523DFF822
:105080004CA34D930DF584784CAA434606CA5AA802
:10509000FFF794FB9AE80F0065AC84E80F00042248
:1050A0004AAB4A944B9293E8060057A8FFF74EFE8E
:1050B00061AA489228230422CDE96235499248AB7F
:1050C0000DF5D67B93E8060054A861956495FFF72B
:1050D0003DFE58469A49DFED9B8A9FED9B8ADFEDA6
:1050E0009B9A9FED9B9ADFED9BAA9FED9BAADFED1C
:1050F0009BBA9FED9BBADFED9BDA9FED9BDADFED6C
:105100009BCA9FED9BCA9FED9BEAFEF7FDFF7EA821
:105110009949FEF7F9FF84A89849FEF7F5FF7EABA1
:1051200046930223479346AA0DF5BA7940AB06CAC7
:1051300051A8FFF777FB29461022484606F0B2F83F
:10514000042244ABCDF81091459293E806004EA896
:10515000FFF7FCFD4EAB029351AB57AA5AA9CDE91C
:1051600000B3874854ABFFF771FE4EA8FFF7E6FA8D
:1051700051A8FFF7EDFA84A805F0BCF87EA805F069
:10518000B9F8584605F0B6F854A8FFF7D7FA57A86B
:10519000FFF7D4FA5AA8FFF7BDFA7A4B7E937A4B01
:1051A0007F937A4B80937A4B81937A4B82937A4B9D
:1051B00083937A4B84937A4B85937A4B86937A4B7D
:1051C00087937A4B88937A4B89937A4B8A937A4B5D
:1051D0008B937EAB42930723439338AF98E8060046
:1051E0003B465AA8FFF7EAFA0AF1100CBCE80F0098
:1051F0005E460FC69CE8030006234193CDF800B13C
:1052000040ABC6E9000193E8060057A80496FFF7F3
:105210009DFD61AA3E923C230422CDE962353F9276
:105220003EAB93E8060054A861956495FFF78EFDA8
:1052300020466249FEF768FF72A86149FEF764FFE5
:1052400078A86049FEF760FF72AB3C9302233D9360
:1052500036AE3CAA334606CA51A8FFF7E3FA294600
:105260001022484606F01EF804223AABCDF8E8902A
:105270003B9293E806004EA8FFF768FD4EAB029301
:1052800051AB57AA5AA9CDE900434F4854ABFFF799
:10529000DDFD4EA8FFF752FA51A8FFF759FA78A89A
:1052A00005F028F872A805F025F8204605F022F848
:1052B00054A8FFF743FA57A8FFF740FA5AA8FFF798
:1052C00029FA7EAB3893072339930DF1B80897E894
:1052D000060043465AA8CDED7EDA8DED7FDACDED9E
:1052E00080CA8DED81CACDED828A8DED838ACDEDA8
:1052F00084BA8DED85BACDED86AA8DED87AACDED68
:10530000889A8DED899ACDED8A8A8DED8B8A5FE042
:10531000E85403200000FFFF806927421E43AFC20C
:10532000CC9D27420242AFC2959D27426D47AFC236
:10533000A9A72742054EAFC282B32742444EAFC24F
:10534000C7D40B001A8B27429A44AFC22F8B274237
:105350009540AFC2D88127424440AFC2168227424F
:10536000C144AFC29EA42742D04BAFC237A427424C
:105370005946AFC28940AFC2CBD40B00D2D40B0088
:10538000C8E503209D7E2742B374AFC2AF80274299
:105390008E58AFC24D8027422E48AFC2AD80274203
:1053A0005741AFC2FF8A27425342AFC2F48A274215
:1053B0009847AFC278A927425D5FAFC2D9D40B002E
:1053C000DED40B00E5D40B004055032090D60B0033
:1053D000FFF7F4F90AF128031F460FCFDC46ACE8CB
:1053E0000F00D7E90001049BCDF8D8B083E8030093
:1053F0000623379396E8060057A80597FFF7A6FC03
:1054000007F108030FCB61AE86E80F00042234AB2E
:105410003496359293E8060054A8FFF797FC20468F
:10542000B249FEF771FE72A8B149FEF76DFE78A889
:10543000B049FEF769FE72A9329102212CAE339178
:1054400032AA06CA334651A8FFF7ECF907F1180251
:105450000FCA89E80F00042130ABCDF8C09031911C
:1054600093E806004EA8FFF771FC4EA9029151A9DE
:10547000CDE9004154A90B4657A90A469E485AA9AE
:10548000FFF7E4FC4EA8FFF759F951A8FFF760F9C0
:1054900078A804F02FFF72A804F02CFF204604F037
:1054A00029FF54A8FFF74AF957A8FFF747F95AA868
:1054B000FFF730F9914B7293914B7393914B749327
:1054C000914B789372A9914B2E9179930521904B32
:1054D0007A9324AF2F918F4B7B9398E806003B463D
:1054E0005AA88DED75EACDED769A8DED779AFFF796
:1054F00065F90AF160030FCB84E80F0004212C94B6
:105500002D9196E8060057A8FFF720FC0AF17003DA
:105510000FCB61AE86E80F0004212AAB2A962B91AF
:1055200093E8060054A8FFF711FC58467A49FEF7A5
:10553000EBFD7EA87949FEF7E7FD84A87849FEF7E0
:10554000E3FD7EA92891022122AE299128AA3346A3
:1055500006CA51A8FFF766F90AF180030FCB89E864
:105560000F00042126ABCDF89890279193E8060010
:105570004EA8FFF7EBFB4EA9029151A9CDE900B16E
:1055800054A90B4657A90A4666485AA9FFF75EFC7C
:105590004EA8FFF7D3F851A8FFF7DAF884A804F073
:1055A000A9FE7EA804F0A6FE584604F0A3FE54A867
:1055B000FFF7C4F857A8FFF7C1F85AA8FFF7AAF8F1
:1055C000594B7E93594B7F93594B8093594B819301
:1055D000594B8293594B83937EA9594B24918493C1
:1055E0000821584B8A930DF168082591564B8B93EF
:1055F00097E8060043465AA80AF190078DED85EA20
:10560000CDED869A8DED879ACDED888A8DED898ACC
:10561000CDED8CAA8DED8DAAFFF7D0F80FCFDC462B
:10562000ACE80F0097E80700049FCDF888B087E842
:1056300007000721239196E8060057A8FFF786FB8D
:105640000AF1AC030FCB61AE86E80F00042120AB5A
:105650002096219193E8060054A8FFF777FB204697
:105660003A49FEF751FD72A83949FEF74DFD78A879
:105670003849FEF749FD72A91E91022118AF1F910A
:105680001EAA3B4606CA51A8FFF7CCF80AF1BC0394
:105690000FCB89E80F0004211CABCDF870901D9151
:1056A00093E806004EA8FFF751FB4EA9029151A9BD
:1056B000CDE9004154A90B4657A90A4626485AA9E4
:1056C000FFF7C4FB4EA8FFF739F851A8FFF740F8E1
:1056D00078A804F00FFE72A804F00CFE204604F037
:1056E00009FE54A8FFF72AF857A837E0ECD40B00BE
:1056F000F2D40B00F9D40B00AC5503209769274274
:10570000B840AFC2FE812742FB8A27429444AFC211
:10571000718927427964AFC25CD60B0000D50B00BB
:1057200007D50B001C5603201A632742D24BAFC289
:10573000C46E27421541AFC2B58027428640AFC232
:1057400000822742E18127427644AFC20ED50B008A
:1057500015D50B001CD50B00AC7E0320FEF7EEFF29
:105760005AA8FEF7D7FF7EA91A91072110AE1B9108
:1057700098E8060033465AA8CDED7EDA8DED7FDA43
:10578000CDED80CA8DED81CACDED828A8DED838A03
:10579000CDED84BA8DED85BACDED86AA8DED87AAC3
:1057A000CDED889A8DED899ACDED8A8A8DED8B8A23
:1057B000FFF704F80AF1280EBEE80F00DC46ACE85B
:1057C0000F000599049ACDF860B003C9C2E9000141
:1057D0000621199197E8060057A8FFF7B7FA0AF1D2
:1057E00040030FCB61AF87E80F00042116AB16977B
:1057F000179193E8060054A8FFF7A8FA2046B84985
:10580000DFF82C83FEF780FC72A8B649FEF77CFC1B
:1058100078A8B549FEF778FC72AB14930223159370
:105820000EAF14AA06CA3B4651A8FEF7FBFF0AF1C9
:1058300050020FCA89E80F00042212ABCDF848903D
:10584000139293E806004EA8FFF780FA4EAB02933E
:1058500051AB57AA5AA9CDE90043A44854ABFFF76E
:10586000F5FA4EA8FEF76AFF51A8FEF771FF78A877
:1058700004F040FD72A804F03DFD204604F03AFD1E
:1058800054A8FEF75BFF57A8FEF758FF5AA8FEF78B
:1058900041FF974B7E93974B7F93974B8093974B0A
:1058A0008193974B8293974B83937EAB10930823FE
:1058B000119396E8060007AB5AA80AF1CC06CDED85
:1058C000848A8DED858ACDED869A8DED879ACDED12
:1058D00088AA8DED89AACDED8ABA8DED8BBACDED72
:1058E0008C8A8DED8D8AFEF769FF0FCEDC46ACE821
:1058F0000F0096E80700049BCDF838B083E8070056
:1059000007230F9397E8060057A8FFF71FFA0AF13D
:10591000E8030FCB61AE86E80F0004220CAB0C96B7
:105920000D9293E8060054A8FFF710FA2046764936
:10593000764EFEF7E9FB72A87549FEF7E5FB78A8FD
:105940007449FEF7E1FB72AB0A9302230B930AAA98
:1059500006AB06CA51A80AF1F80AFEF763FF9AE8F7
:105960000F0089E80F00042208ABCDF820900992BF
:1059700093E806004EA8FFF7E9F94EAB029351AB4E
:1059800057AA5AA9CDE90043634854ABFFF75EFA22
:105990004EA8FEF7D3FE51A8FEF7DAFE78A804F071
:1059A000A9FC72A804F0A6FC204604F0A3FC54A8AD
:1059B000FEF7C4FE57A8FEF7C1FE5AA8FEF7AAFEDE
:1059C000564B57499D607EAAC3E900550968554862
:1059D0007E9572ABFEF7D0FE534B54499D60C3E9F0
:1059E0000055534802F0B4FB5249534802F0B0FB53
:1059F0005249464802F0ACFB0FCEA246AAE80F007F
:105A0000B8E80F00C146D6F800C0CAF800C05E462C
:105A10000FC659F810390593049BDFF848E11A4680
:105A20002646059B13600FCE72AFCEE900550FC717
:105A3000C7F800C0DC46BCE80F007EAE0FC6059B71
:105A400033607EAB0093704672ABCDE901553C49A3
:105A50004FF0100203F074F8DFF8DCC0BCE80F0070
:105A6000A646AEE80F00B9E80F00DCF800E0CAF87F
:105A700000E0DC46ACE80F00049BD8F80090C3F8C7
:105A800000900FCCDFF8E0800DF5E47C5C46ACE8DC
:105A90000F00C8E90055C7F800E00FCC7EAF0FC774
:105AA000284BC6F8009001937EAB4FF004020093A0
:105AB000404672AB2449029503F042F8234924483A
:105AC000244C03F060FD244803F06AFB1F4923487F
:105AD00003F059FD1D49224803F055FD46E000BF83
:105AE00023D50B002AD50B0031D50B0050E5032040
:105AF000766A27422B69AFC25F6B2742CD56AFC291
:105B00002D8A2742D856AFC238D50B001C5503202A
:105B10003DD50B0044D50B00E4E40320BCE5032095
:105B2000F4520320305503209CE603204BD50B0094
:105B3000F454032070D50B000855032095D50B00B5
:105B4000BAD50B00F9480B00BDD50B00D2D70B001E
:105B500034E60320187F032044E603205CE603209C
:105B600070E60320ACE6032094E60320474948484A
:105B700003F009FD474801F037F84FF47A730093BA
:105B800042F2107204F12C01434B204601F004FA5A
:105B9000424B3E492360424803F0F5FC3B494148F3
:105BA0000DF50F7DBDEC0E8BBDE8F04F03F0EBBCA7
:105BB000206818B1A168091AFEF773FA3A48FFF78E
:105BC0007DF83A48FFF77AF83948FFF777F839480F
:105BD000FFF774F83848FFF771F83848FFF76EF8A8
:105BE0003748FFF76BF8374B1868002847D00DF59A
:105BF0000F7DBDEC0E8BBDE8F04F02F055B8294883
:105C000003F076FC264803F073FC2F48FEF754FAA5
:105C1000204B2E4A9C691A607CB16368013B63602B
:105C20005BB9236820469B689847A368013BA36043
:105C30001BB923682046DB6898471548244C03F0BD
:105C400057FC244803F054FC234803F051FC23483C
:105C500003F04EFC224802F05AFC224802F057FCA6
:105C60002148FEF76BFD2148FEF768FDD4E9005698
:105C7000AE429DD02846FFF721F86C35F8E70DF5C8
:105C80000F7DBDEC0E8BBDE8F08F00BFD2D70B00AF
:105C900084E603209056032054A603207CD60B00F4
:105CA000D8540320D4E40320E4E4032050E5032087
:105CB000AC7E03201C560320AC5503204055032026
:105CC000C8E50320E8540320187F0320DCDA0B002A
:105CD000BCE5032070E603205CE6032034E60320E5
:105CE00094E60320ACE603209CE603203055032015
:105CF000814210B51346A1EB000405D001462246AF
:105D0000184605F0B5FA0346181910BD2DE9F04103
:105D10000D460446FEF7BAFDD5E903310026C91A3F
:105D2000C4E903666661891004F10C00FEF7A6FF62
:105D3000E268D5E90301FFF7DBFF05F118012061F7
:105D400004F11800FEF7E8FFD5E909372648E662B6
:105D5000FF1ABB10C4E909665843FEF7C3F9C4E94A
:105D600009000744E762D5E909780646B84507D037
:105D70001EB139463046FEF7CFFF0C360C37F5E73B
:105D8000A66205F1300104F13000FEF735FAD5E9DD
:105D900012371548FF1A0023C4E912332365FB109C
:105DA0005843FEF7D9F9C4E9120007442765D5E93D
:105DB00012780646B84507D01EB139463046FEF780
:105DC0001BFA18361837F5E7E6646B6D6365AB6D43
:105DD000A365EB6DE3652B6E23666B6E6366AB6E3E
:105DE000A3662046BDE8F081ABAAAAAA2DE9F74F29
:105DF000A1EB00086B49DFF8B4A14FEAA8080546FB
:105E000001FB08F81446B8F1000F40F3C68029469C
:105E10002046FEF72DFAA54225D0D5E90391E26888
:105E20006369A1EB09069B1A9E4243D9002E3FD01D
:105E30005D4B9E4201D904F025FA30460191FEF7F0
:105E40002AF9019907463A464846FFF751FFE068AC
:105E500018B16169091AFEF724F9E76037446761F0
:105E6000E3683344236105F1180104F11800FEF7DB
:105E700097FFA54242D0D5E9096B626AE16AABEBB4
:105E80000609891A494556D24FEAA9000AFB00F0D3
:105E9000FEF728F907460246B3451FD02AB110463F
:105EA00031460192FEF738FF019A0C320C36F3E7C7
:105EB0003746C8E723699B1A9E4203D84846FFF736
:105EC00017FFCDE709EB03014846FFF711FFD4E9BF
:105ED0000302D5E90331101A1844F0E7D4E90901A7
:105EE000FEF7E1FE606A18B1E16A091AFEF7D9F817
:105EF00067624F44E762636A4B44A36205F1300175
:105F000004F1300004F014FA05F1480104F14800EE
:105F1000FEF700FA6B6D6365AB6DA365EB6DE36532
:105F20002B6E23666B6E6366AB6EA3666C356C344A
:105F300008F1FF3867E7A76ABF1AB9450CD83046A1
:105F40005946FEF765FFA76A0646B742D3D03046EA
:105F5000FEF7F4FB0C36F8E7BF100AFB07F7002F3B
:105F600009DD314610460192FEF71AFF019A0C3600
:105F70000C32013FF3E7D4E90967B91B6E6AAB6ADB
:105F80000E44B342B7D02FB1314638460193FEF7E5
:105F9000C3FE019B0C360C37F3E7204603B0BDE887
:105FA000F08F00BF13DA4B68FCFFFF7FABAAAAAAF1
:105FB0002DE9F041ADF5147D03F0B0FF4FF416511B
:105FC00003F0A0FF4FF4FA7001F0B6FE02F0AEF954
:105FD00002F0F6F902F0AAF9824A834D01460DA8B3
:105FE00002F0D8FE0DA802F092FA02F09FF97F4A63
:105FF00001460DA802F0CEFE0DA802F088FA05A811
:1060000002F0BBFB0FCD08AC0FC42E68266008ADB4
:106010000FCD0DAC0FC40DA8266001F0FBFF0446A8
:106020000DA8002C65D102F011F80094ADF8100015
:10603000022304AA032105A802F094FB02F076F9DA
:10604000002205A902F006FA694C6A4E0DA8FEF777
:106050004BFB04F0B1F803F029F86749204603F040
:10606000DAFA50236549A363654C02250620C1E98D
:106070001550C4E91550634D032207230DA8C6E946
:106080001523C5E91523FFF741FE314628A8FFF780
:106090003DFE294643A8FFF739FE21465EA85A4C2B
:1060A000FFF734FE594979A8FFF730FE2268A3684C
:1060B0009B1AB3F5077F6AD24FF40770FDF7EBFF29
:1060C0000DF13408054600F5077706461EB1414636
:1060D0003046FFF71BFE6C36B74208F16C08F5D16D
:1060E000D4E90068B0450CD03046FEF7E7FD6C36C9
:1060F000F8E701F0ADFF00230093024610230721CB
:1061000099E7206818B1A168091AFDF7CAFFC4E928
:106110000057A76004256C260DAB06FB0530FEF783
:10612000CDFD013DF8D2D4E90031C91A384B8910B0
:106130005943002403AB04AA490008A80494FEF7BD
:106140001BFB344B089D9A680F92D3E900011D6038
:10615000099D5D600A9D9D60CDE90D010DA8CDE909
:1061600008440A94FEF7EAFA08A8FEF7E7FAFEF7F1
:106170005FF92948234622462146406801F064FD24
:10618000059801F091FD0DF5147DBDE8F08165687D
:10619000AD1AB5F5077F10D394A90DA8FFF726FE19
:1061A0006768B8420546B5D0064630466C36FEF7FD
:1061B00085FDB742F9D16560ACE70DAB1D442946BA
:1061C0001846FFF713FE666894AB9D4207D01EB1D8
:1061D00029463046FFF79AFD6C356C36F4E7666069
:1061E00098E700BFACE60320F454032094E60320B4
:1061F00034E60320AC7E0320C0D50B00AC55032051
:1062000050E50320E4E40320BCE503201C560320F2
:1062100013DA4B689CE6032018E703200120FEF701
:1062200005BF00002DE9F04F2DED068BBA4B002283
:10623000B5B05868114601F0F7FC002800F0C5849D
:10624000B64B1B78002B00F0C084DFF840B3B44D90
:1062500003F064FEB34903F0ECF8DBE90046B44216
:1062600009D054F8042B029203F058FE029A2946F2
:10627000FEF7D0F8F3E703F051FE03F0CEF803F099
:106280004DFEA94BA94C1968DFF804830A22FDF7DB
:10629000AAFF03F043FE21680A22FDF7A4FF03F0E2
:1062A0003DFE61680A22FDF79EFF4FF00009A04CF9
:1062B000D4E900239B1A9F4A9B1053434B4540F25D
:1062C0004D844FF47A7001F037FD9B499B4E19A81D
:1062D00003F059F96C25236805FB09F52B4415A833
:1062E000196B03F050F915A919A803F0E1F901465B
:1062F000934803F079F915A803F0FAF819A803F008
:10630000F7F8904B9049914800933246904B00F03B
:10631000A1FC03F003FE8F4903F08BF88E4800F0D8
:1063200031FE71680291084605F004F802990246B0
:10633000894800F00AFE884801F014FA039048B931
:1063400003F0ECFD854935B0BDEC068BBDE8F04FA0
:1063500003F06FB821689FED829A294419A8FFF7CE
:10636000D5FC19A905A8FEF791FA002302937A49F2
:106370000BA800F021FE7B4A0BA90EA800F0ECFF51
:1063800000220EA911A800F0BBFE774A11A915A89A
:1063900000F0E2FF029A15A908A800F0B1FE15A8C6
:1063A00000F082FD11A800F07FFD0EA800F07CFD3A
:1063B0000BA800F079FD6D4A08A915A800F0CCFFE4
:1063C00015A911A800F0E2FF15A800F06DFD684ABC
:1063D00008A90EA800F0C0FF0EA915A800F0D6FF6E
:1063E0000EA800F061FD634A08A90EA800F0B4FFF2
:1063F00000210EA800F09EFE04460EA800F054FDF9
:106400005D4A08A90EA800F0A7FF0EA8B0EE490A41
:1064100000F09CFE0EA8F0EE408A00F045FD574AC1
:1064200008A90EA800F098FF0EA8B0EE490A00F0E7
:106430008DFE0EA8B0EE408A00F036FD139B012BB6
:106440002AD803F06BFD4E494E4F02F0F2FF15A81B
:1064500003F04EF811A803F04BF808A800F024FD53
:106460004FEAC9060024022C00F02682394625A8EE
:10647000FEF730FA002840F01F82032C40F08082A3
:1064800041492A4D25A8FEF725FA002800F074821C
:1064900003F092FE296813E2DDE90535ED1AED10EF
:1064A0004FF0000AAA45059976DA01EBCA06D6ED47
:1064B000007A78EEE77A17EE900A04F01BFBD6ED2F
:1064C000017A78EE677A41EC1A0B17EE900A04F025
:1064D00011FB02460B4604F065FB53EC1A2B0646F3
:1064E0000F461AEE100A194604F05CFB02460B46F2
:1064F0003046394604F0A0F941EC100B04F090F856
:106500001C9E51EC100B04F01DFE06EB8A060AF1EE
:10651000010A3060C6E700BF18E70320B4E6032095
:10652000DBD50B00D0D50B0018560320885603206E
:10653000BCE5032013DA4B68E0D50B0080E60320AE
:106540005CE60320F8D50B0034E6032090560320C8
:10655000E0520320FCD50B00187F032004D60B006B
:106560000000000013D60B0019D60B0020D60B003C
:106570002AD60B0036D60B0040D60B0049D60B00AE
:1065800053D60B0080E50320DC7E03209CE603202D
:10659000AC7E0320CCCCCC7DDDE91C76B74211D09B
:1065A0003A1D3B46964210460DD0D3ED007A90ED51
:1065B000007AB4EE677AF1EE10FA02F1040248BFF5
:1065C0000346EFE73B462E9ADB1BB2EBA30F4FEAE5
:1065D000A30008BF2F9801EBC003D3ED007AD3EDE1
:1065E000016AF4EEE78AF1EE10FA77EEE85A55BF49
:1065F00038EE666A76EEC87A78EEE77A87EEA57AA4
:106600004FEAC00658BF86EE277A5FED1E7AB5EED8
:10661000407AF1EE10FA0AD0B4EEE77AF1EE10FA11
:10662000BABFBFEE006AC6EE077AF0EE497AB0EE66
:10663000487AA7EEA57AF4EEC76AF1EE10FA4CBFDD
:106640004FF0010C4FF0000C002869D191ED027A57
:106650002F9E37EE687AF0EE486AE7EE276A91EDF2
:10666000037AF4EEC76AF1EE10FACCBF01250025DB
:10667000EEB9531E01EBC301654591ED000A91EDA2
:10668000017A40F0948070EE688AA8EEA78AB4EE92
:10669000C78AF1EE10FACCBF01210021A94200D136
:1066A000531C9A42C0F2858011461E4605E065459E
:1066B0006CD0024606460123194607EB810107EB21
:1066C000860090ED007AD1ED007A1F9977EE277A57
:1066D00001EB8601C7EE276A91ED008A3399B8EE87
:1066E000C88A914228EE268A66DB329D954263DC99
:1066F000994261DB9D425FDC03F010FCBA4902F075
:1067000098FE032700231F9AAE426ADD52F8251037
:1067100007EE901AF8EEE77A013538EE278AF3E7AC
:10672000083E0E4496ED007A37EE687AF0EE486A3D
:10673000E7EE276A05F1FF3E431E96ED017AF4EE7F
:10674000C76AF1EE10FACCBF0126002686452AD191
:106750002F9B834218D1531E01EBC301664591ED77
:10676000000A91ED017A02D0AB1E024699E770EE65
:10677000688AA8EEA78AB4EEC78AF1EE10FACCBFF9
:1067800001210021B1428AE76645EDD1029B15A89F
:106790000133029302F0ACFE11A802F0A9FE08A892
:1067A00000F082FBE3E56645DFD1431CDDE70246EE
:1067B00081E71946164680E7309991420ADC9942F2
:1067C00008DC319D954209DB9D4207DB039B0D46AA
:1067D000022798E700252B462F4694E70023012740
:1067E00091E7229D002B43D0804925A8FEF772F83F
:1067F000F0B1D5E906239B1A9B1007EE903AF8EE0C
:10680000677A37EEC88A012F40D1794925A8FEF76B
:1068100061F8002842D0D5E903239B1A9B1007EEAC
:10682000903AF8EE677A37EEC88AC4F1060435E08C
:10683000704925A8FEF74EF80028E4D0D8F8243097
:10684000D3E90632D21A9210530807EE903AF8EEC6
:10685000E77A37EE888AFDEEC87A17EE903AB3FBF6
:10686000F2F102FB113308EE103AB8EE488ACAE79B
:10687000614925A8FEF72EF828B9604925A8FEF73A
:1068800029F80028BFD0C4F10604BCE7032F05D1C6
:10689000564925A8FEF71EF80028C6D1B0EE480AD2
:1068A00003F078FE0C23BDEEC00A5F4310EE102A01
:1068B000EB5943F8224069E703F07EFC504B19681E
:1068C00002F02AFC03F078FC2B9B0546196815A8FA
:1068D00002F059FE15992846FDF7B8FC15A802F0FC
:1068E00007FE03F069FC2B9B0546996915A802F089
:1068F0004AFE15992846FDF7A9FC15A802F0F8FDF7
:1069000003F05AFC02F00FFC022C3FD0394625A8B8
:10691000FDF7E0FF002839D1032C79D13549394DF5
:1069200025A8FDF7D7FF002859D003F045FC2968BA
:1069300002F0F2FB2F4925A8FDF7CCFF0546002801
:1069400000F0C080DFF8C4A00025DAF82400D8F8F1
:106950002410D0E90032D21AD1E909135B1A9B1036
:10696000C3EBA203AB4240F2088103F025FC3021C7
:10697000FDF768FC0135E8E703F01EFC69689FE756
:1069800003F01AFCDBF80030995999E703F014FC86
:106990001B4B196802F0C0FB022C40F0E880144940
:1069A000194D25A8FDF796FF8246002857D04FF0D5
:1069B000000A6A6AD2E906135B1A9910D2E9002329
:1069C0009B1A9B1003EB5103534540F2D68003F012
:1069D000F3FB3021FDF736FC0AF1010AE9E703F089
:1069E000EBFB6968A4E700BF59D60B0014E5032050
:1069F0004C560320DC7E0320DC55032080E5032079
:106A00001856032088560320AC5503201C5603203B
:106A100003F0D2FBDBF80030995902F07DFB012C2A
:106A200040F0AB806B4925A8FDF754FF05460028D0
:106A300046D1394625A8FDF74DFF002800F09D807E
:106A4000229AD2E906239B1AB5EBA30F80F095801A
:106A500003F0B2FB3021FDF7F5FB0135F0E705F15E
:106A6000300125A8FDF736FF029030B9394625A838
:106A7000FDF730FFA0B1029B9A466A6AD2E9002373
:106A80009B1ABAEBA30F78D203F096FB229B1B68EC
:106A900013F82A103031FDF7D5FB0AF1010AECE7B3
:106AA00082466A6AD2E900239B1ABAEBA30F64D22A
:106AB00003F082FB3021FDF7C5FB0AF1010AF0E784
:106AC0000025BDE7444925A8FDF704FF002854D060
:106AD000DFF810A1DAF82410404BD1E90012586A0F
:106AE000511AD0E90902121A9210C2EBA102AA426D
:106AF00043D903F061FB3021FDF7A4FB0135E9E741
:106B000003F00CFA02F089FC013403F055FB02F0AB
:106B10000AFB042C06F104067FF4A5AC00231C46F6
:106B200000222299CD18C8586968091AB2EBA10F42
:106B300003D240F822400132F3E70C33302BEFD17F
:106B400003F0ECF902F069FC05A8FDF7E3FD19A8D4
:106B5000FEF7B4F809F10109FFF7A9BB03F0DEF96C
:106B600035B0BDEC068BBDE8F04F02F056BC012CF1
:106B70003FF458AF032C3FF4DDAE03F0CFF9259A74
:106B800017492346FDF746FC0C2565434FF0000AE4
:106B9000229A531952595B689B1ABAEBA30FAFD2D2
:106BA00003F00AFB229B5B5913F82A103031FDF7E2
:106BB00049FB03F0B3F9229B5B590A2253F82A10D0
:106BC000FDF7F6FA0AF1010AE2E735B0BDEC068BF3
:106BD000BDE8F08FDC55032014E50320E4E4032036
:106BE00062D60B001C56032010B5044603F0C8F80B
:106BF000204610BD38B50446154602F007FC05498D
:106C0000204602F003FC29462046BDE8384002F049
:106C100010BC00BF1FD40B0038B50546144602F067
:106C2000F5FB0B49284602F0F1FB002C0DDA2D2173
:106C3000284602F0EFFB614228460A2202F003FCDC
:106C40002846BDE8384002F0E8BB2146F4E700BF23
:106C50001FD40B002DE9F04F0E4691B098464FF02F
:106C6000FF331360044600213046DDF86890174674
:106C700002F04CFDD6F838E0034698B9BEF1000F9B
:106C800014BF72465022316892B2204602F078FE5C
:106C9000051E18BF0125C5B9204611B0BDE8F04F4B
:106CA00003F024B8764B0A9306F1140CBCE80F00ED
:106CB0000BAD0FC5DCF800302B701FFA8EF20023ED
:106CC0000AA9204602F03CFFE2E74946204602F0CE
:106CD0009DFB6C49204602F099FBB16A204602F008
:106CE00095FB6949204602F091FB6849684A2046B5
:106CF000FFF780FF0021304602F008FD20B932681E
:106D000064492046FFF776FF06F13C0A0021504611
:106D100002F0FCFC28B9726C5F492046FFF77CFF4B
:106D200006E05E49484604F0F3FA02460028F3D034
:106D3000B8F1000F0ED0D8F8001059B1D8F80420DF
:106D4000204622B1FFF756FF08F10808F3E702F0EA
:106D500070FBF9E7204602F060FB204602F070FD70
:106D60000021504602F0D2FC18B9F16B204602F027
:106D700060FB04F11C0A4FF420520021504604F03D
:106D800091FA00F0ADFD019000F0AAFD4FF000086F
:106D9000464641F2883B204602F04EFFE8B12046CD
:106DA00002F034FD814600F09BFD42F2FE739E42EC
:106DB000019004D8A31983F81C900136EBE742F246
:106DC000FF739E42F9D104F50053002283F81B287B
:106DD000204602F08BFFA846EFE7A319187700F0D2
:106DE0007FFD019BA0EB0309B8F1000F04D1D94549
:106DF00002D8C82000F0A0FF204602F03FFE20B1DC
:106E0000D94502D8B8F1000FC5D0204602F06EFF78
:106E1000514602A802F0B7FB0C23092202A906A8DA
:106E200002F098FC1E490AA802F0ADFB0AA902A8CC
:106E300002F08DFC04460AA802F05AFB631C08D13C
:106E400006A802F055FB02A802F052FB11B0BDE803
:106E5000F08F3D1D1349284602F0DDFB221D02A9DB
:106E60000AA802F097FC0AA9284602F010FC0AA81A
:106E700002F03EFB069804F0D9F93860E0E700BF65
:106E800054DA0B00DED50B0098D70B00AAD70B0005
:106E9000A4D70B00B5D70B00BAD70B00C9D70B008E
:106EA000CED70B00D2D70B00704710B50C2104468B
:106EB000FDF7F7F8204610BD10B5054B0360037CC5
:106EC00004461BB9406808B100F0EEFE204610BD34
:106ED000E0D70B0010B50446FFF7EEFF2046142163
:106EE000FDF7DFF8204610BD10B5074B0360037CAB
:106EF00004461BB9406908B100F0D6FE2046FFF7F2
:106F0000DBFF204610BD00BFF0D70B0010B50446D4
:106F1000FFF7EAFF20462C21FDF7C3F8204610BDFD
:106F200038B5037C04460D460BB1002038BD4068DF
:106F300038B100F0C1FE0028F7D0C4E901050120F6
:106F4000F4E7084600F0A8FEF5E770B5C3680E4602
:106F50001546D1184268044672B182688A420BD342
:106F60006068E3682A463146184404F073F9E26821
:106F70002A44E260012070BD2046FFF7D1FF0028BF
:106F8000EED1F8E743680021C16023B1826812B1F5
:106F9000184604F087B9704710B5C0E90112002205
:106FA000C260012202744361024A029B0260C36113
:106FB00010BD00BFF0D70B00D1E905239A42044B66
:106FC00038BF8260C0E9003124BF0023836070476E
:106FD00000D80B0070B513689D68136803F11004A6
:106FE00014608669B4420AD29B698C68A34201DAB4
:106FF000AB42F2DDA342CCBF0020012000E0002024
:1070000070BD2DE9F341089D984601F11003044637
:107010001746019300260198A36983421AD9826812
:107020008B689A4216DAAE420BD1386001AA20462C
:10703000FFF7D0FF28B1019BC8F8003002B0BDE8CF
:10704000F08101AA2046FFF7C5FF20460136FFF771
:10705000C1FFE0E70020F1E7F7B51F4601F110039B
:107060000446164601930025019BA2699A420FD956
:1070700098688A6890420BDAB54203D13B600120E0
:1070800003B0F0BD01AA20460135FFF7A3FFEBE7EF
:107090000020F5E7F0B5013B0024D1E90176F61BAD
:1070A000A64208DDA34206DD45683D442D5D02F899
:1070B000015B0134F1E700231370F0BD1FB51446E6
:1070C00010236A46FFF7E6FF04492246684600F0AF
:1070D000FBFD431E5842584104B010BDB4DA0B000A
:1070E0001FB5144610236A46FFF7D4FF68460021F7
:1070F00004F080FF012084ED000A04B010BD000000
:1071000073B50D4689680A4E044661B1686801ABE3
:10711000FFF7A2FF38B16B68C4E90063019BA3606D
:10712000204602B070BD6B68C4E900630023F6E737
:1071300000D80B0007B50191816819B1406801AA18
:10714000FFF7BCFF019803B05DF804FB07B5816849
:107150008DED010A19B1406801AAFFF7C1FF9DED4D
:10716000010A03B05DF804FB10B5044600680B4645
:1071700028B102F090FAE3680133E36010BD606863
:107180000028F8D0D4E90221013A8A4288BF43544A
:10719000F1E703467F2B37B50846D9B204D803B0D0
:1071A000BDE83040FFF7E0BF01F03F01B3F5006FED
:1071B000C3F3871541F0800407D245F0C001019068
:1071C000FFF7D2FF01982146E9E71B0B43F0E001EE
:1071D0000190FFF7C9FF05F03F01019841F08001E0
:1071E000EEE700002DE9FF4700244E68DFF8CCA051
:1071F00080460F461546A146B868B0425ADDD8F819
:107200000430995D9A19002C4BD0752905D86D2949
:1072100007D862291ED066291ED02846FFF7A4FF92
:107220003DE0A1F16E04072CF7D80FF2080C5CF8D2
:1072300024F000BF5D720B001B720B001B720B0071
:107240001B720B0061720B001B720B0065720B004E
:1072500069720B000821E0E70C21DEE70A21DCE778
:107260000D21DAE70921D8E7311D884217DD02A98F
:1072700004333344084612F8014F01F8014B9A4297
:10728000F9D101AA51468DF80C9000F01DFD01289E
:1072900005D1BDF804002946FFF77BFF0536002421
:1072A00004E05C2904D02846FFF75EFF0136A3E71F
:1072B0000124FBE7012004B0BDE8F087D3D70B0021
:1072C0007FB50C4606460C491046154602F0A3F958
:1072D000D4E90131C91A0131284602F027F9002307
:1072E0006A4621463046CDE9013300950393FFF706
:1072F00079FF04B070BD00BFD2D70B002DE9F04379
:1073000089B00546884604A812491646994602F0F7
:107310003AF9002700974B4603AA41462846FFF753
:1073200070FE044670B1039904AA2846FFF7C8FF0F
:10733000044608B90137EDE7314604A802F0E6F942
:107340000028F7D004A802F0D3F8204609B0BDE821
:10735000F08300BFD2D70B0073B50D4689680A4E83
:10736000044661B1686801ABFFF7C8FF38B16B68CC
:10737000C4E90063019BA360204602B070BD6B6846
:10738000C4E900630023F6E700D80B0038B50D46CA
:107390000549044602F0F7F8A96819B16868224661
:1073A000FFF78EFF204638BDD2D70B002DE9F04FF6
:1073B00044684FF0010C4FF0FF36D0F800E09645DE
:1073C00080F0B98111F80E80B8F1000F00F0B381A0
:1073D000B8F13A0F00F0988033D8B8F1220F00F0DE
:1073E000A68010D8A8F109085FFA88F8B8F1170F3D
:1073F0000DD89F4D0CFA08F818EA050F07D005685C
:1074000001350560D9E7B8F12C0F00F03381D0F8D1
:10741000008042450ED911F808505DB13A2D00F2B6
:1074200069811F2D00F251810A2D00F26081082D23
:1074300040F25681002B40F0628108F1FF35056073
:10744000A5E0B8F17B0F37D02ED8B8F15B0F33D061
:10745000B8F15D0FDBD1002BD1D04FF002094568A8
:10746000013D03EB0518002D55DBD8F804700137FA
:107470004DD0D8F808A0BAF1FF3F48D198F800B035
:10748000CB454BD10EF1010EC0F808A0C8F808E0BA
:1074900003EB051EDEF80470013742D0DEF80870F9
:1074A00001373ED18560AAE7B8F17D0FAFD1002B3F
:1074B000A5D04FF00109D2E70134002B9FD04568D9
:1074C000099FAF424AD905F1010EC0F804E003EB71
:1074D000051ECEE901664FEA051A0025CEF80C50CC
:1074E00085686F1C1FBF03EB0519D9F80C500135D7
:1074F000C9F80C50B8F17B0F0CBF0125022503F829
:107500000A500568CEF804504568013DCAE7013DC0
:10751000A8F11008A7E701357FF471AF6FF00104FF
:107520001EE0013D6F1CAEF1100EB3D167E70EF106
:107530000109C0F80090D0F80080424540F29380E5
:1075400011F80850002D00F08E80222D30D1F3B1BB
:107550004568099FAF4206D8C0F800E04FF0FF34FD
:107560002046BDE8F08F05F1010E4FEA051803EB48
:107570000515C0F804E0C5E901660027EF60D0F802
:1075800000E04FF0030A03F808A0C5E9019E8568F2
:107590006F1C04F101043FF432AF002B3FF42FAF16
:1075A00003EB051EDEF80C500135CEF80C5026E733
:1075B0005C2D11D108F10105AA420DD905604D5D80
:1075C000752D2BD86D2D0BD8662D27D85B2D1DD88A
:1075D000222D01D02F2D21D1056801350560AAE7A4
:1075E0006E3D072D1AD801A757F825F0D9750B0065
:1075F0001D760B001D760B001D760B00D9750B0058
:107600001D760B00D9750B0023760B005C3DEDB2A7
:107610000CFA05F540F241473D42DDD1C0F800E0EB
:107620007CE708F1020505604FF0040AD0F80080FD
:10763000424503D80568013D0560CDE711F80850C3
:10764000002DF7D0A5F1300BBBF1090F04D925F0BF
:107650002005413D052DE1D808F10105BAF1010AE7
:107660000560E3D1E6E7C0F800E06FF0020477E7D9
:1076700013008000002B3FF4C2AE85686F1C3FF4FE
:10768000BEAE2D015D5D013D012D7FF6B8AE4568B2
:1076900005F1FF3803EB051EB8F1000FFFF6AFAEA2
:1076A0001EF8105C013D012D0AD85EF80C5C013516
:1076B00006D05EF8085C013502D1C0F808809EE66D
:1076C00008F1FF38AEF1100EE6E7A5F12009244FCE
:1076D0005FFA89F90CFA09F919EA070F7FF4AAAEE3
:1076E000203D5E2D9AD808F1010505608FE60D2D2D
:1076F000F6D19FE605F0DF09B9F15D0FF8E74568BF
:10770000099FAF427FF628AF05F101084FEA05193E
:1077100003EB0515C0F80480C5E901660027EF609A
:10772000D0F800804FF0040A03F809A0C5E901E889
:107730000568013D83E6002B3FF412AF4268511EFD
:1077400003EB02130029FFF60BAF53F80C2C0132A8
:1077500003D053F8082C013287D00139103BF1E7F0
:1077600001100004F7B5C268044612B9002003B046
:10777000F0BD436900F12006ABB10021C0E908115A
:107780004FF0FF318162C169009141683046FFF7D7
:107790000DFE431C28D1257C002DE7D1606900F047
:1077A00083FA6561E56100254FF0FF37C4E90855AC
:1077B000E2686168A76200952B463046FFF7F6FD48
:1077C0000028D3DBE06117D0000100F065FAE26920
:1077D000606103460092C4E90855E2686168A762E7
:1077E0003046FFF7E3FD01E00028BFDB636903EBF0
:1077F0000010A0610120BAE76369A361FAE7000005
:1078000008B5024B1B689B68019308BD7802030012
:1078100008B5024B1B681B6D019308BD780203007D
:1078200008B5024B1B689B6D019308BD78020300ED
:1078300008B5024B1B681B6E019308BD780203005C
:1078400008B5034B1B68D3F89830019308BD0000BE
:107850007802030008B5034B1B68D3F8A8300193E6
:1078600008BD00007802030008B5034B1B68D3F87D
:10787000EC30019308BD00007802030008B5034B0B
:107880001B68D3F8F030019308BD000078020300B4
:1078900008B5024B1B685B6C019308BD48020300EE
:1078A00008B5024B1B68DB6C019308BD480203005E
:1078B00008B5024B1B685B6D019308BD48020300CD
:1078C00008B5024B1B685B68019308BD18020300F2
:1078D00008B5024B1B68DB68019308BD1802030062
:1078E00008B5024B1B685B69019308BD18020300D1
:1078F00008B5024B1B68DB68019308BD2802030032
:1079000008B5024B1B689B69019308BD2802030060
:1079100008B5024B1B68DB69019308BD2802030010
:1079200008B5024B1B681B6A019308BD28020300BF
:1079300008B5024B1B685B6A019308BD280203006F
:1079400008B5024B1B689B6A019308BD280203001F
:1079500008B5024B1B68DB6A019308BD28020300CF
:1079600008B5024B1B681B6B019308BD280203007E
:1079700008B5024B1B681B6C019308BD280203006D
:1079800008B5024B1B681B6D019308BD280203005C
:1079900008B5024B1B685B69019308BD6C020300CC
:1079A00008B5024B1B685B69019308BD64020300C4
:1079B00008B5024B1B681B6A019308BD64020300F3
:1079C00008B5024B1B689B6A019308BD6402030063
:1079D00008B5024B1B689B68019308BD6802030051
:1079E00008B5024B1B68DB68019308BD6802030001
:1079F00008B5024B1B689B69019308BD3802030060
:107A000008B5024B1B68DB69019308BD380203000F
:107A100008B5024B1B681B6A019308BD38020300BE
:107A200008B5024B1B689B6A019308BD380203002E
:107A300008B5024B1B681B6B019308BD380203009D
:107A400008B5024B1B689B6B019308BD380203000D
:107A500008B5024B1B68DB68019308BD3C020300BC
:107A600008B5024B1B681B69019308BD3C0203006B
:107A700008B5024B1B685B69019308BD3C0203001B
:107A800008B5024B1B689B69019308BD3C020300CB
:107A900008B5024B1B68DB69019308BD3C0203007B
:107AA00008B5024B1B689B6A019308BD3C020300AA
:107AB00008B5024B1B681B6C019308BD3C02030018
:107AC00008B5024B1B681B68019308BD4C020300FC
:107AD00008B5024B1B685B68019308BD4C020300AC
:107AE00008B5024B1B681B69019308BD4C020300DB
:107AF00008B5024B1B685B69019308BD4C0203008B
:107B000008B5024B1B689B69019308BD4C0203003A
:107B100008B5024B1B68DB69019308BD4C020300EA
:107B200008B5024B1B681B6A019308BD4C02030099
:107B300008B5024B1B685B6B019308BD6002030034
:107B400008B5024B1B681B6D019308BD6002030062
:107B500008B5024B1B685B68019308BD2002030057
:107B600008B5024B1B685B69019308BD2002030046
:107B700008B5034B1B68D3F88830019308BD00009B
:107B80002002030008B5034B1B68D3F8943001931F
:107B900008BD00002002030008B5024B1B68DB6B28
:107BA000019308BD4402030008B5024B1B685B68E3
:107BB000019308BD4002030008B5024B1B689B6897
:107BC000019308BD4002030008B5024B1B68DB6847
:107BD000019308BD4002030008B5024B1B681B69F6
:107BE000019308BD4002030008B5024B1B685B69A6
:107BF000019308BD4002030008B5024B1B689B6956
:107C0000019308BD4002030008B5024B1B68DB6905
:107C1000019308BD4002030008B5024B1B681B6AB4
:107C2000019308BD4002030008B5024B1B685B6A64
:107C3000019308BD4002030008B5024B1B689B6A14
:107C4000019308BD4002030008B5024B1B68DB6AC4
:107C5000019308BD4002030008B5024B1B681B6B73
:107C6000019308BD4002030008B5024B1B685B6B23
:107C7000019308BD4002030008B5024B1B681B6C52
:107C8000019308BD4002030008B5024B1B685B6C02
:107C9000019308BD4002030008B5024B1B681B6836
:107CA000019308BD1C02030008B5024B1B685B680A
:107CB000019308BD1C02030008B5024B1B689B68BA
:107CC000019308BD1C02030008B5024B1B685B69E9
:107CD000019308BD1C02030008B5024B1B685B6AD8
:107CE000019308BD1C02030008B5024B1B68DB6A48
:107CF000019308BD1C02030008B5024B1B681B6BF7
:107D0000019308BD1C02030008B5024B1B68DB6B26
:107D1000019308BD1C02030008B5024B1B681B6CD5
:107D2000019308BD1C02030008B5024B1B685B6C85
:107D3000019308BD1C0203000021FFF711BF70472B
:107D40007047704770470000064B994210B500F12C
:107D50000C0405D0084602F0A1FA002808BF002450
:107D6000204610BDA8D90B00064B994210B500F172
:107D70000C0405D0084602F091FA002808BF002440
:107D8000204610BDA8D90B00064B994210B500F152
:107D90000C0405D0084602F081FA002808BF002430
:107DA000204610BDA8D90B0010B568210446FCF789
:107DB00078F9204610BD10B528210446FCF771F96A
:107DC000204610BD10B530210446FCF76AF9204664
:107DD00010BD6821FCF765B92821FCF762B9302194
:107DE000FCF75FB9F0B50025EC1C8C420DD86E1C79
:107DF000445D875D974205D12644B14205D31D609D
:107E0000601CF0BD01342544EEE70020F9E70000D6
:107E1000024A03490A20FFF78BBE00BFD1780B004E
:107E200008D80B0030B40D4611461A46036809689D
:107E30002868D3E90043A44630BC6047012A38B51E
:107E4000044602D10B68236003E0022A03D0032A10
:107E50000DD0002038BD08200D68FCF71CF9034642
:107E60000028F0D095E8030083E80300EBE7006802
:107E70000028EED00821FCF714F9EAE710B5836872
:107E8000044613B1032201469847204610BD10B5A1
:107E900004465830FFF7F2FF04F14800BDE81040F7
:107EA00001F026BB10B54368013B0446436063B94B
:107EB00003689B689847A368013BA3602BB92368BC
:107EC0002046DB68BDE81040184710BDA0F1300324
:107ED000DAB2092A01D818467047A0F16103052BD0
:107EE00001D857387047A0F14103052B94BF3738AC
:107EF0004FF0FF307047000010B500230370044BB3
:107F000004461868FFF7CCFC01232370204610BDFF
:107F1000C0E6032010B5037804461BB1024B186875
:107F2000FFF7C6FC204610BDC0E6032082B0034622
:107F3000086849686A4603C26A4603CA1860184658
:107F4000596002B0704708B582798B799A4206D1A0
:107F5000062203F06FF9B0FA80F0400908BD002056
:107F6000FCE74FF0FF33036083800020704708B5C3
:107F70000246002101604160FFF7F3FF9171104656
:107F800008BD000010B501230361054B024603F153
:107F9000100153F8044B42F8044B8B42F9D110BD49
:107FA000B6D90B0010B50B460446B1B1012A01F158
:107FB00010020AD1014653F8040B41F8040B934216
:107FC000F9D101232361204610BD411E12F8010D95
:107FD00001F8010F9A42F9D1F3E7102203F062F998
:107FE000F1E738B5044615461A46FFF7DBFFA581D1
:107FF000204638BD08B5026922B98089003818BF0B
:10800000012008BD0249102203F014F9F6E700BF71
:10801000D6D90B000069704738B50C4614220021F0
:10802000054603F03FF923691BB9A3892B80284635
:1080300038BD01232B7421462B4604F1100251F860
:10804000040B43F8040B9142F9D1F0E780897047A3
:10805000704708B502690B699A4206D1102203F0F5
:10806000E9F8B0FA80F0400908BD0020FCE7000004
:1080700001232DE9F3410361344B0C4606460246C9
:1080800003F1100153F8040B42F8040B8B42F9D1B1
:1080900044B32421204603F069F904284FF0000579
:1080A00023D1ADF8045001AFA51C063415F8020C1D
:1080B000FFF70CFFB0F1000812DB15F8010CFFF719
:1080C00005FF00280CDB023540EA0810A54207F83E
:1080D000010BEBD19DF8053033739DF804307373B9
:1080E0000023336102B0BDE8F0814FF01008242175
:1080F000204603F03BF9A84207D84246002130460B
:1081000002B0BDE8F04103F0CDB8B8F1000FE9D0FE
:10811000605DFFF7DBFE030615D4000108F1FF38B0
:10812000C7B206F808702421204603F01FF9013574
:10813000A84208D9605DFFF7C9FE40B20028A4BF7D
:10814000384306F808000135D1E700BFB6D90B0067
:1081500013B504460191FFF715FF20460199FFF77B
:1081600087FF204602B010BD38B54FF6FF730025DB
:10817000044643800E22294605700571063003F03F
:1081800091F804F11400FFF7FDFE04F12800FFF759
:10819000F9FE044904F13C0001F0F5F9656520465B
:1081A00038BD00BFD2D70B0010B5D0E9063203EBC3
:1081B000C2029342184606D0046824888C4203F118
:1081C0000803F6D110BD0020FCE700002DE9F041C6
:1081D00000260660074628200C46FBF75CFF051EBC
:1081E00005F10C080FD00123C5E90133084B2B60C2
:1081F0004046FFF7C7FE0FCC2E6285F82460464646
:108200000FC623683360C7E900853846BDE8F081B2
:1082100078D90B0070B50025056006463020FBF7C5
:108220003AFF044688B10123C0E90133094B0360DA
:108230004FF6FF7383810E30FFF799FEC4E90655B0
:10824000C4E90855C4E90A55A57574600C34346056
:10825000304670BD94D90B0037B50D46044601A8D1
:10826000FFF74AFE2A68D2F802302360D2F80630BF
:10827000636001A8FFF74EFE204603B030BD30B565
:10828000054687B00C4601A8FFF736FE2A6823682A
:1082900012881B889A420DD1294602A8FFF7DCFFFD
:1082A000214604A8FFF7D8FF04A902A8FFF74BFE58
:1082B000044600B9002401A8FFF72CFE204607B0B1
:1082C00030BD000010B504466420FBF7E4FE68B141
:1082D0000023C0E90033C0E90233C0E90433C0E938
:1082E00006330362C362C363C364C365206020B9FD
:1082F0000A4A0B490A20FFF71BFC0020FFF780FA0F
:1083000020B1064A07490A20FFF712FC21680648F7
:108310000022FFF7B3FA204610BD00BFD1780B0052
:1083200008D80B0046D80B00AD880B0010B50A4CDE
:108330002378BFF35B8FDB070CD42046FBF7B3FE3B
:1083400040B10648FFF7BEFF2046FBF7B1FE0448E8
:1083500002F066FF014810BDB8E60320C4E6032022
:1083600079850B0030B50368093B012B8DB00446BD
:108370000D4611D8FFF7DAFFA1880068FFF714FF58
:10838000034658B92022CDE904200B4A00920B493C
:1083900004AA3220FFF7D4FB0DB030BD6A6D002A6D
:1083A000FAD0D4E9032105F14C00CDE90312AC6DFC
:1083B00004AA03A9A047EFE788D80B001FD80B0039
:1083C00008B50020FFF71CFA00EAE07008BD19B9F3
:1083D0000A460846FFF71CBAD1E900010022F9E776
:1083E00038B5141E4368054602DB62189A4200DD68
:1083F0005C1A2A68501801191A44521A02F038FF00
:108400006A68121B6A6038BD37B50A4604460D46D5
:1084100001ABD0E90001FFF7E5FC024638B1019954
:108420002046FFF7DDFF29462046FFF7EDFF03B0AA
:1084300030BD10B50C4629B90A460846BDE81040C3
:10844000FFF7EEB901212046FFF7DEFFD4E9000176
:108450000022F3E738B504461546FFF7B8FF0028B9
:108460000ADB29462046FFF7E4FF002804DBBDE8CD
:1084700038400020FFF7DCB938BD000038B50023D4
:108480000446836008200D46FBF705FE18B12B68F3
:1084900003606B684360034BE360034B2060A360A1
:1084A000204638BD257E0B003D7E0B000B68036027
:1084B00013B15A6801325A60704710B551F8043B45
:1084C000044640F8043BFFF7F1FF23680BB9FFF7C0
:1084D0009FFC204610BD10B551F8043B044640F8FF
:1084E000043BFFF7E3FF204610BD10B551F8043BF5
:1084F000044640F8043BFFF7D9FF204610BD10B5F5
:108500000446006808B1FFF7CDFC204610BD10B549
:1085100004460430FFF7F3FF204610BD70B5D0E9E4
:108520000053044605EBC306AE4204D0281DFFF7F6
:10853000E6FF0835F8E72068FFF7B6FB204670BD78
:1085400070B5D0E90053044605EBC306AE4204D033
:10855000281DFFF7D4FF0835F8E72068FFF7A4FBD4
:10856000204670BD10B504462430FFF7E9FF04F142
:108570001800FFF7D3FF10BD70B5174B1C6854B33C
:1085800004F15400FFF77AFC04F14400FFF776FC95
:1085900004F13400FFF772FC04F12400FFF76EFCD5
:1085A000D4E9065305EBC306AE4204D0281DFFF7FD
:1085B000A6FF0835F8E7A069FFF776FB04F10C0089
:1085C000FFF7BEFF2046FFF7A9FF20466421BDE864
:1085D0007040FBF766BD70BDC4E6032013B50023F1
:1085E000D1E90042C1E900330368009304604368A5
:1085F000426001A80193FFF782FF02B010BD8268BC
:1086000010B50AB901F047FEBDE81040C36818472D
:1086100038B50D1E0446006803DDFFF74DFB18B9A1
:1086200038BDFFF741FB00202060A5600120F7E77F
:1086300008B583688B4202DAFFF7EAFF08BD012024
:10864000FCE72DE9F0410F4641681D461944836857
:1086500099420446904612DC266862683E44D21B6A
:108660003146701902F004FE2A464146304602F0B7
:10867000F1FD63682B4463600120BDE8F081FFF7E2
:10868000C7FF0028E8D1F8E7F8B50D46D0E9011397
:108690009942044616460BDA276862687919521B1C
:1086A000481C02F0E5FD7E55636801336360F8BD48
:1086B0000131FFF7ADFF0028EED1F8E70A46416827
:1086C000FFF7E2BF2DE9F74304461D460F4601AB15
:1086D00090460A46D0E900019DF82890FFF782FBFA
:1086E000AE1C63680246B9F1000F26D128B33344AB
:1086F0001B1AFF2B09D801992046FFF771FE61680C
:1087000020463144FFF794FF18B9606803B0BDE814
:10871000F0836A1C0199D2B22046FFF7B5FF019998
:108720003A4601312046FFF7AFFF01992B464246FA
:1087300002312046FFF785FFE7E7F118FF29E4D86B
:108740002046FFF775FF0028DFD0691CC9B220461C
:10875000FFF7B4FF39462046FFF7B0FF61682B46AC
:108760004246E6E730B49DF808501AB1029530BC95
:10877000FFF7A8BF406830BC70471FB50023C0E9B1
:10878000003383600622009301238DF80F201946E1
:108790000DF10F020446FFF7E5FF204604B010BDBF
:1087A0008842F8B504460D46164614D9904213D2B5
:1087B000A2F10806751AA1F108072C44B74218D097
:1087C0001CB131462046FFF790FE301DFFF797FEA3
:1087D000083E083CF2E70CD0B5420AD01CB129464D
:1087E0002046FFF782FE281DFFF789FE0835083472
:1087F000F2E7F8BDF7B5044646686846FFF775FE30
:10880000D4E901739F4212DB0137002F29DDF80004
:10881000FFF742FA0546F0B1D4E9001201EBC202BB
:10882000FFF7BEFF2068FFF73FFA2560A7602368C7
:10883000626803EBC60603EBC202314606F108008C
:10884000FFF7AEFF1EB169463046FFF74EFE636884
:1088500001336360012501A8FFF751FE284603B0EC
:10886000F0BD0025DEE7F8B5D0E9004305460F4628
:1088700004EBC306A64205D039462046FFF7FFFCAD
:1088800008B114B9F8BD0834F4E7201DFFF737FE2E
:10889000D5E9003204F1080103EBC2022046FFF7DC
:1088A0007FFF6B68013B6B60ECE700002DE9F04156
:1088B00005468EB003A80C46FFF71EFB2E68F31E7C
:1088C0000D2B3CD8DFE813F00E0053003B00D10025
:1088D0003B003B003B003B003B009B009B009B00A0
:1088E0009B009B0004A8FFF795FC049BAA891A80B3
:1088F0006968049808310230FFF718FB04A906A83C
:10890000FFF7F3FD06A904F11800FFF773FF054612
:1089100007A8FFF7F4FD20230693B5B95D4B5E4928
:10892000009332202B4606AA0795FFF709F9049B0E
:1089300029461888FEF784FF05A8FFF7E0FD03A885
:10894000FFF7E8FA0EB0BDE8F081544A0092002328
:108950005149079306AA0120FFF7F2F8E36A002BBA
:10896000EAD004A904F12400FFF749FEE4E7A9894D
:108970002046FFF719FC06460028E0D00568D5E937
:1089800006324FF6FF71298003EBC2029A4203D0F0
:1089900053F8080B4180F9E7D5E9037307EBC308E7
:1089A000B84504D0381DFFF7AAFD0837F8E70023C3
:1089B0002B61D5E9067307EBC308B84504D0381D11
:1089C000FFF79DFD0837F8E70023EB61AB72E36B1F
:1089D00023B1314604F13400FFF711FE00232022B9
:1089E000CDE906232E4A00922B4906AA0120FFF763
:1089F000A7F8314604F11800FFF735FF9FE7A98972
:108A00002046FFF7D1FB002899D0E36C002B96D0CD
:108A100000230D2EADF8163001D0102E17D10023F3
:108A200069681A4606258DF8153004918DF81420D2
:108A30000690DDE9040109AB8DF81C60089583E818
:108A40000300236D06A904F14400984777E70F2E31
:108A500001BF2B7A696803F0010208250FBFC3F339
:108A600040031A4619461D46DDE7A9892046FFF74F
:108A70009BFB014600283FF462AFE36D002B3FF4FF
:108A80005EAF6B68069306AA236E04F15400984704
:108A900055E700BFA0D80B001FD80B00C6D80B00AD
:108AA000E3D80B0013B50B460246D0E900016C4633
:108AB00084E8030093E8030082E8030094E80300DD
:108AC00083E8030002B010BD38B505460C46FFF739
:108AD000E9FFAB68A268AA60A360EB68E268EA609D
:108AE000E36038BD70B504468CB00E4601921D4659
:108AF000FFF73AFB2671019904F13C0000F08BFD71
:108B000004F14C06CDB1109B029502A904A8039371
:108B1000FFF7B4FC002308A904A80A93FFF7D4FFC9
:108B2000314608A8FFF7D0FF08A8FFF7A7F904A867
:108B3000FFF7A4F920460CB070BD0695EAE70000E7
:108B40002DE9F04F87B01D46DDE9104380468B4686
:108B50009246129903930022682002910492FBF737
:108B60009AFA061E06F10C0918D001223746C6E90A
:108B700001220299154A47F8202B039B00915A467F
:108B800051464846FFF7AEFF0FCD0FC72B683B603D
:108B90000FCC06F134050FC523682B6004A94046AD
:108BA000CDE90496FFF71AFD05A8FFF7A8FCD8F851
:108BB00000303BB9064A07490A2007B0BDE8F04F2C
:108BC000FEF7B6BF07B0BDE8F08F00BF5CD90B0061
:108BD000D1780B0008D80B008842F8B504460D4642
:108BE000164614D9904213D2A2F10806751AA1F1C3
:108BF00008072C44B74218D01CB131462046FFF775
:108C00006AFC301DFFF77BFC083E083CF2E70CD005
:108C1000B5420AD01CB129462046FFF75CFC281D4E
:108C2000FFF76DFC08350834F2E7F8BD70B50E1E8D
:108C3000054611DDF000FFF72FF8044658B1D5E9DD
:108C4000001201EBC202FFF7C7FF2868FFF72CF8FC
:108C50002C60AE60012070BD0024F6E773B50446B9
:108C600045686846FFF737FCD4E90113994210DAEA
:108C70002368626803EBC50503EBC202294605F1D0
:108C80000800FFF7A9FF8DB963680133636001260F
:108C900006E001312046FFF7C9FF06460028E7D16C
:108CA00001A8FFF72CFC304602B070BD694628468B
:108CB000FFF711FCE8E78842F8B504460D46164672
:108CC00014D9904213D2A2F10806751AA1F108072F
:108CD0002C44B74218D01CB131462046FFF7EDFBBB
:108CE000301DFFF70CFC083E083CF2E70CD0B54203
:108CF0000AD01CB129462046FFF7DFFB281DFFF7ED
:108D0000FEFB08350834F2E7F8BD70B50E1E0546C7
:108D100011DDF000FEF7C0FF044658B1D5E900129E
:108D200001EBC202FFF7C7FF2868FEF7BDFF2C600A
:108D3000AE60012070BD0024F6E773B504464568B7
:108D40006846FFF7BAFBD4E90113994210DA2368A9
:108D5000626803EBC50503EBC202294605F1080072
:108D6000FFF7A9FF8DB9636801336360012606E050
:108D700001312046FFF7C9FF06460028E7D101A8C8
:108D8000FFF7BDFB304602B070BD69462846FFF7CD
:108D900094FBE8E72DE9F04F1746A1B080460AA8FA
:108DA0000E46FFF7A9F83C68237953B93946404687
:108DB000FFF783FB0AA8FFF7ADF8404621B0BDE8F6
:108DC000F08F3368D3E9035305EBC303039304F136
:108DD000280A04F1140B039B9D4221D0D5F8009082
:108DE000584609F11401FFF734F9B8B109F1280127
:108DF0005046FFF72EF988B12368D9F80020534078
:108E000033F47F430AD12022CDE915235E4A009234
:108E100015AA5E493220FEF793FEC7E70835DAE768
:108E20005046FFF7E7F860B95949012215A815AD7A
:108E3000FFF7B8F80FCDD446ACE80F002B68CCF89C
:108E400000303368D3E9005305EBC30B5D45A946F9
:108E500051466ED055F8080BFFF7FBF80028F5D007
:108E600004F1140A5046FFF7C5F888B9494B484940
:108E70001A88013292B21A8015A8012315ADFFF7A6
:108E8000B0F80FCDD446ACE80F002B68CCF800301A
:108E9000414B15932822002116A802F003FA5146EF
:108EA00004A8FFF7B9F804AB18AA0DF1200C186854
:108EB0005968154603C5083363452A46F7D1186833
:108EC000286023798DF85830D9F800309B8AADF8A6
:108ED0007430E36B1793314B0022A11D15A8CDE927
:108EE0001E34FEF7C1FC00287FF460AF012323701D
:108EF000346839460C340DA8FFF7DFFA20460DA977
:108F0000FFF71BFF04460EA8FFF7F9FA002C7FF4C9
:108F10004DAF2023CDE90D34214B00930DAA2346FC
:108F200077E739464046FFF7C8FA0CA8FFF7E7FA9B
:108F300040E70BA8FFF74AF9514615A8FFF76CF870
:108F40000B9A0023143215A90120FEF783FC002898
:108F5000E7D135680BA90DA8FFF7BDFA28460DA982
:108F6000FFF77CFE05460EA8FFF7C9FA002DD8D002
:108F700032685368126803F10053013B0CA802EBFE
:108F8000C309FFF7BCFA6BE702D90B001FD80B002F
:108F9000C6D90B00BCE6032003002C0065830B0040
:108FA0002DD90B00024800230360FEF771BC00BFFF
:108FB000C0E60320002240681146FEF72DBE0022C5
:108FC00040681146FEF750BE40680022FEF744BEDE
:108FD0004068002281F00101FEF716BE00234068C0
:108FE0001A461946FEF708BE002340681A4619467D
:108FF000FEF7FABD002240681146FEF7EDBD0022E3
:1090000040681146FEF7D8BD406800220221FEF7F5
:10901000DBBD002340681A46FEF7C6BD024B0322A3
:109020005A60024A1A607047C8E60320F0D90B0064
:109030007047F8B5064615460C468F18BC4206D058
:10904000336814F8011B9B6830469847F6E72846BA
:10905000F8BD007C0022FEF763BC007C0021FEF717
:1090600067BC007C0021FEF76BBC007C0021FEF792
:109070006FBC007C0021FEF773BC10B514210446C0
:10908000FBF70FF8204610BD10B54FF47A73044675
:1090900008460021C4E90113034B236020741146E4
:1090A000FEF766FC204610BD2CDA0B000023007C86
:1090B0001A461946FEF71CBC7FB500221423CDE9E1
:1090C0000122ADF804300B788DF808304B6803931B
:1090D000CB680493007C0B7A059301A9FEF750FC42
:1090E00007B05DF804FB1FB5003B8DF800104FF092
:1090F0006401039118BF0123694601928DF808307D
:10910000FFF7DAFF05B05DF804FB0123FFF7EBBFC3
:10911000007C0022FEF7F4BBC9B2FFF7F9BF007C68
:109120000022FEF7F5BB0121FFF7F9BF704710B52C
:1091300018210446FAF7B5FF204610BDF0B5037DAF
:10914000062B8DB00E4600F104074FF0000412D03C
:1091500000F1080515F8011D0A22304600F073F9E8
:10916000AF42044419D0002CF4D02E21304600F038
:1091700051F90444EEE72F236A4639460A208DF858
:109180000040FEF70DFC684602F0D4F83368024652
:10919000DB68694630469847044620460DB0F0BD6E
:1091A00010B5054B0446112240F8043B002102F0A3
:1091B00079F8204610BD00BF54DA0B000346074A79
:1091C00010B543F8042B01F1100251F8044B43F899
:1091D000044B9142F9D10A781A7010BD54DA0B0091
:1091E000037D042B04D14068003818BF012070476C
:1091F000062B07D143683BB983682BB9C3681BB9F9
:109200000069F1E7002070470120704710B59DF814
:10921000084044EA032343EA024242EA016104238C
:109220004160037510BD000007B5064B0360CB78A5
:1092300000938B784A780978FFF7E8FF03B05DF870
:1092400004FB00BF54DA0B00014B024A1A6070475E
:10925000D0E6032060DA0B00002340681A46FEF7D0
:10926000A3BC406800220221FEF7AEBC0022406889
:109270001146FEF7A1BC002240681146FEF7ACBCC7
:10928000002340681A461946FEF7AEBC002340682A
:109290001A461946FEF7B0BC40680021FEF7ECBC48
:1092A00040680021FEF7F0BC4068002281F0010117
:1092B000FEF7AABC40680022FEF7CEBC0022406840
:1092C0001146FEF7D1BC002240681146FEF7A4BC4F
:1092D0002DE9F04395B014460D460746FFF760FFB1
:1092E00000211C220DA8009101F0DCFF40230C930B
:1092F00020466B460CAA0021FEF772FB04460028AC
:109300004BD1024601216868FEF766FC02218046C7
:1093100022466868FEF760FC009E81462146002ECA
:109320003BD0002939D17368022B03D00A2B11D00E
:10933000F669F4E7B8F1000FFAD0716906A80431B4
:1093400007ADFFF771FF0FCD3C1D0FC42B682370D5
:109350004146EDE7B9F1000FEAD07469102201A887
:1093600001F0A0FF06238DF8143001AD04F10803CD
:109370001834186859682A4603C20833A3421546B0
:10938000F7D101A906A807ADFFF718FF0FCD3C1DC7
:109390000FC42B6823704946CAE70098FEF718FBF4
:1093A000384615B0BDE8F083024B034A1A6000222C
:1093B0005A607047D4E603206CDA0B00F8B5064615
:1093C0000D468F180024BD420CD0336815F8011BE0
:1093D0009B6830469847031E01DB1C44F3E7002CD2
:1093E00008BF1C462046F8BD13B50446084659B1CF
:1093F000019101F09FFF23680199DB680246204636
:1094000002B0BDE81040184702B010BD08B5FFF724
:10941000EBFF08BD03689B68184738B50D2105466A
:10942000FFF7F8FF0A2104462846FFF7F3FF204420
:1094300038BD38B50546FFF7D7FF04462846FFF785
:10944000ECFF204438BD30B58BB00023012A8DF8E5
:10945000243098BF0A2209AC0D46B1FBF2F101FBA2
:10946000125303F0FF03092B94BF30333733DBB2C1
:10947000AA4204F8013DEFD92146FFF7B5FF0BB032
:1094800030BD2DE9F04186B000AF05460E46381DCF
:10949000142114463B60FEF71FFC13280ED8391D1B
:1094A0002846FFF7A1FF04461EB12846FFF7B5FF87
:1094B000044420461837BD46BDE8F08100F108039A
:1094C00023F00703E846ADEB030D2246411C3B6841
:1094D0006846FEF701FC69462846FFF785FF04460B
:1094E000C546E1E7014B00229A607047DCE60320A5
:1094F00010B504460068FEF7D7FB204610BD10B536
:109500000446006808B1FEF7CFFB0023C4E901332D
:10951000236010BD38B504460D4600680131FEF7E2
:10952000CBFB10B1C4E90005012038BD10B50368BC
:10953000044623B143688B4201D3012010BD20466D
:10954000FFF7E8FF0028F9D0A368002BF5D12268C7
:109550001370F2E737B50D46114601920446FFF746
:10956000E5FF019A28B92046FFF7C9FF204603B05E
:1095700030BDA2602946206801F06CFE2268A36815
:109580000021D154F2E7002313B5C0E900330446AB
:109590008360037341B10846019101F0CBFE01994C
:1095A00002462046FFF7D6FF204602B010BD38B570
:1095B000054600680C4668B16A688B689A4207D312
:1095C000096801F0AFFEA368AB600023A36038BD5B
:1095D000FEF76AFB23682B6063686B60A368AB606F
:1095E0000023C4E90033F1E7884210B5044605D0F2
:1095F0000B682BB18A681946FFF7ACFF204610BDF7
:10960000FFF77DFFFAE7884210B5044601D0FFF767
:10961000CEFF204610BD13B5044659B1084601914E
:1096200001F088FE019902462046FFF793FF20468D
:1096300002B010BDFFF763FFF9E710B504468AB02A
:109640000023C4E90033A3602373084601A900F096
:10965000FFFC01A92046FFF7DEFF20460AB010BD3F
:1096600070B505460E4609B9002070BD6AB1846820
:1096700014442146FFF75AFF0028F5D02868AB684C
:109680003146184401F04EFEAC600120EDE78A68D7
:109690000968FFF7E5BF07B500238DF80410012224
:1096A00001A98DF80530FFF7DBFF03B05DF804FB7F
:1096B00010B58A6809680446FFF7D2FF10B9204642
:1096C000FFF71DFF204610BD02680B46096862B116
:1096D00041B9806860B110787047986840B10978E6
:1096E00048427047104601F013BE0029F5D10846E4
:1096F000704708B582688B689A4205D1FFF7E4FF8E
:10970000B0FA80F0400908BD0020FCE708B5826887
:109710003AB921B10878B0FA80F0400900E00120A0
:1097200008BD006809B90078F5E701F0F1FDF2E73E
:1097300010B58368934207D904680968A01801F03E
:1097400021FE08B1001B10BD4FF0FF30FBE70022E7
:10975000FFF7EEBFF8B59A420F461D460C4988BF89
:1097600013461446064684BF2C461D46FFF70BFFE2
:10977000BB68A3420AD33968AB4294BFC4EB03026F
:10978000C4EB050221443046FFF7E4FE3046F8BD45
:10979000D2D70B0010B504468B68FFF7DBFF2046DD
:1097A00010BD0000054B02221A60054B054A9A6065
:1097B0000020C3E90000FEF7CBB900BFF8E60320A4
:1097C000ECE603200000FFFF13B503688DF80710D7
:1097D000DC6B01224FF0FF330DF10701A04702B00F
:1097E00010BD10B40368DC6B4FF0FF33A4465DF886
:1097F000044B604713B5134602688DF80710D46B0D
:109800000DF107010122A04702B010BD10B5436958
:10981000B3F88620B3F884309A42044608D06369CE
:10982000B3F88420511CA3F884101344187910BD98
:1098300003681B6998470028F1D14FF0FF30F6E725
:10984000704743691868C043C00F704770470000F5
:10985000064B994210B500F10C0405D0084600F003
:109860001DFD002808BF0024204610BDA8D90B000C
:1098700010B5AC210446FAF714FC204610BDAC210B
:10988000FAF70FBC2DE9F0414FF0000886B01C46F6
:10989000C0F8048005460E4617464146102202A82D
:1098A00001F000FD631C09D04FF47A73B4FBF3F2AE
:1098B00003FB1244CDE902285C4304946869102339
:1098C0000093006802AB41F2050240F6FF71FEF71B
:1098D0008FF8002807DAFEF717FA03686B6000209C
:1098E00006B0BDE8F0816869002300683A46314659
:1098F000FEF79EF8031EEEDB1846F1E738B58469E3
:109900000A4B036005467CB16368013B63605BB949
:10991000236820469B689847A368013BA3601BB956
:1099200023682046DB689847284638BDDCDA0B0000
:1099300010B50446FFF7E2FF20461C21FAF7B1FB01
:10994000204610BD30B587B0044601AD6846FFF72C
:109950006BFC0FCD04340FC42B68237007B030BDEF
:1099600070B54D69054B04468C3544F8043B0646FA
:109970000FCD0FC42B682370304670BD54DA0B0036
:109980002DE9F0439846036893B00D460024DB6A46
:1099900006461746984728466B46224621460094BD
:1099A000FEF71EF80546002863D1009B002B4BD024
:1099B0005B69002B48D006A8FFF7F2FB009B5C69AF
:1099C0006378022B04D1211D06A8FFF7BBFF26E018
:1099D0000A2B24D11122294601A801F063FCA368B7
:1099E000002B38D004F108030DF1040C183418686A
:1099F0005968624603C20833A3429446F7D106234E
:109A000001A90CA88DF81430FFF7D8FB0DF1340C28
:109A1000BCE80F0007AC0FC4DCF80030237006A8C8
:109A2000FFF7DEFB80B1336807ADD3F82090124B0F
:109A30000C930FCD0DAC0FC42B6823703A464346F0
:109A40000CA93046C84705460098FDF7C1FF2846D7
:109A500013B0BDE8F083E368002BC3D14FF6FF706D
:109A6000D4F81090FDF7A4FF8145BBD104F1140197
:109A7000AAE72546E8E700BF54DA0B0038B543698A
:109A80001A68002A054610DAB3F88620B3F8843045
:109A90009A420AD103681B699847044628B92B6883
:109AA0002846DB6A9847204638BD0120FCE710B500
:109AB0004369B3F88620B3F884309A42044605D04F
:109AC0006369B3F884201344187910BD03681B69D7
:109AD00098470028F4D14FF0FF30F6E7F8B5436916
