:02000002B0004C
:1040000000400B0028E20B00000006000C00050237
:084010000401E50C00000000B2
:04401800C0D20B0007
:1040200009480A49884208B505D0094A824202D0A7
:10403000121A07F09DF80748074A0021121A07F0E4
:10404000BFF8014808BD00BFDC52032008E00B00A8
:10405000D4540320D4540320EDE7032070B5074E59
:10406000074C06F003F8A41BA4080025AC4200D1BD
:1040700070BD56F8043B98470135F7E7ACDF0B00FD
:10408000D4DF0B0001F036BF08B502F06DF8BDE8D3
:10409000084005F0A3BF03F0B1BD03F0AFBD03F0CE
:1040A000B5BD03F0B3BD0078B0FA80F040097047A9
:1040B000012303707047000010B5034B03600446F2
:1040C00002F0B4FE204610BD90D50B0010B504469A
:1040D000FFF7F2FF204646F2BC51FFF7E2FF204611
:1040E00010BD000008B5034650B1064A904201D900
:1040F00006F056F80C205843BDE80840FFF7CBBF48
:1041000008BD00BFAAAAAA0A00F1080373B50446B5
:1041100003600D46D9B1084607F09AF80F2805EB61
:104120000006019007D9002201A9204606F04EF8AA
:10413000019B2060A36032462946206806F081F882
:10414000019B226863600021D15402B070BD014818
:1041500006F029F8D4D20B0008B5034650B1064A40
:10416000904201D906F01CF818205843BDE80840D9
:10417000FFF791BF08BD00BF5555550508B548B1BB
:10418000B0F1005F01D306F00BF8BDE808408000F5
:10419000FFF781BF08BD08B548B1B0F1805F01D31A
:1041A00005F0FEFFBDE80840C000FFF774BF08BD82
:1041B00070B506460C4615462AB90368BDE870403E
:1041C0009B68C9B2184700290BDA0A2A09D12D21A8
:1041D00005F0D2F86142EAB23046BDE8704005F021
:1041E000E4B82146F7E710B50446FFF7E1FF2046A3
:1041F000BDE8104005F0C3B873B500F108030360D3
:10420000D1E900530446EE181DB916B10C4805F06B
:10421000CAFF0F2B019307D9002201A9204605F000
:10422000D5FF019B2060A36032462946206806F036
:1042300003F8019B226863600021D15402B070BD75
:10424000D4D20B000368C9B29B68184713B5044663
:1042500061B10846019106F0FBFF23680199DB6814
:104260000246204602B0BDE81040184702B010BD1B
:104270008142F8B504460D4625D0D1E900710068A9
:10428000A368CE1B1B1A9E421ED9F010FFF783FFB6
:10429000002305469E420AD0EA181CBFF918D1E94E
:1042A000000103F1080318BFC2E90001F2E720682A
:1042B00018B1A168091AFFF7F4FE25603544A5601E
:1042C000236833446360F8BD6268121A964206D8C8
:1042D000B942F5D03246394606F058FFF0E712B140
:1042E000394606F053FFD4E90027BB1A2A686D68E7
:1042F0001A44AD1A00239D42E2D017EB030C1CBFF9
:10430000D118D1E9000103F1080318BFCCE900017D
:10431000F1E7000081422DE9F84F04468A4636D085
:10432000D1E9005BD0F800908368394AABEB050710
:10433000A3EB09034FEAE708BB4202FB08F828D2C7
:104340004046FFF709FF06468046AB450AD0B8F164
:10435000000F03D029464046FFF74EFF08F118082A
:104360001835F2E7D4E90058A84504D0284605F0EE
:104370004FFF1835F8E7206818B1A168091AFFF750
:1043800090FE26603E44A66023683B446360BDE81F
:10439000F88F4668A6EB0906B74219D84646CA46C2
:1043A000002E08DD2946504605F050FF18350AF169
:1043B000180A013EF4E728EAE8781825666805FB44
:1043C0000895AE42E0D0284605F022FF1835F8E700
:1043D000F6105643002E08DD2946484605F036FF04
:1043E000183509F11809013EF4E7D4E90056711BAC
:1043F000DAF80050DAF804800D44A845C4D01EB1A4
:1044000029463046FFF7F8FE18351836F5E700BFA5
:10441000ABAAAAAA0EB403B503AB002153F8042B30
:10442000019304F0E0FF02B05DF804EB03B07047C5
:104430002DE9F04FA04DDFF8A4828DB02A68D8F89E
:1044400000309A4200F0FF800023DFF89492DFF8FA
:1044500094A29A4F2B60082405F0EEFC49460646CC
:1044600008A805F042F80A22214604A805F072F8CF
:1044700004A908A805F0A9F80168304604F08BFFEC
:1044800004A804F0E7FF08A804F0E4FF05F022FE0A
:10449000214604F0F3FD05F01DFE3121FFF7D2FEA9
:1044A0005FFA84FB05F016FE04F0EFFD05F012FE46
:1044B0001822594604F0DBFD05F00CFE03681B6969
:1044C0009847002840F3BA8005F0B6FC51460646EE
:1044D00008A805F00AF80A22214604A805F03AF8CF
:1044E00004A908A805F071F80168304604F053FFEC
:1044F00004A804F0AFFF08A804F0ACFF2B6839460D
:10450000013368462B6004F0F0FF182605F0E2FD49
:1045100003685B699847C1B2684605F049F8013EF7
:10452000F4D105F0D7FD214604F0A8FD05F0D2FD39
:104530000099FFF78BFE05F07FFC6149064608A84D
:1045400004F0D3FF694608A805F03FF8016830463B
:1045500004F021FF08A804F07DFF05F0BBFD04F086
:1045600094FD05F069FC5749064608A804F0BDFF14
:104570000A22214604A804F0EDFF04A908A805F0CA
:1045800024F80168304604F006FF04A804F062FF36
:1045900008A804F05FFF05F09DFD214604F06EFDC4
:1045A00005F098FD3221FFF74DFE05F093FD04F074
:1045B0006CFD05F041FC4449064608A804F095FF4F
:1045C0000A22214604A804F0C5FF04A908A804F0A3
:1045D000FCFF0168304604F0DEFE04A804F03AFF58
:1045E00008A804F037FF05F075FD0422594604F0D1
:1045F0003EFD3946684604F09BFF042605F06AFD3F
:1046000003685B699847C1B2684604F0D1FF013E78
:10461000F4D105F011FC2D49064608A804F065FF09
:10462000694608A804F0D1FF0168304604F0B3FEE3
:1046300008A804F00FFF684604F00CFF0134782C42
:104640007FF40AAFFAE605F0F7FB2149214E224F2D
:1046500004F0A1FE0824002505F03CFD214604F0ED
:104660000DFD05F037FD3121FFF7ECFD05F032FDC2
:1046700004F00BFD05F02EFD1822E1B204F0F7FC6A
:1046800005F028FD03681B69984700280EDD05F03A
:10469000D3FB0A222146FFF78BFD05F0CDFB314607
:1046A00004F066FE3B6843F8254001350134782C60
:1046B000D2D10DB0BDE8F08FA4E60320E6D60B0002
:1046C00036D30B0042D30B0059D30B0073D30B002E
:1046D0008BD30B00EFD40B002C550320F05203209A
:1046E000FED20B0019D30B0038B54FF4007514231C
:1046F00004460360856005610549284605F04EFDC6
:1047000003496060284605F049FDE060204638BD59
:10471000ECDA0B0010B50446006818B1A168091A5C
:10472000FFF7BFFC204610BD10B50446006818B165
:10473000A168091AFFF7B5FC204610BD10B5044664
:10474000006818B1A168091AFFF7ABFC204610BD3C
:1047500070B5D0E900560446AE4204D0284605F0B4
:1047600057FD1835F8E7206818B1A168091AFFF756
:1047700098FC204670BD0000B1F1005F70B50446A2
:104780000D46164602D30C4805F010FD0023C0E983
:10479000003383600846FFF7F1FC00EB8503C4E9B2
:1047A0000000A3602DB13268834202D040F8042B90
:1047B000FAE76060204670BD9BD30B002DE9F34102
:1047C000002402AB03E90600C0E900441346054695
:1047D0008460D70042F31C00104AB2EBC30F884636
:1047E00002D20F4805F0E2FCFFF7D5FCC6190246DD
:1047F0002860AE6023469F420BD0D4181CBF08EB44
:104800000301D1E9000103F1080318BFC4E9000165
:10481000F1E728466E6002B0BDE8F081F8FFFF7F47
:104820009BD30B002DE9F34102AB03E90600002303
:10483000C0E900338360164618235E43104B0446DC
:10484000F01058430F4B9E420F4601EB060802D969
:104850000D4805F0ABFCFFF77FFC064405462060E1
:10486000A660B84507D01DB139462846FFF7C4FCFD
:1048700018371835F5E72046656002B0BDE8F081CD
:10488000ABAAAAAAF8FFFF7F9BD30B00F8B5D1E92A
:1048900000370025FF1A0446C0E900558560F8106E
:1048A0000E46FFF778FCC4E900000744A760D6E98C
:1048B00000760246F61B2B46B34202EB030506D0F8
:1048C0001DB1F91803C985E803000833F4E76560F2
:1048D0002046F8BD08B542684B689A4208D14AB1F3
:1048E0000968006806F034FCB0FA80F0400908BDA1
:1048F0000020FCE70120FAE72DE9F04F9BB00C46C1
:1049000006469E4903A804F0F0FD0025013CAC4298
:1049100005D9715D03A804F04BFE0135F7E7984C0B
:1049200005F08AFA039904F036FD22687AB3012A69
:104930003AD0944DDFF87C92D5E900135B1A9B10B6
:10494000023A09FB03F39A4280F0C280DFF86882E2
:1049500000266C27D5E900239B1A9B1009FB03F363
:10496000B34260D907FB062207A8116B04F0BDFD16
:1049700003A907A804F04AFE824607A804F06AFDCE
:10498000BAF1000F01D0C8F800600136E2E77E48B6
:1049900003A904F0BEFD236803A80133236004F0DB
:1049A00059FD1BB0BDE8F08F784D03A9284604F0EF
:1049B000B0FD754B2E68D3F80080B8F1000F2ED0F3
:1049C000404606F045FC07465EB3304606F040FC24
:1049D0000546382200210CA806F0F2FB4C23CDE955
:1049E00007386B480B9503238DF83030002307AA56
:1049F00019464068CDE9097603F0D0F805F06AFB66
:104A0000644B1B68196804F039FB05F063FB332124
:104A1000FFF718FC05F05EFB04F037FBBBE74746E9
:104A2000D2E73546D5E7DFF89081D8F8003001337A
:104A300003D12368013B2360ADE7DFF880B1002696
:104A40004FF06C0AD8F800702868DBF800200AFBE9
:104A500007000C2303FB06F1436A03EB010E5B58CE
:104A6000DEF804108B4206EB470707D04A49019253
:104A70003030FFF72FFF019A00284ED0002142F876
:104A80002710002E47D005F025FB424E23683268E0
:104A9000023B52F8231004F0F1FA05F01BFB34211D
:104AA000FFF7D0FB05F016FB04F0EFFA05F012FB60
:104AB00023683268013B52F8231004F0DFFA05F056
:104AC00009FB3321FFF7BEFB05F004FB04F0DDFA20
:104AD00023689A1ED5E900135B1A9B1009FB03F9A2
:104AE00009F1FF394A457FF456AF05F0A5F92B4986
:104AF000274D04F050FC2A4B686801221A700023ED
:104B00001A46194603F022F8002368681A46194627
:104B100002F0FCFF3FE7012694E721681D4B0239B4
:104B2000186850F8211042F827102F681D490AFB19
:104B3000067730373846FFF7CDFE50B1D8F8002061
:104B4000DBF80010184B06EB420251F822201A60E5
:104B500097E716493846FFF7BDFE002891D0D8F8F0
:104B60000020DBF80000124B520050F822101960B0
:104B7000013250F822205A6083E700BFE6D60B00CE
:104B800038550320B8E50320D4540320D0E4032093
:104B900018E703202C5503207CE50320CCD30B0021
:104BA000B0E60320D85503201456032048560320AE
:104BB0008456032013DA4B68EC52032098E6032056
:104BC000002938B504464FEA81050CD0B1F1005FE9
:104BD00001D305F0E5FA2846FFF75DFAC4E90000C5
:104BE0002844A06038BD0846F8E738B504460D46AD
:104BF000AC4204D02046FFF7A1FD0C34F8E738BDE5
:104C000010B504464830FFF7A3FD04F1300005F06D
:104C1000FFFAD4E90901FFF7E8FF606A18B1E16A19
:104C2000091AFFF73EFA04F11800FFF787FD04F1B7
:104C30000C00FFF779FD2046FFF76CFD204610BD04
:104C4000814210B51346A1EB000405D0014622466F
:104C5000184606F09BFA0346181910BD70B5D1E945
:104C60000036F61A00230446C0E900338360B01012
:104C70000D46FFF783FAC4E900000644A660024629
:104C8000D5E90001FFF7DCFF6060204670BD000041
:104C90007FB504AB03E906000023C0E9003383605D
:104CA000044613460E46950001EB820142F31D00B7
:104CB0000A4AB2EB830F02D2094805F077FA019154
:104CC000FFF75CFA0544024620600199A560304672
:104CD000FFF7B6FF606004B070BD00BFFCFFFF7F50
:104CE0009BD30B008142F7B504460D461DD0D1E998
:104CF000007102688368CE1B9B1A9E4217D9B010C0
:104D00000191FFF73BFA0199024605463846FFF745
:104D100097FF206818B1A168091AFFF7C2F925604A
:104D20003544A56023683344636003B0F0BD436835
:104D30009B1A9E4203D83846FFF782FFF2E7F91824
:104D40003846FFF77DFFD4E90002D5E90031101A9B
:104D50001844F1E72DE9F0410C1A05460B48A41060
:104D60004443164627469046002F08DD2946404614
:104D7000FFF7B8FF0C3508F10C08013FF4E724EA0F
:104D8000E4740C2000FB0460BDE8F081ABAAAAAA81
:104D90002DE9F04F0025994600F13803C0E90C35A4
:104DA0004FF0FF33C0E915330446C0E90055C0E9B0
:104DB0000255C0E90455C0E90655C0E90855C0E9E7
:104DC0000A55C0E9125599B080F8385005659246E9
:104DD00000F1180B00F1300800F14807FFF748FA1E
:104DE000D4E900239B1AAB424FEAE30102DA5F48A1
:104DF00005F0DCF909A80191CDE909550B95FFF7FC
:104E0000DFFE0199099831B100EB81068A0029463D
:104E100006F0D6F93046D4E90352099963690E9336
:104E2000C4E903100CAE0B996161CDE90C52304618
:104E30000025CDE909550B95FFF776FC09A8FFF78A
:104E400073FC51465846FFF74DFFD9F80010069500
:104E5000096802AB06AA3046FFF78EFCD9F80010AD
:104E60000795496803AB07AA0FA8FFF785FCD9F897
:104E700000100895896804AB08AA12A8FFF77CFC0B
:104E8000D9F80010099505AB09AAC96815A8FFF75C
:104E900073FC626AE36A9B1A2F2B3FD80420FFF74A
:104EA00021F9B346054600F1300A8146B9F1000FF9
:104EB00003D059464846FFF7D1FE09F10C09D14508
:104EC0000BF10C0BF2D1D4E90901FFF78EFE606AF9
:104ED00018B1E16A091AFFF7E4F8C4E9095AC4F8FD
:104EE0002CA018AD0C3D2846FFF728FCB542F9D19F
:104EF0002299404605F0AAF938462399FFF70AFAA5
:104F0000249B1B681A68E2655A6822669A68DB6807
:104F100062662046A36619B0BDE8F08FA56AAD1A97
:104F20002F2D0BD918A93046FFF714FFA16A88422C
:104F30000546D6D0FFF759FEA562D2E7354429468B
:104F40003046FFF707FFD4F8289018AB9D420AD0EF
:104F5000B9F1000F03D029464846FFF77FFE0C3514
:104F600009F10C09F1E7C4F82890BAE79BD30B00CC
:104F70002DE9F04F2DED0E8B0128ADF50F7D40F0A2
:104F8000E085B44BB44A9A600025C3E9005503207C
:104F900002F090FDB14B7293B14B7393B14B74938C
:104FA000B14B7593B14B7693B14B7793B14B7893EB
:104FB000B14B7993B14B7A93B14B7B9372AB4C93DA
:104FC0000523DFF84CA34D930DF584784CAA434696
:104FD00006CA5AA8FFF7F2FB9AE80F0065AC84E80E
:104FE0000F0004224AAB4A944B9293E8060057A85C
:104FF000FFF74EFE61AA489228230422CDE96235CC
:10500000499248AB0DF5D67B93E8060054A861950C
:105010006495FFF73DFE58469A49DFED9B8A9FED68
:105020009B8ADFED9B9A9FED9B9ADFED9BAA9FEDFC
:105030009BAADFED9BBA9FED9BBADFED9BDA9FED5C
:105040009BDADFED9BCA9FED9BCA9FED9BEAFFF7C2
:105050005BF87EA89949FFF757F884A89849FFF7AD
:1050600053F87EAB46930223479346AA0DF5BA79CF
:1050700040AB06CA51A8FFF7D5FB29461022484687
:1050800006F09EF8042244ABCDF81091459293E8C7
:1050900006004EA8FFF7FCFD4EAB029351AB57AA9A
:1050A0005AA9CDE900B3874854ABFFF771FE4EA86B
:1050B000FFF744FB51A8FFF74BFB84A805F0A8F8C5
:1050C0007EA805F0A5F8584605F0A2F854A8FFF709
:1050D00035FB57A8FFF732FB5AA8FFF71BFB7A4BAB
:1050E0007E937A4B7F937A4B80937A4B81937A4B62
:1050F00082937A4B83937A4B84937A4B85937A4B42
:1051000086937A4B87937A4B88937A4B89937A4B21
:105110008A937A4B8B937EAB42930723439338AFAA
:1051200098E806003B465AA8FFF748FB0AF1100C26
:10513000BCE80F005E460FC69CE8030006234193BF
:10514000CDF800B140ABC6E9000193E8060057A8CE
:105150000496FFF79DFD61AA3E923C230422CDE90F
:1051600062353F923EAB93E8060054A86195649582
:10517000FFF78EFD20466249FEF7C6FF72A861491F
:10518000FEF7C2FF78A86049FEF7BEFF72AB3C9302
:1051900002233D9336AE3CAA334606CA51A8FFF718
:1051A00041FB29461022484606F00AF804223AAB91
:1051B000CDF8E8903B9293E806004EA8FFF768FD13
:1051C0004EAB029351AB57AA5AA9CDE900434F48C1
:1051D00054ABFFF7DDFD4EA8FFF7B0FA51A8FFF77B
:1051E000B7FA78A805F014F872A805F011F820466F
:1051F00005F00EF854A8FFF7A1FA57A8FFF79EFA9A
:105200005AA8FFF787FA7EAB3893072339930DF13D
:10521000B80897E8060043465AA8CDED7EDA8DED32
:105220007FDACDED80CA8DED81CACDED828A8DED1C
:10523000838ACDED84BA8DED85BACDED86AA8DED4C
:1052400087AACDED889A8DED899ACDED8A8A8DED6C
:105250008B8A5FE0E45403200000FFFF806927424F
:105260001E43AFC2CC9D27420242AFC2959D27424A
:105270006D47AFC2A9A72742054EAFC282B32742EE
:10528000444EAFC2D9D30B001A8B27429A44AFC207
:105290002F8B27429540AFC2D88127424440AFC2EE
:1052A00016822742C144AFC29EA42742D04BAFC250
:1052B00037A427425946AFC28940AFC2DDD30B00A5
:1052C000E4D30B00C4E503209D7E2742B374AFC234
:1052D000AF8027428E58AFC24D8027422E48AFC2C2
:1052E000AD8027425741AFC2FF8A27425342AFC227
:1052F000F48A27429847AFC278A927425D5FAFC2C0
:10530000EBD30B00F0D30B00F7D30B003C5503207D
:10531000A4D50B00FFF752FA0AF128031F460FCF5E
:10532000DC46ACE80F00D7E90001049BCDF8D8B00B
:1053300083E803000623379396E8060057A80597ED
:10534000FFF7A6FC07F108030FCB61AE86E80F005C
:10535000042234AB3496359293E8060054A8FFF744
:1053600097FC2046B249FEF7CFFE72A8B149FEF77E
:10537000CBFE78A8B049FEF7C7FE72A93291022190
:105380002CAE339132AA06CA334651A8FFF74AFA27
:1053900007F118020FCA89E80F00042130ABCDF8DD
:1053A000C090319193E806004EA8FFF771FC4EA91A
:1053B000029151A9CDE9004154A90B4657A90A46CB
:1053C0009E485AA9FFF7E4FC4EA8FFF7B7F951A889
:1053D000FFF7BEF978A804F01BFF72A804F018FFCD
:1053E000204604F015FF54A8FFF7A8F957A8FFF7C7
:1053F000A5F95AA8FFF78EF9914B7293914B7393CD
:10540000914B7493914B789372A9914B2E91799310
:105410000521904B7A9324AF2F918F4B7B9398E883
:1054200006003B465AA88DED75EACDED769A8DEDD6
:10543000779AFFF7C3F90AF160030FCB84E80F00F6
:1054400004212C942D9196E8060057A8FFF720FC24
:105450000AF170030FCB61AE86E80F0004212AAB7E
:105460002A962B9193E8060054A8FFF711FC5846A2
:105470007A49FEF749FE7EA87949FEF745FE84A8E1
:105480007849FEF741FE7EA92891022122AE29919A
:1054900028AA334606CA51A8FFF7C4F90AF18003C7
:1054A0000FCB89E80F00042126ABCDF89890279107
:1054B00093E806004EA8FFF7EBFB4EA9029151A915
:1054C000CDE900B154A90B4657A90A4666485AA926
:1054D000FFF75EFC4EA8FFF731F951A8FFF738F946
:1054E00084A804F095FE7EA804F092FE584604F0CD
:1054F0008FFE54A8FFF722F957A8FFF71FF95AA803
:10550000FFF708F9594B7E93594B7F93594B809382
:10551000594B8193594B8293594B83937EA9594B95
:10552000249184930821584B8A930DF168082591A2
:10553000564B8B9397E8060043465AA80AF190070A
:105540008DED85EACDED869A8DED879ACDED888A31
:105550008DED898ACDED8CAA8DED8DAAFFF72EF900
:105560000FCFDC46ACE80F0097E80700049FCDF8AA
:1055700088B087E807000721239196E8060057A81E
:10558000FFF786FB0AF1AC030FCB61AE86E80F0094
:10559000042120AB2096219193E8060054A8FFF740
:1055A00077FB20463A49FEF7AFFD72A83949FEF76E
:1055B000ABFD78A83849FEF7A7FD72A91E9102211C
:1055C00018AF1F911EAA3B4606CA51A8FFF72AF939
:1055D0000AF1BC030FCB89E80F0004211CABCDF806
:1055E00070901D9193E806004EA8FFF751FB4EA95D
:1055F000029151A9CDE9004154A90B4657A90A4689
:1056000026485AA9FFF7C4FB4EA8FFF797F851A800
:10561000FFF79EF878A804F0FBFD72A804F0F8FDEF
:10562000204604F0F5FD54A8FFF788F857A837E0A6
:10563000FED30B0004D40B000BD40B00A8550320A1
:1056400097692742B840AFC2FE812742FB8A2742B2
:105650009444AFC2718927427964AFC26ED50B0002
:1056600012D40B0019D40B00185603201A632742DA
:10567000D24BAFC2C46E27421541AFC2B58027429C
:105680008640AFC200822742E18127427644AFC202
:1056900020D40B0027D40B002ED40B00A87E0320AF
:1056A000FFF74CF85AA8FFF735F87EA91A910721A1
:1056B00010AE1B9198E8060033465AA8CDED7EDA6D
:1056C0008DED7FDACDED80CA8DED81CACDED828A78
:1056D0008DED838ACDED84BA8DED85BACDED86AAA8
:1056E0008DED87AACDED889A8DED899ACDED8A8AC8
:1056F0008DED8B8AFFF762F80AF1280EBEE80F00E5
:10570000DC46ACE80F000599049ACDF860B003C9F7
:10571000C2E900010621199197E8060057A8FFF792
:10572000B7FA0AF140030FCB61AF87E80F000421FD
:1057300016AB1697179193E8060054A8FFF7A8FA3E
:105740002046B849DFF82C83FEF7DEFC72A8B64984
:10575000FEF7DAFC78A8B549FEF7D6FC72AB1493D5
:10576000022315930EAF14AA06CA3B4651A8FFF7B1
:1057700059F80AF150020FCA89E80F00042212AB4F
:10578000CDF84890139293E806004EA8FFF780FAF0
:105790004EAB029351AB57AA5AA9CDE90043A44896
:1057A00054ABFFF7F5FA4EA8FEF7C8FF51A8FEF775
:1057B000CFFF78A804F02CFD72A804F029FD204644
:1057C00004F026FD54A8FEF7B9FF57A8FEF7B6FF70
:1057D0005AA8FEF79FFF974B7E93974B7F93974B6B
:1057E0008093974B8193974B8293974B83937EAB98
:1057F00010930823119396E8060007AB5AA80AF104
:10580000CC06CDED848A8DED858ACDED869A8DED21
:10581000879ACDED88AA8DED89AACDED8ABA8DED56
:105820008BBACDED8C8A8DED8D8AFEF7C7FF0FCE3A
:10583000DC46ACE80F0096E80700049BCDF838B0D2
:1058400083E8070007230F9397E8060057A8FFF7A0
:105850001FFA0AF1E8030FCB61AE86E80F000422BD
:105860000CAB0C960D9293E8060054A8FFF710FAC3
:1058700020467649764EFEF747FC72A87549FEF73A
:1058800043FC78A87449FEF73FFC72AB0A930223ED
:105890000B930AAA06AB06CA51A80AF1F80AFEF74A
:1058A000C1FF9AE80F0089E80F00042208ABCDF889
:1058B0002090099293E806004EA8FFF7E9F94EAB55
:1058C000029351AB57AA5AA9CDE90043634854ABA0
:1058D000FFF75EFA4EA8FEF731FF51A8FEF738FF3A
:1058E00078A804F095FC72A804F092FC204604F01D
:1058F0008FFC54A8FEF722FF57A8FEF71FFF5AA8F7
:10590000FEF708FF564B57499D607EAAC3E9005534
:10591000096855487E9572ABFEF72EFF534B5449EC
:105920009D60C3E90055534802F0C4FB52495348F7
:1059300002F0C0FB5249464802F0BCFB0FCEA24623
:10594000AAE80F00B8E80F00C146D6F800C0CAF8B0
:1059500000C05E460FC659F810390593049BDFF866
:1059600048E11A462646059B13600FCE72AFCEE97A
:1059700000550FC7C7F800C0DC46BCE80F007EAE7C
:105980000FC6059B33607EAB0093704672ABCDE9CA
:1059900001553C494FF0100203F084F8DFF8DCC0F9
:1059A000BCE80F00A646AEE80F00B9E80F00DCF82F
:1059B00000E0CAF800E0DC46ACE80F00049BD8F831
:1059C0000090C3F800900FCCDFF8E0800DF5E47C88
:1059D0005C46ACE80F00C8E90055C7F800E00FCC02
:1059E0007EAF0FC7284BC6F8009001937EAB4FF0F7
:1059F00004020093404672AB2449029503F052F82A
:105A000023492448244C03F070FD244803F07AFB1A
:105A10001F49234803F069FD1D49224803F065FD35
:105A200046E000BF35D40B003CD40B0043D40B0040
:105A30004CE50320766A27422B69AFC25F6B274291
:105A4000CD56AFC22D8A2742D856AFC24AD40B00DA
:105A5000185503204FD40B0056D40B00E0E403206C
:105A6000B8E50320F05203202C55032098E60320CC
:105A70005DD40B00F054032082D40B0004550320A6
:105A8000A7D40B00CCD40B00F9480B00CFD40B00EB
:105A9000E6D60B0030E60320147F032040E6032007
:105AA00058E603206CE60320A8E6032090E60320D6
:105AB0004749484803F019FD474801F037F84FF4CB
:105AC0007A73009342F2107204F12C01434B20468A
:105AD00001F004FA424B3E492360424803F005FDC1
:105AE0003B4941480DF50F7DBDEC0E8BBDE8F04FF5
:105AF00003F0FBBC206818B1A168091AFEF7D1FABF
:105B00003A48FFF77DF83A48FFF77AF83948FFF747
:105B100077F83948FFF774F83848FFF771F83848D4
:105B2000FFF76EF83748FFF76BF8374B1868002817
:105B300047D00DF50F7DBDEC0E8BBDE8F04F02F0A8
:105B400065B8294803F086FC264803F083FC2F48FB
:105B5000FEF7B2FA204B2E4A9C691A607CB163684A
:105B6000013B63605BB9236820469B689847A36844
:105B7000013BA3601BB923682046DB6898471548A2
:105B8000244C03F067FC244803F064FC234803F032
:105B900061FC234803F05EFC224802F06AFC2248C4
:105BA00002F067FC2148FEF7C9FD2148FEF7C6FD5B
:105BB000D4E90056AE429DD02846FFF721F86C3557
:105BC000F8E70DF50F7DBDEC0E8BBDE8F08F00BF43
:105BD000E6D60B0080E603208C56032050A6032057
:105BE00090D50B00D4540320D0E40320E0E403203C
:105BF0004CE50320A87E032018560320A855032057
:105C00003C550320C4E50320E4540320147F032003
:105C1000F0D90B00B8E503206CE6032058E603201A
:105C200030E6032090E60320A8E6032098E6032050
:105C30002C550320814210B51346A1EB000405D07A
:105C400001462246184605F0A1FA0346181910BD70
:105C50002DE9F0410D460446FEF718FED5E9033163
:105C60000026C91AC4E903666661891004F10C00B4
:105C7000FEF7A6FFE268D5E90301FFF7DBFF05F1B8
:105C80001801206104F11800FEF7E8FFD5E9093793
:105C90002648E662FF1ABB10C4E909665843FEF7BE
:105CA00021FAC4E909000744E762D5E90978064604
:105CB000B84507D01EB139463046FEF7CFFF0C3647
:105CC0000C37F5E7A66205F1300104F13000FEF76C
:105CD00093FAD5E912371548FF1A0023C4E91233A5
:105CE0002365FB105843FEF737FAC4E91200074456
:105CF0002765D5E912780646B84507D01EB1394662
:105D00003046FEF779FA18361837F5E7E6646B6D1A
:105D10006365AB6DA365EB6DE3652B6E23666B6E00
:105D20006366AB6EA3662046BDE8F081ABAAAAAA63
:105D30002DE9F74FA1EB00086B49DFF8B4A14FEA5A
:105D4000A808054601FB08F81446B8F1000F40F317
:105D5000C68029462046FEF78BFAA54225D0D5E914
:105D60000391E2686369A1EB09069B1A9E4243D93D
:105D7000002E3FD05D4B9E4201D904F011FA30460F
:105D80000191FEF788F9019907463A464846FFF720
:105D900051FFE06818B16169091AFEF782F9E760FE
:105DA00037446761E3683344236105F1180104F166
:105DB0001800FEF797FFA54242D0D5E9096B626A49
:105DC000E16AABEB0609891A494556D24FEAA900A8
:105DD0000AFB00F0FEF786F907460246B3451FD0DE
:105DE0002AB1104631460192FEF738FF019A0C3273
:105DF0000C36F3E73746C8E723699B1A9E4203D85F
:105E00004846FFF717FFCDE709EB03014846FFF7C8
:105E100011FFD4E90302D5E90331101A1844F0E761
:105E2000D4E90901FEF7E1FE606A18B1E16A091AD6
:105E3000FEF737F967624F44E762636A4B44A36237
:105E400005F1300104F1300004F000FA05F14801D9
:105E500004F14800FEF75EFA6B6D6365AB6DA365F8
:105E6000EB6DE3652B6E23666B6E6366AB6EA366AC
:105E70006C356C3408F1FF3867E7A76ABF1AB9457B
:105E80000CD830465946FEF765FFA76A0646B7426A
:105E9000D3D03046FEF752FC0C36F8E7BF100AFBB1
:105EA00007F7002F09DD314610460192FEF71AFF71
:105EB000019A0C360C32013FF3E7D4E90967B91BAC
:105EC0006E6AAB6A0E44B342B7D02FB13146384642
:105ED0000193FEF7C3FE019B0C360C37F3E7204617
:105EE00003B0BDE8F08F00BF13DA4B68FCFFFF7F03
:105EF000ABAAAAAA2DE9F041ADF5147D03F09CFFF1
:105F00004FF4165103F08CFF4FF4FA7001F0C6FE07
:105F100002F0BEF902F006FA02F0BAF9824A834DA5
:105F200001460DA802F0E8FE0DA802F0A2FA02F068
:105F3000AFF97F4A01460DA802F0DEFE0DA802F07F
:105F400098FA05A802F0CBFB0FCD08AC0FC42E6861
:105F5000266008AD0FCD0DAC0FC40DA8266002F071
:105F60000BF804460DA8002C65D102F021F800942E
:105F7000ADF81000022304AA032105A802F0A4FB37
:105F800002F086F9002205A902F016FA694C6A4E61
:105F90000DA8FEF7A9FB04F09DF803F039F8674956
:105FA000204603F0C5FA50236549A363654C0225DA
:105FB0000620C1E91550C4E91550634D032207239B
:105FC0000DA8C6E91523C5E91523FFF741FE3146A3
:105FD00028A8FFF73DFE294643A8FFF739FE2146D2
:105FE0005EA85A4CFFF734FE594979A8FFF730FEF6
:105FF0002268A3689B1AB3F5077F6AD24FF4077033
:10600000FEF749F80DF13408054600F50777064616
:106010001EB141463046FFF71BFE6C36B74208F111
:106020006C08F5D1D4E90068B0450CD03046FEF7D5
:10603000E7FD6C36F8E701F0BDFF00230093024650
:106040001023072199E7206818B1A168091AFEF703
:1060500028F8C4E90057A76004256C260DAB06FBA1
:106060000530FEF7CDFD013DF8D2D4E90031C91A63
:10607000384B89105943002403AB04AA490008A8EF
:106080000494FEF779FB344B089D9A680F92D3E98C
:1060900000011D60099D5D600A9D9D60CDE90D01B7
:1060A0000DA8CDE908440A94FEF748FB08A8FEF7BE
:1060B00045FBFEF7BDF929482346224621464068A4
:1060C00001F074FD059801F0A1FD0DF5147DBDE80A
:1060D000F0816568AD1AB5F5077F10D394A90DA8B6
:1060E000FFF726FE6768B8420546B5D0064630463B
:1060F0006C36FEF785FDB742F9D16560ACE70DABB4
:106100001D4429461846FFF713FE666894AB9D426E
:1061100007D01EB129463046FFF79AFD6C356C3624
:10612000F4E7666098E700BFA8E60320F054032078
:1061300090E6032030E60320A87E0320D2D40B0093
:10614000A85503204CE50320E0E40320B8E5032034
:106150001856032013DA4B6898E6032018E703204B
:106160000120FEF705BF00002DE9F04F2DED068B55
:10617000BA4B0022B5B05868114601F007FD00285F
:1061800000F0C584B64B1B78002B00F0C084DFF80C
:1061900040B3B44D03F050FEB34903F0FCF8DBE923
:1061A0000046B44209D054F8042B029203F044FE96
:1061B000029A2946FEF72EF9F3E703F03DFE03F0BD
:1061C000DEF803F039FEA94BA94C1968DFF8048307
:1061D0000A22FEF708F803F02FFE21680A22FEF7D4
:1061E00002F803F029FE61680A22FDF7FCFF4FF078
:1061F0000009A04CD4E900239B1A9F4A9B105343EB
:106200004B4540F24D844FF47A7001F047FD9B49B5
:106210009B4E19A803F069F96C25236805FB09F565
:106220002B4415A8196B03F060F915A919A803F000
:10623000CCF90146934803F06CF915A803F00AF96C
:1062400019A803F007F9904B904991480093324602
:10625000904B00F0A1FC03F0EFFD8F4903F09BF899
:106260008E4800F031FE71680291084604F0F0FF9C
:1062700002990246894800F00AFE884801F014FAA3
:10628000039048B903F0D8FD854935B0BDEC068BC5
:10629000BDE8F04F03F07FB821689FED829A294452
:1062A00019A8FFF7D5FC19A905A8FEF7EFFA0023F6
:1062B00002937A490BA800F021FE7B4A0BA90EA895
:1062C00000F0ECFF00220EA911A800F0BBFE774AF7
:1062D00011A915A800F0E2FF029A15A908A800F07C
:1062E000B1FE15A800F082FD11A800F07FFD0EA8F8
:1062F00000F07CFD0BA800F079FD6D4A08A915A8F7
:1063000000F0CCFF15A911A800F0E2FF15A800F0DD
:106310006DFD684A08A90EA800F0C0FF0EA915A8D7
:1063200000F0D6FF0EA800F061FD634A08A90EA890
:1063300000F0B4FF00210EA800F09EFE04460EA857
:1063400000F054FD5D4A08A90EA800F0A7FF0EA8B2
:10635000B0EE490A00F09CFE0EA8F0EE408A00F074
:1063600045FD574A08A90EA800F098FF0EA8B0EE08
:10637000490A00F08DFE0EA8B0EE408A00F036FD0E
:10638000139B012B2AD803F057FD4E494E4F03F0C3
:1063900002F815A803F05EF811A803F05BF808A84E
:1063A00000F024FD4FEAC9060024022C00F02682EA
:1063B000394625A8FEF78EFA002840F01F82032CEC
:1063C00040F0808241492A4D25A8FEF783FA002833
:1063D00000F0748203F07EFE296813E2DDE90535E2
:1063E000ED1AED104FF0000AAA45059976DA01EB97
:1063F000CA06D6ED007A78EEE77A17EE900A04F036
:1064000007FBD6ED017A78EE677A41EC1A0B17EEAE
:10641000900A04F0FDFA02460B4604F051FB53ECDF
:106420001A2B06460F461AEE100A194604F048FBCE
:1064300002460B463046394604F08CF941EC100B0D
:1064400004F07CF81C9E51EC100B04F009FE06EBE6
:106450008A060AF1010A3060C6E700BF18E7032088
:10646000B0E60320EDD40B00E2D40B001456032059
:1064700084560320B8E5032013DA4B68F2D40B00EE
:106480007CE6032058E603200AD50B0030E6032003
:106490008C560320DC5203200ED50B00147F032002
:1064A00016D50B000000000025D50B002BD50B00E6
:1064B00032D50B003CD50B0048D50B0052D50B0054
:1064C0005BD50B0065D50B007CE50320D87E03204F
:1064D00098E60320A87E0320CCCCCC7DDDE91C7699
:1064E000B74211D03A1D3B46964210460DD0D3ED2F
:1064F000007A90ED007AB4EE677AF1EE10FA02F1CC
:10650000040248BF0346EFE73B462E9ADB1BB2EB83
:10651000A30F4FEAA30008BF2F9801EBC003D3EDF0
:10652000007AD3ED016AF4EEE78AF1EE10FA77EE25
:10653000E85A55BF38EE666A76EEC87A78EEE77AA2
:1065400087EEA57A4FEAC00658BF86EE277A5FED40
:106550001E7AB5EE407AF1EE10FA0AD0B4EEE77A80
:10656000F1EE10FABABFBFEE006AC6EE077AF0EE9F
:10657000497AB0EE487AA7EEA57AF4EEC76AF1EE52
:1065800010FA4CBF4FF0010C4FF0000C002869D1FD
:1065900091ED027A2F9E37EE687AF0EE486AE7EEC8
:1065A000276A91ED037AF4EEC76AF1EE10FACCBFD8
:1065B00001250025EEB9531E01EBC301654591EDA0
:1065C000000A91ED017A40F0948070EE688AA8EE9E
:1065D000A78AB4EEC78AF1EE10FACCBF01210021E0
:1065E000A94200D1531C9A42C0F2858011461E4632
:1065F00005E065456CD0024606460123194607EBC7
:10660000810107EB860090ED007AD1ED007A1F99A9
:1066100077EE277A01EB8601C7EE276A91ED008AB3
:106620003399B8EEC88A914228EE268A66DB329DFD
:10663000954263DC994261DB9D425FDC03F0FCFB29
:10664000BA4902F0A8FE032700231F9AAE426ADD72
:1066500052F8251007EE901AF8EEE77A013538EE79
:10666000278AF3E7083E0E4496ED007A37EE687A03
:10667000F0EE486AE7EE276A05F1FF3E431E96ED0D
:10668000017AF4EEC76AF1EE10FACCBF01260026BB
:1066900086452AD12F9B834218D1531E01EBC3019B
:1066A000664591ED000A91ED017A02D0AB1E0246DB
:1066B00099E770EE688AA8EEA78AB4EEC78AF1EE71
:1066C00010FACCBF01210021B1428AE76645EDD125
:1066D000029B15A80133029302F0BCFE11A802F040
:1066E000B9FE08A800F082FBE3E56645DFD1431C54
:1066F000DDE7024681E71946164680E73099914268
:106700000ADC994208DC319D954209DB9D4207DB9A
:10671000039B0D46022798E700252B462F4694E75A
:106720000023012791E7229D002B43D0804925A813
:10673000FEF7D0F8F0B1D5E906239B1A9B1007EEBF
:10674000903AF8EE677A37EEC88A012F40D179493E
:1067500025A8FEF7BFF8002842D0D5E903239B1AED
:106760009B1007EE903AF8EE677A37EEC88AC4F1CC
:10677000060435E0704925A8FEF7ACF80028E4D0FF
:10678000D8F82430D3E90632D21A9210530807EE13
:10679000903AF8EEE77A37EE888AFDEEC87A17EE7F
:1067A000903AB3FBF2F102FB113308EE103AB8EE67
:1067B000488ACAE7614925A8FEF78CF828B96049DC
:1067C00025A8FEF787F80028BFD0C4F10604BCE76F
:1067D000032F05D1564925A8FEF77CF80028C6D11D
:1067E000B0EE480A03F064FE0C23BDEEC00A5F431E
:1067F00010EE102AEB5943F8224069E703F06AFCD7
:10680000504B196802F03AFC03F064FC2B9B0546E0
:10681000196815A802F069FE15992846FDF716FDBE
:1068200015A802F017FE03F055FC2B9B054699694D
:1068300015A802F05AFE15992846FDF707FD15A880
:1068400002F008FE03F046FC02F01FFC022C3FD0D1
:10685000394625A8FEF73EF8002839D1032C79D116
:106860003549394D25A8FEF735F8002859D003F0F1
:1068700031FC296802F002FC2F4925A8FEF72AF80E
:106880000546002800F0C080DFF8C4A00025DAF833
:106890002400D8F82410D0E90032D21AD1E9091323
:1068A0005B1A9B10C3EBA203AB4240F2088103F0DA
:1068B00011FC3021FDF7C6FC0135E8E703F00AFCC6
:1068C00069689FE703F006FCDBF80030995999E707
:1068D00003F000FC1B4B196802F0D0FB022C40F0C7
:1068E000E8801449194D25A8FDF7F4FF82460028D9
:1068F00057D04FF0000A6A6AD2E906135B1A991062
:10690000D2E900239B1A9B1003EB5103534540F23D
:10691000D68003F0DFFB3021FDF794FC0AF1010A79
:10692000E9E703F0D7FB6968A4E700BF6BD50B006C
:1069300010E5032048560320D87E0320D8550320B5
:106940007CE503201456032084560320A855032019
:106950001856032003F0BEFBDBF80030995902F013
:106960008DFB012C40F0AB806B4925A8FDF7B2FFF1
:106970000546002846D1394625A8FDF7ABFF00287B
:1069800000F09D80229AD2E906239B1AB5EBA30F53
:1069900080F0958003F09EFB3021FDF753FC01351C
:1069A000F0E705F1300125A8FDF794FF029030B91A
:1069B000394625A8FDF78EFFA0B1029B9A466A6A68
:1069C000D2E900239B1ABAEBA30F78D203F082FB23
:1069D000229B1B6813F82A103031FDF733FC0AF1B3
:1069E000010AECE782466A6AD2E900239B1ABAEBF5
:1069F000A30F64D203F06EFB3021FDF723FC0AF1F4
:106A0000010AF0E70025BDE7444925A8FDF762FF2C
:106A1000002854D0DFF810A1DAF82410404BD1E957
:106A20000012586A511AD0E90902121A9210C2EBE8
:106A3000A102AA4243D903F04DFB3021FDF702FC2D
:106A40000135E9E703F0F8F902F099FC013403F0AD
:106A500041FB02F01AFB042C06F104067FF4A5ACFE
:106A600000231C4600222299CD18C8586968091ACB
:106A7000B2EBA10F03D240F822400132F3E70C330E
:106A8000302BEFD103F0D8F902F079FC05A8FDF71F
:106A900041FE19A8FEF7B4F809F10109FFF7A9BBF7
:106AA00003F0CAF935B0BDEC068BBDE8F04F02F03B
:106AB00066BC012C3FF458AF032C3FF4DDAE03F06D
:106AC000BBF9259A17492346FDF7A4FC0C2565431D
:106AD0004FF0000A229A531952595B689B1ABAEB7D
:106AE000A30FAFD203F0F6FA229B5B5913F82A10DA
:106AF0003031FDF7A7FB03F09FF9229B5B590A2277
:106B000053F82A10FDF754FB0AF1010AE2E735B009
:106B1000BDEC068BBDE8F08FD855032010E50320AF
:106B2000E0E4032074D50B001856032010B504468A
:106B300003F0B4F8204610BD38B50446154602F0FF
:106B400017FC0549204602F013FC29462046BDE803
:106B5000384002F020BC00BF3FD30B0038B50546DB
:106B6000144602F005FC0B49284602F001FC002CFB
:106B70000DDA2D21284602F0FFFB614228460A2249
:106B800002F013FC2846BDE8384002F0F8BB21466D
:106B9000F4E700BF3FD30B002DE9F04F0E4691B054
:106BA00098464FF0FF331360044600213046DDF86D
:106BB0006890174602F037FDD6F838E0034698B9DA
:106BC000BEF1000F14BF72465022316892B22046C7
:106BD00002F064FE051E18BF0125C5B9204611B09C
:106BE000BDE8F04F03F010B8764B0A9306F1140C91
:106BF000BCE80F000BAD0FC5DCF800302B701FFA9E
:106C00008EF200230AA9204602F028FFE2E7494657
:106C1000204602F0ADFB6C49204602F0A9FBB16AA8
:106C2000204602F0A5FB6949204602F0A1FB684915
:106C3000684A2046FFF780FF0021304602F0F3FC4F
:106C400020B9326864492046FFF776FF06F13C0A16
:106C50000021504602F0E7FC28B9726C5F492046DB
:106C6000FFF77CFF06E05E49484604F0DFFA024683
:106C70000028F3D0B8F1000F0ED0D8F8001059B1A9
:106C8000D8F80420204622B1FFF756FF08F1080883
:106C9000F3E702F080FBF9E7204602F070FB2046A4
:106CA00002F05CFD0021504602F0BDFC18B9F16B0A
:106CB000204602F070FB04F11C0A4FF42052002120
:106CC000504604F07DFA00F0B5FD019000F0B2FDF1
:106CD0004FF00008464641F2883B204602F03AFF5A
:106CE000E8B1204602F020FD814600F0A3FD42F20B
:106CF000FE739E42019004D8A31983F81C900136BC
:106D0000EBE742F2FF739E42F9D104F500530022F3
:106D100083F81B28204602F077FFA846EFE7A31967
:106D2000187700F087FD019BA0EB0309B8F1000F75
:106D300004D1D94502D8C82000F0B0FF204602F0A7
:106D40002BFE20B1D94502D8B8F1000FC5D020469E
:106D500002F05AFF514602A802F0C7FB0C23092299
:106D600002A906A802F084FC1E490AA802F0BDFB95
:106D70000AA902A802F078FC04460AA802F06AFBFD
:106D8000631C08D106A802F065FB02A802F062FBB2
:106D900011B0BDE8F08F3D1D1349284602F0C8FB35
:106DA000221D02A90AA802F083FC0AA9284602F0C3
:106DB000FBFB0AA802F04EFB069804F0C5F9386008
:106DC000E0E700BF68D90B00F0D40B00ACD60B0095
:106DD000BED60B00B8D60B00C9D60B00CED60B0022
:106DE000DDD60B00E2D60B00E6D60B00704710B5DF
:106DF0000C210446FDF755F9204610BD10B5054B92
:106E00000360037C04461BB9406808B100F0FEFE35
:106E1000204610BDF4D60B0010B50446FFF7EEFF78
:106E200020461421FDF73DF9204610BD10B5074B53
:106E30000360037C04461BB9406908B100F0E6FE1C
:106E40002046FFF7DBFF204610BD00BF04D70B0034
:106E500010B50446FFF7EAFF20462C21FDF721F983
:106E6000204610BD38B5037C04460D460BB100200A
:106E700038BD406838B100F0D1FE0028F7D0C4E931
:106E800001050120F4E7084600F0B8FEF5E770B50B
:106E9000C3680E461546D1184268044672B182682E
:106EA0008A420BD36068E3682A463146184404F0EE
:106EB0005FF9E2682A44E260012070BD2046FFF7D6
:106EC000D1FF0028EED1F8E743680021C16023B16B
:106ED000826812B1184604F073B9704710B5C0E962
:106EE00001120022C260012202744361024A029B25
:106EF0000260C36110BD00BF04D70B00D1E90523B8
:106F00009A42044B38BF8260C0E9003124BF00239D
:106F10008360704714D70B0070B513689D681368C1
:106F200003F1100414608669B4420AD29B698C682C
:106F3000A34201DAAB42F2DDA342CCBF0020012024
:106F400000E0002070BD2DE9F341089D984601F155
:106F5000100304461746019300260198A369834253
:106F60001AD982688B689A4216DAAE420BD1386021
:106F700001AA2046FFF7D0FF28B1019BC8F80030D6
:106F800002B0BDE8F08101AA2046FFF7C5FF204608
:106F90000136FFF7C1FFE0E70020F1E7F7B51F4634
:106FA00001F110030446164601930025019BA269D6
:106FB0009A420FD998688A6890420BDAB54203D199
:106FC0003B60012003B0F0BD01AA20460135FFF768
:106FD000A3FFEBE70020F5E7F0B5013B0024D1E982
:106FE0000176F61BA64208DDA34206DD45683D4456
:106FF0002D5D02F8015B0134F1E700231370F0BD51
:107000001FB5144610236A46FFF7E6FF04492246DF
:10701000684600F00BFE431E5842584104B010BDB4
:10702000C8D90B001FB5144610236A46FFF7D4FFDA
:107030006846002104F06EFF012084ED000A04B0D0
:1070400010BD000073B50D4689680A4E044661B153
:10705000686801ABFFF7A2FF38B16B68C4E9006351
:10706000019BA360204602B070BD6B68C4E9006359
:107070000023F6E714D70B0007B50191816819B119
:10708000406801AAFFF7BCFF019803B05DF804FB5C
:1070900007B581688DED010A19B1406801AAFFF7B3
:1070A000C1FF9DED010A03B05DF804FB10B5044675
:1070B00000680B4628B102F07BFAE3680133E36015
:1070C00010BD60680028F8D0D4E90221013A8A4254
:1070D00088BF4354F1E703467F2B37B50846D9B242
:1070E00004D803B0BDE83040FFF7E0BF01F03F0136
:1070F000B3F5006FC3F3871541F0800407D245F064
:10710000C0010190FFF7D2FF01982146E9E71B0B70
:1071100043F0E0010190FFF7C9FF05F03F0101983E
:1071200041F08001EEE700002DE9FF4700244E68A2
:10713000DFF8CCA080460F461546A146B868B0429D
:107140005ADDD8F80430995D9A19002C4BD0752976
:1071500005D86D2907D862291ED066291ED0284679
:10716000FFF7A4FF3DE0A1F16E04072CF7D80FF262
:10717000080C5CF824F000BFA1710B005F710B00DC
:107180005F710B005F710B00A5710B005F710B004D
:10719000A9710B00AD710B000821E0E70C21DEE7BF
:1071A0000A21DCE70D21DAE70921D8E7311D884201
:1071B00017DD02A904333344084612F8014F01F8E1
:1071C000014B9A42F9D101AA51468DF80C9000F07A
:1071D0002DFD012805D1BDF804002946FFF77BFFEE
:1071E0000536002404E05C2904D02846FFF75EFF42
:1071F0000136A3E70124FBE7012004B0BDE8F087D6
:10720000E7D60B007FB50C4606460C4910461546DE
:1072100002F08EF9D4E90131C91A0131284602F091
:1072200037F900236A4621463046CDE901330095FF
:107230000393FFF779FF04B070BD00BFE6D60B00E3
:107240002DE9F04389B00546884604A81249164640
:10725000994602F04AF9002700974B4603AA414697
:107260002846FFF770FE044670B1039904AA284629
:10727000FFF7C8FF044608B90137EDE7314604A817
:1072800002F0D1F90028F7D004A802F0E3F8204674
:1072900009B0BDE8F08300BFE6D60B0073B50D461C
:1072A00089680A4E044661B1686801ABFFF7C8FF00
:1072B00038B16B68C4E90063019BA360204602B04B
:1072C00070BD6B68C4E900630023F6E714D70B00B8
:1072D00038B50D460549044602F007F9A96819B109
:1072E00068682246FFF78EFF204638BDE6D60B00C1
:1072F0002DE9F04F44684FF0010C4FF0FF36D0F805
:1073000000E0964580F0B98111F80E80B8F1000FC9
:1073100000F0B381B8F13A0F00F0988033D8B8F19B
:10732000220F00F0A68010D8A8F109085FFA88F8AB
:10733000B8F1170F0DD89F4D0CFA08F818EA050F91
:1073400007D0056801350560D9E7B8F12C0F00F0CA
:107350003381D0F8008042450ED911F808505DB154
:107360003A2D00F269811F2D00F251810A2D00F2A1
:107370006081082D40F25681002B40F0628108F1B7
:10738000FF350560A5E0B8F17B0F37D02ED8B8F1F6
:107390005B0F33D0B8F15D0FDBD1002BD1D04FF0B4
:1073A00002094568013D03EB0518002D55DBD8F8AF
:1073B000047001374DD0D8F808A0BAF1FF3F48D18A
:1073C00098F800B0CB454BD10EF1010EC0F808A0E3
:1073D000C8F808E003EB051EDEF80470013742D060
:1073E000DEF8087001373ED18560AAE7B8F17D0F5D
:1073F000AFD1002BA5D04FF00109D2E70134002B0B
:107400009FD04568099FAF424AD905F1010EC0F8E7
:1074100004E003EB051ECEE901664FEA051A0025DC
:10742000CEF80C5085686F1C1FBF03EB0519D9F807
:107430000C500135C9F80C50B8F17B0F0CBF012579
:10744000022503F80A500568CEF804504568013D4E
:10745000CAE7013DA8F11008A7E701357FF471AF35
:107460006FF001041EE0013D6F1CAEF1100EB3D1B0
:1074700067E70EF10109C0F80090D0F8008042459E
:1074800040F2938011F80850002D00F08E80222DDC
:1074900030D1F3B14568099FAF4206D8C0F800E08B
:1074A0004FF0FF342046BDE8F08F05F1010E4FEAA2
:1074B000051803EB0515C0F804E0C5E901660027CF
:1074C000EF60D0F800E04FF0030A03F808A0C5E928
:1074D000019E85686F1C04F101043FF432AF002B5C
:1074E0003FF42FAF03EB051EDEF80C500135CEF84C
:1074F0000C5026E75C2D11D108F10105AA420DD9E7
:1075000005604D5D752D2BD86D2D0BD8662D27D8B8
:107510005B2D1DD8222D01D02F2D21D105680135DD
:107520000560AAE76E3D072D1AD801A757F825F088
:107530001D750B0061750B0061750B0061750B000B
:107540001D750B0061750B001D750B0067750B0039
:107550005C3DEDB20CFA05F540F241473D42DDD10C
:10756000C0F800E07CE708F1020505604FF0040A6E
:10757000D0F80080424503D80568013D0560CDE79D
:1075800011F80850002DF7D0A5F1300BBBF1090F11
:1075900004D925F02005413D052DE1D808F101056C
:1075A000BAF1010A0560E3D1E6E7C0F800E06FF048
:1075B000020477E713008000002B3FF4C2AE856819
:1075C0006F1C3FF4BEAE2D015D5D013D012D7FF6C8
:1075D000B8AE456805F1FF3803EB051EB8F1000FA2
:1075E000FFF6AFAE1EF8105C013D012D0AD85EF823
:1075F0000C5C013506D05EF8085C013502D1C0F89C
:1076000008809EE608F1FF38AEF1100EE6E7A5F11E
:107610002009244F5FFA89F90CFA09F919EA070FD2
:107620007FF4AAAE203D5E2D9AD808F101050560D1
:107630008FE60D2DF6D19FE605F0DF09B9F15D0F5C
:10764000F8E74568099FAF427FF628AF05F10108CA
:107650004FEA051903EB0515C0F80480C5E901667A
:107660000027EF60D0F800804FF0040A03F809A06B
:10767000C5E901E80568013D83E6002B3FF412AF40
:107680004268511E03EB02130029FFF60BAF53F8BB
:107690000C2C013203D053F8082C013287D0013969
:1076A000103BF1E701100004F7B5C268044612B9B7
:1076B000002003B0F0BD436900F12006ABB100210A
:1076C000C0E908114FF0FF318162C1690091416842
:1076D0003046FFF70DFE431C28D1257C002DE7D155
:1076E000606900F093FA6561E56100254FF0FF37AE
:1076F000C4E90855E2686168A76200952B463046E8
:10770000FFF7F6FD0028D3DBE06117D0000100F0A1
:1077100075FAE269606103460092C4E90855E268BF
:107720006168A7623046FFF7E3FD01E00028BFDB98
:10773000636903EB0010A0610120BAE76369A361EC
:10774000FAE7000008B500F07DF8014B186008BDAD
:10775000B4E6032008B5024B1B689B68019308BD83
:107760007802030008B5024B1B681B6D019308BD2E
:107770007802030008B5024B1B689B6D019308BD9E
:107780007802030008B5024B1B681B6E019308BD0D
:107790007802030008B5034B1B68D3F898300193B7
:1077A00008BD00007802030008B5034B1B68D3F83E
:1077B000A830019308BD00007802030008B5034B10
:1077C0001B68D3F8EC30019308BD00007802030079
:1077D00008B5034B1B68D3F8F030019308BD0000D7
:1077E0007802030008B5024B1B685B6C019308BD6F
:1077F0004802030008B5024B1B68DB6C019308BD0F
:107800004802030008B5024B1B685B6D019308BD7D
:107810004802030008B5024B1B685B68019308BD72
:107820001802030008B5024B1B68DB68019308BD12
:107830001802030008B5024B1B685B69019308BD81
:107840001802030008B5024B1B681B68019308BDB2
:107850002C02030008B5024B1B68DB68019308BDCE
:107860002802030008B5024B1B689B69019308BD01
:107870002802030008B5024B1B68DB69019308BDB1
:107880002802030008B5024B1B681B6A019308BD60
:107890002802030008B5024B1B685B6A019308BD10
:1078A0002802030008B5024B1B689B6A019308BDC0
:1078B0002802030008B5024B1B68DB6A019308BD70
:1078C0002802030008B5024B1B681B6B019308BD1F
:1078D0002802030008B5024B1B681B6C019308BD0E
:1078E0002802030008B5024B1B681B6D019308BDFD
:1078F0002802030008B5024B1B685B69019308BDB1
:107900006C02030008B5024B1B685B69019308BD5C
:107910006402030008B5024B1B681B6A019308BD93
:107920006402030008B5024B1B689B6A019308BD03
:107930006402030008B5024B1B689B68019308BDF5
:107940006802030008B5024B1B68DB68019308BDA1
:107950006802030008B5024B1B689B69019308BDD0
:107960003802030008B5024B1B68DB69019308BDB0
:107970003802030008B5024B1B681B6A019308BD5F
:107980003802030008B5024B1B689B6A019308BDCF
:107990003802030008B5024B1B681B6B019308BD3E
:1079A0003802030008B5024B1B689B6B019308BDAE
:1079B0003802030008B5024B1B68DB68019308BD61
:1079C0003C02030008B5024B1B681B69019308BD0C
:1079D0003C02030008B5024B1B685B69019308BDBC
:1079E0003C02030008B5024B1B689B69019308BD6C
:1079F0003C02030008B5024B1B68DB69019308BD1C
:107A00003C02030008B5024B1B689B6A019308BD4A
:107A10003C02030008B5024B1B681B6C019308BDB8
:107A20003C02030008B5024B1B681B68019308BDAC
:107A30004C02030008B5024B1B685B68019308BD4C
:107A40004C02030008B5024B1B681B69019308BD7B
:107A50004C02030008B5024B1B685B69019308BD2B
:107A60004C02030008B5024B1B689B69019308BDDB
:107A70004C02030008B5024B1B68DB69019308BD8B
:107A80004C02030008B5024B1B681B6A019308BD3A
:107A90004C02030008B5024B1B685B6B019308BDE9
:107AA0006002030008B5024B1B681B6D019308BD03
:107AB0006002030008B5024B1B685B68019308BDB8
:107AC0002002030008B5024B1B685B69019308BDE7
:107AD0002002030008B5034B1B68D3F888300193DC
:107AE00008BD00002002030008B5034B1B68D3F853
:107AF0009430019308BD00002002030008B5024B3A
:107B00001B68DB6B019308BD4402030008B5024B00
:107B10001B685B68019308BD4002030008B5024B77
:107B20001B689B68019308BD4002030008B5024B27
:107B30001B68DB68019308BD4002030008B5024BD7
:107B40001B681B69019308BD4002030008B5024B86
:107B50001B685B69019308BD4002030008B5024B36
:107B60001B689B69019308BD4002030008B5024BE6
:107B70001B68DB69019308BD4002030008B5024B96
:107B80001B681B6A019308BD4002030008B5024B45
:107B90001B685B6A019308BD4002030008B5024BF5
:107BA0001B689B6A019308BD4002030008B5024BA5
:107BB0001B68DB6A019308BD4002030008B5024B55
:107BC0001B681B6B019308BD4002030008B5024B04
:107BD0001B685B6B019308BD4002030008B5024BB4
:107BE0001B681B6C019308BD4002030008B5024BE3
:107BF0001B685B6C019308BD4002030008B5024B93
:107C00001B681B68019308BD1C02030008B5024BEA
:107C10001B685B68019308BD1C02030008B5024B9A
:107C20001B689B68019308BD1C02030008B5024B4A
:107C30001B685B69019308BD1C02030008B5024B79
:107C40001B685B6A019308BD1C02030008B5024B68
:107C50001B68DB6A019308BD1C02030008B5024BD8
:107C60001B681B6B019308BD1C02030008B5024B87
:107C70001B68DB6B019308BD1C02030008B5024BB7
:107C80001B681B6C019308BD1C02030008B5024B66
:107C90001B685B6C019308BD1C0203000021FFF709
:107CA00011BF70477047704770470000064B9942FC
:107CB00010B500F10C0405D0084602F07DFA00284A
:107CC00008BF0024204610BDBCD80B00064B9942CB
:107CD00010B500F10C0405D0084602F06DFA00283A
:107CE00008BF0024204610BDBCD80B00064B9942AB
:107CF00010B500F10C0405D0084602F05DFA00282A
:107D000008BF0024204610BDBCD80B0010B5682168
:107D10000446FCF7C6F9204610BD10B528210446DC
:107D2000FCF7BFF9204610BD10B530210446FCF722
:107D3000B8F9204610BD6821FCF7B3B92821FCF73B
:107D4000B0B93021FCF7ADB9F0B50025EC1C8C4280
:107D50000DD86E1C445D875D974205D12644B14223
:107D600005D31D60601CF0BD01342544EEE7002002
:107D7000F9E70000024A03490A20FFF78BBE00BF63
:107D800025780B001CD70B0030B40D4611461A465F
:107D9000036809682868D3E90043A44630BC6047FB
:107DA000012A38B5044602D10B68236003E0022A99
:107DB00003D0032A0DD0002038BD08200D68FCF741
:107DC0006AF903460028F0D095E8030083E8030031
:107DD000EBE700680028EED00821FCF762F9EAE73B
:107DE00010B58368044613B1032201469847204624
:107DF00010BD10B504465830FFF7F2FF04F14800FB
:107E0000BDE8104001F026BB10B54368013B0446B5
:107E1000436063B903689B689847A368013BA3600C
:107E20002BB923682046DB68BDE81040184710BD19
:107E3000A0F13003DAB2092A01D818467047A0F140
:107E40006103052B01D857387047A0F14103052B7A
:107E500094BF37384FF0FF307047000010B5002353
:107E60000370044B04461868FFF7C4FC0123237019
:107E7000204610BDC0E6032010B5037804461BB1B0
:107E8000024B1868FFF7BEFC204610BDC0E6032079
:107E900082B00346086849686A4603C26A4603CA54
:107EA00018601846596002B0704708B582798B791E
:107EB0009A4206D1062203F04BF9B0FA80F040094D
:107EC00008BD0020FCE74FF0FF33036083800020F3
:107ED000704708B50246002101604160FFF7F3FFDB
:107EE0009171104608BD000010B501230361054BD8
:107EF000024603F1100153F8044B42F8044B8B4245
:107F0000F9D110BDCAD80B0010B50B460446B1B16B
:107F1000012A01F110020AD1014653F8040B41F87D
:107F2000040B9342F9D101232361204610BD411E69
:107F300012F8010D01F8010F9A42F9D1F3E710226E
:107F400003F03EF9F1E738B5044615461A46FFF747
:107F5000DBFFA581204638BD08B5026922B98089BA
:107F6000003818BF012008BD0249102203F0F0F8C4
:107F7000F6E700BFEAD80B000069704738B50C4639
:107F800014220021054603F01BF923691BB9A389BC
:107F90002B80284638BD01232B7421462B4604F143
:107FA000100251F8040B43F8040B9142F9D1F0E7A9
:107FB00080897047704708B502690B699A4206D1FB
:107FC000102203F0C5F8B0FA80F0400908BD002087
:107FD000FCE7000001232DE9F3410361344B0C461B
:107FE0000646024603F1100153F8040B42F8040B55
:107FF0008B42F9D144B32421204603F045F90428EB
:108000004FF0000523D1ADF8045001AFA51C063494
:1080100015F8020CFFF70CFFB0F1000812DB15F8A1
:10802000010CFFF705FF00280CDB023540EA0810C1
:10803000A54207F8010BEBD19DF8053033739DF88D
:10804000043073730023336102B0BDE8F0814FF058
:1080500010082421204603F017F9A84207D8424609
:108060000021304602B0BDE8F04103F0A9B8B8F1F4
:10807000000FE9D0605DFFF7DBFE030615D40001B9
:1080800008F1FF38C7B206F808702421204603F033
:10809000FBF80135A84208D9605DFFF7C9FE40B280
:1080A0000028A4BF384306F808000135D1E700BF17
:1080B000CAD80B0013B504460191FFF715FF2046FF
:1080C0000199FFF787FF204602B010BD38B54FF683
:1080D000FF730025044643800E2229460570057172
:1080E000063003F06DF804F11400FFF7FDFE04F113
:1080F0002800FFF7F9FE044904F13C0001F0F5F90E
:108100006565204638BD00BFE6D60B0010B5D0E946
:10811000063203EBC2029342184606D00468248854
:108120008C4203F10803F6D110BD0020FCE70000EB
:108130002DE9F04100260660074628200C46FBF793
:10814000AAFF051E05F10C080FD00123C5E9013374
:10815000084B2B604046FFF7C7FE0FCC2E6285F818
:10816000246046460FC623683360C7E90085384659
:10817000BDE8F0818CD80B0070B50025056006467F
:108180003020FBF788FF044688B10123C0E90133A2
:10819000094B03604FF6FF7383810E30FFF799FEA2
:1081A000C4E90655C4E90855C4E90A55A5757460C3
:1081B0000C343460304670BDA8D80B0037B50D467E
:1081C000044601A8FFF74AFE2A68D2F8023023606D
:1081D000D2F80630636001A8FFF74EFE204603B0D8
:1081E00030BD30B5054687B00C4601A8FFF736FE16
:1081F0002A68236812881B889A420DD1294602A852
:10820000FFF7DCFF214604A8FFF7D8FF04A902A866
:10821000FFF74BFE044600B9002401A8FFF72CFE2F
:10822000204607B030BD000010B504466420FBF7BF
:1082300032FF68B10023C0E90033C0E90233C0E96E
:108240000433C0E906330362C362C363C364C36516
:10825000206020B90A4A0B490A20FFF71BFC0020C6
:10826000FFF778FA20B1064A07490A20FFF712FC07
:10827000216806480022FFF7ABFA204610BD00BF78
:1082800025780B001CD70B005AD70B0011880B0068
:1082900010B50A4C2378BFF35B8FDB070CD4204664
:1082A000FBF701FF40B10648FFF7BEFF2046FBF792
:1082B000FFFE044802F042FF014810BDB8E603206B
:1082C000C4E60320DD840B0030B50368093B012BB5
:1082D0008DB004460D4611D8FFF7DAFFA18800687B
:1082E000FFF714FF034658B92022CDE904200B4ABA
:1082F00000920B4904AA3220FFF7D4FB0DB030BD29
:108300006A6D002AFAD0D4E9032105F14C00CDE9C9
:108310000312AC6D04AA03A9A047EFE79CD70B009A
:1083200033D70B0008B50020FFF714FA00EAE0701D
:1083300008BD19B90A460846FFF714BAD1E9000189
:108340000022F9E738B5141E4368054602DB6218BF
:108350009A4200DD5C1A2A68501801191A44521A10
:1083600002F014FF6A68121B6A6038BD37B50A460E
:1083700004460D4601ABD0E90001FFF7E5FC0246DB
:1083800038B101992046FFF7DDFF29462046FFF767
:10839000EDFF03B030BD10B50C4629B90A460846BA
:1083A000BDE81040FFF7E6B901212046FFF7DEFFE8
:1083B000D4E900010022F3E738B504461546FFF77B
:1083C000B8FF00280ADB29462046FFF7E4FF002813
:1083D00004DBBDE838400020FFF7D4B938BD000009
:1083E00038B500230446836008200D46FBF753FE92
:1083F00018B12B6803606B684360034BE360034B69
:108400002060A360204638BD897D0B00A17D0B0054
:108410000B68036013B15A6801325A60704710B597
:1084200051F8043B044640F8043BFFF7F1FF236892
:108430000BB9FFF79FFC204610BD10B551F8043B67
:10844000044640F8043BFFF7E3FF204610BD10B59B
:1084500051F8043B044640F8043BFFF7D9FF20469F
:1084600010BD10B50446006808B1FFF7CDFC2046EA
:1084700010BD10B504460430FFF7F3FF204610BDD1
:1084800070B5D0E90053044605EBC306AE4204D0F4
:10849000281DFFF7E6FF0835F8E72068FFF7B6FB71
:1084A000204670BD70B5D0E90053044605EBC30605
:1084B000AE4204D0281DFFF7D4FF0835F8E7206846
:1084C000FFF7A4FB204670BD10B504462430FFF72B
:1084D000E9FF04F11800FFF7D3FF10BD70B5174B8B
:1084E0001C6854B304F15400FFF77AFC04F1440013
:1084F000FFF776FC04F13400FFF772FC04F124006E
:10850000FFF76EFCD4E9065305EBC306AE4204D078
:10851000281DFFF7A6FF0835F8E7A069FFF776FBEF
:1085200004F10C00FFF7BEFF2046FFF7A9FF20462D
:108530006421BDE87040FBF7B4BD70BDC4E6032004
:1085400013B50023D1E90042C1E900330368009369
:1085500004604368426001A80193FFF782FF02B004
:1085600010BD826810B50AB901F023FEBDE81040C5
:10857000C368184738B50D1E0446006803DDFFF7D1
:108580004DFB18B938BDFFF741FB00202060A56006
:108590000120F7E708B583688B4202DAFFF7EAFFAC
:1085A00008BD0120FCE72DE9F0410F4641681D465A
:1085B0001944836899420446904612DC2668626832
:1085C0003E44D21B3146701902F0E0FD2A46414676
:1085D000304602F0CDFD63682B4463600120BDE8A6
:1085E000F081FFF7C7FF0028E8D1F8E7F8B50D469E
:1085F000D0E901139942044616460BDA27686268EF
:108600007919521B481C02F0C1FD7E556368013385
:108610006360F8BD0131FFF7ADFF0028EED1F8E748
:108620000A464168FFF7E2BF2DE9F74304461D46BD
:108630000F4601AB90460A46D0E900019DF828900C
:10864000FFF782FBAE1C63680246B9F1000F26D12A
:1086500028B333441B1AFF2B09D801992046FFF792
:1086600071FE616820463144FFF794FF18B96068D5
:1086700003B0BDE8F0836A1C0199D2B22046FFF72F
:10868000B5FF01993A4601312046FFF7AFFF019946
:108690002B46424602312046FFF785FFE7E7F118F7
:1086A000FF29E4D82046FFF775FF0028DFD0691CBA
:1086B000C9B22046FFF7B4FF39462046FFF7B0FFA6
:1086C00061682B464246E6E730B49DF808501AB17F
:1086D000029530BCFFF7A8BF406830BC70471FB59B
:1086E0000023C0E9003383600622009301238DF844
:1086F0000F2019460DF10F020446FFF7E5FF204653
:1087000004B010BD8842F8B504460D46164614D98B
:10871000904213D2A2F10806751AA1F108072C4461
:10872000B74218D01CB131462046FFF790FE301DED
:10873000FFF797FE083E083CF2E70CD0B5420AD09E
:108740001CB129462046FFF782FE281DFFF789FE4F
:1087500008350834F2E7F8BDF7B5044646686846C0
:10876000FFF775FED4E901739F4212DB0137002F3A
:1087700029DDF800FFF742FA0546F0B1D4E900120E
:1087800001EBC202FFF7BEFF2068FFF73FFA25604A
:10879000A7602368626803EBC60603EBC20231469A
:1087A00006F10800FFF7AEFF1EB169463046FFF73D
:1087B0004EFE636801336360012501A8FFF751FE97
:1087C000284603B0F0BD0025DEE7F8B5D0E9004348
:1087D00005460F4604EBC306A64205D0394620469F
:1087E000FFF7FFFC08B114B9F8BD0834F4E7201D09
:1087F000FFF737FED5E9003204F1080103EBC202AE
:108800002046FFF77FFF6B68013B6B60ECE70000E1
:108810002DE9F04105468EB003A80C46FFF71EFB7C
:108820002E68F31E0D2B3CD8DFE813F00E0053002A
:108830003B00D1003B003B003B003B003B009B006A
:108840009B009B009B009B0004A8FFF795FC049BEA
:10885000AA891A806968049808310230FFF718FB6A
:1088600004A906A8FFF7F3FD06A904F11800FFF715
:1088700073FF054607A8FFF7F4FD20230693B5B95B
:108880005D4B5E49009332202B4606AA0795FFF701
:1088900009F9049B29461888FEF77CFF05A8FFF715
:1088A000E0FD03A8FFF7E8FA0EB0BDE8F081544AF6
:1088B000009200235149079306AA0120FFF7F2F81E
:1088C000E36A002BEAD004A904F12400FFF749FE73
:1088D000E4E7A9892046FFF719FC06460028E0D006
:1088E0000568D5E906324FF6FF71298003EBC20215
:1088F0009A4203D053F8080B4180F9E7D5E9037396
:1089000007EBC308B84504D0381DFFF7AAFD0837A8
:10891000F8E700232B61D5E9067307EBC308B845D8
:1089200004D0381DFFF79DFD0837F8E70023EB6101
:10893000AB72E36B23B1314604F13400FFF711FE53
:1089400000232022CDE906232E4A00922B4906AAB5
:108950000120FFF7A7F8314604F11800FFF735FFB3
:108960009FE7A9892046FFF7D1FB002899D0E36C47
:10897000002B96D000230D2EADF8163001D0102E0E
:1089800017D1002369681A4606258DF81530049121
:108990008DF814200690DDE9040109AB8DF81C6008
:1089A000089583E80300236D06A904F14400984765
:1089B00077E70F2E01BF2B7A696803F001020825C3
:1089C0000FBFC3F340031A4619461D46DDE7A989C8
:1089D0002046FFF79BFB014600283FF462AFE36DA2
:1089E000002B3FF45EAF6B68069306AA236E04F17A
:1089F0005400984755E700BFB4D70B0033D70B009E
:108A0000DAD70B00F7D70B0013B50B460246D0E9B7
:108A100000016C4684E8030093E8030082E8030049
:108A200094E8030083E8030002B010BD38B50546A2
:108A30000C46FFF7E9FFAB68A268AA60A360EB6889
:108A4000E268EA60E36038BD70B504468CB00E465B
:108A500001921D46FFF73AFB2671019904F13C0093
:108A600000F066FD04F14C06CDB1109B029502A901
:108A700004A80393FFF7B4FC002308A904A80A93F1
:108A8000FFF7D4FF314608A8FFF7D0FF08A8FFF78B
:108A9000A7F904A8FFF7A4F920460CB070BD06950D
:108AA000EAE700002DE9F04F87B01D46DDE91043ED
:108AB00080468B46924612990393002268200291C9
:108AC0000492FBF7E8FA061E06F10C0918D0012201
:108AD0003746C6E901220299154A47F8202B039B25
:108AE00000915A4651464846FFF7AEFF0FCD0FC7DB
:108AF0002B683B600FCC06F134050FC523682B6053
:108B000004A94046CDE90496FFF71AFD05A8FFF732
:108B1000A8FCD8F800303BB9064A07490A2007B03C
:108B2000BDE8F04FFEF7B6BF07B0BDE8F08F00BF5D
:108B300070D80B0025780B001CD70B008842F8B5C5
:108B400004460D46164614D9904213D2A2F10806E7
:108B5000751AA1F108072C44B74218D01CB1314650
:108B60002046FFF76AFC301DFFF77BFC083E083CFF
:108B7000F2E70CD0B5420AD01CB129462046FFF7D7
:108B80005CFC281DFFF76DFC08350834F2E7F8BDE2
:108B900070B50E1E054611DDF000FFF72FF80446F4
:108BA00058B1D5E9001201EBC202FFF7C7FF2868F0
:108BB000FFF72CF82C60AE60012070BD0024F6E7B2
:108BC00073B5044645686846FFF737FCD4E90113DE
:108BD000994210DA2368626803EBC50503EBC20211
:108BE000294605F10800FFF7A9FF8DB96368013335
:108BF0006360012606E001312046FFF7C9FF064603
:108C00000028E7D101A8FFF72CFC304602B070BD68
:108C100069462846FFF711FCE8E78842F8B50446A4
:108C20000D46164614D9904213D2A2F10806751AC1
:108C3000A1F108072C44B74218D01CB13146204698
:108C4000FFF7EDFB301DFFF70CFC083E083CF2E798
:108C50000CD0B5420AD01CB129462046FFF7DFFBF5
:108C6000281DFFF7FEFB08350834F2E7F8BD70B5A4
:108C70000E1E054611DDF000FEF7C0FF044658B198
:108C8000D5E9001201EBC202FFF7C7FF2868FEF723
:108C9000BDFF2C60AE60012070BD0024F6E773B507
:108CA000044645686846FFF7BAFBD4E901139942C8
:108CB00010DA2368626803EBC50503EBC20229469C
:108CC00005F10800FFF7A9FF8DB963680133636000
:108CD000012606E001312046FFF7C9FF06460028BD
:108CE000E7D101A8FFF7BDFB304602B070BD694671
:108CF0002846FFF794FBE8E72DE9F04F1746A1B0AF
:108D000080460AA80E46FFF7A9F83C68237953B9B4
:108D100039464046FFF783FB0AA8FFF7ADF8404607
:108D200021B0BDE8F08F3368D3E9035305EBC303EB
:108D3000039304F1280A04F1140B039B9D4221D0F4
:108D4000D5F80090584609F11401FFF734F9B8B18D
:108D500009F128015046FFF72EF988B12368D9F8A8
:108D60000020534033F47F430AD12022CDE915235C
:108D70005E4A009215AA5E493220FEF793FEC7E7CD
:108D80000835DAE75046FFF7E7F860B9594901229C
:108D900015A815ADFFF7B8F80FCDD446ACE80F0015
:108DA0002B68CCF800303368D3E9005305EBC30BD4
:108DB0005D45A94651466ED055F8080BFFF7FBF804
:108DC0000028F5D004F1140A5046FFF7C5F888B919
:108DD000494B48491A88013292B21A8015A80123DA
:108DE00015ADFFF7B0F80FCDD446ACE80F002B68F7
:108DF000CCF80030414B15932822002116A802F030
:108E0000DFF9514604A8FFF7B9F804AB18AA0DF131
:108E1000200C18685968154603C5083363452A466F
:108E2000F7D11868286023798DF85830D9F80030C8
:108E30009B8AADF87430E36B1793314B0022A11D70
:108E400015A8CDE91E34FEF7B9FC00287FF460AF09
:108E500001232370346839460C340DA8FFF7DFFA7C
:108E600020460DA9FFF71BFF04460EA8FFF7F9FAED
:108E7000002C7FF44DAF2023CDE90D34214B00931E
:108E80000DAA234677E739464046FFF7C8FA0CA8F3
:108E9000FFF7E7FA40E70BA8FFF74AF9514615A894
:108EA000FFF76CF80B9A0023143215A90120FEF786
:108EB0007BFC0028E7D135680BA90DA8FFF7BDFAA8
:108EC00028460DA9FFF77CFE05460EA8FFF7C9FA54
:108ED000002DD8D032685368126803F10053013B6B
:108EE0000CA802EBC309FFF7BCFA6BE716D80B001E
:108EF00033D70B00DAD80B00BCE6032003002C00AC
:108F0000C9820B0041D80B00024800230360FEF722
:108F100069BC00BFC0E60320002240681146FEF78E
:108F20002DBE002240681146FEF750BE4068002268
:108F3000FEF744BE4068002281F00101FEF716BE34
:108F4000002340681A461946FEF708BE0023406811
:108F50001A461946FEF7FABD002240681146FEF790
:108F6000EDBD002240681146FEF7D8BD40680022E2
:108F70000221FEF7DBBD002340681A46FEF7C6BD9E
:108F8000024B03225A60024A1A607047C8E6032067
:108F900004D90B007047F8B5064615460C468F18E5
:108FA000BC4206D0336814F8011B9B6830469847D2
:108FB000F6E72846F8BD007C0022FEF763BC007C83
:108FC0000021FEF767BC007C0021FEF76BBC007C33
:108FD0000021FEF76FBC007C0021FEF773BC10B5CA
:108FE00014210446FBF75DF8204610BD10B54FF480
:108FF0007A73044608460021C4E90113034B236039
:1090000020741146FEF766FC204610BD40D90B00C7
:109010000023007C1A461946FEF71CBC7FB50022CF
:109020001423CDE90122ADF804300B788DF8083017
:109030004B680393CB680493007C0B7A059301A9DA
:10904000FEF750FC07B05DF804FB1FB5003B8DF840
:1090500000104FF06401039118BF0123694601928B
:109060008DF80830FFF7DAFF05B05DF804FB012347
:10907000FFF7EBBF007C0022FEF7F4BBC9B2FFF79D
:10908000F9BF007C0022FEF7F5BB0121FFF7F9BF15
:10909000704710B518210446FBF703F8204610BDB1
:1090A000F0B5037D062B8DB00E4600F104074FF09E
:1090B000000412D000F1080515F8011D0A223046FF
:1090C00000F073F9AF42044419D0002CF4D02E21E3
:1090D000304600F051F90444EEE72F236A46394642
:1090E0000A208DF80040FEF70DFC684602F0B0F84B
:1090F00033680246DB686946304698470446204696
:109100000DB0F0BD10B5054B0446112240F8043BEC
:10911000002102F055F8204610BD00BF68D90B00B1
:109120000346074A10B543F8042B01F1100251F829
:10913000044B43F8044B9142F9D10A781A7010BDE0
:1091400068D90B00037D042B04D14068003818BF98
:1091500001207047062B07D143683BB983682BB9C0
:10916000C3681BB90069F1E7002070470120704710
:1091700010B59DF8084044EA032343EA024242EA5C
:10918000016104234160037510BD000007B5064B63
:109190000360CB7800938B784A780978FFF7E8FF73
:1091A00003B05DF804FB00BF68D90B00014B024A15
:1091B0001A607047D0E6032074D90B000023406882
:1091C0001A46FEF7A3BC406800220221FEF7AEBC9F
:1091D000002240681146FEF7A1BC002240681146FB
:1091E000FEF7ACBC002340681A461946FEF7AEBC39
:1091F000002340681A461946FEF7B0BC40680021BB
:10920000FEF7ECBC40680021FEF7F0BC406800228D
:1092100081F00101FEF7AABC40680022FEF7CEBC37
:10922000002240681146FEF7D1BC0022406811467A
:10923000FEF7A4BC2DE9F04395B014460D46074651
:10924000FFF760FF00211C220DA8009101F0B8FF7C
:1092500040230C9320466B460CAA0021FEF772FBBC
:10926000044600284BD1024601216868FEF766FCDF
:109270000221804622466868FEF760FC009E814617
:109280002146002E3BD0002939D17368022B03D030
:109290000A2B11D0F669F4E7B8F1000FFAD0716922
:1092A00006A8043107ADFFF771FF0FCD3C1D0FC4B9
:1092B0002B6823704146EDE7B9F1000FEAD07469DD
:1092C000102201A801F07CFF06238DF8143001ADB7
:1092D00004F108031834186859682A4603C2083391
:1092E000A3421546F7D101A906A807ADFFF718FF5D
:1092F0000FCD3C1D0FC42B6823704946CAE7009868
:10930000FEF718FB384615B0BDE8F083024B034A60
:109310001A6000225A607047D4E6032080D90B00FF
:10932000F8B506460D468F180024BD420CD03368B0
:1093300015F8011B9B6830469847031E01DB1C444F
:10934000F3E7002C08BF1C462046F8BD13B50446C1
:10935000084659B1019101F07BFF23680199DB6850
:109360000246204602B0BDE81040184702B010BDCA
:1093700008B5FFF7EBFF08BD03689B68184738B5D1
:109380000D210546FFF7F8FF0A2104462846FFF79E
:10939000F3FF204438BD38B50546FFF7D7FF044634
:1093A0002846FFF7ECFF204438BD30B58BB00023D2
:1093B000012A8DF8243098BF0A2209AC0D46B1FB72
:1093C000F2F101FB125303F0FF03092B94BF30337A
:1093D0003733DBB2AA4204F8013DEFD92146FFF74B
:1093E000B5FF0BB030BD2DE9F04186B000AF0546AA
:1093F0000E46381D142114463B60FEF71FFC13284F
:109400000ED8391D2846FFF7A1FF04461EB1284695
:10941000FFF7B5FF044420461837BD46BDE8F0818C
:1094200000F1080323F00703E846ADEB030D2246E5
:10943000411C3B686846FEF701FC69462846FFF779
:1094400085FF0446C546E1E7014B00229A6070475C
:10945000DCE6032010B504460068FEF7D7FB204683
:1094600010BD10B50446006808B1FEF7CFFB00231D
:10947000C4E90133236010BD38B504460D460068C9
:109480000131FEF7CBFB10B1C4E90005012038BD66
:1094900010B50368044623B143688B4201D3012011
:1094A00010BD2046FFF7E8FF0028F9D0A368002B85
:1094B000F5D122681370F2E737B50D4611460192D7
:1094C0000446FFF7E5FF019A28B92046FFF7C9FFD8
:1094D000204603B030BDA2602946206801F048FE56
:1094E0002268A3680021D154F2E7002313B5C0E934
:1094F000003304468360037341B10846019101F0D3
:10950000A7FE019902462046FFF7D6FF204602B08B
:1095100010BD884210B5044605D00B682BB18A688F
:109520001946FFF7C9FF204610BDFFF79AFFFAE77B
:1095300013B5044659B10846019101F089FE01991D
:1095400002462046FFF7B8FF204602B010BDFFF7E5
:1095500088FFF9E710B504468AB00023C4E9003358
:10956000A3602373084601A900F000FD01A920466D
:10957000FFF7DEFF20460AB010BD70B505460E4667
:1095800009B9002070BD6AB1846814442146FFF710
:109590007FFF0028F5D02868AB683146184401F0F9
:1095A0004FFEAC600120EDE78A680968FFF7E5BF70
:1095B00007B500238DF80410012201A98DF80530AC
:1095C000FFF7DBFF03B05DF804FB10B58A6809689C
:1095D0000446FFF7D2FF10B92046FFF742FF2046AE
:1095E00010BD02680B46096862B141B9806860B17C
:1095F00010787047986840B1097848427047104623
:1096000001F014BE0029F5D10846704708B58268FC
:109610008B689A4205D1FFF7E4FFB0FA80F0400969
:1096200008BD0020FCE708B582683AB921B1087886
:10963000B0FA80F0400900E0012008BD006809B9D7
:109640000078F5E701F0F2FDF2E710B58368934288
:1096500007D904680968A01801F022FE08B1001BB0
:1096600010BD4FF0FF30FBE70022FFF7EEBF000018
:10967000F8B59A420F461D460C4988BF134614465A
:10968000064684BF2C461D46FFF72FFFBB68A3424A
:109690000AD33968AB4294BFC4EB0302C4EB0502A2
:1096A00021443046FFF708FF3046F8BDE6D60B00F0
:1096B00010B504468B68FFF7DBFF204610BD0000A5
:1096C000054B02221A60054B054A9A600020C3E947
:1096D0000000FEF7EFB900BFF8E60320ECE6032038
:1096E0000000FFFF13B503688DF80710DC6B012243
:1096F0004FF0FF330DF10701A04702B010BD10B4C9
:109700000368DC6B4FF0FF33A4465DF8044B604701
:1097100013B5134602688DF80710D46B0DF10701DD
:109720000122A04702B010BD10B54369B3F88620EE
:10973000B3F884309A42044608D06369B3F88420B1
:10974000511CA3F884101344187910BD03681B69D9
:1097500098470028F1D14FF0FF30F6E77047436992
:109760001868C043C00F704770470000064B99420D
:1097700010B500F10C0405D0084600F01DFD0028CE
:1097800008BF0024204610BDBCD80B0010B5AC218A
:109790000446FAF786FC204610BDAC21FAF781BCDE
:1097A0002DE9F0414FF0000886B01C46C0F8048057
:1097B00005460E4617464146102202A801F000FD5C
:1097C000631C09D04FF47A73B4FBF3F203FB124429
:1097D000CDE902285C430494686910230093006873
:1097E00002AB41F2050240F6FF71FEF7B3F8002824
:1097F00007DAFEF73BFA03686B60002006B0BDE8AD
:10980000F0816869002300683A463146FEF7C2F8E5
:10981000031EEEDB1846F1E738B584690A4B036096
:1098200005467CB16368013B63605BB923682046F1
:109830009B689847A368013BA3601BB92368204637
:10984000DB689847284638BDF0D90B0010B50446B0
:10985000FFF7E2FF20461C21FAF723FC204610BD4B
:1098600030B587B0044601AD6846FFF78FFC0FCDD9
:1098700004340FC42B68237007B030BD70B54D6938
:10988000054B04468C3544F8043B06460FCD0FC407
:109890002B682370304670BD68D90B002DE9F0436A
:1098A0009846036893B00D460024DB6A06461746C7
:1098B000984728466B46224621460094FEF742F818
:1098C0000546002863D1009B002B4BD05B69002B21
:1098D00048D006A8FFF716FC009B5C696378022B52
:1098E00004D1211D06A8FFF7BBFF26E00A2B24D1D7
:1098F0001122294601A801F063FCA368002B38D08F
:1099000004F108030DF1040C183418685968624614
:1099100003C20833A3429446F7D1062301A90CA839
:109920008DF81430FFF7FCFB0DF1340CBCE80F0090
:1099300007AC0FC4DCF80030237006A8FFF702FC68
:1099400080B1336807ADD3F82090124B0C930FCD44
:109950000DAC0FC42B6823703A4643460CA9304621
:10996000C84705460098FDF7E5FF284613B0BDE857
:10997000F083E368002BC3D14FF6FF70D4F810904A
:10998000FDF7C8FF8145BBD104F11401AAE72546C4
:10999000E8E700BF68D90B0038B543691A68002AA8
:1099A000054610DAB3F88620B3F884309A420AD11B
:1099B00003681B699847044628B92B682846DB6A68
:1099C0009847204638BD0120FCE710B54369B3F83D
:1099D0008620B3F884309A42044605D06369B3F810
:1099E00084201344187910BD03681B699847002828
:1099F000F4D14FF0FF30F6E7F8B543691746B3F8F6
:109A00008620B3F884309A4205460E4616D069691E
:109A1000B1F88430B1F88640E41ABC4228BF3C4615
:109A2000043322461944304601F0A2FB6A69B2F8B9
:109A300084302344A2F884302046F8BD03681B69B3
:109A400098470028E3D14FF0FF34F5E7426900233F
:109A5000A2F884304269A2F8863070472DE9F041BF
:109A60001F4603680C46DB6A8AB0054616469847CF
:109A7000237DD5F81480042B0CBF02200A20062277
:109A80000121FDF78FFFC8F800006B691B68002BF0
:109A900008DA2B682846DB6A0024984720460AB07B
:109AA000BDE8F0812846FFF7D1FFB7B1002303A935
:109AB000F8B20393ADF81030FDF71CFF0028E8D191
:109AC000686906230093006803AB41F20B0240F67D
:109AD000FF71FDF73FFF0028DBD11C22002103A806
