:02000002B0004C
:1040000000400B0070DE0B00000006000C000502F3
:084010000401E50C00000000B2
:0440180064CE0B0067
:1040200009480A49884208B505D0094A824202D0A7
:10403000121A06F0C6FE0748074A0021121A06F0B7
:10404000E8FE014808BD00BF5853032058DC0B00B0
:104050004855032048550320EDE7032070B5074E6F
:10406000074C05F00BFEA41BA4080025AC4200D1B0
:1040700070BD56F8043B98470135F7E704DC0B00A8
:104080002CDC0B0001F028BE08B501F005FFBDE8EF
:10409000084005F0ABBD03F045BB03F043BB03F0A4
:1040A00049BB03F047BB0078B0FA80F04009704785
:1040B000012303707047000010B5034B03600446F2
:1040C00002F07EFC204610BD58D20B0010B504460D
:1040D000FFF7F2FF204646F2BC51FFF7E2FF204611
:1040E00010BD70B50C1E064615460BDA0A2A09D11A
:1040F0002D2104F047FF6142EAB23046BDE870402E
:1041000004F059BF2146F7E708B5034650B1064A07
:10411000904201D905F04CFE0C205843BDE8084000
:10412000FFF7B9BF08BD00BFAAAAAA0A00F1080399
:1041300073B5044603600D46D9B1084606F0B2FED9
:104140000F2805EB0006019007D9002201A920469F
:1041500005F04AFE019B2060A36032462946206894
:1041600005F07DFE019B226863600021D15402B0FE
:1041700070BD014805F01FFE78CE0B0008B5034660
:1041800050B1064A904201D905F012FE182058435A
:10419000BDE80840FFF77FBF08BD00BF5555550576
:1041A00008B548B1B0F1005F01D305F001FEBDE8EC
:1041B00008408000FFF76FBF08BD08B548B1B0F1F7
:1041C000805F01D305F0F4FDBDE80840C000FFF7B3
:1041D00062BF08BD73B500F108030360D1E9005365
:1041E0000446EE181DB916B10C4805F0E4FD0F2B7E
:1041F000019307D9002201A9204605F0F5FD019B96
:104200002060A36032462946206805F023FE019B0A
:10421000226863600021D15402B070BD78CE0B00DB
:104220000368C9B29B68184713B5044661B10846D4
:10423000019106F037FE23680199DB6802462046AB
:1042400002B0BDE81040184702B010BDF0B54D4CAB
:1042500085B007460D4668464B4904F04CFF23687D
:10426000022B6EDC0026013DB54205D9B95D6846DA
:1042700004F0AFFF0136F7E72368012B04DC434964
:104280004348002203F048FD05F02CFD414E236811
:1042900056F8231004F0F8FC05F024FD3321FFF755
:1042A000BFFF05F01FFD04F0F6FC2368002B48DD7E
:1042B0003949684604F0BBFF00284AD005F0C4FB2A
:1042C000364904F06EFE00202368354D56F8202054
:1042D000013B45F8232005F005FD2368013B56F816
:1042E000231004F0D1FC05F0FDFC3421FFF798FF0A
:1042F00005F0F8FC04F0CFFC2368022B21D1294BF8
:1043000001224FF47A701A7003F05CFA05F09CFBFE
:10431000254904F046FE05F097FB0A222968FFF7BD
:10432000E0FE05F091FB214904F028FE05F08CFB2E
:1043300069680A22FFF7D5FE05F086FB1B4904F0E9
:104340001DFE236868460133236004F089FE05B032
:10435000F0BD1749684604F06AFF30B105F074FB00
:10436000144904F01EFE0120AEE71349684604F02C
:104370005EFF0028A8D005F067FB104904F011FE8D
:104380000220A1E78C5503203ED30B00A2CE0B00E8
:10439000A8E6032084550320E6CE0B00DECE0B00FA
:1043A00098E60320B0E6032005CF0B0013D20B00E4
:1043B000F2CE0B00EACE0B00FFCE0B00F7CE0B00C7
:1043C0008142F8B504460D4625D0D1E90071006858
:1043D000A368CE1B1B1A9E421ED9F010FFF7EDFEFC
:1043E000002305469E420AD0EA181CBFF918D1E9FD
:1043F000000103F1080318BFC2E90001F2E72068D9
:1044000018B1A168091AFFF74CFE25603544A56074
:10441000236833446360F8BD6268121A964206D876
:10442000B942F5D03246394606F0D9FCF0E712B170
:10443000394606F0D4FCD4E90027BB1A2A686D6817
:104440001A44AD1A00239D42E2D017EB030C1CBFA7
:10445000D118D1E9000103F1080318BFCCE900012C
:10446000F1E7000081422DE9F84F04468A4636D034
:10447000D1E9005BD0F800908368394AABEB0507BF
:10448000A3EB09034FEAE708BB4202FB08F828D276
:104490004046FFF773FE06468046AB450AD0B8F1AA
:1044A000000F03D029464046FFF794FE08F1180894
:1044B0001835F2E7D4E90058A84504D0284605F09D
:1044C000B5FC1835F8E7206818B1A168091AFFF79C
:1044D000E8FD26603E44A66023683B446360BDE877
:1044E000F88F4668A6EB0906B74219D84646CA4671
:1044F000002E08DD2946504605F0B6FC18350AF1B5
:10450000180A013EF4E728EAE8781825666805FBF2
:104510000895AE42E0D0284605F088FC1835F8E74B
:10452000F6105643002E08DD2946484605F09CFC4F
:10453000183509F11809013EF4E7D4E90056711B5A
:10454000DAF80050DAF804800D44A845C4D01EB152
:1045500029463046FFF73EFE18351836F5E700BF0E
:10456000ABAAAAAA0EB403B503AB002153F8042BDF
:10457000019304F03EFD02B05DF804EB03B0704718
:104580000EB403B503AB012153F8042B019304F0DF
:1045900030FD02B05DF804EB03B070472DE9F04F39
:1045A000B64DDFF808838DB02B68022B00F0FD803C
:1045B0000023DFF8FC92B24F2B60082405F044FA88
:1045C0004146064608A804F096FD0A22214604A8A2
:1045D00004F0D1FD04A908A804F008FE01683046E3
:1045E00004F0DFFC04A804F03BFD08A804F038FD4B
:1045F00005F078FB214604F047FB05F073FB312101
:10460000FFF70EFE5FFA84FA05F06CFB04F043FB43
:1046100005F068FB1822514604F02FFB05F062FB01
:1046200003681B699847002840F3BA8005F00CFA2C
:104630004946064608A804F05EFD0A22214604A861
:1046400004F099FD04A908A804F0D0FD01683046E3
:1046500004F0A7FC04A804F003FD08A804F000FD82
:104660002B683946013368462B6004F044FD182658
:1046700005F038FB03685B699847C1B2684604F0EF
:10468000A8FD013EF4D105F02DFB214604F0FCFA13
:1046900005F028FB0099FFF7C7FD05F0D5F979492A
:1046A000064608A804F027FD694608A804F09EFD08
:1046B0000168304604F075FC08A804F0D1FC05F050
:1046C00011FB04F0E8FA05F0BFF96F49064608A8A7
:1046D00004F011FD0A22214604A804F04CFD04A9AF
:1046E00008A804F083FD0168304604F05AFC04A8D1
:1046F00004F0B6FC08A804F0B3FC05F0F3FA214678
:1047000004F0C2FA05F0EEFA3221FFF789FD05F058
:10471000E9FA04F0C0FA05F097F95C49064608A8E2
:1047200004F0E9FC0A22214604A804F024FD04A9AF
:1047300008A804F05BFD0168304604F032FC04A8D0
:1047400004F08EFC08A804F08BFC05F0CBFA0422E0
:10475000514604F092FA3946684604F0FAFC042601
:1047600005F0C0FA03685B699847C1B2684604F077
:1047700030FD013EF4D105F067F94549064608A829
:1047800004F0B9FC694608A804F030FD0168304621
:1047900004F007FC08A804F063FC684604F060FC21
:1047A0000134782C7FF40AAFFEE605F04DF9394963
:1047B000394E3A4F04F0F5FB0824002505F092FA33
:1047C000214604F061FA05F08DFA3121FFF728FD4A
:1047D00005F088FA04F05FFA05F084FA1822E1B2D5
:1047E00004F04BFA05F07EFA03681B69984700282D
:1047F0000DDD05F029F90A222146FFF772FC05F0CC
:1048000023F9314604F0BAFB47F82540013501345D
:10481000782CD3D1224B234A234DDFF880A0D3E953
:1048200000031B1A9B1053430022944624304FF080
:10483000640817469A421ED008FB02F12C4650F835
:1048400001E000210EF1040B5BF82160B1465EF837
:104850002160B14514BF5AF82C60276001F10301B3
:104860001CBF26600CF1010C092904F10404EBD1F2
:1048700001320C35DEE70DB0BDE8F08FA4E6032071
:104880003ED30B0049CF0B0055CF0B006CCF0B0074
:1048900086CF0B009ECF0B0013D20B008455032054
:1048A000C0E50320295C8FC298E6032011CF0B00DE
:1048B0002CCF0B0038B54FF4007514230446036069
:1048C000856005610549284605F070FA0349606076
:1048D000284605F06BFAE060204638BD44D70B004F
:1048E00010B50446006818B1A168091AFFF7D9FB92
:1048F000204610BD10B50446006818B1A168091A19
:10490000FFF7CFFB204610BD10B50446006818B174
:10491000A168091AFFF7C5FB204610BD70B5D0E9A4
:1049200000560446AE4204D0284605F07FFA1835FA
:10493000F8E7206818B1A168091AFFF7B2FB204612
:1049400070BD0000B1F1005F70B504460D4616461B
:1049500002D30C4805F032FA0023C0E9003383602B
:104960000846FFF71DFC00EB8503C4E90000A360C7
:104970002DB13268834202D040F8042BFAE7606020
:10498000204670BDAECF0B002DE9F341002402ABF1
:1049900003E90600C0E90044134605468460D700D9
:1049A00042F31C00104AB2EBC30F884602D20F48F4
:1049B00005F004FAFFF701FCC61902462860AE6054
:1049C00023469F420BD0D4181CBF08EB0301D1E94A
:1049D000000103F1080318BFC4E90001F1E728460C
:1049E0006E6002B0BDE8F081F8FFFF7FAECF0B0034
:1049F0002DE9F34102AB03E906000023C0E90033CF
:104A00008360164618235E43104B0446F01058434B
:104A10000F4B9E420F4601EB060802D90D4805F0E8
:104A2000CDF9FFF7ABFB064405462060A660B8450C
:104A300007D01DB139462846FFF7CCFB183718358B
:104A4000F5E72046656002B0BDE8F081ABAAAAAAEE
:104A5000F8FFFF7FAECF0B00F8B5D1E90037002596
:104A6000FF1A0446C0E900558560F8100E46FFF7AE
:104A7000A4FBC4E900000744A760D6E9007602461B
:104A8000F61B2B46B34202EB030506D01DB1F91805
:104A900003C985E803000833F4E765602046F8BDE4
:104AA000002938B504464FEA81050CD0B1F1005F0A
:104AB00001D305F07DF92846FFF7EDFAC4E90000BF
:104AC0002844A06038BD0846F8E738B504460D46CE
:104AD000AC4204D02046FFF717FF0C34F8E738BD8E
:104AE00010B504464830FFF719FF04F1300005F017
:104AF0009DF9D4E90901FFF7E8FF606A18B1E16A9E
:104B0000091AFFF7CEFA04F11800FFF7FDFE04F1D1
:104B10000C00FFF7EFFE2046FFF7E2FE204610BD37
:104B2000814210B51346A1EB000405D00146224690
:104B3000184606F054F90346181910BD70B5D1E9AE
:104B40000036F61A00230446C0E900338360B01033
:104B50000D46FFF725FBC4E900000644A6600246A7
:104B6000D5E90001FFF7DCFF6060204670BD000062
:104B70007FB504AB03E906000023C0E9003383607E
:104B8000044613460E46950001EB820142F31D00D8
:104B90000A4AB2EB830F02D2094805F00FF90191DE
:104BA000FFF7FEFA0544024620600199A5603046F1
:104BB000FFF7B6FF606004B070BD00BFFCFFFF7F71
:104BC000AECF0B008142F7B504460D461DD0D1E9AA
:104BD000007102688368CE1B9B1A9E4217D9B010E1
:104BE0000191FFF7DDFA0199024605463846FFF7C5
:104BF00097FF206818B1A168091AFFF752FA2560DB
:104C00003544A56023683344636003B0F0BD436856
:104C10009B1A9E4203D83846FFF782FFF2E7F91845
:104C20003846FFF77DFFD4E90002D5E90031101ABC
:104C30001844F1E72DE9F0410C1A05460B48A41081
:104C40004443164627469046002F08DD2946404635
:104C5000FFF7B8FF0C3508F10C08013FF4E724EA30
:104C6000E4740C2000FB0460BDE8F081ABAAAAAAA2
:104C70002DE9F04F0025984600F13803C0E90C35C6
:104C80004FF0FF33C0E915330446C0E90055C0E9D1
:104C90000255C0E90455C0E90655C0E90855C0E908
:104CA0000A55C0E9125595B080F83850056591460F
:104CB00000F1180A00F1300700F14806FFF780FB09
:104CC000D4E900239B1AAB424FEAE30102DA5A48C7
:104CD00005F074F808A80191CDE908550A95FFF789
:104CE000DFFE0199089831B100EB810B8A0029465B
:104CF00006F08FF85846D4E90352089963690D937A
:104D0000C4E903100A996161CDE90B520BA8002593
:104D1000CDE908550A95FFF7EDFD08A8FFF7EAFD74
:104D200049465046FFF74EFFD8F80010069509682F
:104D300003AB06AA0BA8FFF705FED8F800100795ED
:104D4000496804AB07AA0EA8FFF7FCFDD8F80010CD
:104D5000089505AB08AA896811A8FFF7F3FD626AF8
:104D6000E36A9B1A232B3ED80320FFF7CDF90DF100
:104D70002C0A054600F124098046B8F1000F03D043
:104D800051464046FFF7DAFE08F10C08C8450AF123
:104D90000C0AF2D1D4E90901FFF797FE606A18B155
:104DA000E16A091AFFF77DF9C4E90959C4F82C90A2
:104DB00011A8FFF7A9FD0EA8FFF7A6FD0BA8FFF7A6
:104DC000A3FD1E99384605F04FF830461F99FFF7AE
:104DD00049FB209B1B681A685B68E26520462366D6
:104DE00015B0BDE8F08FA56AAD1A232D0BD914A913
:104DF0000BA8FFF71FFFA16A88420546D8D0FFF72E
:104E000064FEA562D4E70BAB1D4429461846FFF7A4
:104E100011FFD4F8288014AB9D420AD0B8F1000FDE
:104E200003D029464046FFF789FE0C3508F10C08EF
:104E3000F1E7C4F82880BBE7AECF0B002DE9F04FB7
:104E40002DED0C8B0128ADF50F7D40F09185B74B12
:104E50007293B74B7393B74B7493B74B7593B74B30
:104E60007693B74B7793B74B7893B74B7993B74B10
:104E70007A93B74B7B9372AB51930DF58A7A0523E6
:104E8000519952930522534662A8FFF77DFDB14B1D
:104E9000DFEDB18A9FEDB18ADFEDB19A9FEDB19A56
:104EA000DFEDB1AA9FEDB1AADFEDB1BA9FEDB1BAC6
:104EB000DFEDB1DA9FEDB1DADFEDB1CA9FEDB1CA36
:104EC0000FCB65AC84E80F00042221465FA84F9405
:104ED0005092FFF74DFEAC4A07CA59AD85E807006E
:104EE00003215CAE4DAB4D954E916BAD93E8060042
:104EF00030460DF5FC7BFFF73BFE2846A349FFF744
:104F000015F9A3495846FFF711F9A24984A8FFF7FC
:104F10000DF902210DF58679CDF82CB14C914BAAF3
:104F200006CA4B4656A8FFF763FD002147AFCDE9FF
:104F30004711022149AB49974A9193E8060053A8CB
:104F4000FFF716FE53A9029156A9CDE900515FA9BA
:104F500033460A46904862A9FFF78AFE53A8FFF736
:104F6000D3FC56A8FFF7DAFC84A804F05FFF58468C
:104F700004F05CFF284604F059FF3046FFF7C4FCFC
:104F80005FA8FFF7C1FC62A8FFF7AAFC834B7E93E2
:104F9000834B7F93834B8093834B8193834B82938B
:104FA000834B8393834B8493834B8593834B86936B
:104FB000834B87930621834B88930DF1EC08824B3A
:104FC000CDF81CB1489197E80600899362A8434642
:104FD000FFF7DAFC5F4B459403F11C0CBCE80F00B3
:104FE00027460FC70521DCF8003046919AE80600F5
:104FF0003B605FA80797FFF7BBFD564B303393E844
:10500000070059AF87E8070003214397449199E8C7
:1050100006003046FFF7ACFD28466C49FFF786F8DE
:105020006B4972A8FFF782F86A4978A8FFF77EF803
:1050300072A9419102210DF1E40A429141AA06CAE6
:10504000534656A8FFF7D4FC00213DAFCDE93D11F2
:1050500002213FAB3F97409193E8060053A8FFF72A
:1050600087FD53A9029156A9CDE900515FA93346A6
:105070000A46594862A9FFF7FBFD53A8FFF744FC15
:1050800056A8FFF74BFC78A804F0D0FE72A804F0F5
:10509000CDFE284604F0CAFE3046FFF735FC5FA877
:1050A000FFF732FC62A8FFF71BFC07210DF1C409D2
:1050B000CDF8F4B03E9197E806004B4662A8CDEDDE
:1050C0007E8A8DED7F8ACDED809A8DED819ACDED32
:1050D00082AA8DED83AACDED84BA8DED85BACDED92
:1050E000868A8DED878ACDED88DA8DED89DACDED72
:1050F0008ACA8DED8BCAFFF747FC164B3B9503F12F
:105100003C010F460FCF06972F460FC7069905970C
:1051100003C987E8030006213C9198E806005FA8D0
:10512000FFF726FD2D4907C95AE000BF80692742D5
:105130001E43AFC2CC9D27420242AFC2959D27427B
:105140006D47AFC2A9A72742054EAFC282B327421F
:10515000444EAFC26CD20B001A8B27429A44AFC2A6
:105160002F8B27429540AFC2D88127424440AFC21F
:1051700016822742C144AFC237A427425946AFC264
:105180009EA42742D04BAFC27CD20B00E6CE0B00D0
:10519000DFCF0B00E6CF0B00CCE50320C57E274216
:1051A0008A73AFC28D8027422F48AFC258812742F1
:1051B000A541AFC24C8B27427742AFC2F98A274242
:1051C0009E47AFC225AA2742EE5FAFC2F2CE0B00C8
:1051D000EDCF0B00F4CF0B0090550320C0D20B0095
:1051E00059AF87E80700032039973A909AE80600FC
:1051F0003046FFF7BDFC2046BA49FEF797FFBA4993
:1052000072A8FEF793FFB94978A8FEF78FFF72A83E
:105210003790022038900DF1BC0A37AA534606CACF
:1052200056A8FFF7E5FB00230420CDE9333033AF68
:10523000022035AB3597369093E8060053A8FFF768
:1052400097FC53A8029056A8CDE900405FA80246FB
:1052500062A833460146A648FFF70AFD53A8FFF7A8
:1052600053FB56A8FFF75AFB78A804F0DFFD72A89D
:1052700004F0DCFD204604F0D9FD3046FFF744FB86
:105280005FA8FFF741FB62A8FFF72AFB994B7293D7
:1052900072A8994B339073930320984B34900DF17F
:1052A0009C087693964B779397E8060043462046F2
:1052B000CDED749A8DED759AFFF766FB53A831908A
:1052C0000220112332901722CDE9532362A899E8D6
:1052D0000600FFF74DFC8B4A2F9607CA86E80700A9
:1052E000032030909AE806005FA8FFF741FC2846AB
:1052F0008549FEF71BFF85495846FEF717FF84498D
:1053000084A8FEF713FF02202E900DF1940ACDF829
:10531000B4B02DAA534606CA59A8FFF769FB00206E
:1053200029AFCDE9290002202BAB2B972C9093E8D5
:10533000060056A8FFF71CFC56A8029059A8CDE914
:1053400000505FA8034662A8024621467148FFF755
:105350008FFC56A8FFF7D8FA59A8FFF7DFFA84A800
:1053600004F064FD584604F061FD284604F05EFD3B
:105370005FA8FFF7C9FA62A8FFF7C6FA2046FFF751
:10538000AFFA654B7E93654B7F93654B8093654B7E
:105390008193654B8293654B8393654B8493654BF7
:1053A00085930820644B2A900DF174098A93CDF8F7
:1053B000A4B0624B8B9397E806004B4662A8CDEDF4
:1053C000869A8DED879ACDED888A8DED898ACDED0F
:1053D0008CAA8DED8DAAFFF7D7FA594B279503F1CB
:1053E00060070FCFAC46ACE80F0097E80700059FB9
:1053F00087E807000720289098E806005FA8FFF7D5
:10540000B7FB404A07CA59AF87E807000320259732
:1054100026909AE806003046FFF7AAFB2046494945
:10542000FEF784FE484972A8FEF780FE474978A837
:10543000FEF77CFE72A82390022024900DF16C0AE6
:1054400023AA06CA534656A8FFF7D2FA032107201B
:10545000CDE91F101FAF022021AB2197229093E8C6
:10546000060053A8FFF784FB53A8029056A8CDE985
:1054700000405FA8024662A8334601463448FFF761
:10548000F7FB53A8FFF740FA56A8FFF747FA78A8AA
:1054900004F0CCFC72A804F0C9FC204604F0C6FC61
:1054A0003046FFF731FA5FA8FFF72EFA62A8FFF740
:1054B00017FA072020900DF14C08CDF87CB097E842
:1054C0000600434662A8CDED7E8A8DED7F8ACDED44
:1054D000809A8DED819ACDED82AA8DED83AACDEDD6
:1054E00084BA37E0FBCF0B00FFCF0B0006D00B00D8
:1054F000F455032097692742B840AFC2718927420B
:105500007964AFC27CD20B003CD20B000DD00B00F3
:1055100014D00B00585603201A632742D24BAFC257
:10552000C46E27421541AFC2B58027428640AFC244
:10553000008227428940AFC2E18127427644AFC250
:105540006CD20B001BD00B001FD00B0026D00B0021
:10555000D87E03208DED85BACDED868A8DED878AC4
:10556000CDED88DA8DED89DACDED8ACA8DED8BCA65
:10557000FFF70AFABE491D95A1F1180CBCE80F000F
:105580002F460FC70699059F03C987E80300062128
:105590001E9199E806005FA8FFF7EAFAB54A07CA24
:1055A00059AF87E8070003211B971C919AE8060072
:1055B0003046FFF7DDFA2046AF49FEF7B7FDAF49A9
:1055C00072A8FEF7B3FDAE4978A8FEF7AFFD72A949
:1055D000199102210DF144091A9119AA06CA4B46E4
:1055E00056A8FFF705FA002115AFCDE915110221E4
:1055F00017AB1797189193E8060053A8FFF7B8FA6E
:1056000053A9029156A9CDE900415FA933460A4644
:105610009C4862A9FFF72CFB53A8FFF775F956A821
:10562000FFF77CF978A804F001FC72A804F0FEFBF7
:10563000204604F0FBFB3046FFF766F95FA8FFF752
:1056400063F962A8FFF74CF98F4B7E938F4B7F93E2
:105650008F4B80938F4B819308218F4B8293CDF892
:1056600054B08E4B169197E80600839362A80AAB5C
:10567000CDED848A8DED858ACDED869A8DED879A64
:10568000CDED88AA8DED89AACDED8ABA8DED8BBAC4
:10569000CDED8C8A8DED8D8AFFF776F9804B1395D1
:1056A00003F17C070FCFAC46ACE80F0097E807008A
:1056B000059B83E807000723149398E806005FA87A
:1056C000FFF756FAA7F17C0207CA59AB83E8070037
:1056D00011930323129399E806003046FFF748FA26
:1056E00020467049DFF8D481FEF720FD6E4972A88C
:1056F000FEF71CFD6D4978A8FEF718FD72AB0F93FD
:10570000022310930FAA06CA09AB56A8FFF770F937
:105710000BAA0D92032007230222CDE90B030E9260
:105720000DAB93E8060053A8FFF722FA53AB0293A0
:1057300056AB5FAA62A9CDE900435D483346FFF747
:1057400097FA53A8FFF7E0F856A8FFF7E7F878A80C
:1057500004F06CFB72A804F069FB204604F066FBC1
:105760003046FFF7D1F85FA8FFF7CEF862A8FFF741
:10577000B7F8504B50495148514E0022C3E900221E
:105780009A6002F02BFA4F494F4802F027FA4F492E
:105790004B4802F023FA0FCE27460FC7079BD6F8D7
:1057A00000C0C3F800C0B8E80F002E460FC6C146BF
:1057B000059B59F810A9DFF834E1C3F800A026468C
:1057C0000023CEE900330FCE72AF0FC7C7F800C079
:1057D000AC46BCE80F005E460FC60023C6F800A02A
:1057E0007046CDE901333A49CDF800B072AB4FF0C5
:1057F000100202F05DFFDFF8D0C0D8F80080BCE8EE
:105800000F00A646AEE80F00079BDCF800E0C3F8E7
:1058100000E0B9E80F00AC46ACE80F00059BDFF8EC
:10582000D090C3F800800023C9E900330FCC0DF5F8
:10583000E47CACE80F00C7F800E00FCD5C460FC475
:105840000023C6F800800293224B2349234C4FF0DB
:105850000402CDE900B3484672AB02F029FF2049AB
:10586000204803F048FC204803F052FA42E000BF11
:10587000C0D20B007CD20B00CED50B002DD00B007C
:1058800034D00B005CE50320766A27422B69AFC257
:105890005F6B2742CD56AFC22D8A2742D856AFC282
:1058A0006CD20B003BD00B0040D00B0047D00B005C
:1058B000F8E40320C0E503204ED00B004855032038
:1058C0007055032073D00B005C55032098D00B005B
:1058D000BDD00B004D420B00C0D00B003C7F03201D
:1058E0003ED30B0030E6032040E60320A8E6032069
:1058F00090E603203849394803F0FDFB3649384823
:1059000003F0F9FB3449374803F0F5FB364800F063
:10591000D7FE4FF47A73009342F21072334B04F1C6
:105920002C01204601F0A4F8314B23600DF50F7DCA
:10593000BDEC0C8BBDE8F08F206818B1A168091A86
:10594000FEF7AFFB2B48FFF7CBF82B48FFF7C8F863
:105950002A48FFF7C5F82A48FFF7C2F82948FFF799
:10596000BFF82948FFF7BCF82848FFF7B9F8DDE78A
:105970002748FEF7A1FB1C4B264A9C691A607CB1A4
:105980006368013B63605BB9236820469B68984766
:10599000A368013BA3601BB923682046DB689847D6
:1059A00010481D4C03F05CFB0D4803F059FB0B48FD
:1059B00003F056FB194803F053FB194802F05FFB54
:1059C000184802F05CFBD4E90056AE42B4D0284639
:1059D000FFF786F86435F8E73ED30B0058E603205E
:1059E0006CE6032080E60320BC56032078A6032043
:1059F00058D20B00F8E403205CE50320D87E032096
:105A000058560320F455032090550320CCE503207D
:105A10003C7F032048D60B00C0E5032030E603207E
:105A200090E60320A8E60320814210B51346A1EBBF
:105A3000000405D001462246184605F0D0F9034679
:105A4000181910BD2DE9F0410D460446FFF704F882
:105A5000D5E903310026C91AC4E9036666618910D5
:105A600004F10C00FFF71CF8E268D5E90301FFF729
:105A7000DBFF05F11801206104F11800FFF75EF863
:105A8000D5E909372448E662FF1ABB10C4E9096664
:105A90005843FEF739FBC4E909000744E762D5E93A
:105AA00009780646B84507D01EB139463046FFF79B
:105AB00045F80C360C37F5E7A66205F1300104F124
:105AC0003000FEF787FBD5E912371348FF1A002391
:105AD000C4E912332365FB105843FEF74FFBC4E9BA
:105AE000120007442765D5E912780646B84507D065
:105AF0001EB139463046FEF76DFB18361837F5E70C
:105B0000E6646B6D6365AB6DA365EB6DE3652B6E52
:105B100023662046BDE8F081ABAAAAAA2DE9F74F7B
:105B2000A1EB00086949DFF8ACA14FEAA8080546D7
:105B300001FB08F81446B8F1000F40F3C280294673
:105B40002046FEF73DFCA54225D0D5E90391E26849
:105B50006369A1EB09069B1A9E4243D9002E3FD0F0
:105B60005B4B9E4201D904F023F930460191FEF7C8
:105B700092FA019907463A464846FFF755FFE06812
:105B800018B16169091AFEF78CFAE760374467615A
:105B9000E3683344236105F1180104F11800FFF7AD
:105BA00011F8A54242D0D5E9096B626AE16AABEB14
:105BB0000609891A494552D24FEAA9000AFB00F0AA
:105BC000FEF7A2FA07460246B3451FD02AB1104697
:105BD00031460192FEF7B2FF019A0C320C36F3E720
:105BE0003746C8E723699B1A9E4203D84846FFF709
:105BF0001BFFCDE709EB03014846FFF715FFD4E98A
:105C00000302D5E90331101A1844F0E7D4E9090179
:105C1000FEF75BFF606A18B1E16A091AFEF741FA04
:105C200067624F44E762636A4B44A36205F1300147
:105C300004F1300004F018F905F1480104F14800BE
:105C4000FEF710FC6B6D6365AB6DA365EB6DE365F3
:105C50002B6E23666435643408F1FF386BE7A76A5E
:105C6000BF1AB9450CD830465946FEF7E3FFA76A7C
:105C70000646B742D7D03046FEF746FE0C36F8E768
:105C8000BF100AFB07F7002F09DD314610460192CD
:105C9000FEF798FF019A0C360C32013FF3E7D4E986
:105CA0000967B91B6E6AAB6A0E44B342BBD02FB111
:105CB000314638460193FEF741FF019B0C360C3705
:105CC000F3E7204603B0BDE8F08F00BF295C8FC228
:105CD000FCFFFF7FABAAAAAAF0B5A5B003F0B4FE03
:105CE0004FF4165103F0A4FE4FF4FA6001F06AFD80
:105CF00002F0D4F802F01CF902F0D0F85A4A5B4CDA
:105D000001460BA802F0FEFD0BA802F0B8F902F064
:105D1000C5F8574A01460BA802F0F4FD0BA802F0A3
:105D2000AEF903A802F0E1FA0FCC06AD0FC506AD3F
:105D30000FCD26680BAC0FC40BA8266001F0B0FE97
:105D400004460BA8002C49D101F0C6FE0094ADF822
:105D50000A0002230DF10A02032103A802F0BAFA95
:105D600002F09CF8002203A902F02CF9414C0BA888
:105D7000FEF7A0FD03F0B6FF02F050FF3E492046BB
:105D800003F0E7F95023A3633C4B3D49072203206E
:105D9000C3E915023B4B00240425C3E915543A4BD3
:105DA000C1E91554394CC3E915020BA8FFF74AFEA7
:105DB0002268A3689B1A632B2DD86420FEF76BF929
:105DC000054610B10BA9FFF73DFED4E90067B742C5
:105DD0000CD03046FEF784FE6436F8E701F07EFE14
:105DE00000230093024610230721B6E7206818B16C
:105DF000A168091AFEF755F905F16403C4E90053D7
:105E0000A3600BA8FEF76CFEFEF7C8FB039801F039
:105E100091FC25B0F0BD6568AD1A632D10D924A999
:105E20000BA8FFF77BFE6768B8420546E9D0064637
:105E300030466436FEF754FEB742F9D16560E0E7BC
:105E40000BAB1D4429461846FFF768FE666824AB75
:105E50009D4207D01EB129463046FFF7F3FD643559
:105E60006436F4E76660CCE7A8E6032048550320D3
:105E700090E6032030E60320C3D00B00D87E032039
:105E8000F45503205CE50320F8E40320C0E503207B
:105E90000120FEF7D3BF00002DE9F04F2DED048B5C
:105EA000BBB003F0D1FDB549DFF82CB303F079F8AE
:105EB000B34B059300230293DBE900239B1AB14AFD
:105EC0009B105343029A934240F2D88340F2DC5035
:105ED00001F078FCAC49AD4D21A803F00CF9029B10
:105EE00064265E43DBF8003033441DA8196B03F0D1
:105EF00002F91DA921A803F079F9A54903F082F957
:105F00000146A44803F00BF91DA803F0A9F821A845
:105F100003F0A6F8A04BA149A14800932A46A14B43
:105F200000F004FC03F090FD9F4903F03AF89F480D
:105F300000F094FD69680391084604F0B3FF0399EB
:105F400002469A4800F06DFD984801F027F9054691
:105F500048B903F079FD96493BB0BDEC048BBDE830
:105F6000F04F03F01EB8DBF8001021A83144FFF712
:105F700069FD21A908A8FEF76FFD002303938B4953
:105F80000EA800F085FD8B4A0EA911A800F000FFB5
:105F9000894A11A915A800F0FBFE002215A919A82D
:105FA00000F0E4FD854A19A91DA800F0F1FE039A4E
:105FB0001DA90BA800F0DAFD1DA800F0E1FC19A84E
:105FC00000F0DEFC15A800F0DBFC11A800F0D8FC06
:105FD0000EA800F0D5FC7A4A0BA91DA800F0D8FE47
:105FE0001DA911A800F0EEFE1DA800F0C9FC754A1D
:105FF0000BA91DA800F0CCFE1DA915A800F0E2FE1B
:106000001DA800F0BDFC704A0BA919A800F0C0FE45
:1060100019A91DA800F0D6FE1DA803F054F904909C
:106020001DA803F01DF819A800F0AAFC674A0BA9E7
:1060300019A800F0ADFE19A91DA800F0C3FE1D9817
:1060400004F0A4FE51EC100B04F02CFE08EE900AB4
:106050001DA803F005F819A800F092FC5C4A0BA9F2
:1060600019A800F095FE19A91DA800F0ABFE1D9817
:1060700004F08CFE51EC100B04F014FE08EE100A34
:106080001DA802F0EDFF19A800F07AFC139B012B6C
:1060900000F2A88003F0D8FC4E49DFF840A1DFF8F9
:1060A000409102F07EFF15A802F0DAFF11A802F07D
:1060B000D7FF0BA800F064FCDDF81480002603F085
:1060C000C3FC514602F06DFF03F00CFED8F800103F
:1060D00002F0DAFD03F006FE339B054619681DA8A1
:1060E00003F009F81D992846FEF79EF81DA802F056
:1060F000B7FF03F0F7FD339B054699691DA802F031
:10610000FAFF1D992846FEF78FF81DA802F0A8FF98
:1061100003F0E8FD02F0BFFD03F0E4FD58F8041BB6
:1061200002F0B2FD03F090FC32464946FEF728FA31
:106130000C2303FB06F700252A99CA19C95952688E
:10614000521AB5EBA20F80F0808203F0CBFD2A9AA1
:10615000D25912F825103031FEF762F803F074FCC2
:106160002A9AD1590A2251F82510FDF7BAFF2A9A26
:10617000D259002342F825300135DDE7DBD00B0092
:1061800098E60320295C8FC2E6D00B007CE6032052
:1061900029D10B0058E603203AD10B0030E603204A
:1061A000BC560320585303203ED10B003C7F0320F4
:1061B00046D10B0055D10B005BD10B0061D10B0018
:1061C00067D10B0071D10B0078D10B007DD10B0092
:1061D00081D10B0085D10B00C0E5032036D20B0026
:1061E0003ED20B0003F030FC2D99064619A802F0B0
:1061F00082FF19A91DA802F0A1FFCE491DA803F036
:1062000001F80168304602F0B9FE1DA802F028FF2F
:1062100019A802F025FF03F017FC039AC649FEF700
:10622000A1F9DDE908239B1A4FEAE30A0027574545
:10623000089A39DA02EBC706D6ED007A78EEE77AEB
:1062400017EE900A04F006FAD6ED017A78EE677A36
:1062500002460B4617EE900ACDE9062304F0FAF940
:10626000DDE90623804689461046194604F04AFABD
:10627000424641EC190B4B464046494604F042FA6F
:1062800002460B4651EC190B04F086F841EC100B5A
:1062900003F076FF249E51EC100B04F003FD06EB97
:1062A000870601373060C2E7DDE92417B94211D013
:1062B000081D0B46874206460DD0D3ED007A96EDB9
:1062C000007AB4EE677AF1EE10FA00F1040048BFEC
:1062D0003346EFE70B465B1A36999FED989AB1EB80
:1062E000A30F4FEAA30608BF379E02EBC603D3ED08
:1062F000007A93ED017AF4EEE78AF1EE10FA47BFE7
:1063000037EE487A77EEE87A38EE477A78EEE77A31
:10631000F700C7EE276AF5EE406AF1EE10FA4DD1AC
:1063200003F092FB864902F03CFE03F08DFB8549A9
:1063300002F037FE089B002E40F0AF80D3ED027ACA
:10634000379977EEE87AB0EE487AA7EE897A1F445B
:10635000D3ED037AB4EEE77AD7ED007A77EEE87AF8
:10636000B0EE487AA7EE897AD7ED017AF1EE10FA0D
:10637000B4EEE77ACCBF01220022F1EE10FACCBFD6
:106380000120002061BB369E741E03EBC4038242D1
:10639000D3ED007A93ED017A40F0EC8077EEE88A55
:1063A000A8EE898AB4EEC78AF1EE10FACCBF0123B9
:1063B0000023934240F0AB80741CA8E0F4EEC96A5D
:1063C000F1EE10FA07DB03F03FFB5F499FED5F9AA8
:1063D00002F0E7FDA9E7FFEE007A87EEA69AA4E7B0
:1063E000824216BF2F460027012403F02DFB584997
:1063F00002F0D7FD002F00F01B81389FA642A7BFF7
:10640000B246A146A246B146B74202DCA74240F3DB
:10641000B58003F019FB4F4902F0C3FD0027B846D1
:10642000249B03EB890203EB8A0392ED007AD3ED00
:10643000007A77EE277AC7EE278A03F005FB8246BB
:1064400018EE900A04F006F94B46CDE900013A46F1
:1064500050464149DFF804A1FEF792F8279B03EB71
:10646000890393ED008AB8EEC88A28EE288AB945D8
:1064700040F3AB80279B03EB8703D3ED007AF8EE64
:10648000E77A38EE278A03F0DFFA279B514653F864
:106490002720FEF767F80137E9E7A7F108021A4459
:1064A000D2ED007A77EEE87AB0EE487AA7EE897AF4
:1064B0001F44701ED2ED017AB4EEE77AD7ED007A70
:1064C00077EEE87AB0EE487AA7EE897A0AF1FF32E1
:1064D000D7ED017AF1EE10FAB4EEE77ACCBF0121E4
:1064E0000021F1EE10FACCBF01270027B2423BD1C8
:1064F000379AB24234D1369A541E03EBC403B942E0
:10650000D3ED007A93ED017A03D0AAF102042F466D
:106510006BE777EEE88AA8EE898AB4EEC78AF1EED7
:1065200010FACCBF012300238B4200D1541C2F460C
:1065300016465AE714D20B008BD10B00CCCCCC7D85
:1065400096D10B00A8D10B009ED10B0000000000DB
:10655000B4D10B00C0D10B00CDD10B0011D20B0078
:10656000B942D2D1002740E7B9423FF425AF2F46C8
:1065700004463AE72F460E46012436E7DDF8E4806C
:10658000B04501DBA04508DA03F05EFA444947460E
:1065900002F007FD4FF0010842E703F055FA4149C8
:1065A00002F0FFFC40492DA803F084FC30B9049BA5
:1065B000C3F1060304934FF0020831E73B492DA8CD
:1065C00003F078FC0028F2D0F5E739492DA803F054
:1065D00071FC40B9374915A802F029FE002814BF04
:1065E00001230523049303F02FFA334902F0D9FC69
:1065F000B0EE480A03F07EFD0C23BDEEC00A03FB9B
:1066000008F82A9B049A53F8083010EE101A43F841
:10661000212003F019FA074618EE100A04F01AF8C0
:106620002346CDE90001324624493846FDF7A8FF4C
:10663000039B15A80133039302F012FD11A802F089
:106640000FFD0BA800F09CF999E403F04BFB013619
:1066500002F021FB032E7FF432AD03F0F5F902F0D6
:1066600094FC08A8FEF73CF921A8FEF739FA029B32
:1066700001330293059B0C3305931DE403F0E4F909
:1066800002F083FC03F0E0F902F07FFC4FF4FA70B3
:106690003BB0BDEC048BBDE8F04F01F093B800BFF8
:1066A000C7D10B0064D10B00FBCF0B003BD00B001C
:1066B000CED50B0016D20B001DD20B002BD20B0037
:1066C00010B5044603F0F2F8204610BD38B5044674
:1066D000154602F053FC0549204602F04FFC2946BE
:1066E0002046BDE8384002F05CBC00BFDBCE0B00AA
:1066F00038B50546144602F041FC0B49284602F025
:106700003DFC002C0DDA2D21284602F03BFC6142B5
:1067100028460A2202F04FFC2846BDE8384002F025
:1067200034BC2146F4E700BFDBCE0B002DE9F04F6F
:106730000E4691B098464FF0FF3313600446002197
:106740003046DDF86890174602F071FDD6F838E063
:10675000034698B9BEF1000F14BF7246502231684B
:1067600092B2204602F0A2FE051E18BF0125C5B94F
:10677000204611B0BDE8F04F03F04EB8764B0A93B7
:1067800006F1140CBCE80F000BAD0FC5DCF80030AF
:106790002B701FFA8EF200230AA9204602F066FF32
:1067A000E2E74946204602F0E9FB6C49204602F048
:1067B000E5FBB16A204602F0E1FB6949204602F0A0
:1067C000DDFB6849684A2046FFF780FF002130461C
:1067D00002F02DFD20B9326864492046FFF776FFAC
:1067E00006F13C0A0021504602F021FD28B9726CE6
:1067F0005F492046FFF77CFF06E05E49484604F00B
:106800003FFB02460028F3D0B8F1000F0ED0D8F8B5
:10681000001059B1D8F80420204622B1FFF756FFE6
:1068200008F10808F3E702F0BCFBF9E7204602F0A4
:10683000ACFB204602F09AFD0021504602F0F7FC26
:1068400018B9F16B204602F0ACFB04F11C0A4FF4BE
:1068500020520021504604F0DCFA00F097FD019030
:1068600000F094FD4FF00008464641F2883B204678
:1068700002F078FFE8B1204602F05EFD814600F0AC
:1068800085FD42F2FE739E42019004D8A31983F85D
:106890001C900136EBE742F2FF739E42F9D104F5FA
:1068A0000053002283F81B28204602F0B5FFA846BB
:1068B000EFE7A319187700F069FD019BA0EB03092E
:1068C000B8F1000F04D1D94502D8C82000F07AFFF2
:1068D000204602F069FE20B1D94502D8B8F1000F78
:1068E000C5D0204602F098FF514602A802F003FCF2
:1068F0000C23092202A906A802F0BEFC1E490AA820
:1069000002F0F9FB0AA902A802F0B2FC04460AA8A8
:1069100002F0A6FB631C08D106A802F0A1FB02A8A6
:1069200002F09EFB11B0BDE8F08F3D1D13492846D3
:1069300002F00FFC221D02A90AA802F0BDFC0AA960
:10694000284602F042FC0AA802F08AFB069804F0EE
:1069500020FA3860E0E700BFC0D50B0014D20B006E
:1069600004D30B0016D30B0010D30B0021D30B0064
:1069700026D30B0035D30B003AD30B003ED30B00CC
:10698000704710B50C210446FDF78BFB204610BD67
:1069900010B5054B0360037C04461BB9406808B181
:1069A00000F0C8FE204610BD4CD30B0010B50446C5
:1069B000FFF7EEFF20461421FDF773FB204610BDC4
:1069C00010B5074B0360037C04461BB9406908B14E
:1069D00000F0B0FE2046FFF7DBFF204610BD00BFF1
:1069E0005CD30B0010B50446FFF7EAFF20462C21CC
:1069F000FDF757FB204610BD38B5037C04460D4615
:106A00000BB1002038BD406838B100F09BFE002873
:106A1000F7D0C4E901050120F4E7084600F082FE42
:106A2000F5E770B5C3680E461546D11842680446AE
:106A300072B182688A420BD36068E3682A463146A5
:106A4000184404F0BEF9E2682A44E260012070BDF7
:106A50002046FFF7D1FF0028EED1F8E74368002178
:106A6000C16023B1826812B1184604F0D2B97047F0
:106A700010B5C0E901120022C26001220274436114
:106A8000024A029B0260C36110BD00BF5CD30B00D1
:106A9000D1E905239A42044B38BF8260C0E9003136
:106AA00024BF0023836070476CD30B0070B513685C
:106AB0009D68136803F1100414608669B4420AD219
:106AC0009B698C68A34201DAAB42F2DDA342CCBFE2
:106AD0000020012000E0002070BD2DE9F341089D59
:106AE000984601F1100304461746019300260198C9
:106AF000A36983421AD982688B689A4216DAAE4239
:106B00000BD1386001AA2046FFF7D0FF28B1019BC6
:106B1000C8F8003002B0BDE8F08101AA2046FFF7B6
:106B2000C5FF20460136FFF7C1FFE0E70020F1E78F
:106B3000F7B51F4601F110030446164601930025E0
:106B4000019BA2699A420FD998688A6890420BDA31
:106B5000B54203D13B60012003B0F0BD01AA20463D
:106B60000135FFF7A3FFEBE70020F5E773B50D460E
:106B700089680A4E044661B1686801ABFFF7D8FF27
:106B800038B16B68C4E90063019BA360204602B082
:106B900070BD6B68C4E900630023F6E76CD30B009B
:106BA00010B5044600680B4628B102F012FBE368FA
:106BB0000133E36010BD60680028F8D0D4E90221F9
:106BC000013A8A4288BF4354F1E703467F2B37B529
:106BD0000846D9B204D803B0BDE83040FFF7E0BFA3
:106BE00001F03F01B3F5006FC3F3871541F0800456
:106BF00007D245F0C0010190FFF7D2FF019821466E
:106C0000E9E71B0B43F0E0010190FFF7C9FF05F036
:106C10003F01019841F08001EEE700002DE9FF47B8
:106C200000244E68DFF8CCA080460F461546A146EA
:106C3000B868B0425ADDD8F80430995D9A19002C32
:106C40004BD0752905D86D2907D862291ED0662931
:106C50001ED02846FFF7A4FF3DE0A1F16E04072CEB
:106C6000F7D80FF2080C5CF824F000BF956C0B000D
:106C7000536C0B00536C0B00536C0B00996C0B00A6
:106C8000536C0B009D6C0B00A16C0B000821E0E71E
:106C90000C21DEE70A21DCE70D21DAE70921D8E73C
:106CA000311D884217DD02A904333344084612F827
:106CB000014F01F8014B9A42F9D101AA51468DF8D2
:106CC0000C9000F047FD012805D1BDF804002946CD
:106CD000FFF77BFF0536002404E05C2904D028463A
:106CE000FFF75EFF0136A3E70124FBE7012004B0B4
:106CF000BDE8F0873FD30B007FB50C4606460C4934
:106D00001046154602F025FAD4E90131C91A0131BD
:106D1000284602F0C3F900236A4621463046CDE9F1
:106D2000013300950393FFF779FF04B070BD00BFF6
:106D30003ED30B002DE9F04389B00546884604A8F0
:106D400012491646994602F0D6F9002700974B469D
:106D500003AA41462846FFF7C0FE044670B10399D6
:106D600004AA2846FFF7C8FF044608B90137EDE733
:106D7000314604A802F05BFA0028F7D004A802F01C
:106D80006FF9204609B0BDE8F08300BF3ED30B0089
:106D900073B50D4689680A4E044661B1686801AB57
:106DA000FFF7C8FF38B16B68C4E90063019BA360BB
:106DB000204602B070BD6B68C4E900630023F6E7AB
:106DC0006CD30B0038B50D460549044602F093F923
:106DD000A96819B168682246FFF78EFF204638BDC2
:106DE0003ED30B002DE9F04F44684FF0010C4FF0FB
:106DF000FF36D0F800E0964580F0B98111F80E809A
:106E0000B8F1000F00F0B381B8F13A0F00F09880AC
:106E100033D8B8F1220F00F0A68010D8A8F10908E5
:106E20005FFA88F8B8F1170F0DD89F4D0CFA08F8E3
:106E300018EA050F07D0056801350560D9E7B8F1F4
:106E40002C0F00F03381D0F8008042450ED911F8A4
:106E500008505DB13A2D00F269811F2D00F2518179
:106E60000A2D00F26081082D40F25681002B40F07F
:106E7000628108F1FF350560A5E0B8F17B0F37D0DE
:106E80002ED8B8F15B0F33D0B8F15D0FDBD1002BFA
:106E9000D1D04FF002094568013D03EB0518002DE4
:106EA00055DBD8F8047001374DD0D8F808A0BAF1F6
:106EB000FF3F48D198F800B0CB454BD10EF1010E01
:106EC000C0F808A0C8F808E003EB051EDEF804705F
:106ED000013742D0DEF8087001373ED18560AAE75D
:106EE000B8F17D0FAFD1002BA5D04FF00109D2E74B
:106EF0000134002B9FD04568099FAF424AD905F164
:106F0000010EC0F804E003EB051ECEE901664FEA6E
:106F1000051A0025CEF80C5085686F1C1FBF03EBC7
:106F20000519D9F80C500135C9F80C50B8F17B0F90
:106F30000CBF0125022503F80A500568CEF804505D
:106F40004568013DCAE7013DA8F11008A7E70135F2
:106F50007FF471AF6FF001041EE0013D6F1CAEF1D4
:106F6000100EB3D167E70EF10109C0F80090D0F818
:106F70000080424540F2938011F80850002D00F047
:106F80008E80222D30D1F3B14568099FAF4206D8DB
:106F9000C0F800E04FF0FF342046BDE8F08F05F167
:106FA000010E4FEA051803EB0515C0F804E0C5E92A
:106FB00001660027EF60D0F800E04FF0030A03F805
:106FC00008A0C5E9019E85686F1C04F101043FF427
:106FD00032AF002B3FF42FAF03EB051EDEF80C5051
:106FE0000135CEF80C5026E75C2D11D108F10105D2
:106FF000AA420DD905604D5D752D2BD86D2D0BD88E
:10700000662D27D85B2D1DD8222D01D02F2D21D103
:10701000056801350560AAE76E3D072D1AD801A75E
:1070200057F825F011700B0055700B0055700B00D0
:1070300055700B0011700B0055700B0011700B0098
:107040005B700B005C3DEDB20CFA05F540F2414778
:107050003D42DDD1C0F800E07CE708F102050560A3
:107060004FF0040AD0F80080424503D80568013D7E
:107070000560CDE711F80850002DF7D0A5F1300BD1
:10708000BBF1090F04D925F02005413D052DE1D8BC
:1070900008F10105BAF1010A0560E3D1E6E7C0F89D
:1070A00000E06FF0020477E713008000002B3FF44C
:1070B000C2AE85686F1C3FF4BEAE2D015D5D013D23
:1070C000012D7FF6B8AE456805F1FF3803EB051ECC
:1070D000B8F1000FFFF6AFAE1EF8105C013D012DB8
:1070E0000AD85EF80C5C013506D05EF8085C013504
:1070F00002D1C0F808809EE608F1FF38AEF1100E0C
:10710000E6E7A5F12009244F5FFA89F90CFA09F99D
:1071100019EA070F7FF4AAAE203D5E2D9AD808F138
:10712000010505608FE60D2DF6D19FE605F0DF091C
:10713000B9F15D0FF8E74568099FAF427FF628AFC8
:1071400005F101084FEA051903EB0515C0F80480A5
:10715000C5E901660027EF60D0F800804FF0040A0F
:1071600003F809A0C5E901E80568013D83E6002BA5
:107170003FF412AF4268511E03EB02130029FFF6E1
:107180000BAF53F80C2C013203D053F8082C01320A
:1071900087D00139103BF1E701100004F7B5C26850
:1071A000044612B9002003B0F0BD436900F1200687
:1071B000ABB10021C0E908114FF0FF318162C16914
:1071C000009141683046FFF70DFE431C28D1257C15
:1071D000002DE7D1606900F0ADFA6561E561002539
:1071E0004FF0FF37C4E90855E2686168A76200956F
:1071F0002B463046FFF7F6FD0028D3DBE06117D0C1
:10720000000100F08FFAE269606103460092C4E970
:107210000855E2686168A7623046FFF7E3FD01E0C8
:107220000028BFDB636903EB0010A0610120BAE70F
:107230006369A361FAE7000008B500F0AFF8014BFD
:10724000186008BDB4E6032008B5024B1B689B68B4
:10725000019308BD7802030008B5024B1B681B6D43
:10726000019308BD7802030008B5024B1B689B6DB3
:10727000019308BD7802030008B5024B1B681B6E22
:10728000019308BD7802030008B5034B1B68D3F8CF
:107290009830019308BD00007802030008B5034B45
:1072A0001B68D3F8A830019308BD000078020300E2
:1072B00008B5034B1B68D3F8B430019308BD000038
:1072C0007802030008B5034B1B68D3F8D83001934C
:1072D00008BD00007802030008B5034B1B68D3F813
:1072E000DC30019308BD00007802030008B5034BB1
:1072F0001B68D3F8EC30019308BD0000780203004E
:1073000008B5034B1B68D3F8F030019308BD0000AB
:107310007802030008B5034B1B68D3F800310193D2
:1073200008BD00007802030008B5034B1B68D3F8C2
:107330000431019308BD00007802030008B5024B38
:107340001B685B6C019308BD4802030008B5024B43
:107350001B68DB6C019308BD4802030008B5024BB3
:107360001B685B6D019308BD4802030008B5024B22
:107370001B685B68019308BD1802030008B5024B47
:107380001B68DB68019308BD1802030008B5024BB7
:107390001B685B69019308BD1802030008B5024B26
:1073A0001B681B68019308BD2C02030008B5024B43
:1073B0001B68DB68019308BD2802030008B5024B77
:1073C0001B689B69019308BD2802030008B5024BA6
:1073D0001B68DB69019308BD2802030008B5024B56
:1073E0001B681B6A019308BD2802030008B5024B05
:1073F0001B685B6A019308BD2802030008B5024BB5
:107400001B689B6A019308BD2802030008B5024B64
:107410001B68DB6A019308BD2802030008B5024B14
:107420001B681B6B019308BD2802030008B5024BC3
:107430001B681B6C019308BD2802030008B5024BB2
:107440001B681B6D019308BD2802030008B5024BA1
:107450001B685B69019308BD6C02030008B5024B11
:107460001B685B69019308BD6402030008B5024B09
:107470001B681B6A019308BD6402030008B5024B38
:107480001B689B6A019308BD6402030008B5024BA8
:107490001B689B68019308BD6802030008B5024B96
:1074A0001B68DB68019308BD6802030008B5024B46
:1074B0001B689B69019308BD3802030008B5024BA5
:1074C0001B68DB69019308BD3802030008B5024B55
:1074D0001B681B6A019308BD3802030008B5024B04
:1074E0001B689B6A019308BD3802030008B5024B74
:1074F0001B681B6B019308BD3802030008B5024BE3
:107500001B689B6B019308BD3802030008B5024B52
:107510001B68DB68019308BD3C02030008B5024B01
:107520001B681B69019308BD3C02030008B5024BB0
:107530001B685B69019308BD3C02030008B5024B60
:107540001B689B69019308BD3C02030008B5024B10
:107550001B68DB69019308BD3C02030008B5024BC0
:107560001B689B6A019308BD3C02030008B5024BEF
:107570001B681B6C019308BD3C02030008B5024B5D
:107580001B681B68019308BD4C02030008B5024B41
:107590001B685B68019308BD4C02030008B5024BF1
:1075A0001B681B69019308BD4C02030008B5024B20
:1075B0001B685B69019308BD4C02030008B5024BD0
:1075C0001B689B69019308BD4C02030008B5024B80
:1075D0001B68DB69019308BD4C02030008B5024B30
:1075E0001B681B6A019308BD4C02030008B5024BDF
:1075F0001B685B6B019308BD6002030008B5024B7A
:107600001B681B6D019308BD6002030008B5024BA7
:107610001B685B68019308BD2002030008B5024B9C
:107620001B685B69019308BD2002030008B5034B8A
:107630001B68D3F88830019308BD000020020300C6
:1076400008B5034B1B68D3F89430019308BD0000C4
:107650002002030008B5024B1B68DB6B019308BDD9
:107660004402030008B5024B1B685B68019308BD28
:107670004002030008B5024B1B689B68019308BDDC
:107680004002030008B5024B1B68DB68019308BD8C
:107690004002030008B5024B1B681B69019308BD3B
:1076A0004002030008B5024B1B685B69019308BDEB
:1076B0004002030008B5024B1B689B69019308BD9B
:1076C0004002030008B5024B1B68DB69019308BD4B
:1076D0004002030008B5024B1B681B6A019308BDFA
:1076E0004002030008B5024B1B681B6B019308BDE9
:1076F0004002030008B5024B1B685B6B019308BD99
:107700004002030008B5024B1B681B6C019308BDC7
:107710004002030008B5024B1B685B6C019308BD77
:107720004002030008B5024B1B681B68019308BDAB
:107730001C02030008B5024B1B685B68019308BD7F
:107740001C02030008B5024B1B689B68019308BD2F
:107750001C02030008B5024B1B685B69019308BD5E
:107760001C02030008B5024B1B685B6A019308BD4D
:107770001C02030008B5024B1B68DB6A019308BDBD
:107780001C02030008B5024B1B681B6B019308BD6C
:107790001C02030008B5024B1B68DB6B019308BD9C
:1077A0001C02030008B5024B1B681B6C019308BD4B
:1077B0001C02030008B5024B1B685B6C019308BDFB
:1077C0001C0203000021FFF729BF70477047704774
:1077D00070470000064B994210B500F10C0405D02B
:1077E000084602F0F1FA002808BF0024204610BD28
:1077F00014D50B00064B994210B500F10C0405D0CE
:10780000084602F0E1FA002808BF0024204610BD17
:1078100014D50B00064B994210B500F10C0405D0AD
:10782000084602F0D1FA002808BF0024204610BD07
:1078300014D50B0010B568210446FCF732FC204635
:1078400010BD10B528210446FCF72BFC204610BDC6
:1078500010B530210446FCF724FC204610BD6821F9
:10786000FCF71FBC2821FCF71CBC3021FCF719BC1D
:10787000F0B50025EC1C8C420DD86E1C445D875D74
:10788000974205D12644B14205D31D60601CF0BD6E
:1078900001342544EEE70020F9E70000024A0349DD
:1078A0000A20FFF7A3BE00BF7D730B0074D30B004B
:1078B00030B40D4611461A46036809682868D3E9B2
:1078C0000043A44630BC6047012A38B5044602D1C3
:1078D0000B68236003E0022A03D0032A0DD00020A6
:1078E00038BD08200D68FCF7D6FB03460028F0D011
:1078F00095E8030083E80300EBE700680028EED07A
:107900000821FCF7CEFBEAE710B58368044613B103
:10791000032201469847204610BD10B50446583052
:10792000FFF7F2FF04F14800BDE8104001F098BBFA
:1079300010B54368013B0446436063B903689B6824
:107940009847A368013BA3602BB923682046DB68F6
:10795000BDE81040184710BDA0F13003DAB2092A83
:1079600001D818467047A0F16103052B01D857389C
:107970007047A0F14103052B94BF37384FF0FF301B
:107980007047000010B500230370044B04461868CC
:10799000FFF7DCFC01232370204610BDC0E6032066
:1079A00010B5037804461BB1024B1868FFF7D6FCEC
:1079B000204610BDC0E6032082B00346086849682F
:1079C0006A4603C26A4603CA18601846596002B084
:1079D000704708B582798B799A4206D1062203F066
:1079E000E0F9B0FA80F0400908BD0020FCE74FF054
:1079F000FF33036083800020704708B502460021F2
:107A000001604160FFF7F3FF9171104608BD00006F
:107A100010B501230361054B024603F1100153F831
:107A2000044B42F8044B8B42F9D110BD22D50B0018
:107A300010B50B460446B1B1012A01F110020AD17A
:107A4000014653F8040B41F8040B9342F9D101238A
:107A50002361204610BD411E12F8010D01F8010FEF
:107A60009A42F9D1F3E7102203F0D3F9F1E738B5E0
:107A7000044615461A46FFF7DBFFA581204638BDB0
:107A800008B5026922B98089003818BF012008BDF5
:107A90000249102203F085F9F6E700BF42D50B003A
:107AA0000069704738B50C4614220021054603F0E2
:107AB000B0F923691BB9A3892B80284638BD01235F
:107AC0002B7421462B4604F1100251F8040B43F8A5
:107AD000040B9142F9D1F0E780897047704708B5EF
:107AE00002690B699A4206D1102203F05AF9B0FAE2
:107AF00080F0400908BD0020FCE7000001232DE9CB
:107B0000F3410361344B0C460646024603F1100173
:107B100053F8040B42F8040B8B42F9D144B32421EF
:107B2000204603F0DBF904284FF0000523D1ADF81F
:107B3000045001AFA51C063415F8020CFFF70CFF2A
:107B4000B0F1000812DB15F8010CFFF705FF002863
:107B50000CDB023540EA0810A54207F8010BEBD117
:107B60009DF8053033739DF804307373002333613F
:107B700002B0BDE8F0814FF010082421204603F048
:107B8000ADF9A84207D842460021304602B0BDE810
:107B9000F04103F03EB9B8F1000FE9D0605DFFF7A6
:107BA000DBFE030615D4000108F1FF38C7B206F862
:107BB00008702421204603F091F90135A84208D924
:107BC000605DFFF7C9FE40B20028A4BF384306F845
:107BD00008000135D1E700BF22D50B0013B50446DC
:107BE0000191FFF715FF20460199FFF787FF204617
:107BF00002B010BD38B54FF6FF7300250446438030
:107C00000E22294605700571063003F002F904F1D1
:107C10001400FFF7FDFE04F12800FFF7F9FE044908
:107C200004F13C0001F067FA6565204638BD00BFED
:107C30003ED30B0010B5D0E9063203EBC2029342EB
:107C4000184606D0046824888C4203F10803F6D154
:107C500010BD0020FCE70000F0B5064685B01F46C9
:107C60000D46002950D0002A4ED004682378F42A0B
:107C700028BFF42243B32379980709D5A08903923A
:107C80000023FFF715FB0028039A03DA05B0F0BDC7
:107C90006FF0770034682379D90609D5012F07D012
:107CA000A0890023294605B0BDE8F040FFF732BBAC
:107CB0009B06EBD5022FE9D0A0890023294605B009
:107CC000BDE8F040FFF730BB60884FF6FF71884297
:107CD0001CD021794E0701D5012F04D10B0709D4FF
:107CE0006FF07700D2E7A189009313462A46FFF789
:107CF000F3FACBE7022FF3D00023A18900931346B8
:107D00002A46FFF7DFFAC1E70248BFE76FF0D1006C
:107D1000BCE700BFF2FEFFFF37B50C460546F42175
:107D20002046019203F0DAF8019B024621462846DC
:107D300003B0BDE83040FFF78FBF00002DE9F041F0
:107D400000260660074628200C46FCF7A4F9051E0D
:107D500005F10C080FD00123C5E90133084B2B6056
:107D60004046FFF755FE0FCC2E6285F8246046464C
:107D70000FC623683360C7E900853846BDE8F08147
:107D8000E4D40B0070B50025056006463020FCF7F2
:107D900082F9044688B10123C0E90133094B03602D
:107DA0004FF6FF7383810E30FFF727FEC4E90655B7
:107DB000C4E90855C4E90A55A57574600C343460EB
:107DC000304670BD00D50B0037B50D46044601A8FE
:107DD000FFF7D8FD2A68D2F802302360D2F80630C7
:107DE000636001A8FFF7DCFD204603B030BD30B56D
:107DF000054687B00C4601A8FFF7C4FD2A68236832
:107E000012881B889A420DD1294602A8FFF7DCFF91
:107E1000214604A8FFF7D8FF04A902A8FFF7D9FD5F
:107E2000044600B9002401A8FFF7BAFD204607B0B8
:107E300030BD000010B504466420FCF72CF968B191
:107E40000023C0E90033C0E90233C0E90433C0E9CC
:107E500006330362C362C363C364C365206020B991
:107E60000A4A0B490A20FFF7C1FB0020FFF7ECF993
:107E700020B1064A07490A20FFF7B8FB21680648E7
:107E80000022FFF73DFA204610BD00BF7D730B00B6
:107E900074D30B00B2D30B001D840B0010B50A4C39
:107EA0002378BFF35B8FDB070CD42046FCF7FBF88D
:107EB00040B10648FFF7BEFF2046FCF7F9F804483A
:107EC00002F05EFF014810BDB8E60320C4E60320BF
:107ED000E9800B0030B50368093B012B8DB00446E7
:107EE0000D4611D8FFF7DAFFA1880068FFF7A2FE60
:107EF000034658B92022CDE904200B4A00920B49D1
:107F000004AA3220FFF77AFB0DB030BD6A6D002A5B
:107F1000FAD0D4E9032105F14C00CDE90312AC6D90
:107F200004AA03A9A047EFE7F4D30B008BD30B00FF
:107F300008B50020FFF788F900EAE07008BD19B91C
:107F40000A460846FFF788B9D1E900010022F9E79F
:107F500038B5141E4368054602DB62189A4200DDFC
:107F60005C1A2A68501801191A44521A02F037FF95
:107F70006A68121B6A6038BD37B50A4604460D466A
:107F800001ABD0E90001FFF773FC024638B101995B
:107F90002046FFF7DDFF29462046FFF7EDFF03B03F
:107FA00030BD10B50C4629B90A460846BDE8104058
:107FB000FFF75AB901212046FFF7DEFFD4E900019F
:107FC0000022F3E738B504461546FFF7B8FF00284E
:107FD0000ADB29462046FFF7E4FF002804DBBDE862
:107FE00038400020FFF748B938BD000038B50023FD
:107FF0000446836008200D46FCF74DF818B12B6845
:1080000003606B684360034BE360034B2060A36035
:10801000204638BDB1780B00C9780B000B680360AF
:1080200013B15A6801325A60704710B551F8043BD9
:10803000044640F8043BFFF7F1FF23680BB9FFF754
:108040002DFC204610BD10B551F8043B044640F805
:10805000043BFFF7E3FF204610BD10B551F8043B89
:10806000044640F8043BFFF7D9FF204610BD10B589
:108070000446006808B1FFF75BFC204610BD10B550
:1080800004460430FFF7F3FF204610BD70B5D0E979
:108090000053044605EBC306AE4204D0281DFFF78B
:1080A000E6FF0835F8E72068FFF744FB204670BD7F
:1080B00070B5D0E90053044605EBC306AE4204D0C8
:1080C000281DFFF7D4FF0835F8E72068FFF732FBDB
:1080D000204670BD10B504462430FFF7E9FF04F1D7
:1080E0001800FFF7D3FF10BD70B5174B1C6854B3D1
:1080F00004F15400FFF708FC04F14400FFF704FC0E
:1081000004F13400FFF700FC04F12400FFF7FCFB4E
:10811000D4E9065305EBC306AE4204D0281DFFF791
:10812000A6FF0835F8E7A069FFF704FB04F10C008F
:10813000FFF7BEFF2046FFF7A9FF20466421BDE8F8
:108140007040FBF7AEBF70BDC4E6032013B500233B
:10815000D1E90042C1E90033036800930460436839
:10816000426001A80193FFF782FF02B010BD826850
:1081700010B50AB901F025FEBDE81040C3681847E4
:1081800038B50D1E0446006803DDFFF7DBFA18B9A9
:1081900038BDFFF7CFFA00202060A5600120F7E787
:1081A00008B583688B4202DAFFF7EAFF08BD0120B9
:1081B000FCE72DE9F0410F4641681D4619448368EC
:1081C00099420446904612DC266862683E44D21BFF
:1081D0003146701902F003FE2A464146304602F04D
:1081E000F0FD63682B4463600120BDE8F081FFF778
:1081F000C7FF0028E8D1F8E7F8B50D46D0E901132C
:108200009942044616460BDA276862687919521BB0
:10821000481C02F0E4FD7E55636801336360F8BDDD
:108220000131FFF7ADFF0028EED1F8E70A464168BB
:10823000FFF7E2BF2DE9F74304461D460F4601ABA9
:1082400090460A46D0E900019DF82890FFF710FB00
:10825000AE1C63680246B9F1000F26D128B333443F
:108260001B1AFF2B09D801992046FFF771FE6168A0
:1082700020463144FFF794FF18B9606803B0BDE8A9
:10828000F0836A1C0199D2B22046FFF7B5FF01992D
:108290003A4601312046FFF7AFFF01992B4642468F
:1082A00002312046FFF785FFE7E7F118FF29E4D800
:1082B0002046FFF775FF0028DFD0691CC9B22046B1
:1082C000FFF7B4FF39462046FFF7B0FF61682B4641
:1082D0004246E6E730B49DF808501AB1029530BC2A
:1082E000FFF7A8BF406830BC70471FB50023C0E946
:1082F000003383600622009301238DF80F20194676
:108300000DF10F020446FFF7E5FF204604B010BD53
:108310008842F8B504460D46164614D9904213D249
:10832000A2F10806751AA1F108072C44B74218D02B
:108330001CB131462046FFF790FE301DFFF797FE37
:10834000083E083CF2E70CD0B5420AD01CB12946E1
:108350002046FFF782FE281DFFF789FE0835083406
:10836000F2E7F8BDF7B5044646686846FFF775FEC4
:10837000D4E901739F4212DB0137002F29DDF80099
:10838000FFF7D0F90546F0B1D4E9001201EBC202C3
:10839000FFF7BEFF2068FFF7CDF92560A7602368CF
:1083A000626803EBC60603EBC202314606F1080021
:1083B000FFF7AEFF1EB169463046FFF74EFE636819
:1083C00001336360012501A8FFF751FE284603B081
:1083D000F0BD0025DEE7F8B5D0E9004305460F46BD
:1083E00004EBC306A64205D039462046FFF7FFFC42
:1083F00008B114B9F8BD0834F4E7201DFFF737FEC3
:10840000D5E9003204F1080103EBC2022046FFF770
:108410007FFF6B68013B6B60ECE700002DE9F041EA
:1084200005468EB003A80C46FFF7ACFA2E68F31E83
:108430000D2B3CD8DFE813F00E0053003B00D100B9
:108440003B003B003B003B003B009B009B009B0034
:108450009B009B0004A8FFF795FC049BAA891A8047
:108460006968049808310230FFF7A6FA04A906A843
:10847000FFF7F3FD06A904F11800FFF773FF0546A7
:1084800007A8FFF7F4FD20230693B5B95D4B5E49BD
:10849000009332202B4606AA0795FFF7AFF8049BFE
:1084A00029461888FEF7F0FE05A8FFF7E0FD03A8AF
:1084B000FFF776FA0EB0BDE8F081544A009200232F
:1084C0005149079306AA0120FFF798F8E36A002BA9
:1084D000EAD004A904F12400FFF749FEE4E7A989E2
:1084E0002046FFF7A7FB06460028E0D00568D5E93F
:1084F00006324FF6FF71298003EBC2029A4203D085
:1085000053F8080B4180F9E7D5E9037307EBC3087B
:10851000B84504D0381DFFF7AAFD0837F8E7002357
:108520002B61D5E9067307EBC308B84504D0381DA5
:10853000FFF79DFD0837F8E70023EB61AB72E36BB3
:1085400023B1314604F13400FFF711FE002320224D
:10855000CDE906232E4A00922B4906AA0120FFF7F7
:108560004DF8314604F11800FFF735FF9FE7A98960
:108570002046FFF75FFB002899D0E36C002B96D0D4
:1085800000230D2EADF8163001D0102E17D1002388
:1085900069681A4606258DF8153004918DF8142067
:1085A0000690DDE9040109AB8DF81C60089583E8AD
:1085B0000300236D06A904F14400984777E70F2EC6
:1085C00001BF2B7A696803F0010208250FBFC3F3CE
:1085D00040031A4619461D46DDE7A9892046FFF7E4
:1085E00029FB014600283FF462AFE36D002B3FF406
:1085F0005EAF6B68069306AA236E04F15400984799
:1086000055E700BF0CD40B008BD30B0032D40B000A
:108610004FD40B0013B50B460246D0E900016C465F
:1086200084E8030093E8030082E8030094E8030071
:1086300083E8030002B010BD38B505460C46FFF7CD
:10864000E9FFAB68A268AA60A360EB68E268EA6031
:10865000E36038BD70B504468CB00E4601921D46ED
:10866000FFF7C8FA2671019904F13C0000F071FD92
:1086700004F14C06CDB1109B029502A904A8039306
:10868000FFF7B4FC002308A904A80A93FFF7D4FF5E
:10869000314608A8FFF7D0FF08A8FFF735F904A86E
:1086A000FFF732F920460CB070BD0695EAE70000EE
:1086B0002DE9F04F87B01D46DDE9104380468B461B
:1086C0009246129903930022682002910492FBF7CC
:1086D000E2FC061E06F10C0918D001223746C6E955
:1086E00001220299154A47F8202B039B00915A4614
:1086F00051464846FFF7AEFF0FCD0FC72B683B60D2
:108700000FCC06F134050FC523682B6004A9404641
:10871000CDE90496FFF71AFD05A8FFF7A8FCD8F8E5
:1087200000303BB9064A07490A2007B0BDE8F04FC0
:10873000FEF75CBF07B0BDE8F08F00BFC8D40B00E8
:108740007D730B0074D30B008842F8B504460D46C8
:10875000164614D9904213D2A2F10806751AA1F157
:1087600008072C44B74218D01CB131462046FFF709
:108770006AFC301DFFF77BFC083E083CF2E70CD09A
:10878000B5420AD01CB129462046FFF75CFC281DE3
:10879000FFF76DFC08350834F2E7F8BD70B50E1E22
:1087A000054611DDF000FEF7BDFF044658B1D5E9DE
:1087B000001201EBC202FFF7C7FF2868FEF7BAFFFD
:1087C0002C60AE60012070BD0024F6E773B504464E
:1087D00045686846FFF737FCD4E90113994210DA7F
:1087E0002368626803EBC50503EBC202294605F165
:1087F0000800FFF7A9FF8DB96368013363600126A4
:1088000006E001312046FFF7C9FF06460028E7D100
:1088100001A8FFF72CFC304602B070BD694628461F
:10882000FFF711FCE8E78842F8B504460D46164606
:1088300014D9904213D2A2F10806751AA1F10807C3
:108840002C44B74218D01CB131462046FFF7EDFB4F
:10885000301DFFF70CFC083E083CF2E70CD0B54297
:108860000AD01CB129462046FFF7DFFB281DFFF781
:10887000FEFB08350834F2E7F8BD70B50E1E05465C
:1088800011DDF000FEF74EFF044658B1D5E90012A5
:1088900001EBC202FFF7C7FF2868FEF74BFF2C6011
:1088A000AE60012070BD0024F6E773B5044645684C
:1088B0006846FFF7BAFBD4E90113994210DA23683E
:1088C000626803EBC50503EBC202294605F1080007
:1088D000FFF7A9FF8DB9636801336360012606E0E5
:1088E00001312046FFF7C9FF06460028E7D101A85D
:1088F000FFF7BDFB304602B070BD69462846FFF762
:1089000094FBE8E72DE9F04F1746A1B080460AA88E
:108910000E46FFF737F83C68237953B9394640468D
:10892000FFF783FB0AA8FFF73BF8404621B0BDE8FC
:10893000F08F3368D3E9035305EBC303039304F1CA
:10894000280A04F1140B039B9D4221D0D5F8009016
:10895000584609F11401FFF7C2F8B8B109F128012E
:108960005046FFF7BCF888B12368D9F8002053407F
:1089700033F47F430AD12022CDE915235E4A0092C9
:1089800015AA5E493220FEF739FEC7E70835DAE757
:108990005046FFF775F860B95949012215A815AD81
:1089A000FFF746F80FCDD446ACE80F002B68CCF8A3
:1089B00000303368D3E9005305EBC30B5D45A9468E
:1089C00051466ED055F8080BFFF789F80028F5D00E
:1089D00004F1140A5046FFF753F888B9494B484947
:1089E0001A88013292B21A8015A8012315ADFFF73B
:1089F0003EF80FCDD446ACE80F002B68CCF8003021
:108A0000414B15932822002116A802F002FA514684
:108A100004A8FFF747F804AB18AA0DF1200C18685A
:108A20005968154603C5083363452A46F7D11868C7
:108A3000286023798DF85830D9F800309B8AADF83A
:108A40007430E36B1793314B0022A11D15A8CDE9BB
:108A50001E34FEF74BFC00287FF460AF0123237027
:108A6000346839460C340DA8FFF7DFFA20460DA90B
:108A7000FFF71BFF04460EA8FFF7F9FA002C7FF45E
:108A80004DAF2023CDE90D34214B00930DAA234691
:108A900077E739464046FFF7C8FA0CA8FFF7E7FA30
:108AA00040E70BA8FFF74AF9514615A8FEF7FAFF71
:108AB0000B9A0023143215A90120FEF7EFFB0028C2
:108AC000E7D135680BA90DA8FFF7BDFA28460DA917
:108AD000FFF77CFE05460EA8FFF7C9FA002DD8D097
:108AE00032685368126803F10053013B0CA802EB93
:108AF000C309FFF7BCFA6BE76ED40B008BD30B00F6
:108B000032D50B00BCE6032003002C00D57E0B0001
:108B100099D40B00024800230360FEF70FBC00BF8E
:108B2000C0E60320002240681146FEF7D3BD0022B4
:108B300040681146FEF7DEBD40680022FEF7D2BD58
:108B40004068002281F00101FEF7BCBD00234068AF
:108B50001A461946FEF7AEBD002340681A4619466C
:108B6000FEF7A0BD002240681146FEF793BD00222B
:108B700040681146FEF77EBD406800220221FEF7E4
:108B800081BD002340681A46FEF76CBD024B0322EC
:108B90005A60024A1A607047C8E603205CD50B0091
:108BA0007047F8B5064615460C468F18BC4206D0ED
:108BB000336814F8011B9B6830469847F6E728464F
:108BC000F8BD007C0022FEF709BC007C0021FEF706
:108BD0000DBC007C0021FEF711BC007C0021FEF7DB
:108BE00015BC007C0021FEF719BC10B51421044609
:108BF000FBF757FA204610BD10B54FF47A730446C0
:108C000008460021C4E90113034B23602074114678
:108C1000FEF70CFC204610BD98D50B000023007C0D
:108C20001A461946FEF7C2BB7FB500221423CDE9D0
:108C30000122ADF804300B788DF808304B680393AF
:108C4000CB680493007C0B7A059301A9FEF7F6FB31
:108C500007B05DF804FB1FB5003B8DF800104FF026
:108C60006401039118BF0123694601928DF8083011
:108C7000FFF7DAFF05B05DF804FB0123FFF7EBBF58
:108C8000007C0022FEF79ABBC9B2FFF7F9BF007C57
:108C90000022FEF79BBB0121FFF7F9BF704710B51B
:108CA00018210446FBF7FDF9204610BDF0B5037D01
:108CB000062B8DB00E4600F104074FF0000412D0D1
:108CC00000F1080515F8011D0A22304600F073F97D
:108CD000AF42044419D0002CF4D02E21304600F0CD
:108CE00051F90444EEE72F236A4639460A208DF8ED
:108CF0000040FEF7B3FB684602F0D4F83368024642
:108D0000DB68694630469847044620460DB0F0BD02
:108D100010B5054B0446112240F8043B002102F037
:108D200078F8204610BD00BFC0D50B000346074AA7
:108D300010B543F8042B01F1100251F8044B43F82D
:108D4000044B9142F9D10A781A7010BDC0D50B00BE
:108D5000037D042B04D14068003818BF0120704700
:108D6000062B07D143683BB983682BB9C3681BB98D
:108D70000069F1E7002070470120704710B59DF8A9
:108D8000084044EA032343EA024242EA0161042321
:108D90004160037510BD000007B5064B0360CB783A
:108DA00000938B784A780978FFF7E8FF03B05DF805
:108DB00004FB00BFC0D50B00014B024A1A6070478C
:108DC000D0E60320CCD50B00002340681A46FEF7FE
:108DD00049BC406800220221FEF754BC00224068D2
:108DE0001146FEF747BC002240681146FEF752BC10
:108DF000002340681A461946FEF754BC0023406819
:108E00001A461946FEF756BC40680021FEF77ABCA8
:108E100040680021FEF77EBC4068002281F001011D
:108E2000FEF750BC40680022FEF75CBC00224068A0
:108E30001146FEF75FBC002240681146FEF74ABCAF
:108E40002DE9F04395B014460D460746FFF760FF45
:108E500000211C220DA8009101F0DBFF40230C93A0
:108E600020466B460CAA0021FEF718FB044600289A
:108E70004BD1024601216868FEF70CFC02218046B6
:108E800022466868FEF706FC009E81462146002EB9
:108E90003BD0002939D17368022B03D00A2B11D0A3
:108EA000F669F4E7B8F1000FFAD0716906A8043149
:108EB00007ADFFF771FF0FCD3C1D0FC42B6823706A
:108EC0004146EDE7B9F1000FEAD07469102201A81C
:108ED00001F09FFF06238DF8143001AD04F1080363
:108EE0001834186859682A4603C20833A342154645
:108EF000F7D101A906A807ADFFF718FF0FCD3C1D5C
:108F00000FC42B6823704946CAE70098FEF7BEFAE3
:108F1000384615B0BDE8F083024B034A1A600022C0
:108F20005A607047D4E60320D8D50B00F8B5064642
:108F30000D468F180024BD420CD0336815F8011B74
:108F40009B6830469847031E01DB1C44F3E7002C66
:108F500008BF1C462046F8BD13B50446084659B163
:108F6000019101F09FFF23680199DB6802462046CA
:108F700002B0BDE81040184702B010BD08B5FFF7B9
:108F8000EBFF08BD03689B68184738B50D210546FF
:108F9000FFF7F8FF0A2104462846FFF7F3FF2044B5
:108FA00038BD38B50546FFF7D7FF04462846FFF71A
:108FB000ECFF204438BD30B58BB00023012A8DF87A
:108FC000243098BF0A2209AC0D46B1FBF2F101FB37
:108FD000125303F0FF03092B94BF30333733DBB256
:108FE000AA4204F8013DEFD92146FFF7B5FF0BB0C7
:108FF00030BD2DE9F04186B000AF05460E46381D64
:10900000142114463B60FEF7ADFB13280ED8391D22
:109010002846FFF7A1FF04461EB12846FFF7B5FF1B
:10902000044420461837BD46BDE8F08100F108032E
:1090300023F00703E846ADEB030D2246411C3B68D5
:109040006846FEF78FFB69462846FFF785FF044612
:10905000C546E1E7014B00229A607047DCE6032039
:1090600010B504460068FEF765FB204610BD10B53C
:109070000446006808B1FEF75DFB0023C4E9013334
:10908000236010BD38B504460D4600680131FEF777
:1090900059FB10B1C4E90005012038BD10B50368C3
:1090A000044623B143688B4201D3012010BD204602
:1090B000FFF7E8FF0028F9D0A368002BF5D122685C
:1090C0001370F2E737B50D46114601920446FFF7DB
:1090D000E5FF019A28B92046FFF7C9FF204603B0F3
:1090E00030BDA2602946206801F06BFE2268A368AB
:1090F0000021D154F2E7002313B5C0E90033044640
:109100008360037341B10846019101F0CBFE0199E0
:1091100002462046FFF7D6FF204602B010BD884227
:1091200010B5044605D00B682BB18A681946FFF7C5
:10913000C9FF204610BDFFF79AFFFAE710B50023DC
:109140000446C0E9003383600373FFF7E8FF20465D
:1091500010BD13B5044659B10846019101F0A2FEB5
:10916000019902462046FFF7ADFF204602B010BD30
:10917000FFF77DFFF9E710B504468AB00023C4E984
:109180000033A3602373084601A900F0F7FC01A98E
:109190002046FFF7DEFF20460AB010BD70B5054639
:1091A0000E4609B9002070BD6AB184681444214696
:1091B000FFF774FF0028F5D02868AB6831461844E3
:1091C00001F068FEAC600120EDE78A680968FFF7EE
:1091D000E5BF07B500238DF80410012201A98DF821
:1091E0000530FFF7DBFF03B05DF804FB10B58A68BC
:1091F00009680446FFF7D2FF10B92046FFF737FF92
:10920000204610BD13B5044629B92046FFF72FFFAD
:10921000204602B010BD0846019101F043FE0199BD
:1092200002462046FFF7BAFF0028EED0F0E708B567
:1092300082683AB921B10878B0FA80F0400900E0BC
:10924000012008BD006809B90078F5E701F018FEB3
:10925000F2E710B58368934207D904680968A0183B
:1092600001F048FE08B1001B10BD4FF0FF30FBE7D6
:109270000022FFF7EEBF0000F8B59A420F461D46E8
:109280000C4988BF13461446064684BF2C461D462B
:10929000FFF731FFBB68A3420AD33968AB4294BFE2
:1092A000C4EB0302C4EB050221443046FFF70AFF7A
:1092B0003046F8BD3ED30B0010B504468B68FFF76F
:1092C000DBFF204610BD006808B101F066BD7047A5
:1092D000054B02221A60054B054A9A600020C3E93B
:1092E0000000FEF793B900BFF8E60320ECE6032088
:1092F0000000FFFF13B503688DF80710DC6B012237
:109300004FF0FF330DF10701A04702B010BD10B4BC
:109310000368DC6B4FF0FF33A4465DF8044B6047F5
:1093200013B5134602688DF80710D46B0DF10701D1
:109330000122A04702B010BD10B54369B3F88620E2
:10934000B3F884309A42044608D06369B3F88420A5
:10935000511CA3F884101344187910BD03681B69CD
:1093600098470028F1D14FF0FF30F6E77047436986
:109370001868C043C00F704770470000064B994201
:1093800010B500F10C0405D0084600F01DFD0028C2
:1093900008BF0024204610BD14D50B0010B5AC2129
:1093A0000446FAF77EFE204610BDAC21FAF779BEDE
:1093B0002DE9F0414FF0000886B01C46C0F804804B
:1093C00005460E4617464146102202A801F021FD2F
:1093D000631C09D04FF47A73B4FBF3F203FB12441D
:1093E000CDE902285C430494686910230093006867
:1093F00002AB41F2050240F6FF71FEF757F8002874
:1094000007DAFEF7C7F903686B60002006B0BDE815
:10941000F0816869002300683A463146FEF766F835
:10942000031EEEDB1846F1E738B584690A4B03608A
:1094300005467CB16368013B63605BB923682046E5
:109440009B689847A368013BA3601BB9236820462B
:10945000DB689847284638BD48D60B0010B504464F
:10946000FFF7E2FF20461C21FAF71BFE204610BD45
:1094700030B587B0044601AD6846FFF78DFC0FCDCF
:1094800004340FC42B68237007B030BD70B54D692C
:10949000054B04468C3544F8043B06460FCD0FC4FB
:1094A0002B682370304670BDC0D50B002DE9F0430A
:1094B0009846036893B00D460024DB6A06461746BB
:1094C000984728466B46224621460094FDF7E6FF62
:1094D0000546002863D1009B002B4BD05B69002B15
:1094E00048D006A8FFF714FC009B5C696378022B48
:1094F00004D1211D06A8FFF7BBFF26E00A2B24D1CB
:109500001122294601A801F084FCA368002B38D061
:1095100004F108030DF1040C183418685968624608
:1095200003C20833A3429446F7D1062301A90CA82D
:109530008DF81430FFF7FAFB0DF1340CBCE80F0086
:1095400007AC0FC4DCF80030237006A8FFF700FC5E
:1095500080B1336807ADD3F82090124B0C930FCD38
:109560000DAC0FC42B6823703A4643460CA9304615
:10957000C84705460098FDF789FF284613B0BDE8A7
:10958000F083E368002BC3D14FF6FF70D4F810903E
:10959000FDF76CFF8145BBD104F11401AAE7254614
:1095A000E8E700BFC0D50B0038B543691A68002A48
:1095B000054610DAB3F88620B3F884309A420AD10F
:1095C00003681B699847044628B92B682846DB6A5C
:1095D0009847204638BD0120FCE710B54369B3F831
:1095E0008620B3F884309A42044605D06369B3F804
:1095F00084201344187910BD03681B69984700281C
:10960000F4D14FF0FF30F6E7F8B543691746B3F8E9
:109610008620B3F884309A4205460E4616D0696912
:10962000B1F88430B1F88640E41ABC4228BF3C4609
:10963000043322461944304601F0C3FB6A69B2F88C
:1096400084302344A2F884302046F8BD03681B69A7
:1096500098470028E3D14FF0FF34F5E74269002333
:10966000A2F884304269A2F8863070472DE9F041B3
:109670001F4603680C46DB6A8AB0054616469847C3
:10968000237DD5F81480042B0CBF02200A2006226B
:109690000121FDF733FFC8F800006B691B68002B40
:1096A00008DA2B682846DB6A0024984720460AB06F
:1096B000BDE8F0812846FFF7D1FFB7B1002303A929
:1096C000F8B20393ADF81030FDF7C0FE0028E8D1E2
:1096D000686906230093006803AB41F20B0240F671
:1096E000FF71FDF7E3FE0028DBD11C22002103A857
:1096F00001F08FFB237D042B1DD14FF407733046FF
:10970000ADF80C30FDF7BAFEADF80E006068FDF75D
:10971000ADFE04906B691C22186803A9FDF7D6FE04
:109720000028BED104340FCC6D698C350FC5236879
:109730002B700124BAE740F61C233046ADF80C30FC
:10974000FDF79CFE05AEADF80E00231D04F11407D5
:1097500018685968324603C20833BB421646F7D12F
:10976000D8E7000030B54269B2F886308BB00446C5
:109770002BB1B2F884209A4201D1FFF76FFF6169E3
:109780000868002818DBB1F886507F2D14D8043102
:109790000823C5F180022944FDF7A0FE002813DD4F
:1097A0006369B3F886200AB9A3F884206369B3F823
:1097B00086201044A3F886006369B3F88600B3F8E6
:1097C0008430C01A0BB030BDFDF7E4FF03680B2BEB
:1097D000F2D0FDF7DFFF03680B2BEDD0202300252F
:1097E000CDE90235FDF7D6FF03680193084B09491F
:1097F000009302AA2B463220FDF700FF6369186828
:10980000FDF75CFE63694FF0FF321A60D4E700BFDA
:1098100013D60B000CD60B0010B54369044618682C
:10982000002801DBFDF74AFE63694FF0FF321A6042
:109830006069112200218C3001F0EBFA2046BDE86E
:109840001040FFF70BBF10B5002304460160C0F8BD
:1098500084308830FFF75CFA204610BD73B50023D2
:109860004FF47A72C0E901320E4A0361026043612B
:109870000446AC200191FAF70EFC051E05F10C061A
:1098800008D00123C5E90133074B01992B6030460D
:10989000FFF7D9FF2046C4E90565FFF7DFFE02B0F8
:1098A00070BD00BF48D60B002CD60B0010B54FF092
:1098B000FF310446FFF7D2FF204610BD10B5044625
:1098C0000068002801DBFDF7F9FD204610BD0C30D3
:1098D000FFF7F4BF024B1A68024B1A60704700BFD3
:1098E00068530320FCE6032070474174704708B5B5
:1098F000007CFDF733FE20EAE07008BD08B5007C6F
:10990000FDF70CFE20EAE07008BD08B5007CFDF70D
:1099100015FE40EAE07008BD08B5007CFDF706FEC4
:1099200040EAE07008BD007CFDF710BE37B5457C0D
:1099300004462DB1207C03B0BDE83040FDF7E6BD04
:10994000007C0191FDF70AFE00280199F2DC28460F
:1099500003B030BD10B514210446FAF7A2FB20462F
:1099600010BD000010B54FF47A7304460846114646
:109970000022C4E90123044B236001232074637493
:10998000FDF7F4FD204610BDB0D60B0041747047C2
:109990007047704708B50021007CFDF70FFE40EAD4
:1099A000E07008BD08B50121007CFDF707FE40EA24
:1099B000E07008BD08B5007CFDF7F8FD20EAE07016
:1099C00008BD08B5007CFDF7E9FD20EAE07008BDA0
:1099D00013B50446007C0191FDF7E8FD00280199CC
:1099E00001DC607C20B1207CFDF7F0FD20EAE07016
:1099F00002B010BD007CFDF7F1BD10B51421044686
:109A0000FAF74FFB204610BD10B54FF47A730446A9
:109A100008460021C4E90113044B2360012320748C
:109A200063741146FDF7AAFD204610BDE0D60B0079
:109A3000007C0022FDF7AABD10B5142204460021C7
:109A400001F0E7F9204610BD10B50F4C88B003A80F
:109A5000FFF7F2FF2178BFF35B8F11F001010FD107
:109A600020460191FAF71FFB019948B103AA074864
:109A7000FFF7CAFF2046FAF71BFB054801F080F903
:109A8000024808B010BD00BF00E7032004E7032030
:109A900091990B00002240681146FDF7FBBD0022A2
:109AA00040681146FDF716BE002240681146FDF7DA
:109AB00021BE40680022FDF715BE4068002281F0FB
:109AC0000101FDF7FFBD002340681A461946FDF766
:109AD000F1BD002340681A461946FDF7E3BD002298
