:02000002B0004C
:1040000000400B00B8F30B00000006000C00050296
:084010000401E50C00000000B2
:0440180030E30B0086
:1040200009480A49884208B505D0094A824202D0A7
:10403000121A08F0D5F80748074A0021121A08F0AA
:10404000F7F8014808BD00BFA850032098F10B0005
:10405000A0520320A0520320EDE7032070B5074EC5
:10406000074C07F03BF8A41BA4080025AC4200D184
:1040700070BD56F8043B98470135F7E74CF10B004B
:1040800070F10B0002F02EBE08B502F099FFBDE8FA
:10409000084006F0DBBF04F03DBD04F03BBD04F07A
:1040A00041BD04F03FBD0078B0FA80F04009704790
:1040B000012303707047000010B5034B03600446F2
:1040C00003F026FE204610BDD8E60B0010B50446CE
:1040D000FFF7F2FF204646F2BC51FFF7E2FF204611
:1040E00010BD000008B5034650B1064A904201D900
:1040F00007F08EF80C205843BDE80840FFF7CBBF0F
:1041000008BD00BFAAAAAA0A00F1080373B50446B5
:1041100003600D46D9B1084608F0D2F80F2805EB28
:104120000006019007D9002201A9204607F086F871
:10413000019B2060A36032462946206807F0B9F849
:10414000019B226863600021D15402B070BD014818
:1041500007F061F844E30B0008B5034650B1064A86
:10416000904201D907F054F86C205843BDE808404C
:10417000FFF791BF08BD00BF4B682F0108B503468C
:1041800050B1064A904201D907F042F8182058432E
:10419000BDE80840FFF77FBF08BD00BF5555550576
:1041A00008B548B1B0F1005F01D307F031F8BDE8C0
:1041B00008408000FFF76FBF08BD08B548B1B0F1F7
:1041C000805F01D307F024F8BDE80840C000FFF786
:1041D00062BF08BD73B500F108030360D1E9005365
:1041E0000446EE181DB916B10C4807F014F80F2B51
:1041F000019307D9002201A9204607F01FF8019B6F
:104200002060A36032462946206807F04DF8019BE4
:10421000226863600021D15402B070BD44E30B00FA
:104220000368C9B29B68184713B5044661B10846D4
:10423000019108F045F823680199DB6802462046A1
:1042400002B0BDE81040184702B010BD8142F8B579
:1042500004460D4625D0D1E900710068A368CE1B45
:104260001B1A9E421ED9F010FFF7A7FF0023054638
:104270009E420AD0EA181CBFF918D1E9000103F1E7
:10428000080318BFC2E90001F2E7206818B1A1686D
:10429000091AFFF706FF25603544A56023683344FB
:1042A0006360F8BD6268121A964206D8B942F5D02A
:1042B0003246394607F0A2FFF0E712B1394607F05F
:1042C0009DFFD4E90027BB1A2A686D681A44AD1A0D
:1042D00000239D42E2D017EB030C1CBFD118D1E99B
:1042E000000103F1080318BFCCE90001F1E7000069
:1042F00081422DE9F84F04468A4636D0D1E9005B69
:10430000D0F800908368394AABEB0507A3EB0903AB
:104310004FEAE708BB4202FB08F828D24046FFF705
:104320002DFF06468046AB450AD0B8F1000F03D0FA
:1043300029464046FFF74EFF08F118081835F2E706
:10434000D4E90058A84504D0284606F099FF18354E
:10435000F8E7206818B1A168091AFFF7A2FE2660E5
:104360003E44A66023683B446360BDE8F88F46681E
:10437000A6EB0906B74219D84646CA46002E08DD04
:104380002946504606F09AFF18350AF1180A013EF0
:10439000F4E728EAE8781825666805FB0895AE4238
:1043A000E0D0284606F06CFF1835F8E7F6105643C3
:1043B000002E08DD2946484606F080FF183509F131
:1043C0001809013EF4E7D4E90056711BDAF80050F1
:1043D000DAF804800D44A845C4D01EB12946304601
:1043E000FFF7F8FE18351836F5E700BFABAAAAAA02
:1043F0000EB403B503AB002153F8042B019305F071
:10440000F0FF02B05DF804EB03B070470EB403B5E3
:1044100003AB012153F8042B019305F0E2FF02B036
:104420005DF804EB03B070472DE9F04FDFF8B4827C
:10443000A24D8DB0A24B1A68D8F80030282101FB9C
:1044400002335A6A2B689A4200F0FF800023DFF89B
:104450009892DFF898A29B4F2B60082406F024FD69
:104460004946064608A806F03EF80A22214604A856
:1044700006F093F804A908A806F0CAF801683046C7
:1044800005F087FF04A805F0E3FF08A805F0E0FFAA
:1044900006F058FE214605F0EFFD06F053FE3121EF
:1044A000FFF7BEFE5FFA84FB06F04CFE05F0EBFD65
:1044B00006F048FE1822594605F0D7FD06F042FEE8
:1044C00003681B699847002840F3BA8006F0ECFCAB
:1044D0005146064608A806F006F80A22214604A816
:1044E00006F05BF804A908A806F092F801683046C7
:1044F00005F04FFF04A805F0ABFF08A805F0A8FFE2
:104500002B683946013368462B6005F0ECFF18260E
:1045100006F018FE03685B699847C1B2684606F06A
:104520006AF8013EF4D106F00DFE214605F0A4FD27
:1045300006F008FE0099FFF777FE06F0B5FC624929
:10454000064608A805F0CFFF694608A806F060F8FF
:104550000168304605F01DFF08A805F079FF06F058
:10456000F1FD05F090FD06F09FFC5849064608A8AD
:1045700005F0B9FF0A22214604A806F00EF804A9A6
:1045800008A806F045F80168304605F002FF04A8C7
:1045900005F05EFF08A805F05BFF06F0D3FD21469D
:1045A00005F06AFD06F0CEFD3221FFF739FE06F078
:1045B000C9FD05F068FD06F077FC4549064608A8E8
:1045C00005F091FF0A22214604A805F0E6FF04A9A0
:1045D00008A806F01DF80168304605F0DAFE04A8C8
:1045E00005F036FF08A805F033FF06F0ABFD042206
:1045F000594605F03AFD3946684605F0BCFF0426E9
:1046000006F0A0FD03685B699847C1B2684605F0F3
:10461000F2FF013EF4D106F047FC2E49064608A8F9
:1046200005F061FF694608A805F0F2FF0168304611
:1046300005F0AFFE08A805F00BFF684605F008FF7F
:104640000134782C7FF40AAFF4E606F02DFC224901
:10465000224E234F05F09DFE0824002506F072FD32
:10466000214605F009FD06F06DFD3121FFF7D8FD6B
:1046700006F068FD05F007FD06F064FD1822E1B2C2
:1046800005F0F3FC06F05EFD03681B6998470028FF
:104690000EDD06F009FC0A22214605F084FE06F034
:1046A00003FC314605F062FE3B6843F825400135C6
:1046B0000134782CD2D10DB0BDE8F08FA8E60320EC
:1046C000A850032082E80B00A6E30B00B2E30B0026
:1046D000C9E30B00E3E30B00FBE30B0043E60B0035
:1046E000F8520320505403206EE30B0089E30B00C3
:1046F00038B54FF4007514230446036085600561E6
:104700000549284606F082FD03496060284606F008
:104710007DFDE060204638BD88EC0B0010B50446F6
:10472000006818B1A168091AFFF7BBFC204610BD4C
:1047300010B50446006818B1A168091AFFF7B1FC6A
:10474000204610BD10B50446006818B1A168091ACA
:10475000FFF7A7FC204610BD30B50D688368D0E98F
:104760000042056085B04D6845608D680393002365
:104770008560C1E900338B6001A8CDE90142FFF7F4
:10478000E1FF05B030BD70B5D0E900560446AE4239
:1047900004D0284606F074FD1835F8E7206818B1F3
:1047A000A168091AFFF77DFC204670BDB1F1005FDA
:1047B00070B504460D46164602D30C4806F02EFD91
:1047C0000023C0E9003383600846FFF7E9FC00EBF3
:1047D0008503C4E90000A3602DB13268834202D092
:1047E00040F8042BFAE76060204670BD0BE40B0034
:1047F0002DE9F341002402AB03E90600C0E90044BF
:10480000134605468460D70042F31C00104AB2EB01
:10481000C30F884602D20F4806F000FDFFF7CDFC1B
:10482000C61902462860AE6023469F420BD0D418BA
:104830001CBF08EB0301D1E9000103F1080318BF15
:10484000C4E90001F1E728466E6002B0BDE8F081DE
:10485000F8FFFF7F0BE40B002DE9F34102AB03E906
:1048600006000023C0E900338360164618235E4328
:10487000104B0446F01058430F4B9E420F4601EB7D
:10488000060802D90D4806F0C9FCFFF777FC06447C
:1048900005462060A660B84507D01DB139462846B8
:1048A000FFF798FC18371835F5E72046656002B029
:1048B000BDE8F081ABAAAAAAF8FFFF7F0BE40B00CA
:1048C000F8B5D1E900370025FF1A0446C0E90055C4
:1048D0008560F8100E46FFF770FCC4E9000007443D
:1048E000A760D6E900760246F61B2B46B34202EBE0
:1048F000030506D01DB1F91803C985E80300083384
:10490000F4E765602046F8BD08B542684B689A42F6
:1049100008D14AB10968006807F052FCB0FA80F08B
:10492000400908BD0020FCE70120FAE72DE9F04F1F
:104930000022A3B004460D469548964904F0E4FBD6
:10494000954903A805F0CFFD934907A805F0CBFDD5
:104950002544A54205D014F8011B03A805F04BFE21
:10496000F7E706F0A1FA039905F013FD8B490FA8AC
:1049700005F0B9FD0FA903A805F0AEFE04460FA887
:1049800005F066FD002C5BD18549864D0FA805F02A
:10499000AAFD0FA903A805F09FFE04460FA805F085
:1049A00057FD2346052203A90FA805F099FE0FA97C
:1049B000284605F0D8FD0FA805F04AFD621C7A4C88
:1049C00003A90FA805F0ACFE0FA9204605F0CBFD0A
:1049D0000FA805F03DFD06F067FA2A6823687349C1
:1049E000FFF714FD2F68256837B3384607F068FCD9
:1049F00006461DB3284607F063FC04463822002112
:104A000014A807F015FC4C23CDE90F376848139420
:104A100003238DF85030002340680FAA1946CDE9D2
:104A2000116504F04FF807A805F012FD03A805F082
:104A30000FFD23B0BDE8F08F3E46DAE72C46DDE7F8
:104A40005C490FA805F04FFD0FA903A805F044FE2F
:104A500004460FA805F0FCFC002C40F083800522E2
:104A600003A90FA805F05CFE0FA903A805F07BFDC4
:104A70000FA805F0EDFC504D504FDFF84481D5E90B
:104A800000239B1ADB107B43A34213D9282303FB8B
:104A900004220FA8D16805F026FD0FA903A805F090
:104AA000EDFD06460FA805F0D3FC0EB1C8F8004096
:104AB0000134E4E7424E3368591C05D141490022D4
:104AC000334804F021FBAEE728246343D118D358C0
:104AD0004968DFF80C81C91A3B4B891059430BAA6E
:104AE00002AB002749000FA80B97FFF75FFE0FA945
:104AF0003648FFF731FE0FA8FFF724FE32682B6817
:104B000004FB02330FA80BAA596A0B9702ABFFF7FD
:104B10004DFE0FA94046FFF71FFE0FA8FFF712FE3C
:104B2000FFF782FC3A462A49194804F0EDFA06F0EC
:104B300009FBD8F80030196805F09EFA06F002FB70
:104B40003321FFF76DFB06F0FDFA05F09CFA06F045
:104B5000ABF932682B681F4904FB0234E268FFF7A7
:104B600055FC60E71C490FA805F0BDFC0FA903A880
:104B700005F0B2FD04460FA805F06AFC002C40F0D9
:104B8000DC810F4E336801332CD11449224697E75C
:104B9000ACE603203CE40B0082E80B003FE40B0092
:104BA00045E40B00A052032074E4032047E40B000B
:104BB00018E703205EE40B0050540320CDCCCCCC8E
:104BC000A850032064E40B0013DA4B689CE6032032
:104BD00078E40B008FE40B0098E40B009FE40B00DB
:104BE000F8520320062203A90FA805F099FD0FA98A
:104BF00003A805F0B8FC0FA805F02AFCAC4FDFF8BD
:104C0000F88203A907A805F09FFC316838682822BC
:104C10004A43831882585B689B1AA64A9B10126805
:104C200008FB03F39A4280F0D680012908D8A249F4
:104C300003A805F030FD28B3A04907A805F09BFCA8
:104C4000DFF884B24FF0000A4FF028093568386861
:104C500009FB05F1431841585B685B1A9B1008FB80
:104C600003F3534538D9A5B9954B0BA8196B05F03B
:104C70003AFC0BA907A805F001FD58B30BA805F0F5
:104C8000E7FB21E08F4903A805F005FD0028D3D1FB
:104C9000D6E7002331683868019309FB01F14158D8
:104CA0006C2000FB0A110FA8096B05F01CFC07A97A
:104CB0000FA805F0E3FC051E0FA818BF012505F09D
:104CC000C7FB019B002BD9D10DB1CBF800A00AF195
:104CD000010ABBE70123DDE7012D7B4D07D17649B2
:104CE00003A805F0D8FC10B12B68013B2B6006F03F
:104CF000DBF82A687549FFF789FB2B68013331D04F
:104D0000734DDFF8B091DFF8C0A106F0CDF82B6845
:104D1000D9F800206F4953F82220FFF777FB32685B
:104D20003968DAF800B028235343C8586C2303FBD2
:104D30000B000C23416A634301EB030CCB58DCF8F6
:104D400004C09C4519D092B12B68D9F8002053F8C3
:104D50002210DAF8003004EB43035F4A126842F88D
:104D6000231077E05D490022AAE60124CBE75C49E5
:104D70003030FFF7C9FD002856D0574B04EB4B0BE2
:104D80001B68002243F82B20012CEED106F0DAF943
:104D9000D9F800202B6853F8221005F06DF906F0C1
:104DA000D1F93421FFF73CFA06F0CCF905F06BF9A4
:104DB00006F0C8F9D9F800302A68013352F82310F8
:104DC00005F05AF906F0BEF93321FFF729FA06F08B
:104DD000B9F905F058F932683968364C28235A4336
:104DE0008B188A585B689B1A9B10226808FB03F398
:104DF000013B934214D106F057F83A493A4D05F079
:104E0000C8FA3A4B686801221A7000231A461946FC
:104E100003F030FE002368681A46194603F00AFEC4
:104E2000236801332360FEE5244907A805F033FC1D
:104E3000002889D0204903A805F02DFC40B3D9F8FB
:104E400000202B6853F82210234BDAF800201B684F
:104E500043F832103368002B96D1254B0FA8196BFD
:104E600005F041FB0FA903A805F008FC82460FA836
:104E700005F0EEFABAF1000F40D0134B164A1B684A
:104E8000126804EB430352F823201A4B1A607BE7A5
:104E90000C4903A805F0FFFB0028DBD02B68D9F8EC
:104EA000002053F82210DAF800305B00013354E799
:104EB0005054032004530320ACE40B00B3E40B0074
:104EC000F0E40320B9E40B00BC500320C0E40B0065
:104ED000F8520320EAE40B009CE60320D2E40B0026
:104EE00020E50320F6E40B0018E70320B4E60320D6
:104EF000E05303204C54032013DA4B682F4903A8D6
:104F000005F0C9FB38B12E4B1A682E4B1B6853F8BD
:104F100032202D4BBAE72D4903A805F0BCFB002831
:104F20003FF432AF264B274A1B6812685B000133FF
:104F300052F82320244B5A6026E725490FA805F094
:104F4000D2FA0FA903A805F0C7FB04460FA805F085
:104F50007FFA002C7FF467AD1E4D1F4ED5E900236C
:104F60009B1AB4EBA30F17D205F09EFF22463146E1
:104F7000FFF74CFA06F0E6F82B6853F8241005F01A
:104F80007BF806F0DFF83421FFF74AF906F0DAF88B
:104F900005F079F80134E1E7104A11490023136064
:104FA0004FF0FF320A6006490A600E4A137005F09E
:104FB0007BFF0D4905F0EDF935E500BFACE40B00D2
:104FC000BC5003209CE60320B0550320B9E40B003D
:104FD00003E50B00F852032009E50B0004530320FE
:104FE000A8500320B4E6032019E50B00002938B5CA
:104FF00004464FEA81050CD0B1F1005F01D306F001
:1050000007F92846FFF747F8C4E900002844A060E4
:1050100038BD0846F8E738B504460D46AC4204D022
:105020002046FFF78FFB0C34F8E738BD10B5044677
:105030004830FFF7A8FB04F1300006F021F9D4E96D
:105040000901FFF7E8FF606A18B1E16A091AFFF782
:1050500028F804F11800FFF775FB04F10C00FFF7C6
:1050600067FB2046FFF75AFB204610BD38B50446C3
:105070000D46AC4204D02046FFF7D8FF6C34F8E769
:1050800038BD10B50446D0E90001FFF7EFFF2068F6
:1050900018B1A168091AFFF704F8204610BD38B509
:1050A00004460D46AC4208D004F10C0006F0E8F8C6
:1050B0002046FFF7E6FF2834F4E738BD814210B5FB
:1050C0001346A1EB000405D001462246184607F01E
:1050D00095F80346181910BD70B5D1E90036F61AD7
:1050E00000230446C0E900338360B0100D46FFF78B
:1050F00057F8C4E900000644A6600246D5E900015D
:10510000FFF7DCFF6060204670BD00007FB504AB98
:1051100003E906000023C0E9003383600446134618
:105120000E46950001EB820142F31D000A4AB2EBE4
:10513000830F02D2094806F071F80191FFF730F8A9
:105140000544024620600199A5603046FFF7B6FF8E
:10515000606004B070BD00BFFCFFFF7F0BE40B007C
:105160008142F7B504460D461DD0D1E900710268B1
:105170008368CE1B9B1A9E4217D9B0100191FFF78E
:105180000FF80199024605463846FFF797FF206859
:1051900018B1A168091AFEF784FF25603544A5609F
:1051A00023683344636003B0F0BD43689B1A9E429A
:1051B00003D83846FFF782FFF2E7F9183846FFF7C1
:1051C0007DFFD4E90002D5E90031101A1844F1E757
:1051D0002DE9F0410C1A05460B48A410444316462D
:1051E00027469046002F08DD29464046FFF7B8FFC6
:1051F0000C3508F10C08013FF4E724EAE4740C20B4
:1052000000FB0460BDE8F081ABAAAAAA2DE9F04F2B
:105210000025994600F13803C0E90C354FF0FF3303
:10522000C0E915330446C0E90055C0E90255C0E99C
:105230000455C0E90655C0E90855C0E90A55C0E95A
:10524000125599B080F838500565924600F1180B58
:1052500000F1300800F14807FEF7F8FFD4E9002319
:105260009B1AAB424FEAE30102DA5F4805F0D6FF32
:1052700009A80191CDE909550B95FFF7B7FE0199F2
:10528000099831B100EB81068A00294606F0D0FF6B
:105290003046D4E90352099963690E93C4E90310B7
:1052A0000CAE0B996161CDE90C5230460025CDE979
:1052B00009550B95FFF73CFA09A8FFF739FA514653
:1052C0005846FFF74DFFD9F800100695096802AB64
:1052D00006AA3046FFF76AFAD9F800100795496820
:1052E00003AB07AA0FA8FFF761FAD9F800100895D9
:1052F000896804AB08AA12A8FFF758FAD9F8001079
:10530000099505AB09AAC96815A8FFF74FFA626AA3
:10531000E36A9B1A2F2B3FD80420FEF7E3FEB34627
:10532000054600F1300A8146B9F1000F03D0594615
:105330004846FFF7D1FE09F10C09D1450BF10C0BE2
:10534000F2D1D4E90901FFF766FE606A18B1E16A9B
:10535000091AFEF7A6FEC4E9095AC4F82CA018AD34
:105360000C3D2846FFF7EEF9B542F9D122994046A7
:1053700005F0A4FF38462399FEF7BAFF249B1B686B
:105380001A68E2655A6822669A68DB686266204697
:10539000A36619B0BDE8F08FA56AAD1A2F2D0BD901
:1053A00018A93046FFF714FFA16A88420546D6D0F7
:1053B000FFF731FEA562D2E7354429463046FFF7B4
:1053C00007FFD4F8289018AB9D420AD0B9F1000F1E
:1053D00003D029464846FFF77FFE0C3509F10C093A
:1053E000F1E7C4F82890BAE70BE40B002DE9F04F81
:1053F0002DED0E8B0128B44DADF5417D41F00F81AF
:105400000024B24BAB60C5E90044032003F0E6FA88
:10541000AF4BA493AF4BA593AF4BA693AF4BA793C2
:10542000AF4BA893AF4BA993AF4BAA93AF4BAB93A2
:10543000AF4BAC93AF4BAD93A4AB7E9305237F935F
:105440000DF5E87A7EAA534606CA8CA8FFF7D0F974
:10545000A94BDFEDAA8A9FEDAA8ADFEDAA9A9FEDFC
:10546000AA9ADFEDAAAA9FEDAAAADFEDAABA9FED3C
:10547000AABADFEDAADA9FEDAADADFEDAACA9FED9C
:10548000AACA9FEDAAEA1F460FCB0DF5177B8BE842
:105490000F00042289AD7CABCDF8F0B17D9293E88A
:1054A00006002846FFF732FE2822CDE9942493AA6D
:1054B0007A9204220DF506787AAB7B9293E8060087
:1054C000404693949694FFF721FE9DA89849FEF7D5
:1054D0001BFEB0A89749FEF717FEB6A89649FEF73F
:1054E00013FEB0A9789102210DF5E479799178AA9B
:1054F0004B4606CA83A8FFF7AFF9214610228FA8B2
:1055000006F096FE8FAA7692042280AE76AB779252
:1055100093E806003046FFF7F9FD83AA01929DAAA1
:1055200043468CA90296009284482A46FFF76EFEF5
:105530003046FFF707F983A8FFF725F9B6A805F06D
:105540009FFEB0A805F09CFE9DA805F099FE404680
:10555000FFF7F8F82846FFF7F5F88CA8FFF7DEF814
:10556000774BB093774BB193774BB293774BB39321
:10557000774BB493774BB593774BB693774BB79301
:10558000774BB893774BB993774BBA93B0AA774BD5
:105590007492BB930722764B7592BC936AAA754BA3
:1055A000BD938CA813469AE80600FFF721F99DAA3F
:1055B00007F1100C0492BCE80F00049F0FC79CE891
:1055C00003009DAA729206227392C7E9000199E82E
:1055D000060028460497FFF799FD93AA70923C2392
:1055E0000422CDE99434719270AB93E806004046F2
:1055F00093949694FFF78AFD58465F49FEF784FD21
:10560000A4A85E49FEF780FDAAA85D49FEF77CFDCF
:10561000A4AB02216E930DF5D0796F916EAA4B4623
:1056200006CA83A8FFF718F9214610228FA806F0B2
:10563000FFFD8FAA6C9204226CAB6D9293E806007A
:105640003046FFF763FD83AA43468CA9CDE900B23B
:1056500002962A464B48FFF7D9FD3046FFF772F80D
:1056600083A8FFF790F8AAA805F00AFEA4A805F001
:1056700007FE584605F004FE4046FFF763F828464B
:10568000FFF760F88CA8FFF749F8B0AA6A920722E2
:105690006B920DF5C07A6AAA06CA53468CA8CDED66
:1056A000B48A8DEDB58ACDEDBC8A8DEDBD8ACDED88
:1056B000B0DA8DEDB1DACDEDB2CA8DEDB3CACDED74
:1056C000B6BA8DEDB7BA5FE0B05203200000FFFF1D
:1056D000806927421E43AFC2CC9D27420242AFC21F
:1056E000959D27426D47AFC2A9A72742054EAFC27D
:1056F00082B32742444EAFC2ECE60B001A8B27421E
:105700009A44AFC22F8B27429540AFC2D88127421F
:105710004440AFC216822742C144AFC29EA4274272
:10572000D04BAFC237A427425946AFC28940AFC25F
:1057300024E50B0028E50B002FE50B005CE50320BA
:105740009D7E2742B374AFC2AF8027428E58AFC24E
:105750004D8027422E48AFC2AD8027425741AFC28D
:10576000FF8A27425342AFC2F48A27429847AFC20A
:1057700078A927425D5FAFC236E50B003BE50B0021
:1057800042E50B0008530320CDEDB8AA8DEDB9AA70
:10579000CDEDBA9A8DEDBB9AFFF72AF8B64B03F11F
:1057A000280217460FCF0DF51D7CACE80F00D7E996
:1057B0000001049A059782E803009DAA68920622D8
:1057C000699299E806002846FFF7A0FC07F1080255
:1057D0000FCA93AF87E80F00042166AB6697679105
:1057E00093E806004046FFF791FC5846A349FEF7B0
:1057F0008BFCA4A8A249FEF787FCAAA8A149FEF742
:1058000083FCA4AB022164930DF5BC79659164AA75
:1058100006CA4B4683A8FFF71FF89B490FC98FAFF5
:1058200087E80F00042062AB6297639093E806005C
:105830003046FFF76BFC83A8CDE900B08CA8434647
:105840002A46014602969148FFF7E0FC3046FEF7F3
:1058500079FF83A8FEF797FFAAA805F011FDA4A879
:1058600005F00EFD584605F00BFD4046FEF76AFFB9
:105870002846FEF767FF8CA8FEF750FF844BA493E1
:10588000844BA593844BA693844BAA93844BAB93F0
:10589000844BAC93844BAD930520A4AB6093619093
:1058A00056A89AE8060003468CA88DEDA7EACDED30
:1058B000A89A8DEDA99AFEF79BFF6F4BCDF878B1B2
:1058C0001F4660330FCB8BE80F0004205F9099E8F0
:1058D00006002846FFF71AFC3B4670330FCB93AF08
:1058E00087E80F0004205CAB5C975D9093E80600AE
:1058F0004046FFF70BFC9DA86C49FEF705FCB0A8DD
:105900006B49FEF701FCB6A86A49FEF7FDFBB0A89B
:105910005A9002205B900DF5A8795AAA4B4606CA08
:1059200083A8FEF799FF544B80330FCB8FAF87E8E6
:105930000F00042058AB5897599093E80600304662
:10594000FFF7E4FB83A801909DA800908CA8434634
:105950002A46014602965848FFF758FC3046FEF7A3
:10596000F1FE83A8FEF70FFFB6A805F089FCB0A8EA
:1059700005F086FC9DA805F083FC4046FEF7E2FE9C
:105980002846FEF7DFFE8CA8FEF7C8FE4B4BB0930F
:105990004B4BB1934B4BB2934B4BB3934B4BB49399
:1059A0004B4BB593B0A84B4B5690B69308204A4B3F
:1059B00057900DF5987ABC9356A8484BBD9390E844
:1059C000060053468CA8CDEDBA8A8DEDBB8A8DEDCD
:1059D000B7EACDEDB89A8DEDB99ACDEDBEAA8DEDB1
:1059E000BFAAFEF705FF244B049F03F1900CBCE80F
:1059F0000F000DF51D7EAEE80F009CE8070087E85C
:105A000007009DA854900720559099E80600284665
:105A1000FFF77CFB184BAC330FCB93AF87E80F003D
:105A2000042052AB5297539093E806004046FFF78C
:105A30006DFB58462A49FEF767FBA4A82949FEF7E3
:105A400063FBAAA82849FEF75FFBA4AB0220509392
:105A500051900DF5947950AA4B4606CA83A8FEF7DB
:105A6000FBFE054BBC330FCB8FAF87E80F00042044
:105A70004EAB4E973AE000BFECE60B0049E50B0059
:105A80004FE50B0056E50B003CE70B00E05303200D
:105A900097692742B840AFC2FE812742FB8A27425E
:105AA0009444AFC2718927427964AFC2B3E40B005A
:105AB0005DE50B0064E50B00445503201A632742A3
:105AC000D24BAFC2C46E27421541AFC2B580274248
:105AD0008640AFC200822742E18127427644AFC2AE
:105AE0006BE50B0072E50B0079E50B004F9093E836
:105AF00006003046FFF70AFB83A8CDE900B08CA86A
:105B000043462A4601460296BA48FFF77FFB3046D5
:105B1000FEF718FE83A8FEF736FEAAA805F0B0FB34
:105B2000A4A805F0ADFB584605F0AAFB4046FEF7D9
:105B300009FE2846FEF706FE8CA8FEF7EFFDB0A88A
:105B40004C9007204D9042A89AE8060003468CA886
:105B5000CDEDB48A8DEDB58ACDEDBC8A8DEDBD8AD3
:105B6000CDEDB0DA8DEDB1DACDEDB2CA8DEDB3CABF
:105B7000CDEDB6BA8DEDB7BACDEDB8AA8DEDB9AA17
:105B8000CDEDBA9A8DEDBB9AFEF732FE9A4A049F8C
:105B9000A2F1180EBEE80F000DF51D7CACE80F0059
:105BA000059803C887E803009DA84A9006204B90FB
:105BB00099E806002846FFF7A9FA8F4A0FCA93AF63
:105BC00087E80F00042248AB4897499293E8060003
:105BD0004046FFF79BFA58468849FEF795FAA4A875
:105BE0008749FEF791FAAAA88649FEF78DFAA4AB79
:105BF0000220469347900DF5807946AA06CA4B4687
:105C000083A8FEF729FE80490FC98FAF87E80F00F0
:105C1000042244AB4497459293E806003046FFF7D0
:105C200075FA83AA43468CA9CDE900B202962A46AA
:105C30007648FFF7EBFA3046FEF784FD83A8FEF7BF
:105C4000A2FDAAA805F01CFBA4A805F019FB584664
:105C500005F016FB4046FEF775FD2846FEF772FD7F
:105C60008CA8FEF75BFD6A4BB0936A4BB1936A4B0D
:105C7000B293B0AA694B4292B3930822684B439205
:105C80000DF1E00AB49342AA664BB59306CA534697
:105C90008CA8CDEDB68A8DEDB78ACDEDBE8A8DED9F
:105CA000BF8ACDEDB89A8DEDB99ACDEDBAAA8DED3A
:105CB000BBAACDEDBCBA8DEDBDBAFEF799FD5A4B2E
:105CC000049FDFED5A8A9FED5A8A03F1CC0CBCE8A1
:105CD0000F000DF51D7EAEE80F009CE8070087E879
:105CE00007009DAA40920722419299E806002846A3
:105CF000FFF70CFA4C4BE8330FCB93AF87E80F005C
:105D000004223EAB3E973F9293E806004046FFF7E1
:105D1000FDF958464749FEF7F7F9A4A84649FEF7AA
:105D2000F3F9AAA84549FEF7EFF9A4AB02213C9389
:105D30000DF1D8093D913CAA4B4606CA83A8FEF74F
:105D40008BFD394BF8330FCB8FAF87E80F00042260
:105D50003AAB3A973B9293E806003046FFF7D6F904
:105D600083AA43468CA9CDE900B202962A4634485C
:105D7000FFF74CFA3046FEF7E5FC83A8FEF703FD7B
:105D8000AAA805F07DFAA4A805F07AFA584605F00D
:105D900077FA4046FEF7D6FC2846FEF7D3FC8CA8DF
:105DA000FEF7BCFC274BB093274BB193274BB29324
:105DB000274BB393274BB493274BB593274BB693FD
:105DC000274BB793274BB893274BB993274BBA93DD
:105DD000B0AA274B3892BB930722264B3992BC932B
:105DE0002EAA254BBD938CA813469AE80600FEF711
:105DF000FFFC43E0E07D03202CE70B0080E50B0077
:105E000087E50B008EE50B003CE70B00F0E4032078
:105E1000766A27422B69AFC25F6B2742CD56AFC26D
:105E20002D8A2742D856AFC2ECE60B000266294203
:105E300081288EC295E50B009AE50B00A1E50B00C9
:105E400084E403201B482942B21A8EC2834F2942A0
:105E5000931D8EC2E66029422D1D8EC2F96629422D
:105E6000F01A8EC2A5712942E6238EC237742942E8
:105E700073338EC27A7D29425D3B8EC2B14B03F5EE
:105E8000847C1F46BCE80F000DF51D7EAEE80F00B8
:105E90009CE80300049A82E803009DAA3692062239
:105EA000379299E806002846FFF730F993AA349212
:105EB00032230422CDE99434359234AB93E80600C2
:105EC000404693949694FFF721F958469E49FEF771
:105ED0001BF9A4A89D49FEF717F9AAA89C49FEF74B
:105EE00013F9A4AB022132930DF1B009339132AA18
:105EF0004B4606CA83A8FEF7AFFC214610228FA8A6
:105F000006F096F98FAA3092042230AB319293E8D2
:105F100006003046FFF7FAF883AA43468CA9CDE97C
:105F200000B202962A468B48FFF770F93046FEF71A
:105F300009FC83A8FEF727FCAAA805F0A1F9A4A8EC
:105F400005F09EF9584605F09BF94046FEF7FAFB2E
:105F50002846FEF7F7FB8CA8FEF7E0FB7E4BA493E8
:105F60007E4BA5937E4BA6937E4BA7937E4BA89327
:105F70007E4BA9937E4BAA937E4BAB930422A4AB9A
:105F80002E932F920DF1900A2EAA534606CA8FA87F
:105F9000FEF72EFC07F5907393E8070003232C957A
:105FA0002D9385E8070099E806008CA8FFF7AEF866
:105FB0002822CDE9982404222AABCDF8A8B02B9250
:105FC00093E80600404697949A94FFF79FF89DA89F
:105FD0006949FEF799F8B0A86849FEF795F8B6A8A0
:105FE0006749FEF791F8B0A9289102210DF18809BF
:105FF000299128AA4B4606CA83A8FEF72DFC214604
:10600000102293A806F014F993AA2692042226AB34
:10601000279293E806003046FFF778F883AA0192AA
:106020009DAA43468FA90296009256488CAAFFF774
:10603000EDF83046FEF786FB83A8FEF7A4FBB6A872
:1060400005F01EF9B0A805F01BF99DA805F018F998
:106050004046FEF777FB8CA8FEF774FB8FA8FEF78F
:106060005DFB494BB093494BB193494BB293494BBC
:10607000B393494BB493494BB593494BB693494BB2
:10608000B793494BB893B0AA484B2492B9930622D0
:10609000474B2592BA931AAA464BBB938CA813463A
:1060A0009AE80600FEF7A4FB264BCDF888B003F56E
:1060B000967CBCE80F005F460FC7DCF800303B6001
:1060C0000523239399E806002846FFF71FF893AAB3
:1060D00020922D230422CDE99434219220AB93E821
:1060E0000600404693949694FFF710F89DA8324915
:1060F000FEF70AF8A4A83149FEF706F8AAA8304925
:10610000FEF702F8A4AB1E9302231F930DF1600A61
:106110001EAA534606CA83A8FEF79EFB21461022FC
:106120008FA806F085F88FAA1C9204221CAB1D9242
:1061300093E806003046FEF7E9FF83AB01939DAB81
:1061400040E000BFECE60B0024E50B0028E50B0067
:106150002FE50B00C8E50320A9842942E60B8EC277
:10616000A670294262188EC2E16F2942861E8EC235
:10617000D1712942CF1F8EC236E50B003BE50B00E3
:1061800042E50B00745303207A532942C9308EC272
:10619000D0632942F1268EC24B6329420D218EC263
:1061A000306E29425A1D8EC278822942E2268EC262
:1061B000CD9C294270278EC26BE50B0072E50B0067
:1061C00079E50B002A468CA902960093B548434610
:1061D000FFF71CF83046FEF7B5FA83A8FEF7D3FAAE
:1061E000AAA805F04DF8A4A805F04AF89DA805F066
:1061F00047F84046FEF7A6FA2846FEF7A3FA8CA811
:10620000FEF78CFAA84BB093A84BB193A84BB4936C
:10621000A84BB593A84BB693A84BB793A84BB8938C
:10622000A84BB993A84BBA93A84BBB93A84BBC936C
:10623000A84BBD93A84BBE93A84BBF93B0AB1A938A
:1062400008231B930DF140091AAA4B4606CA8CA8D5
:10625000CDEDB28A8DEDB38AFEF7CAFADFF8C8C277
:10626000BCE80F000DF51D7EAEE80F009CE80700AE
:10627000049B83E807009DAB1893072319939AE8C2
:1062800006002846FEF742FF93AA169246230422F0
:10629000CDE99434179216AB93E8060040469394E8
:1062A0009694FEF733FF58468D49FDF72DFFA4A8BD
:1062B0008C49FDF729FFAAA88B49FDF725FFA4AB60
:1062C0001493022315930DF1380A14AA534606CAF3
:1062D00083A8FEF7C1FA214610228FA805F0A8FF77
:1062E0008FAA1292042212AB139293E80600304652
:1062F000FEF70CFF83AB2A468CA9CDE900B30296CA
:1063000043467A48FEF782FF3046FEF71BFA83A821
:10631000FEF739FAAAA804F0B3FFA4A804F0B0FF6E
:10632000584604F0ADFF4046FEF70CFA2846FEF74B
:1063300009FA8CA8FEF7F2F96D4B9D936D4B9E9375
:106340009DAB33600223736096E8060008AB8FA80C
:10635000CDED9F8A8DEDA08AFEF74AFA09AB109326
:106360000123119399E806000F268CA80996FEF7E1
:10637000CDFE04230F93CDF838B09AE806002846E6
:10638000CDE99746CDE99944FEF7C0FEA4A854494B
:10639000FDF7BAFEB0A85349FDF7B6FEB6A85249BC
:1063A000FDF7B2FEB0AB0C9302230D930CAA07AB22
:1063B00006CA4046FEF750FA2146102293A805F07F
:1063C00037FF93AA0A9204220AAB0B9293E80600C5
:1063D00083A8FEF79BFE83ABCDE90183A4AB8CAA17
:1063E0008FA9009344482B46FEF710FF83A8FEF7C1
:1063F000A9F94046FEF7C7F9B6A804F041FFB0A8D6
:1064000004F03EFFA4A804F03BFF2846FEF79AF9EB
:106410008CA8FEF797F98FA8FEF780F9374B38491B
:106420009C60C3E90044374B37489C60C3E9004493
:10643000364B374D9C60C3E90044364BDFF8C880CB
:106440009C60C3E90044344BC3E900449C6002F003
:10645000BDFD3249324802F0B9FD32492C4802F004
:10646000B5FD0FCD5E460FC6B8E80F00D5F800C0E9
:10647000C7F800C09DAD0FC5C146049B59F810A9CF
:10648000C3F800A05D460FCDA4AE0FC6DFF89CE0B8
:10649000C6F800C00DF51D7CCEE90044BCE80F0035
:1064A000B0AD45E04C7E032055652942AE308EC22A
:1064B0004768294245248EC2CC68294206218EC2F3
:1064C000CD722942B01D8EC2777729425E1F8EC2DF
:1064D00068762942D5208EC291822942BA308EC276
:1064E000B3E40B005DE50B0064E50B006C54032086
:1064F000F057294251338EC2D85403205054032000
:10650000A8E50B0060540320BC520320D47D032077
:10651000E4520320F85203209CE60320CDE50B0053
:10652000D0520320F2E50B002CE80B00ACE6032070
:106530000FC5B0ABC5F800A07046CDE9014400938B
:106540007449A4AB4FF0100203F0AAFADFF850C26E
:10655000BCE80F00DE46AEE80F00B9E80F00DCF83B
:1065600000E0C7F800E00DF51D7CACE80F00049BCF
:10657000D8F80090C3F80090DA46BAE80F00DFF8C8
:10658000D8810DF5247CACE80F00C6F800E09DAE84
:10659000C8E900440FCE0DF5307CACE80F005E4B2F
:1065A000C5F800900193B0AB4FF004020294009341
:1065B0004046A4AB59495A4C03F072FA59495A481B
:1065C00003F091FF594803F09BFD5649584803F0EA
:1065D0008AFF5449574803F086FF5249564803F052
:1065E00082FF564801F014FA4FF47A73009342F296
:1065F000107204F12C01524B204601F0E1FB514B8B
:1066000048492360504803F06EFF46494F480DF556
:10661000417DBDEC0E8BBDE8F04F03F064BF4B48ED
:1066200003F016FF484803F013FF3D48FDF744FD13
:10663000424B474A9C691A607CB16368013B6360C6
:106640005BB9236820469B689847A368013BA36019
:106650001BB923682046DB68984737483D4C03F058
:10666000F7FE344803F0F4FE314803F0F1FE2E4803
:1066700003F0EEFE384802F0FAFE384802F0F7FE6A
:106680003748FEF75FF83748FEF75CF83648FEF704
:10669000F8FC3648FEF7F5FCD4E90001FEF7FFFCF4
:1066A000206818B1A168091AFDF7FBFC3048FEF715
:1066B000BDFC3048FEF7BAFC2F48FEF7B7FC2F4868
:1066C000FEF7B4FC2E48FEF7B1FC2E48FEF7AEFCF8
:1066D0002D48FEF7ABFC2D48FEF7A8FC2C48FEF732
:1066E000A5FC2C48FEF7A2FC2B48FEF79FFC2B488C
:1066F000FEF79CFC286838B10DF5417DBDEC0E8B92
:10670000BDE8F04F02F00EBA0DF5417DBDEC0E8BE9
:10671000BDE8F08F17E60B002D490B001AE60B00C1
:10672000B87E032082E80B0034E6032044E6032011
:106730005CE6032070E6032084E60320B8550320BE
:10674000F4A50320D8E60B00A052032074E4032034
:106750008CEB0B005054032094E60320ACE603209E
:106760009CE60320F8520320D47D032060540320CC
:10677000D85403206C5403204C7E03207453032010
:10678000C8E5032084E40320F0E40320E07D032037
:1067900044550320E0530320085303205CE5032005
:1067A000D0520320814210B51346A1EB000405D05E
:1067B00001462246184605F021FD0346181910BD72
:1067C0002DE9F0410D460446FEF77AF8D5E903318C
:1067D0000026C91AC4E903666661891004F10C0039
:1067E000FEF704FCE268D5E90301FFF7DBFF05F1E2
:1067F0001801206104F11800FEF76EFCD5E9093795
:106800002648E662FF1ABB10C4E909665843FDF743
:1068100069FCC4E909000744E762D5E9097806463E
:10682000B84507D01EB139463046FEF755FC0C3648
:106830000C37F5E7A66205F1300104F13000FDF7F1
:10684000C9FCD5E912371548FF1A0023C4E91233F1
:106850002365FB105843FDF791FCC4E9120007447F
:106860002765D5E912780646B84507D01EB13946E6
:106870003046FDF7AFFC18361837F5E7E6646B6D68
:106880006365AB6DA365EB6DE3652B6E23666B6E85
:106890006366AB6EA3662046BDE8F081ABAAAAAAE8
:1068A000F8B5D1E90037FF1A0023C0E900330446E8
:1068B00083600D48BB1058430E46FDF74DFCC4E9FC
:1068C00000000744A760D6E900670546B74207D035
:1068D0001DB131462846FFF773FF6C356C36F5E77E
:1068E00065602046F8BD00BF13DA4B6870B50546F9
:1068F0000E461446B5420FD05CB129462046FFF73C
:10690000CFFF05F10C0104F10C00FDF763FC6B6A8D
:10691000636228352834EDE7204670BD2DE9F34742
:1069200004460D46FDF792FC05F10C0204F10C0340
:106930009A4225D0D5E90381E2686369A1EB080694
:106940009B1A9E424AD9002E46D05D4B9E4201D9E9
:1069500004F05EFC30460191FDF79DFB019907466E
:106960003A464046FFF71EFFE06818B16169091A10
:10697000FDF797FBE76037446761E36833442361C1
:1069800005F1180104F11800FEF7EAFB05F12403F4
:1069900004F12402934245D0D5E9096AD4F8249041
:1069A000E36AAAEB0608A3EB0903434555D2454821
:1069B0004FEAA8035843FDF795FB07468146B245C9
:1069C00020D0B9F1000F03D031464846FEF784FBD2
:1069D00009F10C090C36F2E73746C1E723699B1A27
:1069E0009E4203D84046FFF7DDFEC6E708EB0301F1
:1069F0004046FFF7D7FED4E90302D5E90331101A68
:106A00001844F0E7D4E90901FEF705FB606A18B104
:106A1000E16A091AFDF745FB67624744E762636A6A
:106A20004344A36205F1300104F1300004F046FC58
:106A300005F1480104F14800FDF75AFC6B6D6365F0
:106A4000AB6DA365EB6DE3652B6E23666B6E6366C2
:106A5000AB6EA36602B0BDE8F087A76AA7EB090793
:106A6000B8450DD830464A465146FEF7B1FBA76AF5
:106A70000646B742D3D03046FDF764FE0C36F8E741
:106A8000104BBF105F43002F08DD31464846FEF72C
:106A900067FB0C3609F10C09013FF4E7D4E90967FB
:106AA000B91B6E6AD5F828900E44B145B7D01FB116
:106AB00031463846FEF710FB0C360C37F5E700BFC1
:106AC000FCFFFF7FABAAAAAA2DE9F0410C1A0546EC
:106AD0000B48A4104443164627469046002F08DD75
:106AE00029464046FFF71AFF6C3508F16C08013F54
:106AF000F4E724EAE4746C2000FB0460BDE8F08154
:106B000013DA4B6881422DE9F04704460F462CD03A
:106B1000D1E9005AD0F800908368AAEB0508A3EBEE
:106B20000903434523D22A484FEAA8035843FDF7F7
:106B300013FB06460746AA4507D01FB1294638462B
:106B4000FFF73EFE6C376C35F5E7D4E90001FEF740
:106B50008DFA206818B1A168091AFDF7A2FA26601B
:106B60004644A660236843446360BDE8F0874668F6
:106B7000A6EB0906B0450DD828464A465146FFF710
:106B8000A3FF66680546AE42ECD02846FEF74EFAF3
:106B90006C35F8E70E4BB6105E43002E08DD294633
:106BA0004846FFF7BBFE6C3509F16C09013EF4E77E
:106BB000D4E90056711B3D687F680D44AF42D1D0C7
:106BC0001EB129463046FFF7FBFD6C356C36F5E704
:106BD00013DA4B682DE9F0410C1A05461048E41011
:106BE00044431746A0461646B8F1000F10DD29466B
:106BF0003046FFF787FF05F10C0106F10C0004F0A9
:106C00005DFB6B6A73622835283608F1FF38EBE7C5
:106C100024EAE474282000FB0470BDE8F08100BF82
:106C2000CDCCCCCC2DE9F843A2EB01088368174604
:106C300002689B1A984504460E462AD9264B984569
:106C400002D9264804F0EAFA25484FEAA803584337
:106C5000FDF782FA05468146B7420AD0B9F1000F26
:106C600003D031464846FFF7ABFD6C3609F16C099D
:106C7000F2E7D4E90001FEF7F9F9206818B1A1683C
:106C8000091AFDF70EFA25604544C4E90155BDE82F
:106C9000F8834568AD1AA8450BD839463046FFF74A
:106CA00013FF616888420546F1D0FEF7DFF96560A1
:106CB000EDE70D4430462946FFF706FF6668AF4210
:106CC00007D01EB129463046FFF77AFD6C356C3689
:106CD000F5E76660DBE700BFA4FFFF7F0BE40B0076
:106CE00013DA4B6870B5ADF51E7D04F0DDF84FF496
:106CF000165104F0CDF84FF4FA7001F05BFF02F08A
:106D0000C5FA02F00DFB02F0C1FA974A974D014611
:106D100017A802F0EFFF17A802F0A9FB02F0B6FADD
:106D2000934A014617A802F0E5FF17A802F09FFB5F
:106D300002A802F0D2FC0FCD11AC0FC42E68266061
:106D400011AD0FCD17AC0FC417A8266002F0A0F844
:106D5000044617A8002C40F0E28002F0B5F8009439
:106D6000ADF82C0002230BAA032102A802F0AAFC12
:106D700002F08CFA002202A902F01CFB7D4C7E4E30
:106D800017A8FDF7B5FC04F0DDF903F03FF97B49E6
:106D9000204603F0F0FB50237949A363794C022588
:106DA0000620C1E91550C4E91550774D0322072389
:106DB00017A8C5E91523C6E91523FFF701FD3146DC
:106DC00032A8FFF7FDFC29464DA8FFF7F9FC214644
:106DD00068A8FFF7F5FC6D4983A8FFF7F1FC6C4844
:106DE0009EAA17A9FFF71EFF04246C2517AB05FB0D
:106DF0000430FEF71BF9013CF8D2664917A8FFF7EB
:106E0000DFFC654932A8FFF7DBFC64494DA8FFF7BA
:106E1000D7FC634968A8FFF7D3FC624983A8FFF752
:106E2000CFFC61489EAA17A9FFF7FCFE04246C253D
:106E300017AB05FB0430FEF7F9F8013CF8D25449D2
:106E400005A8FFF72DFD59490BA8FDF75DF90024B2
:106E50001CAB05A917A8CDE91A34CDE9174419943C
:106E60008DF87040FFF74EFE0BA91AA804F026FA21
:106E700005254D49209508A8FFF712FD4C4911A89A
:106E8000FDF742F926ABCDE92434CDE92144239422
:106E90008DF8984008A9474C21A8FFF733FE11A9A7
:106EA00024A804F00BFA2268A3682A959B1A4F2B9A
:106EB0003DD85020FDF7EFF82BA90246054617A84C
:106EC000FFF714FDD4E90001FEF7E9F8206818B1D6
:106ED000A168091AFDF7E5F8364B1D605035C3E986
:106EE000015524A804F0CCF921A8FEF7CAF81AA885
:106EF00004F0C6F917A8FEF7C4F811A804F0C0F909
:106F000008A8FEF7BEF80BA804F0BAF905A8FEF72A
:106F1000B8F8029801F006FE0DF51E7D70BD01F077
:106F2000D5FF002300930246102307211DE7656863
:106F3000AD1A4F2D0BD92BA917A8FFF74BFE61688F
:106F400088420546CDD0FEF7AAF86560C9E717ABC1
:106F50001D4429461846FFF73DFE62682BA92846C6
:106F6000FFF7C4FC6060BCE7ACE60320BC52032022
:106F700094E6032034E60320E07D03201DE60B00A9
:106F8000E0530320F0E4032084E40320445503206D
:106F900060540320C8E503206C540320D854032018
:106FA000745303204C7E0320D47D03202DE60B0078
:106FB00031E60B00505403200120FEF717BA000001
:106FC0002DE9F04F2DED068B534B0022B7B05868DA
:106FD000114601F06FFD002800F00D854F4B1B7826
:106FE000002B00F00885DFF87C814D4D03F05CFF3D
:106FF0004C4903F0CEF9D8E90046A64209D054F82E
:10700000042B029203F050FF029A2946FDF7F0F993
:10701000F3E703F049FF03F0B0F9434BDFF840A179
:107020001B68CAF800300023404EDAF800203168AF
:10703000029328256A438B188A585B689B1A3C4A3E
:107040009B105343029A934240F25E844FF47A704D
:1070500001F0B0FD344B1B68013300F0CC8435499E
:1070600017A803F040FADAF80020336805FB023372
:1070700013A8D96803F037FA13A917A803F0C8FAC0
:107080002D4903F0D1FA029B32686C245C43DAF894
:1070900000306B430746D35823441BA8196B03F0F9
:1070A00022FA1BA9384603F0B3FA01462348244FBD
:1070B00003F04AFA1BA803F0CBF913A803F0C8F9B0
:1070C00017A803F0C5F91F4B1F49204800933A4603
:1070D0001F4B00F0D3FC03F0E7FE1E4903F059F903
:1070E0001D4800F063FE79680391084605F0E8F852
:1070F00003990246184800F03CFE174801F046FA92
:10710000039098BB03F0D0FE144937B0BDEC068B5A
:10711000BDE8F04F03F03DB918E70320B4E60320C3
:1071200041E60B0036E60B00A85003205054032024
:1071300013DA4B6846E60B0054E60B005CE60320CE
:1071400080E603205CE60B0034E60320B8550320FC
:10715000AC50032060E60B00B87E032068E60B000D
:107160005C5403209CE6032000000000DAF80030A5
:1071700032681FED039A6B431BA8D1582144FFF7D7
:107180001FFB1BA907A8FDF79BFB4FF00009A249B5
:107190000DA800F025FEA14A0DA910A800F0F0FFEF
:1071A000002210A913A800F0BFFE9D4A13A917A83A
:1071B00000F0E6FF4A4617A90AA800F0B5FE17A896
:1071C00000F086FD13A800F083FD10A800F080FDFC
:1071D0000DA800F07DFD934A0AA917A800F0D0FF82
:1071E00017A913A800F0E6FF17A800F071FD8E4A5A
:1071F0000AA910A800F0C4FF10A917A800F0DAFF30
:1072000010A800F065FD894A0AA910A800F0B8FF8F
:10721000002110A800F0A2FE044610A800F058FDBE
:10722000834A0AA910A800F0ABFF10A8B0EE490AE3
:1072300000F0A0FE10A8F0EE408A00F049FD7D4A63
:107240000AA910A800F09CFF10A8B0EE490A00F0AF
:1072500091FE10A8B0EE408A00F03AFD159B012B7C
:107260007FD803F021FE7449744F03F092F817A8F9
:1072700003F0EEF813A803F0EBF80AA800F028FDDD
:10728000029B0025DE003B68002B40F08582022D2A
:1072900006D06B4927A8FDF737FB002800F06C8269
:1072A00003F050FF674B196802F0E6FE03F04AFF57
:1072B0002D9B0446196817A803F015F91799204665
:1072C000FCF7B2FF17A803F0C3F803F03BFF2D9BB8
:1072D0000446996917A803F006F917992046FCF7A8
:1072E000A3FF17A803F0B4F803F02CFF02F0CBFEC5
:1072F0003B68002B40F06682022D06D0504927A83B
:10730000FDF702FB002800F04D8203F01BFF4D4B00
:10731000196802F0B1FE3C68002C40F01983022D80
:1073200040F085824849DFF8249127A8FDF7ECFA60
:10733000002800F04D82D9F82410D1E906239B1AC9
:107340009A10D1E900135B1A9B1003EB5203A3427E
:1073500040F2FE8203F0F6FE3021FCF761FF0134BB
:10736000E9E7DDE90735ED1AED104FF0000BAB450D
:1073700007993BDA01EBCB06D6ED007A78EEE77A97
:1073800017EE900A04F07CFBD6ED017A78EE677A6E
:1073900002460B4617EE900ACDE9042304F070FB79
:1073A000DDE9042341EC1A0B1046194604F0C0FB3A
:1073B00053EC1A2B06460F461AEE100A194604F033
:1073C000B7FB02460B463046394604F0FBF941EC68
:1073D000100B04F0EBF81E9E51EC100B04F078FE3D
:1073E00006EB8B060BF1010B3060C0E7DDE91E6791
:1073F000BE422FD0321D3346974210462BD0D3EDDC
:10740000007A90ED007AB4EE677AF1EE10FA02F1AC
:10741000040248BF0346EFE7B87E032077E60B007F
:107420007DE60B0084E60B008EE60B009AE60B006F
:10743000A4E60B00ADE60B00B7E60B005C5403209E
:1074400020E503204C54032074550320E05303200F
:10745000CCCCCC7D3346309A9B1BB2EBA30F4FEACA
:10746000A30008BF319801EBC003D3ED007AD3ED40
:10747000016AF4EEE78AF1EE10FA77EEE85A55BFAA
:1074800038EE666A76EEC87A78EEE77A87EEA57A05
:107490004FEAC00C58BF86EE277A5FED137AB5EE3F
:1074A000407AF1EE10FA0AD0B4EEE77AF1EE10FA73
:1074B000BABFBFEE006AC6EE077AF0EE497AB0EEC8
:1074C000487AA7EEA57AF4EEC76AF1EE10FA4CBF3F
:1074D00001270027002871D191ED027ADDF8C4C0A0
:1074E00037EE687AF0EE486AE7EE276A91ED037AA4
:1074F000F4EEC76AF1EE10FACCBF01250025BCF10D
:10750000000F1DD1531E01EBC301BD4291ED000AD6
:1075100091ED017A40F09B8070EE688AA8EEA78A10
:10752000B4EEC78AF1EE10FACCBF01210021A942C6
:1075300000D1531C9A42C0F28C8011469C4605E053
:10754000BD4274D0024684460123194606EB8C00E6
:1075500006EB810190ED007AD1ED007A2198359DFE
:1075600050F82C1077EE277A9542C7EE276A07EE7F
:10757000901AB8EEE78A28EE268A06DB3499914203
:1075800003DC9D4201DB994266DD329D954266DC5B
:107590009D4264DC3399914265DB994263DB039B36
:1075A000294602258C4561DD50F8212007EE902AFE
:1075B000F8EEE77A013138EE278AF3E7ACF1080CF0
:1075C0008C449CED007A37EE687AF0EE486AE7EE7C
:1075D000276A05F1FF3E431E9CED017AF4EEC76A6F
:1075E000F1EE10FACCBF4FF0010C4FF0000C8645C5
:1075F00029D1319B834218D1531E01EBC301BC45F5
:1076000091ED000A91ED017A02D0AB1E024691E79E
:1076100070EE688AA8EEA78AB4EEC78AF1EE10FA77
:10762000CCBF01210021614582E7BC45EDD117A8FF
:1076300002F00EFF13A802F00BFF0AA809F10109DE
:1076400000F046FBA3E5BC45E0D1431CDEE7024663
:107650007AE71946944679E700230325A2E700213B
:107660000B460D469EE7002301259BE7AB4A249E6F
:107670001268002A70D1002B4AD0A94927A8FDF72B
:1076800043F9F0B1D6E906239B1A9B1007EE903A16
:10769000F8EE677A37EEC88A012D47D1A14927A8AD
:1076A000FDF732F9002849D0D6E903239B1A9B1035
:1076B00007EE903AF8EE677A37EEC88AC4F106040E
:1076C0003CE0994927A8FDF71FF9C8B1974B5B6AC1
:1076D000D3E90632D21A9210530807EE903AF8EE28
:1076E000E77A37EE888AFDEEC87A17EE903AB3FB58
:1076F000F2F102FB113308EE103AB8EE488ACBE7FC
:107700008B4927A8FDF700F9002818BF0124C3E71B
:10771000884927A8FDF7F8F828B9854927A8FDF773
:10772000F3F80028B8D0C4F10604B5E7032D05D15D
:107730007B4927A8FDF7E8F80028BFD1B0EE480A3A
:1077400003F0EEFE0C23BDEEC00A5D4310EE102ADE
:10775000735943F822406AE7012AEFD1764927A8F6
:10776000FDF7D2F80028A9D1744927A8FDF7CCF875
:107770000028A3D17249DCE7032D0DD16A49714C71
:1077800027A8FDF7C1F818B103F0DCFC21688BE5F0
:1077900003F0D8FC616887E503F0D4FCD8F800302A
:1077A000995981E5032D0DD15F49664C27A8FDF756
:1077B000ABF818B103F0C6FC2168AAE503F0C2FCDF
:1077C0006168A6E503F0BEFCD8F800309959A0E541
:1077D00009F1300127A8FDF797F820B9544927A8E7
:1077E000FDF792F898B1D9F82420D2E900239B1A2A
:1077F000B4EBA30F80F0AC8003F0A4FC249B1B68C7
:1078000013F824103031FCF70BFD0134EBE7D9F805
:107810002420D2E900239B1AB4EBA30F80F09880B8
:1078200003F090FC3021FCF7FBFC0134EFE7012D65
:1078300040F0C0803F4927A8FDF766F830B93C49C1
:1078400027A8FDF761F8002800F08280249AD2E989
:1078500006239B1AB4EBA30F7AD203F073FC3021FA
:10786000FCF7DEFC0134F1E72D4927A8FDF74CF8C1
:1078700000286DD0DFF8D090DFF8D0B0D9F8240020
:10788000DBF82410D0E90032D21AD1E909135B1ACF
:107890009B10C3EBA203A3425AD903F053FC30213F
:1078A000FCF7BEFC0134E9E719467CE003F0FCFA82
:1078B00002F063FD013503F045FC02F0E4FB042D0A
:1078C00006F104067FF4DFAC00231C460022249955
:1078D000CD18C8586968091AB2EBA10F03D240F855
:1078E00022400132F3E70C33302BEFD103F0DCFA06
:1078F00002F043FD07A8FCF711FF1BA8FDF796FB5C
:10790000029B0133FFF790BB03F0CEFA37B0BDEC1A
:10791000068BBDE8F04F02F030BD00BF5C54032081
:10792000B4E4032074550320107E0320E07D03207F
:1079300020E50320105403207C7E03209C54032068
:10794000F8E50320B05503204455032084E40320C8
:1079500003F0AAFA279A2A492B46FCF749FD0C2482
:107960006C434FF00009249A131912595B689B1A53
:10797000B9EBA30F9AD203F0E5FB249B1B5913F834
:1079800029103031FCF74CFC03F08EFA249B1B5974
:1079900053F82930002B834686DA2D21039302F019
:1079A000E9FC039B59420A22584602F0FCFC09F10B
:1079B0000109D8E7032DCBD1124927A8FCF7A4FF72
:1079C00000283FF451AFDFF844900F4BD9F8240062
:1079D000596AD0E90032D21AD1E909135B1A9B1017
:1079E000C3EBA203A342B3D903F0ACFB3021FCF7F5
:1079F00017FC0134E9E737B0BDEC068BBDE8F08F2A
:107A0000BDE60B00107E0320E07D032044550320DB
:107A100010B5044603F07AF9204610BD38B5044687
:107A2000154602F0A3FC0549204602F09FFC2946BA
:107A30002046BDE8384002F0ACBC00BFAFE30B000D
:107A400038B50546144602F091FC0B49284602F071
:107A50008DFC002C0DDA2D21284602F08BFC6142B2
:107A600028460A2202F09FFC2846BDE8384002F072
:107A700084BC2146F4E700BFAFE30B002DE9F04FD3
:107A80000E4691B098464FF0FF3313600446002134
:107A90003046DDF86890174602F0FDFDD6F838E074
:107AA000034698B9BEF1000F14BF724650223168E8
:107AB00092B2204602F02AFF051E18BF0125C5B963
:107AC000204611B0BDE8F04F03F0D6B8764B0A93CC
:107AD00006F1140CBCE80F000BAD0FC5DCF800304C
:107AE0002B701FFA8EF200230AA9204602F0EEFF47
:107AF000E2E74946204602F039FC6C49204602F094
:107B000035FCB16A204602F031FC6949204602F09A
:107B10002DFC6849684A2046FFF780FF0021304667
:107B200002F0B9FD20B9326864492046FFF776FFBC
:107B300006F13C0A0021504602F0ADFD28B9726CF6
:107B40005F492046FFF77CFF06E05E49484604F0A7
:107B5000A5FB02460028F3D0B8F1000F0ED0D8F8EC
:107B6000001059B1D8F80420204622B1FFF756FF83
:107B700008F10808F3E702F00CFCF9E7204602F0F0
:107B8000FCFB204602F022FE0021504602F083FD5D
:107B900018B9F16B204602F0FCFB04F11C0A4FF40B
:107BA00020520021504604F043FB00F0DFFD01901D
:107BB00000F0DCFD4FF00008464641F2883B2046CD
:107BC00003F000F8E8B1204602F0E6FD814600F03F
:107BD000CDFD42F2FE739E42019004D8A31983F8B2
:107BE0001C900136EBE742F2FF739E42F9D104F597
:107BF0000053002283F81B28204603F03DF8A846D6
:107C0000EFE7A319187700F0B1FD019BA0EB030982
:107C1000B8F1000F04D1D94502D8C82000F0CAFF3E
:107C2000204602F0F1FE20B1D94502D8B8F1000F8C
:107C3000C5D0204603F020F8514602A802F053FCBC
:107C40000C23092202A906A802F04AFD1E490AA82F
:107C500002F049FC0AA902A802F03EFD04460AA867
:107C600002F0F6FB631C08D106A802F0F1FB02A8A3
:107C700002F0EEFB11B0BDE8F08F3D1D1349284620
:107C800002F079FC221D02A90AA802F049FD0AA906
:107C9000284602F0ACFC0AA802F0DAFB069804F0D1
:107CA0008BFA3860E0E700BF04EB0B0044E60B0002
:107CB00048E80B005AE80B0054E80B0065E80B009D
:107CC0006AE80B0079E80B007EE80B0082E80B0005
:107CD000704710B50C210446FCF7E3F9204610BDAF
:107CE00010B5054B0360037C04461BB9406808B11E
:107CF00000F018FF204610BD90E80B0010B50446B8
:107D0000FFF7EEFF20461421FCF7CBF9204610BD0B
:107D100010B5074B0360037C04461BB9406908B1EA
:107D200000F000FF2046FFF7DBFF204610BD00BF3C
:107D3000A0E80B0010B50446FFF7EAFF20462C210F
:107D4000FCF7AFF9204610BD38B5037C04460D465C
:107D50000BB1002038BD406838B100F0EBFE0028C0
:107D6000F7D0C4E901050120F4E7084600F0D2FE8F
:107D7000F5E770B5C3680E461546D118426804464B
:107D800072B182688A420BD36068E3682A46314642
:107D9000184404F025FAE2682A44E260012070BD2C
:107DA0002046FFF7D1FF0028EED1F8E74368002115
:107DB000C16023B1826812B1184604F039BA704725
:107DC00010B5C0E901120022C260012202744361B1
:107DD000024A029B0260C36110BD00BFA0E80B0015
:107DE000D1E905239A42044B38BF8260C0E90031D3
:107DF00024BF002383607047B0E80B0070B51368A0
:107E00009D68136803F1100414608669B4420AD2B5
:107E10009B698C68A34201DAAB42F2DDA342CCBF7E
:107E20000020012000E0002070BD2DE9F341089DF5
:107E3000984601F110030446174601930026019865
:107E4000A36983421AD982688B689A4216DAAE42D5
:107E50000BD1386001AA2046FFF7D0FF28B1019B63
:107E6000C8F8003002B0BDE8F08101AA2046FFF753
:107E7000C5FF20460136FFF7C1FFE0E70020F1E72C
:107E8000F7B51F4601F1100304461646019300257D
:107E9000019BA2699A420FD998688A6890420BDACE
:107EA000B54203D13B60012003B0F0BD01AA2046DA
:107EB0000135FFF7A3FFEBE70020F5E7F0B5013B45
:107EC0000024D1E90176F61BA64208DDA34206DDB7
:107ED00045683D442D5D02F8015B0134F1E7002364
:107EE0001370F0BD1FB5144610236A46FFF7E6FF76
:107EF00004492246684600F025FE431E5842584178
:107F000004B010BD64EB0B001FB5144610236A4685
:107F1000FFF7D4FF6846002105F034F8012084ED16
:107F2000000A04B010BD000073B50D4689680A4E02
:107F3000044661B1686801ABFFF7A2FF38B16B6816
:107F4000C4E90063019BA360204602B070BD6B686A
:107F5000C4E900630023F6E7B0E80B0007B5019120
:107F6000816819B1406801AAFFF7BCFF019803B00E
:107F70005DF804FB07B581688DED010A19B1406811
:107F800001AAFFF7C1FF9DED010A03B05DF804FBF4
:107F900010B5044600680B4628B102F02CFBE368DC
:107FA0000133E36010BD60680028F8D0D4E90221F5
:107FB000013A8A4288BF4354F1E703467F2B37B525
:107FC0000846D9B204D803B0BDE83040FFF7E0BF9F
:107FD00001F03F01B3F5006FC3F3871541F0800452
:107FE00007D245F0C0010190FFF7D2FF019821466A
:107FF000E9E71B0B43F0E0010190FFF7C9FF05F033
:108000003F01019841F08001EEE700002DE9FF47B4
:1080100000244E68DFF8CCA080460F461546A146E6
:10802000B868B0425ADDD8F80430995D9A19002C2E
:108030004BD0752905D86D2907D862291ED066292D
:108040001ED02846FFF7A4FF3DE0A1F16E04072CE7
:10805000F7D80FF2080C5CF824F000BF85800B0005
:1080600043800B0043800B0043800B0089800B0092
:1080700043800B008D800B0091800B000821E0E70E
:108080000C21DEE70A21DCE70D21DAE70921D8E738
:10809000311D884217DD02A904333344084612F823
:1080A000014F01F8014B9A42F9D101AA51468DF8CE
:1080B0000C9000F047FD012805D1BDF804002946C9
:1080C000FFF77BFF0536002404E05C2904D0284636
:1080D000FFF75EFF0136A3E70124FBE7012004B0B0
:1080E000BDE8F08783E80B007FB50C4606460C49D7
:1080F0001046154602F03FFAD4E90131C91A0131A0
:10810000284602F0C3F900236A4621463046CDE9ED
:10811000013300950393FFF779FF04B070BD00BFF2
:1081200082E80B002DE9F04389B00546884604A893
:1081300012491646994602F0D6F9002700974B4699
:1081400003AA41462846FFF770FE044670B1039922
:1081500004AA2846FFF7C8FF044608B90137EDE72F
:10816000314604A802F097FA0028F7D004A802F0DC
:108170006FF9204609B0BDE8F08300BF82E80B002C
:1081800073B50D4689680A4E044661B1686801AB53
:10819000FFF7C8FF38B16B68C4E90063019BA360B7
:1081A000204602B070BD6B68C4E900630023F6E7A7
:1081B000B0E80B0038B50D460549044602F093F9C6
:1081C000A96819B168682246FFF78EFF204638BDBE
:1081D00082E80B002DE9F04F44684FF0010C4FF09E
:1081E000FF36D0F800E0964580F0B98111F80E8096
:1081F000B8F1000F00F0B381B8F13A0F00F09880A9
:1082000033D8B8F1220F00F0A68010D8A8F10908E1
:108210005FFA88F8B8F1170F0DD89F4D0CFA08F8DF
:1082200018EA050F07D0056801350560D9E7B8F1F0
:108230002C0F00F03381D0F8008042450ED911F8A0
:1082400008505DB13A2D00F269811F2D00F2518175
:108250000A2D00F26081082D40F25681002B40F07B
:10826000628108F1FF350560A5E0B8F17B0F37D0DA
:108270002ED8B8F15B0F33D0B8F15D0FDBD1002BF6
:10828000D1D04FF002094568013D03EB0518002DE0
:1082900055DBD8F8047001374DD0D8F808A0BAF1F2
:1082A000FF3F48D198F800B0CB454BD10EF1010EFD
:1082B000C0F808A0C8F808E003EB051EDEF804705B
:1082C000013742D0DEF8087001373ED18560AAE759
:1082D000B8F17D0FAFD1002BA5D04FF00109D2E747
:1082E0000134002B9FD04568099FAF424AD905F160
:1082F000010EC0F804E003EB051ECEE901664FEA6B
:10830000051A0025CEF80C5085686F1C1FBF03EBC3
:108310000519D9F80C500135C9F80C50B8F17B0F8C
:108320000CBF0125022503F80A500568CEF8045059
:108330004568013DCAE7013DA8F11008A7E70135EE
:108340007FF471AF6FF001041EE0013D6F1CAEF1D0
:10835000100EB3D167E70EF10109C0F80090D0F814
:108360000080424540F2938011F80850002D00F043
:108370008E80222D30D1F3B14568099FAF4206D8D7
:10838000C0F800E04FF0FF342046BDE8F08F05F163
:10839000010E4FEA051803EB0515C0F804E0C5E926
:1083A00001660027EF60D0F800E04FF0030A03F801
:1083B00008A0C5E9019E85686F1C04F101043FF423
:1083C00032AF002B3FF42FAF03EB051EDEF80C504D
:1083D0000135CEF80C5026E75C2D11D108F10105CE
:1083E000AA420DD905604D5D752D2BD86D2D0BD88A
:1083F000662D27D85B2D1DD8222D01D02F2D21D100
:10840000056801350560AAE76E3D072D1AD801A75A
:1084100057F825F001840B0045840B0045840B00C0
:1084200045840B0001840B0045840B0001840B0084
:108430004B840B005C3DEDB20CFA05F540F2414770
:108440003D42DDD1C0F800E07CE708F1020505609F
:108450004FF0040AD0F80080424503D80568013D7A
:108460000560CDE711F80850002DF7D0A5F1300BCD
:10847000BBF1090F04D925F02005413D052DE1D8B8
:1084800008F10105BAF1010A0560E3D1E6E7C0F899
:1084900000E06FF0020477E713008000002B3FF448
:1084A000C2AE85686F1C3FF4BEAE2D015D5D013D1F
:1084B000012D7FF6B8AE456805F1FF3803EB051EC8
:1084C000B8F1000FFFF6AFAE1EF8105C013D012DB4
:1084D0000AD85EF80C5C013506D05EF8085C013500
:1084E00002D1C0F808809EE608F1FF38AEF1100E08
:1084F000E6E7A5F12009244F5FFA89F90CFA09F99A
:1085000019EA070F7FF4AAAE203D5E2D9AD808F134
:10851000010505608FE60D2DF6D19FE605F0DF0918
:10852000B9F15D0FF8E74568099FAF427FF628AFC4
:1085300005F101084FEA051903EB0515C0F80480A1
:10854000C5E901660027EF60D0F800804FF0040A0B
:1085500003F809A0C5E901E80568013D83E6002BA1
:108560003FF412AF4268511E03EB02130029FFF6DD
:108570000BAF53F80C2C013203D053F8082C013206
:1085800087D00139103BF1E701100004F7B5C2684C
:10859000044612B9002003B0F0BD436900F1200683
:1085A000ABB10021C0E908114FF0FF318162C16910
:1085B000009141683046FFF70DFE431C28D1257C11
:1085C000002DE7D1606900F0ADFA6561E561002535
:1085D0004FF0FF37C4E90855E2686168A76200956B
:1085E0002B463046FFF7F6FD0028D3DBE06117D0BD
:1085F000000100F08FFAE269606103460092C4E96D
:108600000855E2686168A7623046FFF7E3FD01E0C4
:108610000028BFDB636903EB0010A0610120BAE70B
:108620006369A361FAE7000008B5024B1B689B6809
:10863000019308BD7802030008B5024B1B681B6D4F
:10864000019308BD7802030008B5024B1B689B6DBF
:10865000019308BD7802030008B5024B1B681B6E2E
:10866000019308BD7802030008B5034B1B68D3F8DB
:108670009830019308BD00007802030008B5034B51
:108680001B68D3F8A830019308BD000078020300EE
:1086900008B5034B1B68D3F8B430019308BD000044
:1086A0007802030008B5034B1B68D3F8D830019358
:1086B00008BD00007802030008B5034B1B68D3F81F
:1086C000DC30019308BD00007802030008B5034BBD
:1086D0001B68D3F8EC30019308BD0000780203005A
:1086E00008B5034B1B68D3F8F030019308BD0000B8
:1086F0007802030008B5034B1B68D3F800310193DF
:1087000008BD00007802030008B5034B1B68D3F8CE
:108710000431019308BD00007802030008B5024B44
:108720001B685B6C019308BD4802030008B5024B4F
:108730001B68DB6C019308BD4802030008B5024BBF
:108740001B685B6D019308BD4802030008B5024B2E
:108750001B685B68019308BD1802030008B5024B53
:108760001B68DB68019308BD1802030008B5024BC3
:108770001B685B69019308BD1802030008B5024B32
:108780001B68DB68019308BD2802030008B5024B93
:108790001B689B69019308BD2802030008B5024BC2
:1087A0001B68DB69019308BD2802030008B5024B72
:1087B0001B681B6A019308BD2802030008B5024B21
:1087C0001B685B6A019308BD2802030008B5024BD1
:1087D0001B689B6A019308BD2802030008B5024B81
:1087E0001B68DB6A019308BD2802030008B5024B31
:1087F0001B681B6B019308BD2802030008B5024BE0
:108800001B681B6C019308BD2802030008B5024BCE
:108810001B681B6D019308BD2802030008B5024BBD
:108820001B685B69019308BD6C02030008B5024B2D
:108830001B685B69019308BD6402030008B5024B25
:108840001B681B6A019308BD6402030008B5024B54
:108850001B689B6A019308BD6402030008B5024BC4
:108860001B689B68019308BD6802030008B5024BB2
:108870001B68DB68019308BD6802030008B5024B62
:108880001B689B69019308BD3802030008B5024BC1
:108890001B68DB69019308BD3802030008B5024B71
:1088A0001B681B6A019308BD3802030008B5024B20
:1088B0001B689B6A019308BD3802030008B5024B90
:1088C0001B681B6B019308BD3802030008B5024BFF
:1088D0001B689B6B019308BD3802030008B5024B6F
:1088E0001B68DB68019308BD3C02030008B5024B1E
:1088F0001B681B69019308BD3C02030008B5024BCD
:108900001B685B69019308BD3C02030008B5024B7C
:108910001B689B69019308BD3C02030008B5024B2C
:108920001B68DB69019308BD3C02030008B5024BDC
:108930001B689B6A019308BD3C02030008B5024B0B
:108940001B681B6C019308BD3C02030008B5024B79
:108950001B681B68019308BD4C02030008B5024B5D
:108960001B685B68019308BD4C02030008B5024B0D
:108970001B681B69019308BD4C02030008B5024B3C
:108980001B685B69019308BD4C02030008B5024BEC
:108990001B689B69019308BD4C02030008B5024B9C
:1089A0001B68DB69019308BD4C02030008B5024B4C
:1089B0001B681B6A019308BD4C02030008B5024BFB
:1089C0001B685B6B019308BD6002030008B5024B96
:1089D0001B681B6D019308BD6002030008B5024BC4
:1089E0001B685B68019308BD2002030008B5024BB9
:1089F0001B685B69019308BD2002030008B5034BA7
:108A00001B68D3F88830019308BD000020020300E2
:108A100008B5034B1B68D3F89430019308BD0000E0
:108A20002002030008B5024B1B68DB6B019308BDF5
:108A30004402030008B5024B1B685B68019308BD44
:108A40004002030008B5024B1B689B68019308BDF8
:108A50004002030008B5024B1B68DB68019308BDA8
:108A60004002030008B5024B1B681B69019308BD57
:108A70004002030008B5024B1B685B69019308BD07
:108A80004002030008B5024B1B689B69019308BDB7
:108A90004002030008B5024B1B68DB69019308BD67
:108AA0004002030008B5024B1B681B6A019308BD16
:108AB0004002030008B5024B1B685B6A019308BDC6
:108AC0004002030008B5024B1B689B6A019308BD76
:108AD0004002030008B5024B1B681B6B019308BDE5
:108AE0004002030008B5024B1B685B6B019308BD95
:108AF0004002030008B5024B1B681B6C019308BDC4
:108B00004002030008B5024B1B685B6C019308BD73
:108B10004002030008B5024B1B681B68019308BDA7
:108B20001C02030008B5024B1B685B68019308BD7B
:108B30001C02030008B5024B1B689B68019308BD2B
:108B40001C02030008B5024B1B685B69019308BD5A
:108B50001C02030008B5024B1B685B6A019308BD49
:108B60001C02030008B5024B1B68DB6A019308BDB9
:108B70001C02030008B5024B1B681B6B019308BD68
:108B80001C02030008B5024B1B68DB6B019308BD98
:108B90001C02030008B5024B1B681B6C019308BD47
:108BA0001C02030008B5024B1B685B6C019308BDF7
:108BB0001C0203000021FFF719BF70477047704780
:108BC00070470000064B994210B500F10C0405D027
:108BD000084602F029FB002808BF0024204610BDEB
:108BE00058EA0B00064B994210B500F10C0405D071
:108BF000084602F019FB002808BF0024204610BDDB
:108C000058EA0B00064B994210B500F10C0405D050
:108C1000084602F009FB002808BF0024204610BDCA
:108C200058EA0B0010B568210446FBF73AFA2046D3
:108C300010BD10B528210446FBF733FA204610BDBD
:108C400010B530210446FBF72CFA204610BD6821F0
:108C5000FBF727BA2821FBF724BA3021FBF721BA0A
:108C6000F0B50025EC1C8C420DD86E1C445D875D70
:108C7000974205D12644B14205D31D60601CF0BD6A
:108C800001342544EEE70020F9E70000024A0349D9
:108C90000A20FFF793BE00BF5D870B00B8E80B000A
:108CA00030B40D4611461A46036809682868D3E9AE
:108CB0000043A44630BC6047012A38B5044602D1BF
:108CC0000B68236003E0022A03D0032A0DD00020A2
:108CD00038BD08200D68FBF7DEF903460028F0D008
:108CE00095E8030083E80300EBE700680028EED076
:108CF0000821FBF7D6F9EAE710B58368044613B1FB
:108D0000032201469847204610BD10B5044658304E
:108D1000FFF7F2FF04F14800BDE8104001F098BBF6
:108D200010B54368013B0446436063B903689B6820
:108D30009847A368013BA3602BB923682046DB68F2
:108D4000BDE81040184710BDA0F13003DAB2092A7F
:108D500001D818467047A0F16103052B01D8573898
:108D60007047A0F14103052B94BF37384FF0FF3017
:108D70007047000010B500230370044B04461868C8
:108D8000FFF7D4FC01232370204610BDC0E603206A
:108D900010B5037804461BB1024B1868FFF7CEFCF0
:108DA000204610BDC0E6032082B00346086849682B
:108DB0006A4603C26A4603CA18601846596002B080
:108DC000704708B582798B799A4206D1062203F062
:108DD000F7F9B0FA80F0400908BD0020FCE74FF039
:108DE000FF33036083800020704708B502460021EE
:108DF00001604160FFF7F3FF9171104608BD00006C
:108E000010B501230361054B024603F1100153F82D
:108E1000044B42F8044B8B42F9D110BD66EA0B00BB
:108E200010B50B460446B1B1012A01F110020AD176
:108E3000014653F8040B41F8040B9342F9D1012386
:108E40002361204610BD411E12F8010D01F8010FEB
:108E50009A42F9D1F3E7102203F0EAF9F1E738B5C5
:108E6000044615461A46FFF7DBFFA581204638BDAC
:108E700008B5026922B98089003818BF012008BDF1
:108E80000249102203F09CF9F6E700BF86EA0B00C6
:108E90000069704738B50C4614220021054603F0DE
:108EA000C7F923691BB9A3892B80284638BD012344
:108EB0002B7421462B4604F1100251F8040B43F8A1
:108EC000040B9142F9D1F0E780897047704708B5EB
:108ED00002690B699A4206D1102203F071F9B0FAC7
:108EE00080F0400908BD0020FCE7000001232DE9C7
:108EF000F3410361344B0C460646024603F1100170
:108F000053F8040B42F8040B8B42F9D144B32421EB
:108F1000204603F0F1F904284FF0000523D1ADF805
:108F2000045001AFA51C063415F8020CFFF70CFF26
:108F3000B0F1000812DB15F8010CFFF705FF00285F
:108F40000CDB023540EA0810A54207F8010BEBD113
:108F50009DF8053033739DF804307373002333613B
:108F600002B0BDE8F0814FF010082421204603F044
:108F7000C3F9A84207D842460021304602B0BDE8F6
:108F8000F04103F055B9B8F1000FE9D0605DFFF78B
:108F9000DBFE030615D4000108F1FF38C7B206F85E
:108FA00008702421204603F0A7F90135A84208D90A
:108FB000605DFFF7C9FE40B20028A4BF384306F841
:108FC00008000135D1E700BF66EA0B0013B504467F
:108FD0000191FFF715FF20460199FFF787FF204613
:108FE00002B010BD38B54FF6FF730025044643802C
:108FF0000E22294605700571063003F019F904F1B7
:109000001400FFF7FDFE04F12800FFF7F9FE044904
:1090100004F13C0001F067FA6565204638BD00BFE9
:1090200082E80B0010B5D0E9063203EBC20293428E
:10903000184606D0046824888C4203F10803F6D150
:1090400010BD0020FCE70000F0B5064685B01F46C5
:109050000D46002950D0002A4ED004682378F42A07
:1090600028BFF42243B32379980709D5A089039236
:109070000023FFF70DFB0028039A03DA05B0F0BDCB
:109080006FF0770034682379D90609D5012F07D00E
:10909000A0890023294605B0BDE8F040FFF72ABBB0
:1090A0009B06EBD5022FE9D0A0890023294605B005
:1090B000BDE8F040FFF728BB60884FF6FF7188429B
:1090C0001CD021794E0701D5012F04D10B0709D4FB
:1090D0006FF07700D2E7A189009313462A46FFF785
:1090E000EBFACBE7022FF3D00023A18900931346BC
:1090F0002A46FFF7D7FAC1E70248BFE76FF0D10071
:10910000BCE700BFF2FEFFFF37B50C460546F42171
:109110002046019203F0F0F8019B024621462846C2
:1091200003B0BDE83040FFF78FBF00002DE9F041EC
:1091300000260660074628200C46FAF7ACFF051EFD
:1091400005F10C080FD00123C5E90133084B2B6052
:109150004046FFF755FE0FCC2E6285F82460464648
:109160000FC623683360C7E900853846BDE8F08143
:1091700028EA0B0070B50025056006463020FAF796
:109180008AFF044688B10123C0E90133094B03601B
:109190004FF6FF7383810E30FFF727FEC4E90655B3
:1091A000C4E90855C4E90A55A57574600C343460E7
:1091B000304670BD44EA0B0037B50D46044601A8A1
:1091C000FFF7D8FD2A68D2F802302360D2F80630C3
:1091D000636001A8FFF7DCFD204603B030BD30B569
:1091E000054687B00C4601A8FFF7C4FD2A6823682E
:1091F00012881B889A420DD1294602A8FFF7DCFF8E
:10920000214604A8FFF7D8FF04A902A8FFF7D9FD5B
:10921000044600B9002401A8FFF7BAFD204607B0B4
:1092200030BD000010B504466420FAF734FF68B181
:109230000023C0E90033C0E90233C0E90433C0E9C8
:1092400006330362C362C363C364C365206020B98D
:109250000A4A0B490A20FFF7B1FB0020FFF7E4F9A7
:1092600020B1064A07490A20FFF7A8FB21680648F3
:109270000022FFF735FA204610BD00BF5D870B00C6
:10928000B8E80B00F6E80B000D980B0010B50A4C7F
:109290002378BFF35B8FDB070CD42046FAF703FF7C
:1092A00040B10648FFF7BEFF2046FAF701FF044829
:1092B00002F07CFF014810BDB8E60320C4E603209D
:1092C000D9940B0030B50368093B012B8DB00446DF
:1092D0000D4611D8FFF7DAFFA1880068FFF7A2FE5C
:1092E000034658B92022CDE904200B4A00920B49CD
:1092F00004AA3220FFF76AFB0DB030BD6A6D002A68
:10930000FAD0D4E9032105F14C00CDE90312AC6D8C
:1093100004AA03A9A047EFE738E90B00CFE80B0048
:1093200008B50020FFF780F900EAE07008BD19B920
:109330000A460846FFF780B9D1E900010022F9E7A3
:1093400038B5141E4368054602DB62189A4200DDF8
:109350005C1A2A68501801191A44521A02F04EFF7A
:109360006A68121B6A6038BD37B50A4604460D4666
:1093700001ABD0E90001FFF773FC024638B1019957
:109380002046FFF7DDFF29462046FFF7EDFF03B03B
:1093900030BD10B50C4629B90A460846BDE8104054
:1093A000FFF752B901212046FFF7DEFFD4E90001A3
:1093B0000022F3E738B504461546FFF7B8FF00284A
:1093C0000ADB29462046FFF7E4FF002804DBBDE85E
:1093D00038400020FFF740B938BD000038B5002301
:1093E0000446836008200D46FAF755FE18B12B6835
:1093F00003606B684360034BE360034B2060A36032
:10940000204638BDA18C0B00B98C0B000B680360A3
:1094100013B15A6801325A60704710B551F8043BD5
:10942000044640F8043BFFF7F1FF23680BB9FFF750
:109430002DFC204610BD10B551F8043B044640F801
:10944000043BFFF7E3FF204610BD10B551F8043B85
:10945000044640F8043BFFF7D9FF204610BD10B585
:109460000446006808B1FFF75BFC204610BD10B54C
:1094700004460430FFF7F3FF204610BD70B5D0E975
:109480000053044605EBC306AE4204D0281DFFF787
:10949000E6FF0835F8E72068FFF744FB204670BD7B
:1094A00070B5D0E90053044605EBC306AE4204D0C4
:1094B000281DFFF7D4FF0835F8E72068FFF732FBD7
:1094C000204670BD10B504462430FFF7E9FF04F1D3
:1094D0001800FFF7D3FF10BD70B5174B1C6854B3CD
:1094E00004F15400FFF708FC04F14400FFF704FC0A
:1094F00004F13400FFF700FC04F12400FFF7FCFB4B
:10950000D4E9065305EBC306AE4204D0281DFFF78D
:10951000A6FF0835F8E7A069FFF704FB04F10C008B
:10952000FFF7BEFF2046FFF7A9FF20466421BDE8F4
:109530007040FAF7B6BD70BDC4E6032013B5002332
:10954000D1E90042C1E90033036800930460436835
:10955000426001A80193FFF782FF02B010BD82684C
:1095600010B50AB901F05DFEBDE81040C3681847A8
:1095700038B50D1E0446006803DDFFF7DBFA18B9A5
:1095800038BDFFF7CFFA00202060A5600120F7E783
:1095900008B583688B4202DAFFF7EAFF08BD0120B5
:1095A000FCE72DE9F0410F4641681D4619448368E8
:1095B00099420446904612DC266862683E44D21BFB
:1095C0003146701902F01AFE2A464146304602F032
:1095D00007FE63682B4463600120BDE8F081FFF75C
:1095E000C7FF0028E8D1F8E7F8B50D46D0E9011328
:1095F0009942044616460BDA276862687919521BAD
:10960000481C02F0FBFD7E55636801336360F8BDC2
:109610000131FFF7ADFF0028EED1F8E70A464168B7
:10962000FFF7E2BF2DE9F74304461D460F4601ABA5
:1096300090460A46D0E900019DF82890FFF710FBFC
:10964000AE1C63680246B9F1000F26D128B333443B
:109650001B1AFF2B09D801992046FFF771FE61689C
:1096600020463144FFF794FF18B9606803B0BDE8A5
:10967000F0836A1C0199D2B22046FFF7B5FF019929
:109680003A4601312046FFF7AFFF01992B4642468B
:1096900002312046FFF785FFE7E7F118FF29E4D8FC
:1096A0002046FFF775FF0028DFD0691CC9B22046AD
:1096B000FFF7B4FF39462046FFF7B0FF61682B463D
:1096C0004246E6E730B49DF808501AB1029530BC26
:1096D000FFF7A8BF406830BC70471FB50023C0E942
:1096E000003383600622009301238DF80F20194672
:1096F0000DF10F020446FFF7E5FF204604B010BD50
:109700008842F8B504460D46164614D9904213D245
:10971000A2F10806751AA1F108072C44B74218D027
:109720001CB131462046FFF790FE301DFFF797FE33
:10973000083E083CF2E70CD0B5420AD01CB12946DD
:109740002046FFF782FE281DFFF789FE0835083402
:10975000F2E7F8BDF7B5044646686846FFF775FEC0
:10976000D4E901739F4212DB0137002F29DDF80095
:10977000FFF7D0F90546F0B1D4E9001201EBC202BF
:10978000FFF7BEFF2068FFF7CDF92560A7602368CB
:10979000626803EBC60603EBC202314606F108001D
:1097A000FFF7AEFF1EB169463046FFF74EFE636815
:1097B00001336360012501A8FFF751FE284603B07D
:1097C000F0BD0025DEE7F8B5D0E9004305460F46B9
:1097D00004EBC306A64205D039462046FFF7FFFC3E
:1097E00008B114B9F8BD0834F4E7201DFFF737FEBF
:1097F000D5E9003204F1080103EBC2022046FFF76D
:109800007FFF6B68013B6B60ECE700002DE9F041E6
:1098100005468EB003A80C46FFF7ACFA2E68F31E7F
:109820000D2B3CD8DFE813F00E0053003B00D100B5
:109830003B003B003B003B003B009B009B009B0030
:109840009B009B0004A8FFF795FC049BAA891A8043
:109850006968049808310230FFF7A6FA04A906A83F
:10986000FFF7F3FD06A904F11800FFF773FF0546A3
:1098700007A8FFF7F4FD20230693B5B95D4B5E49B9
:10988000009332202B4606AA0795FFF79FF8049B0A
:1098900029461888FEF7E8FE05A8FFF7E0FD03A8B3
:1098A000FFF776FA0EB0BDE8F081544A009200232B
:1098B0005149079306AA0120FFF788F8E36A002BB5
:1098C000EAD004A904F12400FFF749FEE4E7A989DE
:1098D0002046FFF7A7FB06460028E0D00568D5E93B
:1098E00006324FF6FF71298003EBC2029A4203D081
:1098F00053F8080B4180F9E7D5E9037307EBC30878
:10990000B84504D0381DFFF7AAFD0837F8E7002353
:109910002B61D5E9067307EBC308B84504D0381DA1
:10992000FFF79DFD0837F8E70023EB61AB72E36BAF
:1099300023B1314604F13400FFF711FE0023202249
:10994000CDE906232E4A00922B4906AA0120FFF7F3
:109950003DF8314604F11800FFF735FF9FE7A9896C
:109960002046FFF75FFB002899D0E36C002B96D0D0
:1099700000230D2EADF8163001D0102E17D1002384
:1099800069681A4606258DF8153004918DF8142063
:109990000690DDE9040109AB8DF81C60089583E8A9
:1099A0000300236D06A904F14400984777E70F2EC2
:1099B00001BF2B7A696803F0010208250FBFC3F3CA
:1099C00040031A4619461D46DDE7A9892046FFF7E0
:1099D00029FB014600283FF462AFE36D002B3FF402
:1099E0005EAF6B68069306AA236E04F15400984795
:1099F00055E700BF50E90B00CFE80B0076E90B00FC
:109A000093E90B0013B50B460246D0E900016C4602
:109A100084E8030093E8030082E8030094E803006D
:109A200083E8030002B010BD38B505460C46FFF7C9
:109A3000E9FFAB68A268AA60A360EB68E268EA602D
:109A4000E36038BD70B504468CB00E4601921D46E9
:109A5000FFF7C8FA2671019904F13C0000F08BFD74
:109A600004F14C06CDB1109B029502A904A8039302
:109A7000FFF7B4FC002308A904A80A93FFF7D4FF5A
:109A8000314608A8FFF7D0FF08A8FFF735F904A86A
:109A9000FFF732F920460CB070BD0695EAE70000EA
:109AA0002DE9F04F87B01D46DDE9104380468B4617
:109AB0009246129903930022682002910492FAF7C9
:109AC000EAFA061E06F10C0918D001223746C6E94B
:109AD00001220299154A47F8202B039B00915A4610
