:02000002B0004C
:1040000000400B0038F20B00000006000C00050217
:084010000401E50C00000000B2
:0440180060E20B0057
:1040200009480A49884208B505D0094A824202D0A7
:10403000121A08F06FF80748074A0021121A08F010
:1040400091F8014808BD00BFAC50032018F00B00E8
:10405000A4520320A4520320EDE7032070B5074EBD
:10406000074C06F0D5FFA41BA4080025AC4200D1E4
:1040700070BD56F8043B98470135F7E7CCEF0B00CD
:10408000F0EF0B0002F0E0BD08B502F055FFBDE80F
:10409000084006F075BF04F0D7BC04F0D5BC04F0AE
:1040A000DBBC04F0D9BC0078B0FA80F0400970475E
:1040B000012303707047000010B5034B03600446F2
:1040C00003F0B8FD204610BD64E50B0010B50446B2
:1040D000FFF7F2FF204646F2BC51FFF7E2FF204611
:1040E00010BD000008B5034650B1064A904201D900
:1040F00007F028F80C205843BDE80840FFF7CBBF75
:1041000008BD00BFAAAAAA0A00F1080373B50446B5
:1041100003600D46D9B1084608F06CF80F2805EB8E
:104120000006019007D9002201A9204607F020F8D7
:10413000019B2060A36032462946206807F053F8AF
:10414000019B226863600021D15402B070BD014818
:1041500006F0FBFF74E20B0008B5034650B1064AB7
:10416000904201D906F0EEFF6C205843BDE80840AC
:10417000FFF791BF08BD00BF4B682F0108B503468C
:1041800050B1064A904201D906F0DCFF182058438E
:10419000BDE80840FFF77FBF08BD00BF5555550576
:1041A00008B548B1B0F1005F01D306F0CBFFBDE820
:1041B00008408000FFF76FBF08BD08B548B1B0F1F7
:1041C000805F01D306F0BEFFBDE80840C000FFF7E6
:1041D00062BF08BD73B500F108030360D1E9005365
:1041E0000446EE181DB916B10C4806F0AEFF0F2BB1
:1041F000019307D9002201A9204606F0B9FF019BCF
:104200002060A36032462946206806F0E7FF019B44
:10421000226863600021D15402B070BD74E20B00CB
:104220000368C9B29B68184713B5044661B10846D4
:10423000019107F0DFFF23680199DB680246204601
:1042400002B0BDE81040184702B010BD8142F8B579
:1042500004460D4625D0D1E900710068A368CE1B45
:104260001B1A9E421ED9F010FFF7A7FF0023054638
:104270009E420AD0EA181CBFF918D1E9000103F1E7
:10428000080318BFC2E90001F2E7206818B1A1686D
:10429000091AFFF706FF25603544A56023683344FB
:1042A0006360F8BD6268121A964206D8B942F5D02A
:1042B0003246394607F03CFFF0E712B1394607F0C5
:1042C00037FFD4E90027BB1A2A686D681A44AD1A73
:1042D00000239D42E2D017EB030C1CBFD118D1E99B
:1042E000000103F1080318BFCCE90001F1E7000069
:1042F00081422DE9F84F04468A4636D0D1E9005B69
:10430000D0F800908368394AABEB0507A3EB0903AB
:104310004FEAE708BB4202FB08F828D24046FFF705
:104320002DFF06468046AB450AD0B8F1000F03D0FA
:1043300029464046FFF74EFF08F118081835F2E706
:10434000D4E90058A84504D0284606F033FF1835B4
:10435000F8E7206818B1A168091AFFF7A2FE2660E5
:104360003E44A66023683B446360BDE8F88F46681E
:10437000A6EB0906B74219D84646CA46002E08DD04
:104380002946504606F034FF18350AF1180A013E56
:10439000F4E728EAE8781825666805FB0895AE4238
:1043A000E0D0284606F006FF1835F8E7F610564329
:1043B000002E08DD2946484606F01AFF183509F197
:1043C0001809013EF4E7D4E90056711BDAF80050F1
:1043D000DAF804800D44A845C4D01EB12946304601
:1043E000FFF7F8FE18351836F5E700BFABAAAAAA02
:1043F0000EB403B503AB002153F8042B019305F071
:104400008AFF02B05DF804EB03B070470EB403B549
:1044100003AB012153F8042B019305F07CFF02B09C
:104420005DF804EB03B070472DE9F04FDFF8B4827C
:10443000A24D8DB0A24B1A68D8F80030282101FB9C
:1044400002335A6A2B689A4200F0FF800023DFF89B
:104450009892DFF898A29B4F2B60082406F0BEFCD0
:104460004946064608A805F0D8FF0A22214604A8B6
:1044700006F02DF804A908A806F064F80168304693
:1044800005F021FF04A805F07DFF08A805F07AFFDC
:1044900006F0F2FD214605F089FD06F0EDFD312123
:1044A000FFF7BEFE5FFA84FB06F0E6FD05F085FD32
:1044B00006F0E2FD1822594605F071FD06F0DCFD1C
:1044C00003681B699847002840F3BA8006F086FC11
:1044D0005146064608A805F0A0FF0A22214604A876
:1044E00005F0F5FF04A908A806F02CF8016830468D
:1044F00005F0E9FE04A805F045FF08A805F042FF15
:104500002B683946013368462B6005F086FF182674
:1045100006F0B2FD03685B699847C1B2684606F0D1
:1045200004F8013EF4D106F0A7FD214605F03EFD5A
:1045300006F0A2FD0099FFF777FE06F04FFC6249F6
:10454000064608A805F069FF694608A805F0FAFFC5
:104550000168304605F0B7FE08A805F013FF06F025
:104560008BFD05F02AFD06F039FC5849064608A8DF
:1045700005F053FF0A22214604A805F0A8FF04A96C
:1045800008A805F0DFFF0168304605F09CFE04A88E
:1045900005F0F8FE08A805F0F5FE06F06DFD2146D1
:1045A00005F004FD06F068FD3221FFF739FE06F044
:1045B00063FD05F002FD06F011FC4549064608A81A
:1045C00005F02BFF0A22214604A805F080FF04A96C
:1045D00008A805F0B7FF0168304605F074FE04A88E
:1045E00005F0D0FE08A805F0CDFE06F045FD04223A
:1045F000594605F0D4FC3946684605F056FF0426B6
:1046000006F03AFD03685B699847C1B2684605F059
:104610008CFF013EF4D106F0E1FB2E49064608A8C6
:1046200005F0FBFE694608A805F08CFF01683046DE
:1046300005F049FE08A805F0A5FE684605F0A2FEB3
:104640000134782C7FF40AAFF4E606F0C7FB224968
:10465000224E234F05F037FE0824002506F00CFDFE
:10466000214605F0A3FC06F007FD3121FFF7D8FD38
:1046700006F002FD05F0A1FC06F0FEFC1822E1B2F6
:1046800005F08DFC06F0F8FC03681B6998470028CC
:104690000EDD06F0A3FB0A22214605F01EFE06F001
:1046A0009DFB314605F0FCFD3B6843F82540013594
:1046B0000134782CD2D10DB0BDE8F08FA8E60320EC
:1046C000AC5003200EE70B00D6E20B00E2E20B0039
:1046D000F9E20B0013E30B002BE30B00CDE40B001E
:1046E000FC520320545403209EE20B00B9E20B005D
:1046F00038B54FF4007514230446036085600561E6
:104700000549284606F01CFD03496060284606F06E
:1047100017FDE060204638BD14EB0B0010B50446D1
:10472000006818B1A168091AFFF7BBFC204610BD4C
:1047300010B50446006818B1A168091AFFF7B1FC6A
:10474000204610BD10B50446006818B1A168091ACA
:10475000FFF7A7FC204610BD30B50D688368D0E98F
:104760000042056085B04D6845608D680393002365
:104770008560C1E900338B6001A8CDE90142FFF7F4
:10478000E1FF05B030BD70B5D0E900560446AE4239
:1047900004D0284606F00EFD1835F8E7206818B159
:1047A000A168091AFFF77DFC204670BDB1F1005FDA
:1047B00070B504460D46164602D30C4806F0C8FCF8
:1047C0000023C0E9003383600846FFF7E9FC00EBF3
:1047D0008503C4E90000A3602DB13268834202D092
:1047E00040F8042BFAE76060204670BD3BE30B0005
:1047F0002DE9F341002402AB03E90600C0E90044BF
:10480000134605468460D70042F31C00104AB2EB01
:10481000C30F884602D20F4806F09AFCFFF7CDFC82
:10482000C61902462860AE6023469F420BD0D418BA
:104830001CBF08EB0301D1E9000103F1080318BF15
:10484000C4E90001F1E728466E6002B0BDE8F081DE
:10485000F8FFFF7F3BE30B002DE9F34102AB03E9D7
:1048600006000023C0E900338360164618235E4328
:10487000104B0446F01058430F4B9E420F4601EB7D
:10488000060802D90D4806F063FCFFF777FC0644E2
:1048900005462060A660B84507D01DB139462846B8
:1048A000FFF798FC18371835F5E72046656002B029
:1048B000BDE8F081ABAAAAAAF8FFFF7F3BE30B009B
:1048C000F8B5D1E900370025FF1A0446C0E90055C4
:1048D0008560F8100E46FFF770FCC4E9000007443D
:1048E000A760D6E900760246F61B2B46B34202EBE0
:1048F000030506D01DB1F91803C985E80300083384
:10490000F4E765602046F8BD08B542684B689A42F6
:1049100008D14AB10968006807F0ECFBB0FA80F0F2
:10492000400908BD0020FCE70120FAE72DE9F04F1F
:104930000022A3B004460D469348944904F07EFB40
:10494000934903A805F069FD914907A805F065FDA5
:104950002544A54205D014F8011B03A805F0E5FD88
:10496000F7E706F03BFA039905F0ADFC89490FA87B
:1049700005F053FD0FA903A805F048FE04460FA853
:1049800005F000FD002C5BD18349844D0FA805F094
:1049900044FD0FA903A805F039FE04460FA805F051
:1049A000F1FC2346052203A90FA805F033FE0FA949
:1049B000284605F072FD0FA805F0E4FC621C784C57
:1049C00003A90FA805F046FE0FA9204605F065FDD6
:1049D0000FA805F0D7FC06F001FA2A682368714990
:1049E000FFF714FD2F68256837B3384607F002FC3F
:1049F00006461DB3284607F0FDFB04463822002179
:104A000014A807F0AFFB4C23CDE90F376648139489
:104A100003238DF85030002340680FAA1946CDE9D2
:104A2000116503F0E1FF07A805F0ACFC03A805F051
:104A3000A9FC23B0BDE8F08F3E46DAE72C46DDE75F
:104A40005A490FA805F0E9FC0FA903A805F0DEFDFF
:104A500004460FA805F096FC002C7FD1052203A97F
:104A60000FA805F0F7FD0FA903A805F016FD0FA884
:104A700005F088FC4E4DDFF85C814E494E4ED5E97D
:104A800000239B1ADB104B43A3425BD9282303FB73
:104A900004220FA8D16805F0C0FC0FA903A805F0F7
:104AA00087FD07460FA805F06DFC07B13460336839
:104AB0005A1C05D141490022334804F0BFFAB2E73D
:104AC0002A6828277B43D118D3584968C91A891006
:104AD00008FB01F102AB0BAA4FF0000949000FA837
:104AE000CDF82C90FFF762FE0FA93548FFF734FE92
:104AF0000FA8FFF727FE32682B68324E07FB023300
:104B00000FA80BAA596ACDF82C9002ABFFF74EFE06
:104B10000FA93046FFF720FE0FA8FFF713FEFFF79F
:104B200083FC06F0A9FA3368196805F03FFA06F02D
:104B3000A3FA3321FFF774FB06F09EFA05F03DFA65
:104B400001349AE706F04AF932682B68282101FB04
:104B500002331D49DA68FFF759FC64E71B490FA8C7
:104B600005F05BFC0FA903A805F050FD04460FA853
:104B700005F008FC002C40F0B1810F4D2B6801338B
:104B80002AD11349224697E7ACE603206CE30B00D9
:104B90000EE70B006FE30B0075E30B00A45203203C
:104BA00074E4032077E30B0018E703208EE30B0087
:104BB00054540320CDCCCCCCAC50032094E30B0058
:104BC0009CE60320FC520320A8E30B00B1E30B009A
:104BD000B8E30B0013DA4B68062203A90FA805F00F
:104BE00039FD0FA903A805F058FC0FA805F0CAFB72
:104BF00003A907A805F042FCDFF8D482A44F06F011
:104C0000EDF8039905F05FFB2968D8F80000282229
:104C10004A43831882585B689B1A9E4A9B105343F1
:104C20003A689A4280F0C18001290DD89A4903A8B8
:104C300005F0CBFC60B3994907A805F036FC06F0F7
:104C4000CDF8974905F03FFBDFF888A2DFF858B2AE
:104C50004FF000092E68D8F80010282272438B18F4
:104C60008A585B689B1A8B4A9B1053434B4547D924
:104C7000AEB98C4B0BA8196B05F0CFFB0BA907A89D
:104C800005F096FC002839D00BA805F07BFB22E04C
:104C9000854903A805F099FC0028CCD1D4E700226F
:104CA0002B68D8F800100192282043430FA8CB5856
:104CB0006C2101FB0933196B05F0AFFB07A90FA8A5
:104CC00005F076FC061E0FA818BF012605F05AFB5A
:104CD000019A002AD8D10EB1CAF800902B68012B96
:104CE00009D1594603A805F070FC20B1DAF800306C
:104CF0000133CAF8003009F10109ABE70122CFE71F
:104D0000DFF8D0B1DBF80030013377D0DFF8C8A18D
:104D1000DFF89C912968D8F80020DBF800302820C3
:104D2000484310586C2202FB03000C22466A62437F
:104D300006EB020CB258DCF804C094454FEA430677
:104D400007D000295FD159493030FFF7DDFD002839
:104D500059D0DAF800202644002142F82610012C10
:104D60004FD1534C06F088F93A68236853F8221063
:104D700005F01CF906F080F93421FFF751FA06F02E
:104D80007BF905F01AF906F077F93B6822680133E0
:104D900052F8231005F00AF906F06EF93321FFF7F7
:104DA0003FFA06F069F905F008F92A68D8F800100A
:104DB00028235A438B188A585B689B1A354A9B10E4
:104DC00053433A68013B934214D106F007F839493E
:104DD000394C05F078FA394B606801221A700023CB
:104DE0001A46194603F0D8FD002360681A46194692
:104DF00003F0B2FD3B6801333B6014E6304900220A
:104E00005AE6012486E7D9F800203968264452F88A
:104E10002110DAF8002042F826102A68002A9ED1D4
:104E2000284B0FA8196B05F0F8FA0FA903A805F095
:104E3000BFFB06460FA805F0A5FA56B1DBF8002027
:104E4000DAF8001004EB420251F822101E4A1160F9
:104E500085E7114903A805F0B8FB38B1DAF800205E
:104E6000DBF8001052F83110184AF0E70E4903A899
:104E700005F0ABFB00283FF472AFDBF80020DAF856
:104E800000105200013251F82210104A516066E7BA
:104E90000853032013DA4B68C5E30B00CCE30B0087
:104EA000D2E30B00F0E40320DCE30B0020E5032059
:104EB000FC520320FBE30B0018E70320B4E60320B9
:104EC000E3E30B00E453032050540320B0550320C8
:104ED00054540320C05003209CE6032017490FA818
:104EE00005F09BFA0FA903A805F090FB04460FA854
:104EF00005F048FA002C7FF496AD05F06FFF0F49DE
:104F00000F4D05F0E0F906F0B7F80E4B2A681B6864
:104F100053F8221005F04AF806F0AEF83421FFF7F6
:104F20007FF906F0A9F805F048F8074A2C604FF021
:104F3000FF331360054A136075E500BF08E40B00FA
:104F400008530320FC520320AC500320C050032020
:104F5000002938B504464FEA81050CD0B1F1005F55
:104F600001D306F0EFF82846FFF795F8C4E90000F2
:104F70002844A06038BD0846F8E738B504460D4619
:104F8000AC4204D02046FFF7DDFB0C34F8E738BD17
:104F900010B504464830FFF7F6FB04F1300006F088
:104FA00009F9D4E90901FFF7E8FF606A18B1E16A7D
:104FB000091AFFF776F804F11800FFF7C3FB04F1B4
:104FC0000C00FFF7B5FB2046FFF7A8FB204610BDFD
:104FD00038B504460D46AC4204D02046FFF7D8FF52
:104FE0006C34F8E738BD10B50446D0E90001FFF78E
:104FF000EFFF206818B1A168091AFFF752F82046A0
:1050000010BD38B504460D46AC4208D004F10C0082
:1050100006F0D0F82046FFF7E6FF2834F4E738BD65
:10502000814210B51346A1EB000405D0014622468B
:10503000184607F07DF80346181910BD70B5D1E980
:105040000036F61A00230446C0E900338360B0102E
:105050000D46FFF7A5F8C4E900000644A660024625
:10506000D5E90001FFF7DCFF6060204670BD00005D
:105070007FB504AB03E906000023C0E90033836079
:10508000044613460E46950001EB820142F31D00D3
:105090000A4AB2EB830F02D2094806F059F801918F
:1050A000FFF77EF80544024620600199A56030466E
:1050B000FFF7B6FF606004B070BD00BFFCFFFF7F6C
:1050C0003BE30B008142F7B504460D461DD0D1E904
:1050D000007102688368CE1B9B1A9E4217D9B010DC
:1050E0000191FFF75DF80199024605463846FFF742
:1050F00097FF206818B1A168091AFEF7D2FF256052
:105100003544A56023683344636003B0F0BD436851
:105110009B1A9E4203D83846FFF782FFF2E7F91840
:105120003846FFF77DFFD4E90002D5E90031101AB7
:105130001844F1E72DE9F0410C1A05460B48A4107C
:105140004443164627469046002F08DD2946404630
:10515000FFF7B8FF0C3508F10C08013FF4E724EA2B
:10516000E4740C2000FB0460BDE8F081ABAAAAAA9D
:105170002DE9F04F0025994600F13803C0E90C35C0
:105180004FF0FF33C0E915330446C0E90055C0E9CC
:105190000255C0E90455C0E90655C0E90855C0E903
:1051A0000A55C0E9125599B080F838500565924605
:1051B00000F1180B00F1300800F14807FFF746F83E
:1051C000D4E900239B1AAB424FEAE30102DA5F48BD
:1051D00005F0BEFF09A80191CDE909550B95FFF730
:1051E000B7FE0199099831B100EB81068A00294682
:1051F00006F0B8FF3046D4E90352099963690E936B
:10520000C4E903100CAE0B996161CDE90C52304634
:105210000025CDE909550B95FFF78AFA09A8FFF794
:1052200087FA51465846FFF74DFFD9F8001006950A
:10523000096802AB06AA3046FFF7B8FAD9F80010A1
:105240000795496803AB07AA0FA8FFF7AFFAD9F88B
:1052500000100895896804AB08AA12A8FFF7A6FAFF
:10526000D9F80010099505AB09AAC96815A8FFF778
:105270009DFA626AE36A9B1A2F2B3FD80420FEF73F
:1052800031FFB346054600F1300A8146B9F1000FFF
:1052900003D059464846FFF7D1FE09F10C09D14524
:1052A0000BF10C0BF2D1D4E90901FFF766FE606A3D
:1052B00018B1E16A091AFEF7F4FEC4E9095AC4F804
:1052C0002CA018AD0C3D2846FFF73CFAB542F9D1A9
:1052D0002299404605F08CFF38462399FFF708F8DD
:1052E000249B1B681A68E2655A6822669A68DB6824
:1052F00062662046A36619B0BDE8F08FA56AAD1AB4
:105300002F2D0BD918A93046FFF714FFA16A884248
:105310000546D6D0FFF731FEA562D2E735442946CF
:105320003046FFF707FFD4F8289018AB9D420AD00B
:10533000B9F1000F03D029464846FFF77FFE0C3530
:1053400009F10C09F1E7C4F82890BAE73BE30B0038
:105350002DE9F04F2DED0E8B0128B44DADF5417DBB
:1053600041F00F810024B24BAB60C5E9004403203B
:1053700003F0C6FAAF4BA493AF4BA593AF4BA693E4
:10538000AF4BA793AF4BA893AF4BA993AF4BAA9347
:10539000AF4BAB93AF4BAC93AF4BAD93A4AB7E9302
:1053A00005237F930DF5E87A7EAA534606CA8CA89A
:1053B000FFF71EFAA94BDFEDAA8A9FEDAA8ADFED5F
:1053C000AA9A9FEDAA9ADFEDAAAA9FEDAAAADFEDFD
:1053D000AABA9FEDAABADFEDAADA9FEDAADADFED4D
:1053E000AACA9FEDAACA9FEDAAEA1F460FCB0DF5E8
:1053F000177B8BE80F00042289AD7CABCDF8F0B1B0
:105400007D9293E806002846FFF732FE2822CDE978
:10541000942493AA7A9204220DF506787AAB7B92B3
:1054200093E80600404693949694FFF721FE9DA8CA
:105430009849FEF769FEB0A89749FEF765FEB6A841
:105440009649FEF761FEB0A9789102210DF5E47945
:10545000799178AA4B4606CA83A8FFF7FDF9214641
:1054600010228FA806F07EFE8FAA7692042280AECC
:1054700076AB779293E806003046FFF7F9FD83AAF2
:1054800001929DAA43468CA90296009284482A461E
:10549000FFF76EFE3046FFF755F983A8FFF773F963
:1054A000B6A805F087FEB0A805F084FE9DA805F01B
:1054B00081FE4046FFF746F92846FFF743F98CA8DE
:1054C000FFF72CF9774BB093774BB193774BB293AF
:1054D000774BB393774BB493774BB593774BB693A6
:1054E000774BB793774BB893774BB993774BBA9386
:1054F000B0AA774B7492BB930722764B7592BC93FC
:105500006AAA754BBD938CA813469AE80600FFF76C
:105510006FF99DAA07F1100C0492BCE80F00049FDC
:105520000FC79CE803009DAA729206227392C7E9F6
:10553000000199E8060028460497FFF799FD93AA11
:1055400070923C230422CDE99434719270AB93E8BD
:105550000600404693949694FFF78AFD58465F49AB
:10556000FEF7D2FDA4A85E49FEF7CEFDAAA85D49CC
:10557000FEF7CAFDA4AB02216E930DF5D0796F91B1
:105580006EAA4B4606CA83A8FFF766F92146102289
:105590008FA806F0E7FD8FAA6C9204226CAB6D9287
:1055A00093E806003046FFF763FD83AA43468CA9C3
:1055B000CDE900B202962A464B48FFF7D9FD3046A6
:1055C000FFF7C0F883A8FFF7DEF8AAA805F0F2FD00
:1055D000A4A805F0EFFD584605F0ECFD4046FFF7A6
:1055E000B1F82846FFF7AEF88CA8FFF797F8B0AAF5
:1055F0006A9207226B920DF5C07A6AAA06CA5346D0
:105600008CA8CDEDB48A8DEDB58ACDEDBC8A8DED3B
:10561000BD8ACDEDB0DA8DEDB1DACDEDB2CA8DED4A
:10562000B3CACDEDB6BA8DEDB7BA5FE0B452032080
:105630000000FFFF806927421E43AFC2CC9D274276
:105640000242AFC2959D27426D47AFC2A9A727422C
:10565000054EAFC282B32742444EAFC278E50B007D
:105660001A8B27429A44AFC22F8B27429540AFC274
:10567000D88127424440AFC216822742C144AFC2FC
:105680009EA42742D04BAFC237A427425946AFC28F
:105690008940AFC20EE40B0012E40B0019E40B00CA
:1056A0005CE503209D7E2742B374AFC2AF802742E2
:1056B0008E58AFC24D8027422E48AFC2AD802742E0
:1056C0005741AFC2FF8A27425342AFC2F48A2742F2
:1056D0009847AFC278A927425D5FAFC220E40B00B4
:1056E00025E40B002CE40B000C530320CDEDB8AAED
:1056F0008DEDB9AACDEDBA9A8DEDBB9AFFF778F88A
:10570000B64B03F1280217460FCF0DF51D7CACE810
:105710000F00D7E90001049A059782E803009DAACB
:1057200068920622699299E806002846FFF7A0FCD5
:1057300007F108020FCA93AF87E80F00042166AB98
:105740006697679193E806004046FFF791FC58463C
:10575000A349FEF7D9FCA4A8A249FEF7D5FCAAA844
:10576000A149FEF7D1FCA4AB022164930DF5BC79ED
:10577000659164AA06CA4B4683A8FFF76DF89B495A
:105780000FC98FAF87E80F00042062AB6297639068
:1057900093E806003046FFF76BFC83A8CDE900B024
:1057A0008CA843462A46014602969148FFF7E0FC42
:1057B0003046FEF7C7FF83A8FEF7E5FFAAA805F06D
:1057C000F9FCA4A805F0F6FC584605F0F3FC4046A9
:1057D000FEF7B8FF2846FEF7B5FF8CA8FEF79EFF40
:1057E000844BA493844BA593844BA693844BAA9398
:1057F000844BAB93844BAC93844BAD930520A4AB0B
:105800006093619056A89AE8060003468CA88DED37
:10581000A7EACDEDA89A8DEDA99AFEF7E9FF6F4BA7
:10582000CDF878B11F4660330FCB8BE80F00042012
:105830005F9099E806002846FFF71AFC3B46703354
:105840000FCB93AF87E80F0004205CAB5C975D90B3
:1058500093E806004046FFF70BFC9DA86C49FEF755
:1058600053FCB0A86B49FEF74FFCB6A86A49FEF797
:105870004BFCB0A85A9002205B900DF5A8795AAA6B
:105880004B4606CA83A8FEF7E7FF544B80330FCB85
:105890008FAF87E80F00042058AB5897599093E8D2
:1058A00006003046FFF7E4FB83A801909DA8009016
:1058B0008CA843462A46014602965848FFF758FCF2
:1058C0003046FEF73FFF83A8FEF75DFFB6A805F060
:1058D00071FCB0A805F06EFC9DA805F06BFC40467D
:1058E000FEF730FF2846FEF72DFF8CA8FEF716FFC7
:1058F0004B4BB0934B4BB1934B4BB2934B4BB3933E
:105900004B4BB4934B4BB593B0A84B4B5690B693BF
:1059100008204A4B57900DF5987ABC9356A8484BEF
:10592000BD9390E8060053468CA8CDEDBA8A8DED64
:10593000BB8A8DEDB7EACDEDB89A8DEDB99ACDED74
:10594000BEAA8DEDBFAAFEF753FF244B049F03F1BF
:10595000900CBCE80F000DF51D7EAEE80F009CE832
:10596000070087E807009DA854900720559099E804
:1059700006002846FFF77CFB184BAC330FCB93AFE8
:1059800087E80F00042052AB5297539093E806002B
:105990004046FFF76DFB58462A49FEF7B5FBA4A821
:1059A0002949FEF7B1FBAAA82849FEF7ADFBA4AB35
:1059B0000220509351900DF5947950AA4B4606CA97
:1059C00083A8FEF749FF054BBC330FCB8FAF87E8A9
:1059D0000F0004204EAB4E973AE000BF78E50B0075
:1059E00033E40B0039E40B0040E40B00C8E50B0086
:1059F000E453032097692742B840AFC2FE81274293
:105A0000FB8A27429444AFC2718927427964AFC2AE
:105A1000CCE30B0047E40B004EE40B00445503209D
:105A20001A632742D24BAFC2C46E27421541AFC2A0
:105A3000B58027428640AFC200822742E1812742DB
:105A40007644AFC255E40B005CE40B0063E40B004A
:105A50004F9093E806003046FFF70AFB83A8CDE994
:105A600000B08CA843462A4601460296BA48FFF782
:105A70007FFB3046FEF766FE83A8FEF784FEAAA8E9
:105A800005F098FBA4A805F095FB584605F092FB9D
:105A90004046FEF757FE2846FEF754FE8CA8FEF758
:105AA0003DFEB0A84C9007204D9042A89AE8060011
:105AB00003468CA8CDEDB48A8DEDB58ACDEDBC8AB8
:105AC0008DEDBD8ACDEDB0DA8DEDB1DACDEDB2CA96
:105AD0008DEDB3CACDEDB6BA8DEDB7BACDEDB8AA9E
:105AE0008DEDB9AACDEDBA9A8DEDBB9AFEF780FE89
:105AF0009A4A049FA2F1180EBEE80F000DF51D7C16
:105B0000ACE80F00059803C887E803009DA84A90F9
:105B100006204B9099E806002846FFF7A9FA8F4A1D
:105B20000FCA93AF87E80F00042248AB4897499209
:105B300093E806004046FFF79BFA58468849FEF76F
:105B4000E3FAA4A88749FEF7DFFAAAA88649FEF778
:105B5000DBFAA4AB0220469347900DF5807946AA64
:105B600006CA4B4683A8FEF777FE80490FC98FAF60
:105B700087E80F00042244AB4497459293E806005F
:105B80003046FFF775FA83AA43468CA9CDE900B2E7
:105B900002962A467648FFF7EBFA3046FEF7D2FD2A
:105BA00083A8FEF7F0FDAAA805F004FBA4A805F061
:105BB00001FB584605F0FEFA4046FEF7C3FD2846B5
:105BC000FEF7C0FD8CA8FEF7A9FD6A4BB0936A4BA7
:105BD000B1936A4BB293B0AA694B4292B393082235
:105BE000684B43920DF1E00AB49342AA664BB59319
:105BF00006CA53468CA8CDEDB68A8DEDB78ACDED99
:105C0000BE8A8DEDBF8ACDEDB89A8DEDB99ACDEDF6
:105C1000BAAA8DEDBBAACDEDBCBA8DEDBDBAFEF72B
:105C2000E7FD5A4B049FDFED5A8A9FED5A8A03F134
:105C3000CC0CBCE80F000DF51D7EAEE80F009CE813
:105C4000070087E807009DAA40920722419299E841
:105C500006002846FFF70CFA4C4BE8330FCB93AF06
:105C600087E80F0004223EAB3E973F9293E8060080
:105C70004046FFF7FDF958464749FEF745FAA4A804
:105C80004649FEF741FAAAA84549FEF73DFAA4ABFA
:105C900002213C930DF1D8093D913CAA4B4606CA1E
:105CA00083A8FEF7D9FD394BF8330FCB8FAF87E8C8
:105CB0000F0004223AAB3A973B9293E80600304635
:105CC000FFF7D6F983AA43468CA9CDE900B2029624
:105CD0002A463448FFF74CFA3046FEF733FD83A8D6
:105CE000FEF751FDAAA805F065FAA4A805F062FA2E
:105CF000584605F05FFA4046FEF724FD2846FEF7B9
:105D000021FD8CA8FEF70AFD274BB093274BB193DA
:105D1000274BB293274BB393274BB493274BB593A1
:105D2000274BB693274BB793274BB893274BB99381
:105D3000274BBA93B0AA274B3892BB930722264B26
:105D40003992BC932EAA254BBD938CA813469AE892
:105D50000600FEF74DFD43E0E07D0320B8E50B00B3
:105D60006AE40B0071E40B0078E40B00C8E50B005B
:105D7000F0E40320766A27422B69AFC25F6B2742AB
:105D8000CD56AFC22D8A2742D856AFC278E50B0058
:105D90000266294281288EC27FE40B0084E40B0056
:105DA0008BE40B0084E403201B482942B21A8EC204
:105DB000834F2942931D8EC2E66029422D1D8EC25B
:105DC000F9662942F01A8EC2A5712942E6238EC2D5
:105DD0003774294273338EC27A7D29425D3B8EC26D
:105DE000B14B03F5847C1F46BCE80F000DF51D7E0A
:105DF000AEE80F009CE80300049A82E803009DAA25
:105E000036920622379299E806002846FFF730F9C5
:105E100093AA349232230422CDE99434359234ABE0
:105E200093E80600404693949694FFF721F958466C
:105E30009E49FEF769F9A4A89D49FEF765F9AAA84D
:105E40009C49FEF761F9A4AB022132930DF1B00930
:105E5000339132AA4B4606CA83A8FEF7FDFC2146C1
:105E600010228FA806F07EF98FAA3092042230AB60
:105E7000319293E806003046FFF7FAF883AA4346CA
:105E80008CA9CDE900B202962A468B48FFF770F93B
:105E90003046FEF757FC83A8FEF775FCAAA805F06C
:105EA00089F9A4A805F086F9584605F083F940461B
:105EB000FEF748FC2846FEF745FC8CA8FEF72EFCB2
:105EC0007E4BA4937E4BA5937E4BA6937E4BA793CC
:105ED0007E4BA8937E4BA9937E4BAA937E4BAB93AC
:105EE0000422A4AB2E932F920DF1900A2EAA5346B2
:105EF00006CA8FA8FEF77CFC07F5907393E80700AD
:105F000003232C952D9385E8070099E806008CA8BB
:105F1000FFF7AEF82822CDE9982404222AABCDF869
:105F2000A8B02B9293E80600404697949A94FFF706
:105F30009FF89DA86949FEF7E7F8B0A86849FEF701
:105F4000E3F8B6A86749FEF7DFF8B0A92891022167
:105F50000DF18809299128AA4B4606CA83A8FEF7A5
:105F60007BFC2146102293A806F0FCF893AA269207
:105F7000042226AB279293E806003046FFF778F814
:105F800083AA01929DAA43468FA902960092564881
:105F90008CAAFFF7EDF83046FEF7D4FB83A8FEF796
:105FA000F2FBB6A805F006F9B0A805F003F99DA824
:105FB00005F000F94046FEF7C5FB8CA8FEF7C2FBD2
:105FC0008FA8FEF7ABFB494BB093494BB193494BBC
:105FD000B293494BB393494BB493494BB593494B57
:105FE000B693494BB793494BB893B0AA484B249208
:105FF000B9930622474B2592BA931AAA464BBB93F4
:106000008CA813469AE80600FEF7F2FB264BCDF863
:1060100088B003F5967CBCE80F005F460FC7DCF83C
:1060200000303B600523239399E806002846FFF7DC
:106030001FF893AA20922D230422CDE994342192B3
:1060400020AB93E80600404693949694FFF710F82F
:106050009DA83249FEF758F8A4A83149FEF754F834
:10606000AAA83049FEF750F8A4AB1E9302231F9351
:106070000DF1600A1EAA534606CA83A8FEF7ECFB80
:10608000214610228FA806F06DF88FAA1C920422D8
:106090001CAB1D9293E806003046FEF7E9FF83AB88
:1060A00001939DAB40E000BF78E50B000EE40B00D0
:1060B00012E40B0019E40B00C8E50320A98429426F
:1060C000E60B8EC2A670294262188EC2E16F294289
:1060D000861E8EC2D1712942CF1F8EC220E40B00D2
:1060E00025E40B002CE40B00785303207A5329425B
:1060F000C9308EC2D0632942F1268EC24B63294239
:106100000D218EC2306E29425A1D8EC278822942DC
:10611000E2268EC2CD9C294270278EC255E40B0028
:106120005CE40B0063E40B002A468CA90296009302
:10613000B5484346FFF71CF83046FEF703FB83A83B
:10614000FEF721FBAAA805F035F8A4A805F032F85F
:106150009DA805F02FF84046FEF7F4FA2846FEF712
:10616000F1FA8CA8FEF7DAFAA84BB093A84BB193DA
:10617000A84BB493A84BB593A84BB693A84BB79331
:10618000A84BB893A84BB993A84BBA93A84BBB9311
:10619000A84BBC93A84BBD93A84BBE93A84BBF93F1
:1061A000B0AB1A9308231B930DF140091AAA4B4672
:1061B00006CA8CA8CDEDB28A8DEDB38AFEF718FB26
:1061C000DFF8C8C2BCE80F000DF51D7EAEE80F0079
:1061D0009CE80700049B83E807009DAB1893072306
:1061E00019939AE806002846FEF742FF93AA1692F2
:1061F00023230422CDE99434179216AB93E80600CA
:10620000404693949694FEF733FF58468D49FDF728
:106210007BFFA4A88C49FDF777FFAAA88B49FDF75F
:1062200073FFA4AB1493022315930DF1380A14AA3B
:10623000534606CA83A8FEF70FFB214610228FA8FB
:1062400005F090FF8FAA1292042212AB139293E8EA
:1062500006003046FEF70CFF83AB2A468CA9CDE939
:1062600000B3029643467A48FEF782FF3046FEF7B7
:1062700069FA83A8FEF787FAAAA804F09BFFA4A8EE
:1062800004F098FF584604F095FF4046FEF75AFA8E
:106290002846FEF757FA8CA8FEF740FA6D4B9D93FF
:1062A0006D4B9E939DAB33600223736096E80600AE
:1062B00008AB8FA8CDED9F8A8DEDA08AFEF798FAE6
:1062C00009AB10930123119399E806000F268CA8BF
:1062D0000996FEF7CDFE04230F93CDF838B09AE867
:1062E00006002846CDE99746CDE99944FEF7C0FE61
:1062F000A4A85449FDF708FFB0A85349FDF704FFCF
:10630000B6A85249FDF700FFB0AB0C9302230D93E2
:106310000CAA07AB06CA4046FEF79EFA2146102299
:1063200093A805F01FFF93AA0A9204220AAB0B92CE
:1063300093E8060083A8FEF79BFE83ABCDE90183BB
:10634000A4AB8CAA8FA9009344482B46FEF710FFFC
:1063500083A8FEF7F7F94046FEF715FAB6A804F051
:1063600029FFB0A804F026FFA4A804F023FF2846C4
:10637000FEF7E8F98CA8FEF7E5F98FA8FEF7CEF94D
:10638000374B38499C60C3E90044374B37489C6021
:10639000C3E90044364B374D9C60C3E90044364B9B
:1063A000DFF8C8809C60C3E90044344BC3E9004473
:1063B0009C6002F0A5FD3249324802F0A1FD32494D
:1063C0002C4802F09DFD0FCD5E460FC6B8E80F00C9
:1063D000D5F800C0C7F800C09DAD0FC5C146049BED
:1063E00059F810A9C3F800A05D460FCDA4AE0FC6A2
:1063F000DFF89CE0C6F800C00DF51D7CCEE9004436
:10640000BCE80F00B0AD45E04C7E03205565294245
:10641000AE308EC24768294245248EC2CC682942DC
:1064200006218EC2CD722942B01D8EC277772942D5
:106430005E1F8EC268762942D5208EC29182294283
:10644000BA308EC2CCE30B0047E40B004EE40B00E5
:106450006C540320F057294251338EC2D854032084
:106460005454032092E40B0060540320C0520320D4
:10647000D47D0320E8520320FC5203209CE6032035
:1064800097E40B00D45203209CE40B00B8E60B0009
:10649000ACE603200FC5B0ABC5F800A07046CDE94F
:1064A000014400937449A4AB4FF0100203F092FA38
:1064B000DFF850C2BCE80F00DE46AEE80F00B9E8D6
:1064C0000F00DCF800E0C7F800E00DF51D7CACE83B
:1064D0000F00049BD8F80090C3F80090DA46BAE8A1
:1064E0000F00DFF8D8810DF5247CACE80F00C6F86A
:1064F00000E09DAEC8E900440FCE0DF5307CACE85D
:106500000F005E4BC5F800900193B0AB4FF0040252
:10651000029400934046A4AB59495A4C03F05AFAEE
:1065200059495A4803F079FF594803F083FD564909
:10653000584803F072FF5449574803F06EFF524920
:10654000564803F06AFF564801F0F4F94FF47A73A5
:10655000009342F2107204F12C01524B204601F0DC
:10656000C1FB514B48492360504803F056FF464950
:106570004F480DF5417DBDEC0E8BBDE8F04F03F0AB
:106580004CBF4B4803F0FEFE484803F0FBFE3D487D
:10659000FDF792FD424B474A9C691A607CB16368E3
:1065A000013B63605BB9236820469B689847A368FA
:1065B000013BA3601BB923682046DB689847374836
:1065C0003D4C03F0DFFE344803F0DCFE314803F0BD
:1065D000D9FE2E4803F0D6FE384802F0E2FE3848D5
:1065E00002F0DFFE3748FEF7ADF83748FEF7AAF8AD
:1065F0003648FEF7F8FC3648FEF7F5FCD4E9000112
:10660000FEF7FFFC206818B1A168091AFDF749FDE3
:106610003048FEF7BDFC3048FEF7BAFC2F48FEF7C5
:10662000B7FC2F48FEF7B4FC2E48FEF7B1FC2E480D
:10663000FEF7AEFC2D48FEF7ABFC2D48FEF7A8FC9C
:106640002C48FEF7A5FC2C48FEF7A2FC2B48FEF7D1
:106650009FFC2B48FEF79CFC286838B10DF5417D66
:10666000BDEC0E8BBDE8F04F02F0F6B90DF5417DA3
:10667000BDEC0E8BBDE8F08FA1E40B002D490B00A3
:10668000A4E40B00B87E03200EE70B0034E60320E1
:1066900044E603205CE6032070E6032084E6032042
:1066A000B8550320F4A5032064E50B00A452032091
:1066B00074E4032018EA0B005454032094E60320EA
:1066C000ACE603209CE60320FC520320D47D03208B
:1066D00060540320D85403206C5403204C7E0320C4
:1066E00078530320C8E5032084E40320F0E403206A
:1066F000E07D032044550320E45303200C53032082
:106700005CE50320D4520320814210B51346A1EB6F
:10671000000405D001462246184605F009FD03464F
:10672000181910BD2DE9F0410D460446FEF7C8F8D2
:10673000D5E903310026C91AC4E9036666618910E8
:1067400004F10C00FEF704FCE268D5E90301FFF751
:10675000DBFF05F11801206104F11800FEF76EFC63
:10676000D5E909372648E662FF1ABB10C4E9096675
:106770005843FDF7B7FCC4E909000744E762D5E9CF
:1067800009780646B84507D01EB139463046FEF7AF
:1067900055FC0C360C37F5E7A66205F1300104F123
:1067A0003000FDF717FDD5E912371548FF1A002311
:1067B000C4E912332365FB105843FDF7DFFCC4E93D
:1067C000120007442765D5E912780646B84507D078
:1067D0001EB139463046FDF7FDFC18361837F5E78F
:1067E000E6646B6D6365AB6DA365EB6DE3652B6E66
:1067F00023666B6E6366AB6EA3662046BDE8F081D0
:10680000ABAAAAAAF8B5D1E90037FF1A0023C0E95C
:106810000033044683600D48BB1058430E46FDF715
:106820009BFCC4E900000744A760D6E90067054661
:10683000B74207D01DB131462846FFF773FF6C35CC
:106840006C36F5E765602046F8BD00BF13DA4B688B
:1068500070B505460E461446B5420FD05CB12946C8
:106860002046FFF7CFFF05F10C0104F10C00FDF706
:10687000B1FC6B6A636228352834EDE7204670BDB1
:106880002DE9F34704460D46FDF7E0FC05F10C0247
:1068900004F10C039A4225D0D5E90381E2686369CB
:1068A000A1EB08069B1A9E424AD9002E46D05D4BAA
:1068B0009E4201D904F046FC30460191FDF7EBFB06
:1068C000019907463A464046FFF71EFFE06818B1B7
:1068D0006169091AFDF7E5FBE76037446761E36822
:1068E0003344236105F1180104F11800FEF7EAFBB7
:1068F00005F1240304F12402934245D0D5E9096A45
:10690000D4F82490E36AAAEB0608A3EB09034345F5
:1069100055D245484FEAA8035843FDF7E3FB074625
:106920008146B24520D0B9F1000F03D03146484628
:10693000FEF784FB09F10C090C36F2E73746C1E794
:1069400023699B1A9E4203D84046FFF7DDFEC6E747
:1069500008EB03014046FFF7D7FED4E90302D5E96F
:106960000331101A1844F0E7D4E90901FEF705FBDA
:10697000606A18B1E16A091AFDF793FB6762474440
:10698000E762636A4344A36205F1300104F1300019
:1069900004F02EFC05F1480104F14800FDF7A8FCC5
:1069A0006B6D6365AB6DA365EB6DE3652B6E236665
:1069B0006B6E6366AB6EA36602B0BDE8F087A76A34
:1069C000A7EB0907B8450DD830464A465146FEF7B1
:1069D000B1FBA76A0646B742D3D03046FDF7B2FEF8
:1069E0000C36F8E7104BBF105F43002F08DD31462F
:1069F0004846FEF767FB0C3609F10C09013FF4E746
:106A0000D4E90967B91B6E6AD5F828900E44B145E0
:106A1000B7D01FB131463846FEF710FB0C360C37A5
:106A2000F5E700BFFCFFFF7FABAAAAAA2DE9F04162
:106A30000C1A05460B48A4104443164627469046B8
:106A4000002F08DD29464046FFF71AFF6C3508F194
:106A50006C08013FF4E724EAE4746C2000FB046056
:106A6000BDE8F08113DA4B6881422DE9F047044616
:106A70000F462CD0D1E9005AD0F800908368AAEBD9
:106A80000508A3EB0903434523D22A484FEAA8038C
:106A90005843FDF761FB06460746AA4507D01FB1DC
:106AA00029463846FFF73EFE6C376C35F5E7D4E9EA
:106AB0000001FEF78DFA206818B1A168091AFDF7E8
:106AC000F0FA26604644A660236843446360BDE84C
:106AD000F0874668A6EB0906B0450DD828464A4619
:106AE0005146FFF7A3FF66680546AE42ECD0284644
:106AF000FEF74EFA6C35F8E70E4BB6105E43002EEB
:106B000008DD29464846FFF7BBFE6C3509F16C09E4
:106B1000013EF4E7D4E90056711B3D687F680D44DF
:106B2000AF42D1D01EB129463046FFF7FBFD6C3590
:106B30006C36F5E713DA4B682DE9F0410C1A05467F
:106B40001048E41044431746A0461646B8F1000F1B
:106B500010DD29463046FFF787FF05F10C0106F1ED
:106B60000C0004F045FB6B6A73622835283608F187
:106B7000FF38EBE724EAE474282000FB0470BDE84A
:106B8000F08100BFCDCCCCCC2DE9F843A2EB0108BD
:106B90008368174602689B1A984504460E462AD910
:106BA000264B984502D9264804F0D2FA25484FEAE8
:106BB000A8035843FDF7D0FA05468146B7420AD0EC
:106BC000B9F1000F03D031464846FFF7ABFD6C36F4
:106BD00009F16C09F2E7D4E90001FEF7F9F9206840
:106BE00018B1A168091AFDF75CFA25604544C4E9AB
:106BF0000155BDE8F8834568AD1AA8450BD839465C
:106C00003046FFF713FF616888420546F1D0FEF772
:106C1000DFF96560EDE70D4430462946FFF706FFD2
:106C20006668AF4207D01EB129463046FFF77AFDAD
:106C30006C356C36F5E76660DBE700BFA4FFFF7FCD
:106C40003BE30B0013DA4B6870B5ADF51E7D04F025
:106C5000C5F84FF4165104F0B5F84FF4FA7001F08E
:106C600043FF02F0ADFA02F0F5FA02F0A9FA9B4AEE
:106C70009B4D014617A802F0D7FF17A802F091FB21
:106C800002F09EFA974A014617A802F0CDFF17A816
:106C900002F087FB02A802F0BAFC0FCD11AC0FC4C2
:106CA0002E68266011AD0FCD17AC0FC417A8266053
:106CB00002F088F8044617A8002C40F0E98002F0A2
:106CC0009DF80094ADF82C0002230BAA032102A822
:106CD00002F092FC02F074FA002202A902F004FB16
:106CE000814C824E17A8FDF703FD04F0C5F903F0AF
:106CF00027F97F49204603F0D8FB50237D49A36341
:106D00007D4C02250620C1E91550C4E915507B4D84
:106D10000322072317A8C5E91523C6E91523FFF7A2
:106D200001FD314632A8FFF7FDFC29464DA8FFF7CB
:106D3000F9FC214668A8FFF7F5FC714983A8FFF725
:106D4000F1FC70489EAA17A9FFF71EFF04246C25CA
:106D500017AB05FB0430FEF71BF9013CF8D26A497A
:106D600017A8FFF7DFFC694932A8FFF7DBFC684989
:106D70004DA8FFF7D7FC674968A8FFF7D3FC664921
:106D800083A8FFF7CFFC65489EAA17A9FFF7FCFE72
:106D900004246C2517AB05FB0430FEF7F9F8013C21
:106DA000F8D2584905A8FFF72DFD5D490BA8FDF75E
:106DB000ABF900241CAB05A917A8CDE91A34CDE91D
:106DC000174419948DF87040FFF74EFE0BA91AA8CE
:106DD00004F00EFA05255149209508A8FFF712FD89
:106DE000504911A8FDF790F926ABCDE92434CDE93F
:106DF000214423948DF8984008A94B4C21A8FFF713
:106E000033FE11A924A804F0F3F92268A3682A9597
:106E10009B1A4F2B44D85020FDF73DF92BA9024671
:106E2000054617A8FFF714FDD4E90001FEF7E9F8BD
:106E3000206818B1A168091AFDF733F93A4B1D60B3
:106E40005035C3E9015524A804F0B4F921A8FEF790
:106E5000CAF81AA804F0AEF917A8FEF7C4F811A8EA
:106E600004F0A8F908A8FEF7BEF80BA804F0A2F9F0
:106E700005A8FEF7B8F82D4800231A4619464068C1
:106E800001F0BAFD029801F0E7FD0DF51E7D70BD21
:106E900001F0B6FF0023009302461023072116E7F6
:106EA0006568AD1A4F2D0BD92BA917A8FFF744FE23
:106EB000616888420546C6D0FEF7A3F86560C2E760
:106EC00017AB1D4429461846FFF736FE62682BA90A
:106ED0002846FFF7BDFC6060B5E700BFACE60320C5
:106EE000C052032094E6032034E60320E07D032013
:106EF000A7E40B00E4530320F0E4032084E4032020
:106F00004455032060540320C8E503206C5403203B
:106F1000D8540320785303204C7E0320D47D0320D3
:106F2000B7E40B00BBE40B005454032018E7032024
:106F30000120FEF70DBA00002DE9F04F2DED068B74
:106F40004E4B0022B7B05868114601F045FD0028AD
:106F500000F0E5844A4B1B78002B00F0E084DFF85A
:106F600060B1484D03F03AFF474903F0ACF9DBE963
:106F70000046B44209D054F8042B039203F02EFFCC
:106F8000039A2946FDF734FAF3E703F027FF03F0ED
:106F90008EF900233D4F3E4E3A6831680393282511
:106FA0006A438B188A585B689B1A3A4A9B10534372
:106FB000039A934240F241844FF47A7001F094FDB9
:106FC000354917A803F029FA3A68336805FB0233FC
:106FD00013A8D96803F021FA13A917A803F0B2FA8D
:106FE0002E4903F0BBFA039B32686C245C433B6878
:106FF0006B438046D35823441BA8196B03F00DFA4A
:107000001BA9404603F09EFA01462548DFF8B480EC
:1070100003F034FA1BA803F0B5F913A803F0B2F992
:1070200017A803F0AFF91F4B1F49204800934246B1
:107030001F4B00F0B5FC03F0D1FE1E4903F043F9ED
:107040001D4800F045FED8F804100491084605F0EC
:10705000D1F804990246184800F01DFE164801F0C8
:1070600027FA814690BB03F0B9FE144937B0BDEC56
:10707000068BBDE8F04F03F026B900BF18E70320E8
:10708000B4E60320CBE40B00C0E40B00AC500320BB
:107090005454032013DA4B68D0E40B00DEE40B00F9
:1070A0005CE60320E6E40B0034E60320B855032039
:1070B000B0500320EAE40B00B87E0320F2E40B009A
:1070C0009CE6032080E60320000000003B68326855
:1070D0001FED039A5D431BA851592144FFF722FB82
:1070E0001BA907A8FDF7ECFB4FF00008A3490DA86A
:1070F00000F008FEA24A0DA910A800F0D3FF00225C
:1071000010A913A800F0A2FE9E4A13A917A800F028
:10711000C9FF424617A90AA800F098FE17A800F078
:1071200069FD13A800F066FD10A800F063FD0DA82E
:1071300000F060FD944A0AA917A800F0B3FF17A950
:1071400013A800F0C9FF17A800F054FD8F4A0AA940
:1071500010A800F0A7FF10A917A800F0BDFF10A805
:1071600000F048FD8A4A0AA910A800F09BFF002100
:1071700010A800F085FE044610A800F03BFD854AEB
:107180000AA910A800F08EFF10A8B0EE490A00F07E
:1071900083FE10A8F0EE408A00F02CFD7E4A0AA97A
:1071A00010A800F07FFF10A8B0EE490A00F074FEAE
:1071B00010A8B0EE408A00F01DFD159B012B00F2D7
:1071C000828003F00BFE7549754FDFF8E08103F014
:1071D0007AF817A803F0D6F813A803F0D3F80AA892
:1071E00000F008FD039B0025DE003B68002B40F00B
:1071F0006E82022D06D06B4927A8FDF785FB00287B
:1072000000F0558203F038FFD8F8001002F0CEFEEF
:1072100003F032FF2D9B0446196817A803F0FDF810
:1072200017992046FDF700F817A803F0ABF803F014
:1072300023FF2D9B0446996917A803F0EEF81799D0
:107240002046FCF7F1FF17A803F09CF803F014FFA9
:1072500002F0B3FE3B68002B40F04F82022D06D0B7
:10726000504927A8FDF750FB002800F0368203F0B4
:1072700003FFD8F8001002F099FE3C68002C40F0A3
:10728000E582022D40F06D824749DFF8249127A85E
:10729000FDF73AFB002800F03682D9F82410D1E936
:1072A00006239B1A9A10D1E900135B1A9B1003EB7B
:1072B0005203A34240F2CA8203F0DEFE3021FCF703
:1072C000AFFF0134E9E7DDE90735ED1AED104FF0C6
:1072D000000AAA4507993BDA01EBCA06D6ED007A07
:1072E00078EEE77A17EE900A04F064FBD6ED017AA7
:1072F00078EE677A02460B4617EE900ACDE9042332
:1073000004F058FBDDE9042341EC1A0B1046194642
:1073100004F0A8FB53EC1A2B06460F461AEE100A8F
:10732000194604F09FFB02460B463046394604F0EE
:10733000E3F941EC100B04F0D3F81E9E51EC100B56
:1073400004F060FE06EB8A060AF1010A3060C0E72D
:10735000DDE91E67BE422FD0321D334697421046EC
:107360002BD0D3ED007A90ED007AB4EE677AF1EE8F
:1073700010FA02F1040248BF0346EFE7B87E03208B
:1073800001E50B0007E50B000EE50B0018E50B000F
:1073900024E50B002EE50B0037E50B0041E50B0063
:1073A000AC50032020E503207455032050540320E3
:1073B000E4530320CCCCCC7D3346309A9B1BB2EBFC
:1073C000A30F4FEAA30008BF319801EBC003D3ED30
:1073D000007AD3ED016AF4EEE78AF1EE10FA77EE67
:1073E000E85A55BF38EE666A76EEC87A78EEE77AE4
:1073F00087EEA57A4FEAC00C58BF86EE277A5FED7C
:10740000137AB5EE407AF1EE10FA0AD0B4EEE77ACC
:10741000F1EE10FABABFBFEE006AC6EE077AF0EEE0
:10742000497AB0EE487AA7EEA57AF4EEC76AF1EE93
:1074300010FA4CBF01270027002871D191ED027A84
:10744000DDF8C4C037EE687AF0EE486AE7EE276AE6
:1074500091ED037AF4EEC76AF1EE10FACCBF012584
:107460000025BCF1000F1DD1531E01EBC301BD422D
:1074700091ED000A91ED017A40F09B8070EE688AF0
:10748000A8EEA78AB4EEC78AF1EE10FACCBF0121AC
:107490000021A94200D1531C9A42C0F28C801146AF
:1074A0009C4605E0BD4274D002468446012319463D
:1074B00006EB8C0006EB810190ED007AD1ED007AAD
:1074C0002198359D50F82C1077EE277A9542C7EE1B
:1074D000276A07EE901AB8EEE78A28EE268A06DBBE
:1074E0003499914203DC9D4201DB994266DD329D75
:1074F000954266DC9D4264DC3399914265DB99429A
:1075000063DB29464B4602258C4561DD50F821207E
:1075100007EE902AF8EEE77A013138EE278AF3E792
:10752000ACF1080C8C449CED007A37EE687AF0EEF2
:10753000486AE7EE276A05F1FF3E431E9CED017A9B
:10754000F4EEC76AF1EE10FACCBF4FF0010C4FF029
:10755000000C864529D1319B834218D1531E01EB83
:10756000C301BC4591ED000A91ED017A02D0AB1E3A
:10757000024691E770EE688AA8EEA78AB4EEC78A41
:10758000F1EE10FACCBF01210021614582E7BC4534
:10759000EDD117A802F0F6FE13A802F0F3FE0AA838
:1075A00008F1010800F026FBA0E5BC45E0D1431C32
:1075B000DEE702467AE71946944679E70023032579
:1075C000A2E700210B460D469EE7002301259BE71D
:1075D000B74A249E1268002A5BD1002B43D0B549DC
:1075E00027A8FDF791F9F0B1D6E906239B1A9B1065
:1075F00007EE903AF8EE677A37EEC88A012D40D14F
:10760000AD4927A8FDF780F9002842D0D6E9032329
:107610009B1A9B1007EE903AF8EE677A37EEC88A0D
:10762000C4F1060435E0A54927A8FDF76DF9002847
:10763000E4D0A34B5B6AD3E90632D21A9210530806
:1076400007EE903AF8EEE77A37EE888AFDEEC87AD0
:1076500017EE903AB3FBF2F102FB113308EE103A49
:10766000B8EE488ACAE7974927A8FDF74DF928B927
:10767000954927A8FDF748F90028BFD0C4F10604B2
:10768000BCE7032D05D18B4927A8FDF73DF900285C
:10769000C6D1B0EE480A03F0DDFE0C23BDEEC00AF1
:1076A0005D4310EE102A735943F8224071E7032D11
:1076B0000DD18249854C27A8FDF726F918B103F0B2
:1076C000DBFC2168A2E503F0D7FC61689EE503F0CE
:1076D000D3FCDBF80030995998E5032D0DD177499B
:1076E0007A4C27A8FDF710F918B103F0C5FC216802
:1076F000C1E503F0C1FC6168BDE503F0BDFCDBF84A
:1077000000309959B7E509F1300127A8FDF7FCF8D9
:1077100020B96D4927A8FDF7F7F898B1D9F82420CA
:10772000D2E900239B1AB4EBA30F80F08F8003F003
:10773000A3FC249B1B6813F824103031FCF770FD68
:107740000134EBE7D9F82420D2E900239B1AB4EBEB
:10775000A30F7BD203F090FC3021FCF761FD0134D4
:10776000F0E7012D40F0BA80564927A8FDF7CCF884
:1077700028B9554927A8FDF7C7F8002866D0249AEC
:10778000D2E906239B1AB4EBA30F5FD203F074FC7B
:107790003021FCF745FD0134F1E7464927A8FDF704
:1077A000B3F8002852D0DFF82C91DFF82CA1D9F8DB
:1077B0002400DAF82410D0E90032D21AD1E90913F2
:1077C0005B1A9B10C3EBA203A3423FD903F054FC06
:1077D0003021FCF725FD0134E9E7194661E003F0AB
:1077E000FDFA02F064FD013503F046FC02F0E5FB12
:1077F000042D06F104067FF4F8AC00231C46002299
:107800002499CD18C8586968091AB2EBA10F03D2A0
:1078100040F822400132F3E70C33302BEFD103F074
:10782000DDFA02F044FD07A8FCF778FF1BA8FDF77E
:10783000AFFB039B0133FFF7ADBB03F0CFFA37B0CB
:10784000BDEC068BBDE8F04F02F031BD03F0C6FA87
:10785000279A1F492B46FCF7CBFD0C246C434FF0B5
:107860000009249A131912595B689B1AB9EBA30FEC
:10787000B5D203F001FC249B1B5913F829103031B9
:10788000FCF7CEFC03F0AAFA249B1B5953F82930CD
:10789000002B8246A1DA2D21049302F005FD049B02
:1078A00059420A22504602F018FD09F10109D8E7B1
:1078B000AC500320B4E4032074550320107E032051
:1078C000E07D03201454032020E50320B05503205D
:1078D00047E50B004455032084E40320032DB5D174
:1078E000114927A8FDF710F800283FF456AFDFF83C
:1078F00040900E4BD9F82400596AD0E90032D21AD0
:10790000D1E909135B1A9B10C3EBA203A3429DD9D3
:1079100003F0B2FB3021FCF783FC0134E9E737B018
:10792000BDEC068BBDE8F08F107E0320E07D0320C8
:107930004455032010B5044603F082F9204610BDDB
:1079400038B50446154602F0ABFC0549204602F066
:10795000A7FC29462046BDE8384002F0B4BC00BF71
:10796000DFE20B0038B50546144602F099FC0B49DE
:10797000284602F095FC002C0DDA2D21284602F055
:1079800093FC614228460A2202F0A7FC2846BDE883
:10799000384002F08CBC2146F4E700BFDFE20B0068
:1079A0002DE9F04F0E4691B098464FF0FF3313602B
:1079B000044600213046DDF86890174602F005FEC7
:1079C000D6F838E0034698B9BEF1000F14BF7246EE
:1079D0005022316892B2204602F032FF051E18BFD5
:1079E0000125C5B9204611B0BDE8F04F03F0DEB85F
:1079F000764B0A9306F1140CBCE80F000BAD0FC5D3
:107A0000DCF800302B701FFA8EF200230AA9204602
:107A100002F0F6FFE2E74946204602F041FC6C49DD
:107A2000204602F03DFCB16A204602F039FC69496B
:107A3000204602F035FC6849684A2046FFF780FF7F
:107A40000021304602F0C1FD20B932686449204669
:107A5000FFF776FF06F13C0A0021504602F0B5FD23
:107A600028B9726C5F492046FFF77CFF06E05E494B
:107A7000484604F0ADFB02460028F3D0B8F1000FF1
:107A80000ED0D8F8001059B1D8F80420204622B101
:107A9000FFF756FF08F10808F3E702F014FCF9E7D6
:107AA000204602F004FC204602F02AFE0021504647
:107AB00002F08BFD18B9F16B204602F004FC04F1D2
:107AC0001C0A4FF420520021504604F04BFB00F0FA
:107AD000DFFD019000F0DCFD4FF00008464641F26A
:107AE000883B204603F008F8E8B1204602F0EEFD9E
:107AF000814600F0CDFD42F2FE739E42019004D813
:107B0000A31983F81C900136EBE742F2FF739E4203
:107B1000F9D104F50053002283F81B28204603F016
:107B200045F8A846EFE7A319187700F0B1FD019BCF
:107B3000A0EB0309B8F1000F04D1D94502D8C82041
:107B400000F0D2FF204602F0F9FE20B1D94502D85C
:107B5000B8F1000FC5D0204603F028F8514602A81E
:107B600002F05BFC0C23092202A906A802F052FDD8
:107B70001E490AA802F051FC0AA902A802F046FD1B
:107B800004460AA802F0FEFB631C08D106A802F016
:107B9000F9FB02A802F0F6FB11B0BDE8F08F3D1D25
:107BA0001349284602F081FC221D02A90AA802F00E
:107BB00051FD0AA9284602F0B4FC0AA802F0E2FB33
:107BC000069804F093FA3860E0E700BF90E90B00F4
:107BD000CEE40B00D4E60B00E6E60B00E0E60B007B
:107BE000F1E60B00F6E60B0005E70B000AE70B00D9
:107BF0000EE70B00704710B50C210446FCF751FA54
:107C0000204610BD10B5054B0360037C04461BB92C
:107C1000406808B100F020FF204610BD1CE70B00B3
:107C200010B50446FFF7EEFF20461421FCF739FAA1
:107C3000204610BD10B5074B0360037C04461BB9FA
:107C4000406908B100F008FF2046FFF7DBFF20463F
:107C500010BD00BF2CE70B0010B50446FFF7EAFF8C
:107C600020462C21FCF71DFA204610BD38B5037CB8
:107C700004460D460BB1002038BD406838B100F015
:107C8000F3FE0028F7D0C4E901050120F4E7084617
:107C900000F0DAFEF5E770B5C3680E461546D11858
:107CA0004268044672B182688A420BD36068E36816
:107CB0002A463146184404F02DFAE2682A44E2606C
:107CC000012070BD2046FFF7D1FF0028EED1F8E774
:107CD00043680021C16023B1826812B1184604F0E4
:107CE00041BA704710B5C0E901120022C2600122FA
:107CF00002744361024A029B0260C36110BD00BF6F
:107D00002CE70B00D1E905239A42044B38BF82606F
:107D1000C0E9003124BF0023836070473CE70B00BB
:107D200070B513689D68136803F1100414608669C8
:107D3000B4420AD29B698C68A34201DAAB42F2DDFD
:107D4000A342CCBF0020012000E0002070BD2DE93F
:107D5000F341089D984601F110030446174601932C
:107D600000260198A36983421AD982688B689A42D7
:107D700016DAAE420BD1386001AA2046FFF7D0FFD9
:107D800028B1019BC8F8003002B0BDE8F08101AA1B
:107D90002046FFF7C5FF20460136FFF7C1FFE0E7A9
:107DA0000020F1E7F7B51F4601F11003044616461F
:107DB00001930025019BA2699A420FD998688A68AD
:107DC00090420BDAB54203D13B60012003B0F0BD15
:107DD00001AA20460135FFF7A3FFEBE70020F5E7F6
:107DE000F0B5013B0024D1E90176F61BA64208DD7F
:107DF000A34206DD45683D442D5D02F8015B013478
:107E0000F1E700231370F0BD1FB5144610236A4636
:107E1000FFF7E6FF04492246684600F02DFE431EA8
:107E20005842584104B010BDF0E90B001FB514468C
:107E300010236A46FFF7D4FF6846002105F03AF8A0
:107E4000012084ED000A04B010BD000073B50D469A
:107E500089680A4E044661B1686801ABFFF7A2FF6A
:107E600038B16B68C4E90063019BA360204602B08F
:107E700070BD6B68C4E900630023F6E73CE70B00C4
:107E800007B50191816819B1406801AAFFF7BCFFED
:107E9000019803B05DF804FB07B581688DED010A18
:107EA00019B1406801AAFFF7C1FF9DED010A03B0B7
:107EB0005DF804FB10B5044600680B4628B102F0DB
:107EC00034FBE3680133E36010BD60680028F8D03C
:107ED000D4E90221013A8A4288BF4354F1E70346BC
:107EE0007F2B37B50846D9B204D803B0BDE830407F
:107EF000FFF7E0BF01F03F01B3F5006FC3F3871553
:107F000041F0800407D245F0C0010190FFF7D2FF95
:107F100001982146E9E71B0B43F0E0010190FFF7D0
:107F2000C9FF05F03F01019841F08001EEE7000034
:107F30002DE9FF4700244E68DFF8CCA080460F46AD
:107F40001546A146B868B0425ADDD8F80430995DAC
:107F50009A19002C4BD0752905D86D2907D86229AC
:107F60001ED066291ED02846FFF7A4FF3DE0A1F1F0
:107F70006E04072CF7D80FF2080C5CF824F000BF51
:107F8000A97F0B00677F0B00677F0B00677F0B00EB
:107F9000AD7F0B00677F0B00B17F0B00B57F0B003F
:107FA0000821E0E70C21DEE70A21DCE70D21DAE712
:107FB0000921D8E7311D884217DD02A90433334473
:107FC000084612F8014F01F8014B9A42F9D101AA73
:107FD00051468DF80C9000F04FFD012805D1BDF8F9
:107FE00004002946FFF77BFF0536002404E05C29E6
:107FF00004D02846FFF75EFF0136A3E70124FBE724
:10800000012004B0BDE8F0870FE70B007FB50C46F8
:1080100006460C491046154602F047FAD4E90131EC
:10802000C91A0131284602F0CBF900236A462146DD
:108030003046CDE9013300950393FFF779FF04B093
:1080400070BD00BF0EE70B002DE9F04389B0054677
:10805000884604A812491646994602F0DEF9002720
:1080600000974B4603AA41462846FFF770FE044698
:1080700070B1039904AA2846FFF7C8FF044608B95F
:108080000137EDE7314604A802F09FFA0028F7D047
:1080900004A802F077F9204609B0BDE8F08300BFDC
:1080A0000EE70B0073B50D4689680A4E044661B1B0
:1080B000686801ABFFF7C8FF38B16B68C4E90063BB
:1080C000019BA360204602B070BD6B68C4E90063E9
:1080D0000023F6E73CE70B0038B50D46054904469A
:1080E00002F09BF9A96819B168682246FFF78EFF74
:1080F000204638BD0EE70B002DE9F04F44684FF0E5
:10810000010C4FF0FF36D0F800E0964580F0B981C1
:1081100011F80E80B8F1000F00F0B381B8F13A0FFA
:1081200000F0988033D8B8F1220F00F0A68010D864
:10813000A8F109085FFA88F8B8F1170F0DD89F4D1C
:108140000CFA08F818EA050F07D005680135056034
:10815000D9E7B8F12C0F00F03381D0F80080424508
:108160000ED911F808505DB13A2D00F269811F2D2A
:1081700000F251810A2D00F26081082D40F25681F3
:10818000002B40F0628108F1FF350560A5E0B8F1F1
:108190007B0F37D02ED8B8F15B0F33D0B8F15D0F1D
:1081A000DBD1002BD1D04FF002094568013D03EB34
:1081B0000518002D55DBD8F8047001374DD0D8F8DC
:1081C00008A0BAF1FF3F48D198F800B0CB454BD199
:1081D0000EF1010EC0F808A0C8F808E003EB051E78
:1081E000DEF80470013742D0DEF8087001373ED166
:1081F0008560AAE7B8F17D0FAFD1002BA5D04FF075
:108200000109D2E70134002B9FD04568099FAF4296
:108210004AD905F1010EC0F804E003EB051ECEE9D2
:1082200001664FEA051A0025CEF80C5085686F1CD0
:108230001FBF03EB0519D9F80C500135C9F80C50D4
:10824000B8F17B0F0CBF0125022503F80A50056821
:10825000CEF804504568013DCAE7013DA8F1100879
:10826000A7E701357FF471AF6FF001041EE0013D17
:108270006F1CAEF1100EB3D167E70EF10109C0F823
:108280000090D0F80080424540F2938011F80850E9
:10829000002D00F08E80222D30D1F3B14568099F6A
:1082A000AF4206D8C0F800E04FF0FF342046BDE8EA
:1082B000F08F05F1010E4FEA051803EB0515C0F824
:1082C00004E0C5E901660027EF60D0F800E04FF058
:1082D000030A03F808A0C5E9019E85686F1C04F134
:1082E00001043FF432AF002B3FF42FAF03EB051E28
:1082F000DEF80C500135CEF80C5026E75C2D11D17C
:1083000008F10105AA420DD905604D5D752D2BD8E8
:108310006D2D0BD8662D27D85B2D1DD8222D01D0B1
:108320002F2D21D1056801350560AAE76E3D072D87
:108330001AD801A757F825F025830B0069830B0095
:1083400069830B0069830B0025830B0069830B0095
:1083500025830B006F830B005C3DEDB20CFA05F535
:1083600040F241473D42DDD1C0F800E07CE708F132
:10837000020505604FF0040AD0F80080424503D89A
:108380000568013D0560CDE711F80850002DF7D0D4
:10839000A5F1300BBBF1090F04D925F02005413DB3
:1083A000052DE1D808F10105BAF1010A0560E3D114
:1083B000E6E7C0F800E06FF0020477E71300800002
:1083C000002B3FF4C2AE85686F1C3FF4BEAE2D019A
:1083D0005D5D013D012D7FF6B8AE456805F1FF38C2
:1083E00003EB051EB8F1000FFFF6AFAE1EF8105CF0
:1083F000013D012D0AD85EF80C5C013506D05EF80F
:10840000085C013502D1C0F808809EE608F1FF380B
:10841000AEF1100EE6E7A5F12009244F5FFA89F9C5
:108420000CFA09F919EA070F7FF4AAAE203D5E2D78
:108430009AD808F1010505608FE60D2DF6D19FE66B
:1084400005F0DF09B9F15D0FF8E74568099FAF4214
:108450007FF628AF05F101084FEA051903EB051572
:10846000C0F80480C5E901660027EF60D0F80080FD
:108470004FF0040A03F809A0C5E901E80568013DC9
:1084800083E6002B3FF412AF4268511E03EB021348
:108490000029FFF60BAF53F80C2C013203D053F830
:1084A000082C013287D00139103BF1E7011000049C
:1084B000F7B5C268044612B9002003B0F0BD4369A5
:1084C00000F12006ABB10021C0E908114FF0FF31E7
:1084D0008162C169009141683046FFF70DFE431C7F
:1084E00028D1257C002DE7D1606900F0B5FA6561DF
:1084F000E56100254FF0FF37C4E90855E26861687F
:10850000A76200952B463046FFF7F6FD0028D3DB27
:10851000E06117D0000100F097FAE269606103465C
:108520000092C4E90855E2686168A7623046FFF727
:10853000E3FD01E00028BFDB636903EB0010A061ED
:108540000120BAE76369A361FAE7000008B5024BAE
:108550001B689B68019308BD7802030008B5024BB5
:108560001B681B6D019308BD7802030008B5024B20
:108570001B689B6D019308BD7802030008B5024B90
:108580001B681B6E019308BD7802030008B5034BFE
:108590001B68D3F89830019308BD000078020300EF
:1085A00008B5034B1B68D3F8A830019308BD000041
:1085B0007802030008B5034B1B68D3F8B43001936D
:1085C00008BD00007802030008B5034B1B68D3F810
:1085D000D830019308BD00007802030008B5034BB2
:1085E0001B68D3F8DC30019308BD0000780203005B
:1085F00008B5034B1B68D3F8EC30019308BD0000AD
:108600007802030008B5034B1B68D3F8F0300193E0
:1086100008BD00007802030008B5034B1B68D3F8BF
:108620000031019308BD00007802030008B5034B38
:108630001B68D3F80431019308BD000078020300E1
:1086400008B5024B1B685B6C019308BD4802030030
:1086500008B5024B1B68DB6C019308BD48020300A0
:1086600008B5024B1B685B6D019308BD480203000F
:1086700008B5024B1B685B68019308BD1802030034
:1086800008B5024B1B68DB68019308BD18020300A4
:1086900008B5024B1B685B69019308BD1802030013
:1086A00008B5024B1B68DB68019308BD2802030074
:1086B00008B5024B1B689B69019308BD28020300A3
:1086C00008B5024B1B68DB69019308BD2802030053
:1086D00008B5024B1B681B6A019308BD2802030002
:1086E00008B5024B1B685B6A019308BD28020300B2
:1086F00008B5024B1B689B6A019308BD2802030062
:1087000008B5024B1B68DB6A019308BD2802030011
:1087100008B5024B1B681B6B019308BD28020300C0
:1087200008B5024B1B681B6C019308BD28020300AF
:1087300008B5024B1B681B6D019308BD280203009E
:1087400008B5024B1B685B69019308BD6C0203000E
:1087500008B5024B1B685B69019308BD6402030006
:1087600008B5024B1B681B6A019308BD6402030035
:1087700008B5024B1B689B6A019308BD64020300A5
:1087800008B5024B1B689B68019308BD6802030093
:1087900008B5024B1B68DB68019308BD6802030043
:1087A00008B5024B1B689B69019308BD38020300A2
:1087B00008B5024B1B68DB69019308BD3802030052
:1087C00008B5024B1B681B6A019308BD3802030001
:1087D00008B5024B1B689B6A019308BD3802030071
:1087E00008B5024B1B681B6B019308BD38020300E0
:1087F00008B5024B1B689B6B019308BD3802030050
:1088000008B5024B1B68DB68019308BD3C020300FE
:1088100008B5024B1B681B69019308BD3C020300AD
:1088200008B5024B1B685B69019308BD3C0203005D
:1088300008B5024B1B689B69019308BD3C0203000D
:1088400008B5024B1B68DB69019308BD3C020300BD
:1088500008B5024B1B689B6A019308BD3C020300EC
:1088600008B5024B1B681B6C019308BD3C0203005A
:1088700008B5024B1B681B68019308BD4C0203003E
:1088800008B5024B1B685B68019308BD4C020300EE
:1088900008B5024B1B681B69019308BD4C0203001D
:1088A00008B5024B1B685B69019308BD4C020300CD
:1088B00008B5024B1B689B69019308BD4C0203007D
:1088C00008B5024B1B68DB69019308BD4C0203002D
:1088D00008B5024B1B681B6A019308BD4C020300DC
:1088E00008B5024B1B685B6B019308BD6002030077
:1088F00008B5024B1B681B6D019308BD60020300A5
:1089000008B5024B1B685B68019308BD2002030099
:1089100008B5024B1B685B69019308BD2002030088
:1089200008B5034B1B68D3F88830019308BD0000DD
:108930002002030008B5034B1B68D3F89430019361
:1089400008BD00002002030008B5024B1B68DB6B6A
:10895000019308BD4402030008B5024B1B685B6825
:10896000019308BD4002030008B5024B1B689B68D9
:10897000019308BD4002030008B5024B1B68DB6889
:10898000019308BD4002030008B5024B1B681B6938
:10899000019308BD4002030008B5024B1B685B69E8
:1089A000019308BD4002030008B5024B1B689B6998
:1089B000019308BD4002030008B5024B1B68DB6948
:1089C000019308BD4002030008B5024B1B681B6AF7
:1089D000019308BD4002030008B5024B1B685B6AA7
:1089E000019308BD4002030008B5024B1B689B6A57
:1089F000019308BD4002030008B5024B1B68DB6A07
:108A0000019308BD4002030008B5024B1B681B6BB5
:108A1000019308BD4002030008B5024B1B685B6B65
:108A2000019308BD4002030008B5024B1B681B6C94
:108A3000019308BD4002030008B5024B1B685B6C44
:108A4000019308BD4002030008B5024B1B681B6878
:108A5000019308BD1C02030008B5024B1B685B684C
:108A6000019308BD1C02030008B5024B1B689B68FC
:108A7000019308BD1C02030008B5024B1B685B692B
:108A8000019308BD1C02030008B5024B1B685B6A1A
:108A9000019308BD1C02030008B5024B1B68DB6A8A
:108AA000019308BD1C02030008B5024B1B681B6B39
:108AB000019308BD1C02030008B5024B1B68DB6B69
:108AC000019308BD1C02030008B5024B1B681B6C18
:108AD000019308BD1C02030008B5024B1B685B6CC8
:108AE000019308BD1C0203000021FFF711BF70476E
:108AF0007047704770470000064B994210B500F16F
:108B00000C0405D0084602F029FB002808BF002409
:108B1000204610BDE4E80B00064B994210B500F169
:108B20000C0405D0084602F019FB002808BF0024F9
:108B3000204610BDE4E80B00064B994210B500F149
:108B40000C0405D0084602F009FB002808BF0024E9
:108B5000204610BDE4E80B0010B568210446FBF781
:108B6000A0FA204610BD10B528210446FBF799FA5B
:108B7000204610BD10B530210446FBF792FA20467E
:108B800010BD6821FBF78DBA2821FBF78ABA302186
:108B9000FBF787BAF0B50025EC1C8C420DD86E1C93
:108BA000445D875D974205D12644B14205D31D60DF
:108BB000601CF0BD01342544EEE70020F9E7000019
:108BC000024A03490A20FFF78BBE00BF81860B00D3
:108BD00044E70B0030B40D4611461A460368096895
:108BE0002868D3E90043A44630BC6047012A38B561
:108BF000044602D10B68236003E0022A03D0032A53
:108C00000DD0002038BD08200D68FBF744FA03465C
:108C10000028F0D095E8030083E80300EBE7006844
:108C20000028EED00821FBF73CFAEAE710B583688C
:108C3000044613B1032201469847204610BD10B5E3
:108C400004465830FFF7F2FF04F14800BDE8104039
:108C500001F098BB10B54368013B0446436063B91B
:108C600003689B689847A368013BA3602BB92368FE
:108C70002046DB68BDE81040184710BDA0F1300366
:108C8000DAB2092A01D818467047A0F16103052B12
:108C900001D857387047A0F14103052B94BF3738EE
:108CA0004FF0FF307047000010B500230370044BF5
:108CB00004461868FFF7CCFC01232370204610BD42
:108CC000C0E6032010B5037804461BB1024B1868B8
:108CD000FFF7C6FC204610BDC0E6032082B0034665
:108CE000086849686A4603C26A4603CA186018469B
:108CF000596002B0704708B582798B799A4206D1E3
:108D0000062203F0F7F9B0FA80F0400908BD002010
:108D1000FCE74FF0FF33036083800020704708B505
:108D20000246002101604160FFF7F3FF9171104698
:108D300008BD000010B501230361054B024603F195
:108D4000100153F8044B42F8044B8B42F9D110BD8B
:108D5000F2E80B0010B50B460446B1B1012A01F14F
:108D600010020AD1014653F8040B41F8040B934258
:108D7000F9D101232361204610BD411E12F8010DD7
:108D800001F8010F9A42F9D1F3E7102203F0EAF952
:108D9000F1E738B5044615461A46FFF7DBFFA58113
:108DA000204638BD08B5026922B98089003818BF4D
:108DB000012008BD0249102203F09CF9F6E700BF2C
:108DC00012E90B000069704738B50C4614220021E7
:108DD000054603F0C7F923691BB9A3892B802846F0
:108DE00038BD01232B7421462B4604F1100251F8A3
:108DF000040B43F8040B9142F9D1F0E780897047E6
:108E0000704708B502690B699A4206D1102203F037
:108E100071F9B0FA80F0400908BD0020FCE70000BD
:108E200001232DE9F3410361344B0C46064602460B
:108E300003F1100153F8040B42F8040B8B42F9D1F3
:108E400044B32421204603F0F1F904284FF0000533
:108E500023D1ADF8045001AFA51C063415F8020C5F
:108E6000FFF70CFFB0F1000812DB15F8010CFFF75B
:108E700005FF00280CDB023540EA0810A54207F880
:108E8000010BEBD19DF8053033739DF804307373FB
:108E90000023336102B0BDE8F0814FF010082421B7
:108EA000204603F0C3F9A84207D8424600213046C5
:108EB00002B0BDE8F04103F055B9B8F1000FE9D0B8
:108EC000605DFFF7DBFE030615D4000108F1FF38F3
:108ED000C7B206F808702421204603F0A7F901352F
:108EE000A84208D9605DFFF7C9FE40B20028A4BFC0
:108EF000384306F808000135D1E700BFF2E80B005F
:108F000013B504460191FFF715FF20460199FFF7BD
:108F100087FF204602B010BD38B54FF6FF7300251D
:108F2000044643800E22294605700571063003F081
:108F300019F904F11400FFF7FDFE04F12800FFF712
:108F4000F9FE044904F13C0001F067FA656520462A
:108F500038BD00BF0EE70B0010B5D0E9063203EBB9
:108F6000C2029342184606D0046824888C4203F15A
:108F70000803F6D110BD0020FCE70000F0B506465E
:108F800085B01F460D46002950D0002A4ED00468F7
:108F90002378F42A28BFF42243B32379980709D50C
:108FA000A08903920023FFF705FB0028039A03DA48
:108FB00005B0F0BD6FF0770034682379D90609D584
:108FC000012F07D0A0890023294605B0BDE8F04055
:108FD000FFF722BB9B06EBD5022FE9D0A089002327
:108FE000294605B0BDE8F040FFF720BB60884FF68A
:108FF000FF7188421CD021794E0701D5012F04D181
:109000000B0709D46FF07700D2E7A18900931346CC
:109010002A46FFF7E3FACBE7022FF3D00023A1891A
:10902000009313462A46FFF7CFFAC1E70248BFE78D
:109030006FF0D100BCE700BFF2FEFFFF37B50C4672
:109040000546F4212046019203F0F0F8019B024608
:109050002146284603B0BDE83040FFF78FBF00002F
:109060002DE9F04100260660074628200C46FBF754
:1090700012F8051E05F10C080FD00123C5E90133D4
:10908000084B2B604046FFF755FE0FCC2E6285F84B
:10909000246046460FC623683360C7E9008538461A
:1090A000BDE8F081B4E80B0070B500250560064608
:1090B0003020FAF7F0FF044688B10123C0E90133FC
:1090C000094B03604FF6FF7383810E30FFF727FED5
:1090D000C4E90655C4E90855C4E90A55A575746084
:1090E0000C343460304670BDD0E80B0037B50D4607
:1090F000044601A8FFF7D8FD2A68D2F802302360A1
:10910000D2F80630636001A8FFF7DCFD204603B00B
:1091100030BD30B5054687B00C4601A8FFF7C4FD49
:109120002A68236812881B889A420DD1294602A812
:10913000FFF7DCFF214604A8FFF7D8FF04A902A827
:10914000FFF7D9FD044600B9002401A8FFF7BAFDD6
:10915000204607B030BD000010B504466420FAF781
:109160009AFF68B10023C0E90033C0E90233C0E9C7
:109170000433C0E906330362C362C363C364C365D7
:10918000206020B90A4A0B490A20FFF7A9FB0020FA
:10919000FFF7DCF920B1064A07490A20FFF7A0FBD8
:1091A000216806480022FFF72DFA204610BD00BFB7
:1091B00081860B0044E70B0082E70B0041970B0010
:1091C00010B50A4C2378BFF35B8FDB070CD4204625
:1091D000FAF769FF40B10648FFF7BEFF2046FAF7ED
:1091E00067FF044802F07CFF014810BDB8E6032089
:1091F000C4E603200D940B0030B50368093B012B36
:109200008DB004460D4611D8FFF7DAFFA18800683B
:10921000FFF7A2FE034658B92022CDE904200B4AED
:1092200000920B4904AA3220FFF762FB0DB030BD5B
:109230006A6D002AFAD0D4E9032105F14C00CDE98A
:109240000312AC6D04AA03A9A047EFE7C4E70B0023
:109250005BE70B0008B50020FFF778F900EAE07043
:1092600008BD19B90A460846FFF778B9D1E90001E7
:109270000022F9E738B5141E4368054602DB621880
:109280009A4200DD5C1A2A68501801191A44521AD1
:1092900002F04EFF6A68121B6A6038BD37B50A4695
:1092A00004460D4601ABD0E90001FFF773FC02460E
:1092B00038B101992046FFF7DDFF29462046FFF728
:1092C000EDFF03B030BD10B50C4629B90A4608467B
:1092D000BDE81040FFF74AB901212046FFF7DEFF45
:1092E000D4E900010022F3E738B504461546FFF73C
:1092F000B8FF00280ADB29462046FFF7E4FF0028D4
:1093000004DBBDE838400020FFF738B938BD000065
:1093100038B500230446836008200D46FAF7BBFEEB
:1093200018B12B6803606B684360034BE360034B29
:109330002060A360204638BDD58B0B00ED8B0B0061
:109340000B68036013B15A6801325A60704710B558
:1093500051F8043B044640F8043BFFF7F1FF236853
:109360000BB9FFF72DFC204610BD10B551F8043B9A
:10937000044640F8043BFFF7E3FF204610BD10B55C
:1093800051F8043B044640F8043BFFF7D9FF204660
:1093900010BD10B50446006808B1FFF75BFC20461D
:1093A00010BD10B504460430FFF7F3FF204610BD92
:1093B00070B5D0E90053044605EBC306AE4204D0B5
:1093C000281DFFF7E6FF0835F8E72068FFF744FBA4
:1093D000204670BD70B5D0E90053044605EBC306C6
:1093E000AE4204D0281DFFF7D4FF0835F8E7206807
:1093F000FFF732FB204670BD10B504462430FFF75E
:10940000E9FF04F11800FFF7D3FF10BD70B5174B4B
:109410001C6854B304F15400FFF708FC04F1440045
:10942000FFF704FC04F13400FFF700FC04F1240012
:10943000FFF7FCFBD4E9065305EBC306AE4204D0AC
:10944000281DFFF7A6FF0835F8E7A069FFF704FB22
:1094500004F10C00FFF7BEFF2046FFF7A9FF2046EE
:109460006421BDE87040FAF71CBE70BDC4E603205D
:1094700013B50023D1E90042C1E90033036800932A
:1094800004604368426001A80193FFF782FF02B0C5
:1094900010BD826810B50AB901F05DFEBDE810404C
:1094A000C368184738B50D1E0446006803DDFFF792
:1094B000DBFA18B938BDFFF7CFFA00202060A560AD
:1094C0000120F7E708B583688B4202DAFFF7EAFF6D
:1094D00008BD0120FCE72DE9F0410F4641681D461B
:1094E0001944836899420446904612DC26686268F3
:1094F0003E44D21B3146701902F01AFE2A464146FC
:10950000304602F007FE63682B4463600120BDE82B
:10951000F081FFF7C7FF0028E8D1F8E7F8B50D465E
:10952000D0E901139942044616460BDA27686268AF
:109530007919521B481C02F0FBFD7E55636801330C
:109540006360F8BD0131FFF7ADFF0028EED1F8E709
:109550000A464168FFF7E2BF2DE9F74304461D467E
:109560000F4601AB90460A46D0E900019DF82890CD
:10957000FFF710FBAE1C63680246B9F1000F26D15D
:1095800028B333441B1AFF2B09D801992046FFF753
:1095900071FE616820463144FFF794FF18B9606896
:1095A00003B0BDE8F0836A1C0199D2B22046FFF7F0
:1095B000B5FF01993A4601312046FFF7AFFF019907
:1095C0002B46424602312046FFF785FFE7E7F118B8
:1095D000FF29E4D82046FFF775FF0028DFD0691C7B
:1095E000C9B22046FFF7B4FF39462046FFF7B0FF67
:1095F00061682B464246E6E730B49DF808501AB140
:10960000029530BCFFF7A8BF406830BC70471FB55B
:109610000023C0E9003383600622009301238DF804
:109620000F2019460DF10F020446FFF7E5FF204613
:1096300004B010BD8842F8B504460D46164614D94C
:10964000904213D2A2F10806751AA1F108072C4422
:10965000B74218D01CB131462046FFF790FE301DAE
:10966000FFF797FE083E083CF2E70CD0B5420AD05F
:109670001CB129462046FFF782FE281DFFF789FE10
:1096800008350834F2E7F8BDF7B504464668684681
:10969000FFF775FED4E901739F4212DB0137002FFB
:1096A00029DDF800FFF7D0F90546F0B1D4E9001242
:1096B00001EBC202FFF7BEFF2068FFF7CDF925607E
:1096C000A7602368626803EBC60603EBC20231465B
:1096D00006F10800FFF7AEFF1EB169463046FFF7FE
:1096E0004EFE636801336360012501A8FFF751FE58
:1096F000284603B0F0BD0025DEE7F8B5D0E9004309
:1097000005460F4604EBC306A64205D0394620465F
:10971000FFF7FFFC08B114B9F8BD0834F4E7201DC9
:10972000FFF737FED5E9003204F1080103EBC2026E
:109730002046FFF77FFF6B68013B6B60ECE70000A2
:109740002DE9F04105468EB003A80C46FFF7ACFAB0
:109750002E68F31E0D2B3CD8DFE813F00E005300EB
:109760003B00D1003B003B003B003B003B009B002B
:109770009B009B009B009B0004A8FFF795FC049BAB
:10978000AA891A806968049808310230FFF7A6FA9E
:1097900004A906A8FFF7F3FD06A904F11800FFF7D6
:1097A00073FF054607A8FFF7F4FD20230693B5B91C
:1097B0005D4B5E49009332202B4606AA0795FFF7C2
:1097C00097F8049B29461888FEF7E0FE05A8FFF7E6
:1097D000E0FD03A8FFF776FA0EB0BDE8F081544A29
:1097E000009200235149079306AA0120FFF780F851
:1097F000E36A002BEAD004A904F12400FFF749FE34
:10980000E4E7A9892046FFF7A7FB06460028E0D039
:109810000568D5E906324FF6FF71298003EBC202D5
:109820009A4203D053F8080B4180F9E7D5E9037356
:1098300007EBC308B84504D0381DFFF7AAFD083769
:10984000F8E700232B61D5E9067307EBC308B84599
:1098500004D0381DFFF79DFD0837F8E70023EB61C2
:10986000AB72E36B23B1314604F13400FFF711FE14
:1098700000232022CDE906232E4A00922B4906AA76
:109880000120FFF735F8314604F11800FFF735FFE6
:109890009FE7A9892046FFF75FFB002899D0E36C7A
:1098A000002B96D000230D2EADF8163001D0102ECF
:1098B00017D1002369681A4606258DF815300491E2
:1098C0008DF814200690DDE9040109AB8DF81C60C9
:1098D000089583E80300236D06A904F14400984726
:1098E00077E70F2E01BF2B7A696803F00102082584
:1098F0000FBFC3F340031A4619461D46DDE7A98989
:109900002046FFF729FB014600283FF462AFE36DD4
:10991000002B3FF45EAF6B68069306AA236E04F13A
:109920005400984755E700BFDCE70B005BE70B00EE
:1099300002E80B001FE80B0013B50B460246D0E906
:1099400000016C4684E8030093E8030082E803000A
:1099500094E8030083E8030002B010BD38B5054663
:109960000C46FFF7E9FFAB68A268AA60A360EB684A
:10997000E268EA60E36038BD70B504468CB00E461C
:1099800001921D46FFF7C8FA2671019904F13C00C7
:1099900000F08BFD04F14C06CDB1109B029502A99D
:1099A00004A80393FFF7B4FC002308A904A80A93B2
:1099B000FFF7D4FF314608A8FFF7D0FF08A8FFF74C
:1099C00035F904A8FFF732F920460CB070BD0695B2
:1099D000EAE700002DE9F04F87B01D46DDE91043AE
:1099E00080468B469246129903930022682002918A
:1099F0000492FAF750FB061E06F10C0918D001225A
:109A00003746C6E901220299154A47F8202B039BE5
:109A100000915A4651464846FFF7AEFF0FCD0FC79B
:109A20002B683B600FCC06F134050FC523682B6013
:109A300004A94046CDE90496FFF71AFD05A8FFF7F3
:109A4000A8FCD8F800303BB9064A07490A2007B0FD
:109A5000BDE8F04FFEF744BF07B0BDE8F08F00BF90
:109A600098E80B0081860B0044E70B008842F8B5AC
:109A700004460D46164614D9904213D2A2F10806A8
:109A8000751AA1F108072C44B74218D01CB1314611
:109A90002046FFF76AFC301DFFF77BFC083E083CC0
:109AA000F2E70CD0B5420AD01CB129462046FFF798
:109AB0005CFC281DFFF76DFC08350834F2E7F8BDA3
:109AC00070B50E1E054611DDF000FEF7BDFF044621
:109AD00058B1D5E9001201EBC202FFF7C7FF2868B1
