:02000002B0004C
:1040000000400B009C620B00000006000C00050243
:084010000401E50C00000000B2
:04401800C85D0B0074
:10401C0009480A49884208B505D0094A824202D0AB
:10402C00121A01F05FFD0748074A0021121A01F02D
:10403C0067FD014808BD00BF00E6032008620B00C5
:10404C006CE603206CE60320EDE7032070B5074E09
:10405C00074C01F095FBA41BA4080025AC4200D131
:10406C0070BD56F8043B98470135F7E7AC610B007F
:10407C00D4610B0000F0DAB808B500F0A1F8BDE887
:10408C00084001F035BB00F043BF00F041BF00F029
:10409C0047BF00F045BF0078B0FA80F04009704788
:1040AC000123037070470000F0B585B004460D463F
:1040BC00019200F045FF076800F042FF0023036007
:1040CC00019A03A9204601F009FE039B9C42064677
:1040DC0002D10D4801F05CFC00F032FF0368222B8A
:1040EC000AD065B900F02CFF036813B900F028FF63
:1040FC000760304605B0F0BD034801F04FFC039853
:10410C00001B2860EEE700BFDC5D0B0013B5044616
:10411C0061B10846019101F067FD23680199DB68E4
:10412C000246204602B0BDE81040184702B010BD50
:10413C0010B501F057FA194901F025F9184B1B6815
:10414C00012B02D0022B12D010BD01F04BFA1549F5
:10415C0001F019F901F0B0FB134B1968FFF7D6FF0A
:10416C0001F040FABDE81040104901F00CB9104CB8
:10417C0001F038FA0F4901F006F923783BB101F050
:10418C009BFB0D49FFF7C2FF00232370DCE701F016
:10419C0093FBBDE810400949FFF7B8BFE25D0B0087
:1041AC0094E60320F35D0B0080E60320025E0B0017
:1041BC00B0E603200A5E0B00195E0B001E5E0B00BE
:1041CC0008B50D4B1B787BB10121072001F059FB81
:1041DC004FF4FA7000F0CCFE0720002101F051FBE7
:1041EC004FF4FA7000F0C4FE044800F073FABDE816
:1041FC000840642000F0BCBE7CE6032098E6032057
:10420C0038B54FF4007514230446036085600561CE
:10421C000549284601F0B4FB03496060284601F0CB
:10422C00AFFBE060204638BD20600B0010B51B488A
:10423C001B4C4068002386B019461A4600F030FE2D
:10424C0001F0D0F94FF4165101F0C0F940210820CB
:10425C0001F0D6F8206001A8FFF7D2FF01F02CFB8B
:10426C00216800F013FF01F027FB0E4900F015FF49
:10427C0001F022FB0C4900F014FF0121072001F092
:10428C00EFFA0A4800F0EDF9084800F05FFC074827
:10429C0006B0BDE8104000F01DBA00BF0CE70320CB
:1042AC0078E6032011430B003D410B0098E60320F8
:1042BC0000F1080373B5044603600D46E1B10846EE
:1042CC0001F092FC0F2805EB0006019007D90022A3
:1042DC0001A9204601F06AFB019B2060A3602068C5
:1042EC003246294601F098FB019B2268636000214D
:1042FC002046D15402B070BD014801F046FB00BF0E
:10430C00235E0B002DE9F04F91B000AF01F06AF97C
:10431C00A64901F038F801F0CFFA03681B699847F9
:10432C00C31D23F00703ADEB030D044601F05AF94E
:10433C009F4901F015F801F055F9804601F0BCFADF
:10434C0003681B699847061E6D462CDA2D214046E2
:10435C0001F00AF871420A22404601F028F8404662
:10436C0001F005F801F03EF901F001F86E1EDFF8DE
:10437C007482B14601F0A0FA03681B6998470028C3
:10438C0013DD01F099FA03685B69984788F800001F
:10439C0001F028F998F8001000F0FFFF98F80030B1
:1043AC0009F8013FE6E73146D5E701F01BF98149F1
:1043BC0000F0E9FF01F016F9294600F0D1FF01F0F9
:1043CC0011F900F0D4FF012C1AD12B78312B02D12A
:1043DC00794B1C6004E0322B06D1774B02221A6019
:1043EC004437BD46BDE8F08F332B02D1734B1C70A4
:1043FC00F6E7342B4FF0000678D1704B1E70EFE7C8
:10440C00182C38D1DFF8E0916D4E00244FF00108E4
:10441C002146484601F017F82B5D834220D000243A
:10442C00347001F0DFF86749674D00F0ACFF78217C
:10443C00402000F0E5FF286001F03EFA00F029FE74
:10444C0001F03AFA296800F021FE01F035FA5F49D3
:10445C0000F023FE01F030FA5D4900F022FEB7E7D0
:10446C000134182C86F80080D2D101F0BBF85949E0
:10447C0000F089FFB4E70C2C37D1574907F128021B
:10448C0007F11000FFF714FF534907F10C0207F175
:10449C002800FFF70DFF6C1D16F8011F07F1100027
:1044AC0001F0FBFAA642F7D1AC1D0C3514F8011B38
:1044BC0007F1280001F0F1FAAC42F7D1386910226B
:1044CC000021FFF7F1FD454B102218600021B86A5E
:1044DC00FFF7EAFD424B186007F1280001F088FA5B
:1044EC0007F1100001F084FA7AE70026DFF8FC806F
:1044FC00DFF8E890DFF8E8A0A64219DCB1B240463C
:10450C00796000F0D6FAD9F800307968984205D174
:10451C000022404600F08AFA0136EDE74046796009
:10452C0000F0C7FADAF8003079689842F4D1EFE776
:10453C00DFF8A8B0DFF8B480DFF8A4A00026A6420C
:10454C00BFF64EAFAB5D312B19D11FFA86F909F1CD
:10455C00FF31DAF8002089B2404600F067FADAF849
:10456C0000204946404600F061FADBF8002009F1D2
:10457C00010189B2404600F059FA0136DFE7352BCC
:10458C00FBD11FFA86F909F1FF31DBF8002089B263
:10459C00404600F04BFADAF800204946404600F05D
:1045AC0045FADAF8002009F10101E2E74D5E0B0053
:1045BC00605E0B00685E0B0094E603207CE6032033
:1045CC00B0E60320785E0B0078E6032011430B0065
:1045DC003D410B008A5E0B00775E0B0090E60320DA
:1045EC00ACE603207DE6032080E6032098E603205A
:1045FC000A4B10B50022C3E90022A2F580329A6062
:10460C00032000F0F1FB064800F012FC0223BDE889
:10461C00104004481A46642100F04AB86CE60320A6
:10462C0080E6032098E6032038B50446C0680D46A2
:10463C0008B100F075FCA379062B0CBF04200320F5
:10464C0010FB05F080B2A08000F062FCE06028B1A5
:10465C00A288002101F054FA658038BDA0806080EA
:10466C00FBE710B504460121C07901F0F9F8E079B7
:10467C00002101F006F90123237010BD37B5037832
:10468C0005460C461BB1C079002101F0E9F82B78E6
:10469C00EC715BB1A0B20121019001F0E1F801983D
:1046AC00002103B0BDE8304001F0EBB803B030BDE1
:1046BC0070B50025044616468371C0E90355057094
:1046CC000572FFF7B1FF20463146FFF7D7FF2046B2
:1046DC0070BD0000C368002B00F0A4812DE9F04FE1
:1046EC008379023BDBB2042B9CBFBF4A52F82340B8
:1046FC0085B0054688BF322400F04EFA2B69C01AEB
:10470C00A042F9D3B94CAE88D4F800351BB9D4F813
:10471C006035002B7EDBB64CD4F8003523B9D4F8C9
:10472C006035002BC0F26E81B24CD4F80035002BF2
:10473C0000F04481EB79B04AB04C1268190102EBDD
:10474C000313575CAE495B78D1F8FC2042F08072C1
:10475C00C1F8FC20226803F01F0343EA471301272A
:10476C003A432260A988D5F80C80D4F804909F4075
:10477C00002944D04FF0000E72464FF0A04118F8BB
:10478C0001CB0820802663689B1A462BFBD96268F4
:10479C00D1F808351CEA060F43EA0703C1F80835BF
:1047AC002FD063689B1A282BFBD9D1F80C35013814
:1047BC0043EA07034FEA5606C1F80C35E3D1AB8840
:1047CC000EF1010E1FFA8EFE7345D8D84FF43071DE
:1047DC0003FB01F163689B1A462BFBD96368A3EBBF
:1047EC0009098945C0F0E4804FF4967000F0CCF9CB
:1047FC00A988D5F80C80D4F804900029BAD10A46BF
:10480C00E8E763689B1A112BCFD863689B1A112BAE
:10481C00F7D9CAE7D4F86435002BBFF67CAFD4F8CF
:10482C006835002BBFF677AFD4F86C35002BBFF68C
:10483C0072AF3601331D1846009300F069FB002857
:10484C003FF478AFAB88002B00F0ED80EA68013BB9
:10485C0012FA83F702F1FF3E002348F2060248F2F7
:10486C000D011EF801CF1CF0800F0CBF93468B4638
:10487C001CF0400F0CBF16460E461CF0200F0CBF50
:10488C009046884603F10109CDF80880019603F1A2
:10489C0002081FFA89F9019E20F813B01FFA88F854
:1048AC0020F81960029E20F8186003F103081CF030
:1048BC00100F1FFA88F80CBF93468B4620F818B0DF
:1048CC0003F104081CF0080F1FFA88F80CBF93467C
:1048DC008B4620F818B003F105081CF0040F1FFAE2
:1048EC0088F80CBF93468B4620F818B003F1080AE1
:1048FC0003F1060807339BB21CF0020F1FFA88F86D
:10490C000CBF93468B46CDF80CA01CF0010F20F881
:10491C0018B015BF20F8131020F813201FFA8AF3D3
:10492C00BDF80C3077459CD1591C023389B29BB22F
:10493C0049005B004FF400474752009AC7522E4B78
:10494C0056081F6800221423C4F80425C4F80C254B
:10495C00C4F80835C4F81425C4F81025C4F820058B
:10496C00C4F82465C4F82825C4F82C25EB7907EB8A
:10497C00031C1B010121FE5C9CF8013003F01F039A
:10498C0043EA4613C4F86035C4F80015C4F8102186
:10499C00A160D4F81031002BFBD000234FF0FF3274
:1049AC00C4F81031C4F80035C4F8602500F0B8FA2A
:1049BC0000F0F2F8286105B0BDE8F08FD4F860354E
:1049CC00002BBFF6B7AED4F86435002BBFF6B2AEF1
:1049DC00D4F86835002BBFF6ADAED4F86C35002B8F
:1049EC00BFF6A8AE25E700BF9C5E0B0000C00140DF
:1049FC000010024000200240B4E60320001000E04A
:104A0C0000ED00E0D4F86435002BBFF68DAED4F881
:104A1C006835002BBFF688AED4F86C35002BBFF68A
:104A2C0083AE06E770470423022183E743888B4259
:104A3C00F0B52DD9067AC2F30743C2F30724D5B2D9
:104A4C003EB1734374437543C3F30723C4F3072484
:104A5C002D0A90F806C0C768BCF1060F0CBF0426DF
:104A6C0003264E43ACF1020CB919BCF1060F1DD84C
:104A7C00DFE80CF0041C08040F040400BC554B7058
:104A8C008D7005E0FE2B28BFFE23BB554D708C703E
:104A9C00F0BDBB554C708D70037A120E13B9D2B2A7
:104AAC00CA70F5E75A43C2F30722F9E7BB554C70BD
:104ABC00E6E7F7B543888B4246D98479C668062C5D
:104ACC000CBF042503254D437219A71E5378715D45
:104ADC009278062F34D8DFE807F0043309040D046C
:104AEC000400090241EA0343134305E0120242EABF
:104AFC000142F9E773591BBA027A0193EAB1062C09
:104B0C0001BF9DF807301B02B3FBF2F38DF80730A1
:104B1C009DF804301B02B3FBF2F38DF804309DF8C2
:104B2C0005301B02B3FBF2F38DF805309DF806300F
:104B3C001B02B3FBF2F38DF80630019803B0F0BD05
:104B4C001B0243EA0143CFE70020F7E78288C068E5
:104B5C00002100F0D5BF000008B500F02DF8014B86
:104B6C00186008BDB4E6032008B5024B1B685B6CEB
:104B7C00019308BD4802030008B5024B1B685B6833
:104B8C00019308BD1802030008B5024B1B68DB68D3
:104B9C00019308BD1802030008B5024B1B681B6982
:104BAC00019308BD1802030008B5024B1B685B6932
:104BBC00019308BD1802030008B5024B1B681B6863
:104BCC00019308BD2C02030008B5024B1B689B68BF
:104BDC00019308BD2C02030008B5024B1B68DB686F
:104BEC00019308BD2C02030008B5024B1B681B691E
:104BFC00019308BD2C02030008B5024B1B68DB684F
:104C0C00019308BD2802030008B5024B1B681B6901
:104C1C00019308BD2802030008B5024B1B681B6AF0
:104C2C00019308BD2802030008B5024B1B685B6AA0
:104C3C00019308BD2802030008B5024B1B689B6A50
:104C4C00019308BD2802030008B5024B1B68DB6A00
:104C5C00019308BD2802030008B5024B1B681B6BAF
:104C6C00019308BD2802030008B5024B1B685B6B5F
:104C7C00019308BD2802030008B5024B1B689B6B0F
:104C8C00019308BD2802030008B5024B1B68DB6BBF
:104C9C00019308BD2802030008B5024B1B681B6C6E
:104CAC00019308BD2802030008B5024B1B685B6921
:104CBC00019308BD6402030008B5024B1B689B6896
:104CCC00019308BD6802030008B5024B1B68DB6842
:104CDC00019308BD6802030008B5024B1B68DB6931
:104CEC00019308BD3002030008B5024B1B681B6A18
:104CFC00019308BD3002030008B5024B1B68DB684A
:104D0C00019308BD3C02030008B5024B1B681B69EC
:104D1C00019308BD3C02030008B5024B1B685B699C
:104D2C00019308BD3C02030008B5024B1B689B694C
:104D3C00019308BD3C02030008B5024B1B68DB69FC
:104D4C00019308BD3C02030008B5024B1B681B6AAB
:104D5C00019308BD3C02030008B5024B1B689B6A1B
:104D6C00019308BD3C02030008B5024B1B681B6C89
:104D7C00019308BD3C02030008B5024B1B681B687D
:104D8C00019308BD4C02030008B5024B1B685B681D
:104D9C00019308BD4C02030008B5024B1B681B694C
:104DAC00019308BD4C02030008B5024B1B685B69FC
:104DBC00019308BD4C02030008B5024B1B689B69AC
:104DCC00019308BD4C02030008B5024B1B68DB695C
:104DDC00019308BD4C02030008B5024B1B681B6A0B
:104DEC00019308BD4C02030008B5024B1B685B68BD
:104DFC00019308BD2002030008B5024B1B685B69D8
:104E0C00019308BD2002030008B5034B1B68D3F8BF
:104E1C008830019308BD00002002030008B5034B45
:104E2C001B68D3F89430019308BD000020020300E6
:104E3C0008B5024B1B68DB69019308BD44020300F3
:104E4C0008B5024B1B68DB6B019308BD44020300E1
:104E5C0008B5024B1B685B68019308BD4002030058
:104E6C0008B5024B1B689B68019308BD4002030008
:104E7C0008B5024B1B68DB68019308BD40020300B8
:104E8C0008B5024B1B681B69019308BD4002030067
:104E9C0008B5024B1B685B69019308BD4002030017
:104EAC0008B5024B1B689B69019308BD40020300C7
:104EBC0008B5024B1B68DB69019308BD4002030077
:104ECC0008B5024B1B681B6A019308BD4002030026
:104EDC0008B5024B1B681B6B019308BD4002030015
:104EEC0008B5024B1B685B6B019308BD40020300C5
:104EFC0008B5024B1B681B6C019308BD40020300F4
:104F0C0008B5024B1B685B6C019308BD40020300A3
:104F1C0008B5024B1B681B68019308BD1C020300FB
:104F2C0008B5024B1B685B68019308BD1C020300AB
:104F3C0008B5024B1B68DB6A019308BD1C02030019
:104F4C0008B5024B1B68DB6B019308BD1C02030008
:104F5C0008B5024B1B681B6C019308BD1C020300B7
:104F6C0008B5024B1B685B6C019308BD1C02030067
:104F7C000021FFF741BF0000024800230360FFF748
:104F8C00F3BD00BFB8E60320002240681146FFF7CE
:104F9C0097BF002240681146FFF7A2BF406800226D
:104FAC00FFF796BF4068002281F00101FFF780BF38
:104FBC00002340681A461946FFF772BF0023406869
:104FCC001A461946FFF764BF002240681146FFF7E6
:104FDC0057BF002240681146FFF742BF40680022CD
:104FEC000221FFF745BF002340681A46FFF730BF88
:104FFC00024B03225A60024A1A607047BCE6032037
:10500C00B85E0B007047F8B5064615460C468F186F
:10501C00BC4206D0336814F8011B9B683046984795
:10502C00F6E72846F8BD007C0022FFF7F5BD007CB2
:10503C000021FFF7F9BD007C0021FFF7FDBD007CCE
:10504C000021FFF701BE007C0021FFF705BE10B563
:10505C0014210446FFF71DF8204610BD10B54FF47F
:10506C007A73044608460021C4E90113034B2360FC
:10507C0020741146FFF710FE204610BDF45E0B00A5
:10508C000A46007C00230121FFF7B6BDC9B2FFF729
:10509C00F7BF007C0021FFF7B7BD007C0022FFF7B3
:1050AC00EBBD007C0022FFF7EFBD704710B5182157
:1050BC000446FEF7EEFF204610BDF0B5037D062B2F
:1050CC008DB00E4600F104074FF0000412D000F131
:1050DC00080515F8011D0A22304600F068F9AF42A8
:1050EC00044419D0002CF4D02E21304600F03CF9A9
:1050FC000444EEE72F236A4639460A208DF8004017
:10510C00FFF7D2FD684600F06FFD33680246DB689E
:10511C00694630469847044620460DB0F0BD000065
:10512C0010B5054B0446112240F8043B002100F059
:10513C00E7FC204610BD00BF1C5F0B000346074A6E
:10514C0010B543F8042B01F1100251F8044B43F84D
:10515C00044B9142F9D10A781A7010BD1C5F0B00F8
:10516C0010B59DF8084044EA032343EA024242EAA0
:10517C00016104234160037510BD000007B5064BA7
:10518C000360CB7800938B784A780978FFF7E8FFB7
:10519C0003B05DF804FB00BF1C5F0B00014B024A1F
:1051AC001A607047C4E60320285F0B000023406898
:1051BC001A46FFF74DBE406800220221FFF758BE89
:1051CC00002240681146FFF74BBE00224068114692
:1051DC00FFF756BE002340681A461946FFF758BE23
:1051EC00002340681A461946FFF75ABE4068002152
:1051FC00FFF77EBE40680021FFF782BE40680022A8
:10520C0081F00101FFF754BE40680022FFF760BE39
:10521C00002240681146FFF763BE00224068114629
:10522C00FFF74EBE2DE9F04395B014460D460746E8
:10523C00FFF776FF00211C220DA8009100F060FC06
:10524C0040230C9320466B460CAA0021FFF73CFD33
:10525C00044600284BD1024601216868FFF710FE76
:10526C000221804622466868FFF70AFE009E8146AE
:10527C002146002E3BD0002939D17368022B03D074
:10528C000A2B11D0F669F4E7B8F1000FFAD0716966
:10529C0006A8043107ADFFF771FF0FCD3C1D0FC4FD
:1052AC002B6823704146EDE7B9F1000FEAD0746921
:1052BC00102201A800F024FC06238DF8143001AD57
:1052CC0004F108031834186859682A4603C20833D5
:1052DC00A3421546F7D101A906A807ADFFF72EFF8B
:1052EC000FCD3C1D0FC42B6823704946CAE70098AC
:1052FC00FFF7E2FC384615B0BDE8F083024B034AD9
:10530C001A6000225A607047C8E60320345F0B0015
:10531C00F8B506460D468F180024BD420CD03368F4
:10532C0015F8011B9B6830469847031E01DB1C4493
:10533C00F3E7002C08BF1C462046F8BD13B5044605
:10534C00084659B1019100F04FFC23680199DB68C4
:10535C000246204602B0BDE81040184702B010BD0E
:10536C0008B5FFF7EBFF08BD03689B68184738B515
:10537C000D210546FFF7F8FF0A2104462846FFF7E2
:10538C00F3FF204438BD38B50546FFF7D7FF044678
:10539C002846FFF7ECFF204438BD38B50546FFF72B
:1053AC00E3FF04462846FFF7E2FF204438BD30B542
:1053BC008BB00023012A8DF8243098BF0A2209AC47
:1053CC000D46B1FBF2F101FB125303F0FF03092B65
:1053DC0094BF30333733DBB2AA4204F8013DEFD926
:1053EC002146FFF7ABFF0BB030BD10B5044628B11A
:1053FC0000F0BCFB90FBF4F303FB1404204610BD3F
:10540C00884210B5044603DA081AFFF7EEFF04448D
:10541C00204610BD014B00229A607047D0E6032055
:10542C0010B5044608462170FFF756FC0023636054
:10543C00204610BD83688B4203D9006810B1405CD4
:10544C00704700207047FFF7F5BF0000054B0222A4
:10545C001A60054B054A9A600020C3E90000FFF76B
:10546C00C3BC00BFECE60320E0E603200000FFFF16
:10547C00024B1A68024B1A60704700BF00E603200B
:10548C00F0E6032070474174704708B5007CFFF7C5
:10549C0063FC20EAE07008BD08B5007CFFF734FC23
:1054AC0020EAE07008BD08B5007CFFF73DFC40EA3F
:1054BC00E07008BD08B5007CFFF72EFC40EAE070F8
:1054CC0008BD007CFFF738BC37B5457C04462DB1D0
:1054DC00207C03B0BDE83040FFF70EBC007C01918E
:1054EC00FFF73AFC00280199F2DC284603B030BDE6
:1054FC0010B514210446FEF7CCFD204610BD00006B
:10550C0010B54FF47A730446084611460022C4E9DC
:10551C000123044B2360012320746374FFF724FCE4
:10552C00204610BD8C5F0B0041747047704770476C
:10553C0008B50021007CFFF73FFC40EAE07008BD95
:10554C0008B50121007CFFF737FC40EAE07008BD8C
:10555C0008B5007CFFF728FC20EAE07008BD08B510
:10556C00007CFFF719FC20EAE07008BD13B5044677
:10557C00007C0191FFF718FC0028019901DC607C8C
:10558C0020B1207CFFF720FC20EAE07002B010BDB7
:10559C00007CFFF721BC10B514210446FEF779FD01
:1055AC00204610BD10B54FF47A730446084600210E
:1055BC00C4E90113044B2360012320746374114666
:1055CC00FFF7DAFB204610BDBC5F0B00007C00220D
:1055DC00FFF7DABB10B514220446002100F090FA54
:1055EC00204610BD10B50F4C88B003A8FFF7F2FF92
:1055FC002178BFF35B8F11F001010FD1204601918F
:10560C00FEF749FD019948B103AA0748FFF7CAFF05
:10561C002046FEF745FD054800F05EFA024808B04A
:10562C0010BD00BFF4E60320F8E6032039550B004B
:10563C00002240681146FFF723BC00224068114647
:10564C00FFF73EBC002240681146FFF749BC40689A
:10565C000022FFF73DBC4068002281F00101FFF7FA
:10566C0027BC002340681A461946FFF719BC0023D3
:10567C0040681A461946FFF70BBC002240681146D9
:10568C00FFF7EEBB406800220221FFF7F1BB0023BD
:10569C0040681A46FFF7DCBB024B04225A60024AF0
:1056AC001A6070470CE70320EC5F0B00014B18608D
:1056BC00704700BF04E6032008B50B4B43B1FFF75E
:1056CC0091FF03681B699847002801DDAFF3008048
:1056DC00064B43B100F030F903681B69984700286A
:1056EC0001DDAFF3008008BD0000000000000000E9
:1056FC0008B5FFF7E1FFFFF757FA014B186008BD3B
:10570C0028E703200548064A064908B5121A00F096
:10571C00E9F9054B054A1A6008BD00BF00F40320E7
:10572C0004F4032004620B0000F403201E1C279ACF
:10573C0007B5002300931A466FF07701FFF76EFB55
:10574C0003B05DF804FB000007B543880A2B08D0B2
:10575C00502B0BD1094B1B684BB103B05DF804EB1C
:10576C001847FFF7E5FF03B05DF804FB0023009337
:10577C001A466FF07701FFF751FBF4E718E70320A7
:10578C0010B512480021FFF7EBFB114B1A68114BB7
:10579C009A42114B0CBF012200221A7001D0FFF764
:1057AC00B1FFFFF7E9F9044600F0B2F90B4B13B166
:1057BC002046AFF3008000210848FFF741FBBDE80D
:1057CC00104007480021FFF71FBB00BFB9560B0064
:1057DC0000F403201E1C279A14E70320000000008D
:1057EC0055570B00232813B502D9002002B010BD69
:1057FC00A0F10B03022B1AD8174C2178BFF35B8F47
:10580C0011F001010BD120460191FEF744FC0199E6
:10581C0028B11248FFF704FE2046FEF741FC0F4B5F
:10582C001878FFF761FA0028DFD10120DEE70128A4
:10583C0009D800F041F80021007CFFF715FA80F040
:10584C000100C0B2D2E709380128EED800F074F894
:10585C00007CFFF779FAF2E71CE7032020E703202E
:10586C00232838B504460D460AD8FF2908D0FFF77F
:10587C00B9FF28B129462046BDE83840FFF7A4B946
:10588C0038BD38B504460D46FFF7A6F9FF2810D0F1
:10589C00062804D84D2323FA00F0C30709D4204668
:1058AC00FFF7A0FF28B129462046BDE83840FFF796
:1058BC009BB938BD7047000030B50E4D2978BFF349
:1058CC005B8F11F0010487B011D12846FEF7E3FB82
:1058DC0068B101A8FEF794FC01AA21460648FFF71F
:1058EC00BDFB2846FEF7DCFB044800F0F5F8024847
:1058FC0007B030BD2CE7032030E70320C1580B0064
:10590C007047000038B5044614252A46002100F0E3
:10591C00F7F825804025074925812846258200F087
:10592C002FF804496060284600F02AF8E060204611
:10593C0038BD00BF20600B0030B50E4D2978BFF389
:10594C005B8F11F0010487B011D12846FEF7A3FB41
:10595C0068B101A8FFF7D6FF01AA21460648FFF758
:10596C00CFFD2846FEF79CFB044800F0B5F8024832
:10597C0007B030BD44E7032048E703200D590B0066
:10598C00FEF783BB08B5FFF7D3FA08B5FFF7D0FADB
:10599C0008B5FFF7CDFA08B5FFF7CAFA08B5FFF757
:1059AC00C7FA0AB100F09EB87047000008B50B6842
:1059BC00B3F1804F02D30D48FFF7EDFF93420BD9A3
:1059CC00B3EB420F4FEA420006D2B0F1804F2ABF30
:1059DC006FF0404308600B600868013001D5FFF799
:1059EC00D1FFBDE80840FEF74EBB00BF21600B00A5
:1059FC0050F8083B834202D01846FEF748BB70476C
:105A0C00012A10B404D10A785DF8044B0270704777
:105A1C005DF8044BFFF7C5BF08B5521AFFF7F0FF4E
:105A2C0008BD2DE9F3470A9E1F46436801EB0208A7
:105A3C00B21A1A44A3EB08090346019253F8082B37
:105A4C009A4218BF82680D4608BF0F2201A904466E
:105A5C00FFF7ACFF82461DB121682A46FFF7D0FF45
:105A6C0037B12EB1324639460AEB0500FFF7C8FFB5
:105A7C00B9F1000F07D0216835444A4641440AEB7E
:105A8C000500FFF7BDFF2046FFF7B2FF019BC4F8EE
:105A9C0000A0A36002B0BDE8F0870346F7B553F849
:105AAC00082B46689A4218BF836806F1010508BFA7
:105ABC000F239D4204460F4606D901230093002371
:105ACC001A463146FFF7ADFF23689F552368656082
:105ADC0000225A5503B0F0BD002301461A46184661
:105AEC0000F006B90A44914200F1FF3300D170472F
:105AFC0010B511F8014B03F8014F9142F9D110BDCB
:105B0C0002440346934200D1704703F8011BF9E7A6
:105B1C0038B5104B1D68AB6B0446B3B91820FFF7B2
:105B2C00F7F90246A86320B90B4B0C484221FFF74A
:105B3C000FFA0B490B4BC0E900130B4B83600B2383
:105B4C00838100210120C2E90401AB6B00221C619E
:105B5C005A6138BD04E6032039600B0050600B001D
:105B6C000E33CDAB34126DE6ECDE0500164B10B5E2
:105B7C001C68A36BB3B91820FFF7CAF9A06328B946
:105B8C000246124B12484E21FFF7E2F9114A124B12
:105B9C00C0E90023114B83600B2383810122002376
:105BAC00C0E90423A46B0E4A206963690D49424382
:105BBC0001FB0322A0FB0101431C42EB0100C4E9E1
:105BCC00043020F0004010BD04E6032039600B00C7
:105BDC0050600B000E33CDAB34126DE6ECDE0500DD
:105BEC002DF451582D7F954C034613F8012B002AA8
:105BFC00FBD1181A013870472DE9F043364F864611
:105C0C000D46284615F8014BE65D16F00806F8D14E
:105C1C002D2C2FD12C780126851C002B57D0102B26
:105C2C0009D1302C07D1287800F0DF00582849D151
:105C3C006C78102302354FF0FF380027B8FBF3F8CF
:105C4C0003FB08F96FEA09093846A4F1300CBCF1E2
:105C5C00090F14D86446A34222DD002F1DDB8045BA
:105C6C001BD301D1A14518DB00FB0340012715F81C
:105C7C00014BEAE72B2C04BF2C78851CCDE7A4F153
:105C8C00410CBCF1190F01D8373CE4E7A4F1610CCD
:105C9C00BCF1190F04D8573CDDE74FF0FF37E6E7AE
:105CAC00002F07DA2223CEF800304FF0FF3032B944
:105CBC00BDE8F08306B14042002AF9D007B1691E55
:105CCC001160F5E73024002BB5D10823B3E7302C55
:105CDC00A9D00A23AFE700BFAA600B0013460A46FF
:105CEC00014602480068FFF787BF00BF04E60320A7
:105CFC002DE9F843DFF8B8800646D8F800001F46B7
:105D0C000D46914600F056F8254B1C6834B9254CCD
:105D1C001C60254B13B11B68C4F8883063681F2BBB
:105D2C0007DDD8F8000000F047F84FF0FF30BDE871
:105D3C00F8834EB3D4F8880088B91C4B23B9D8F833
:105D4C00000000F038F8F0E74FF48470FFF7E0F84B
:105D5C000028F4D00023C0E94033C4F888006368FD
:105D6C0040F8239001229A4000EB8301D0F80031D7
:105D7C001343C0F80031022EC1F8807002BFD0F876
:105D8C0004311343C0F804316368D8F800005A1C7E
:105D9C000233626044F8235000F00EF80020C6E78E
:105DAC00E8E703205CE70320000000001D4F0B0018
:105DBC0068E6032070477047704700001D400B00D9
:105DCC0059400B0081400B0085400B000000000087
:105DDC0073746F756C007265717565737420726580
:105DEC006365697665640072657175657374206DA1
:105DFC006F646520310031207772697465007265BB
:105E0C007175657374206D6F6465203200706173F9
:105E1C0073006661696C0062617369635F737472AD
:105E2C00696E673A3A5F4D5F636F6E737472756338
:105E3C0074206E756C6C206E6F742076616C696466
:105E4C0000646174612072656369657665207374A2
:105E5C0061727400636F756E743A200064617461D2
:105E6C002072656365697665643A200072616E64C0
:105E7C006F6D697A65206164647265737300636F1A
:105E8C0072726563742061646472657373000000E0
:105E9C002C01000018000000F40100002C0100008F
:105EAC00500000000000000000000000F34F0B0049
:105EBC00E94F0B00DF4F0B00D54F0B00C94F0B0008
:105ECC00BD4F0B00F9510B0001520B00B14F0B00F1
:105EDC00A94F0B009F4F0B00954F0B0031520B003D
:105EEC00000000000000000011500B005B500B0084
:105EFC0033500B0013500B003B500B0043500B0066
:105F0C004B500B0053500B00000000000000000031
:105F1C00C7500B00B7500B00B9500B0061707000EC
:105F2C000000000000000000B9510B00C3510B0031
:105F3C00CD510B00D7510B00E1510B00ED510B0073
:105F4C00F9510B0001520B0009520B0015520B00BA
:105F5C001D520B0027520B0031520B0025592D25D9
:105F6C006D2D25645425483A254D3A2553257A0044
:105F7C0061736374696D650000000000000000002F
:105F8C0091540B00FD540B00D5540B001D530B000A
:105F9C00A5540B00C1540B00B3540B00CF540B0091
:105FAC0093540B0097540B000000000000000000FD
:105FBC003B550B00A3550B0079550B001D530B00E3
:105FCC006B550B003D550B004D550B009D550B00B3
:105FDC005D550B0035550B00000000000000000063
:105FEC009B560B0091560B0087560B003D560B0031
:105FFC007B560B006F560B00F9510B0001520B0036
:10600C0063560B005B560B0051560B0047560B00AA
:10601C0031520B000062617369635F737472696E55
:10602C00673A3A5F4D5F637265617465005245452E
:10603C004E54206D616C6C6F632073756363656582
:10604C00646564002F746D702F6A656E6B696E7376
:10605C002D4743432D31302D706970656C696E6529
:10606C002D34385F32303230313132345F313630AA
:10607C00363138303633392F7372632F6E65776C47
:10608C0069622F6E65776C69622F6C6962632F731E
:10609C0074646C69622F72616E642E630000202040
:1060AC0020202020202020282828282820202020BC
:1060BC00202020202020202020202020202088107C
:1060CC0010101010101010101010101010100404DC
:1060DC0004040404040404041010101010101041E3
:1060EC004141414141010101010101010101010154
:1060FC0001010101010101010110101010101042E9
:10610C004242424242020202020202020202020223
:10611C000202020202020202021010101020000001
:10612C000000000000000000000000000000000063
:10613C000000000000000000000000000000000053
:10614C000000000000000000000000000000000043
:10615C000000000000000000000000000000000033
:10616C000000000000000000000000000000000023
:10617C000000000000000000000000000000000013
:10618C000000000000000000000000000000000003
:10619C0000000000000000000000000000000000F3
:1061AC00FD450B00654B0B00854F0B00FD4F0B00A5
:1061BC00A9510B0009530B0021540B0059540B002F
:1061CC007D540B00A5560B000000000000000000E1
:0461DC0000000000BF
:1061E000040000001400000003000000474E5500AA
:1061F0005219619CA8C6BA1507EBAF6CE63F9DC06B
:04620000C383BC8117
:046204000000000096
:106208007C5F0B0008E6032000000000000000008F
:106218000000000000000000000000000000000076
:106228000000000000000000000000000000000066
:106238000000000000000000000000000000000056
:106248000000000000000000000000000000000046
:106258000000000000000000000000000000000036
:0C6268000000000000000000ECE7032034
:10627400FFFFFFFF00000102030405060708090AE7
:106284000B0C0D0E0F101112131415161718191AE2
:086294001B1C1D1E1F20280029
:04629C0078563412EA
:04000003B000401CED
:00000001FF
