:02000002B0004C
:1040000000400B0080640B00000006000C0005025D
:084010000401E50C00000000B2
:04401800A45F0B0096
:10401C0009480A49884208B505D0094A824202D0AB
:10402C00121A01F04DFE0748074A0021121A01F03E
:10403C0055FE014808BD00BF00E60320E8630B00F5
:10404C0070E6032070E60320EDE7032070B5074E01
:10405C00074C01F083FCA41BA4080025AC4200D142
:10406C0070BD56F8043B98470135F7E790630B0099
:10407C00B8630B0000F096B808B500F03FF9BDE846
:10408C00084001F023BC00F0F5BF00F0F3BF00F0D6
:10409C00F9BF00F0F7BF0078B0FA80F04009704724
:1040AC0001230370704713B5044661B108460191B2
:1040BC0001F088FE23680199DB680246204602B0B5
:1040CC00BDE81040184702B010BD000008B501F063
:1040DC0077FB134901F011FA124B1B68012B02D02C
:1040EC00022B0DD008BD01F06BFB0F4901F005FA56
:1040FC0001F0D0FC0D4B1968BDE80840FFF7D3BFA9
:10410C0001F05EFB0A4901F0F8F90A4B1B781BB170
:10411C0001F0C0FC0849EFE701F0BCFC0749EBE7F4
:10412C00B85F0B0098E60320C95F0B0084E6032000
:10413C00D85F0B0000E60320E75F0B00EC5F0B0081
:10414C000EB403B503AB002153F8042B019301F01B
:10415C0006FA02B05DF804EB03B070470EB403B579
:10416C0003AB012153F8042B019301F0F8F902B0D1
:10417C005DF804EB03B0704738B54FF400751423A9
:10418C0004460360856005610549284601F0E6FC9C
:10419C0003496060284601F0E1FCE060204638BD30
:1041AC0004620B0010B586B000F0B0FD01F01DFAF2
:1041BC001E481F4C4068002319461A4600F022FF87
:1041CC0001F0FEFA4FF4165101F0EEFA40210820EE
:1041DC0001F001FA20602368292B04D1402108202A
:1041EC0001F0F9F9F6E701A8FFF7C6FF01F052FC60
:1041FC00216801F005F801F04DFC0E4901F007F8BB
:10420C0001F048FC0C4901F006F80121072001F0EF
:10421C0015FC0A4800F0D1FA084800F04AFD07489E
:10422C0006B0BDE8104000F001BB00BF0CE7032056
:10423C007CE6032085440B00D9400B009CE6032050
:10424C00542809D8A0EB8001013900EB4000002272
:10425C00C9B2C0B200F0D9BCA92809D85538C0B22F
:10426C0000EB4002A0EB80000138D2B20021F0E755
:10427C005630C1B2A1EB8102013A01EB4101D2B23D
:10428C00C9B20020E6E700002DE9F041194B1C787B
:10429C0006460CB3184F00240025384600F007FDE5
:1042AC001FFA85F880450AD26019C0B2FFF7C8FF23
:1042BC0041460246384600F065FC0135EDE73846CC
:1042CC00013400F0B3FAA4B2304600F00BFFB4F5A1
:1042DC00807FE1D1BDE8F081074DA1B200222846D4
:1042EC00013400F04FFC642CF7D1BDE8F0410248DA
:1042FC0000F09CBA80E603209CE60320F8B5284C1D
:10430C0023786BB10520FFF7BFFF247844B9254D06
:10431C00A1B200222846013400F034FC642CF7D101
:10432C00214F3B78A3BB214D01F04AFA2A68204962
:10433C00FFF706FF7821402001F04DF9286001F0CD
:10434C003FFA2C68002C064627DA2D2101F0C6F81E
:10435C0061420A22304601F0E4F8304601F0C1F81F
:10436C0001F098FB00F04FFF01F094FB296800F07E
:10437C0047FF01F08FFB0F4900F049FF01F08AFB6A
:10438C000D4900F048FF0D4B00221A6001233B70D1
:10439C00BDE8F840034800F049BA2146D9E700BF10
:1043AC0080E603209CE6032000E603207CE6032045
:1043BC00F15F0B0085440B00D9400B0098E60320FD
:1043CC002DE9F341144607460E461D4600F072FED9
:1043DC00D0F8008000F06EFE00230360089A01A95B
:1043EC002046B847019BA342074602D1304601F054
:1043FC00BDFB00F05FFE0368222B0CD075B900F0FA
:10440C0059FE03681BB900F055FEC0F80080384611
:10441C0002B0BDE8F081304601F0AEFB019A121BF0
:10442C002A60ECE700F1080373B5044603600D46FF
:10443C00E1B1084601F0C6FC0F2805EB000601901F
:10444C0007D9002201A9204601F09EFB019B2060A8
:10445C00A36020683246294601F0CCFB019B226800
:10446C00636000212046D15402B070BD014801F0B8
:10447C007AFB00BF08600B002DE9F04F93B002AF40
:10448C0001F008FB03681B699847C31D23F0070361
:10449C00ADEB030D044601F093F99C4901F01AF8B9
:1044AC0001F08EF9804601F0F5FA03681B69984714
:1044BC00061E02AD2CDA2D21404601F00FF8714298
:1044CC000A22404601F02DF8404601F00AF801F0AE
:1044DC0077F901F006F86E1EDFF86082B14601F044
:1044EC00D9FA03681B699847002813DD01F0D2FA4A
:1044FC0003685B69984788F8000001F061F998F847
:10450C00001001F004F898F8003009F8013FE6E7D4
:10451C003146D5E701F054F97D4900F0EEFF01F08A
:10452C004FF9294600F0D6FF01F04AF900F0D9FF07
:10453C00012C22D12B78312B05D1764B1C604437C2
:10454C00BD46BDE8F08F322B03D1724B02221A60AC
:10455C00F5E7332B02D1704B1C70F0E7342BEED106
:10456C006D4B6E4D00241C70A1B200222846013404
:10457C0000F008FB642CF7D1E1E7182C26D101F0F0
:10458C001FF96749DFF8B881DFF8B89100F0B5FF83
:10459C00002401F015F921460546404601F041F88A
:1045AC0016F8013F024649462846FFF7D7FD21463B
:1045BC00404601F036F83378834203D0594B002241
:1045CC001A70BCE70134182CE3D1B8E70C2C3BD1A2
:1045DC00554907F1280207F11000FFF723FF524954
:1045EC0007F10C0207F12800FFF71CFF6C1D16F8F1
:1045FC00011F07F1100001F03EFBB442F7D1AC1DD6
:10460C000C3514F8011B07F1280001F034FBA5420E
:10461C00F7D110243A694549009400234448FFF728
:10462C00CFFE444BBA6A18604049009400234048BE
:10463C00FFF7C6FE404B186007F1280001F0C6FAE0
:10464C00381901F0C3FA7AE7DFF8D080DFF8E4908C
:10465C00DFF8E4A00026A64219DCB1B2404679602E
:10466C0000F0D8FAD9F800307968984205D10022C8
:10467C00404600F087FA0136EDE74046796000F0DD
:10468C00C9FADAF8003079689842F4D1EFE7DFF82C
:10469C00A4B0DFF88880DFF8A0A00026A642BFF601
:1046AC004EAFAB5D312B19D11FFA86F909F1FF31F1
:1046BC00DAF8002089B2404600F064FADAF80020FB
:1046CC004946404600F05EFADBF8002009F1010192
:1046DC0089B2404600F056FA0136DFE7352BFBD1A4
:1046EC001FFA86F909F1FF31DBF8002089B2404648
:1046FC0000F048FADAF800204946404600F042FA49
:10470C00DAF8002009F10101E2E700BF32600B008A
:10471C003A600B0098E6032080E603209CE6032019
:10472C004A600B0000E6032007600B007A600B0068
:10473C00C55E0B0094E60320B0E6032081E603205F
:10474C0084E6032052600B000A4B10B50022C3E92B
:10475C000022A2F580329A60032000F0F7FB064895
:10476C0000F018FC0223BDE8104004481A466421EE
:10477C0000F04AB870E6032084E603209CE6032090
:10478C0038B50446C0680D4608B100F07BFCA3792F
:10479C00062B0CBF0420032010FB05F080B2A08078
:1047AC0000F068FCE06028B1A288002101F096FAC4
:1047BC00658038BDA0806080FBE710B50446012100
:1047CC00C07901F03BF9E079002101F048F90123AF
:1047DC00237010BD37B5037805460C461BB1C07964
:1047EC00002101F02BF92B78EC715BB1A0B2012107
:1047FC00019001F023F90198002103B0BDE830408D
:10480C0001F02DB903B030BD70B500250446164635
:10481C008371C0E9035505700572FFF7B1FF20469F
:10482C003146FFF7D7FF204670BD0000C368002B50
:10483C0000F0A4812DE9F04F8379023BDBB2042B0D
:10484C009CBFBF4A52F8234085B0054688BF32242E
:10485C0000F054FA2B69C01AA042F9D3B94CAE88B7
:10486C00D4F800351BB9D4F86035002B7EDBB64C80
:10487C00D4F8003523B9D4F86035002BC0F26E8122
:10488C00B24CD4F80035002B00F04481EB79B04ADF
:10489C00B04C1268190102EB0313575CAE495B78FC
:1048AC00D1F8FC2042F08072C1F8FC20226803F0A1
:1048BC001F0343EA471301273A432260A988D5F81E
:1048CC000C80D4F804909F40002944D04FF0000E87
:1048DC0072464FF0A04118F801CB0820802663687F
:1048EC009B1A462BFBD96268D1F808351CEA060FD7
:1048FC0043EA0703C1F808352FD063689B1A282BAD
:10490C00FBD9D1F80C35013843EA07034FEA5606B8
:10491C00C1F80C35E3D1AB880EF1010E1FFA8EFEF7
:10492C007345D8D84FF4307103FB01F163689B1ABF
:10493C00462BFBD96368A3EB09098945C0F0E480D9
:10494C004FF4967000F0D2F9A988D5F80C80D4F801
:10495C0004900029BAD10A46E8E763689B1A112B28
:10496C00CFD863689B1A112BF7D9CAE7D4F86435F2
:10497C00002BBFF67CAFD4F86835002BBFF677AFB1
:10498C00D4F86C35002BBFF672AF3601331D1846C8
:10499C00009300F06FFB00283FF478AFAB88002B3E
:1049AC0000F0ED80EA68013B12FA83F702F1FF3E5A
:1049BC00002348F2060248F20D011EF801CF1CF04C
:1049CC00800F0CBF93468B461CF0400F0CBF164655
:1049DC000E461CF0200F0CBF9046884603F10109CF
:1049EC00CDF80880019603F102081FFA89F9019E9F
:1049FC0020F813B01FFA88F820F81960029E20F8EE
:104A0C00186003F103081CF0100F1FFA88F80CBF94
:104A1C0093468B4620F818B003F104081CF0080FDD
:104A2C001FFA88F80CBF93468B4620F818B003F198
:104A3C0005081CF0040F1FFA88F80CBF93468B4630
:104A4C0020F818B003F1080A03F1060807339BB2EB
:104A5C001CF0020F1FFA88F80CBF93468B46CDF85A
:104A6C000CA01CF0010F20F818B015BF20F8131083
:104A7C0020F813201FFA8AF3BDF80C3077459CD12F
:104A8C00591C023389B29BB249005B004FF40047BA
:104A9C004752009AC7522E4B56081F680022142307
:104AAC00C4F80425C4F80C25C4F80835C4F814253A
:104ABC00C4F81025C4F82005C4F82465C4F82825CA
:104ACC00C4F82C25EB7907EB031C1B010121FE5CC0
:104ADC009CF8013003F01F0343EA4613C4F8603519
:104AEC00C4F80015C4F81021A160D4F81031002BC3
:104AFC00FBD000234FF0FF32C4F81031C4F800355E
:104B0C00C4F8602500F0BEFA00F0F8F8286105B092
:104B1C00BDE8F08FD4F86035002BBFF6B7AED4F8F3
:104B2C006435002BBFF6B2AED4F86835002BBFF657
:104B3C00ADAED4F86C35002BBFF6A8AE25E700BFA0
:104B4C0080600B0000C001400010024000200240B9
:104B5C00B4E60320001000E000ED00E0D4F864356A
:104B6C00002BBFF68DAED4F86835002BBFF688AE9F
:104B7C00D4F86C35002BBFF683AE06E770470423E0
:104B8C00022183E743888B42F0B52DD9067AC2F314
:104B9C000743C2F30724D5B23EB173437443754344
:104BAC00C3F30723C4F307242D0A90F806C0C76883
:104BBC00BCF1060F0CBF042603264E43ACF1020CCD
:104BCC00B919BCF1060F1DD8DFE80CF0041C080461
:104BDC000F040400BC554B708D7005E0FE2B28BFF4
:104BEC00FE23BB554D708C70F0BDBB554C708D7059
:104BFC00037A120E13B9D2B2CA70F5E75A43C2F354
:104C0C000722F9E7BB554C70E6E742EA012141EA7D
:104C1C0000407047F7B543888B4246D98479C66803
:104C2C00062C0CBF042503254D437219A71E53787F
:104C3C00715D9278062F34D8DFE807F0043309044D
:104C4C000D040400090241EA0343134305E0120278
:104C5C0042EA0142F9E773591BBA027A0193EAB1AD
:104C6C00062C01BF9DF807301B02B3FBF2F38DF845
:104C7C0007309DF804301B02B3FBF2F38DF80430BF
:104C8C009DF805301B02B3FBF2F38DF805309DF84F
:104C9C0006301B02B3FBF2F38DF80630019803B01B
:104CAC00F0BD1B0243EA0143CFE70020F7E7408841
:104CBC0070478288C068002101F010B808B500F078
:104CCC002DF8014B186008BDB4E6032008B5024B63
:104CDC001B685B6C019308BD4802030008B5024BCE
:104CEC001B685B68019308BD1802030008B5024BF2
:104CFC001B68DB68019308BD1802030008B5024B62
:104D0C001B681B69019308BD1802030008B5024B10
:104D1C001B685B69019308BD1802030008B5024BC0
:104D2C001B681B68019308BD2C02030008B5024BDD
:104D3C001B689B68019308BD2C02030008B5024B4D
:104D4C001B68DB68019308BD2C02030008B5024BFD
:104D5C001B681B69019308BD2C02030008B5024BAC
:104D6C001B68DB68019308BD2802030008B5024BE1
:104D7C001B681B69019308BD2802030008B5024B90
:104D8C001B681B6A019308BD2802030008B5024B7F
:104D9C001B685B6A019308BD2802030008B5024B2F
:104DAC001B689B6A019308BD2802030008B5024BDF
:104DBC001B68DB6A019308BD2802030008B5024B8F
:104DCC001B681B6B019308BD2802030008B5024B3E
:104DDC001B685B6B019308BD2802030008B5024BEE
:104DEC001B689B6B019308BD2802030008B5024B9E
:104DFC001B68DB6B019308BD2802030008B5024B4E
:104E0C001B681B6C019308BD2802030008B5024BFC
:104E1C001B685B69019308BD6402030008B5024B73
:104E2C001B689B68019308BD6802030008B5024B20
:104E3C001B68DB68019308BD6802030008B5024BD0
:104E4C001B68DB69019308BD3002030008B5024BF7
:104E5C001B681B6A019308BD3002030008B5024BA6
:104E6C001B68DB68019308BD3C02030008B5024BCC
:104E7C001B681B69019308BD3C02030008B5024B7B
:104E8C001B685B69019308BD3C02030008B5024B2B
:104E9C001B689B69019308BD3C02030008B5024BDB
:104EAC001B68DB69019308BD3C02030008B5024B8B
:104EBC001B681B6A019308BD3C02030008B5024B3A
:104ECC001B689B6A019308BD3C02030008B5024BAA
:104EDC001B681B6C019308BD3C02030008B5024B18
:104EEC001B681B68019308BD4C02030008B5024BFC
:104EFC001B685B68019308BD4C02030008B5024BAC
:104F0C001B681B69019308BD4C02030008B5024BDA
:104F1C001B685B69019308BD4C02030008B5024B8A
:104F2C001B689B69019308BD4C02030008B5024B3A
:104F3C001B68DB69019308BD4C02030008B5024BEA
:104F4C001B681B6A019308BD4C02030008B5024B99
:104F5C001B685B68019308BD2002030008B5024B77
:104F6C001B685B69019308BD2002030008B5034B65
:104F7C001B68D3F88830019308BD000020020300A1
:104F8C0008B5034B1B68D3F89430019308BD00009F
:104F9C002002030008B5024B1B68DB69019308BDB6
:104FAC004402030008B5024B1B68DB6B019308BD80
:104FBC004402030008B5024B1B685B68019308BDF3
:104FCC004002030008B5024B1B689B68019308BDA7
:104FDC004002030008B5024B1B68DB68019308BD57
:104FEC004002030008B5024B1B681B69019308BD06
:104FFC004002030008B5024B1B685B69019308BDB6
:10500C004002030008B5024B1B689B69019308BD65
:10501C004002030008B5024B1B68DB69019308BD15
:10502C004002030008B5024B1B681B6A019308BDC4
:10503C004002030008B5024B1B681B6B019308BDB3
:10504C004002030008B5024B1B685B6B019308BD63
:10505C004002030008B5024B1B681B6C019308BD92
:10506C004002030008B5024B1B685B6C019308BD42
:10507C004002030008B5024B1B681B68019308BD76
:10508C001C02030008B5024B1B685B68019308BD4A
:10509C001C02030008B5024B1B685B6A019308BD38
:1050AC001C02030008B5024B1B68DB6A019308BDA8
:1050BC001C02030008B5024B1B68DB6B019308BD97
:1050CC001C02030008B5024B1B681B6C019308BD46
:1050DC001C02030008B5024B1B685B6C019308BDF6
:1050EC001C0203000021FFF739BF00000248002317
:1050FC000360FFF7EBBD00BFB8E603200022406859
:10510C001146FFF78FBF002240681146FFF79ABF88
:10511C0040680022FFF78EBF4068002281F0010139
:10512C00FFF778BF002340681A461946FFF76ABF9D
:10513C00002340681A461946FFF75CBF00224068FE
:10514C001146FFF74FBF002240681146FFF73ABFE8
:10515C00406800220221FFF73DBF002340681A4639
:10516C00FFF728BF024B03225A60024A1A607047AD
:10517C00BCE603209C600B007047F8B5064615464C
:10518C000C468F18BC4206D0336814F8011B9B6880
:10519C0030469847F6E72846F8BD007C0022FFF71A
:1051AC00EDBD007C0021FFF7F1BD007C0021FFF775
:1051BC00F5BD007C0021FFF7F9BD007C0021FFF755
:1051CC00FDBD10B514210446FEF763FF204610BD4B
:1051DC0010B54FF47A73044608460021C4E9011354
:1051EC00034B236020741146FFF708FE204610BDC8
:1051FC00D8600B000A46007C00230121FFF7AEBDEE
:10520C00C9B2FFF7F7BF007C0021FFF7AFBD007CF0
:10521C000022FFF7E3BD007C0022FFF7E7BD7047DB
:10522C0010B518210446FEF734FF204610BDF0B52A
:10523C00037D062B8DB00E4600F104074FF00004E1
:10524C0012D000F1080515F8011D0A22304600F0B5
:10525C0068F9AF42044419D0002CF4D02E2130460A
:10526C0000F03CF90444EEE72F236A4639460A2045
:10527C008DF80040FFF7CAFD684600F0A3FD3368C7
:10528C000246DB68694630469847044620460DB016
:10529C00F0BD000010B5054B0446112240F8043B4C
:1052AC00002100F01BFD204610BD00BF00610B006B
:1052BC000346074A10B543F8042B01F1100251F8CC
:1052CC00044B43F8044B9142F9D10A781A7010BD83
:1052DC0000610B0010B59DF8084044EA032343EA33
:1052EC00024242EA016104234160037510BD0000D3
:1052FC0007B5064B0360CB7800938B784A78097816
:10530C00FFF7E8FF03B05DF804FB00BF00610B0082
:10531C00014B024A1A607047C4E603200C610B0073
:10532C00002340681A46FFF745BE40680022022160
:10533C00FFF750BE002240681146FFF743BE002223
:10534C0040681146FFF74EBE002340681A461946C6
:10535C00FFF750BE002340681A461946FFF752BEAD
:10536C0040680021FFF776BE40680021FFF77ABE47
:10537C004068002281F00101FFF74CBE406800221A
:10538C00FFF758BE002240681146FFF75BBE0022B3
:10539C0040681146FFF746BE2DE9F04395B0144620
:1053AC000D460746FFF776FF00211C220DA8009141
:1053BC0000F094FC40230C9320466B460CAA002171
:1053CC00FFF734FD044600284BD1024601216868E2
:1053DC00FFF708FE0221804622466868FFF702FEAE
:1053EC00009E81462146002E3BD0002939D173689E
:1053FC00022B03D00A2B11D0F669F4E7B8F1000F99
:10540C00FAD0716906A8043107ADFFF771FF0FCD13
:10541C003C1D0FC42B6823704146EDE7B9F1000F1A
:10542C00EAD07469102201A800F058FC06238DF80C
:10543C00143001AD04F108031834186859682A4671
:10544C0003C20833A3421546F7D101A906A807AD3C
:10545C00FFF72EFF0FCD3C1D0FC42B682370494660
:10546C00CAE70098FFF7DAFC384615B0BDE8F083C0
:10547C00024B034A1A6000225A607047C8E60320A8
:10548C0018610B00F8B506460D468F180024BD4276
:10549C000CD0336815F8011B9B6830469847031EE7
:1054AC0001DB1C44F3E7002C08BF1C462046F8BD6A
:1054BC0013B50446084659B1019100F083FC2368EA
:1054CC000199DB680246204602B0BDE8104018473F
:1054DC0002B010BD08B5FFF7EBFF08BD03689B6871
:1054EC00184738B50D210546FFF7F8FF0A21044689
:1054FC002846FFF7F3FF204438BD38B50546FFF7C3
:10550C00D7FF04462846FFF7ECFF204438BD38B5DA
:10551C000546FFF7E3FF04462846FFF7E2FF204469
:10552C0038BD30B58BB00023012A8DF8243098BFDC
:10553C000A2209AC0D46B1FBF2F101FB125303F048
:10554C00FF03092B94BF30333733DBB2AA4204F884
:10555C00013DEFD92146FFF7ABFF0BB030BD2DE974
:10556C00F04186B000AF05460E46381D1421144696
:10557C003B60FFF78FFD13280ED8391D2846FFF727
:10558C0097FF04461EB12846FFF7ABFF04442046A4
:10559C001837BD46BDE8F08100F1080323F007037E
:1055AC00E846ADEB030D2246411C3B686846FFF70D
:1055BC0071FD69462846FFF77BFF0446C546E1E7C7
:1055CC0010B5044628B100F0BFFB90FBF4F303FBCD
:1055DC001404204610BD884210B5044603DA081A9C
:1055EC00FFF7EEFF0444204610BD00F07FBB000027
:1055FC00014B00229A607047D0E6032010B5044698
:10560C0008462170FFF71AFC00236360204610BD8A
:10561C0083688B4203D9006810B1405C704700204E
:10562C007047FFF7F5BF0000054B02221A60054BCF
:10563C00054A9A600020C3E90000FFF787BC00BF51
:10564C00ECE60320E0E603200000FFFF024B1A68A3
:10565C00024B1A60704700BF04E60320F0E60320FB
:10566C0070474174704708B5007CFFF727FC20EAAF
:10567C00E07008BD08B5007CFFF7F8FB20EAE0708D
:10568C0008BD08B5007CFFF701FC40EAE07008BDDE
:10569C0008B5007CFFF7F2FB40EAE07008BD007C27
:1056AC00FFF7FCBB37B5457C04462DB1207C03B01D
:1056BC00BDE83040FFF7D2BB007C0191FFF7FEFB49
:1056CC0000280199F2DC284603B030BD10B5142136
:1056DC000446FEF7DEFC204610BD000010B54FF46A
:1056EC007A730446084611460022C4E90123044B90
:1056FC002360012320746374FFF7E8FB204610BD80
:10570C0070610B00417470477047704708B50021F9
:10571C00007CFFF703FC40EAE07008BD08B50121EE
:10572C00007CFFF7FBFB40EAE07008BD08B5007C8D
:10573C00FFF7ECFB20EAE07008BD08B5007CFFF732
:10574C00DDFB20EAE07008BD13B50446007C019136
:10575C00FFF7DCFB0028019901DC607C20B1207C88
:10576C00FFF7E4FB20EAE07002B010BD007CFFF70D
:10577C00E5BB10B514210446FEF78BFC204610BD8A
:10578C0010B54FF47A73044608460021C4E901139E
:10579C00044B23600123207463741146FFF79EFBB6
:1057AC00204610BDA0610B00007C0022FFF79EBBC1
:1057BC0010B514220446002100F090FA204610BDCA
:1057CC0010B50F4C88B003A8FFF7F2FF2178BFF398
:1057DC005B8F11F001010FD120460191FEF75BFCAC
:1057EC00019948B103AA0748FFF7CAFF2046FEF704
:1057FC0057FC054800F05EFA024808B010BD00BF27
:10580C00F4E60320F8E6032015570B00002240684D
:10581C001146FFF7E7BB002240681146FFF702BCB8
:10582C00002240681146FFF70DBC40680022FFF7CC
:10583C0001BC4068002281F00101FFF7EBBB0023A3
:10584C0040681A461946FFF7DDBB002340681A462C
:10585C001946FFF7CFBB002240681146FFF7B2BBD9
:10586C00406800220221FFF7B5BB002340681A46AE
:10587C00FFF7A0BB024B04225A60024A1A60704721
:10588C000CE70320D0610B00014B1860704700BF80
:10589C0008E6032008B50B4B43B1FFF791FF0368F3
:1058AC001B699847002801DDAFF30080064B43B11C
:1058BC0000F030F903681B699847002801DDAFF34D
:1058CC00008008BD000000000000000008B5FFF7D4
:1058DC00E1FFFFF71BFA014B186008BD28E7032016
:1058EC000548064A064908B5121A00F0E9F9054BB5
:1058FC00054A1A6008BD00BF00F4032004F403201D
:10590C00E4630B0000F403201E1C279A07B5002348
:10591C0000931A466FF07701FFF732FB03B05DF886
:10592C0004FB000007B543880A2B08D0502B0BD181
:10593C00094B1B684BB103B05DF804EB1847FFF73C
:10594C00E5FF03B05DF804FB002300931A466FF0EB
:10595C007701FFF715FBF4E718E7032010B51248A1
:10596C000021FFF7B7FB114B1A68114B9A42114BF0
:10597C000CBF012200221A7001D0FFF7B1FFFFF714
:10598C00ADF9044600F0B2F90B4B13B12046AFF35E
:10599C00008000210848FFF705FBBDE810400748D0
:1059AC000021FFF7E3BA00BF95580B0000F4032069
:1059BC001E1C279A14E703200000000031590B002D
:1059CC00232813B502D9002002B010BDA0F10B039F
:1059DC00022B1AD8174C2178BFF35B8F11F0010101
:1059EC000BD120460191FEF756FB019928B11248C4
:1059FC00FFF704FE2046FEF753FB0F4B1878FFF71A
:105A0C0025FA0028DFD10120DEE7012809D800F0B3
:105A1C0041F80021007CFFF7D9F980F00100C0B2F9
:105A2C00D2E709380128EED800F074F8007CFFF7B3
:105A3C003DFAF2E71CE7032020E70320232838B5C2
:105A4C0004460D460AD8FF2908D0FFF7B9FF28B144
:105A5C0029462046BDE83840FFF768B938BD38B54F
:105A6C0004460D46FFF76AF9FF2810D0062804D823
:105A7C004D2323FA00F0C30709D42046FFF7A0FFFB
:105A8C0028B129462046BDE83840FFF75FB938BD3C
:105A9C007047000030B50E4D2978BFF35B8F11F0C5
:105AAC00010487B011D12846FEF7F5FA68B101A8B8
:105ABC00FEF762FB01AA21460648FFF789FB284640
:105ACC00FEF7EEFA044800F0F5F8024807B030BDD6
:105ADC002CE7032030E703209D5A0B007047000091
:105AEC0038B5044614252A46002100F0F7F8258025
:105AFC004025074925812846258200F02FF80449C6
:105B0C006060284600F02AF8E060204638BD00BFEF
:105B1C0004620B0030B50E4D2978BFF35B8F11F08A
:105B2C00010487B011D12846FEF7B5FA68B101A877
:105B3C00FFF7D6FF01AA21460648FFF7CFFD2846FE
:105B4C00FEF7AEFA044800F0B5F8024807B030BDD5
:105B5C0044E7032048E70320E95A0B00FEF795BA07
:105B6C0008B5FFF79FFA08B5FFF79CFA08B5FFF7E1
:105B7C0099FA08B5FFF796FA08B5FFF793FA0AB148
:105B8C0000F09EB87047000008B50B68B3F1804F69
:105B9C0002D30D48FFF7EDFF93420BD9B3EB420F45
:105BAC004FEA420006D2B0F1804F2ABF6FF040435B
:105BBC0008600B600868013001D5FFF7D1FFBDE824
:105BCC000840FEF760BA00BF05620B0050F8083BB6
:105BDC00834202D01846FEF75ABA7047012A10B415
:105BEC0004D10A785DF8044B027070475DF8044BE1
:105BFC00FFF7C5BF08B5521AFFF7F0FF08BD2DE936
:105C0C00F3470A9E1F46436801EB0208B21A1A4476
:105C1C00A3EB08090346019253F8082B9A4218BFCC
:105C2C0082680D4608BF0F2201A90446FFF7ACFF9E
:105C3C0082461DB121682A46FFF7D0FF37B12EB13D
:105C4C00324639460AEB0500FFF7C8FFB9F1000FE1
:105C5C0007D0216835444A4641440AEB0500FFF75A
:105C6C00BDFF2046FFF7B2FF019BC4F800A0A36064
:105C7C0002B0BDE8F0870346F7B553F8082B466829
:105C8C009A4218BF836806F1010508BF0F239D4295
:105C9C0004460F4606D90123009300231A463146C9
:105CAC00FFF7ADFF23689F552368656000225A55A6
:105CBC0003B0F0BD002301461A46184600F006B9A1
:105CCC000A44914200F1FF3300D1704710B511F82E
:105CDC00014B03F8014F9142F9D110BD0244034628
:105CEC00934200D1704703F8011BF9E738B5104B0C
:105CFC001D68AB6B0446B3B91820FFF7BBF902461D
:105D0C00A86320B90B4B0C484221FFF7DBF90B4978
:105D1C000B4BC0E900130B4B83600B2383810021D9
:105D2C000120C2E90401AB6B00221C615A6138BD31
:105D3C0008E603201D620B0034620B000E33CDAB62
:105D4C0034126DE6ECDE0500164B10B51C68A36B27
:105D5C00B3B91820FFF78EF9A06328B90246124B8D
:105D6C0012484E21FFF7AEF9114A124BC0E900233D
:105D7C00114B83600B23838101220023C0E9042390
:105D8C00A46B0E4A206963690D49424301FB03224F
:105D9C00A0FB0101431C42EB0100C4E9043020F0DC
:105DAC00004010BD08E603201D620B0034620B009E
:105DBC000E33CDAB34126DE6ECDE05002DF45158EC
:105DCC002D7F954C034613F8012B002AFBD1181A92
:105DDC00013870472DE9F043364F86460D4628466C
:105DEC0015F8014BE65D16F00806F8D12D2C2FD1D5
:105DFC002C780126851C002B57D0102B09D1302C68
:105E0C0007D1287800F0DF00582849D16C7810238E
:105E1C0002354FF0FF380027B8FBF3F803FB08F905
:105E2C006FEA09093846A4F1300CBCF1090F14D8FB
:105E3C006446A34222DD002F1DDB80451BD301D11C
:105E4C00A14518DB00FB0340012715F8014BEAE7DD
:105E5C002B2C04BF2C78851CCDE7A4F1410CBCF194
:105E6C00190F01D8373CE4E7A4F1610CBCF1190F10
:105E7C0004D8573CDDE74FF0FF37E6E7002F07DA91
:105E8C002223CEF800304FF0FF3032B9BDE8F0835A
:105E9C0006B14042002AF9D007B1691E1160F5E73E
:105EAC003024002BB5D10823B3E7302CA9D00A231A
:105EBC00AFE700BF8E620B0013460A46014602484C
:105ECC000068FFF787BF00BF08E603202DE9F84301
:105EDC00DFF8B8800646D8F800001F460D469146FC
:105EEC0000F056F8254B1C6834B9254C1C60254B2A
:105EFC0013B11B68C4F8883063681F2B07DDD8F812
:105F0C00000000F047F84FF0FF30BDE8F8834EB3C7
:105F1C00D4F8880088B91C4B23B9D8F8000000F0DD
:105F2C0038F8F0E74FF48470FFF7A4F80028F4D0A9
:105F3C000023C0E94033C4F88800636840F823901C
:105F4C0001229A4000EB8301D0F800311343C0F8D2
:105F5C000031022EC1F8807002BFD0F80431134317
:105F6C00C0F804316368D8F800005A1C0233626030
:105F7C0044F8235000F00EF80020C6E7E8E70320B1
:105F8C005CE703200000000081500B006CE603204E
:105F9C0070477047704700001D400B0059400B00C4
:105FAC0081400B0085400B0000000000726571758C
:105FBC0065737420726563656976656400726571DA
:105FCC0075657374206D6F64652031007265717531
:105FDC00657374206D6F646520320070617373009B
:105FEC006661696C0072616E646F6D697A652061BF
:105FFC006464726573732025642C2000626173697C
:10600C00635F737472696E673A3A5F4D5F636F6E6C
:10601C00737472756374206E756C6C206E6F742063
:10602C0076616C696400636F756E743A200064610C
:10603C0074612072656365697665643A20007369E2
:10604C007A6520323400646576696365494420635F
:10605C006861723A2025632C20696E7075744275E4
:10606C006666657220636861723A202563007374FA
:10607C006F756C002C01000018000000F40100008A
:10608C002C01000050000000000000000000000087
:10609C0067510B005D510B0053510B0049510B0024
:1060AC003D510B0031510B006D530B0075530B0020
:1060BC0025510B001D510B0013510B0009510B0006
:1060CC00A5530B00000000000000000085510B00E0
:1060DC00CF510B00A7510B0087510B00AF510B0098
:1060EC00B7510B00BF510B00C7510B000000000053
:1060FC00000000003B520B002B520B002D520B00EA
:10610C006170700000000000000000002D530B00B7
:10611C0037530B0041530B004B530B0055530B00E3
:10612C0061530B006D530B0075530B007D530B002B
:10613C0089530B0091530B009B530B00A5530B0081
:10614C0025592D256D2D25645425483A254D3A2584
:10615C0053257A0061736374696D6500000000005B
:10616C00000000006D560B00D9560B00B1560B0009
:10617C0091540B0081560B009D560B008F560B0053
:10618C00AB560B006F560B0073560B000000000053
:10619C000000000017570B007F570B0055570B00E2
:1061AC0091540B0047570B0019570B0029570B0044
:1061BC0079570B0039570B0011570B0000000000EA
:1061CC000000000077580B006D580B0063580B0053
:1061DC0019580B0057580B004B580B006D530B0004
:1061EC0075530B003F580B0037580B002D580B0004
:1061FC0023580B00A5530B000062617369635F7336
:10620C007472696E673A3A5F4D5F6372656174656B
:10621C00005245454E54206D616C6C6F6320737554
:10622C0063636565646564002F746D702F6A656EB9
:10623C006B696E732D4743432D31302D706970653A
:10624C006C696E652D34385F323032303131323416
:10625C005F313630363138303633392F7372632F25
:10626C006E65776C69622F6E65776C69622F6C69ED
:10627C0062632F7374646C69622F72616E642E6337
:10628C00000020202020202020202028282828281A
:10629C0020202020202020202020202020202020F2
:1062AC00202088101010101010101010101010104A
:1062BC00101004040404040404040404101010104A
:1062CC001010104141414141410101010101010105
:1062DC000101010101010101010101010110101075
:1062EC0010101042424242424202020202020202D8
:1062FC000202020202020202020202020210101048
:10630C001020000000000000000000000000000051
:10631C000000000000000000000000000000000071
:10632C000000000000000000000000000000000061
:10633C000000000000000000000000000000000051
:10634C000000000000000000000000000000000041
:10635C000000000000000000000000000000000031
:10636C000000000000000000000000000000000021
:10637C000000000000000000000000000000000011
:10638C000000000055470B00C94C0B00F9500B00E6
:10639C0071510B001D530B007D540B00FD550B0070
:1063AC0035560B0059560B0081580B0000000000AD
:0463BC0000000000DD
:1063C000040000001400000003000000474E5500C8
:1063D00096A6F85EDDEBF35046EA7E1148C1EB2F3E
:0463E000ED8517D25E
:0463E40000000000B5
:1063E8000100000060610B000CE6032000000000C3
:1063F8000000000000000000000000000000000095
:106408000000000000000000000000000000000084
:106418000000000000000000000000000000000074
:106428000000000000000000000000000000000064
:106438000000000000000000000000000000000054
:10644800000000000000000000000000ECE703204E
:10645800FFFFFFFF00000102030405060708090A01
:106468000B0C0D0E0F101112131415161718191AFC
:086478001B1C1D1E1F20280043
:046480007856341204
:04000003B000401CED
:00000001FF
