:02000002B0004C
:1040000000400B00D45C0B00000006000C00050211
:084010000401E50C00000000B2
:044018004C590B00F4
:10401C0009480A49884208B505D0094A824202D0AB
:10402C00121A01F09DFB0748074A0021121A01F0F1
:10403C00A5FB014808BD00BF00E60320385C0B005F
:10404C0074E6032074E60320EDE7032070B5074EF9
:10405C00074C01F07DFAA41BA4080025AC4200D14A
:10406C0070BD56F8043B98470135F7E7DC5B0B0055
:10407C00045C0B0000F0D0B908B500F097F9BDE86E
:10408C00084001F01DBA00F03BBE00F041BE0078C4
:10409C00B0FA80F04009704701230370704713B5E4
:1040AC00044661B10846019101F0DCFB23680199DB
:1040BC00DB680246204602B0BDE81040184702B04B
:1040CC0010BD000010B501F075F9154901F043F869
:1040DC00144B1B68012B02D0022B0DD010BD01F02C
:1040EC0069F9114901F037F801F0CEFA0F4B196854
:1040FC00BDE81040FFF7D3BF0D4C01F05BF90D4943
:10410C0001F029F823783BB101F0BEFA0A49FFF718
:10411C00C6FF00232370E1E701F0B6FA0749E7E791
:10412C0060590B0098E6032071590B0088E60320B8
:10413C00B0E6032080590B008F590B0094590B00EB
:10414C002DE9F84F00AF01F09FFA03681B699847FF
:10415C00C31D23F00703ADEB030D044601F02AF950
:10416C00824900F0E5FF01F025F9804601F08CFA58
:10417C0003681B699847051E6E4628DA2D214046B8
:10418C0000F0DAFF69420A22404600F0F8FF404690
:10419C0000F0D5FF01F00EF900F0D1FF744D06F1DF
:1041AC00FF3801F071FA03681B699847002810DD8D
:1041BC0001F06AFA03685B699847287001F0FAF815
:1041CC00297800F0D2FF2B7808F8013FE9E729465F
:1041DC00D9E701F0EFF8674900F0BDFF01F0EAF80C
:1041EC00314600F0A5FF01F0E5F800F0A8FF012C26
:1041FC0018D13378312B02D15F4B1C6004E0322B89
:10420C0005D15D4B02221A60BD46BDE8F88F332BF9
:10421C0002D15A4B1C70F7E7342B3ED1574B00227E
:10422C001A70F1E7182C38D1DFF87091544D002436
:10423C004FF001082146484600F0EDFF335D834204
:10424C0020D000242C7001F0B5F84E494E4D00F0F2
:10425C0082FF7821402000F0BBFF286001F014FAA7
:10426C0000F0FFFD01F010FA296800F0F7FD01F0F5
:10427C000BFA464900F0F9FD01F006FA444900F04A
:10428C00F8FDB9E70134182C85F80080D2D101F083
:10429C0091F8404900F05FFFB6E701F08BF83E491A
:1042AC0000F059FF01F086F8804601F0EDF9036843
:1042BC001B699847051E1ADA2D21404600F03CFF79
:1042CC0069420A22404600F05AFF404600F037FF90
:1042DC00DFF8CC800025A5420BDA735D302B04D1BE
:1042EC000022A9B2404600F0EBFA0135F3E729466B
:1042FC00E7E7DFF8B0B0DFF8A880DFF8ACA0002566
:10430C00A54281DA735D312B19D11FFA85F909F1B8
:10431C00FF31DAF8002089B2404600F0D1FADAF821
:10432C0000204946404600F0CBFADBF8002009F1AA
:10433C00010189B2404600F0C3FA0135E0E7352BA4
:10434C00FBD11FFA85F909F1FF31DBF8002089B2A6
:10435C00404600F0B5FADAF800204946404600F035
:10436C00AFFADAF8002009F10101E2E799590B00E4
:10437C0085E60320A1590B0098E6032084E6032070
:10438C00B0E60320B1590B0080E603204D410B0031
:10439C00D1400B00D4590B00C3590B0088E6032005
:1043AC009CE6032000E6032004E6032008B50D4B31
:1043BC001B787BB10121072001F04BF94FF4FA7007
:1043CC0000F0BEFC0720002101F043F94FF4FA7015
:1043DC0000F0B6FC044800F0C7F8BDE808406420C3
:1043EC0000F0AEBC84E603209CE6032038B54FF405
:1043FC000075142304460360856005610549284651
:10440C0001F0A6F903496060284601F0A1F9E060CB
:10441C00204638BD685B0B0010B586B000F0CAFFB3
:10442C004FF4165100F0BAFF4021082000F0D0FEE6
:10443C00104C206001A8FFF7D9FF01F025F9216885
:10444C0000F00CFD01F020F90B4900F00EFD01F01D
:10445C001BF90A4900F00DFD0121072001F0E8F8D5
:10446C00074800F048F8064806B0BDE8104000F0D8
:10447C007BB800BF80E603204D410B00D1400B0000
:10448C009CE603200A4B10B50022C3E90022A2F5DA
:10449C0080329A60032000F09FFB064800F0C0FBBE
:1044AC000223BDE8104004481A46282100F04AB8FF
:1044BC0074E6032088E603209CE6032038B5044606
:1044CC00C0680D4608B100F023FCA379062B0CBF85
:1044DC000420032010FB05F080B2A08000F010FC3B
:1044EC00E06028B1A288002101F048F9658038BD50
:1044FC00A0806080FBE710B504460121C07901F073
:10450C0097F8E079002101F0A4F80123237010BD85
:10451C0037B5037805460C461BB1C079002101F074
:10452C0087F82B78EC715BB1A0B20121019001F0FE
:10453C007FF80198002103B0BDE8304001F089B844
:10454C0003B030BD70B50025044616468371C0E932
:10455C00035505700572FFF7B1FF20463146FFF792
:10456C00D7FF204670BD0000C368002B00F0A4816B
:10457C002DE9F04F8379023BDBB2042B9CBFBF4A81
:10458C0052F8234085B0054688BF322400F0FCF970
:10459C002B69C01AA042F9D3B94CAE88D4F80035B7
:1045AC001BB9D4F86035002B7EDBB64CD4F8003543
:1045BC0023B9D4F86035002BC0F26E81B24CD4F81C
:1045CC000035002B00F04481EB79B04AB04C1268F6
:1045DC00190102EB0313575CAE495B78D1F8FC2050
:1045EC0042F08072C1F8FC20226803F01F0343EAFA
:1045FC00471301273A432260A988D5F80C80D4F8D8
:10460C0004909F40002944D04FF0000E72464FF0AA
:10461C00A04118F801CB0820802663689B1A462B12
:10462C00FBD96268D1F808351CEA060F43EA070388
:10463C00C1F808352FD063689B1A282BFBD9D1F809
:10464C000C35013843EA07034FEA5606C1F80C351E
:10465C00E3D1AB880EF1010E1FFA8EFE7345D8D84C
:10466C004FF4307103FB01F163689B1A462BFBD9A5
:10467C006368A3EB09098945C0F0E4804FF4967098
:10468C0000F07AF9A988D5F80C80D4F804900029A8
:10469C00BAD10A46E8E763689B1A112BCFD8636836
:1046AC009B1A112BF7D9CAE7D4F86435002BBFF647
:1046BC007CAFD4F86835002BBFF677AFD4F86C35E7
:1046CC00002BBFF672AF3601331D1846009300F075
:1046DC0017FB00283FF478AFAB88002B00F0ED807F
:1046EC00EA68013B12FA83F702F1FF3E002348F21D
:1046FC00060248F20D011EF801CF1CF0800F0CBF12
:10470C0093468B461CF0400F0CBF16460E461CF011
:10471C00200F0CBF9046884603F10109CDF80880A4
:10472C00019603F102081FFA89F9019E20F813B0D3
:10473C001FFA88F820F81960029E20F8186003F11F
:10474C0003081CF0100F1FFA88F80CBF93468B4619
:10475C0020F818B003F104081CF0080F1FFA88F8B1
:10476C000CBF93468B4620F818B003F105081CF0DB
:10477C00040F1FFA88F80CBF93468B4620F818B02C
:10478C0003F1080A03F1060807339BB21CF0020F71
:10479C001FFA88F80CBF93468B46CDF80CA01CF082
:1047AC00010F20F818B015BF20F8131020F81320B3
:1047BC001FFA8AF3BDF80C3077459CD1591C023393
:1047CC0089B29BB249005B004FF400474752009AF4
:1047DC00C7522E4B56081F6800221423C4F8042518
:1047EC00C4F80C25C4F80835C4F81425C4F81025F1
:1047FC00C4F82005C4F82465C4F82825C4F82C2571
:10480C00EB7907EB031C1B010121FE5C9CF80130CA
:10481C0003F01F0343EA4613C4F86035C4F80015CF
:10482C00C4F81021A160D4F81031002BFBD0002368
:10483C004FF0FF32C4F81031C4F80035C4F86025CD
:10484C0000F066FA00F0A0F8286105B0BDE8F08F22
:10485C00D4F86035002BBFF6B7AED4F86435002B16
:10486C00BFF6B2AED4F86835002BBFF6ADAED4F8B7
:10487C006C35002BBFF6A8AE25E700BFE4590B0042
:10488C0000C001400010024000200240B4E60320AA
:10489C00001000E000ED00E0D4F86435002BBFF60A
:1048AC008DAED4F86835002BBFF688AED4F86C35D5
:1048BC00002BBFF683AE06E770470423022183E783
:1048CC0043888B42F0B52DD9067AC2F30743C2F365
:1048DC000724D5B23EB1734374437543C3F3072326
:1048EC00C4F307242D0A90F806C0C768BCF1060F64
:1048FC000CBF042603264E43ACF1020CB919BCF1D3
:10490C00060F1DD8DFE80CF0041C08040F0404008B
:10491C00BC554B708D7005E0FE2B28BFFE23BB559C
:10492C004D708C70F0BDBB554C708D70037A120EAF
:10493C0013B9D2B2CA70F5E75A43C2F30722F9E7AA
:10494C00BB554C70E6E7000008B500F02DF8014BA4
:10495C00186008BDB4E6032008B5024B1B685B6CFD
:10496C00019308BD4802030008B5024B1B685B6845
:10497C00019308BD1802030008B5024B1B68DB68E5
:10498C00019308BD1802030008B5024B1B681B6994
:10499C00019308BD1802030008B5024B1B685B6944
:1049AC00019308BD1802030008B5024B1B681B6875
:1049BC00019308BD2C02030008B5024B1B689B68D1
:1049CC00019308BD2C02030008B5024B1B68DB6881
:1049DC00019308BD2C02030008B5024B1B681B6930
:1049EC00019308BD2C02030008B5024B1B68DB6861
:1049FC00019308BD2802030008B5024B1B681B6914
:104A0C00019308BD2802030008B5024B1B681B6A02
:104A1C00019308BD2802030008B5024B1B685B6AB2
:104A2C00019308BD2802030008B5024B1B689B6A62
:104A3C00019308BD2802030008B5024B1B68DB6A12
:104A4C00019308BD2802030008B5024B1B681B6BC1
:104A5C00019308BD2802030008B5024B1B685B6B71
:104A6C00019308BD2802030008B5024B1B689B6B21
:104A7C00019308BD2802030008B5024B1B68DB6BD1
:104A8C00019308BD2802030008B5024B1B681B6C80
:104A9C00019308BD2802030008B5024B1B685B6933
:104AAC00019308BD6402030008B5024B1B689B68A8
:104ABC00019308BD6802030008B5024B1B68DB6854
:104ACC00019308BD6802030008B5024B1B68DB6943
:104ADC00019308BD3002030008B5024B1B681B6A2A
:104AEC00019308BD3002030008B5024B1B68DB685C
:104AFC00019308BD3C02030008B5024B1B681B69FF
:104B0C00019308BD3C02030008B5024B1B685B69AE
:104B1C00019308BD3C02030008B5024B1B689B695E
:104B2C00019308BD3C02030008B5024B1B68DB690E
:104B3C00019308BD3C02030008B5024B1B681B6ABD
:104B4C00019308BD3C02030008B5024B1B689B6A2D
:104B5C00019308BD3C02030008B5024B1B681B6C9B
:104B6C00019308BD3C02030008B5024B1B681B688F
:104B7C00019308BD4C02030008B5024B1B685B682F
:104B8C00019308BD4C02030008B5024B1B681B695E
:104B9C00019308BD4C02030008B5024B1B685B690E
:104BAC00019308BD4C02030008B5024B1B689B69BE
:104BBC00019308BD4C02030008B5024B1B68DB696E
:104BCC00019308BD4C02030008B5024B1B681B6A1D
:104BDC00019308BD4C02030008B5024B1B685B68CF
:104BEC00019308BD2002030008B5024B1B685B69EA
:104BFC00019308BD2002030008B5034B1B68D3F8D2
:104C0C008830019308BD00002002030008B5034B57
:104C1C001B68D3F89430019308BD000020020300F8
:104C2C0008B5024B1B68DB69019308BD4402030005
:104C3C0008B5024B1B68DB6B019308BD44020300F3
:104C4C0008B5024B1B685B68019308BD400203006A
:104C5C0008B5024B1B689B68019308BD400203001A
:104C6C0008B5024B1B68DB68019308BD40020300CA
:104C7C0008B5024B1B681B69019308BD4002030079
:104C8C0008B5024B1B685B69019308BD4002030029
:104C9C0008B5024B1B689B69019308BD40020300D9
:104CAC0008B5024B1B68DB69019308BD4002030089
:104CBC0008B5024B1B681B6A019308BD4002030038
:104CCC0008B5024B1B681B6B019308BD4002030027
:104CDC0008B5024B1B685B6B019308BD40020300D7
:104CEC0008B5024B1B681B6C019308BD4002030006
:104CFC0008B5024B1B685B6C019308BD40020300B6
:104D0C0008B5024B1B681B68019308BD1C0203000D
:104D1C0008B5024B1B685B68019308BD1C020300BD
:104D2C0008B5024B1B681B6C019308BD1C020300E9
:104D3C0008B5024B1B685B6C019308BD1C02030099
:104D4C000021FFF751BF0000024800230360FFF76A
:104D5C0003BE00BFB8E60320002240681146FFF7EF
:104D6C00A7BF002240681146FFF7B2BF406800227F
:104D7C00FFF7A6BF4068002281F00101FFF790BF4A
:104D8C00002340681A461946FFF782BF002340688B
:104D9C001A461946FFF774BF002240681146FFF708
:104DAC0067BF002240681146FFF752BF40680022DF
:104DBC000221FFF755BF002340681A46FFF740BF9A
:104DCC00024B03225A60024A1A607047BCE6032069
:104DDC00005A0B007047F8B5064615460C468F185E
:104DEC00BC4206D0336814F8011B9B6830469847C8
:104DFC00F6E72846F8BD007C0022FFF705BE007CD4
:104E0C000021FFF709BE007C0021FFF70DBE007CDE
:104E1C000021FFF711BE007C0021FFF715BE10B575
:104E2C0014210446FFF731F9204610BD10B54FF49C
:104E3C007A73044608460021C4E90113034B23602E
:104E4C0020741146FFF720FE204610BD3C5A0B0083
:104E5C000A46007C00230121FFF7C6BDC9B2FFF74B
:104E6C00F7BF007C0021FFF7C7BD007C0022FFF7D5
:104E7C00FBBD007C0022FFF7FFBD704710B5182169
:104E8C000446FFF702F9204610BDF0B5037D062B52
:104E9C008DB00E4600F104074FF0000412D000F163
:104EAC00080515F8011D0A22304600F068F9AF42DA
:104EBC00044419D0002CF4D02E21304600F03CF9DB
:104ECC000444EEE72F236A4639460A208DF8004049
:104EDC00FFF7E2FD684600F0C5FC33680246DB686C
:104EEC00694630469847044620460DB0F0BD000098
:104EFC0010B5054B0446112240F8043B002100F08C
:104F0C003DFC204610BD00BF645A0B000346074A07
:104F1C0010B543F8042B01F1100251F8044B43F87F
:104F2C00044B9142F9D10A781A7010BD645A0B00E7
:104F3C0010B59DF8084044EA032343EA024242EAD2
:104F4C00016104234160037510BD000007B5064BD9
:104F5C000360CB7800938B784A780978FFF7E8FFE9
:104F6C0003B05DF804FB00BF645A0B00014B024A0E
:104F7C001A607047C4E60320705A0B000023406887
:104F8C001A46FFF75DBE406800220221FFF768BE9B
:104F9C00002240681146FFF75BBE002240681146B4
:104FAC00FFF766BE002340681A461946FFF768BE35
:104FBC00002340681A461946FFF76ABE4068002174
:104FCC00FFF78EBE40680021FFF792BE40680022BA
:104FDC0081F00101FFF764BE40680022FFF770BE4C
:104FEC00002240681146FFF773BE0022406811464C
:104FFC00FFF75EBE2DE9F04395B014460D4607460B
:10500C00FFF776FF00211C220DA8009100F0B6FBE3
:10501C0040230C9320466B460CAA0021FFF74CFD55
:10502C00044600284BD1024601216868FFF720FE98
:10503C000221804622466868FFF71AFE009E8146D0
:10504C002146002E3BD0002939D17368022B03D0A6
:10505C000A2B11D0F669F4E7B8F1000FFAD0716998
:10506C0006A8043107ADFFF771FF0FCD3C1D0FC42F
:10507C002B6823704146EDE7B9F1000FEAD0746953
:10508C00102201A800F07AFB06238DF8143001AD34
:10509C0004F108031834186859682A4603C2083307
:1050AC00A3421546F7D101A906A807ADFFF72EFFBD
:1050BC000FCD3C1D0FC42B6823704946CAE70098DE
:1050CC00FFF7F2FC384615B0BDE8F083024B034AFB
:1050DC001A6000225A607047C8E603207C5A0B0005
:1050EC00F8B506460D468F180024BD420CD0336827
:1050FC0015F8011B9B6830469847031E01DB1C44C6
:10510C00F3E7002C08BF1C462046F8BD13B5044637
:10511C00084659B1019100F0A5FB23680199DB68A1
:10512C000246204602B0BDE81040184702B010BD40
:10513C0008B5FFF7EBFF08BD03689B68184738B547
:10514C000D210546FFF7F8FF0A2104462846FFF714
:10515C00F3FF204438BD38B50546FFF7D7FF0446AA
:10516C002846FFF7ECFF204438BD38B50546FFF75D
:10517C00E3FF04462846FFF7E2FF204438BD30B574
:10518C008BB00023012A8DF8243098BF0A2209AC79
:10519C000D46B1FBF2F101FB125303F0FF03092B97
:1051AC0094BF30333733DBB2AA4204F8013DEFD958
:1051BC002146FFF7ABFF0BB030BD10B5044628B14C
:1051CC0000F012FB90FBF4F303FB1404204610BD1B
:1051DC00884210B5044603DA081AFFF7EEFF0444C0
:1051EC00204610BD014B00229A607047D0E6032088
:1051FC0010B5044608462170FFF766FC0023636077
:10520C00204610BD83688B4203D9006810B1405C06
:10521C00704700207047FFF7F5BF0000054B0222D6
:10522C001A60054B054A9A600020C3E90000FFF79D
:10523C00D3BC00BFECE60320E0E603200000FFFF38
:10524C00024B1A68024B1A60704700BF08E6032035
:10525C00F0E6032070474174704708B5007CFFF7F7
:10526C0073FC20EAE07008BD08B5007CFFF744FC35
:10527C0020EAE07008BD08B5007CFFF74DFC40EA61
:10528C00E07008BD08B5007CFFF73EFC40EAE0701A
:10529C0008BD007CFFF748BC37B5457C04462DB1F2
:1052AC00207C03B0BDE83040FFF71EBC007C0191B0
:1052BC00FFF74AFC00280199F2DC284603B030BD08
:1052CC0010B514210446FEF7E0FE204610BD000088
:1052DC0010B54FF47A730446084611460022C4E90F
:1052EC000123044B2360012320746374FFF734FC07
:1052FC00204610BDD45A0B0041747047704770475C
:10530C0008B50021007CFFF74FFC40EAE07008BDB7
:10531C0008B50121007CFFF747FC40EAE07008BDAE
:10532C0008B5007CFFF738FC20EAE07008BD08B532
:10533C00007CFFF729FC20EAE07008BD13B5044699
:10534C00007C0191FFF728FC0028019901DC607CAE
:10535C0020B1207CFFF730FC20EAE07002B010BDD9
:10536C00007CFFF731BC10B514210446FEF78DFE0E
:10537C00204610BD10B54FF47A7304460846002140
:10538C00C4E90113044B2360012320746374114698
:10539C00FFF7EAFB204610BD045B0B00007C0022EB
:1053AC00FFF7EABB10B514220446002100F0E6F921
:1053BC00204610BD10B50F4C88B003A8FFF7F2FFC4
:1053CC002178BFF35B8F11F001010FD120460191C1
:1053DC00FEF75DFE019948B103AA0748FFF7CAFF23
:1053EC002046FEF759FE054800F0B4F9024808B013
:1053FC0010BD00BFF4E60320F8E6032009530B00B0
:10540C00002240681146FFF733BC00224068114669
:10541C00FFF74EBC002240681146FFF759BC4068AC
:10542C000022FFF74DBC4068002281F00101FFF71C
:10543C0037BC002340681A461946FFF729BC0023E5
:10544C0040681A461946FFF71BBC002240681146FB
:10545C00FFF7FEBB406800220221FFF701BC0023CE
:10546C0040681A46FFF7ECBB024B04225A60024A12
:10547C001A6070470CE70320345B0B00014B18607B
:10548C00704700BF0CE6032008B50B4B43B1FFF788
:10549C0091FF03681B699847002801DDAFF300807A
:1054AC00064B43B100F030F903681B69984700289C
:1054BC0001DDAFF3008008BD00000000000000001B
:1054CC0008B5FFF7E1FFFFF767FA014B186008BD5D
:1054DC0028E703200548064A064908B5121A00F0C9
:1054EC003FF9054B054A1A6008BD00BF00F40320C4
:1054FC0004F40320345C0B0000F403201E1C279AD8
:10550C0007B5002300931A466FF07701FFF77EFB77
:10551C0003B05DF804FB000007B543880A2B08D0E4
:10552C00502B0BD1094B1B684BB103B05DF804EB4E
:10553C001847FFF7E5FF03B05DF804FB0023009369
:10554C001A466FF07701FFF761FBF4E718E70320C9
:10555C0010B512480021FFF7EBFB114B1A68114BE9
:10556C009A42114B0CBF012200221A7001D0FFF796
:10557C00B1FFFFF7F9F9044600F008F90B4B13B132
:10558C002046AFF3008000210848FFF751FBBDE82F
:10559C00104007480021FFF72FBB00BF89540B00B8
:1055AC0000F403201E1C279A14E7032000000000BF
:1055BC0025550B00232813B502D9002002B010BDCD
:1055CC00A0F10B03022B1AD8174C2178BFF35B8F79
:1055DC0011F001010BD120460191FEF758FD019904
:1055EC0028B11248FFF704FE2046FEF755FD0F4B7D
:1055FC001878FFF771FA0028DFD10120DEE70128C7
:10560C0009D800F041F80021007CFFF725FA80F062
:10561C000100C0B2D2E709380128EED800F074F8C6
:10562C00007CFFF789FAF2E71CE7032020E7032050
:10563C00232838B504460D460AD8FF2908D0FFF7B1
:10564C00B9FF28B129462046BDE83840FFF7B4B968
:10565C0038BD38B504460D46FFF7B6F9FF2810D013
:10566C00062804D84D2323FA00F0C30709D420469A
:10567C00FFF7A0FF28B129462046BDE83840FFF7C8
:10568C00ABB938BD7047000030B50E4D2978BFF36B
:10569C005B8F11F0010487B011D12846FEF7F7FC9F
:1056AC0068B101A8FEF7A2FE01AA21460648FFF741
:1056BC00BDFB2846FEF7F0FC044800F04BF802480E
:1056CC0007B030BD2CE7032030E7032091560B00C8
:1056DC007047000038B5044614252A46002100F016
:1056EC004DF825804025074925812846258200F064
:1056FC002FF804496060284600F02AF8E060204644
:10570C0038BD00BF685B0B0030B50E4D2978BFF378
:10571C005B8F11F0010487B011D12846FEF7B7FC5E
:10572C0068B101A8FFF7D6FF01AA21460648FFF78A
:10573C00CFFD2846FEF7B0FC044800F00BF80248F9
:10574C0007B030BD44E7032048E70320DD560B00CB
:10575C00FEF799BC002301461A46184600F08AB899
:10576C000A44914200F1FF3300D1704710B511F893
:10577C00014B03F8014F9142F9D110BD024403468D
:10578C00934200D1704703F8011BF9E738B5104B71
:10579C001D68AB6B0446B3B91820FFF7B1FA02468B
:1057AC00A86320B90B4B0C484221FFF7B9FA0B49FF
:1057BC000B4BC0E900130B4B83600B23838100213F
:1057CC000120C2E90401AB6B00221C615A6138BD97
:1057DC000CE60320695B0B00805B0B000E33CDAB3A
:1057EC0034126DE6ECDE0500164B10B51C68A36B8D
:1057FC00B3B91820FFF784FAA06328B90246124BFC
:10580C0012484E21FFF78CFA114A124BC0E90023C3
:10581C00114B83600B23838101220023C0E90423F5
:10582C00A46B0E4A206963690D49424301FB0322B4
:10583C00A0FB0101431C42EB0100C4E9043020F041
:10584C00004010BD0CE60320695B0B00805B0B0075
:10585C000E33CDAB34126DE6ECDE05002DF4515851
:10586C002D7F954C034613F8012B002AFBD1181AF7
:10587C00013870472DE9F843DFF8B8800646D8F8B0
:10588C0000001F460D46914600F056F8254B1C684B
:10589C0034B9254C1C60254B13B11B68C4F88830F7
:1058AC0063681F2B07DDD8F8000000F047F84FF0B5
:1058BC00FF30BDE8F8834EB3D4F8880088B91C4B90
:1058CC0023B9D8F8000000F038F8F0E74FF48470F2
:1058DC00FFF716FA0028F4D00023C0E94033C4F8CF
:1058EC008800636840F8239001229A4000EB830102
:1058FC00D0F800311343C0F80031022EC1F880708B
:10590C0002BFD0F804311343C0F804316368D8F8EF
:10591C0000005A1C0233626044F8235000F00EF869
:10592C000020C6E7E8E703205CE703200000000046
:10593C000D4D0B0070E60320704770477047000058
:10594C001D400B0059400B0081400B0085400B00A3
:10595C000000000072657175657374207265636573
:10596C00697665640072657175657374206D6F641A
:10597C006520310072657175657374206D6F646597
:10598C0020320070617373006661696C00636F751F
:10599C006E743A2000646174612072656365697687
:1059AC0065643A200072616E646F6D697A6520617E
:1059BC00646472657373002D2D2D2D2D2D2D2D2DC1
:1059CC002D2D2D2D2D2D2D00636F7272656374207E
:1059DC0061646472657373002C0100001800000090
:1059EC00F40100002C010000500000000000000039
:1059FC0000000000C34D0B00B94D0B00AF4D0B0068
:105A0C00A54D0B00994D0B008D4D0B00C94F0B0094
:105A1C00D14F0B00814D0B00794D0B006F4D0B00DE
:105A2C00654D0B0001500B00000000000000000051
:105A3C00E14D0B002B4E0B00034E0B00E34D0B0006
:105A4C000B4E0B00134E0B001B4E0B00234E0B008A
:105A5C000000000000000000974E0B00874E0B006A
:105A6C00894E0B0061707000000000000000000007
:105A7C00894F0B00934F0B009D4F0B00A74F0B0052
:105A8C00B14F0B00BD4F0B00C94F0B00D14F0B009A
:105A9C00D94F0B00E54F0B00ED4F0B00F74F0B00F0
:105AAC0001500B0025592D256D2D25645425483AA0
:105ABC00254D3A2553257A0061736374696D650031
:105ACC00000000000000000061520B00CD520B00E2
:105ADC00A5520B00ED500B0075520B0091520B00B0
:105AEC0083520B009F520B0063520B0067520B004A
:105AFC0000000000000000000B530B0073530B0060
:105B0C0049530B00ED500B003B530B000D530B0096
:105B1C001D530B006D530B002D530B0005530B0045
:105B2C0000000000000000006B540B0061540B00DF
:105B3C0057540B000D540B004B540B003F540B00EF
:105B4C00C94F0B00D14F0B0033540B002B540B00DF
:105B5C0021540B0017540B0001500B00005245450B
:105B6C004E54206D616C6C6F632073756363656557
:105B7C00646564002F746D702F6A656E6B696E734B
:105B8C002D4743432D31302D706970656C696E65FE
:105B9C002D34385F32303230313132345F3136307F
:105BAC00363138303633392F7372632F6E65776C1C
:105BBC0069622F6E65776C69622F6C6962632F73F3
:105BCC0074646C69622F72616E642E630000000055
:105BDC0091440B0055490B00554D0B00CD4D0B005E
:105BEC00794F0B00D9500B00F1510B0029520B00CF
:105BFC004D520B0075540B0000000000000000001B
:045C0C000000000094
:105C1000040000001400000003000000474E55007F
:105C2000C36C2F03AEE0CF7E743391F80444774108
:045C30000B86A6F346
:045C3400000000006C
:105C38000000FF0000000A00C45A0B0010E6032011
:105C4800000000000000000000000000000000004C
:105C5800000000000000000000000000000000003C
:105C6800000000000000000000000000000000002C
:105C7800000000000000000000000000000000001C
:105C8800000000000000000000000000000000000C
:105C980000000000000000000000000000000000FC
:045CA800ECE7032002
:105CAC00FFFFFFFF00000102030405060708090AB5
:105CBC000B0C0D0E0F101112131415161718191AB0
:085CCC001B1C1D1E1F202800F7
:045CD40078563412B8
:04000003B000401CED
:00000001FF
