:02000002D0002C
:1040000000400D0088560D00000006000C00050160
:084010000401BD0B00000000DB
:044018009C530D00A8
:10401C0009480A49884208B505D0094A824202D0AB
:10402C00121A01F06BF90748074A0021121A01F025
:10403C0073F9014808BD00BFD0E50320F4550D000D
:10404C003CE603203CE60320F0E7032070B5074E66
:10405C00074C00F0E1FDA41BA4080025A54200D1EB
:10406C0070BD56F8043B98470135F7E7C4550D0071
:10407C00E8550D0000F082B908B500F01CF8BDE859
:10408C00084000F08BBD00F02BBB00F031BB00787A
:10409C00B0FA80F04009704701230370704710B5E7
:1040AC000446006808B100F023FB204610BD0368ED
:1040BC00C9B29B6818474FF4FA7000F035BD000088
:1040CC002DE9F04FA24EDFF8A8A28FB03746326828
:1040DC00DAF800309A4200F008810023DFF894B23D
:1040EC00DFF894823360082400F09CFE9949054661
:1040FC000AA800F00EFC0A22214606A800F02FFCAC
:10410C0006A90AA800F062FC0168284600F0CBFC66
:10411C0006A800F0B3FB0AA800F0B0FB01F0AEF863
:10412C00214600F09BFF01F0A9F83121FFF7BFFFFA
:10413C005FFA84F901F0A2F800F097FF01F09EF805
:10414C001822494600F083FF01F098F803681B69B8
:10415C009847002840F3C48000F064FE5946054699
:10416C000AA800F0D6FB0A22214606A800F0F7FBAD
:10417C0006A90AA800F02AFC0168284600F093FC66
:10418C0006A800F07BFB0AA800F078FB3B684146D0
:10419C00013302A83B6000F0BCFB182501F06EF85F
:1041AC0003685B699847C1B202A800F002FC013DAC
:1041BC00F4D101F063F8214600F050FF01F05EF8F5
:1041CC000299054649B10846019101F0D9F82B68CE
:1041DC000199DB6802462846984700F023FE5E49A9
:1041EC0005460AA800F095FB02A90AA800F0EEFB10
:1041FC000168284600F057FC0AA800F03FFB01F0CC
:10420C003DF800F032FF00F00DFE544905460AA8B7
:10421C0000F07FFB0A22214606A800F0A0FB06A9AD
:10422C000AA800F0D3FB0168284600F03CFC06A865
:10423C0000F024FB0AA800F021FB01F01FF8214636
:10424C0000F00CFF01F01AF83221FFF730FF01F0FB
:10425C0015F800F00AFF00F0E5FD414905460AA8F3
:10426C0000F057FB0A22214606A800F078FB06A9AD
:10427C000AA800F0ABFB0168284600F014FC06A865
:10428C0000F0FCFA0AA800F0F9FA00F0F7FF04229B
:10429C00494600F0DCFE414602A800F04EFB042526
:1042AC0000F0ECFF03685B699847C1B202A800F00C
:1042BC0080FB013DF4D100F0B5FD2A4905460AA862
:1042CC0000F027FB02A90AA800F080FB0168284631
:1042DC0000F0E9FB0AA800F0D1FA02A800F0CEFA2F
:1042EC000134782C7FF400AFF1E600F09BFD1E4901
:1042FC001E4D00F0D8FB082400F0C0FF214600F052
:10430C00ADFE00F0BBFF3121FFF7D1FE00F0B6FF90
:10431C0000F0ABFE00F0B2FF1822E1B200F097FE05
:10432C0000F0ACFF03681B69984700280ADD00F019
:10433C0079FD21460A2200F0C0FB00F073FD2946EE
:10434C0000F09EFB0134782CD6D10FB0BDE8F08F75
:10435C004CE60320B0530D00E8530D00F4530D0050
:10436C000B540D0025540D003D540D004C540D0004
:10437C00D0E50320CB530D004E540D0008B500F0D2
:10438C0051FD4FF4165100F041FD4FF4FA6000F06E
:10439C00CBFB00F073FF00F02BFEBDE80840FFF7ED
:1043AC008FBE000010B5094C00232360A380A371BD
:1043BC000320A3F58033A36000F006F92046044ADD
:1043CC000449BDE8104000F081BF00BF40E6032067
:1043DC003CE60320AB400D0008B5024B1B689B6804
:1043EC00019308BD6802030008B5024B1B68DB682B
:1043FC00019308BD6802030008B5024B1B685B689B
:10440C00019308BD1802030008B5024B1B685B69D9
:10441C00019308BD1802030008B5024B1B685B6CC6
:10442C00019308BD4802030008B5024B1B689B6C46
:10443C00019308BD4802030008B5024B1B685B6979
:10444C00019308BD6402030008B5024B1B681B688E
:10445C00019308BD3C02030008B5024B1B68DB68E6
:10446C00019308BD3C02030008B5024B1B681B6995
:10447C00019308BD3C02030008B5024B1B685B6945
:10448C00019308BD3C02030008B5024B1B689B69F5
:10449C00019308BD3C02030008B5024B1B68DB69A5
:1044AC00019308BD3C02030008B5024B1B689B6AD4
:1044BC00019308BD3C02030008B5024B1B68DB6886
:1044CC00019308BD2802030008B5024B1B689B69C9
:1044DC00019308BD2802030008B5024B1B68DB6979
:1044EC00019308BD2802030008B5024B1B681B6A28
:1044FC00019308BD2802030008B5024B1B685B6AD8
:10450C00019308BD2802030008B5024B1B689B6A87
:10451C00019308BD2802030008B5024B1B68DB6A37
:10452C00019308BD2802030008B5024B1B681B6BE6
:10453C00019308BD2802030008B5024B1B681B6CD5
:10454C00019308BD2802030008B5024B1B681B6DC4
:10455C00019308BD2802030008B5024B1B681B68B9
:10456C00019308BD4C02030008B5024B1B685B6845
:10457C00019308BD4C02030008B5024B1B681B6974
:10458C00019308BD4C02030008B5024B1B685B6924
:10459C00019308BD4C02030008B5024B1B689B69D4
:1045AC00019308BD4C02030008B5024B1B68DB6984
:1045BC00019308BD4C02030008B5024B1B681B6A33
:1045CC00019308BD4C02030008B5024B1B685B68E5
:1045DC00019308BD2002030008B5024B1B685B6900
:1045EC00019308BD2002030008B5034B1B68D3F8E8
:1045FC008830019308BD00002002030008B5034B6E
:10460C001B68D3F89430019308BD0000200203000E
:10461C0008B5024B1B685B68019308BD40020300A0
:10462C0008B5024B1B689B68019308BD4002030050
:10463C0008B5024B1B68DB68019308BD4002030000
:10464C0008B5024B1B681B69019308BD40020300AF
:10465C0008B5024B1B685B69019308BD400203005F
:10466C0008B5024B1B689B69019308BD400203000F
:10467C0008B5024B1B68DB69019308BD40020300BF
:10468C0008B5024B1B681B6A019308BD400203006E
:10469C0008B5024B1B681B6B019308BD400203005D
:1046AC0008B5024B1B685B6B019308BD400203000D
:1046BC0008B5024B1B681B6C019308BD400203003C
:1046CC0008B5024B1B685B6C019308BD40020300EC
:1046DC0008B5024B1B68DB6B019308BD4402030059
:1046EC0008B5024B1B681B68019308BD1C02030034
:1046FC0008B5024B1B685B68019308BD1C020300E4
:10470C0008B5024B1B689B68019308BD1C02030093
:10471C0008B5024B1B685B6C019308BD1C020300BF
:10472C00002240681146FFF7ABBF002240681146DB
:10473C00FFF7B6BF40680022FFF7AABF406800220F
:10474C0081F00101FFF794BF002340681A46194617
:10475C00FFF786BF002340681A461946FFF778BF5B
:10476C00002240681146FFF76BBF002240681146DB
:10477C00FFF756BF406800220221FFF759BF002304
:10478C0040681A46FFF744BF024B03225A60024AA4
:10479C001A60704750E6032058540D0010B5094BB1
:1047AC00094C022200201A60084B2060A080A071E6
:1047BC00A360FFF709FF2046054A0649BDE81040F3
:1047CC0000F084BD64E6032058E603200000FFFFE0
:1047DC003CE60320AB400D0010B5044600F0D0FDC4
:1047EC00013823182046834206D90278197800F83C
:1047FC00011B03F80129F6E710BD70B50C46911E9C
:10480C002229054622D820466DB1B5FBF2F602FBF3
:10481C001655E9B2092D94BF30315731C9B200F8A1
:10482C00011B3546F0E7024623443021934202D95E
:10483C0002F8011BFAE71A1A834238BF0022002340
:10484C0083542046FFF7C8FF204670BD0020FCE7CC
:10485C0038B5031E0C4615460EDAB3F1004F4FF077
:10486C002D0214BF5842184601230A702A461944D7
:10487C00FFF7C3FF204638BD0123F9E710B5044606
:10488C000068FFF735FF204610BD10B504460068E0
:10489C0008B1FFF72DFF0023C4E90133236010BDDD
:1048AC0038B504460D4600680131FFF729FF10B1F9
:1048BC00C4E90005012038BD10B50368044623B1D6
:1048CC0043688B4201D3012010BD2046FFF7E8FF5F
:1048DC000028F9D0A368002BF5D122681370F2E7F9
:1048EC0037B50D46114601920446FFF7E5FF019AD4
:1048FC0028B92046FFF7C9FF204603B030BDA2609F
:10490C002946206800F0FAFC2268A3680021D154E3
:10491C00F2E7002313B5C0E9003304468360037348
:10492C0041B10846019100F02BFD01990246204649
:10493C00FFF7D6FF204602B010BD13B5044659B19F
:10494C000846019100F01CFD019902462046FFF734
:10495C00C7FF204602B010BDFFF797FFF9E710B56F
:10496C0004468AB00023C4E90033A36023730846CD
:10497C0001A9FFF76DFF01A92046FFF7DEFF2046D6
:10498C000AB010BD70B505460E4609B9002070BDC1
:10499C006AB1846814442146FFF78EFF0028F5D0D5
:1049AC002868AB683146184400F0E2FCAC6001208A
:1049BC00EDE707B500238DF80410012201A98DF84D
:1049CC000530FFF7DFFF03B05DF804FB10B58A6814
:1049DC0009680446FFF7D6FF10B92046FFF755FFCC
:1049EC00204610BD10B50446006808B1FFF71CFD49
:1049FC00204610BD10B58368044613B1032201464E
:104A0C009847204610BD000010B5064C00232046E8
:104A1C002360FFF701FD2046034A0449BDE810401E
:104A2C0000F054BC68E603203CE60320F1490D007D
:104A3C00F8B506460D468F180024BD420CD03368DD
:104A4C0015F8011B9B6830469847031E01DB1C447C
:104A5C00F3E7002C08BF1C462046F8BD13B50446EE
:104A6C00084659B1019100F08BFC23680199DB6871
:104A7C000246204602B0BDE81040184702B010BDF7
:104A8C0008B5FFF7EBFF08BD03689B68184738B5FE
:104A9C000D210546FFF7F8FF0A2104462846FFF7CB
:104AAC00F3FF204438BD38B50546FFF7D7FF044661
:104ABC002846FFF7ECFF204438BD30B58BB00023FF
:104ACC008DF82430012A98BF0A2209AC0D46B1FB9F
:104ADC00F2F101FB125303F0FF03092B94BF3033A7
:104AEC003733DBB2AA4204F8013DEFD92146FFF778
:104AFC00B5FF0BB030BD002340681A461946FFF7CE
:104B0C00A7BD0000014B024A1A6070476CE60320F7
:104B1C008C540D00024B1A68024B1A60704700BF90
:104B2C00D4E5032070E603200021FFF755BD10B536
:104B3C000446FFF75FFF204610BD00000348044AFF
:104B4C0004490023836000F0C1BB00BF74E603205E
:104B5C003CE603203B4B0D00014B1860704700BF37
:104B6C00D8E5032008B50B4B43B100F05BF90368A3
:104B7C001B699847002801DDAFF30080064B43B159
:104B8C0000F0CEF903681B699847002801DDAFF3EC
:104B9C00008008BD000000000000000008B5FFF711
:104BAC00E1FFFFF731FC014B186008BDD4E703208F
:104BBC000248034A0349121A00F0A0BB00F4032078
:104BCC0004F40320F0550D0007B5002300931A469A
:104BDC006FF07701FFF712FD03B05DF804FB0000E6
:104BEC0007B543880A2B08D0502B0BD1094B1B68F7
:104BFC004BB103B05DF804EB1847FFF7E5FF03B0CA
:104C0C005DF804FB002300931A466FF07701FFF761
:104C1C00F5FCF4E788E6032038B5124C1248134D26
:104C2C000021FFF775FD2368AB42114B0CBF01222D
:104C3C0000221A7002D0FFF7BBFF2560FFF7DCFBE8
:104C4C00044600F071FB0B4B13B12046AFF3008010
:104C5C0000210848FFF73CFDBDE83840064800211C
:104C6C00FFF7C2BC00F40320654B0D001E1C279AF5
:104C7C0084E6032000000000ED4B0D00704710B5DA
:104C8C001821044600F027FB204610BDF0B5037D2B
:104C9C00062B8DB00E4600F104074FF0000412D025
:104CAC0000F1080515F8011D0A223046FFF705FF33
:104CBC00AF42044419D0002CF4D02E213046FFF71B
:104CCC00E3FE0444EEE72F236A4639460A208DF8AA
:104CDC000040FFF7B1FB684600F052FB3368024618
:104CEC00DB68694630469847044620460DB0F0BD57
:104CFC0010B5054B0446112240F8043B002100F08E
:104D0C000BFB204610BD00BFB4540D000346074AF0
:104D1C0010B543F8042B01F1100251F8044B43F881
:104D2C00044B9142F9D10A781A7010BDB4540D009D
:104D3C0010B59DF8084044EA032343EA024242EAD4
:104D4C00016104234160037510BD000013B5054BD0
:104D5C000360CB7800938B784A780978FFF7E8FFEB
:104D6C0002B010BDB4540D0041747047704708B5C3
:104D7C000021007CFFF710FC40EAE07008BD08B58C
:104D8C000121007CFFF708FC40EAE07008BD08B583
:104D9C00007CFFF7F9FB20EAE07008BD08B5007C49
:104DAC00FFF7EAFB20EAE07008BD13B50446007C6F
:104DBC000191FFF7E9FB0028019901DC607C20B12F
:104DCC00207CFFF7F1FB20EAE07002B010BD007C04
:104DDC00FFF7F2BB10B51421044600F07CFA204614
:104DEC0010BD000010B54FF47A730446084600213C
:104DFC00C4E90113044B236001232074637411462E
:104E0C00FFF7AAFB204610BDC8540D00007C002201
:104E1C00FFF7AABB10B514220446002100F07CFA5F
:104E2C00204610BD10B5104C88B003A8FFF7F2FF58
:104E3C002178BFF35B8F11F0010111D12046019154
:104E4C00FFF725F9019958B103AA0848FFF7CAFFE3
:104E5C002046FFF721F9064A0649044800F036FAC5
:104E6C00024808B010BD00BF8CE6032090E603207A
:104E7C003CE60320794D0D0070474174704708B52E
:104E8C00007CFFF711FB20EAE07008BD08B5007C40
:104E9C00FFF7EAFA20EAE07008BD08B5007CFFF7DE
:104EAC00F3FA40EAE07008BD08B5007CFFF7E4FABD
:104EBC0040EAE07008BD007CFFF7EEBA37B5457CE0
:104ECC0004462DB1207C03B0BDE83040FFF7C4BAD6
:104EDC00007C0191FFF7E8FA00280199F2DC2846E2
:104EEC0003B030BD10B51421044600F0F4F920468F
:104EFC0010BD000010B54FF0000C044608461146DA
:104F0C004FF47A72C4E901C2044A2260012220746F
:104F1C0062741A46FFF798FA204610BDF8540D003B
:104F2C0013B50E4C2178BFF35B8F11F0010112D138
:104F3C0020460191FFF7ABF8019960B1084A094B83
:104F4C000948FFF7D7FF2046FFF7A6F8074A08499C
:104F5C00054800F0BBF9044802B010BDA4E60320DC
:104F6C00A8E603202CE70320B0E703203CE603204F
:104F7C00854E0D007047F8B5064615460C468F1841
:104F8C00BC4206D0336814F8011B9B683046984726
:104F9C00F6E72846F8BD007C0022FFF7A5BA007C96
:104FAC000021FFF7A9BA007C0021FFF7ADBA007C05
:104FBC000021FFF7B1BA007C0021FFF7B5BA10B59C
:104FCC001421044600F087F9204610BD10B54FF4AB
:104FDC007A73044608460021C4E90113034B23608D
:104FEC0020741146FFF7A8FA204610BD28550D0075
:104FFC000023007C1A461946FFF75EBA7FB50022E3
:10500C001423CDE90122ADF804300B788DF808306B
:10501C004B680393CB680493007C0B7A059301A92E
:10502C00FFF792FA07B05DF804FB1FB5003B8DF853
:10503C0000104FF06401039118BF012369460192DF
:10504C008DF80830FFF7DAFF05B05DF804FB01239B
:10505C00FFF7EBBF007C0022FFF736BAC9B2FFF7AF
:10506C00F9BF007C0022FFF737BA0121FFF7F9BF27
:10507C00002240681146FFF7E3BA0022406811464F
:10508C00FFF7FEBA002240681146FFF709BB4068E3
:10509C000022FFF7FDBA4068002281F00101FFF702
:1050AC00E7BA002340681A461946FFF7D9BA00221E
:1050BC0040681146FFF7B4BA406800220221FFF79E
:1050CC00B7BA002340681A46FFF7A2BA024B042273
:1050DC005A60024A1A607047C4E7032050550D000D
:1050EC00002340681A46FFF793BA40680022022159
:1050FC00FFF79EBA002240681146FFF791BA0022D2
:10510C0040681146FFF79CBA002340681A461946BE
:10511C00FFF79EBA002340681A461946FFF7A0BA5B
:10512C0040680021FFF7C4BA40680021FFF7C8BAF5
:10513C004068002281F00101FFF79ABA4068002212
:10514C00FFF7A6BA002240681146FFF7A9BA002261
:10515C0040681146FFF794BA2DE9F043002495B04E
:10516C0016460D460746FFF7C3FD214618220EA82A
:10517C00009400F0D1F84023CDE90C3421466B4665
:10518C000CAA3046FFF730F9044600284CD10246F1
:10519C0001216868FFF754FA0221804622466868AC
:1051AC00FFF74EFA009E81462146002E3CD0002986
:1051BC003AD17368022B03D00A2B11D0F669F4E7AD
:1051CC00B8F1000F0AD0716906A8043107ADFFF7DA
:1051DC00BDFD0FCD3C1D0FC42B6823704146EDE780
:1051EC00B9F1000F01D14946E8E77469102201A812
:1051FC0000F092F806238DF8143001AD04F1080389
:10520C001834186859682A4603C20833A342154655
:10521C00F7D101A906A807ADFFF778FD0FCD3C1D0E
:10522C000FC42B682370DEE70098FFF7D5F83846DB
:10523C0015B0BDE8F0830000024B034A1A6000224F
:10524C005A607047CCE703208C550D0038B500230D
:10525C00202543801423044603808560056106499C
:10526C00284600F03AF804496060284600F035F80A
:10527C00E060204638BD00BFC0550D0030B50F4D65
:10528C002978BFF35B8F11F0010487B013D1284646
:10529C00FEF7FDFE78B101A8FFF7D8FF01AA214661
:1052AC000748FFF793FE2846FEF7F6FE054A064927
:1052BC00034800F00BF8024807B030BDD8E70320D4
:1052CC00DCE703203CE60320814F0D000B46014632
:1052DC00184600F005B8FEF7D8BEFEF7D4BE0000A5
:1052EC0010B5054C13462CB10A4601460220AFF30B
:1052FC00008010BD2046FCE7000000000A449142EB
:10530C0000F1FF3300D1704710B511F8014B03F8D1
:10531C00014F9142F9D110BD02440346934200D192
:10532C00704703F8011BF9E738B50D4B1D68AB6BE3
:10533C0004467BB91820FFF7D3F90A4A0A4BA86335
:10534C00C0E90023094B83600B23838101220023D6
:10535C00C0E90423AB6B00221C615A6138BD00BF4D
:10536C00D8E503200E33CDAB34126DE6ECDE050030
:10537C00034611F8012B03F8012B002AF9D17047D1
:10538C00034613F8012B002AFBD1181A0138704779
:10539C001D400D0059400D0081400D0085400D0051
:1053AC00000000000A7265717565737420636F6488
:1053BC006520312C20616464726573733A2000742B
:1053CC0072616E736D697373696F6E207265636958
:1053DC00657665642066726F6D3A20006465766947
:1053EC0063652069643A20007472616E736D697331
:1053FC0073696F6E2073656E7420746F3A2000723F
:10540C0065717565737420636F646520322C20613F
:10541C006464726573733A2000636F6E666C6963C3
:10542C007420766572696669636174696F6E3A207F
:10543C0000436F6E6E656374656420746F3A200070
:10544C002C20000000000000000000008B470D0025
:10545C0081470D0077470D006D470D0061470D002A
:10546C0055470D002D510D0035510D0049470D00CC
:10547C0041470D0037470D002D470D0065510D00BC
:10548C006170700025592D256D2D25645425483AE1
:10549C00254D3A2553257A0061736374696D650057
:1054AC000000000000000000994C0D00894C0D001C
:1054BC008B4C0D000000000000000000794D0D0029
:1054CC00E14D0D00B74D0D003D4A0D00A94D0D00ED
:1054DC007B4D0D008B4D0D00DB4D0D009B4D0D00DC
:1054EC00754D0D000000000000000000854E0D0001
:1054FC00F14E0D00C94E0D003D4A0D00994E0D00A8
:10550C00B54E0D00A74E0D00C34E0D00874E0D007D
:10551C008B4E0D000000000000000000814F0D00BC
:10552C00CB4F0D00A34F0D00834F0D00AB4F0D0063
:10553C00B34F0D00BB4F0D00C34F0D00000000001A
:10554C0000000000CF500D00C5500D00BB500D00E9
:10555C007D500D00034B0D00AF500D002D510D0073
:10556C0035510D00A3500D009B500D0091500D00B6
:10557C0087500D0065510D00000000000000000078
:10558C00ED500D00F7500D0001510D000B510D00A9
:10559C0015510D0021510D002D510D0035510D00EF
:1055AC003D510D0049510D0051510D005B510D0045
:1055BC0065510D0000000000B1430D0095470D0032
:1055CC00A9470D00154A0D00114B0D00214B0D0084
:1055DC00494B0D00D9500D0045520D000000000044
:0455EC0000000000BB
:0455F00000000000B7
:1055F40002000000A4540D00DCE5032000000000BC
:105604000000000000000000000000000000000096
:105614000000000000000000000000000000000086
:105624000000000000000000000000000000000076
:105634000000000000000000000000000000000066
:105644000000000000000000000000000000000056
:0C5654000000000000000000000000004A
:10566000FFFFFFFF00000102030405060708090A07
:105670000B0C0D0E0F101112131415161718191A02
:085680001B1C1D1E1F20280049
:04568800785634120A
:04000003D000401CCD
:00000001FF
