:02000002D0002C
:1040000000400D00FCBB0D00000006000C00050187
:084010000401BD0B00000000DB
:0440180024B00D00C3
:1040200009480A49884208B505D0094A824202D0A7
:10403000121A05F0AFF80748074A0021121A05F0D6
:10404000D1F8014808BD00BFD4530320E4B90D00E6
:10405000C4550320C4550320F0E7032070B5074E74
:10406000074C03F0D5FBA41BA4080025A54200D1F2
:1040700070BD56F8043B98470135F7E7ACB90D0021
:10408000D4B90D0000F020B908B500F0D5FABDE8AC
:10409000084003F07FBB01F003BF01F001BF01F056
:1040A00007BF0078B0FA80F0400970470123037021
:1040B0007047000038B5044D092405EB041002F0E8
:1040C00074F8013CF9D238BD08E5032010B5044668
:1040D000043002F06AF8204610BD10B504463C30AA
:1040E00002F063F804F1280002F05FF8204602F0C5
:1040F0005CF8204610BD000010B5034B0360044679
:1041000000F0ACFF204610BD48B20D0010B50446CB
:10411000FFF7F2FF204646F2BC5104F0F2F92046C8
:1041200010BD000038B584690A4B036005467CB1B8
:104130006368013B63605BB9236820469B689847CE
:10414000A368013BA3601BB923682046DB6898473E
:10415000284638BD88B50D000368C9B29B6818476A
:104160002DE9F043504C85B080460E4668464F49D5
:1041700002F066F82368032B00F38A800027013ED3
:10418000BE420AD918F80710684602F09AF800985B
:1041900004F0DFFF01370546F2E72368022B04DC59
:1041A00043494448002202F041FC04F07DF9424EAC
:1041B000236856F8231003F037FD04F075F9332116
:1041C000FFF7CAFF04F070F903F035FD2368002BF8
:1041D00017DD013B013D56F82320384B43F82520DD
:1041E00004F062F92368013B56F8231003F01CFD2C
:1041F00004F05AF93421FFF7AFFF04F055F903F04A
:104200001AFD2568032D43D14FF47A7003F088FA24
:1042100003F01AFC2A49294FDFF8A89003F03FFA6F
:1042200003F012FC57F8046B002E804639DA2D217A
:1042300003F026FA71420A22404603F03AFA03F0EC
:1042400003FC494603F018FA04F02EF957F8041C51
:1042500003F0EAFC04F028F93321FFF77DFF04F0B6
:1042600023F903F0E8FC4FF4FA6003F059FA04F084
:104270001BF957F8041C03F0D7FC04F015F934219E
:10428000FFF76AFF04F010F903F0D5FC013DC7D138
:10429000236868460133236001F087FF05B0BDE85D
:1042A000F0833146C7E700BF1056032095B20D00DA
:1042B00038B00D002CE603200456032010E603203E
:1042C000A8B00D00B4B00D0010B596B003F0BCFB63
:1042D0004FF4165103F0ACFB4FF4FA6003F020FAF0
:1042E00002F05EFC02F0AAFC02F05AFC2A4A0146E7
:1042F0000DA803F07DF80DA802F021FD02F050FC9E
:10430000264A01460DA803F073F80DA802F017FD28
:104310000DA802F0C4FA224903A802F0C3F903A9C8
:1043200008A802F0BFF908A802F002FA044608A89B
:104330004CBB02F01CFA0094ADF80A0002230DF108
:104340000A0203210DA802F09FFA164C02F028FC85
:1043500000220DA902F092FC04F0A6F803F05AFC2A
:104360001149204601F080FF50231049A36304F156
:10437000280001F079FF0E4800F0DFFC0C4800F047
:1043800037FC16B010BD02F0F7F900230093024687
:1043900010230721D6E700BF2CE6032008E6032000
:1043A000C8550320A8E50320B7B00D00CFB00D001D
:1043B0001CE60320F0B5164691B00022C0E90022A9
:1043C00004460D460BAF194606A802F06BF9169984
:1043D000384602F067F933788DF81430189B029351
:1043E000179B2046CDE9007305AA06AB294602F0CB
:1043F000DDFE204611B0F0BD2DE9F043674CDFF83B
:104400002C82674D6749DFF82892674F91B02046AC
:1044100002F02EFA6549404602F02AFA644928461D
:1044200002F026FA1023294606A88DF8143002F06F
:1044300039F921460BA802F035F95E4D5E49002698
:104440000BAB009305AA06ABCDE901664846FFF722
:10445000B1FF2A463946484604F04EF80423414647
:1044600006A88DF8143002F01DF921460BA802F0C1
:1044700019F9524C524B01930BAB009305AA06ABB2
:10448000504902962046FFF795FF394620464E4F89
:104490004E4C2A4604F030F83946204601F0D0FE52
:1044A00004F1100003F020FA394604F1280001F06D
:1044B000C7FE394604F13C0001F0C2FE2046444CE0
:1044C00044492A4604F018F83946201D01F0B8FE88
:1044D0002046414C41492A4604F00EF84049204606
:1044E00001F0AEFE3F4904F1100001F0A9FE3E4983
:1044F00004F1200001F0A4FE3C4904F1300001F079
:104500009FFE3B4904F1400001F09AFE394904F155
:10451000500001F095FE384904F1600001F090FE72
:10452000364904F1700001F08BFE354904F180003A
:1045300001F086FE334904F19000334C01F080FE17
:104540002A463249304603F0D7FF204600F004FCEB
:104550002A462F4920462F4C03F0CEFF4FF47A73A2
:10456000009304F12C012C4B42F21072204600F013
:10457000CDFD2A4B23602046294C2A492A4603F0C8
:10458000BBFF12224721204600F0CDFA26492A46D9
:10459000204603F0B1FF11B0BDE8F083C8550320F9
:1045A000F055032025B10D003F6D0D004AB10D00FF
:1045B0006FB10D00C455032094B10D0008E603202F
:1045C00061410D0097B10D0095B20D00A8E50320E3
:1045D000F4E50320DB400D0008E50320CD400D008D
:1045E0009AB10D00A9B10D00B7B10D00BFB10D001A
:1045F000C5B10D00CAB10D00D1B10D00D9B10D008A
:10460000E2B10D00ECB10D0014560320B5400D00D1
:1046100025410D00307E03206CA5032048B20D001B
:104620001CE60320F9400D00BB4B0D00DC550320B8
:104630002CE60320000000002DE9F047B84DB94BEF
:10464000B949BA489AB02A460093B94B00F0BAFB70
:10465000B84800F051FD69680391084604F000FE77
:1046600003990246B34800F02AFDB24801F0ECF885
:10467000054638B903F0E8F9AF4903F010F81AB06D
:10468000BDE8F0874FF0000AAA4908A800F04EFDE7
:10469000AA4A08A90BA800F0CBFEA94A0BA90EA8AC
:1046A00000F0C6FE00220EA912A800F0AFFDA54A38
:1046B00012A916A800F0BCFE524616A905A800F0E3
:1046C000A5FD16A800F0AAFC12A800F0A7FC0EA8F1
:1046D00000F0A4FC0BA800F0A1FC08A800F09EFCD0
:1046E000994A05A916A800F0A3FE16A90EA800F085
:1046F000B9FE16A800F092FC944A05A916A800F08D
:1047000097FE16A912A800F0ADFE16A800F086FCD0
:104710008F4A05A90BA800F08BFE0BA916A800F084
:10472000A1FE16A801F026FE16A810EE106A01F0F0
:104730003CFD0BA800F072FC864A05A90BA800F00E
:1047400077FE0BA916A800F08DFE16A801F012FE48
:1047500016A810EE108A01F028FD0BA800F05EFCF0
:10476000109B012B40F28580304604F047F95EA390
:10477000D3E9002306460F4604F00AFC002837D090
:104780005BA3D3E900233046394604F01FFC78B31D
:1047900057A3D3E900233046394603F0CFFF6E4BD1
:1047A000002204F083F954A3D3E9002304F0A8FA0B
:1047B0006A4B002203F0C4FF04F012FC04462E46AC
:1047C000674912A801F08AFD002847D0002E45D085
:1047D000644B012243F8242012A801F0E6FC0EA845
:1047E00001F0E3FC05A80AF1010A00F017FC4BE711
:1047F0003DA3D3E900233046394604F0E7FB58B324
:10480000404604F0FBF83EA3D3E9002380468946E6
:1048100004F0BEFB00B33CA3D3E900233046394685
:1048200004F0B6FBC0B13AA3D3E9002340464946A1
:1048300003F086FF4C4B002204F038F936A3D3E98D
:10484000002304F05DFA454B002203F079FF04F0E9
:10485000C7FB00F13704B2E70646B1E7434912A8A7
:1048600001F03CFD0028B7D0002EB5D03D4B05220D
:10487000B0E712A801F099FC0EA801F096FC05A87B
:1048800000F0CCFB3A4D0024A1B2002228460134AE
:1048900000F05EF9472CF7D1DFF8C890DFF8D88038
:1048A000334D344F002659F8043B012B66D1B4B286
:1048B000611E3A6889B2284600F04AF93A682146F2
:1048C000284600F045F9D8F80020611C89B2284636
:1048D00000F03EF901360023472E49F8043CE2D1AE
:1048E000234800F085F9CAE64260E5D022F344404F
:1048F0002060ADDA35ED4440008800E0D8B3A73F32
:1049000074081C0934E855C02D78D15790F4444000
:1049100074081C0934E8554000B0BB40498195BF7C
:10492000F4E50320FDB10D00A8E503201456032093
:10493000D8530320307E032001B20D0010B20D00C9
:1049400016B20D001CB20D0022B20D002CB20D00EB
:1049500031B20D0035B20D0000804B400000E03F49
:1049600039B20D00ECE30320000030403BB20D00F3
:104970001CE60320E8530320D4530320052BA9D1C0
:10498000B4B2611ED8F8002089B2284600F0E0F8E1
:104990003A682146284600F0DBF83A68611C95E742
:1049A00010B503682F2B044604D9074A00210A20BA
:1049B00001F0DAF923681F2B83BF03F01F030348BC
:1049C00023604FF0A04010BD45590D00000300507A
:1049D00007B5019001A8FFF7E3FF019A0123934077
:1049E000C0F80C3503B05DF804FB000038B5044690
:1049F000124D8078012103F02DFDE078012103F0B4
:104A000029FD2A68A378190102EB0313505C5B7837
:104A100003F01F0343EA4010FFF7DAFFE3782A6848
:104A2000190102EB0313505C5B7803F01F0343EAA8
:104A30004010BDE83840FFF7CBBF00BF40E6032081
:104A400010B504460021807803F004FDE0780021D1
:104A5000BDE8104003F0FEBCF7B5234F05460C46F9
:104A60000926013E16F0FF063CD0AB783A681901E2
:104A700002EB0313505C5B7803F01F0343EA401022
:104A800023062CD5019001A8FFF78AFF019A012384
:104A90009340C0F80835EB783A68190102EB03132C
:104AA000525C5B7803F01F0343EA421301A80193B1
:104AB000FFF776FF019A01239340C0F80835EB78A1
:104AC0003A68190102EB0313505C5B7803F01F0393
:104AD00043EA40106400FFF77BFFE4B2C1E7FFF751
:104AE00077FFD8E703B0F0BD40E603200288806876
:104AF00002EB4202002104F075BB38B50446806821
:104B00000D4608B101F0D4F905EB450080B201F083
:104B1000C7F9A06028B125802046BDE83840FFF7DE
:104B2000E5BF208038BD10B5FF23837000230371DB
:104B3000836002F003030373C2F38103C2F3011223
:104B40000446018043738273FFF7D7FF204610BDF0
:104B500003888B4210B50BD9836801EB41011944DE
:104B6000037B140CCC54437B140ACC54837BCA546F
:104B700010BD000013B50B4C2178BFF35B8F11F013
:104B800001010BD120460191FFF78BFA019928B161
:104B9000054801F009FA2046FFF788FA024802B0FA
:104BA00010BD00BF34E6032038E6032008B5FFF748
:104BB000E1FFBDE8084001F012BA10B50446806874
:104BC00008B101F075F9A378FF2B03D1FFF7EEFFD1
:104BD000204610BD2046FFF733FFF9E707B50190E7
:104BE000FFF7C8FF019903B05DF804EB01F09ABA32
:104BF0002DE9F04184680646002C74D0837805883E
:104C00000779FF2B43D10020FFF7E8FF0020FFF7D3
:104C1000E5FF0020FFF7E2FF0020FFF7DFFF337919
:104C20000334FBB1FF20E61EFFF7D8FF16F8010B97
:104C300010FB07F0000AFFF7D1FFA642F6D1013DB5
:104C4000ADB20334002DEDD1FF20FFF7C7FFFF20E9
:104C5000FFF7C4FFFF20FFF7C1FFBDE8F041FF20D1
:104C6000FFF7BCBFFF20FFF7B9FF14F8030CFFF7F5
:104C7000B5FF013D14F8020CFFF7B0FFADB214F818
:104C8000010CFFF7ABFF0334002DEBD1DCE74FF055
:104C900004080021304608F1FF38FFF7DDFE18F068
:104CA000FF08F6D133790334FBB1FF213046A4F17C
:104CB0000308FFF7D1FE18F8011B11FB07F1090AE1
:104CC0003046FFF7C9FEA045F5D1013DADB2033432
:104CD000002DEAD10424FF213046013CFFF7BCFE41
:104CE00014F0FF04F7D1BDE8F081FF213046E71E44
:104CF000FFF7B2FE17F8011B3046FFF7ADFEA742E3
:104D0000F8D1013DADB20334002DEED1E2E708B594
:104D1000FFF730FF01F052F9FFF72CFF082101F0F7
:104D2000DBF9FFF727FF012101F068F9FFF722FF08
:104D3000BDE80840002101F074B98378FF2B01D150
:104D4000FFF7E5BFFFF752BE08B500F0DBFD014BF2
:104D5000186008BD40E6032010B5044603F0BCF916
:104D6000204610BD38B50446154602F085FC0549BD
:104D7000204602F081FC29462046BDE8384002F07A
:104D80008EBC00BFA5B00D0038B50546144602F034
:104D900073FC0B49284602F06FFC002C0DDA2D2124
:104DA000284602F06DFC614228460A2202F081FC8E
:104DB0002846BDE8384002F066BC2146F4E700BF53
:104DC000A5B00D002DE9F04F0E4691B098464FF07A
:104DD000FF331360044600213046DDF86890174623
:104DE00001F07CFAD6F838E0034698B9BEF1000F1E
:104DF00014BF72465022316892B2204603F080F907
:104E0000051E18BF0125C5B9204603F01BF911B0D6
:104E1000BDE8F08F774B0A9306F1140CBCE80F0045
:104E20000BAD0FC5DCF800302B701FFA8EF200239B
:104E30000AA9204603F031F8E2E74946204602F08D
:104E40001BFC6D49204602F017FCB16A204602F0B7
:104E500013FC6A49204602F00FFC6949694A204662
:104E6000FFF780FF0021304601F038FA20B93268A0
:104E700065492046FFF776FF06F13C0A00215046BF
:104E800001F02CFA28B9726C60492046FFF77CFFCC
:104E900006E05F49484604F0D1F902460028F3D005
:104EA000B8F1000F0ED0D8F8001059B1D8F804208E
:104EB000204622B1FFF756FF08F10808F3E702F099
:104EC000EEFBF9E7204602F0DEFB204602F0D8FEBA
:104ED0000021504601F002FA18B9F16B204602F0A9
:104EE000DEFB04F11C0B4FF420520021584604F065
:104EF00079F900F02FFD019000F02CFD4FF0000833
:104F000004F5205A46460AF11B0A204603F040F8F1
:104F1000D8B1204602F075FF814600F01BFD42F239
:104F2000FE739E42019004D8A31983F81C900136A9
:104F3000EBE742F2FF739E42F9D100238AF800307A
:104F4000204603F07FF8A846F1E7A319187700F090
:104F500001FD019BA0EB0309B8F1000F06D141F25E
:104F60008833994502D8C82002F0DAFB204602F0C7
:104F700088FE30B141F28833994502D8B8F1000F6C
:104F8000C3D0204603F05EF8594602A801F058F954
:104F90000C23092202A906A801F0C4F91D490AA898
:104FA00001F04EF90AA902A801F0B9F904460AA8CD
:104FB00001F0FBF8631C06D106A801F0F6F802A880
:104FC00001F0F3F823E73D1D1349284601F04CF9A1
:104FD000221D02A90AA801F0C5F90AA9284601F074
:104FE0006CF90AA801F0E1F8069804F0B2F838600C
:104FF000E2E700BFB8B40D00B5B00D005BB20D0024
:105000006DB20D0067B20D0078B20D007DB20D00DB
:105010008CB20D0091B20D0095B20D00704710B525
:105020000C21044603F06DFA204610BD10B5054B67
:105030000360037C04461BB9406808B100F038FFE8
:10504000204610BDA4B20D0010B50446FFF7EEFFD8
:105050002046142103F055FA204610BD10B5074B29
:105060000360037C04461BB9406908B100F020FFCF
:105070002046FFF7DBFF204610BD00BFB4B20D0095
:1050800010B50446FFF7EAFF20462C2103F039FA59
:10509000204610BD38B5037C04460D460BB10020F8
:1050A00038BD406838B100F00BFF0028F7D0C4E9E4
:1050B00001050120F4E7084600F0F2FEF5E770B5BF
:1050C000C3680E46D11843680446154673B1836819
:1050D0008B420BD36068E3682A463146184404F0DB
:1050E00059F8E2682A44E260012070BD2046FFF7CB
:1050F000D1FF0028EED1F8E743680021C16023B159
:10510000826812B1184604F06DB8704710B5C0E956
:1051100001120022C260012202744361024A029B12
:105120000260C36110BD00BFB4B20D00D1E9052318
:105130009A42044B38BF8260C0E9003124BF00238B
:1051400083607047C4B20D0070B513689D68136822
:1051500003F1100414608669B4420AD29B698C681A
:10516000A34201DAAB42F2DDA342CCBF0020012012
:1051700000E0002070BD2DE9F341089C984601F144
:10518000100305461746019300260198AB69834238
:105190001BD982688B689A4217DAA6420BD1386015
:1051A00001AA2846FFF7D0FF28B1019BC8F80030BC
:1051B00002B0BDE8F08101AA2846FFF7C5FF01AAA9
:1051C00028460136FFF7C0FFDFE70020F0E7F7B51C
:1051D0001F4601F110030446164601930025019B6A
:1051E000A2699A420FD998688A6890420BDAB54250
:1051F00003D13B60012003B0F0BD01AA2046013578
:10520000FFF7A2FFEBE70020F5E7000073B50D46BE
:1052100089680A4E044661B1686801ABFFF7D7FFA1
:1052200038B16B68C4E90063019BA360204602B0FB
:1052300070BD6B68C4E900630023F6E7C4B20D00DB
:1052400010B5044600680B4628B101F03AF8E3684F
:105250000133E36010BD60680028F8D0D4E9022172
:10526000013A8A4288BF4354F1E703467F2B37B5A2
:105270000846D9B204D803B0BDE83040FFF7E0BF1C
:1052800001F03F01B3F5006F43F3871541F080044F
:1052900008D265F03F01C9B20190FFF7D1FF019834
:1052A0002146E8E71B0B43F0E0010190FFF7C8FF40
:1052B00005F03F01019841F08001EEE72DE9FF473D
:1052C00000244E68DFF8CCA080460F461546A14664
:1052D000B868B0425ADDD8F80430995D9A19002CAC
:1052E0004BD0752905D86D2907D862291ED06629AB
:1052F0001ED02846FFF7A4FF3DE0A1F16E04072C65
:10530000F7D80FF2080C5CF824F000BF35530D00FD
:10531000F3520D00F3520D00F3520D0039530D00FE
:10532000F3520D003D530D0041530D000821E0E7FD
:105330000C21DEE70A21DCE70D21DAE70921D8E7B5
:10534000311D884217DD02A904333344084612F8A0
:10535000014F01F8014B9A42F9D101AA51468DF84B
:105360000C9000F0B5FD012805D1BDF804002946D8
:10537000FFF77BFF0536002404E05C2904D02846B3
:10538000FFF75EFF0136A3E70124FBE7012004B02D
:10539000BDE8F08796B20D007FB50C4606460C4975
:1053A0001046154600F060FFD4E90131C91A0131F9
:1053B000284600F018FF00236A4621463046CDE912
:1053C000013300950393FFF779FF04B070BD00BF70
:1053D00095B20D002DE9F04389B00546884604A832
:1053E00012491646994600F02BFF002700974B46BE
:1053F00003AA41462846FFF7BEFE044670B1039952
:1054000004AA2846FFF7C8FF044608B90137EDE7AC
:10541000314604A800F062FF0028F7D004A800F08D
:10542000C4FE204609B0BDE8F08300BF95B20D0070
:1054300073B50D4689680A4E044661B1686801ABD0
:10544000FFF7C8FF38B16B68C4E90063019BA36034
:10545000204602B070BD6B68C4E900630023F6E724
:10546000C4B20D0038B50D460549044600F0E8FE0B
:10547000A96819B168682246FFF78EFF204638BD3B
:1054800095B20D002DE9F04F44684FF0010C4FF03C
:10549000FF35D0F800E0964580F0C18111F80E800C
:1054A000B8F1000F00F0BB81B8F13A0F00F09B801B
:1054B00033D8B8F1220F00F0AD8010D8A8F1090858
:1054C0005FFA88F8B8F1170F0DD8C24F0CFA08F838
:1054D00018EA070F07D0076801370760D9E7B8F166
:1054E0002C0F00F03981D0F8008042450ED911F818
:1054F00008705FB13A2F00F271811F2F00F25581C1
:105500000A2F00F26481082F40F25A81002B40F0EC
:105510006A8108F1FF370760ACE0B8F17B0F3AD041
:105520000AD8B8F15B0F36D0B8F15D0FDBD1002B94
:10553000D1D04FF0020B06E0B8F17D0FD3D1002B94
:10554000C9D04FF0010B476807F1FF3803EB07198B
:10555000B8F1000F4FDB59F80C7C0137A9F1100AA4
:1055600045D059F8087C7E1C41D19AF80090D94565
:1055700045D187600EF10107CAF8087003EB081ED9
:10558000DEF8047001373DD0DEF80870013739D1FC
:10559000C0F808809FE70134002B9CD04768099E23
:1055A000BE424ED907F1010EC0F804E003EB071E1E
:1055B000CEE901550026CEF80C604FEA071A87683D
:1055C0007E1C1FBF03EB0719D9F80C700137C9F80F
:1055D0000C70B8F17B0F0CBF0127022703F80A708B
:1055E0000768CEF804704768013F876073E708F1E9
:1055F000FF38D146ACE7B8F1FF3F7FF46CAF6FF0F6
:10560000010420E008F1FF38B8F1FF3FAEF1100EC1
:10561000B6D160E70EF10109C0F80090D0F8008023
:10562000424540F2948011F80870002F00F08F80FE
:10563000222F30D1F3B14768099EBE4206D8C0F888
:1056400000E04FF0FF342046BDE8F08F07F1010E77
:105650004FEA071803EB0717C0F804E0C7E9015544
:105660000026FE60D0F800E04FF0030A03F808A01F
:10567000C7E9019E87687E1C04F101043FF42BAF4B
:10568000002B3FF428AF03EB071EDEF80C70013748
:10569000CEF80C701FE75C2F11D108F10107BA4258
:1056A0000DD90760CF5D752F2CD86D2F0BD8662FC5
:1056B00028D85B2F1ED8222F01D02F2F22D1076888
:1056C00001370760AAE76E3F072F1BD801A656F8DF
:1056D00027F000BFBF560D0005570D0005570D0000
:1056E00005570D00BF560D0005570D00BF560D00A4
:1056F0000B570D005C3FFFB20CFA07F740F2414632
:105700003742DCD1C0F800E079E708F10207076012
:105710004FF0040AD0F80080424503D80768013FE3
:105720000760CCE711F80870002FF7D0A7F1300B15
:10573000BBF1090F04D927F02007413F052FE1D81D
:1057400008F10107BAF1010A0760E3D1E6E7C0F802
:1057500000E06FF0020476E7002B3FF4BCAE8768F0
:105760007E1C3FF4B8AE3F01DF5D013F012F7FF6A5
:10577000B2AE476807F1FF3803EB071EB8F1000F20
:10578000FFF6A9AE1EF8107C013F012F08D85EF885
:105790000C7C013704D05EF8087C01373FF4F8AE8A
:1057A00008F1FF38AEF1100EE8E7A7F120090A4E24
:1057B0005FFA89F90CFA09F919EA060F7FF4A6AE27
:1057C000203F5E2F9ED808F1010707608BE60D2F62
:1057D000F6D19BE6130080000110000407F0DF09FA
:1057E000B9F15D0FF4E74768099EBE427FF627AF27
:1057F00007F101084FEA071903EB0717C0F8048007
:10580000C7E901550026FE60D0F800804FF0040A79
:1058100003F809A0C7E901E80768013F7BE6002B10
:105820003FF411AF4268511E03EB02130029FFF64B
:105830000AAF53F80C2C013203D053F8082C013274
:1058400087D00139103BF1E7F7B5C268044612B9B9
:10585000002003B0F0BD436900F12006ABB1002188
:10586000C0E908114FF0FF318162C16900914168C0
:105870003046FFF707FE431C28D1257C002DE7D1D9
:10588000606900F015FB6561E56100254FF0FF37A9
:10589000C4E90855E2686168A76200952B46304666
:1058A000FFF7F0FD0028D3DBE06117D0000100F026
:1058B000F7FAE269606103460092C4E90855E268BC
:1058C0006168A7623046FFF7DDFD01E00028BFDB1D
:1058D000636903EB0010A0610120BAE76369A3616B
:1058E000FAE7000008B5024B1B689B68019308BDEE
:1058F0006802030008B5024B1B68DB68019308BD12
:105900006802030008B5024B1B681B68019308BDC1
:105910002C02030008B5024B1B689B68019308BD6D
:105920002C02030008B5024B1B685B69019308BD9C
:105930006C02030008B5024B1B685B68019308BD4D
:105940001802030008B5024B1B68DB68019308BD11
:105950001802030008B5024B1B685B69019308BD80
:105960001802030008B5024B1B689B68019308BD31
:105970007802030008B5024B1B681B6D019308BD3C
:105980007802030008B5024B1B689B6D019308BDAC
:105990007802030008B5024B1B681B6E019308BD1B
:1059A0007802030008B5034B1B68D3F898300193C5
:1059B00008BD00007802030008B5034B1B68D3F84C
:1059C000A830019308BD00007802030008B5034B1E
:1059D0001B68D3F8B430019308BD000078020300BF
:1059E00008B5034B1B68D3F8D830019308BD0000FD
:1059F0007802030008B5034B1B68D3F8DC30019331
:105A000008BD00007802030008B5034B1B68D3F8FB
:105A1000EC30019308BD00007802030008B5034B89
:105A20001B68D3F8F030019308BD00007802030032
:105A300008B5034B1B68D3F80031019308BD000083
:105A40007802030008B5034B1B68D3F804310193B7
:105A500008BD00007802030008B5024B1B685B6CB0
:105A6000019308BD4802030008B5024B1B689B6CFC
:105A7000019308BD4802030008B5024B1B68DB6CAC
:105A8000019308BD4802030008B5024B1B685B6D1B
:105A9000019308BD4802030008B5024B1B685B690F
:105AA000019308BD6402030008B5024B1B681B6A22
:105AB000019308BD6402030008B5024B1B689B6A92
:105AC000019308BD6402030008B5024B1B681B6804
:105AD000019308BD3C02030008B5024B1B68DB685C
:105AE000019308BD3C02030008B5024B1B681B690B
:105AF000019308BD3C02030008B5024B1B685B69BB
:105B0000019308BD3C02030008B5024B1B689B696A
:105B1000019308BD3C02030008B5024B1B68DB691A
:105B2000019308BD3C02030008B5024B1B681B6AC9
:105B3000019308BD3C02030008B5024B1B689B6A39
:105B4000019308BD3C02030008B5024B1B68DB68EB
:105B5000019308BD2802030008B5024B1B689B692E
:105B6000019308BD2802030008B5024B1B68DB69DE
:105B7000019308BD2802030008B5024B1B681B6A8D
:105B8000019308BD2802030008B5024B1B685B6A3D
:105B9000019308BD2802030008B5024B1B689B6AED
:105BA000019308BD2802030008B5024B1B68DB6A9D
:105BB000019308BD2802030008B5024B1B681B6B4C
:105BC000019308BD2802030008B5024B1B685B6BFC
:105BD000019308BD2802030008B5024B1B681B6C2B
:105BE000019308BD2802030008B5024B1B689B699E
:105BF000019308BD3802030008B5024B1B68DB693E
:105C0000019308BD3802030008B5024B1B681B6AEC
:105C1000019308BD3802030008B5024B1B689B6A5C
:105C2000019308BD3802030008B5024B1B681B6BCB
:105C3000019308BD3802030008B5024B1B689B6B3B
:105C4000019308BD3802030008B5024B1B681B68AE
:105C5000019308BD3002030008B5024B1B685B6866
:105C6000019308BD3002030008B5024B1B689B6816
:105C7000019308BD3002030008B5024B1B68DB68C6
:105C8000019308BD3002030008B5024B1B681B6975
:105C9000019308BD3002030008B5024B1B685B6925
:105CA000019308BD3002030008B5024B1B68DB6995
:105CB000019308BD3002030008B5024B1B681B6A44
:105CC000019308BD3002030008B5024B1B685B6AF4
:105CD000019308BD3002030008B5024B1B681B6C22
:105CE000019308BD3002030008B5024B1B685B6CD2
:105CF000019308BD3002030008B5024B1B681B6806
:105D0000019308BD4C02030008B5024B1B685B6899
:105D1000019308BD4C02030008B5024B1B681B69C8
:105D2000019308BD4C02030008B5024B1B685B6978
:105D3000019308BD4C02030008B5024B1B689B6928
:105D4000019308BD4C02030008B5024B1B68DB69D8
:105D5000019308BD4C02030008B5024B1B681B6A87
:105D6000019308BD4C02030008B5024B1B685B6B36
:105D7000019308BD6002030008B5024B1B681B6D50
:105D8000019308BD6002030008B5024B1B685B6805
:105D9000019308BD2002030008B5024B1B685B6934
:105DA000019308BD2002030008B5034B1B68D3F81C
:105DB0008830019308BD00002002030008B5034BA2
:105DC0001B68D3F89430019308BD00002002030043
:105DD00008B5024B1B685B68019308BD40020300D5
:105DE00008B5024B1B689B68019308BD4002030085
:105DF00008B5024B1B68DB68019308BD4002030035
:105E000008B5024B1B681B69019308BD40020300E3
:105E100008B5024B1B685B69019308BD4002030093
:105E200008B5024B1B689B69019308BD4002030043
:105E300008B5024B1B68DB69019308BD40020300F3
:105E400008B5024B1B681B6A019308BD40020300A2
:105E500008B5024B1B681B6B019308BD4002030091
:105E600008B5024B1B685B6B019308BD4002030041
:105E700008B5024B1B681B6C019308BD4002030070
:105E800008B5024B1B685B6C019308BD4002030020
:105E900008B5024B1B68DB6B019308BD440203008D
:105EA00008B5024B1B681B68019308BD1C02030068
:105EB00008B5024B1B685B68019308BD1C02030018
:105EC00008B5024B1B689B68019308BD1C020300C8
:105ED00008B5024B1B685B69019308BD1C020300F7
:105EE00008B5024B1B68DB6A019308BD1C02030066
:105EF00008B5024B1B681B6B019308BD1C02030015
:105F000008B5024B1B68DB6B019308BD1C02030044
:105F100008B5024B1B685B6C019308BD1C020300B3
:105F2000002240681146FFF78BBF002240681146EF
:105F3000FFF796BF40680022FFF78ABF4068002243
:105F400081F00101FFF774BF002340681A4619462B
:105F5000FFF766BF002340681A461946FFF758BF8F
:105F6000002240681146FFF74BBF002240681146EF
:105F7000FFF736BF406800220221FFF739BF002338
:105F800040681A46FFF724BF024B03225A60024AB8
:105F90001A60704744E60320D4B20D000021FFF7D9
:105FA0009BBE0021FFF7A0BE10B504460846217035
:105FB000FFF77AFE00236360204610BD10B504464B
:105FC0000078FFF7EBFF48B920784FF6FF71FFF735
:105FD0003BFE2078BDE81040FFF7E3BF10BD10B5D1
:105FE00004460078FFF7DAFF38B92078FFF734FE6F
:105FF0002078BDE81040FFF7D4BF10BD13B50446AC
:1060000000780191FFF7CAFF019940B92078FFF7A6
:106010002BFE207802B0BDE81040FFF7C2BF02B0EF
:1060200010BD13B5044600780191FFF7B7FF019941
:1060300040B92078FFF720FE207802B0BDE810407C
:10604000FFF7AFBF02B010BD400830B518600024A4
:1060500018688842E5B206D90134082C02D04008FD
:106060001860F5E70725024B5B5D137030BD00BF7C
:1060700008B30D002DE9F04188B0002304460078F4
:1060800002930E461746FFF789FF054600BB94F8BA
:1060900000800146142203A803F0A4F80B232A462B
:1060A00003A94046ADF80C30FFF70EFE04988DF8BA
:1060B000075002AB0DF1070207FB06F1FFF7C4FF23
:1060C00020789DF80710FFF7DFFD2078FFF769FFC4
:1060D000029808B0BDE8F08138B5044600780D4656
:1060E000FFF75CFF0346D0B9616899B10C4A12F81A
:1060F000010B854202D00133082BF8D10133DBB20A
:106100000122D9402046FFF7B5FF2078BDE838408E
:10611000FFF747BF20782946FFF7B6FDF5E738BD02
:1061200008B30D0008B50078FFF7B6FDC0B208BD92
:1061300010B50446006818B1FFF7BAFE00232360CB
:1061400010BD10B50446FFF7F3FF204610BD000058
:1061500010B5094B094C022200201A60084B206040
:10616000A080A071A360FFF70FFE2046054A0649F4
:10617000BDE8104002F0C0B958E603204CE6032009
:106180000000FFFFC455032043610D0070B586B0C9
:10619000064601AD684601F0EBFB0FCD341D0FC480
:1061A0002B682370304606B070BD10B504460068F9
:1061B000FFF77EFE204610BD10B50446006808B10A
:1061C000FFF776FE0023C4E90133236010BD38B524
:1061D00004460D4600680131FFF772FE10B1C4E9B4
:1061E0000005012038BD10B50368044623B143689B
:1061F0008B4201D3012010BD2046FFF7E8FF0028A5
:10620000F9D0A368002BF5D122681370F2E737B5F7
:106210000D46114601920446FFF7E5FF019A28B9A1
:106220002046FFF7C9FF204603B030BDA2602946D3
:10623000206802F0AFFF2268A3680021D154F2E782
:10624000002313B5C0E9003304468360037341B1F2
:106250000846019103F004F8019902462046FFF731
:10626000D6FF204602B010BD13B5044659B108460A
:10627000019102F0F5FF019902462046FFF7C7FFA2
:10628000204602B010BDFFF797FFF9E770B505464D
:106290000E4609B9002070BD6AB1846814442146D5
:1062A000FFF7A1FF0028F5D02868AB6831461844F5
:1062B00002F0CEFFAC600120EDE78A680968FFF7C5
:1062C000E5BF07B500238DF80410012201A98DF860
:1062D0000530FFF7DBFF03B05DF804FB08B582680B
:1062E0003AB921B10878B0FA80F0400900E0012005
:1062F00008BD006809B90078F5E702F09FFFF2E7F2
:1063000010B58368934207D904680968A01802F0A1
:10631000CEFF08B1001B10BD4FF0FF30FBE700229D
:10632000FFF7EEBFF8B59A420F461D460C4988BFED
:1063300013461446064684BF2C461D46FFF780FFD1
:10634000BA68A2420AD33968AA4294BFC4EB0202D7
:10635000C4EB050221443046FFF759FF3046F8BD33
:1063600095B20D0010B504468B68FFF7DBFF2046A1
:1063700010BD000008B5006840B102F0E7FE51EC26
:10638000100B02F075FE00EE100A08BD9FED010A29
:10639000FBE700BF00000000704770477047704780
:1063A000064B994210B500F10C0405D0084602F0E6
:1063B000AFF8002808BF0024204610BD58B40D00D7
:1063C000064B994210B500F10C0405D0084602F0C6
:1063D0009FF8002808BF0024204610BD58B40D00C7
:1063E000064B994210B500F10C0405D0084602F0A6
:1063F0008FF8002808BF0024204610BD58B40D00B7
:1064000010B56821044602F07CF8204610BD10B596
:106410002821044602F075F8204610BD10B5302141
:10642000044602F06EF8204610BDFDF738BEFDF7B9
:1064300036BEFDF734BE10B5036804469B68984726
:10644000A368013BA3602BB923682046DB68BDE845
:106450001040184710BD10B50446006808B1FFF79A
:1064600003FB204610BD000010B5044B044618681D
:10647000FFF702FB0123237010BD00BF64E6032079
:1064800010B5044B04461868FFF7FEFA002323708A
:1064900010BD00BF64E60320F0B50025EC1C8C4263
:1064A0000DD86E1C445D875D974205D12644B142EC
:1064B00005D31D60601CF0BD01342544EEE70020CB
:1064C000F9E72DE9F34704469DF828701E468946F2
:1064D00001AB90460A46016AFFF7DEFF256AB31C4E
:1064E00017BB08B35F193F1A1F2F19D8DDF80490A6
:1064F00009F1020AA5EB0902121A00EB090106EBE9
:106500000A0092B22144204402F052FE731C04F8A7
:1065100009303246414604EB0A0002F03BFE276296
:10652000206A02B0BDE8F0872B441F2BF8D8731CFB
:106530006355A81C25442062324685F801904146E7
:10654000204402F027FE236A33442362E8E7000078
:10655000024A00210A20FFF707BC00BF45590D0081
:10656000022A38B5044607D0032A11D0012A01D1E6
:106570000B682360002038BD08200D68FDF78BFDF7
:1065800003460028F5D095E8030083E80300F0E710
:1065900000680028EED0082101F0B3FFEAE730B42C
:1065A0000D4611461A46036809682868D3E9004376
:1065B000A44630BC604710B58368044613B103227B
:1065C00001469847204610BD10B504465830FFF7E5
:1065D000F2FF04F14800BDE81040FFF7E6BDA0F16E
:1065E0003003DAB2092A01D818467047A0F16103D6
:1065F000052B01D857387047A0F14103052B94BFF4
:1066000037384FF0FF30704710B500230446037051
:10661000FFF72AFF204610BD10B5037804460BB1E2
:10662000FFF72EFF204610BD82B003460868496878
:106630006A4603C26A4603CA18601846596002B027
:10664000704708B582798B799A4206D1062202F00A
:1066500093FDB0FA80F0400908BD0020FCE74FF040
:10666000FF330360838000207047002108B501607C
:1066700041600246FFF7F3FF9171104608BD00002C
:1066800001220261064A1168016051684160118966
:10669000927A827200220181C0F80B20C273704787
:1066A00060B40D0010B50B69036101F110020346DF
:1066B00051F8044B43F8044B9142F9D110BD10B589
:1066C0000B460446B1B1012A01F110020AD101467C
:1066D00053F8040B41F8040B9342F9D101232361D1
:1066E000204610BD411E12F8010D01F8010F9A421B
:1066F000F9D1F3E7102202F075FDF1E738B5044651
:1067000015461A46FFF7DBFFA581204638BD00007D
:1067100008B5026922B98089003818BF012008BD78
:106720000249102202F028FDF6E700BF80B40D00F8
:106730000069704738B50C4614220021054602F066
:1067400051FD23693BB9627B2B74237B43EA02230F
:106750002B80284638BD01232B7404F110022B46F0
:1067600054F8041B43F8041B9442F9D1F1E7427B2F
:10677000007B40EA02207047704708B502690B6948
:106780009A4206D1102202F0F7FCB0FA80F04009DC
:1067900008BD0020FCE7000001232DE9F34103615F
:1067A000324B1A6802605A68426000251A899B7A47
:1067B000028104468372C0F80B50C5730E4621B3A4
:1067C0002421304602F066FD042821D1ADF80450A2
:1067D00001AFB51C063615F8020CFFF700FFB0F14B
:1067E000000810DB15F8010CFFF7F9FE00280ADBA2
:1067F000023540EA0810AE4207F8010BEBD1BDF8B4
:1068000004305BBAA3810023236102B0BDE8F081AC
:1068100010272421304602F03DFDA84206D8274427
:106820000023BC42F1D007F8013DFAE7002FECD07D
:10683000705DFFF7D4FE030615D40001013F5FFA37
:1068400080F804F807802421304602F023FD01354A
:10685000A84208D9705DFFF7C2FE40B20028A4BF6D
:1068600040EA0800E0550135D3E700BF60B40D00F1
:1068700013B504460191FFF703FF20460199FFF786
:106880008BFF204602B010BD30B49DF8085012B9FD
:10689000006A30BC7047029530BCFFF712BE1FB5CE
:1068A0000446024600F11F01002302F8013B914219
:1068B000FBD123620093062201238DF80F20194695
:1068C0000DF10F022046FFF7DFFF204604B010BD98
:1068D00073B50A460E4601AB016A0446FFF7DCFDBC
:1068E000054678B10198226A4119121A2144521BB7
:1068F000204402F04FFC206A401B206231462046B3
:10690000FFF7E6FF02B070BD38B54FF6FF73002504
:10691000044643800E22294605700571063002F0B8
:1069200061FC04F11400FFF7ABFE04F12800FFF74F
:10693000A7FE044904F13C00FFF782FC6565204690
:1069400038BD00BF95B20D0010B5D0E9063203EB9B
:10695000C2029342184606D0046824888C4203F190
:106960000803F6D110BD0020FCE70000F0B5064694
:1069700085B01F460D46002950D0002A4ED004682D
:106980002378F42A28BFF42243B32379980709D542
:10699000A08903920023FFF719F80028039A03DA6D
:1069A00005B0F0BD6FF0770034682379D90609D5BA
:1069B000012F07D0A0890023294605B0BDE8F0408B
:1069C000FFF736B89B06EBD5022FE9D0A08900234C
:1069D000294605B0BDE8F040FFF734B860884FF6AF
:1069E000FF7188421CD021794E0701D5012F04D1B7
:1069F0000B0709D46FF07700D2E7A1890093134603
:106A00002A46FEF7F7FFCBE7022FF3D00023A18938
:106A1000009313462A46FEF7E3FFC1E70248BFE7AB
:106A20006FF0D100BCE700BFF2FEFFFF37B50C46A8
:106A30000546F4212046019202F02CFC019B0246FF
:106A40002146284603B0BDE83040FFF78FBF000065
:106A50002DE9F04100260660074628200C46FDF788
:106A60001AFB051E05F10C080FD00123C5E90133FF
:106A7000084B2B604046FFF703FE0FCC2E6285F8D3
:106A8000246046460FC623683360C7E90085384650
:106A9000BDE8F08128B40D0070B5002505600646FC
:106AA0003020FDF7F8FA044688B10123C0E901332C
:106AB000094B03604FF6FF7383810E30FFF7D5FD5E
:106AC000C4E90655C4E90855C4E90A55A5757460BA
:106AD0000C343460304670BD44B40D0037B50D46FB
:106AE000044601A8FFF790FD2A6852F8023F236090
:106AF0005368636001A8FFF78FFD204603B030BDE7
:106B000030B5054687B00C4601A8FFF77DFD2A6821
:106B1000236812881B889A420DD1294602A8FFF7E4
:106B2000DDFF214604A8FFF7D9FF04A902A8FFF75B
:106B300088FD044600B9002401A8FFF76DFD20463A
:106B400007B030BD10B504465420FDF7A4FA014645
:106B500060B10023C0E90033C0E90233C0E9043367
:106B6000C0E906330362C362C363C364216019B919
:106B7000094A0A20FFF7F8F80020FEF7F3FE20B1DB
:106B8000054A00210A20FFF7EFF821680348002298
:106B9000FEF744FF204610BD45590D00296F0D003A
:106BA00010B50B4C2378BFF35B8FDB070ED4204668
:106BB000FDF777FA50B10748FFF7C4FF2046FDF70D
:106BC00075FA054A0549034801F096FC014810BDD5
:106BD0005CE6032068E60320C4550320A96D0D0080
:106BE00030B50368093B012B8DB004460D4611D822
:106BF000FFF7D6FFA1880068FFF7A6FE034658B945
:106C00002022CDE904200B4A00920B4904AA32202D
:106C1000FFF7B2F80DB030BD6A6D002AFAD0D4E9A2
:106C2000032105F14C00CDE90312AC6D04AA03A9C0
:106C3000A047EFE737B30D0010B30D0008B50020F3
:106C4000FEF790FE00EAE07008BD084611B90A465A
:106C5000FEF790BE096A0022FAE707B5084629B98F
:106C60000A4603B05DF804EBFEF78CBE01210190EB
:106C7000FFF72EFE01980022016AF2E738B50446BC
:106C80001546FFF7E2FF00280ADB29462046FFF7FA
:106C9000E4FF002804DBBDE838400020FEF77ABEA0
:106CA00038BD000038B500230446836008200D4637
:106CB000FDF7F1F918B12B6803606B684360034B73
:106CC000E360034B2060A360204638BD9F650D0044
:106CD00061650D000B68036013B15A6801325A6098
:106CE000704710B551F8043B044640F8043BFFF7E9
:106CF000F1FF23680BB9FFF72BFC204610BD10B540
:106D000051F8043B044640F8043BFFF7E3FF2046FC
:106D100010BD10B551F8043B044640F8043BFFF7A2
:106D2000D9FF204610BD10B50446006828B143685D
:106D3000013B43600BB9FFF77EFB204610BD10B549
:106D400004460430FFF7EFFF204610BD70B5D0E9D0
:106D50000053044605EBC306AE4204D0281DFFF7DE
:106D6000E2FF0835F8E72068FFF7A2F8204670BD7B
:106D700070B5D0E90053044605EBC306AE4204D01B
:106D8000281DFFF7D0FF0835F8E72068FFF790F8D7
:106D9000204670BD10B504462430FFF7E9FF04F12A
:106DA0001800FFF7D3FF10BDF8B50468064624B3FA
:106DB00004F14400FFF7FFFB04F13400FFF7FBFB95
:106DC00004F12400FFF7F7FBD4E9065305EBC307F2
:106DD000AF4204D0281DFFF7A6FF0835F8E7A069E9
:106DE000FFF766F804F10C00FFF7C2FF2046FFF73B
:106DF000ADFF5421204601F084FB3046F8BD826887
:106E000010B50AB901F081FBBDE81040C36818470E
:106E10008842F8B504460D46164614D9904213D25E
:106E2000A2F10806751AA1F108072C44B74218D040
:106E30001CB131462046FFF76CFF301DFFF773FF92
:106E4000083E083CF2E70CD0B5420AD01CB12946F6
:106E50002046FFF75EFF281DFFF765FF0835083461
:106E6000F2E7F8BD2DE9F041D0E900430546884638
:106E700004EBC307A74203D100263046BDE8F081EA
:106E800041462046FFF73CFE064608B90834F1E7C4
:106E9000002CF1D0201DFFF746FFD5E9003204F1A8
:106EA000080103EBC2022046FFF7B2FF6B68013B0B
:106EB0006B60E2E7F7B5044646686846FFF729FFCE
:106EC000D4E901739F4212DB0137002F29DDF8005E
:106ED000FEF7E6FF0546F0B1D4E9001201EBC2026D
:106EE000FFF796FF2068FEF7E3FF2560A7602368A1
:106EF000626803EBC60603EBC202314606F10800E6
:106F0000FFF786FF1EB169463046FFF702FF636850
:106F100001336360012501A8FFF705FF284603B090
:106F2000F0BD0025DEE700002DE9F04105468EB0FA
:106F300003A80C46FFF768FB2E68042E6BD007D819
:106F4000032E28D003A8FFF767FB0EB0BDE8F08141
:106F5000A6F10C03032BF5D8A9892046FFF7F4FC12
:106F600007460028EED0E36C002BEBD01022002166
:106F700007A802F037F90D2E06978DF81C6040F037
:106F800092806B68099306230893236D06A904F188
:106F900044009847D6E704A8FFF77EFD049BAA8922
:106FA0001A806968049808310230FFF73DFB04A994
:106FB00006A8FFF7AEFE06A904F11800FFF77AFF56
:106FC000054607A8FFF7AFFE202306938DB93E4B79
:106FD0003E49009332202B4606AA0795FEF7CCFEC9
:106FE000049B29461888FEF7DDFC05A8FFF79BFEE9
:106FF000A8E7374A009200233449079306AA0120E4
:10700000FEF7BAFEE36A002BEFD004A904F12400D6
:10701000FFF7F5FEE9E7A9892046FFF795FC06464C
:1070200000288FD00568D5E906314FF6FF722A8017
:1070300003EBC101994203D053F8080B4280F9E7F2
:10704000D5E9037307EBC308B84504D0381DFFF733
:107050006AFE0837F8E700232B61D5E9067307EBD2
:10706000C308B84504D0381DFFF75DFE0837F8E7C0
:107070000023EB61AB72E36B23B1314604F13400C2
:10708000FFF7BDFE00232022CDE90623114A00921E
:107090000E4906AA0120FEF76FFE314604F11800E2
:1070A000FFF7E0FE4EE70F2E7FF46FAF6B6809939A
:1070B0002B7A03F00102C3F340038DF829308DF8D9
:1070C0002820082360E700BF4FB30D0010B30D0068
:1070D00075B30D0092B30D0013B500230446D1E93A
:1070E0000002C1E900332368009320606368626096
:1070F00001A80193FFF717FE204602B010BD13B59B
:107100000B460246D0E900016C4684E8030093E890
:10711000030082E8030094E8030083E8030002B060
:1071200010BD38B505460C46FFF7E9FFAB68A2680D
:10713000AA60A360EB68E268EA60E36038BD1FB54F
:1071400000230446084669460293FFF7EAFF2146FA
:107150006846FFF7E6FF6846FFF72DFA204604B0C1
:1071600010BD70B50E4688B0044601921D46FFF76B
:10717000CBFB33780199237104F13C00FFF774F8DD
:1071800004F14C0685B10C9B029502A904A8039357
:10719000FFF788FD04A93046FFF7D1FF04A8FFF7E9
:1071A0000AFA204608B070BD0695F3E72DE9F047CE
:1071B00086B007461D466820002389469246049300
:1071C000FCF769FF061E06F10C081DD001233446AA
:1071D000C6E90133154B44F8203B9AF800308DF88E
:1071E0000C30109B00934A460F9B03A94046FFF7C3
:1071F000B8FF0FCD0FC42B680E9D23600FCD06F195
:1072000034040FC42B68236004A93846CDE90486F2
:10721000FFF762FF05A8FFF786FD396819B9044A30
:107220000A20FEF7A1FD06B0BDE8F0870CB40D0002
:1072300045590D008842F8B504460D46164614D946
:10724000904213D2A2F10806751AA1F108072C4446
:10725000B74218D01CB131462046FFF750FD301D13
:10726000FFF761FD083E083CF2E70CD0B5420AD0BA
:107270001CB129462046FFF742FD281DFFF753FDAC
:1072800008350834F2E7F8BD70B50E1E054611DD6D
:10729000F000FEF705FE044658B1D5E9001201EBF7
:1072A000C202FFF7C7FF2868FEF702FE2C60AE603F
:1072B000012070BD0024F6E773B5044645686846B2
:1072C000FFF71DFDD4E90113994210DA23686268C3
:1072D00003EBC50503EBC202294605F10800FFF7E1
:1072E000A9FF8DB9636801336360012606E00131AF
:1072F0002046FFF7C9FF06460028E7D101A8FFF79F
:1073000012FD304602B070BD69462846FFF7F7FC13
:10731000E8E78842F8B504460D46164614D990426F
:1073200013D2A2F10806751AA1F108072C44B7423E
:1073300018D01CB131462046FFF7D3FC301DFFF7B3
:10734000F2FC083E083CF2E70CD0B5420AD01CB172
:1073500029462046FFF7C5FC281DFFF7E4FC083549
:107360000834F2E7F8BD70B50E1E054611DDF000D9
:10737000FEF796FD044658B1D5E9001201EBC202B2
:10738000FFF7C7FF2868FEF793FD2C60AE60012071
:1073900070BD0024F6E773B5044645686846FFF7FC
:1073A000A0FCD4E90113994210DA2368626803EB68
:1073B000C50503EBC202294605F10800FFF7A9FF46
:1073C0008DB9636801336360012606E00131204610
:1073D000FFF7C9FF06460028E7D101A8FFF7A3FC85
:1073E000304602B070BD69462846FFF77AFCE8E7F0
:1073F0002DE9F04F1746A1B080460AA80E46FFF7C8
:1074000003F93C68237953B939464046FFF769FCD4
:107410000AA8FFF701F9404621B0BDE8F08F3368B4
:10742000D3E9035305EBC303039304F1280A04F1E2
:10743000140B039B9D4221D0D5F80090584609F1CA
:107440001401FFF79AF9B8B109F128015046FFF786
:1074500094F988B12368D9F80020534033F47F436E
:107460000AD12022CDE915235E4A009215AA5E4971
:107470003220FEF781FCC7E70835DAE75046FFF710
:1074800047F960B95949012215A815ADFFF717F959
:107490000FCDD446ACE80F002B68CCF80030336831
:1074A000D3E9005305EBC30B5D45A94651466ED0A9
:1074B00055F8080BFFF761F90028F5D004F1140A1C
:1074C0005046FFF725F988B9494B48491A880132D7
:1074D00092B21A8015A8012315ADFFF70FF90FCD51
:1074E000D446ACE80F002B68CCF8003028220021ED
:1074F00016A801F077FE3F4B1593514604A8FFF7FD
:1075000019F904AB18AA0DF1200C18685968154632
:1075100003C5083363452A46F7D1186828602379E4
:107520008DF85830D9F800309B8AADF87430E36B91
:107530001793314B0022A11D15A8CDE91E34FEF78B
:1075400063FA00287FF460AF012323703468394662
:107550000C340DA8FFF7C5FB20460DA9FFF71BFF54
:1075600004460EA8FFF7DFFB002C7FF44DAF20236D
:10757000CDE90D34214B00930DAA234677E7394618
:107580004046FFF7AEFB0CA8FFF7CDFB40E70BA88A
:10759000FFF75EFA514615A8FFF7CCF80B9A0023C7
:1075A000143215A90120FEF707FA0028E7D1356843
:1075B0000BA90DA8FFF7A3FB28460DA9FFF77CFE3A
:1075C00005460EA8FFF7AFFB002DD8D032685368F0
:1075D000126803F10053013B0CA802EBC309FFF74B
:1075E000A2FB6BE7B1B30D0010B30D0070B40D003A
:1075F00060E6032001002C00E16B0D00DCB30D0000
:1076000010B5064C002320462360FEF725FA2046DD
:10761000034A0449BDE8104000F06EBF64E6032051
:10762000C455032057640D00F8B506460D468F1863
:107630000024BD420CD0336815F8011B9B6830460E
:107640009847031E01DB1C44F3E7002C08BF1C46CF
:107650002046F8BD13B50446084659B1019101F022
:10766000FFFD23680199DB680246204602B0BDE8B1
:107670001040184702B010BD08B5FFF7EBFF08BD7A
:1076800003689B68184738B50D210546FFF7F8FFDA
:107690000A2104462846FFF7F3FF204438BD38B5D9
:1076A0000546FFF7D7FF04462846FFF7ECFF2044C6
:1076B00038BD30B58BB000238DF82430012A98BF37
:1076C0000A2209AC0D46B1FBF2F101FB125303F0A3
:1076D000FF03092B94BF30333733DBB2AA4204F8DF
:1076E000013DEFD92146FFF7B5FF0BB030BD0023B8
:1076F00040681A461946FEF78BBB0000014B024A50
:107700001A6070476CE6032090B40D00024B1A68B3
:10771000024B1A60704700BFEC53032070E6032051
:107720000021FEF739BB10B50446FEF744FF2046A2
:1077300010BD00000348044A04490023836000F0A0
:10774000DBBE00BF74E60320C455032027770D007D
:10775000014B1860704700BFF053032008B50B4B76
:1077600043B100F071F903681B699847002801DDF7
:10777000AFF30080064B43B100F0E4F903681B69E6
:107780009847002801DDAFF3008008BD000000002D
:107790000000000008B5FFF7E1FFFEF7DBF8014B42
:1077A000186008BDD4E703200248034A0349121AAF
:1077B00001F0F0BC00F4032004F40320E0B90D0054
:1077C00007B5002300931A466FF07701FEF7F6FA2B
:1077D00003B05DF804FB000007B543880A2B08D00E
:1077E000502B0BD1094B1B684BB103B05DF804EB78
:1077F0001847FFF7E5FF03B05DF804FB0023009393
:107800001A466FF07701FEF7D9FAF4E788E603200D
:1078100038B5124C1248134D0021FEF779FB23684E
:10782000AB42114B0CBF012200221A7002D0FFF7AD
:10783000BBFF2560FEF77EF8044601F0DBFC0B4B36
:1078400013B12046AFF3008000210848FEF720FB6B
:10785000BDE8384006480021FEF7A6BA00F4032030
:1078600051770D001E1C279A84E6032000000000BB
:10787000D9770D00704710B51821044600F041FE7D
:10788000204610BDF0B5037D062B8DB00E4600F1ED
:1078900004074FF0000412D000F1080515F8011D8F
:1078A0000A223046FFF705FFAF42044419D0002CEE
:1078B000F4D02E213046FFF7E3FE0444EEE72F23F9
:1078C0006A4639460A208DF80040FEF7E5F868461A
:1078D00001F0C6FC33680246DB68694630469847CB
:1078E000044620460DB0F0BD10B5054B04461122EC
:1078F00040F8043B002101F075FC204610BD00BF9C
:10790000B8B40D000346074A10B543F8042B01F143
:10791000100251F8044B43F8044B9142F9D10A7814
:107920001A7010BDB8B40D00037D042B04D140685B
:10793000003818BF01207047062B07D143683BB9B8
:1079400083682BB9C3681BB90069F1E70020704751
:107950000120704710B59DF8084044EA032343EA2C
:10796000024242EA016104234160037510BD000038
:1079700013B5054B0360CB7800938B784A78097870
:10798000FFF7E8FF02B010BDB8B40D0041747047B6
:10799000704708B50021007CFEF7CEF940EAE070A0
:1079A00008BD08B50121007CFEF7C6F940EAE07089
:1079B00008BD08B5007CFEF7B7F920EAE07008BD05
:1079C00008B5007CFEF7A8F920EAE07008BD13B501
:1079D0000446007C0191FEF7A7F90028019901DC1B
:1079E000607C20B1207CFEF7AFF920EAE07002B0A5
:1079F00010BD007CFEF7B0B910B51421044600F0AC
:107A000080FD204610BD000010B54FF47A73044687
:107A100008460021C4E90113044B236001232074AC
:107A200063741146FEF768F9204610BDCCB40D0012
:107A3000007C0022FEF768B910B51422044600212C
:107A400001F0D0FB204610BD10B5104C88B003A843
:107A5000FFF7F2FF2178BFF35B8F11F0010111D125
:107A600020460191FCF71DFB019958B103AA084873
:107A7000FFF7CAFF2046FCF719FB064A06490448EF
:107A800000F03AFD024808B010BD00BF8CE60320AC
:107A900090E60320C455032091790D00704741748E
:107AA000704708B5007CFEF747F820EAE07008BD93
:107AB00008B5007CFEF718F820EAE07008BD08B5AC
:107AC000007CFEF721F840EAE07008BD08B5007CB4
:107AD000FEF712F840EAE07008BD007CFEF71CB823
:107AE00037B5457C04462DB1207C03B0BDE830405D
:107AF000FDF7F2BF007C0191FEF71EF80028019906
:107B0000F2DC284603B030BD10B51421044600F065
:107B1000F8FC204610BD000010B54FF0000C0446E4
:107B2000084611464FF47A72C4E901C2044A226041
:107B30000122207462741A46FDF7C6FF204610BD6C
:107B4000FCB40D0013B50E4C2178BFF35B8F11F020
:107B5000010112D120460191FCF7A3FA019960B10D
:107B6000084A094B0948FFF7D7FF2046FCF79EFA61
:107B7000074A0849054800F0BFFC044802B010BDA0
:107B8000A4E60320A8E603202CE70320B0E70320A7
:107B9000C45503209D7A0D007047F8B5064615467A
:107BA0000C468F18BC4206D0336814F8011B9B6842
:107BB00030469847F6E72846F8BD007C0022FDF7DE
:107BC000DBBF007C0021FDF7DFBF007C0021FDF75B
:107BD000E3BF007C0021FDF7E7BF007C0021FDF73B
:107BE000EBBF10B51421044600F08BFC204610BDFD
:107BF00010B54FF47A73044608460021C4E9011316
:107C0000034B236020741146FDF7E6FF204610BDAC
:107C10002CB50D000023007C1A461946FDF794BFD1
:107C2000007C0022FDF798BFC9B2FFF7F9BF007CC6
:107C30000022FDF799BF0121FFF7F9BF13B50368D3
:107C40008DF80710DC6B01224FF0FF330DF10701B7
:107C5000A04702B010BD10B40368DC6B4FF0FF33D7
:107C6000A4465DF8044B604713B5134602688DF8CF
:107C70000710D46B0DF107010122A04702B010BD1F
:107C8000704738B543691A68002A054610DAB3F818
:107C90008620B3F884309A420AD103681B6998475A
:107CA000044628B92B682846DB6A9847204638BD29
:107CB0000120FCE743691868C043C00F7047704754
:107CC000064B994210B500F10C0405D0084600F0AF
:107CD0001FFC002808BF0024204610BD58B40D002A
:107CE00010B5AC21044600F00CFC204610BDFCF79A
:107CF000D6B92DE9F0414FF0000886B01D46C0F816
:107D0000048004460E4617464146102202A801F0A0
:107D100069FA6B1C09D04FF47A70B5FBF0F3CDE92A
:107D2000023800FB135358430490606910230093FA
:107D3000006802AB41F2050240F6FF71FDF754FF07
:107D4000002807DAFEF7DCF803686360002006B05D
:107D5000BDE8F0816069002300683A463146FDF7CE
:107D600063FF031EEEDB1846F1E7000038B58469B7
:107D70000A4B036005467CB16368013B63605BB9F5
:107D8000236820469B689847A368013BA3601BB902
:107D900023682046DB689847284638BD88B50D0023
:107DA00010B50446FFF7E2FF20461C2100F0A9FBB6
:107DB000204610BD70B54D69054B04468C3544F81E
:107DC000043B06460FCD0FC42B682370304670BDB0
:107DD000B8B40D0010B54369B3F88620B3F8843009
:107DE0009A42044605D06369B3F884201344187995
:107DF00010BD03681B6998470028F4D14FF0FF308D
:107E0000F6E710B54369B3F88620B3F884309A4298
:107E1000044608D06369B3F88420511CA3F8841089
:107E20001344187910BD03681B6998470028F1D1E5
:107E30004FF0FF30F6E7F8B543691746B3F88620F0
:107E4000B3F884309A4205460E4616D06969B1F8F7
:107E50008430B1F88640E41ABC4228BF3C46043363
:107E600022461944304601F095F96A69B2F8843027
:107E70002344A2F884302046F8BD03681B69984764
:107E80000028E3D14FF0FF34F5E742690023A2F860
:107E900084304269A2F8863070472DE9F0411F46D0
:107EA00003680C46DB6A8AB0054616469847237D70
:107EB000D5F81480042B0CBF02200A2006220121D1
:107EC000FDF7BAFEC8F800006B691B68002B08DAE2
:107ED0002B682846DB6A0024984720460AB0BDE894
:107EE000F0812846FFF7D1FFB7B1002303A9F8B20C
:107EF0000393ADF81030FDF715FD0028E8D168694F
:107F000006230093006803AB41F20B0240F6FF71B9
:107F1000FDF76AFE0028DBD11C22002103A801F036
:107F200061F9237D042B1DD14FF407733046ADF862
:107F30000C30FDF7C1FDADF80E006068FDF7B4FD33
:107F400004906B691C22186803A9FDF75DFE0028E8
:107F5000BED104340FCC6D698C350FC523682B70EE
:107F60000124BAE740F61C233046ADF80C30FDF78B
:107F7000A3FD05AEADF80E00231D04F1140718682B
:107F80005968324603C20833BB421646F7D1D8E7D8
:107F900030B54269B2F886308BB004462BB1B2F8E6
:107FA00084209A4201D1FFF770FF616908680028B8
:107FB00018DBB1F886507F2D14D804310823C5F1A1
:107FC00080022944FDF728FE002813DD6369B3F819
:107FD00086200AB9A3F884206369B3F88620104488
:107FE000A3F886006369B3F88600B3F88430C01A3A
:107FF0000BB030BDFDF784FF03680B2BF2D0FDF70B
:108000007FFF03680B2BEDD020230025CDE902353F
:10801000FDF776FF03680193084B0949009302AA14
:108020002B463220FDF7A8FE63691868FDF7E4FDD2
:1080300063694FF0FF321A60D4E700BF53B50D00FB
:108040004CB50D0010B5436904461868002801DBE3
:10805000FDF7D2FD63694FF0FF321A6060691122AB
:1080600000218C3001F0BEF82046BDE81040FFF73B
:108070000CBF10B5002304460160C0F8843088307E
:10808000FFF732FC204610BD73B500234FF47A721F
:10809000C0E901320E4A0361026043610446AC202C
:1080A0000191FBF7F8FF051E05F10C0608D001232E
:1080B000C5E90133074B01992B603046FFF7D9FF23
:1080C0002046C4E90565FFF7E0FE02B070BD00BFC1
:1080D00088B50D006CB50D0010B54FF0FF310446AA
:1080E000FFF7D2FF204610BD10B5044600680028F7
:1080F00001DBFDF781FD204610BD0C30FFF7F4BF1A
:108100002DE9F0439846036893B00D460024DB6ADE
:1081100006461746984728466B4622462146009455
:10812000FDF7E8FB0546002863D1009B002B4BD0F0
:108130005B69002B48D006A8FFF7D6FB009B5C6963
:108140006378022B04D1211D06A8FEF71FF826E054
:108150000A2B24D11122294601A801F043F8A36873
:10816000002B38D004F108030DF1040C1834186802
:108170005968624603C20833A3429446F7D10623E6
:1081800001A90CA88DF81430FFF7BCFB0DF1340CDD
:10819000BCE80F0007AC0FC4DCF80030237006A861
:1081A000FFF7C2FB80B1336807ADD3F82090124BC4
:1081B0000C930FCD0DAC0FC42B6823703A46434689
:1081C0000CA93046C84705460098FDF78BFB2846AA
:1081D00013B0BDE8F083E368002BC3D14FF6FF7006
:1081E000D4F81090FDF760FC8145BBD104F1140177
:1081F000AAE72546E8E700BFB8B40D0000224068B2
:108200001146FDF7FDBD002240681146FDF718BE7E
:10821000002240681146FDF723BE40680022FDF7AA
:1082200017BE4068002281F00101FDF701BE002366
:1082300040681A461946FDF7F3BD00224068114612
:10824000FDF7CEBD406800220221FDF7D1BD00231D
:1082500040681A46FDF7BCBD024B04225A60024A30
:108260001A607047C4E70320D4B50D0000234068AE
:108270001A46FDF7ADBD406800220221FDF7B8BDEA
:10828000002240681146FDF7ABBD00224068114650
:10829000FDF7B6BD002340681A461946FDF7B8BD84
:1082A000002340681A461946FDF7BABD4068002110
:1082B000FDF7DEBD40680021FDF7E2BD4068002209
:1082C00081F00101FDF7B4BD40680022FDF7C0BD9B
:1082D000002240681146FDF7C3BD002240681146E8
:1082E000FDF7AEBD2DE9F043002495B016460D46CE
:1082F0000746FFF7F9FA214618220EA8009400F06D
:1083000071FF4023CDE90C3421466B460CAA304660
:10831000FDF7F0FA044600284CD1024601216868B6
:10832000FDF76EFD0221804622466868FDF768FD74
:10833000009E81462146002E3CD000293AD1736828
:10834000022B03D00A2B11D0F669F4E7B8F1000F25
:108350000AD0716906A8043107ADFFF709FB0FCDFC
:108360003C1D0FC42B6823704146EDE7B9F1000FA7
:1083700001D14946E8E77469102201A800F032FFF4
:1083800006238DF8143001AD04F108031834186881
:1083900059682A4603C20833A3421546F7D101A9FA
:1083A00006A807ADFFF7AEFA0FCD3C1D0FC42B6832
:1083B0002370DEE70098FDF795FA384615B0BDE862
:1083C000F0830000024B034A1A6000225A60704793
:1083D000CCE7032010B60D00232813B502D90020E6
:1083E00002B010BDA0F10B03022B1AD8174C217854
:1083F000BFF35B8F11F001010BD120460191FBF718
:1084000050FE019928B11248FDF7CEFD2046FBF73A
:108410004DFE0F4B1878FDF74FFC0028DFD10120EF
:10842000DEE7012809D800F03FF80021007CFDF7C5
:10843000CBFB80F00100C0B2D2E709380128EED8AA
:10844000FFF780FB007CFDF76FFBF2E734E60320CB
:1084500038E60320232838B504460D460AD8FF29FC
:1084600008D0FFF7B9FF28B129462046BDE83840BB
:10847000FDF750BA38BD000038B5002320254380F1
:10848000142304460380856005610649284600F0F0
:108490003AF804496060284600F035F8E06020466C
:1084A00038BD00BF44B60D0030B50F4D2978BFF37D
:1084B0005B8F11F0010487B013D12846FBF7F1FD63
:1084C00078B101A8FFF7D8FF01AA21460748FFF7B6
:1084D0008FFB2846FBF7EAFD054A0649034800F0F2
:1084E0000BF8024807B030BDD8E70320DCE70320D3
:1084F000C4550320997B0D000B460146184600F039
:108500002DBEFBF7CCBDFBF7C8BD08B5FDF7E8FCF9
:10851000014900F0F9B800BF60B60D007FB5002436
:108520001023CDE90234036800949E698DF804405D
:1085300015466B461268B0479DF8043003F00603F9
:10854000062B03BF009B2B600120204604B070BDAA
:108550000098904214BF01200620704710B5034BCD
:108560000360044600F0CDF8204610BDA0B60D0013
:1085700010B50446FFF7F2FF20460821FFF7C1FFC0
:10858000204610BD2DE9F0411F46DDE90834DDF835
:10859000188098450646154607D1079900F0B4F8AB
:1085A00018B165710020BDE8F0813946304600F011
:1085B000ABF80028F6D00123C4F800802571A37120
:1085C000F0E738B515461C4600F09EF820B10823A8
:1085D000E36006232560237138BD73B505460C465C
:1085E00001921E4600F090F850B9032E08D8236877
:1085F000019A5B692946204602B0BDE870401847E1
:1086000002B070BD10B5034B03600446FFF7A6FF30
:10861000204610BD00B70D0010B50446FFF7F2FF6D
:1086200020460C21FFF76DFF204610BDF7B5089FCF
:10863000974205460E4614460AD0A8680268089775
:10864000156A31462246AC4603B0BDE8F0406047AB
:108650001946019300F058F8019B0028EDD0062040
:1086600003B0F0BD2DE9F14F0D461946DDE90A4B87
:10867000DDE90CA681461746984600F045F890B112
:10868000002D3460377109DB61198A450CBF062162
:108690000121B171002001B0BDE8F08F0235F9D1A0
:1086A0000123B371F6E7544506D15946484600F018
:1086B0002BF808B17771EDE7D9F808000368CDE928
:1086C0000CA6CDE90A4BDC693A4643462946A44646
:1086D00001B0BDE8F04F60472DE9F04107460C4678
:1086E00015461E46FFF76DFF48B9B86803689F69D5
:1086F0002A4633462146BC46BDE8F0416047BDE806
:10870000F081704700207047814208B50ED0406864
:1087100003782A2B0CD049680B782A2B08BF01312B
:1087200000F08CFDB0FA80F0400908BD0120FCE7A4
:108730000020FAE781F0004102E000BF83F000432F
:1087400030B54FEA41044FEA430594EA050F08BFEC
:1087500090EA020F1FBF54EA000C55EA020C7FEAB0
:10876000645C7FEA655C00F0E2804FEA5454D4EB2D
:108770005555B8BF6D420CDD2C4480EA020281EAF7
:10878000030382EA000083EA010180EA020281EA2F
:108790000303362D88BF30BD11F0004F4FEA013181
:1087A0004FF4801C4CEA113102D0404261EB410190
:1087B00013F0004F4FEA03334CEA133302D0524216
:1087C00063EB430394EA050F00F0A780A4F10104D2
:1087D000D5F1200E0DDB02FA0EFC22FA05F280180C
:1087E00041F1000103FA0EF2801843FA05F35941F2
:1087F0000EE0A5F120050EF1200E012A03FA0EFC71
:1088000028BF4CF0020C43FA05F3C01851EBE3719A
:1088100001F0004507D54FF0000EDCF1000C7EEBB7
:1088200000006EEB0101B1F5801F1BD3B1F5001FF5
:108830000CD349085FEA30004FEA3C0C04F1010414
:108840004FEA445212F5800F80F09A80BCF1004F3D
:1088500008BF5FEA500C50F1000041EB045141EABF
:10886000050130BD5FEA4C0C404141EB0101013C88
:1088700028BFB1F5801FE9D291F0000F04BF014677
:108880000020B1FA81F308BF2033A3F10B03B3F149
:1088900020020CDA0C3208DD02F1140CC2F10C02D9
:1088A00001FA0CF021FA02F10CE002F11402D8BF37
:1088B000C2F1200C01FA02F120FA0CFCDCBF41EA03
:1088C0000C019040E41AA2BF01EB0451294330BDD2
:1088D0006FEA04041F3C1CDA0C340EDC04F11404AF
:1088E000C4F1200220FA04F001FA02F340EA030086
:1088F00021FA04F345EA030130BDC4F10C04C4F1CC
:10890000200220FA02F001FA04F340EA03002946AB
:1089100030BD21FA04F0294630BD94F0000F83F4F5
:10892000801306BF81F480110134013D4EE77FEAD8
:10893000645C18BF7FEA655C29D094EA050F08BF24
:1089400090EA020F05D054EA000C04BF1946104605
:1089500030BD91EA030F1EBF0021002030BD5FEA49
:10896000545C05D14000494128BF41F0004130BD71
:1089700014F580043CBF01F5801130BD01F00045C5
:1089800045F0FE4141F470014FF0000030BD7FEA38
:10899000645C1ABF194610467FEA655C1CBF0B4633
:1089A000024650EA013406BF52EA033591EA030F4A
:1089B00041F4002130BD00BF90F0000F04BF002142
:1089C000704730B54FF4806404F132044FF0000575
:1089D0004FF0000150E700BF90F0000F04BF0021EE
:1089E000704730B54FF4806404F1320410F0004554
:1089F00048BF40424FF000013EE700BF42004FEA4F
:108A0000E2014FEA31014FEA02701FBF12F07F43CB
:108A100093F07F4F81F06051704732F07F4208BF82
:108A2000704793F07F4F04BF41F40021704730B589
:108A30004FF4607401F0004521F000411CE700BFD5
:108A400050EA010208BF704730B54FF000050AE058
:108A500050EA010208BF704730B511F0004502D559
:108A6000404261EB41014FF4806404F132045FEA5B
:108A7000915C3FF4D8AE4FF003025FEADC0C18BF04
:108A800003325FEADC0C18BF033202EBDC02C2F1F6
:108A9000200300FA03FC20FA02F001FA03FE40EA88
:108AA0000E0021FA02F11444BDE600BF70B54FF08C
:108AB000FF0C4CF4E06C1CEA11541DBF1CEA13556A
:108AC00094EA0C0F95EA0C0F00F0DEF82C4481EAD2
:108AD000030621EA4C5123EA4C5350EA013518BFF2
:108AE00052EA033541F4801143F4801338D0A0FBDF
:108AF00002CE4FF00005E1FB02E506F00042E0FB8C
:108B000003E54FF00006E1FB03569CF0000F18BF91
:108B10004EF0010EA4F1FF04B6F5007F64F5407439
:108B200004D25FEA4E0E6D4146EB060642EAC621CC
:108B300041EA55514FEAC52040EA5E504FEACE2E39
:108B4000B4F1FD0C88BFBCF5E06F1ED8BEF1004F3C
:108B500008BF5FEA500E50F1000041EB045170BDB8
:108B600006F0004646EA010140EA020081EA0301FC
:108B7000B4EB5C04C2BFD4EB0C0541EA045170BDF8
:108B800041F480114FF0000E013C00F3AB8014F172
:108B9000360FDEBF002001F0004170BDC4F10004BB
:108BA000203C35DA0C341BDC04F11404C4F120053C
:108BB00000FA05F320FA04F001FA05F240EA020097
:108BC00001F0004221F0004110EBD37021FA04F6CD
:108BD00042EB06015EEA430E08BF20EAD37070BD87
:108BE000C4F10C04C4F1200500FA04F320FA05F0E6
:108BF00001FA04F240EA020001F0004110EBD370E8
:108C000041F100015EEA430E08BF20EAD37070BD57
:108C1000C4F1200500FA05F24EEA020E20FA04F330
:108C200001FA05F243EA020321FA04F001F00041DF
:108C300021FA04F220EA020000EBD3705EEA430E50
:108C400008BF20EAD37070BD94F0000F0FD101F07F
:108C50000046400041EB010111F4801F08BF013CB8
:108C6000F7D041EA060195F0000F18BF704703F0F6
:108C70000046520043EB030313F4801F08BF013D7D
:108C8000F7D043EA0603704794EA0C0F0CEA135539
:108C900018BF95EA0C0F0CD050EA410618BF52EAF3
:108CA0004306D1D181EA030101F000414FF00000F9
:108CB00070BD50EA410606BF1046194652EA430607
:108CC00019D094EA0C0F02D150EA013613D195EA7B
:108CD0000C0F05D152EA03361CBF104619460AD1C3
:108CE00081EA030101F0004141F0FE4141F47001CD
:108CF0004FF0000070BD41F0FE4141F4780170BDBD
:108D000070B54FF0FF0C4CF4E06C1CEA11541DBF21
:108D10001CEA135594EA0C0F95EA0C0F00F0A7F823
:108D2000A4EB050481EA030E52EA03354FEA013150
:108D300000F088804FEA03334FF0805545EA131363
:108D400043EA12634FEA022245EA111545EA10652B
:108D50004FEA00260EF000419D4208BF964244F1C2
:108D6000FD0404F5407402D25B084FEA3202B61AE1
:108D700065EB03055B084FEA32024FF480104FF4B5
:108D8000002CB6EB020E75EB030E22BFB61A754629
:108D900040EA0C005B084FEA3202B6EB020E75EBBC
:108DA000030E22BFB61A754640EA5C005B084FEA24
:108DB0003202B6EB020E75EB030E22BFB61A7546F1
:108DC00040EA9C005B084FEA3202B6EB020E75EBFC
:108DD000030E22BFB61A754640EADC0055EA060EBD
:108DE00018D04FEA051545EA16754FEA06164FEA00
:108DF000C30343EA52734FEAC2025FEA1C1CC0D1AC
:108E000011F4801F0BD141EA00014FF000004FF038
:108E1000004CB6E711F4801F04BF01430020B4F1F9
:108E2000FD0C88BFBCF5E06F3FF6AFAEB5EB030CB1
:108E300004BFB6EB020C5FEA500C50F1000041EBAE
:108E4000045170BD0EF0004E4EEA113114EB5C047B
:108E5000C2BFD4EB0C0541EA045170BD41F480114E
:108E60004FF0000E013C90E645EA060E8DE60CEA56
:108E7000135594EA0C0F08BF95EA0C0F3FF43BAF73
:108E800094EA0C0F0AD150EA01347FF434AF95EA2A
:108E90000C0F7FF425AF104619462CE795EA0C0F0E
:108EA00006D152EA03353FF4FDAE1046194622E7DB
:108EB00050EA410618BF52EA43067FF4C5AE50EAB5
:108EC00041047FF40DAF52EA43057FF4EBAE12E7A5
:108ED0004FF0FF3C06E000BF4FF0010C02E000BF86
:108EE0004FF0010C4DF804CD4FEA410C7FEA6C5C69
:108EF0004FEA430C18BF7FEA6C5C1BD001B050EA0C
:108F0000410C0CBF52EA430C91EA030F02BF90EAF6
:108F1000020F0020704710F1000F91EA030F58BFB5
:108F2000994208BF90422CBFD8176FEAE37040F017
:108F3000010070474FEA410C7FEA6C5C02D150EAB5
:108F4000013C07D14FEA430C7FEA6C5CD6D152EA70
:108F5000033CD3D05DF8040B704700BF8446104635
:108F600062468C461946634600E000BF01B5FFF734
:108F7000B7FF002848BF10F1000F01BD4DF808ED04
:108F8000FFF7F4FF0CBF012000205DF808FB00BFD5
:108F90004DF808EDFFF7EAFF34BF012000205DF82F
:108FA00008FB00BF4DF808EDFFF7E0FF94BF01207C
:108FB00000205DF808FB00BF4DF808EDFFF7CEFF7D
:108FC00094BF012000205DF808FB00BF4DF808EDBC
:108FD000FFF7C4FF34BF012000205DF808FB00BF8D
:108FE0004FEA410212F5001215D211D56FF47873D1
:108FF000B3EB625212D94FEAC12343F0004343EA74
:10900000505311F0004F23FA02F018BF404270474E
:109010004FF00000704750EA013005D111F00040D8
:1090200008BF6FF0004070474FF00000704700BF6E
:109030004A0011D212F5001211D20DD56FF47873D7
:10904000B3EB62520ED44FEAC12343F0004343EA2C
:10905000505323FA02F070474FF00000704750EA77
:10906000013002D14FF0FF3070474FF000007047E1
:109070004FEA4102B2F1E04324BFB3F5001CDCF13A
:10908000FE5C0DD901F0004C4FEAC0024CEA507072
:10909000B2F1004F40EB830008BF20F001007047A1
:1090A00011F0804F21D113F13872BCBF01F00040A4
:1090B000704741F480114FEA5252C2F11802C2F1D6
:1090C000200C10FA0CF320FA02F018BF40F0010057
:1090D0004FEAC1234FEAD32303FA0CFC40EA0C0009
:1090E00023FA02F34FEA4303CCE77FEA625307D146
:1090F00050EA01331EBF4FF0FE4040F4400070477D
:1091000001F0004040F0FE4040F40000704700BF16
:10911000D0B50C4B002206460F46FFF7C7FCFFF701
:1091200087FF0446FFF748FC074B0022FFF7BEFC11
:1091300002460B4630463946FFF700FBFFF778FF43
:109140002146D0BD0000F03D0000F041002100F0BC
:10915000EDBE0A22002100F06FBF000010B5054CE3
:1091600013462CB10A4601460220AFF3008010BD21
:109170002046FCE70000000030B501390024A2427F
:1091800001D1002005E0035D01340D5DAB42F6D056
:10919000581B30BD0A44914200F1FF3300D17047A3
:1091A00010B511F8014B03F8014F9142F9D110BDF0
:1091B000884210B501EB020402D98442234607D845
:1091C000431EA14208D011F8012B03F8012FF8E744
:1091D000024401468A4200D110BD13F8014D02F845
:1091E000014DF7E702440346934200D1704703F86C
:1091F000011BF9E738B50D4B1D68AB6B04467BB915
:109200001820FCF74DFE0A4A0A4BA863C0E9002368
:10921000094B83600B23838101220023C0E90423CF
:10922000AB6B00221C615A6138BD00BFF0530320B4
:109230000E33CDAB34126DE6ECDE050010F8012BD9
:1092400011F8013B012A28BF9A42F7D0D01A704783
:10925000034611F8012B03F8012B002AF9D17047BE
:10926000034613F8012B002AFBD1181A0138704766
:1092700010B56AB10139841810F8013B11F8012FBB
:10928000934203D1A04201D0002BF5D1981A10BD12
:109290001046FCE710B5024601448A42134601D14C
:1092A000181A10BD1C780132002CF6D1F8E7F0B581
:1092B0000C7864B103461A7818465E1C0AB9104649
:1092C00005E0944208D10D4615F8012F02B9F0BD12
:1092D00013F8017F9742F7D03346ECE770B50446A8
:1092E0000D4645EC104B164601F01CFD51EC100BE1
:1092F0007EB1C5F30A53C3F16B03002B09DD1B05D7
:1093000003F17F55002405F5401522462B46FFF753
:10931000CDFB70BD000000002DE9F04FA3B01F464B
:1093200000231E93A44B19921B680793044618460A
:109330008846FFF795FF4FF0000A05464FF0000BF7
:10934000CDF874801D9B1A782B2A4CD039D80D2A61
:1093500032D8082A32D8002A3CD000230E931D9E12
:109360003378302B40F0B480737803F0DF03582B50
:109370006CD10E9B01931EAB029700938F4A1FABDB
:109380001DA9204600F0CAFE10F00707054605D0CB
:10939000062F2AD1013600231D960E93199B002B10
:1093A00040F096850E9BDBB152460BF1004343EC37
:1093B000102B23B0BDE8F08F202ACED101331D93AE
:1093C000C0E72D2AC9D101220E925A1C1D925B784A
:1093D000002BC4D1199BCDF87480002B40F076850A
:1093E00052465B46E3E70022EEE71E9A3AB135218A
:1093F00020A801F096FD1E99204601F0CBF9013F0F
:10940000052F07D8DFE807F00E0B181D0E034FF0ED
:10941000000BDA462807C1D54BF0004BBEE7DDE96B
:1094200020ABF7E7DDE920A31F9A23F4801302F2B3
:10943000334243EA025BEDE7DFF884B14FF0000A04
:10944000E8E76FF0004B4FF0FF3AE3E71D9B5A1C33
:109450001D925B78302BF9D0002B9FD001234FF069
:10946000000904931D9B0A93CDF824904F460A22CD
:109470001D980678A6F13003D9B209292AD907998F
:109480002A46FFF7F5FE98B3002033463D46079085
:109490000246652B01D0452B18D11DB9049B03430F
:1094A00098D00025DDF8748008F101031D9398F829
:1094B00001302B2B75D02D2B7BD04FF0000CA3F15E
:1094C0003001092940F28280CDF8748000269DE0A9
:1094D0000023C4E7082FD8BF099900F10100DABFC3
:1094E00002FB0133099302FB093901371D90BFE7E5
:1094F0001D9B5A191D925B5D002F37D007903D468A
:10950000A3F13002092A12D90122C2E71D9B5A1C7D
:109510001D925B780130302BF8D0A3F13102082A7C
:1095200000F2DB841D9A079000200A920546303B2A
:1095300000F1010214D00799114407912A4600EB6B
:10954000050E0A21724513D12A18082A05F10105D2
:1095500005441CDC09990A2202FB0133099300220D
:109560001D9B591C1D915B781046C9E73846D2E710
:10957000082A04DC099E4E4309960132E2E702F113
:10958000010CBCF1100FD8BF01FB09F9F5E7102D54
:10959000DCBF0A2202FB0939E1E70023079301221D
:1095A0007CE74FF0000C08F102031D9398F802309D
:1095B00085E74FF0010CF6E79CB80D0048B70D00A9
:1095C0000000F07F1D9B591C1D915B78302BF9D05A
:1095D000A3F1310108293FF679AFA3F1300E1D9BAD
:1095E00008931D9B591C1D915B78A3F13006092E31
:1095F00037D9089E891B082944F61F6602DC764588
:10960000A8BF7646BCF1000F00D07642002D4FD1A6
:10961000049901437FF4C2AE002A7FF4DBAE692BCC
:1096200027D024DC492B24D04E2B7FF4D3AE9E4987
:109630001DA800F0B9FF00283FF4CCAE1D9B1B789D
:10964000282B2DD1994920AA1DA800F0C1FF05287B
:1096500026D1219BDDF880A043F0FF4B4BF4E00BBB
:109660009CE60A2101FB0E3EAEF1300EB9E76E2BEF
:10967000DBE78F491DA800F097FF00283FF4AAAE52
:109680001D9B8C49013B1DA81D9300F08DFF10B957
:109690001D9B01331D93DFF82CB24FF0000A7DE6CD
:1096A000854801F091FC8DED040BDDE904AB75E616
:1096B000079B0998F31A002F08BF2F46102D089317
:1096C000A846A8BF4FF01008FFF776F9092D82468B
:1096D0008B4613DD794B03EBC80353E91223FFF7E5
:1096E000E5F9824648468B46FFF766F902460B4687
:1096F00050465946FFF724F882468B460F2D38DC3A
:10970000089B002B3FF44AAE24DD162B0BDC6B4D7F
:1097100005EBC305D5E9000152465B46FFF7C6F9E4
:1097200082468B463AE6089AC5F12503934220DB30
:10973000624CC5F10F0504EBC50152465B46D1E909
:109740000001FFF7B3F9089B5D1B04EBC504D4E9E6
:109750000023E3E7089B16330BDB079B574A9E1B4E
:1097600002EBC606D6E9002350465946FFF7C8FA71
:10977000D6E7089BA5EB08089844B8F1000F71DD07
:1097800018F00F030AD04D4901EBC30152465B4666
:10979000D1E90001FFF78AF982468B4638F00F08BD
:1097A0004DD0B8F59A7F22DD00252E460995079504
:1097B0002223DFF810B123604FF0000A099B002B31
:1097C0003FF4ECAD1E99204600F0E4FF07992046D7
:1097D00000F0E0FF3146204600F0DCFF099920460A
:1097E00000F0D8FF2946204600F0D4FFD6E500233C
:1097F0004FEA2818504659469946B8F1010F21DC26
:109800000BB182468B462E4BABF1547B03EBC9095F
:1098100052465B46D9E90001FFF748F9294B0A4651
:109820000B4029498B428246BED8A1F580118B425C
:1098300086BFDFF898B04FF0FF3A02F1547B002367
:10984000049381E018F0010F07D01D4B03EBC9030F
:10985000D3E90023FFF72AF9012309F101094FEAAF
:109860006808CAE7EBD0C8F1000818F00F020AD068
:10987000124B03EBC20350465946D3E90023FFF7CE
:109880003FFA82468B465FEA2818D8D0B8F11F0FFE
:109890001EDD00252E460995079522234FF0000A6C
:1098A0004FF0000B236089E742B70D005CB70D0055
:1098B00039B70D003CB70D0095B20D00D8B80D00BA
:1098C000B0B80D000000F07F0000A07CFFFFEF7F2C
:1098D00018F0100318BF6A23DFF8B49304935046BE
:1098E0005946002318F0010F04D0D9E90023FFF7EF
:1098F000DDF801235FEA680809F10809F2D10BB12C
:1099000082468B46049BBBB1CBF30A53C3F16B0376
:10991000002B594610DD1F2B40F32881342BDEBF6E
:10992000203B4FF0FF3202FA03F34FF0000ACCBFA6
:109930004FF05C7B03EA010B00220023504659469E
:10994000FFF71CFB0028A4D1099B00930A992B4622
:109950003A46204600F073FF099000283FF424AFF8
:10996000079B9E1B089B002BB4BF3346002310931C
:10997000089B002523EAE37318932E46099B204693
:10998000596800F0D3FE079000283FF411AF099BFF
:109990001A69023203F10C0192000C30FFF7FAFB56
:1099A0004BEC10AB20AA1FA92046CDE90AAB01F071
:1099B00035FA1E9000283FF4FBAE0121204600F04E
:1099C000CCFF064600283FF4F3AE1F9B0499002B02
:1099D000ABBF109A189A189FDDF84090ACBF03EB0C
:1099E0000209D71A209AA3EB01089044A34B08F16F
:1099F000FF389845C2F1360280F2CC80A3EB080311
:109A00001F2BA2EB03024FF0010100F3B68001FA15
:109A100003F3119300230C9309EB0208049BC14547
:109A200017441F444B46A8BF4346BB42A8BF3B4612
:109A3000002BC2BFA8EB0308FF1AA9EB0309109B78
:109A4000002B17DD31461A46204601F02BF806465A
:109A500000283FF4ADAE01461E9A204600F086FF76
:109A60000F9000283FF4A4AE1E99204600F092FE0D
:109A70000F9B1E93B8F1000F00F39180089B002B01
:109A800008DD189A0799204601F00CF80790002885
:109A90003FF48EAE002F08DD07993A46204601F0CC
:109AA0004FF8079000283FF483AEB9F1000F08DDAE
:109AB00031464A46204601F043F8064600283FF466
:109AC00077AE079A1E99204601F0B5F805460028A2
:109AD0003FF46EAEC3680F930023C360314601F0BC
