:02000002D0002C
:1040000000400D00D4BE0D00000006000C000501AC
:084010000401BD0B00000000DB
:04401800B4B00D0033
:1040200009480A49884208B505D0094A824202D0A7
:10403000121A05F0F7F80748074A0021121A05F08E
:1040400019F9014808BD00BF80530320C4BC0D000E
:104050006855032068550320F0E7032070B5074E2C
:10406000074C03F059FCA41BA4080025A54200D16D
:1040700070BD56F8043B98470135F7E78CBC0D003E
:10408000B4BC0D0000F08CBA08B500F0DDFBBDE853
:10409000084003F003BC01F0D9BF01F0D7BF01F025
:1040A000DDBF0078B0FA80F040097047012303704B
:1040B000704710B50446043002F0D5F8204610BD14
:1040C00010B504463C3002F0CEF804F1280002F0AE
:1040D000CAF8204602F0C7F8204610BD10B5034BC1
:1040E0000360044601F0F8F8204610BD54B30D00FB
:1040F00010B50446FFF7F2FF204646F2BC5104F02B
:1041000048FA204610BDF8B50C1E074616460CDAD4
:104110000A2A0AD12D2103F031FB61420546F2B291
:10412000384603F04AFB2844F8BD21460025F6E74F
:1041300038B584690A4B036005467CB16368013B6E
:1041400063605BB9236820469B689847A368013B7E
:10415000A3601BB923682046DB689847284638BD12
:1041600068B80D000368C9B29B6818472DE9FF4184
:10417000464C80460E466846454902F0BFF8236823
:10418000012B7ADC0027013EBE420AD918F807103D
:10419000684602F007F9009805F023F80137054654
:1041A000F2E72368002B04DC3A493B48002202F086
:1041B000BBFC04F0C1F9394E236856F8231003F014
:1041C000E3FD04F0B9F93321FFF7CCFF04F0B4F9B3
:1041D00003F0E1FD2368002B17DD013B013D56F89C
:1041E00023202F4B43F8252004F0A6F92368013B38
:1041F00056F8231003F0C8FD04F09EF93421FFF7B0
:10420000B1FF04F099F903F0C6FD2368012B34D106
:10421000234D4FF47A7003F007FB03F099FC21491A
:1042200003F0C1FA03F094FC0A222968FFF76BFF40
:1042300003F08EFC1C4903F09DFA04F07DF9296817
:1042400003F0A2FD04F078F93321FFF78BFF04F0AF
:1042500073F903F0A0FD4FF4FA6003F0E5FA04F0FF
:104260006BF9296803F090FD04F066F93421FFF73B
:1042700079FF04F061F903F08EFD2368684601338D
:10428000236001F0F0FF04B0BDE8F081AC550320DD
:1042900049B50D00C8B00D0038E60320A85503202D
:1042A00030E6032038B10D0044B10D002DE9F04F88
:1042B000A44EDFF8B0928FB037463368012B00F080
:1042C00008810023DFF8A0A2DFF8A0823360082471
:1042D00003F03EFC494605460AA802F00FF80A2200
:1042E000214606A802F030F806A90AA802F067F8ED
:1042F0000168284603F057FA06A801F0B4FF0AA89F
:1043000001F0B1FF04F018F9214603F03DFD04F07F
:1043100013F93121FFF726FF5FFA84FB04F00CF953
:1043200003F039FD04F008F91822594603F025FD81
:1043300004F002F903681B699847002840F3C48021
:1043400003F006FC514605460AA801F0D7FF0A22F1
:10435000214606A801F0F8FF06A90AA802F02FF8E6
:104360000168284603F01FFA06A801F07CFF0AA89E
:1043700001F079FF3B684146013302A83B6001F040
:10438000BDFF182504F0D8F803685B699847C1B2EF
:1043900002A802F007F8013DF4D104F0CDF821465F
:1043A00003F0F2FC04F0C8F80299054649B108464A
:1043B000019104F09DFF2B680199DB6802462846B5
:1043C000984703F0C5FB604905460AA801F096FF2F
:1043D00002A90AA801F0F3FF0168284603F0E3F9F7
:1043E0000AA801F040FF04F0A7F803F0D4FC03F0A2
:1043F000AFFB564905460AA801F080FF0A22214674
:1044000006A801F0A1FF06A90AA801F0D8FF0168DB
:10441000284603F0C8F906A801F025FF0AA801F014
:1044200022FF04F089F8214603F0AEFC04F084F882
:104430003221FFF797FE04F07FF803F0ACFC03F0A5
:1044400087FB434905460AA801F058FF0A22214686
:1044500006A801F079FF06A90AA801F0B0FF0168DB
:10446000284603F0A0F906A801F0FDFE0AA801F015
:10447000FAFE04F061F80422594603F07EFC41463E
:1044800002A801F04FFF042504F056F803685B69A9
:104490009847C1B202A801F085FF013DF4D103F0B5
:1044A00057FB2C4905460AA801F028FF02A90AA8D3
:1044B00001F085FF0168284603F075F90AA801F0AC
:1044C000D2FE02A801F0CFFE0134782C7FF400AFB9
:1044D000F3E603F03DFB2049204E214F03F063F942
:1044E0000824002504F028F8214603F04DFC04F0D0
:1044F00023F83121FFF736FE04F01EF803F04BFCE1
:1045000004F01AF81822E1B203F037FC04F014F8B2
:1045100003681B69984700280DDD03F019FB0A2288
:104520002146FFF7F0FD03F013FB314603F022F9BB
:1045300047F8254001350134782CD3D10FB0BDE8C0
:10454000F08F00BF34E603207FB10D008BB10D006A
:10455000A2B10D00BCB10D00D4B10D0044B10D00ED
:10456000A855032047B10D0062B10D0049B50D00FB
:1045700038B500234FF400754380142304460380AC
:10458000856005610549284604F005F80349606027
:10459000284604F000F8E060204638BD24B90D003C
:1045A00010B596B003F0D4FA4FF4165103F0C4FAE4
:1045B0004FF4FA6003F038F902F070FB02F0BCFB34
:1045C00002F06CFB294A01460DA802F08FFF0DA8EE
:1045D00002F033FC02F062FB254A01460DA802F00E
:1045E00085FF0DA802F029FC0DA802F0D6F921499B
:1045F00003A802F0D5F803A908A802F0D1F808A88A
:1046000002F014F9044608A844BB02F02EF9009405
:10461000ADF80A0002230DF10A0203210DA802F0F1
:10462000B1F902F03BFB00220DA902F0A5FB124CF0
:1046300008A8FFF79DFF03F07FFF03F06FFBFFF774
:1046400035FE0E49204601F06DFE50230C49A36350
:1046500004F1280001F066FE16B010BD02F00AF960
:1046600000230093024610230721D7E738E60320F2
:1046700028E603206C550320C8E50320E4B10D00B3
:10468000FCB10D00F0B5164691B00022C0E9002241
:1046900004460D460BAF194606A802F081F816999C
:1046A000384602F07DF833788DF81430189B029369
:1046B000179B2046CDE9007305AA06AB294602F0F8
:1046C000F3FD204611B0F0BD2DE9F043464EDFF872
:1046D0007081464C4649DFF86C91464F91B03046A8
:1046E00002F044F94449404602F040F9434920466B
:1046F00002F03CF91023214606A88DF8143002F090
:104700004FF831460BA802F04BF83D4C3D490025CF
:104710000BABCDE90155009305AA06AB4846FFF760
:10472000B1FF22463946484603F02EFF0423414696
:1047300006A88DF8143002F033F831460BA802F0C9
:104740002FF8314E314B01930BAB0295009305AA24
:1047500006AB2F492F4D3046FFF794FF30462E4EC3
:104760002246394603F010FF3146284601F0C6FDC7
:1047700005F1100003F03CF9314605F1280001F085
:10478000BDFD314605F13C0001F0B8FD2846234D42
:104790002349224603F0F8FE3146281D01F0AEFD04
:1047A0002846204D2049224603F0EEFE284600F020
:1047B00009FB22461D4928461D4D03F0E5FE4FF436
:1047C0007A73009305F12C011A4B42F210722846BD
:1047D00000F0DAFD184B19492B602246284603F0F9
:1047E000D3FE11B0BDE8F0836C550320945503202F
:1047F00052B20D003B6E0D0077B20D009CB20D0061
:1048000068550320C1B20D0028E603206D410D005C
:10481000C4B20D00C8E5032049B50D0014E603201D
:10482000C1400D00D0560320B3400D0031410D00B2
:10483000EC7E032028A6032054B30D00DD400D00BC
:104840008055032038E603202DE9F04FAC4D9BB096
:104850004FF0000AAB4EAC49301D01F063FDAB4B8D
:10486000AB49AC4800933246AB4B00F023FB03F05E
:104870006FF9AA4902F097FF03F06AF9716802F034
:1048800092FF284600F076FD71680391084604F017
:104890002FFD03990246284600F04FFD284601F0FF
:1048A00011F948B903F054F99D4902F07CFF03F077
:1048B0004FF9716802F077FF4FF0000B294608A806
:1048C00000F072FD974A08A90BA800F0EFFE964A87
:1048D0000BA90EA800F0EAFE00220EA912A800F013
:1048E000D3FD924A12A916A800F0E0FE5A4616A976
:1048F00005A800F0C9FD16A800F0CEFC12A800F033
:10490000CBFC0EA800F0C8FC0BA800F0C5FC08A862
:1049100000F0C2FC864A05A916A800F0C7FE16A939
:104920000EA800F0DDFE16A800F0B6FC814A05A92D
:1049300016A800F0BBFE16A912A800F0D1FE16A81A
:1049400000F0AAFC7C4A05A90BA800F0AFFE0BA959
:1049500016A800F0C5FE16A801F08AFD16A810EEF4
:10496000106A01F080FC0BA800F096FC734A05A9C0
:104970000BA800F09BFE0BA916A800F0B1FE16A82C
:1049800001F076FD16A810EE108A01F06CFC0BA861
:1049900000F082FC109B012B40F29281304604F023
:1049A00075F806460F46BAF1000F40F0D58046A3D1
:1049B000D3E9002304F034FB002842D044A3D3E918
:1049C00000233046394604F049FB002839D040A383
:1049D000D3E900233046394603F0F8FE584B002255
:1049E00004F0ACF83CA3D3E9002304F0D1F9554B13
:1049F000002203F0EDFE04F03BFB04460126524981
:104A000012A801F0E8FC002851D0002E4FD04F4BE7
:104A1000012243F8242003F09BF80A22064621468F
:104A2000FFF771FB304602F0B2FE12A801F01BFC4A
:104A30000EA801F018FC05A80BF1010B00F02CFCEE
:104A40003CE721A3D3E900233046394604F006FBB6
:104A500058B3404604F01AF821A3D3E90023804656
:104A6000894604F0DDFA00B31FA3D3E900233046E2
:104A7000394604F0D5FAC0B11DA3D3E9002340465E
:104A8000494603F0A5FE324B002204F057F81AA362
:104A9000D3E9002304F07CF92A4B002203F098FEAE
:104AA00004F0E6FA00F13704A8E70646A7E729492B
:104AB00012A801F090FC0028B7D0002EB5D0234BEF
:104AC0000522A6E7AFF300804260E5D022F3444020
:104AD0002060ADDA35ED4440008800E0D8B3A73F50
:104AE00074081C0934E855C02D78D15790F444401F
:104AF00074081C0934E8554000B0BB40498195BF9B
:104B0000EC7E032014E6032049B50D00C7B20D006A
:104B1000C8E50320D056032080530320CBB20D00FC
:104B200008B30D001CB30D0022B30D0028B30D0017
:104B30002EB30D0038B30D003DB30D0041B30D0091
:104B400000804B400000E03F45B30D00A8E4032087
:104B50000000314047B30D00404603F097FF8FA39C
:104B6000D3E90023804689463046394604F058FA96
:104B700000283CD06EA3D3E900234046494604F008
:104B80004FFA002833D087A3D3E900234046494693
:104B900004F064FA58B385A3D3E90023404649469C
:104BA00003F016FE744B002203F0C8FF5EA3D3E9A6
:104BB000002304F0EDF8714B002203F009FE04F02D
:104BC00057FA044601266E4912A801F004FC08B108
:104BD000002E70D16B4912A801F0FDFB00283FF4B4
:104BE00024AF002E3FF421AF674B052265E050A3B0
:104BF000D3E900234046494604F030FA40B34EA3BF
:104C0000D3E900233046394604F00AFA00B34CA336
:104C1000D3E900233046394604F020FAC0B148A356
:104C2000D3E900233046394603F0D0FD574B00222C
:104C300003F084FF44A3D3E9002304F0A9F84F4B09
:104C4000002203F0C5FD04F013FA00F11704B9E7E0
:104C50003FA3D3E900233046394604F0FFF940B3BF
:104C60003DA3D3E900234046494604F0D9F900B3F7
:104C70003BA3D3E900234046494604F0EFF9C0B115
:104C800039A3D3E900234046494603F0A1FD404B38
:104C9000002203F053FF36A3D3E9002304F078F891
:104CA000364B002203F094FD04F0E2F900F12704F2
:104CB00088E7064687E7344B012243F82420B4E610
:104CC00012A801F0D0FA0EA801F0CDFA05A800F064
:104CD000E3FA02F03DFF02F05AFDBAF1000F19D1DC
:104CE00003F02AFC2B4B2C4F196803F04DF8482693
:104CF00003F022FC39683031C9B2FFF733FA013EC4
:104D000047F804ABF4D103F017FC03F044F84FF07C
:104D1000010A9FE541F2883002F086FD1BB0BDE834
:104D2000F08F00BFAFF3008000E8C072840CB83F82
:104D30007A8A1C226EE855C0B7ED7BD45FF14440FF
:104D40004AB6BA9C12F0444000D076137CD3843F1C
:104D5000958098840BF144404660AC6F60E855C084
:104D60006C06B8205BEB55C04660AC6F60E8554000
:104D70000030315D88D5A7BF000037400000E03F1C
:104D800045B30D0047B30D00B0550320000030407F
:104D900000804040A8550320A8E403209B73F04CFA
:104DA00068F04440B43A394371EE55C0B43A3943DF
:104DB00071EE554008B500F0E3FE014B186008BDE8
:104DC00040E6032010B5044603F036FA204610BD35
:104DD000F8B50F4F054614460E4602F0CBFC394697
:104DE000284602F0C7FC2146284602F0DCFC02F00F
:104DF000AFFE314602F0BEFC02F0AAFE394602F0D8
:104E0000B9FC02F0A5FE2146BDE8F84002F0CBBC9B
:104E100035B10D0010B50C4602F0C5FC02F098FE4D
:104E20002146BDE8104002F0BEBCF8B505460C4670
:104E300016464AB90368C9B29B6898470746284690
:104E400002F0A5FC3844F8BD00290CDA0A2A0AD180
:104E50002D2102F093FC61420746F2B2284602F08F
:104E6000ACFC0744EBE721460027F6E7F8B5104F06
:104E7000054614460E4602F07DFC3946284602F0EF
:104E800079FC0A2221462846FFF7CFFF02F060FE98
:104E9000314602F06FFC02F05BFE394602F06AFC1C
:104EA00002F056FE0A222146FFF7BFFFF8BD00BF01
:104EB00035B10D002DE9F04F0E4693B01F464FF06F
:104EC000FF331360044600213046DDF87080019204
:104ED00001F081FAD6F838E0034600286ED1BEF121
:104EE000000F14BF72465022316892B2204603F080
:104EF000B7F9051E18BF0125002D7ED000213046D0
:104F000001F069FA00286CD102F022FEBD4902F0DE
:104F100031FC02F01DFE316802F02CFC02F018FE9C
:104F2000B94902F027FC02F013FE0A22B16BFFF729
:104F30007CFF4146204602F01DFCB449204602F0A9
:104F400019FCB16A204602F015FCB149204602F076
:104F500011FC02F0FDFDAF4902F025FC02F0F8FD66
:104F6000414602F007FC02F0F3FDA84902F002FC02
:104F700002F0EEFDB16A02F0FDFB02F0E9FDA4498A
:104F800002F0F8FBA449A54A2046FFF721FF0021C3
:104F9000304601F020FA20B93268A1492046FFF7D7
:104FA00017FF06F13C090021484601F014FA78BBCE
:104FB000726C9C492046FFF759FF30E09A4B0C93E6
:104FC00006F1140CBCE80F000DAD0FC5DCF8003085
:104FD0002B701FFA8EF200230CA9204603F00DF867
:104FE00087E702F0B5FD914902F0C4FB02F0B0FD85
:104FF00006F1100102F0C5FB90E702F0A9FD8C4913
:1050000002F0D1FB204603F0CDF813B0BDE8F08FDD
:105010008849404604F05AF902460028C9D05FB1D9
:10502000396849B17A6820461AB1FFF7D1FE0837CE
:10503000F6E7FFF7EFFEFAE7204602F0A8FB20466E
:1050400002F0CEFE0021484601F0C5F940B9F16BEF
:10505000204602F0A8FB02F07BFDF16B02F0A3FBFF
:1050600002F076FD04F11C09734902F09CFB4FF439
:1050700020520021484604F0FDF800F0A1FD029006
:1050800000F09EFD04F5205B039000270BF11B0B45
:10509000204603F02DF80646B0B102F059FD6749ED
:1050A00002F068FB02F054FD002E824627DA2D2123
:1050B00002F064FB71420A22504602F07EFB02F0CD
:1050C00047FD5F4902F06FFB4FF0000A204603F0F6
:1050D0000FF838B3204602F044FF5FFA80F802F080
:1050E00037FD414602F04AFB00F06AFD42F2FE73D2
:1050F0009F42029005D809F807800137E6E731465C
:10510000D9E742F2FF739F42F7D100238BF80030BA
:10511000204603F047F802F01BFD4A4902F043FB2A
:10512000AA46EAE7E319187726B102F011FD4649CD
:1051300002F020FB00F044FD029BC61ABAF1000FFA
:1051400006D141F288339E4202D8C82002F06CFB9F
:10515000204602F046FE41F2883300284AD09E42A3
:105160004AD8BAF1000F93D002F0F2FC374902F0AE
:1051700001FB02F0EDFC054600F022FD039B0A2234
:10518000C11A284602F019FB02F0E2FC304902F095
:105190000AFB204603F006F8494604A801F0AEF8E1
:1051A0000C23092204A908A801F03AF902F0D0FC66
:1051B000284902F0DFFA02F0CBFC089902F0F3FA7A
:1051C00025490CA801F09AF80CA904A801F024F9CB
:1051D00004460CA801F047F8631C43D102F0B8FC68
:1051E0001E4902F0E0FA08A801F03DF804A801F019
:1051F0003AF80AE79E42B7D902F0AAFC184902F031
:10520000D2FAB1E767B30D00A2B30D0045B10D00AE
:10521000A4B30D00B0B30D00D9B30D00D3B30D008E
:1052200003B40D0008B40D0098B70D0083B30D0052
:10523000E4B30D0017B40D001CB40D003DB40D0017
:1052400069B40D0071B40D00A6B40D0001B50D00D8
:1052500026B50D002BB50D0045B50D004AB50D0066
:10526000CCB40D00019B0B491D1D284601F05AF8D6
:10527000221D04A90CA801F0F3F80CA9284601F09E
:105280008DF80CA800F0EFFF089803F0AAFF019B2F
:105290001860A8E749B50D00704710B50C21044609
:1052A00003F077F9204610BD10B5054B0360037C71
:1052B00004461BB9406808B100F0D0FE204610BD7E
:1052C0008CB50D0010B50446FFF7EEFF2046142103
:1052D00003F05FF9204610BD10B5074B0360037C57
:1052E00004461BB9406908B100F0B8FE2046FFF73C
:1052F000DBFF204610BD00BF9CB50D0010B5044675
:10530000FFF7EAFF20462C2103F043F9204610BDA9
:1053100038B5037C04460D460BB1002038BD40680B
:1053200038B100F0A3FE0028F7D0C4E90105012040
:10533000F4E7084600F08AFEF5E770B5C3680E464C
:10534000D11843680446154673B183688B420BD36A
:105350006068E3682A463146184403F063FFE26858
:105360002A44E260012070BD2046FFF7D1FF0028EB
:10537000EED1F8E743680021C16023B1826812B121
:10538000184603F077BF704710B5C0E9011200223C
:10539000C260012202744361024A029B0260C3613F
:1053A00010BD00BF9CB50D00D1E905239A42044B06
:1053B00038BF8260C0E9003124BF0023836070479A
:1053C000ACB50D0070B513689D68136803F1100447
:1053D00014608669B4420AD29B698C68A34201DAE0
:1053E000AB42F2DDA342CCBF0020012000E0002050
:1053F00070BD2DE9F341089C984601F11003054664
:105400001746019300260198AB6983421BD9826835
:105410008B689A4217DAA6420BD1386001AA284657
:10542000FFF7D0FF28B1019BC8F8003002B0BDE8FB
:10543000F08101AA2846FFF7C5FF01AA28460136D8
:10544000FFF7C0FFDFE70020F0E7F7B51F4601F1E7
:1054500010030446164601930025019BA2699A4257
:105460000FD998688A6890420BDAB54203D13B6045
:10547000012003B0F0BD01AA20460135FFF7A2FFCD
:10548000EBE70020F5E7000073B50D4689680A4E8A
:10549000044661B1686801ABFFF7D7FF38B16B68AC
:1054A000C4E90063019BA360204602B070BD6B6835
:1054B000C4E900630023F6E7ACB50D0010B504465F
:1054C00000680B4628B100F06DFFE3680133E3602C
:1054D00010BD60680028F8D0D4E90221013A8A4260
:1054E00088BF4354F1E703467F2B37B50846D9B24E
:1054F00004D803B0BDE83040FFF7E0BF01F03F0142
:10550000B3F5006F43F3871541F0800408D265F0CE
:105510003F01C9B20190FFF7D1FF01982146E8E7AA
:105520001B0B43F0E0010190FFF7C8FF05F03F01BE
:10553000019841F08001EEE72DE9FF4700244E6815
:10554000DFF8CCA080460F461546A146B868B042A9
:105550005ADDD8F80430995D9A19002C4BD0752982
:1055600005D86D2907D862291ED066291ED0284685
:10557000FFF7A4FF3DE0A1F16E04072CF7D80FF26E
:10558000080C5CF824F000BFB1550D006F550D00FC
:105590006F550D006F550D00B5550D006F550D0081
:1055A000B9550D00BD550D000821E0E70C21DEE7DF
:1055B0000A21DCE70D21DAE70921D8E7311D88420D
:1055C00017DD02A904333344084612F8014F01F8ED
:1055D000014B9A42F9D101AA51468DF80C9000F086
:1055E0004DFD012805D1BDF804002946FFF77BFFDA
:1055F0000536002404E05C2904D02846FFF75EFF4E
:105600000136A3E70124FBE7012004B0BDE8F087E1
:105610007CB50D007FB50C4606460C491046154674
:1056200000F080FED4E90131C91A0131284600F0AA
:1056300038FE00236A4621463046CDE90133009505
:105640000393FFF779FF04B070BD00BF49B50D00AB
:105650002DE9F04389B00546884604A8124916464C
:10566000994600F04BFE002700974B4603AA41469F
:105670002846FFF7BEFE044670B1039904AA2846E7
:10568000FFF7C8FF044608B90137EDE7314604A823
:1056900000F0A1FE0028F7D004A800F0E4FD2046A9
:1056A00009B0BDE8F08300BF49B50D0073B50D46E4
:1056B00089680A4E044661B1686801ABFFF7C8FF0C
:1056C00038B16B68C4E90063019BA360204602B057
:1056D00070BD6B68C4E900630023F6E7ACB50D004C
:1056E00038B50D460549044600F008FEA96819B111
:1056F00068682246FFF78EFF204638BD49B50D0089
:105700002DE9F04F44684FF0010C4FF0FF35D0F811
:1057100000E0964580F0C18111F80E80B8F1000FCD
:1057200000F0BB81B8F13A0F00F09B8033D8B8F19C
:10573000220F00F0AD8010D8A8F109085FFA88F8B0
:10574000B8F1170F0DD8C24F0CFA08F818EA070F76
:1057500007D0076801370760D9E7B8F12C0F00F0D0
:105760003981D0F8008042450ED911F808705FB138
:105770003A2F00F271811F2F00F255810A2F00F29B
:105780006481082F40F25A81002B40F06A8108F1B1
:10579000FF370760ACE0B8F17B0F3AD00AD8B8F118
:1057A0005B0F36D0B8F15D0FDBD1002BD1D04FF0BD
:1057B000020B06E0B8F17D0FD3D1002BC9D04FF01A
:1057C000010B476807F1FF3803EB0719B8F1000F29
:1057D0004FDB59F80C7C0137A9F1100A45D059F874
:1057E000087C7E1C41D19AF80090D94545D187604C
:1057F0000EF10107CAF8087003EB081EDEF804700A
:1058000001373DD0DEF80870013739D1C0F8088083
:105810009FE70134002B9CD04768099EBE424ED9B9
:1058200007F1010EC0F804E003EB071ECEE90155B5
:105830000026CEF80C604FEA071A87687E1C1FBF4F
:1058400003EB0719D9F80C700137C9F80C70B8F1DF
:105850007B0F0CBF0127022703F80A700768CEF8F8
:1058600004704768013F876073E708F1FF38D1464D
:10587000ACE7B8F1FF3F7FF46CAF6FF0010420E0BC
:1058800008F1FF38B8F1FF3FAEF1100EB6D160E776
:105890000EF10109C0F80090D0F80080424540F2B6
:1058A000948011F80870002F00F08F80222F30D1E3
:1058B000F3B14768099EBE4206D8C0F800E04FF039
:1058C000FF342046BDE8F08F07F1010E4FEA0718BC
:1058D00003EB0717C0F804E0C7E901550026FE6096
:1058E000D0F800E04FF0030A03F808A0C7E9019ED2
:1058F00087687E1C04F101043FF42BAF002B3FF4BA
:1059000028AF03EB071EDEF80C700137CEF80C70E1
:105910001FE75C2F11D108F10107BA420DD90760CA
:10592000CF5D752F2CD86D2F0BD8662F28D85B2F05
:105930001ED8222F01D02F2F22D1076801370760F0
:10594000AAE76E3F072F1BD801A656F827F000BF25
:105950003B590D0081590D0081590D0081590D00F1
:105960003B590D0081590D003B590D0087590D0021
:105970005C3FFFB20CFA07F740F241463742DCD1F8
:10598000C0F800E079E708F1020707604FF0040A69
:10599000D0F80080424503D80768013F0760CCE794
:1059A00011F80870002FF7D0A7F1300BBBF1090FE9
:1059B00004D927F02007413F052FE1D808F101075E
:1059C000BAF1010A0760E3D1E6E7C0F800E06FF042
:1059D000020476E7002B3FF4BCAE87687E1C3FF4E0
:1059E000B8AE3F01DF5D013F012F7FF6B2AE4768E1
:1059F00007F1FF3803EB071EB8F1000FFFF6A9AE61
:105A00001EF8107C013F012F08D85EF80C7C01378E
:105A100004D05EF8087C01373FF4F8AE08F1FF3897
:105A2000AEF1100EE8E7A7F120090A4E5FFA89F9F6
:105A30000CFA09F919EA060F7FF4A6AE203F5E2F93
:105A40009ED808F1010707608BE60D2FF6D19BE683
:105A5000130080000110000407F0DF09B9F15D0FA9
:105A6000F4E74768099EBE427FF627AF07F10108B9
:105A70004FEA071903EB0717C0F80480C7E901557F
:105A80000026FE60D0F800804FF0040A03F809A059
:105A9000C7E901E80768013F7BE6002B3FF411AF3F
:105AA0004268511E03EB02130029FFF60AAF53F8B8
:105AB0000C2C013203D053F8082C013287D0013965
:105AC000103BF1E7F7B5C268044612B9002003B0F5
:105AD000F0BD436900F12006ABB10021C0E9081117
:105AE0004FF0FF318162C169009141683046FFF794
:105AF00007FE431C28D1257C002DE7D1606900F00A
:105B0000ADFA6561E56100254FF0FF37C4E908553E
:105B1000E2686168A76200952B463046FFF7F0FD0A
:105B20000028D3DBE06117D0000100F08FFAE269B2
:105B3000606103460092C4E90855E2686168A762A3
:105B40003046FFF7DDFD01E00028BFDB636903EBB2
:105B50000010A0610120BAE76369A361FAE70000C1
:105B600008B5024B1B689B68019308BD68020300DF
:105B700008B5024B1B68DB68019308BD680203008F
:105B800008B5024B1B681B68019308BD2C0203007B
:105B900008B5024B1B685B69019308BD6C020300EA
:105BA00008B5024B1B685B68019308BD180203002F
:105BB00008B5024B1B68DB68019308BD180203009F
:105BC00008B5024B1B685B69019308BD180203000E
:105BD00008B5024B1B689B68019308BD780203005F
:105BE00008B5024B1B681B6D019308BD78020300CA
:105BF00008B5024B1B689B6D019308BD780203003A
:105C000008B5024B1B681B6E019308BD78020300A8
:105C100008B5034B1B68D3F89830019308BD00000A
:105C20007802030008B5034B1B68D3F8A830019332
:105C300008BD00007802030008B5034B1B68D3F8C9
:105C4000B430019308BD00007802030008B5034B8F
:105C50001B68D3F8D830019308BD00007802030018
:105C600008B5034B1B68D3F8DC30019308BD000076
:105C70007802030008B5034B1B68D3F8EC3001939E
:105C800008BD00007802030008B5034B1B68D3F879
:105C9000F030019308BD00007802030008B5034B03
:105CA0001B68D3F80031019308BD0000780203009F
:105CB00008B5034B1B68D3F80431019308BD0000FD
:105CC0007802030008B5024B1B685B6C019308BDAA
:105CD0004802030008B5024B1B689B6C019308BD8A
:105CE0004802030008B5024B1B68DB6C019308BD3A
:105CF0004802030008B5024B1B685B6D019308BDA9
:105D00004802030008B5024B1B685B69019308BD9C
:105D10006402030008B5024B1B681B6A019308BDAF
:105D20006402030008B5024B1B689B6A019308BD1F
:105D30006402030008B5024B1B681B68019308BD91
:105D40003C02030008B5024B1B68DB68019308BDE9
:105D50003C02030008B5024B1B681B69019308BD98
:105D60003C02030008B5024B1B685B69019308BD48
:105D70003C02030008B5024B1B689B69019308BDF8
:105D80003C02030008B5024B1B68DB69019308BDA8
:105D90003C02030008B5024B1B689B6A019308BDD7
:105DA0003C02030008B5024B1B68DB68019308BD89
:105DB0002802030008B5024B1B689B69019308BDCC
:105DC0002802030008B5024B1B68DB69019308BD7C
:105DD0002802030008B5024B1B681B6A019308BD2B
:105DE0002802030008B5024B1B685B6A019308BDDB
:105DF0002802030008B5024B1B689B6A019308BD8B
:105E00002802030008B5024B1B68DB6A019308BD3A
:105E10002802030008B5024B1B681B6B019308BDE9
:105E20002802030008B5024B1B681B6C019308BDD8
:105E30002802030008B5024B1B681B6D019308BDC7
:105E40002802030008B5024B1B689B69019308BD3B
:105E50003802030008B5024B1B68DB69019308BDDB
:105E60003802030008B5024B1B681B6A019308BD8A
:105E70003802030008B5024B1B689B6A019308BDFA
:105E80003802030008B5024B1B681B6B019308BD69
:105E90003802030008B5024B1B689B6B019308BDD9
:105EA0003802030008B5024B1B681B68019308BD4C
:105EB0004C02030008B5024B1B685B68019308BDE8
:105EC0004C02030008B5024B1B681B69019308BD17
:105ED0004C02030008B5024B1B685B69019308BDC7
:105EE0004C02030008B5024B1B689B69019308BD77
:105EF0004C02030008B5024B1B68DB69019308BD27
:105F00004C02030008B5024B1B681B6A019308BDD5
:105F10004C02030008B5024B1B685B6B019308BD84
:105F20006002030008B5024B1B681B6D019308BD9E
:105F30006002030008B5024B1B685B68019308BD53
:105F40002002030008B5024B1B685B69019308BD82
:105F50002002030008B5034B1B68D3F88830019377
:105F600008BD00002002030008B5034B1B68D3F8EE
:105F70009430019308BD00002002030008B5024BD5
:105F80001B685B68019308BD4002030008B5024B23
:105F90001B689B68019308BD4002030008B5024BD3
:105FA0001B68DB68019308BD4002030008B5024B83
:105FB0001B681B69019308BD4002030008B5024B32
:105FC0001B685B69019308BD4002030008B5024BE2
:105FD0001B689B69019308BD4002030008B5024B92
:105FE0001B68DB69019308BD4002030008B5024B42
:105FF0001B681B6A019308BD4002030008B5024BF1
:106000001B681B6B019308BD4002030008B5024BDF
:106010001B685B6B019308BD4002030008B5024B8F
:106020001B681B6C019308BD4002030008B5024BBE
:106030001B685B6C019308BD4002030008B5024B6E
:106040001B68DB6B019308BD4402030008B5024BDB
:106050001B681B68019308BD1C02030008B5024BB6
:106060001B685B68019308BD1C02030008B5024B66
:106070001B689B68019308BD1C02030008B5024B16
:106080001B685B69019308BD1C02030008B5024B45
:106090001B68DB6A019308BD1C02030008B5024BB4
:1060A0001B681B6B019308BD1C02030008B5024B63
:1060B0001B68DB6B019308BD1C02030008B5024B93
:1060C0001B685B6C019308BD1C0203000022406842
:1060D0001146FFF78BBF002240681146FFF796BFBD
:1060E00040680022FFF78ABF4068002281F001016A
:1060F000FFF774BF002340681A461946FFF766BFD2
:10610000002340681A461946FFF758BF002240682E
:106110001146FFF74BBF002240681146FFF736BF1C
:10612000406800220221FFF739BF002340681A4669
:10613000FFF724BF024B03225A60024A1A607047DD
:1061400044E60320BCB50D0010B50446006818B144
:10615000FFF784FF0023236010BD10B50446FFF74E
:10616000F3FF204610BD000010B5094B094C022278
:1061700000201A60084B2060A080A071A360FFF788
:10618000D9FE2046054A0649BDE8104002F0FCB998
:1061900058E603204CE603200000FFFF685503206B
:1061A0005B610D0010B5044603F0A2F80138231816
:1061B0002046834206D90278197800F8011B03F8BB
:1061C0000129F6E710BD70B50C46911E222905463F
:1061D00022D820466DB1B5FBF2F602FB1655E9B2A6
:1061E000092D94BF30315731C9B200F8011B354633
:1061F000F0E7024623443021934202D902F8011B02
:10620000FAE71A1A834238BF00220023835420463B
:10621000FFF7C8FF204670BD0020FCE738B5031E1D
:106220000C4615460EDAB3F1004F4FF02D0214BFA5
:106230005842184601230A702A461944FFF7C3FF43
:10624000204638BD0123F9E770B586B0064601AD9A
:10625000684601F011FC0FCD341D0FC42B6823706C
:10626000304606B070BD10B504460068FFF7F6FE74
:10627000204610BD10B50446006808B1FFF7EEFED9
:106280000023C4E90133236010BD38B504460D4630
:1062900000680131FFF7EAFE10B1C4E900050120F2
:1062A00038BD10B50368044623B143688B4201D35F
:1062B000012010BD2046FFF7E8FF0028F9D0A368B1
:1062C000002BF5D122681370F2E737B50D46114661
:1062D00001920446FFF7E5FF019A28B92046FFF72F
:1062E000C9FF204603B030BDA2602946206802F0F5
:1062F00099FF2268A3680021D154F2E7002313B567
:10630000C0E9003304468360037341B1084601913C
:1063100002F0EEFF019902462046FFF7D6FF204625
:1063200002B010BD13B5044659B10846019102F000
:10633000DFFF019902462046FFF7C7FF204602B063
:1063400010BDFFF797FFF9E710B504468AB00023A8
:10635000C4E90033A3602373084601A9FFF75EFF79
:1063600001A92046FFF7DEFF20460AB010BD70B538
:1063700005460E4609B9002070BD6AB18468144410
:106380002146FFF78EFF0028F5D02868AB6831461C
:10639000184402F0A5FFAC600120EDE78A680968A7
:1063A000FFF7E5BF07B500238DF80410012201A90E
:1063B0008DF80530FFF7DBFF03B05DF804FB10B587
:1063C0008A6809680446FFF7D2FF10B92046FFF734
:1063D00051FF204610BD08B582683AB921B108784E
:1063E000B0FA80F0400900E0012008BD006809B95A
:1063F0000078F5E702F06AFFF2E710B58368934290
:1064000007D904680968A01802F099FF08B1001BB9
:1064100010BD4FF0FF30FBE70022FFF7EEBF00009A
:10642000F8B59A420F461D460C4988BF13461446DC
:10643000064684BF2C461D46FFF760FFBA68A2429D
:106440000AD33968AA4294BFC4EB0202C4EB050226
:1064500021443046FFF739FF3046F8BD49B50D00FD
:1064600010B504468B68FFF7DBFF204610BD000027
:1064700008B5006840B102F0B1FE51EC100B02F01B
:106480003FFE00EE100A08BD9FED010AFBE700BFCA
:10649000000000007047704770477047064B9942F4
:1064A00010B500F10C0405D0084602F079F8002878
:1064B00008BF0024204610BD38B70D00064B994296
:1064C00010B500F10C0405D0084602F069F8002868
:1064D00008BF0024204610BD38B70D00064B994276
:1064E00010B500F10C0405D0084602F059F8002858
:1064F00008BF0024204610BD38B70D0010B5682134
:10650000044602F046F8204610BD10B52821044686
:1065100002F03FF8204610BD10B53021044602F0CD
:1065200038F8204610BDFDF7BABDFDF7B8BDFDF740
:10653000B6BD10B5036804469B689847A368013B45
:10654000A3602BB923682046DB68BDE810401847DC
:1065500010BD10B50446006808B1FFF7BBFB20462C
:1065600010BD000010B5044B04461868FFF7BAFBD5
:106570000123237010BD00BF64E6032010B5044B57
:1065800004461868FFF7B6FB0023237010BD00BF58
:1065900064E60320F0B50025EC1C8C420DD86E1C7F
:1065A000445D875D974205D12644B14205D31D6005
:1065B000601CF0BD01342544EEE70020F9E72DE929
:1065C000F34704469DF828701E46894601AB904665
:1065D0000A46016AFFF7DEFF256AB31C17BB08B342
:1065E0005F193F1A1F2F19D8DDF8049009F1020A2C
:1065F000A5EB0902121A00EB090106EB0A0092B2A0
:106600002144204402F01CFE731C04F80930324679
:10661000414604EB0A0002F005FE2762206A02B040
:10662000BDE8F0872B441F2BF8D8731C6355A81CBA
:1066300025442062324685F801904146204402F00C
:10664000F1FD236A33442362E8E70000024A002197
:106650000A20FFF75FBC00BFB15B0D00022A38B50E
:10666000044607D0032A11D0012A01D10B68236008
:10667000002038BD08200D68FDF70DFD03460028F9
:10668000F5D095E8030083E80300F0E700680028F0
:10669000EED0082101F07DFFEAE730B40D46114647
:1066A0001A46036809682868D3E90043A44630BC49
:1066B000604710B58368044613B10322014698472A
:1066C000204610BD10B504465830FFF7F2FF04F124
:1066D0004800BDE81040FFF7C6BDA0F13003DAB2B4
:1066E000092A01D818467047A0F16103052B01D88B
:1066F00057387047A0F14103052B94BF37384FF04E
:10670000FF30704710B5002304460370FFF72AFFDF
:10671000204610BD10B5037804460BB1FFF72EFFDD
:10672000204610BD82B00346086849686A4603C225
:106730006A4603CA18601846596002B0704708B527
:1067400082798B799A4206D1062202F05DFDB0FA79
:1067500080F0400908BD0020FCE74FF0FF330360E4
:10676000838000207047002108B501604160024627
:10677000FFF7F3FF9171104608BD0000012202618E
:10678000064A11680160516841601189927A8272EB
:1067900000220181C0F80B20C273704740B70D0082
:1067A00010B50B69036101F11002034651F8044B67
:1067B00043F8044B9142F9D110BD10B50B46044685
:1067C000B1B1012A01F110020AD1014653F8040BBC
:1067D00041F8040B9342F9D101232361204610BDF7
:1067E000411E12F8010D01F8010F9A42F9D1F3E7A9
:1067F000102202F03FFDF1E738B5044615461A466F
:10680000FFF7DBFFA581204638BD000008B502690F
:1068100022B98089003818BF012008BD0249102222
:1068200002F0F2FCF6E700BF60B70D0000697047A8
:1068300038B50C4614220021054602F01BFD2369E1
:106840003BB9627B2B74237B43EA02232B802846CF
:1068500038BD01232B7404F110022B4654F8041B9D
:1068600043F8041B9442F9D1F1E7427B007B40EAF4
:1068700002207047704708B502690B699A4206D139
:10688000102202F0C1FCB0FA80F0400908BD0020DF
:10689000FCE7000001232DE9F3410361324B1A6844
:1068A00002605A68426000251A899B7A0281044678
:1068B0008372C0F80B50C5730E4621B324213046B5
:1068C00002F030FD042821D1ADF8045001AFB51C11
:1068D000063615F8020CFFF700FFB0F1000810DBD8
:1068E00015F8010CFFF7F9FE00280ADB023540EA33
:1068F0000810AE4207F8010BEBD1BDF804305BBACB
:10690000A3810023236102B0BDE8F0811027242178
:10691000304602F007FDA84206D827440023BC42B7
:10692000F1D007F8013DFAE7002FECD0705DFFF7DA
:10693000D4FE030615D40001013F5FFA80F804F885
:1069400007802421304602F0EDFC0135A84208D929
:10695000705DFFF7C2FE40B20028A4BF40EA080005
:10696000E0550135D3E700BF40B70D0013B504462D
:106970000191FFF703FF20460199FFF78BFF2046A7
:1069800002B010BD30B49DF8085012B9006A30BC96
:106990007047029530BCFFF712BE1FB50446024691
:1069A00000F11F01002302F8013B9142FBD1236259
:1069B0000093062201238DF80F2019460DF10F02D6
:1069C0002046FFF7DFFF204604B010BD73B50A462E
:1069D0000E4601AB016A0446FFF7DCFD054678B1BF
:1069E0000198226A4119121A2144521B204402F0D4
:1069F00019FC206A401B206231462046FFF7E6FF63
:106A000002B070BD38B54FF6FF73002504464380D1
:106A10000E22294605700571063002F02BFC04F1A8
:106A20001400FFF7ABFE04F12800FFF7A7FE0449AE
:106A300004F13C00FFF762FC6565204638BD00BFED
:106A400049B50D0010B5D0E9063203EBC2029342FE
:106A5000184606D0046824888C4203F10803F6D156
:106A600010BD0020FCE70000F0B5064685B01F46CB
:106A70000D46002950D0002A4ED004682378F42A0D
:106A800028BFF42243B32379980709D5A08903923C
:106A90000023FFF7D1F80028039A03DA05B0F0BD10
:106AA0006FF0770034682379D90609D5012F07D014
:106AB000A0890023294605B0BDE8F040FFF7EEB8F5
:106AC0009B06EBD5022FE9D0A0890023294605B00B
:106AD000BDE8F040FFF7ECB860884FF6FF718842E0
:106AE0001CD021794E0701D5012F04D10B0709D401
:106AF0006FF07700D2E7A189009313462A46FFF78B
:106B0000AFF8CBE7022FF3D00023A18900931346FF
:106B10002A46FFF79BF8C1E70248BFE76FF0D100B4
:106B2000BCE700BFF2FEFFFF37B50C460546F42177
:106B30002046019202F0F6FB019B024621462846C0
:106B400003B0BDE83040FFF78FBF00002DE9F041F2
:106B500000260660074628200C46FDF79CFA051E15
:106B600005F10C080FD00123C5E90133084B2B6058
:106B70004046FFF703FE0FCC2E6285F824604646A0
:106B80000FC623683360C7E900853846BDE8F08149
:106B900008B70D0070B50025056006463020FDF7EA
:106BA0007AFA044688B10123C0E90133094B036036
:106BB0004FF6FF7383810E30FFF7D5FDC4E906550C
:106BC000C4E90855C4E90A55A57574600C343460ED
:106BD000304670BD24B70D0037B50D46044601A8F8
:106BE000FFF790FD2A6852F8023F23605368636004
:106BF00001A8FFF78FFD204603B030BD30B5054634
:106C000087B00C4601A8FFF77DFD2A68236812882B
:106C10001B889A420DD1294602A8FFF7DDFF2146C5
:106C200004A8FFF7D9FF04A902A8FFF788FD0446CE
:106C300000B9002401A8FFF76DFD204607B030BD64
:106C400010B504465420FDF726FA014660B1002332
:106C5000C0E90033C0E90233C0E90433C0E90633B8
:106C60000362C362C363C364216019B9094A0A207D
:106C7000FFF750F90020FEF7ABFF20B1054A0021D5
:106C80000A20FFF747F9216803480022FEF7FCFFBE
:106C9000204610BDB15B0D0025700D0010B50B4CEA
:106CA0002378BFF35B8FDB070ED42046FDF7F9F99D
:106CB00050B10748FFF7C4FF2046FDF7F7F9054A32
:106CC0000549034801F060FC014810BD5CE6032063
:106CD00068E6032068550320A56E0D0030B50368F3
:106CE000093B012B8DB004460D4611D8FFF7D6FFA6
:106CF000A1880068FFF7A6FE034658B92022CDE917
:106D000004200B4A00920B4904AA3220FFF70AF92B
:106D10000DB030BD6A6D002AFAD0D4E9032105F127
:106D20004C00CDE90312AC6D04AA03A9A047EFE71C
:106D300017B60D00F0B50D0008B50020FEF748FFAE
:106D400000EAE07008BD084611B90A46FEF748BFE0
:106D5000096A0022FAE707B5084629B90A4603B0CE
:106D60005DF804EBFEF744BF01210190FFF72EFE12
:106D700001980022016AF2E738B504461546FFF78C
:106D8000E2FF00280ADB29462046FFF7E4FF00283F
:106D900004DBBDE838400020FEF732BF38BD0000FC
:106DA00038B500230446836008200D46FDF773F9CB
:106DB00018B12B6803606B684360034BE360034BBF
:106DC0002060A360204638BD9B660D005D660D0007
:106DD0000B68036013B15A6801325A60704710B5EE
:106DE00051F8043B044640F8043BFFF7F1FF2368E9
:106DF0000BB9FFF72BFC204610BD10B551F8043B32
:106E0000044640F8043BFFF7E3FF204610BD10B5F1
:106E100051F8043B044640F8043BFFF7D9FF2046F5
:106E200010BD10B50446006828B14368013B4360BB
:106E30000BB9FFF77EFB204610BD10B504460430A9
:106E4000FFF7EFFF204610BD70B5D0E900530446B0
:106E500005EBC306AE4204D0281DFFF7E2FF08355C
:106E6000F8E72068FFF7FAF8204670BD70B5D0E962
:106E70000053044605EBC306AE4204D0281DFFF7BD
:106E8000D0FF0835F8E72068FFF7E8F8204670BD26
:106E900010B504462430FFF7E9FF04F11800FFF7AE
:106EA000D3FF10BDF8B50468064624B304F14400CE
:106EB000FFF7FFFB04F13400FFF7FBFB04F12400B4
:106EC000FFF7F7FBD4E9065305EBC307AF4204D045
:106ED000281DFFF7A6FF0835F8E7A069FFF7BEF801
:106EE00004F10C00FFF7C2FF2046FFF7ADFF54216D
:106EF000204601F04EFB3046F8BD826810B50AB955
:106F000001F04BFBBDE81040C36818478842F8B554
:106F100004460D46164614D9904213D2A2F1080633
:106F2000751AA1F108072C44B74218D01CB131469C
:106F30002046FFF76CFF301DFFF773FF083E083C4B
:106F4000F2E70CD0B5420AD01CB129462046FFF723
:106F50005EFF281DFFF765FF08350834F2E7F8BD2E
:106F60002DE9F041D0E900430546884604EBC3070C
:106F7000A74203D100263046BDE8F08141462046B5
:106F8000FFF73CFE064608B90834F1E7002CF1D0C3
:106F9000201DFFF746FFD5E9003204F1080103EB9D
:106FA000C2022046FFF7B2FF6B68013B6B60E2E76D
:106FB000F7B5044646686846FFF729FFD4E9017330
:106FC0009F4212DB0137002F29DDF800FFF73EF862
:106FD0000546F0B1D4E9001201EBC202FFF796FFBB
:106FE0002068FFF73BF82560A7602368626803EB21
:106FF000C60603EBC202314606F10800FFF786FF22
:107000001EB169463046FFF702FF636801336360D3
:10701000012501A8FFF705FF284603B0F0BD0025B4
:10702000DEE700002DE9F04105468EB003A80C46CE
:10703000FFF768FB2E68042E6BD007D8032E28D0EC
:1070400003A8FFF767FB0EB0BDE8F081A6F10C03C3
:10705000032BF5D8A9892046FFF7F4FC0746002842
:10706000EED0E36C002BEBD01022002107A802F039
:1070700001F90D2E06978DF81C6040F092806B6828
:10708000099306230893236D06A904F14400984749
:10709000D6E704A8FFF77EFD049BAA891A806968D9
:1070A000049808310230FFF73DFB04A906A8FFF75A
:1070B000AEFE06A904F11800FFF77AFF054607A8FF
:1070C000FFF7AFFE202306938DB93E4B3E49009358
:1070D00032202B4606AA0795FEF724FF049B29467B
:1070E0001888FEF795FD05A8FFF79BFEA8E7374A2D
:1070F000009200233449079306AA0120FEF712FFED
:10710000E36A002BEFD004A904F12400FFF7F5FE99
:10711000E9E7A9892046FFF795FC064600288FD0AD
:107120000568D5E906314FF6FF722A8003EBC101ED
:10713000994203D053F8080B4280F9E7D5E903736D
:1071400007EBC308B84504D0381DFFF76AFE0837BF
:10715000F8E700232B61D5E9067307EBC308B845B0
:1071600004D0381DFFF75DFE0837F8E70023EB6118
:10717000AB72E36B23B1314604F13400FFF7BDFE7F
:1071800000232022CDE90623114A00920E4906AAC7
:107190000120FEF7C7FE314604F11800FFF7E0FEBC
:1071A0004EE70F2E7FF46FAF6B6809932B7A03F0D5
:1071B0000102C3F340038DF829308DF828200823FD
:1071C00060E700BF2FB60D00F0B50D0055B60D00FD
:1071D00072B60D0013B500230446D1E90002C1E9DF
:1071E00000332368009320606368626001A8019304
:1071F000FFF717FE204602B010BD13B50B4602463E
:10720000D0E900016C4684E8030093E8030082E8BB
:10721000030094E8030083E8030002B010BD38B512
:1072200005460C46FFF7E9FFAB68A268AA60A360B9
:10723000EB68E268EA60E36038BD1FB500230446EE
:10724000084669460293FFF7EAFF21466846FFF7C2
:10725000E6FF6846FFF72DFA204604B010BD70B572
:107260000E4688B0044601921D46FFF7CBFB3378EB
:107270000199237104F13C00FFF754F804F14C0626
:1072800085B10C9B029502A904A80393FFF788FD22
:1072900004A93046FFF7D1FF04A8FFF70AFA2046F9
:1072A00008B070BD0695F3E72DE9F04786B00746B4
:1072B0001D4668200023894692460493FCF7EBFEA6
:1072C000061E06F10C081DD001233446C6E9013321
:1072D000154B44F8203B9AF800308DF80C30109B89
:1072E00000934A460F9B03A94046FFF7B8FF0FCD16
:1072F0000FC42B680E9D23600FCD06F134040FC41C
:107300002B68236004A93846CDE90486FFF762FFA5
:1073100005A8FFF786FD396819B9044A0A20FEF767
:10732000F9FD06B0BDE8F087ECB60D00B15B0D00CD
:107330008842F8B504460D46164614D9904213D239
:10734000A2F10806751AA1F108072C44B74218D01B
:107350001CB131462046FFF750FD301DFFF761FD9F
:10736000083E083CF2E70CD0B5420AD01CB12946D1
:107370002046FFF742FD281DFFF753FD083508346E
:10738000F2E7F8BD70B50E1E054611DDF000FEF700
:107390005DFE044658B1D5E9001201EBC202FFF7C9
:1073A000C7FF2868FEF75AFE2C60AE60012070BD52
:1073B0000024F6E773B5044645686846FFF71DFDEF
:1073C000D4E90113994210DA2368626803EBC5051A
:1073D00003EBC202294605F10800FFF7A9FF8DB9AA
:1073E000636801336360012606E001312046FFF740
:1073F000C9FF06460028E7D101A8FFF712FD304675
:1074000002B070BD69462846FFF7F7FCE8E78842FE
:10741000F8B504460D46164614D9904213D2A2F18F
:107420000806751AA1F108072C44B74218D01CB100
:1074300031462046FFF7D3FC301DFFF7F2FC083E33
:10744000083CF2E70CD0B5420AD01CB129462046D0
:10745000FFF7C5FC281DFFF7E4FC08350834F2E708
:10746000F8BD70B50E1E054611DDF000FEF7EEFD0D
:10747000044658B1D5E9001201EBC202FFF7C7FF7D
:107480002868FEF7EBFD2C60AE60012070BD002483
:10749000F6E773B5044645686846FFF7A0FCD4E9F3
:1074A0000113994210DA2368626803EBC50503EB08
:1074B000C202294605F10800FFF7A9FF8DB96368EC
:1074C00001336360012606E001312046FFF7C9FF62
:1074D00006460028E7D101A8FFF7A3FC304602B01A
:1074E00070BD69462846FFF77AFCE8E72DE9F04FC2
:1074F0001746A1B080460AA80E46FFF703F93C687C
:10750000237953B939464046FFF769FC0AA8FFF7CB
:1075100001F9404621B0BDE8F08F3368D3E9035349
:1075200005EBC303039304F1280A04F1140B039B36
:107530009D4221D0D5F80090584609F11401FFF77B
:107540009AF9B8B109F128015046FFF794F988B1CA
:107550002368D9F80020534033F47F430AD1202216
:10756000CDE915235E4A009215AA5E493220FEF746
:10757000D9FCC7E70835DAE75046FFF747F960B9A5
:107580005949012215A815ADFFF717F90FCDD446BB
:10759000ACE80F002B68CCF800303368D3E9005317
:1075A00005EBC30B5D45A94651466ED055F8080B57
:1075B000FFF761F90028F5D004F1140A5046FFF7EF
:1075C00025F988B9494B48491A88013292B21A8084
:1075D00015A8012315ADFFF70FF90FCDD446ACE880
:1075E0000F002B68CCF800302822002116A801F0EB
:1075F00041FE3F4B1593514604A8FFF719F904AB20
:1076000018AA0DF1200C18685968154603C50833EF
:1076100063452A46F7D11868286023798DF85830D9
:10762000D9F800309B8AADF87430E36B1793314B77
:107630000022A11D15A8CDE91E34FEF71BFB002872
:107640007FF460AF01232370346839460C340DA8F1
:10765000FFF7C5FB20460DA9FFF71BFF04460EA848
:10766000FFF7DFFB002C7FF44DAF2023CDE90D3475
:10767000214B00930DAA234677E739464046FFF792
:10768000AEFB0CA8FFF7CDFB40E70BA8FFF75EFAB7
:10769000514615A8FFF7CCF80B9A0023143215A910
:1076A0000120FEF7BFFA0028E7D135680BA90DA825
:1076B000FFF7A3FB28460DA9FFF77CFE05460EA8A1
:1076C000FFF7AFFB002DD8D032685368126803F182
:1076D0000053013B0CA802EBC309FFF7A2FB6BE7C9
:1076E00091B60D00F0B50D0050B70D0060E6032017
:1076F00001002C00DD6C0D00BCB60D0010B5064C71
:10770000002320462360FEF7DDFA2046034A0449A1
:10771000BDE8104000F038BF64E603206855032040
:1077200053650D00F8B506460D468F180024BD427E
:107730000CD0336815F8011B9B6830469847031E30
:1077400001DB1C44F3E7002C08BF1C462046F8BDB3
:1077500013B50446084659B1019101F0C9FD2368EB
:107760000199DB680246204602B0BDE81040184788
:1077700002B010BD08B5FFF7EBFF08BD03689B68BA
:1077800018470A680B46126801461846104738B574
:107790000D210546FFF7F2FF0A2104462846FFF7B0
:1077A000EDFF204438BD38B50546FFF7D1FF04464C
:1077B0002846FFF7ECFF204438BD30B58BB00023DE
:1077C0008DF82430012A98BF0A2209AC0D46B1FB7E
:1077D000F2F101FB125303F0FF03092B94BF303386
:1077E0003733DBB2AA4204F8013DEFD92146FFF757
:1077F000AFFF0BB030BD002340681A461946FEF7B4
:10780000DDBB0000014B024A1A6070476CE60320A2
:1078100070B70D00024B1A68024B1A60704700BF28
:107820009053032070E603200021FEF78BBB10B5B8
:107830000446FEF73EFF204610BD00000348044A00
:1078400004490023836000F09FBE00BF74E603205C
:10785000685503202F780D00014B1860704700BF5A
:107860009453032008B50B4B43B100F071F9036842
:107870001B699847002801DDAFF30080064B43B138
:1078800000F0E4F903681B699847002801DDAFF3B5
:10789000008008BD000000000000000008B5FFF7F0
:1078A000E1FFFEF78DF9014B186008BDD4E7032016
:1078B0000248034A0349121A01F0B4BC00F4032041
:1078C00004F40320C0BC0D0007B5002300931A4642
:1078D0006FF07701FEF748FB03B05DF804FB000092
:1078E00007B543880A2B08D0502B0BD1094B1B68D6
:1078F0004BB103B05DF804EB1847FFF7E5FF03B0A9
:107900005DF804FB002300931A466FF07701FEF741
:107910002BFBF4E788E6032038B5124C1248134DD0
:107920000021FEF7CBFB2368AB42114B0CBF0122B9
:1079300000221A7002D0FFF7BBFF2560FEF730F976
:10794000044601F09FFC0B4B13B12046AFF30080BF
:1079500000210848FEF772FBBDE8384006480021C8
:10796000FEF7F8BA00F4032059780D001E1C279A80
:1079700084E6032000000000E1780D00704710B598
:107980001821044600F005FE204610BDF0B5037D29
:10799000062B8DB00E4600F104074FF0000412D004
:1079A00000F1080515F8011D0A223046FFF705FF12
:1079B000AF42044419D0002CF4D02E213046FFF7FA
:1079C000DDFE0444EEE72F236A4639460A208DF88F
:1079D0000040FEF797F9684601F08AFC33680246DA
:1079E000DB68694630469847044620460DB0F0BD36
:1079F00010B5054B0446112240F8043B002101F06C
:107A000039FC204610BD00BF98B70D000346074A59
:107A100010B543F8042B01F1100251F8044B43F860
:107A2000044B9142F9D10A781A7010BD98B70D0035
:107A3000037D042B04D14068003818BF0120704733
:107A4000062B07D143683BB983682BB9C3681BB9C0
:107A50000069F1E7002070470120704710B59DF8DC
:107A6000084044EA032343EA024242EA0161042354
:107A70004160037510BD000013B5054B0360CB7862
:107A800000938B784A780978FFF7E8FF02B010BDC1
:107A900098B70D0041747047704708B50021007C0D
:107AA000FEF720FA40EAE07008BD08B50121007C2D
:107AB000FEF718FA40EAE07008BD08B5007CFEF752
:107AC00009FA20EAE07008BD08B5007CFEF7FAF973
:107AD00020EAE07008BD13B50446007C0191FEF772
:107AE000F9F90028019901DC607C20B1207CFEF7C7
:107AF00001FA20EAE07002B010BD007CFEF702BA85
:107B000010B51421044600F044FD204610BD0000CD
:107B100010B54FF47A73044608460021C4E90113F6
:107B2000044B23600123207463741146FEF7BAF9F5
:107B3000204610BDACB70D00007C0022FEF7BAB99C
:107B400010B514220446002101F094FB204610BD1C
:107B500010B5104C88B003A8FFF7F2FF2178BFF3EF
:107B60005B8F11F0010111D120460191FCF799FAC8
:107B7000019958B103AA0848FFF7CAFF2046FCF74D
:107B800095FA064A0649044800F0FEFC024808B08F
:107B900010BD00BF8CE6032090E60320685503204B
:107BA000997A0D0070474174704708B5007CFEF764
:107BB000F1F820EAE07008BD08B5007CFEF7CAF8CD
:107BC00020EAE07008BD08B5007CFEF7D3F840EA73
:107BD000E07008BD08B5007CFEF7C4F840EAE0702C
:107BE00008BD007CFEF7CEB837B5457C04462DB104
:107BF000207C03B0BDE83040FEF7A4B8007C0191C2
:107C0000FEF7C8F800280199F2DC284603B030BD21
:107C100010B51421044600F0BCFC204610BD000045
:107C200010B54FF0000C0446084611464FF47A7226
:107C3000C4E901C2044A22600122207462741A4617
:107C4000FEF778F8204610BDDCB70D0013B50E4CDA
:107C50002178BFF35B8F11F0010112D12046019111
:107C6000FCF71FFA019960B1084A094B0948FFF770
:107C7000D7FF2046FCF71AFA074A0849054800F0E2
:107C800083FC044802B010BDA4E60320A8E603204C
:107C90002CE70320B0E7032068550320A57B0D00E7
:107CA0007047F8B5064615460C468F18BC4206D0FC
:107CB000336814F8011B9B6830469847F6E728465E
:107CC000F8BD007C0022FEF785B8007C0021FEF79D
:107CD00089B8007C0021FEF78DB8007C0021FEF7FA
:107CE00091B8007C0021FEF795B810B51421044628
:107CF00000F04FFC204610BD10B54FF47A730446D7
:107D000008460021C4E90113034B23602074114687
:107D1000FEF788F8204610BD0CB80D000023007C4B
:107D20001A461946FEF73EB87FB500221423CDE966
:107D30000122ADF804300B788DF808304B680393BE
:107D4000CB680493007C0B7A059301A9FEF772F8C7
:107D500007B05DF804FB1FB5003B8DF800104FF035
:107D60006401039118BF0123694601928DF8083020
:107D7000FFF7DAFF05B05DF804FB0123FFF7EBBF67
:107D8000007C0022FEF716B8C9B2FFF7F9BF007CED
:107D90000022FEF717B80121FFF7F9BF13B50368FA
:107DA0008DF80710DC6B01224FF0FF330DF1070156
:107DB000A04702B010BD10B40368DC6B4FF0FF3376
:107DC000A4465DF8044B604713B5134602688DF86E
:107DD0000710D46B0DF107010122A04702B010BDBE
:107DE000704738B543691A68002A054610DAB3F8B7
:107DF0008620B3F884309A420AD103681B699847F9
:107E0000044628B92B682846DB6A9847204638BDC7
:107E10000120FCE743691868C043C00F70477047F2
:107E2000064B994210B500F10C0405D0084600F04D
:107E3000B7FB002808BF0024204610BD38B70D004E
:107E400010B5AC21044600F0A4FB204610BDFCF7A1
:107E500026B92DE9F0414FF0000886B01D46C0F864
:107E6000048004460E4617464146102202A801F03F
:107E700001FA6B1C09D04FF47A70B5FBF0F3CDE931
:107E8000023800FB13535843049060691023009399
:107E9000006802AB41F2050240F6FF71FDF7D2FF28
:107EA000002807DAFEF702F903686360002006B0D5
:107EB000BDE8F0816069002300683A463146FDF76D
:107EC000E1FF031EEEDB1846F1E7000038B58469D8
:107ED0000A4B036005467CB16368013B63605BB994
:107EE000236820469B689847A368013BA3601BB9A1
:107EF00023682046DB689847284638BD68B80D00DF
:107F000010B50446FFF7E2FF20461C2100F041FBBC
:107F1000204610BD70B54D69054B04468C3544F8BC
:107F2000043B06460FCD0FC42B682370304670BD4E
:107F300098B70D0010B54369B3F88620B3F88430C4
:107F40009A42044605D06369B3F884201344187933
:107F500010BD03681B6998470028F4D14FF0FF302B
:107F6000F6E710B54369B3F88620B3F884309A4237
:107F7000044608D06369B3F88420511CA3F8841028
:107F80001344187910BD03681B6998470028F1D184
:107F90004FF0FF30F6E7F8B543691746B3F886208F
:107FA000B3F884309A4205460E4616D06969B1F896
:107FB0008430B1F88640E41ABC4228BF3C46043302
:107FC00022461944304601F02DF96A69B2F884302E
:107FD0002344A2F884302046F8BD03681B69984703
:107FE0000028E3D14FF0FF34F5E742690023A2F8FF
:107FF00084304269A2F8863070472DE9F0411F466F
:1080000003680C46DB6A8AB0054616469847237D0E
:10801000D5F81480042B0CBF02200A20062201216F
:10802000FDF738FFC8F800006B691B68002B08DA01
:108030002B682846DB6A0024984720460AB0BDE832
:10804000F0812846FFF7D1FFB7B1002303A9F8B2AA
:108050000393ADF81030FDF79BFD0028E8D1686967
:1080600006230093006803AB41F20B0240F6FF7158
:10807000FDF7E8FE0028DBD11C22002103A801F057
:10808000F9F8237D042B1DD14FF407733046ADF86A
:108090000C30FDF747FEADF80E006068FDF73AFEC4
:1080A00004906B691C22186803A9FDF7DBFE002809
:1080B000BED104340FCC6D698C350FC523682B708D
:1080C0000124BAE740F61C233046ADF80C30FDF72A
:1080D00029FE05AEADF80E00231D04F11407186843
:1080E0005968324603C20833BB421646F7D1D8E777
:1080F00030B54269B2F886308BB004462BB1B2F885
:1081000084209A4201D1FFF770FF61690868002856
:1081100018DBB1F886507F2D14D804310823C5F13F
:1081200080022944FDF7A6FE002813DD6369B3F839
:1081300086200AB9A3F884206369B3F88620104426
:10814000A3F886006369B3F88600B3F88430C01AD8
:108150000BB030BDFDF7AAFF03680B2BF2D0FDF783
:10816000A5FF03680B2BEDD020230025CDE90235B8
:10817000FDF79CFF03680193084B0949009302AA8D
:108180002B463220FDF7CEFE63691868FDF762FECC
:1081900063694FF0FF321A60D4E700BF33B80D00B7
:1081A0002CB80D0010B5436904461868002801DB9F
:1081B000FDF750FE63694FF0FF321A6060691122CB
:1081C00000218C3001F056F82046BDE81040FFF742
:1081D0000CBF10B5002304460160C0F8843088301D
:1081E000FFF706FC204610BD73B500234FF47A72EA
:1081F000C0E901320E4A0361026043610446AC20CB
:108200000191FBF748FF051E05F10C0608D001237C
:10821000C5E90133074B01992B603046FFF7D9FFC1
:108220002046C4E90565FFF7E0FE02B070BD00BF5F
:1082300068B80D004CB80D0010B54FF0FF31044682
:10824000FFF7D2FF204610BD10B504460068002895
:1082500001DBFDF7FFFD204610BD0C30FFF7F4BF3A
:108260002DE9F0439846036893B00D460024DB6A7D
:1082700006461746984728466B46224621460094F4
:10828000FDF776FC0546002863D1009B002B4BD000
:108290005B69002B48D006A8FFF7AAFB009B5C692E
:1082A0006378022B04D1211D06A8FDF7CDFF26E03F
:1082B0000A2B24D11122294601A800F0DBFFA36874
:1082C000002B38D004F108030DF1040C18341868A1
:1082D0005968624603C20833A3429446F7D1062385
:1082E00001A90CA88DF81430FFF790FB0DF1340CA8
:1082F000BCE80F0007AC0FC4DCF80030237006A800
:10830000FFF796FB80B1336807ADD3F82090124B8E
:108310000C930FCD0DAC0FC42B6823703A46434627
:108320000CA93046C84705460098FDF719FC2846B9
:1083300013B0BDE8F083E368002BC3D14FF6FF70A4
:10834000D4F81090FDF7E6FC8145BBD104F114018F
:10835000AAE72546E8E700BF98B70D00002240686D
:108360001146FDF723BE002240681146FDF73EBED0
:10837000002240681146FDF749BE40680022FDF723
:108380003DBE4068002281F00101FDF727BE0023B9
:1083900040681A461946FDF719BE0022406811468A
:1083A000FDF7F4BD406800220221FDF7F7BD002370
:1083B00040681A46FDF7E2BD024B04225A60024AA9
:1083C0001A607047C4E70320B4B80D00002340686A
:1083D0001A46FDF7D3BD406800220221FDF7DEBD3D
:1083E000002240681146FDF7D1BD002240681146C9
:1083F000FDF7DCBD002340681A461946FDF7DEBDD7
:10840000002340681A461946FDF7E0BD4068002188
:10841000FDF704BE40680021FDF708BE4068002259
:1084200081F00101FDF7DABD40680022FDF7E6BDED
:10843000002240681146FDF7E9BD00224068114660
:10844000FDF7D4BD2DE9F043002495B016460D4646
:108450000746FFF7CDFA214618220EA8009400F037
:1084600009FF4023CDE90C3421466B460CAA304667
:10847000FDF77EFB044600284CD1024601216868C6
:10848000FDF794FD0221804622466868FDF78EFDC7
:10849000009E81462146002E3CD000293AD17368C7
:1084A000022B03D00A2B11D0F669F4E7B8F1000FC4
:1084B0000AD0716906A8043107ADFFF7DDFA0FCDC8
:1084C0003C1D0FC42B6823704146EDE7B9F1000F46
:1084D00001D14946E8E77469102201A800F0CAFEFC
:1084E00006238DF8143001AD04F108031834186820
:1084F00059682A4603C20833A3421546F7D101A999
:1085000006A807ADFFF782FA0FCD3C1D0FC42B68FC
:108510002370DEE70098FDF723FB384615B0BDE871
:10852000F0830000024B034A1A6000225A60704731
:10853000CCE70320F0B80D0030B50F4D2978BFF31C
:108540005B8F11F0010487B013D12846FBF7A9FD1A
:1085500078B101A8FCF70CF801AA21460748FFF7FB
:10856000CBFB2846FBF7A2FD054A0649034800F06D
:108570000BF8024807B030BDD8E70320DCE7032042
:1085800068550320A17C0D000B460146184600F0FB
:108590002DBEFBF784BDFBF780BD08B5FDF776FD6A
:1085A000014900F0F9B800BF40B90D007FB50024C3
:1085B0001023CDE90234036800949E698DF80440CD
:1085C00015466B461268B0479DF8043003F0060369
:1085D000062B03BF009B2B600120204604B070BD1A
:1085E0000098904214BF01200620704710B5034B3D
:1085F0000360044600F0CDF8204610BD80B90D00A0
:1086000010B50446FFF7F2FF20460821FFF7C1FF2F
:10861000204610BD2DE9F0411F46DDE90834DDF8A4
:10862000188098450646154607D1079900F0B4F81A
:1086300018B165710020BDE8F0813946304600F080
:10864000ABF80028F6D00123C4F800802571A3718F
:10865000F0E738B515461C4600F09EF820B1082317
:10866000E36006232560237138BD73B505460C46CB
:1086700001921E4600F090F850B9032E08D82368E6
:10868000019A5B692946204602B0BDE87040184750
:1086900002B070BD10B5034B03600446FFF7A6FFA0
:1086A000204610BDE0B90D0010B50446FFF7F2FFFB
:1086B00020460C21FFF76DFF204610BDF7B5089F3F
:1086C000974205460E4614460AD0A86802680897E5
:1086D000156A31462246AC4603B0BDE8F04060471B
:1086E0001946019300F058F8019B0028EDD00620B0
:1086F00003B0F0BD2DE9F14F0D461946DDE90A4BF7
:10870000DDE90CA681461746984600F045F890B181
:10871000002D3460377109DB61198A450CBF0621D1
:108720000121B171002001B0BDE8F08F0235F9D10F
:108730000123B371F6E7544506D15946484600F087
:108740002BF808B17771EDE7D9F808000368CDE997
:108750000CA6CDE90A4BDC693A4643462946A446B5
:1087600001B0BDE8F04F60472DE9F04107460C46E7
:1087700015461E46FFF76DFF48B9B86803689F6944
:108780002A4633462146BC46BDE8F0416047BDE875
:10879000F081704700207047814208B50ED04068D4
:1087A00003782A2B0CD049680B782A2B08BF01319B
:1087B00000F08CFDB0FA80F0400908BD0120FCE714
:1087C0000020FAE781F0004102E000BF83F000439F
:1087D00030B54FEA41044FEA430594EA050F08BF5C
:1087E00090EA020F1FBF54EA000C55EA020C7FEA20
:1087F000645C7FEA655C00F0E2804FEA5454D4EB9D
:108800005555B8BF6D420CDD2C4480EA020281EA66
:10881000030382EA000083EA010180EA020281EA9E
:108820000303362D88BF30BD11F0004F4FEA0131F0
:108830004FF4801C4CEA113102D0404261EB4101FF
:1088400013F0004F4FEA03334CEA133302D0524285
:1088500063EB430394EA050F00F0A780A4F1010441
:10886000D5F1200E0DDB02FA0EFC22FA05F280187B
:1088700041F1000103FA0EF2801843FA05F3594161
:108880000EE0A5F120050EF1200E012A03FA0EFCE0
:1088900028BF4CF0020C43FA05F3C01851EBE3710A
:1088A00001F0004507D54FF0000EDCF1000C7EEB27
:1088B00000006EEB0101B1F5801F1BD3B1F5001F65
:1088C0000CD349085FEA30004FEA3C0C04F1010484
:1088D0004FEA445212F5800F80F09A80BCF1004FAD
:1088E00008BF5FEA500C50F1000041EB045141EA2F
:1088F000050130BD5FEA4C0C404141EB0101013CF8
:1089000028BFB1F5801FE9D291F0000F04BF0146E6
:108910000020B1FA81F308BF2033A3F10B03B3F1B8
:1089200020020CDA0C3208DD02F1140CC2F10C0248
:1089300001FA0CF021FA02F10CE002F11402D8BFA6
:10894000C2F1200C01FA02F120FA0CFCDCBF41EA72
:108950000C019040E41AA2BF01EB0451294330BD41
:108960006FEA04041F3C1CDA0C340EDC04F114041E
:10897000C4F1200220FA04F001FA02F340EA0300F5
:1089800021FA04F345EA030130BDC4F10C04C4F13B
:10899000200220FA02F001FA04F340EA030029461B
:1089A00030BD21FA04F0294630BD94F0000F83F465
:1089B000801306BF81F480110134013D4EE77FEA48
:1089C000645C18BF7FEA655C29D094EA050F08BF94
:1089D00090EA020F05D054EA000C04BF1946104675
:1089E00030BD91EA030F1EBF0021002030BD5FEAB9
:1089F000545C05D14000494128BF41F0004130BDE1
:108A000014F580043CBF01F5801130BD01F0004534
:108A100045F0FE4141F470014FF0000030BD7FEAA7
:108A2000645C1ABF194610467FEA655C1CBF0B46A2
:108A3000024650EA013406BF52EA033591EA030FB9
:108A400041F4002130BD00BF90F0000F04BF0021B1
:108A5000704730B54FF4806404F132044FF00005E4
:108A60004FF0000150E700BF90F0000F04BF00215D
:108A7000704730B54FF4806404F1320410F00045C3
:108A800048BF40424FF000013EE700BF42004FEABE
:108A9000E2014FEA31014FEA02701FBF12F07F433B
:108AA00093F07F4F81F06051704732F07F4208BFF2
:108AB000704793F07F4F04BF41F40021704730B5F9
:108AC0004FF4607401F0004521F000411CE700BF45
:108AD00050EA010208BF704730B54FF000050AE0C8
:108AE00050EA010208BF704730B511F0004502D5C9
:108AF000404261EB41014FF4806404F132045FEACB
:108B0000915C3FF4D8AE4FF003025FEADC0C18BF73
:108B100003325FEADC0C18BF033202EBDC02C2F165
:108B2000200300FA03FC20FA02F001FA03FE40EAF7
:108B30000E0021FA02F11444BDE600BF70B54FF0FB
:108B4000FF0C4CF4E06C1CEA11541DBF1CEA1355D9
:108B500094EA0C0F95EA0C0F00F0DEF82C4481EA41
:108B6000030621EA4C5123EA4C5350EA013518BF61
:108B700052EA033541F4801143F4801338D0A0FB4E
:108B800002CE4FF00005E1FB02E506F00042E0FBFB
:108B900003E54FF00006E1FB03569CF0000F18BF01
:108BA0004EF0010EA4F1FF04B6F5007F64F54074A9
:108BB00004D25FEA4E0E6D4146EB060642EAC6213C
:108BC00041EA55514FEAC52040EA5E504FEACE2EA9
:108BD000B4F1FD0C88BFBCF5E06F1ED8BEF1004FAC
:108BE00008BF5FEA500E50F1000041EB045170BD28
:108BF00006F0004646EA010140EA020081EA03016C
:108C0000B4EB5C04C2BFD4EB0C0541EA045170BD67
:108C100041F480114FF0000E013C00F3AB8014F1E1
:108C2000360FDEBF002001F0004170BDC4F100042A
:108C3000203C35DA0C341BDC04F11404C4F12005AB
:108C400000FA05F320FA04F001FA05F240EA020006
:108C500001F0004221F0004110EBD37021FA04F63C
:108C600042EB06015EEA430E08BF20EAD37070BDF6
:108C7000C4F10C04C4F1200500FA04F320FA05F055
:108C800001FA04F240EA020001F0004110EBD37057
:108C900041F100015EEA430E08BF20EAD37070BDC7
:108CA000C4F1200500FA05F24EEA020E20FA04F3A0
:108CB00001FA05F243EA020321FA04F001F000414F
:108CC00021FA04F220EA020000EBD3705EEA430EC0
:108CD00008BF20EAD37070BD94F0000F0FD101F0EF
:108CE0000046400041EB010111F4801F08BF013C28
:108CF000F7D041EA060195F0000F18BF704703F066
:108D00000046520043EB030313F4801F08BF013DEC
:108D1000F7D043EA0603704794EA0C0F0CEA1355A8
:108D200018BF95EA0C0F0CD050EA410618BF52EA62
:108D30004306D1D181EA030101F000414FF0000068
:108D400070BD50EA410606BF1046194652EA430676
:108D500019D094EA0C0F02D150EA013613D195EAEA
:108D60000C0F05D152EA03361CBF104619460AD132
:108D700081EA030101F0004141F0FE4141F470013C
:108D80004FF0000070BD41F0FE4141F4780170BD2C
:108D900070B54FF0FF0C4CF4E06C1CEA11541DBF91
:108DA0001CEA135594EA0C0F95EA0C0F00F0A7F893
:108DB000A4EB050481EA030E52EA03354FEA0131C0
:108DC00000F088804FEA03334FF0805545EA1313D3
:108DD00043EA12634FEA022245EA111545EA10659B
:108DE0004FEA00260EF000419D4208BF964244F132
:108DF000FD0404F5407402D25B084FEA3202B61A51
:108E000065EB03055B084FEA32024FF480104FF424
:108E1000002CB6EB020E75EB030E22BFB61A754698
:108E200040EA0C005B084FEA3202B6EB020E75EB2B
:108E3000030E22BFB61A754640EA5C005B084FEA93
:108E40003202B6EB020E75EB030E22BFB61A754660
:108E500040EA9C005B084FEA3202B6EB020E75EB6B
:108E6000030E22BFB61A754640EADC0055EA060E2C
:108E700018D04FEA051545EA16754FEA06164FEA6F
:108E8000C30343EA52734FEAC2025FEA1C1CC0D11B
:108E900011F4801F0BD141EA00014FF000004FF0A8
:108EA000004CB6E711F4801F04BF01430020B4F169
:108EB000FD0C88BFBCF5E06F3FF6AFAEB5EB030C21
:108EC00004BFB6EB020C5FEA500C50F1000041EB1E
:108ED000045170BD0EF0004E4EEA113114EB5C04EB
:108EE000C2BFD4EB0C0541EA045170BD41F48011BE
:108EF0004FF0000E013C90E645EA060E8DE60CEAC6
:108F0000135594EA0C0F08BF95EA0C0F3FF43BAFE2
:108F100094EA0C0F0AD150EA01347FF434AF95EA99
:108F20000C0F7FF425AF104619462CE795EA0C0F7D
:108F300006D152EA03353FF4FDAE1046194622E74A
:108F400050EA410618BF52EA43067FF4C5AE50EA24
:108F500041047FF40DAF52EA43057FF4EBAE12E714
:108F60004FF0FF3C06E000BF4FF0010C02E000BFF5
:108F70004FF0010C4DF804CD4FEA410C7FEA6C5CD8
:108F80004FEA430C18BF7FEA6C5C1BD001B050EA7B
:108F9000410C0CBF52EA430C91EA030F02BF90EA66
:108FA000020F0020704710F1000F91EA030F58BF25
:108FB000994208BF90422CBFD8176FEAE37040F087
:108FC000010070474FEA410C7FEA6C5C02D150EA25
:108FD000013C07D14FEA430C7FEA6C5CD6D152EAE0
:108FE000033CD3D05DF8040B704700BF84461046A5
:108FF00062468C461946634600E000BF01B5FFF7A4
:10900000B7FF002848BF10F1000F01BD4DF808ED73
:10901000FFF7F4FF0CBF012000205DF808FB00BF44
:109020004DF808EDFFF7EAFF34BF012000205DF89E
:1090300008FB00BF4DF808EDFFF7E0FF94BF0120EB
:1090400000205DF808FB00BF4DF808EDFFF7CEFFEC
:1090500094BF012000205DF808FB00BF4DF808ED2B
:10906000FFF7C4FF34BF012000205DF808FB00BFFC
:109070004FEA410212F5001215D211D56FF4787340
:10908000B3EB625212D94FEAC12343F0004343EAE3
:10909000505311F0004F23FA02F018BF40427047BE
:1090A0004FF00000704750EA013005D111F0004048
:1090B00008BF6FF0004070474FF00000704700BFDE
:1090C0004A0011D212F5001211D20DD56FF4787347
:1090D000B3EB62520ED44FEAC12343F0004343EA9C
:1090E000505323FA02F070474FF00000704750EAE7
:1090F000013002D14FF0FF3070474FF00000704751
:109100004FEA4102B2F1E04324BFB3F5001CDCF1A9
:10911000FE5C0DD901F0004C4FEAC0024CEA5070E1
:10912000B2F1004F40EB830008BF20F00100704710
:1091300011F0804F21D113F13872BCBF01F0004013
:10914000704741F480114FEA5252C2F11802C2F145
:10915000200C10FA0CF320FA02F018BF40F00100C6
:109160004FEAC1234FEAD32303FA0CFC40EA0C0078
:1091700023FA02F34FEA4303CCE77FEA625307D1B5
:1091800050EA01331EBF4FF0FE4040F440007047EC
:1091900001F0004040F0FE4040F40000704700BF86
:1091A000D0B50C4B002206460F46FFF7C7FCFFF771
:1091B00087FF0446FFF748FC074B0022FFF7BEFC81
:1091C00002460B4630463946FFF700FBFFF778FFB3
:1091D0002146D0BD0000F03D0000F041002100F02C
:1091E000EDBE0A22002100F06FBF000010B5054C53
:1091F00013462CB10A4601460220AFF3008010BD91
:109200002046FCE70000000030B501390024A242EE
:1092100001D1002005E0035D01340D5DAB42F6D0C5
:10922000581B30BD0A44914200F1FF3300D1704712
:1092300010B511F8014B03F8014F9142F9D110BD5F
:10924000884210B501EB020402D98442234607D8B4
:10925000431EA14208D011F8012B03F8012FF8E7B3
:10926000024401468A4200D110BD13F8014D02F8B4
:10927000014DF7E702440346934200D1704703F8DB
:10928000011BF9E738B50D4B1D68AB6B04467BB984
:109290001820FCF7DBFE0A4A0A4BA863C0E900234A
:1092A000094B83600B23838101220023C0E904233F
:1092B000AB6B00221C615A6138BD00BF9453032080
:1092C0000E33CDAB34126DE6ECDE050010F8012B49
:1092D00011F8013B012A28BF9A42F7D0D01A7047F3
:1092E000034611F8012B03F8012B002AF9D170472E
:1092F000034613F8012B002AFBD1181A01387047D6
:1093000010B56AB10139841810F8013B11F8012F2A
:10931000934203D1A04201D0002BF5D1981A10BD81
:109320001046FCE710B5024601448A42134601D1BB
:10933000181A10BD1C780132002CF6D1F8E7F0B5F0
:109340000C7864B103461A7818465E1C0AB91046B8
:1093500005E0944208D10D4615F8012F02B9F0BD81
:1093600013F8017F9742F7D03346ECE770B5044617
:109370000D4645EC104B164601F01CFD51EC100B50
:109380007EB1C5F30A53C3F16B03002B09DD1B0546
:1093900003F17F55002405F5401522462B46FFF7C3
:1093A000CDFB70BD000000002DE9F04FA3B01F46BB
:1093B00000231E93A44B19921B680793044618467A
:1093C0008846FFF795FF4FF0000A05464FF0000B67
:1093D000CDF874801D9B1A782B2A4CD039D80D2AD1
:1093E00032D8082A32D8002A3CD000230E931D9E82
:1093F0003378302B40F0B480737803F0DF03582BC0
:109400006CD10E9B01931EAB029700938F4A1FAB4A
:109410001DA9204600F0CAFE10F00707054605D03A
:10942000062F2AD1013600231D960E93199B002B7F
:1094300040F096850E9BDBB152460BF1004343ECA6
:10944000102B23B0BDE8F08F202ACED101331D931D
:10945000C0E72D2AC9D101220E925A1C1D925B78B9
:10946000002BC4D1199BCDF87480002B40F0768579
:1094700052465B46E3E70022EEE71E9A3AB13521F9
:1094800020A801F096FD1E99204601F0CBF9013F7E
:10949000052F07D8DFE807F00E0B181D0E034FF05D
:1094A000000BDA462807C1D54BF0004BBEE7DDE9DB
:1094B00020ABF7E7DDE920A31F9A23F4801302F223
:1094C000334243EA025BEDE7DFF884B14FF0000A74
:1094D000E8E76FF0004B4FF0FF3AE3E71D9B5A1CA3
:1094E0001D925B78302BF9D0002B9FD001234FF0D9
:1094F000000904931D9B0A93CDF824904F460A223D
:109500001D980678A6F13003D9B209292AD90799FE
:109510002A46FFF7F5FE98B3002033463D460790F4
:109520000246652B01D0452B18D11DB9049B03437E
:1095300098D00025DDF8748008F101031D9398F898
:1095400001302B2B75D02D2B7BD04FF0000CA3F1CD
:109550003001092940F28280CDF8748000269DE018
:109560000023C4E7082FD8BF099900F10100DABF32
:1095700002FB0133099302FB093901371D90BFE754
:109580001D9B5A191D925B5D002F37D007903D46F9
:10959000A3F13002092A12D90122C2E71D9B5A1CED
:1095A0001D925B780130302BF8D0A3F13102082AEC
:1095B00000F2DB841D9A079000200A920546303B9A
:1095C00000F1010214D00799114407912A4600EBDB
:1095D000050E0A21724513D12A18082A05F1010542
:1095E00005441CDC09990A2202FB0133099300227D
:1095F0001D9B591C1D915B781046C9E73846D2E780
:10960000082A04DC099E4E4309960132E2E702F182
:10961000010CBCF1100FD8BF01FB09F9F5E7102DC3
:10962000DCBF0A2202FB0939E1E70023079301228C
:109630007CE74FF0000C08F102031D9398F802300C
:1096400085E74FF0010CF6E77CBB0D0028BA0D0052
:109650000000F07F1D9B591C1D915B78302BF9D0C9
:10966000A3F1310108293FF679AFA3F1300E1D9B1C
:1096700008931D9B591C1D915B78A3F13006092EA0
:1096800037D9089E891B082944F61F6602DC7645F7
:10969000A8BF7646BCF1000F00D07642002D4FD116
:1096A000049901437FF4C2AE002A7FF4DBAE692B3C
:1096B00027D024DC492B24D04E2B7FF4D3AE9E49F7
:1096C0001DA800F0B9FF00283FF4CCAE1D9B1B780D
:1096D000282B2DD1994920AA1DA800F0C1FF0528EB
:1096E00026D1219BDDF880A043F0FF4B4BF4E00B2B
:1096F0009CE60A2101FB0E3EAEF1300EB9E76E2B5F
:10970000DBE78F491DA800F097FF00283FF4AAAEC1
:109710001D9B8C49013B1DA81D9300F08DFF10B9C6
:109720001D9B01331D93DFF82CB24FF0000A7DE63C
:10973000854801F091FC8DED040BDDE904AB75E685
:10974000079B0998F31A002F08BF2F46102D089386
:10975000A846A8BF4FF01008FFF776F9092D8246FA
:109760008B4613DD794B03EBC80353E91223FFF754
:10977000E5F9824648468B46FFF766F902460B46F6
:1097800050465946FFF724F882468B460F2D38DCA9
:10979000089B002B3FF44AAE24DD162B0BDC6B4DEF
:1097A00005EBC305D5E9000152465B46FFF7C6F954
:1097B00082468B463AE6089AC5F12503934220DBA0
:1097C000624CC5F10F0504EBC50152465B46D1E979
:1097D0000001FFF7B3F9089B5D1B04EBC504D4E956
:1097E0000023E3E7089B16330BDB079B574A9E1BBE
:1097F00002EBC606D6E9002350465946FFF7C8FAE1
:10980000D6E7089BA5EB08089844B8F1000F71DD76
:1098100018F00F030AD04D4901EBC30152465B46D5
:10982000D1E90001FFF78AF982468B4638F00F082C
:109830004DD0B8F59A7F22DD00252E460995079573
:109840002223DFF810B123604FF0000A099B002BA0
:109850003FF4ECAD1E99204600F0E4FF0799204646
:1098600000F0E0FF3146204600F0DCFF0999204679
:1098700000F0D8FF2946204600F0D4FFD6E50023AB
:109880004FEA2818504659469946B8F1010F21DC95
:109890000BB182468B462E4BABF1547B03EBC909CF
:1098A00052465B46D9E90001FFF748F9294B0A46C1
:1098B0000B4029498B428246BED8A1F580118B42CC
:1098C00086BFDFF898B04FF0FF3A02F1547B0023D7
:1098D000049381E018F0010F07D01D4B03EBC9037F
:1098E000D3E90023FFF72AF9012309F101094FEA1F
:1098F0006808CAE7EBD0C8F1000818F00F020AD0D8
:10990000124B03EBC20350465946D3E90023FFF73D
:109910003FFA82468B465FEA2818D8D0B8F11F0F6D
:109920001EDD00252E460995079522234FF0000ADB
:109930004FF0000B236089E722BA0D003CBA0D00FE
:1099400019BA0D001CBA0D0049B50D00B8BB0D00C9
:1099500090BB0D000000F07F0000A07CFFFFEF7FB8
:1099600018F0100318BF6A23DFF8B493049350462D
:109970005946002318F0010F04D0D9E90023FFF75E
:10998000DDF801235FEA680809F10809F2D10BB19B
:1099900082468B46049BBBB1CBF30A53C3F16B03E6
:1099A000002B594610DD1F2B40F32881342BDEBFDE
:1099B000203B4FF0FF3202FA03F34FF0000ACCBF16
:1099C0004FF05C7B03EA010B00220023504659460E
:1099D000FFF71CFB0028A4D1099B00930A992B4692
:1099E0003A46204600F073FF099000283FF424AF68
:1099F000079B9E1B089B002BB4BF3346002310938C
:109A0000089B002523EAE37318932E46099B204602
:109A1000596800F0D3FE079000283FF411AF099B6E
:109A20001A69023203F10C0192000C30FFF7FAFBC5
:109A30004BEC10AB20AA1FA92046CDE90AAB01F0E0
:109A400035FA1E9000283FF4FBAE0121204600F0BD
:109A5000CCFF064600283FF4F3AE1F9B0499002B71
:109A6000ABBF109A189A189FDDF84090ACBF03EB7B
:109A70000209D71A209AA3EB01089044A34B08F1DE
:109A8000FF389845C2F1360280F2CC80A3EB080380
:109A90001F2BA2EB03024FF0010100F3B68001FA85
:109AA00003F3119300230C9309EB0208049BC145B7
:109AB00017441F444B46A8BF4346BB42A8BF3B4682
:109AC000002BC2BFA8EB0308FF1AA9EB0309109BE8
:109AD000002B17DD31461A46204601F02BF80646CA
